:100000000C94A6060C94DE060C94DE060C94DE0618
:100010000C94DE060C94DE060C94DE060C94DE06D0
:100020000C94DE060C94DE060C94B82A0C948A2BF1
:100030000C94DE060C94DE060C94DE060C94DE06B0
:100040000C94DE060C94D6180C94DE060C94DE0696
:100050000C94CD1B0C94D6240C94DE060C94DE0676
:100060000C94DE060C94DE060C94DE060C94DE0680
:100070000C94DE060C94DE060C94DE060C94DE0670
:100080000C94DE060C94DE060C94DE060C94DE0660
:100090000C94DE060C94DE060C94DE060C94DE0650
:1000A0000C94DE060C94DE060C94DE06A70BA70B60
:1000B000D30BD30B3B0C350D350D350D590CC10C45
:1000C000D20CD20CDC1ADE1AE31AE61AE91AEC1A80
:1000D000EF1A571D5A1D7A1D8B1D931D9E1DA11DC4
:1000E000A41DA71DED1DED1DAA1DAD1DB21DBF1D3B
:1000F000CC1DCF1DD31DE01D192007202020761F09
:10010000B020B0200420B020B0204F20B0206520C7
:10011000B020B020B020B020B0208320B020B0208C
:100120008020B0203B20B0206B1FAA20AA20AA204C
:10013000AA20AA20AA20AA20AA20AA20AC20B02067
:100140001920FD1FB020B020B020B020B020B0207A
:10015000B020B020B020B020AC20B020B0200420CF
:10016000B020A820A820A820A820A820A820A82047
:10017000A820A820AC20F72B1E2C162D1E2C162DE7
:100180006A2C8D2C162DE42CF32C29001E001F0048
:100190002000210022002300240025002600270043
:1001A0002D002E002A002B0014001A000800150054
:1001B00017001C0018000C00120013002F00300064
:1001C0000100390004001600070009000A000B00B6
:1001D0000D000E000F003300340028003100E10054
:1001E0001D001B000600190005001100100036005C
:1001F00037003800E50001000000E000E300E20005
:100200000100000000002C0000000100E600015188
:10021000E700E40000000100BF5CBD5CBE5C0100C3
:1002200001000100010001000100010001000100C6
:1002300001000100010001000100005C010001005B
:1002400001000100010001000100010001000100A6
:100250000100010001000100010001000100010096
:100260000100010001000100010001000100010086
:100270000100010001000100010001000100010076
:100280000100010000000100010001000100000068
:100290000000AE00000001000100010001000100AB
:1002A0000000010001000100010001000100010047
:1002B0000100010001000100010001000100010036
:1002C0000100010001000100010001000100010026
:1002D0000100010001000100010001000100010016
:1002E0000100010001000100010001000100010006
:1002F00001000100010001000100010001000100F6
:1003000001000100010001000100010001000100E5
:1003100000000100010001000100000000000100D8
:1003200000000100010001000100010000000100C7
:1003300001000100010001000100010001000100B5
:1003400001000100010001000100010001000100A5
:100350000100010001000100010001000100010095
:100360000100010001000100010001000100010085
:100370000100010001000100010001000100010075
:100380000100010001000100010001000100010065
:100390000100010001000100010001000000010056
:1003A0000100010001000000000001000000010048
:1003B0000100010001000100000044454255473A98
:1003C0002064697361626C65642E0A00444542557D
:1003D000473A20656E61626C65642E0A0000000079
:1003E00000000000002A2B28000000000000000090
:1003F000000000000000000029000000002C1E3456
:1004000020212224342627252E362D3738271E1F5B
:10041000202122232425263333362E37381F040586
:10042000060708090A0B0C0D0E0F101112131415F4
:10043000161718191A1B1C1D2F3130232D350405D2
:10044000060708090A0B0C0D0E0F101112131415D4
:10045000161718191A1B1C1D2F3130354C000000BF
:10046000000000000000000000000000000000008C
:10047000000000000000000000000000000000007C
:10048000007E0F00D4FFFFFFC7000000780A0025A0
:10049000303258006C65645F7461736B3A20004FB2
:1004A0006E6573686F743A206163746976653A208B
:1004B00025640A000A002530313662003A20002502
:1004C000303258000A722F632030313233343536DF
:1004D0003738394142434445460A000000000000D5
:1004E000000000000000010204060A0F17202C3A49
:1004F0004A5D71879DB3C7DAE9F5FCFFFCF5E9DADF
:10050000C7B39D87715D4A3A2C20170F0A06040273
:1005100001000000000000000000006261636B6CDD
:100520006967687420627265617468696E672064C7
:10053000697361626C650A006261636B6C6967680C
:100540007420627265617468696E6720656E6162AD
:100550006C650A006261636B6C6967687420627223
:1005600065617468696E6720746F67676C653A20AF
:1005700025750A006261636B6C6967687420737427
:1005800065703A2025750A006261636B6C69676863
:10059000742064697361626C650A006261636B6CEC
:1005A0006967687420656E61626C650A00626163E8
:1005B0006B6C6967687420746F67676C653A202597
:1005C000750A006261636B6C6967687420646563B7
:1005D00072656173653A2025750A006261636B6C10
:1005E0006967687420696E6372656173653A202576
:1005F000750A00000000000000000000000001017A
:100600000203040506080A0C0F1114181C202429E3
:100610002E33393F464C535B626A7179818A929AD4
:10062000A2AAB2B9C1C8CFD5DCE1E7EBF0F4F7FA82
:10063000FCFDFEFFFEFDFCFAF7F4F0EBE7E1DCD594
:10064000CFC8C1B9B2AAA29A928A8179716A625B53
:10065000534C463F39332E2924201C1814110F0CFB
:100660000A08060504030201010000000000000062
:100670000000003F00433E20004C25640A000A09A8
:100680002D20537461747573202D0A686F73745F25
:100690006B6579626F6172645F6C65647328293A77
:1006A00020253032580A6B6579626F6172645F7021
:1006B000726F746F636F6C3A20253032580A6B6525
:1006C00079626F6172645F69646C653A20253032CB
:1006D000580A74696D65725F7265616433322829E6
:1006E0003A202530386C580A000A092D20566572C8
:1006F00073696F6E202D0A5649443A2030783034A1
:1007000044382868696E657962757368206B65790D
:10071000626F6172647329205049443A20307845F1
:100720004242452868363029205645523A203078D2
:10073000303030310A4255494C443A2020284D612E
:10074000792020382032303232290A4F5054494F14
:100750004E533A204C5546412045585452414B4542
:100760005920434F4E534F4C4520434F4D4D414E22
:100770004420343039360A4743433A20352E342E4C
:1007800030204156522D4C4942433A20322E302ED1
:1007900030204156525F415243483A2061767235CB
:1007A0000A000A092D20436F6E736F6C65202D0AB5
:1007B0004553432F713A09717569740A000A092D6E
:1007C000204D61676963202D0A443A0944656275CA
:1007D00067204D65737361676520546F67676C654B
:1007E0000A583A094D6174726978204465627567E8
:1007F000204D6F646520546F67676C65202D205312
:10080000686F77206B6579707265737365732069A3
:100810006E206D617472697820677269640A4B3A60
:10082000094B6579626F6172642044656275672067
:10083000546F67676C65202D2053686F77206B6558
:10084000797072657373207265706F72740A4D3AB5
:10085000094465627567204D6F75736520546F6735
:10086000676C650A563A0956657273696F6E0A536A
:100870003A095374617475730A433A0941637469A0
:100880007661746520436F6E736F6C65204D6F6485
:10089000650A46312D4631303A09537769746368E9
:1008A00020746F204C6179657220302D39202846E4
:1008B0003130203D204C30290A302D393A09537708
:1008C0006974636820746F204C6179657220302DE3
:1008D000390A47524156453A09537769746368208B
:1008E000746F204C6179657220302028616C7465CA
:1008F000726E617465290A423A094A756D702074F6
:100900006F20426F6F746C6F616465720A45534368
:100910003A094A756D7020746F20426F6F746C6F66
:10092000616465722028616C7465726E61746529FA
:100930000A453A095072696E7420454550524F4D30
:100940002053657474696E67730A4253504143457E
:100950003A09436C65617220454550524F4D0A5A21
:100960003A09536C656570204C4544205465737496
:100970000A006261636B6C696768745F636F6E66BF
:1009800069672E7261773A20253032580A2E656EDB
:1009900061626C653A2025750A2E6C6576656C3A45
:1009A0002025750A006B65796D61705F636F6E66F7
:1009B00069672E7261773A20253032580A2E737794
:1009C00061705F636F6E74726F6C5F636170736C84
:1009D0006F636B3A2025750A2E636170736C6F63C9
:1009E0006B5F746F5F636F6E74726F6C3A20257506
:1009F0000A2E737761705F6C63746C5F6C677569E6
:100A00003A2025750A2E737761705F7263746C5F8C
:100A1000726775693A2025750A2E737761705F6C6D
:100A2000616C745F6C6775693A2025750A2E73775F
:100A300061705F72616C745F726775693A202575C9
:100A40000A2E6E6F5F6775693A2025750A2E7377D7
:100A500061705F67726176655F6573633A202575C3
:100A60000A2E737761705F6261636B736C61736888
:100A70005F6261636B73706163653A2025750A2E4E
:100A80006E6B726F3A2025750A0064656275675F48
:100A9000636F6E6669672E7261773A20253032582F
:100AA0000A2E656E61626C653A2025750A2E6D61AD
:100AB000747269783A2025750A2E6B6579626F61C8
:100AC00072643A2025750A2E6D6F7573653A20257C
:100AD000750A006565636F6E6669673A0A646566E4
:100AE00061756C745F6C617965723A2025750A00D6
:100AF0003F000A6D6F7573653A206F66660A000ADB
:100B00006D6F7573653A206F6E0A000A6B657962C6
:100B10006F6172643A206F66660A000A6B657962DB
:100B20006F6172643A206F6E0A000A6D61747269B7
:100B3000783A206F66660A000A6D61747269783AC5
:100B4000206F6E0A000A64656275673A206F6666F8
:100B50000A000A64656275673A206F6E0A000A0A25
:100B60004A756D70696E6720746F20626F6F746C68
:100B70006F616465722E2E2E2000433E2000436C70
:100B8000656172696E6720454550524F4D0A0053AA
:100B90006C656570204C454420546573740A000AE6
:100BA000002530325820006B6579626F6172645F96
:100BB0007265706F72743A20005B735D005B575D05
:100BC000005B535D005B525D005B445D005B435D19
:100BD0000008036800360030000000280368006940
:100BE000006E0065007900620075007300680020E7
:100BF000006B006500790062006F006100720064A4
:100C000000730000000403090409027B00040100D2
:100C1000A0FA0904000001030101000921110100EB
:100C200001224000070581030800010904010002B8
:100C300003000000092111010001222200070582A2
:100C4000032000010705030320000109040200013D
:100C50000300000009211101000122320007058470
:100C60000320000109040300020300000009211110
:100C70000100012222000705850320000107050568
:100C8000032000011201000200000008D804BEEB9E
:100C90000100010200010631FF0974A10109751567
:100CA0000026FF009520750881020976150026FFB1
:100CB00000952075089102C00660FF0961A1010935
:100CC00062150026FF009520750881020963150052
:100CD00026FF00952075089102C005010980A10139
:100CE000850319012AB700150126B7009501751073
:100CF0008100C0050C0901A101850419012AA00287
:100D0000150126A002950175108100C00501090694
:100D1000A101050719E029E71500250195087501CE
:100D200081029501750881010507190029FF150049
:100D300026FF00950675088100050819012905950B
:100D40000575019102950175039101C011241FBE23
:100D5000CFEFDAE0DEBFCDBF04B603FE18C080914E
:100D6000680290916902A0916A02B0916B0287308B
:100D7000904BA740B04B59F4109268021092690250
:100D800010926A0210926B02E0E0F8E3099511E01C
:100D9000A0E0B1E0E6E2FCE502C005900D92AC39BE
:100DA000B107D9F722E0ACE9B1E001C01D92A83645
:100DB000B207E1F70E94A4180C94112E0C940000C5
:100DC000FF93EF93E0919C01F0919D01309709F022
:100DD0000995EF91FF910895FC018591803011F004
:100DE000EFDFFBCF0895FF27E0E230E247FF0CC0C2
:100DF000419597FF09C0EDE26095709580959095BB
:100E0000611D711D811D911D27FF02C0219530E3D9
:100E100050E2AA27660F771F881F991FAA1FA417E1
:100E200010F0A41B63955A95A9F7AA3008F0A95FA2
:100E3000A05DAF93F395611571058105910541F7AB
:100E4000ED3211F4EF93F395F21718F43F93F39505
:100E5000FBCF8F91B5DFFA95E1F70895E991F9910C
:100E60008591803021F0853219F0AADFF9CF0895FD
:100E700020E0E89455915532C1F3503311F4689451
:100E800055915A3348F4505390F3220F022E220FFB
:100E9000220F200D250FF4CF0EF421958991999101
:100EA000533619F3533729F1533559F1BC018827CB
:100EB0009927E8945C3621F4899199916894559129
:100EC000543639F446EF7EF077FF0DC08FEF9FEF79
:100ED0000AC055374AE039F0583540E121F0523622
:100EE00042E009F00895FF93EF937DDFEF91FF91CA
:100EF000B7CFFF93EF93FC0181918030B9F360DFAE
:100F0000FBCFFF93EF9368DFF1CFDF93CF93CDB7A4
:100F1000DEB72596A3DFCF91DF9108953E9A08951D
:100F2000CF93C82F0E94A609882329F0C1FD02C0D3
:100F3000469A01C0469881E0CF91089581E00895D6
:100F400081E008950C94A00708950C94A4071F93C2
:100F5000CF93DF9300D000D01F92CDB7DEB7498387
:100F60005A836B8330919F0189819A81311114C01A
:100F7000662359F0222349F00E94C00E182F682FD3
:100F800089819A810E94690E03C00E94940E182FD5
:100F900069817A81812F04C00E94C00E69817A81A3
:100FA0000F900F900F900F900F90DF91CF911F91A6
:100FB0000C94D021FC01262F4081518162817381E4
:100FC00084810C94A70781E00895CF93DF93EC010F
:100FD00060E00E94DA07BE01DF91CF910C94A50773
:100FE000E1E0F0E0DF0102C0AA0FBB1F6A95E2F763
:100FF000BD01DF0102C0AA0FBB1F4A95E2F7AD0198
:10100000462B01C0EE0F2A95EAF7942F9823491337
:1010100002C08E2B0895E0958E230895242F462F2D
:10102000682F8091BB010E94F0070C94260E0C944F
:101030008E070C94551708950E94C10D0E941B083D
:101040002FEF84E39CE0215080409040E1F700C006
:1010500000000C94FC240F931F93CF93DF938C011B
:1010600061E00E94DA07EC01B8010E94D11C8823DC
:1010700069F1B801CE010E94A207882339F1B801B5
:10108000CE010E94CD1A882309F1B801CE010E9439
:1010900036238823D9F0B801CE010E94F91D882398
:1010A000A9F0B801CE010E949222882379F0F801BC
:1010B00082818823E1F1CE3D8CE5D80781F160F48F
:1010C000C115FCE5DF0721F40E941C08C0E036C012
:1010D000C130DC4579F02BC0CB35EDE5DE0729F1D9
:1010E000CC35FDE5DF07F1F0CA35DD4501F50E949D
:1010F00042131DC080911B02C82FC095C170C0FB58
:1011000080F980931B02CC2329F08CEC93E00E94A1
:10111000EC06DCCF8AEB93E00E94EC060FC00E9445
:10112000F513D4CF0E94391302C00E944513C801A1
:10113000DF91CF911F910F910C949E078C2FDF911F
:10114000CF911F910F9108950C947D240E948519D1
:101150000E94B2090C948324DF92EF92FF920F93C6
:101160001F93CF93DF93E82FF0E0E352FC4FD4902E
:10117000282F26952695269530E0F901E358FB4F58
:101180000491877010E0082E02C0159507950A9407
:10119000E2F701701127F901E359FB4FE490F12CBC
:1011A000082E02C0F594E7940A94E2F791E0E92250
:1011B000FF24F901E35AFB4FC491D0E002C0D5955A
:1011C000C7958A95E2F7C170DD270115110519F061
:1011D00081EE0E94380AE114F10419F086EE0E94B3
:1011E000380A8D2D0E94550BEF2819F086EE0E94CB
:1011F000DF0A012B19F081EE0E94DF0ACD2B51F09E
:101200008CE2DF91CF911F910F91FF90EF90DF90D3
:101210000C94550BDF91CF911F910F91FF90EF90A0
:10122000DF900895EF92FF920F931F93CF93DF9378
:10123000EC01162F0AE08881882309F455C081301B
:1012400009F043C08981813041F47E0182E0E80EDB
:10125000F11C8A810E94550B09C0823049F47E013D
:10126000E2E0EE0EF11C8A810E94380AE7012FC0ED
:10127000833041F47E01F2E0EF0EF11C8A810E947E
:10128000DF0AF4CF843011F0219621C02A81229602
:1012900080E090E030E0205331092A30310558F4E5
:1012A000089FA001099F500D1124C901840F951FAB
:1012B00021962881EFCF009751F0EFE9FFE03197B9
:1012C000F1F700C000000197F6CF0E94AC0821960C
:1012D000812F882309F4AFCFEFE9FFE03197F1F7D1
:1012E00000C000008150F5CFDF91CF911F910F9189
:1012F000FF90EF90089560E00C9412098295982F6A
:10130000937344E0949F900111248C7C869586957C
:10131000282B822F8575880F2A7A2695822B08958F
:10132000CF93DF93D92F0E947E09C82F8D2F0E9463
:101330007E092C2F30E0322F2227A901482BCA0129
:10134000DF91CF91089508950C94A30981E0089549
:101350000895CF93C82F0E94A4098C2F0E94900754
:10136000CF9108950E9492230C94A909CF930E94D3
:101370009223C82F80919E01C81741F1C0939E010E
:1013800080911B0282FF1EC080FF04C084E994E0AC
:101390000E94EC0680911B0280FF0CC01F92CF932D
:1013A0008FE894E09F938F930E9485070F900F9092
:1013B0000F900F9080911B0280FF04C08DE894E095
:1013C0000E94EC068C2FCF910C94A909CF9108951F
:1013D000CF93DF93CDB7DEB72B970FB6F894DEBF70
:1013E0000FBECDBF4F83588769877A878B8761117E
:1013F0000E9471129E012F5F3F4F86E0F90111920A
:101400008A95E9F785E0FE013796D90101900D92A2
:101410008A95E1F789819A814C815D81452B31F074
:101420009F3F31F491E08F3F19F403C091E001C078
:1014300090E090FF09C049815A816B817C818D8148
:101440009E810E94921105C0C9010E94E30781118B
:10145000F2CF2B960FB6F894DEBF0FBECDBFDF9153
:10146000CF910895FC01808191810E94ED0E089535
:10147000CF93882309F4A1C0C82F8238C1F40E94F9
:10148000922381FD9AC069E380910201909103014A
:101490000E9455240E9493122FEF81EE94E0215078
:1014A00080409040E1F700C0000069E319C0833834
:1014B00001F50E94922380FD80C063E580910201C6
:1014C000909103010E9455240E9493122FEF81EE08
:1014D00094E0215080409040E1F700C0000063E5B7
:1014E00080910201909103010E945724CF910C94A6
:1014F00093128438C1F40E94922382FD5EC067E497
:1015000080910201909103010E9455240E94931240
:101510002FEF81EE94E0215080409040E1F700C031
:10152000000067E4DDCF8CEF8C0F813AF8F48C2F4C
:101530000E94C120811141C06C2F809102019091C5
:1015400003010E941F24882349F06C2F809102011F
:10155000909103010E9457240E9493126C2F809156
:101560000201909103010E945524C0CF80E28C0FAC
:10157000883048F4C77081E001C0880FCA95EAF747
:101580000E945412B3CFEBE5EC0FE33040F4F0E0EF
:10159000EF5BFE4F808190E0CF910C94E723C85A17
:1015A000C73158F4EC2FF0E0EE0FFF1FED5EFE4F59
:1015B00080819181CF910C94FD23CF910895882350
:1015C00009F45BC0682F823879F40E94922381FF6E
:1015D00054C069E380910201909103010E94552457
:1015E0000E94931269E310C08338B1F40E949223E1
:1015F00080FF43C063E580910201909103010E9446
:1016000055240E94931263E5809102019091030199
:101610000E9457240C949312843879F40E949223E8
:1016200082FF2BC067E480910201909103010E9428
:1016300055240E94931267E4E7CF8CEF860F813A1E
:1016400018F380E2860F883048F4677081E001C0AB
:10165000880F6A95EAF70E945A12DCCF8BE5860F55
:10166000833020F480E090E00C94E723685A6731DF
:1016700020F480E090E00C94FD2308951F93CF9315
:10168000DF93182FEB010E94380A209741F08FE971
:101690009FE00197F1F700C000002197F6CF812F5E
:1016A000DF91CF911F910C94DF0A893319F060E02C
:1016B00070E002C060E570E00C943E0B882321F0DE
:1016C0000E9454120C9493120895882321F00E94D2
:1016D0005A120C9493120895CF92DF92EF92FF92D8
:1016E0000F931F93CF93DF937C01162FC72FFC011D
:1016F000D281058102950F700E944A128823B9F0A9
:10170000DD23A9F08C2F807F803421F080E2810FCF
:10171000883068F08091410282FD09C082E00E9419
:10172000F3120E944A1291E0D82ED92601C0D12C82
:10173000CC2EC2948FE0C8228C2D90E08C30910585
:1017400008F093C1FC01EA5AFF4F0C949B2D8C2F9B
:10175000807FCF70882311F0C295C07FDD2399F080
:10176000CC2309F46EC180E2810F883010F0111192
:1017700004C08C2F0E94541203C08C2F0E9464124C
:101780000E9493125EC1812F0E94DF0ACC2309F4CC
:101790006CC180E2810F883038F1112329F18C2F40
:1017A0000E946A1224C08C2F807FCF70803211F08B
:1017B000C295C07F112319F01130A1F13DC0809175
:1017C000410282FF17C0DD2349F0CC2329F08C2F82
:1017D0000E9454120E94931280E034C180E00E9463
:1017E000DF0ACC2309F441C18C2F0E945A120E94B7
:1017F00093123BC1DD2371F0002341F0013031F43D
:101800000E9474128C2B0E947C122FC10E947412B1
:101810008C2B1DC0002319F0013009F426C10E9451
:10182000891225C0DD2321F0063008F01EC10EC04C
:10183000053008F01AC11BC0DD2361F0002331F030
:10184000F701858180FFFDC08F7085838C2F0E94FA
:101850005E0B0BC1002359F0193309F003C1FFEFF0
:1018600027EE83E0F15020408040E1F7F9C08C2F53
:101870000E94650BFAC08C2F86958695837019F0AF
:10188000813061F0F2C0DD2321F0812F9C2F937015
:1018900002C080E090E00E94E723EFC0DD2321F04A
:1018A000812F9C2F937002C080E090E00E94FD2366
:1018B000E4C08C2F837079F5D111DBC0412F4295A4
:1018C00046954770440F440F212F2F70042E01C0FE
:1018D000220F0A94EAF714FF08C08FE090E001C0DD
:1018E000880F4A95EAF7809501C080E0C695C695B5
:1018F000C370822BC23049F058F4C13019F00E94F5
:101900001A0EB7C00E94150EB4C00E941F0EB1C0BF
:101910000E94130EAEC0DD2319F08C2F817001C020
:101920008695882309F4A5C0412F429546954770B6
:10193000440F440F212F2F70042E01C0220F0A9450
:10194000EAF714FF08C08FE090E001C0880F4A95C5
:10195000EAF7809501C080E0C695C695C370822BDA
:10196000C23049F058F4C13019F00E945E0E81C0B7
:101970000E94590E7EC00E94630E7BC00E94260EFC
:1019800078C0CF70DD2339F08C2F0E94370E812F65
:101990000E945E0B6EC0812F0E94650B8C2F0E94EF
:1019A000420E67C0123F21F128F4103F41F0113F71
:1019B000C1F043C0133F19F1143F79F03EC0DD235D
:1019C00041F0053008F051C08C2F8F710E944E0EEF
:1019D0004CC0063008F049C0F7CF8091410282FF29
:1019E00018C0DD2339F08C2F8F710E94370E3DC057
:1019F000DD23C9F38C2F8F710E94420E36C0DD2388
:101A000029F08C2F8F710E942F0E2FC00E942C0E58
:101A10002CC0DD2349F0CF718C2F0E94370E63E07C
:101A20008C2F0E94D81221C081E00E94F312023054
:101A3000E0F082E00E94F31218C0DD2331F00023B1
:101A400091F2812F0E94380A10C0002399F21933B5
:101A500049F49FEFE7EEF3E09150E040F040E1F70A
:101A600000C00000812F0E94DF0A88EF8C0D8430B7
:101A700020F40E9492230E94A909DD20C9F00E944F
:101A8000461280FD15C0F70112820E9440120E948A
:101A9000370EC7010E94790D0E944012DF91CF914D
:101AA0001F910F91FF90EF90DF90CF900C94420E1A
:101AB000DF91CF911F910F91FF90EF90DF90CF902A
:101AC00008950F931F93CF93DF93EC016881798181
:101AD0008A810E94F80E8C010E94680E0E94070EF7
:101AE000B801CE010E946C0BDF91CF911F910F9135
:101AF0000895CF93DF93EC01988189812B813C81FC
:101B0000232B31F08F3F31F481E09F3F19F403C064
:101B100081E001C080E080FD1DC0CE010E942B0845
:101B2000811110C00E944A128823A1F08A81882363
:101B300089F08091410282FD0DC082E0DF91CF915A
:101B40000C94F312CE010E94610DCE01DF91CF9172
:101B50000C94E507DF91CF91089580E090E00E941A
:101B6000E72380E090E00E94FD230E9471120C9414
:101B7000931280910201909103010E9459240C94C8
:101B8000AD0D0E9461120C94B90D92959F70963024
:101B900079F010F4925001C09A50923068F4803F6E
:101BA00069F018F4883E40F409C0843F29F406C067
:101BB000883E20F0813F11F080E0089581E0089593
:101BC000FC01808191810E94ED0E0E94C50D089557
:101BD000CF93DF9300D000D01F92CDB7DEB70F9028
:101BE0000F900F900F900F90DF91CF910895CF93AA
:101BF000DF9300D000D000D0CDB7DEB726960FB669
:101C0000F894DEBF0FBECDBFDF91CF910895089548
:101C100008950C94080E0C94090E0E940B0E8093EC
:101C2000BC010C94AD0D0C940D0E9091BC01892B50
:101C30000C940D0E9091BC0189230C940D0E909183
:101C4000BC0189270C940D0E0C94080E0E94240EE2
:101C50008093BB010C94AD0D80E00C94260E91E0B6
:101C600001C0990F8A95EAF7892F0C94260E21E07E
:101C700030E001C0220F8A95EAF78091BB01822BE8
:101C80000C94260E21E030E001C0220F8A95EAF77D
:101C900020958091BB0182230C94260E21E030E038
:101CA00001C0220F8A95EAF78091BB0182270C942C
:101CB000260E9091BB01892B0C94260E9091BB01AE
:101CC00089230C94260E9091BB0189270C94260E33
:101CD00008952EE0929F800D1124E82FE695E69559
:101CE000E695877051E001C0550F8A95EAF783E0C9
:101CF000E89FF0011124E056FE4F20E030E070E054
:101D00004081CB01022E02C0969587950A94E2F796
:101D10008170819584278523842781932F5F3F4F8E
:101D20002330310569F708952EE0929F800D11242C
:101D3000682F669566956695982F977083E0689FE3
:101D4000B001112440E050E080E0FB01E40FF51FFA
:101D5000E056FE4F208130E0092E02C036952795CF
:101D60000A94E2F721703327042E01C0220F0A944F
:101D7000EAF7822B4F5F5F4F4330510531F70895EB
:101D8000CF92DF92FF920F931F93CF93DF936C015B
:101D90000091BB018091BC01082BC7E0D0E010E0AE
:101DA000C8010C2E02C0959587950A94E2F780FD34
:101DB00004C02197A8F7F12C07C0FC2EB6018C2F88
:101DC0000E94EC150197A9F38F2DDF91CF911F9100
:101DD0000F91FF90DF90CF900895CF93DF93EC01A8
:101DE0000E94C00EBE010E94EC15DF91CF910895B4
:101DF0001F93CF93DF93EB0190919F01992321F0E3
:101E0000CB010E94ED0E13C0882349F0CB010E9444
:101E1000C00E182F682FCE010E94690E04C0CB019E
:101E20000E94940E182FBE01812F0E94EC15DF91A5
:101E3000CF911F9108951F93CF93DF93C091BD0160
:101E400016E08091BE01C81799F0D0E01C9FF00108
:101E50001D9FF00D1124E154FE4F4081518162819C
:101E60007381848195810E94F70D2196C770E9CF17
:101E7000DF91CF911F9108954091EF015091F001B2
:101E80006091F1017091F2018091F3019091F40160
:101E90000C94F70DEF92FF920F931F93CF93DF9364
:101EA0008091F40182958F7009F065C08091F101F5
:101EB000882309F460C08091BD01F090BE011091AB
:101EC000EF010091F0016091F2017091F30191E056
:101ED0001F3F09F090E0C0910001D0910101292F2E
:101EE00096E0E92E8F1509F446C06115710521F0C1
:101EF0000F3F21F030E003C031E001C0322F90E00D
:101F000030FD36C0E89EF001E99EF00D1124DF019E
:101F1000A154BE4F11963C911197301329C03C91AA
:101F2000311326C012963C911297311121C013969D
:101F30004D915C911497461B570B4C175D07C0F4ED
:101F40008091F4018F7080618093F401EC53FE4F17
:101F500080818F70806180838FEE91E00E94790D87
:101F6000DF91CF911F910F91FF90EF900C941B0F79
:101F700001968770B7CFDF91CF911F910F91FF909E
:101F8000EF9008959F92AF92BF92CF92DF92EF921F
:101F9000FF920F931F93CF93DF93CDB7DEB7619777
:101FA0000FB6F894DEBF0FBECDBF8C0185E0F801FF
:101FB000DE011D9601900D928A95E1F7D8011296E7
:101FC000EC909091EF01E091F0012091F2013091BD
:101FD000F3012115310531F0EF3F31F481E09F3FEE
:101FE00019F403C081E001C080E0B82FB1709B2ECE
:101FF00080FD47C1D8014C9111965C9111971396C1
:10200000AD90BC9014978FEEC82E81E0D82EF09042
:10201000F101B501621B730B2091000130910101A8
:10202000FF2009F4D9C08091F4016217730708F00A
:1020300095C0282F207F09F052C05E1313C04913AA
:1020400011C0FE2CE1100EC08F7080618093F401EE
:102050000E943C0FC6010E94790D8091F401F801A5
:1020600085834DC1AB2831F05F3F31F481E04F3FB4
:1020700019F403C081E001C080E080FD03C081E06D
:102080008E2502C080E090E0F82FF170FF2E80FFD7
:102090001CC08091BD012091BE0136E0821709F479
:1020A0000BC190E0389FF001399FF00D1124E154ED
:1020B000FE4F6181561306C06081461303C06281E2
:1020C000E61203C001968770E9CFFE2CEE2009F4DA
:1020D00016C18091F40181608093F40154C05E13B5
:1020E00006C0491304C0E11002C0F80199C0C8013C
:1020F0000E94E00D882361F1EE2051F12091F4015E
:10210000822F82958F7090E0029774F08091EF019A
:102110009091F00198878F831986BB86AA862C87B9
:10212000CE0107960E94790D86E0F801AFEEB1E08E
:1021300001900D928A95E1F70E944A0F0E943C0F90
:102140000AC05E1711F1C8010E94E00D81112CC078
:10215000C8010E94790DFF24F394D1C0282F207F5D
:1021600081F77A2DB98AA88A6E2D89890E94E80D97
:102170008FEE91E00E94790D86E0D6011D928A953E
:10218000E9F70E943C0FF12CBAC04913DCCFE110F3
:10219000DACFF8018583C8010E94790D86E0D60167
:1021A0001D928A95E9F7ABC0EE2091F22091F401DF
:1021B000822F82958F7090E002970CF4B5CF8091BA
:1021C000EF019091F0019A8389831B82BD82AC82DA
:1021D0002E83CE010196A6CF6217730708F044C084
:1021E000FE2CEE2009F4B4CF5E1330C049132EC08C
:1021F0002091F40120FD21C0822F82958F70482FFD
:1022000050E041155105C9F0F80125834F305105C3
:1022100041F08F5F982F9295907F822F8F70892B3E
:102220008583C8010E94790D86E0F801AFEEB1E028
:1022300001900D928A95E1F73CC086E0F801AFEE7F
:10224000B1E001900D928A95E1F759C0C8010E9452
:10225000E00D811169CF8091F40181608093F401D8
:10226000C8010E94790D4BC07A2DB98AA88A6E2DBB
:1022700089890E94E80D86E0D6011D928A95E9F7CA
:1022800018C0EE2009F464CFC8010E94E00DF82EBA
:10229000882309F45DCF86E0F801AFEEB1E001904C
:1022A0000D928A95E1F78FEE91E00E94320A0E942A
:1022B0004A0F0E943C0F23C04D875E878D859E8507
:1022C0000E94ED0E292F22952F70223028F49F7046
:1022D00039F0811105C00BC0243028F49F7049F4F7
:1022E000805E883020F0C8010E94790D9F2CF92C67
:1022F00006C0D80115969C91907F91F7F8CF8F2D4D
:1023000061960FB6F894DEBF0FBECDBFDF91CF91BF
:102310001F910F91FF90EF90DF90CF90BF90AF9003
:102320009F9008951F93CF93DF93CDB7DEB72C977F
:102330000FB6F894DEBF0FBECDBF4F8358876987B5
:102340007A878B879C87CE0107960E94C20F8823CD
:10235000D1F09F8188852A853B85232B31F08F3FE3
:1023600031F481E09F3F19F403C081E001C080E0B7
:1023700080FD47C04F81588569857A858B859C850E
:102380000E94F70D3EC086E0FE013796DE011196F1
:1023900001900D928A95E1F7FF81E8856A857B853A
:1023A0006115710531F0EF3F31F481E0FF3F19F421
:1023B00003C081E001C080E080FD23C02091BE0108
:1023C00030E0C9010196877099274091BD0150E026
:1023D00084179507F1F1F983EA837D836C8396E096
:1023E000929FD001939FB00D1124A154BE4FFE01C6
:1023F000319601900D929A95E1F78093BE010E946B
:102400001B0F16E08091BD019091BE01891771F1FB
:10241000189FC001112481549E4F0E94C20F88232F
:1024200029F1E091BD011E9FF0011124E154FE4FFE
:102430004081518162817381848195810E94F70D71
:102440008091BD0190E00196877099278093BD012E
:10245000D9CF0E94C10D1092BE011092BD01EFEEC6
:10246000F1E086E0DF011D928A95E9F72C960FB620
:10247000F894DEBF0FBECDBFDF91CF911F910895BD
:102480008091FD0185958595859508958091FD0143
:10249000877008959091FD01977081E009F480E0C4
:1024A000089580910802089590910802892B8093E5
:1024B000080208958095909108028923809308026C
:1024C000089510920802089590910702892B809335
:1024D000070208958095909107028923809307024F
:1024E00008951092070208958091FE0108950895BD
:1024F0000C9477120C9478129091410292FD08C0CE
:102500009091FE01981721F08093FE010C947A12AD
:1025100008958091FE01882329F01092FE0180E049
:102520000C947A120895CF93DF93E0910201F09119
:102530000301809108028083E0910201F091030180
:10254000908180910702892B80838091FE018823EE
:1025500081F0E0910201F09103019081892B808349
:1025600080910201909103010E94132481110E9425
:102570008912C0910201D091030148E050E065EF5B
:1025800071E0CE010E94C22D892B69F088E0FE0126
:10259000A5EFB1E001900D928A95E1F7CE01DF91B0
:1025A000CF910C949E23DF91CF9108950C947712D4
:1025B0009091410292FD10C098E0899F90011124F2
:1025C000262B2093FD010E94370E8091FD018595F9
:1025D000859585950C94D6120C94370E1092FD01BA
:1025E00080E00C94D6122091FD0180958223809387
:1025F000FD01982F977099F430E0482F082E000CB9
:10260000550B2417350759F09091410292FD07C0F0
:102610008595859585950E94420E0C94EE1208953D
:10262000CF939091410292FB222720F92817F9F0CD
:10263000C82F892FC0FB82F980934102809140020C
:10264000909141020E94721382E00E94F3128091E5
:102650001B0280FF0CC01F92CF938FE994E09F93E1
:102660008F930E9485070F900F900F900F90CF913E
:1026700008958091410282FB882780F991E08927A3
:102680000C94101381E00C94101380E00C94101340
:102690006FEF7FEF80E090E00C94FB2D80E090E006
:1026A0000E94D72D893E9E4F11F40C94691C80E046
:1026B000089582E090E00C94CF2D83E090E00C949C
:1026C000CF2DCF9384E090E00E94CF2DC82F82E2DF
:1026D00090E00E94CF2D2C2F30E0A901582BCA0189
:1026E000CF910895CF93C92F682F84E090E00E9486
:1026F000DD2D6C2F82E290E0CF910C94DD2DAB01AB
:10270000BC018FE090E00C94EF2DAB01BC0183E1A4
:1027100090E00C94EF2D60E070E0CB010C948513F9
:1027200060E070E0CB010E947F130C948B1369EE84
:102730007EEF80E090E00E94FB2D60E082E090E080
:102740000E94DD2D60E083E090E00E94DD2D10927C
:10275000BC0160E084E090E00E94DD2D60E082E258
:1027600090E00E94DD2D60E085E090E00E94DD2D8C
:1027700060E086E090E00E94DD2D6FEF87E090E062
:102780000E94DD2D40E050E0BA0188E090E00E9418
:10279000EF2D60E08DE090E00E94DD2D40E050E004
:1027A000BA0188E190E00E94EF2D60E087E190E0BF
:1027B0000E94DD2D40E050E0BA018CE190E00E94E3
:1027C000EF2D60E070E080E290E00E94FB2D40E0A1
:1027D00050E0BA0188E190E00E94EF2D80E00E9475
:1027E000821C0E94B51C0C9490130C949713682FB4
:1027F0008EE090E00C94DD2D0E94BB2460931702C4
:10280000709318028093190290931A026093130236
:10281000709314028093150290931602089585B761
:10282000806885BF85B7806885BF089581E0089579
:102830000C94161408950C941A140C941A140C94F5
:102840001D140C941A140C9421140C941A140E9444
:102850000F1480E197E20E9488230E9425140C94B3
:1028600023140E941B140C941A140E94E0160E9458
:10287000A8090C94531C0E94A6240E94C41C0E9408
:10288000FD170E9435140E9485190E94B1180C94FE
:102890001F145F926F927F928F929F92AF92BF921E
:1028A000CF92DF92EF92FF920F931F93CF93DF931C
:1028B000CDB7DEB72A970FB6F894DEBF0FBECDBFF7
:1028C0000E941218C82E81110E94FC1339E0832E39
:1028D00032E0932E00E010E0502E802F0E94FA1676
:1028E0005C01F401619071904F01682679266114B2
:1028F0007104B1F40F5F1F4F0530110569F78FEFB9
:1029000089838A831B820E94AF248160782F9D83F4
:102910008C8349815A816B818D810E94E8093AC07C
:1029200080911B0281FD0E940317D12CEE24E394B9
:10293000F12CC3018E219F21892B29F10E941814AB
:102940008823A9F0DE825F82AE20BF2081E0AB2821
:1029500009F480E088870E94AF248160782F9A87ED
:1029600089874E815F8168858A850E94E809000F0A
:10297000111FF801E75FFD4F80819181E826F9265C
:10298000F182E08207C0D394EE0CFF1CFEE0DF1260
:10299000D0CFB0CF81E0C11001C080E02A960FB641
:1029A000F894DEBF0FBECDBFDF91CF911F910F9185
:1029B000FF90EF90DF90CF90BF90AF909F908F905F
:1029C0007F906F905F9008950E9449140E94B71BFA
:1029D0000C94B609CF93DF930E94F115EC01811599
:1029E00022E59207E8F5811531E5930708F0B6C0B6
:1029F000883E910528F5803E910508F0E9C0883AA7
:102A0000910570F4853A910508F07AC081309105FE
:102A100009F473C008F4D9C0049708F0D9C0D5C030
:102A20008F3B910508F0D1C0C85AD0E0CC0FDD1F14
:102A3000CC5BDE4F0990D881C02DCE019464C9C013
:102A4000811540E5940708F069C0811550E49507A9
:102A500008F060C09A9581159F4108F4B9C0B5C0CF
:102A6000811536E5930728F5811545E5940708F0AB
:102A700092C0811554E5950708F087C0AC014370FA
:102A80005527282F26952695C115D34508F06CC0EB
:102A900081E090E002C0880F991F4A95E2F740E27A
:102AA000249F90011124EC01C22BD32BCE019C68F2
:102AB00090C081152AE5920780F4811539E59307C6
:102AC00008F072C0811548E5940708F47EC0D82F3D
:102AD000CC27CE01806F906A7CC0905681159042C1
:102AE00008F073C08D2F8F710E948516DD27D0628C
:102AF0008F71AE01582BCA016CC081E090E069C0B3
:102B0000C55AD0E0CE58DE4F8881C82FD0E0CE0124
:102B100090645FC0DF70CE01906A5BC074E09695F0
:102B200087957A95E1F7282F23703C2F337081E049
:102B300090E002C0880F991F3A95E2F79C68AC01BB
:102B4000522B9A019C2F9F709695969550E2959FD7
:102B5000E0011124C9018C2B9D2B3BC0D82FCC2721
:102B6000CE01816F906A35C081E090E002C0880F8D
:102B7000991F4A95E2F750E2259F90011124EC013C
:102B8000C22BD32BCE019A6824C0D82FCC27CE01DC
:102B9000846F906A1EC00E9485168F7190E0D82FB6
:102BA000CC27CE01906215C08F700E94851694E0EC
:102BB000D695C7959A95E1F7CF70D0E0DC2FCC275A
:102BC000D0699E01282BC90104C080E090E001C0BB
:102BD000CE01DF91CF9108950E94D0210E94EA1486
:102BE00008958238910569F1B0F48133910509F4B3
:102BF0006DC048F48932910509F463C08A329105A9
:102C000009F469C008958533910509F455C08933E5
:102C10009105B9F00895833E910569F138F4803E3D
:102C20009105B1F0823E910509F10895863E910526
:102C3000A9F1873E9105B9F1843E910509F064C080
:102C400023C02091400220FD4FC021FD4DC00895BA
:102C50008091400280FD44C08091410280FF44C0C9
:102C60008091400284FD42C083EE4DC080914002BD
:102C700082FF38C0F5CF8091400282FD33C0809141
:102C8000410280FD31C0ECCF8091410281FF32C012
:102C90008091400284FD2AC087EE35C080914002B9
:102CA00083FF26C0F5CF8091400283FD21C0809133
:102CB000410281FD1FC0ECCF8091400285FD1CC008
:102CC0001DC08091400285FD19C016C08091400250
:102CD00086FD16C017C08091400286FD13C010C04B
:102CE00089E311C082EE0FC080EE0DC080E00BC002
:102CF00086EE09C084EE07C089E205C085E303C003
:102D00008AE201C081E390E008959091400292FF31
:102D10000DC0282F2871283019F4877F846006C0E1
:102D2000282F2471243011F48B7F886093FF0DC00D
:102D3000282F2871283119F4877E846106C0282F36
:102D40002471243111F48B7E88612091410220FF8F
:102D50000DC0382F3871383019F4877F816006C074
:102D6000382F3171313011F48E7F886021FF0DC012
:102D7000282F2871283119F4877E816106C0282FF9
:102D80002171213111F48E7E886194FD877E089532
:102D90000C9448130E9412188FE39CE90197F1F7F5
:102DA00000C000000E94121880E00E94FA1680FF06
:102DB00004C00E94C8160C94FC2408950C94CA16F2
:102DC0000E944E13811102C00E94F5130E945913F4
:102DD00080931B020E9461139093410280934002F2
:102DE0000E94DE160E945D130E94130E8091BB01AB
:102DF0000C94240EE82FF0E0EE0FFF1FE45BFD4F74
:102E0000808191810895CF92DF92EF92FF920F938C
:102E10001F93CF93DF9384EC94E00E94EC068CE444
:102E2000E82E82E0F82EC0E0D0E09FEBC92E94E0BF
:102E3000D92E06EB14E0DF93CF93DF92CF920E945E
:102E400085078CEB94E00E94EC06F701819191914B
:102E50007F010E9490099F938F931F930F930E946D
:102E6000850784EB94E00E94EC0621968DB79EB70F
:102E700008960FB6F8949EBF0FBE8DBFC530D10522
:102E8000D1F6DF91CF911F910F91FF90EF90DF90DE
:102E9000CF90089580EA8A95F1F7089500C00895CB
:102EA0000C944A1708950C9452170C945317F894E5
:102EB000E82FE295EF70F0E031A1282F2F7081E02C
:102EC00090E001C0880F2A95EAF7982F90959323F8
:102ED00091A392A1892B82A3789408950F931F93B5
:102EE000CF93DF93C3E8D1E089918F3F11F00E9427
:102EF000571781E0C838D807B9F7C5E7D1E003E82C
:102F000011E089918F3F11F00E9457170C171D0790
:102F1000C1F7DF91CF911F910F910895BF92CF928A
:102F2000DF92EF92FF920F931F93CF93DF938C0169
:102F3000C62FD0E0CE018D579E4F6C01FC019081D1
:102F40009F3F09F450C0B62EF894E92FE295EF7038
:102F5000F0E081A19F7021E030E001C0220F9A953E
:102F6000EAF7822B81A382A12095282322A37894BB
:102F70000E944E17E5E7F1E043E851E021E030E040
:102F8000E12CF12C61916F3F89F0A62FA295AF70D3
:102F9000B0E090968C9190E06F7002C09595879507
:102FA0006A95E2F780FD02C0C90102C080E090E0AE
:102FB000E82AF92A220F331F4E175F0719F7F60187
:102FC00080818F3F11F00E94571761E0E114F104F6
:102FD00009F460E08B2D0E945017CC0FDD1FC00F4D
:102FE000D11FF982E882DF91CF911F910F91FF905D
:102FF000EF90DF90CF90BF9008950E946E178AE007
:10300000ECE4F2E0DF01982F1D929A95E9F7E2E4F3
:10301000F2E0DF011D928A95E9F785E00E945D18D4
:103020000C941708FF920F931F93CF93DF93CDB7A4
:10303000DEB72A970FB6F894DEBF0FBECDBF8E0164
:103040000F5F1F4F8AE0F80111928A95E9F7F12C82
:103050006F2DC8010E948E17F394F5E0FF12F8CF90
:103060004AE050E0B80182E492E00E94C22DFF24C1
:10307000F394009709F4F12C892B41F08AE0F801D0
:10308000A2E4B2E001900D928A95E1F72F2D45E080
:103090006CE472E082E492E00E945E180E941908DB
:1030A0008F2D2A960FB6F894DEBF0FBECDBFDF91ED
:1030B000CF911F910F91FF9008950895FF920F9364
:1030C0001F93CF93DF93F82E092F162FD72FC42FDE
:1030D000222349F081E080931E020E94AF24909346
:1030E0001D0280931C0280911E028823D9F08091DA
:1030F0001C0290911D020E94C724059798F0EF2DA5
:10310000F02FA12FBD2F80E090E04C2F50E08417CE
:10311000950734F4219131912D933D930196F7CF8A
:1031200010921E02DF91CF911F910F91FF90089591
:103130000E948C270E943B140C9498270E949C2785
:103140000E94E4140C94BA270E949A240E947327C8
:103150000E9427140E9498180E949E180E94311401
:10316000FBCFE1E8F0E0808188608083808181602E
:1031700080838FB7F89420ED33E03093890020935B
:1031800088008FBF0895EFE6F0E080818260808341
:103190000895EFE6F0E080818D7F80830895EFE66B
:1031A000F0E0908182E08927808308951F920F923A
:1031B0000FB60F9211242F933F934F935F936F930A
:1031C0007F938F939F93AF93BF93EF93FF938091E0
:1031D0001F029091200201969093200280931F027B
:1031E000811103C082E00E94A909E0912002E695C6
:1031F000E695F0E0E552FB4FE49180911F028E13BB
:1032000003C080E00E94A909FF91EF91BF91AF91A7
:103210009F918F917F916F915F914F913F912F91EE
:103220000F900FBE0F901F90189586E090E00C94C1
:10323000CF2D682F86E090E00C94DD2D8091560212
:103240000C941919809156028470896180935602FA
:103250000C94191980915602869586958695089545
:103260008091560281FD13C08260809356020E94B5
:10327000191980911B0280FF08C088E395E09F9395
:103280008F930E9485070F900F900C94B81B0895A0
:103290008091560281FF13C08D7F809356020E9459
:1032A000191980911B0280FF08C08BE195E09F9364
:1032B0008F930E9485070F900F900C94C41B089564
:1032C000CF93C0915602C695C17080911B0280FFBA
:1032D0000CC01F92CF9384E595E09F938F930E943B
:1032E00085070F900F900F900F90CC2319F0CF917E
:1032F0000C944819CF910C94301980915602869500
:10330000817008958091040108950E944E138111E7
:1033100004C00E94F5130E9422190E94151980937F
:103320005602282F26952695269530E02430310523
:1033300024F087708861809356028091560280FF46
:1033400004C086958695869501C080E00C94851B07
:1033500020915602822F869586958695482F50E0BB
:103360004330510554F48F5F982F990F990F990F9F
:10337000822F8770892B809356028091560281603C
:10338000809356020E94191980911B0280FF11C080
:10339000809156028695869586951F928F938BED28
:1033A00095E09F938F930E9485070F900F900F9049
:1033B0000F90809156028695869586950C94851B74
:1033C00080915602982F969596959695A1F0915ECC
:1033D000990F990F990F8770892B80935602887FD8
:1033E00091E009F490E08091560290FB80F980937F
:1033F00056020E94191980911B0280FF11C0809112
:1034000056028695869586951F928F9383EC95E05C
:103410009F938F930E9485070F900F900F900F90AE
:10342000809156028695869586950C94851B809191
:10343000560280FD1FC0816080935602813019F4CE
:1034400089E080935602809156020E94191980915A
:103450001B0280FF08C08BE995E09F938F930E9429
:1034600085070F900F9080915602869586958695D8
:103470000C94851B08958091560280FF14C08E7FA6
:10348000809356020E94191980911B0280FF08C088
:1034900088E895E09F938F930E9485070F900F9087
:1034A00080E00C94851B0895CF93C0915602C170A3
:1034B00080911B0280FF0CC01F92CF938DEA95E094
:1034C0009F938F930E9485070F900F900F900F90FE
:1034D000CC2319F0CF910C943B1ACF910C94171A6E
:1034E00090915602892F8695869586958F5F8F716C
:1034F0009770843038F4880F880F880F892B809359
:10350000560202C09093560280915602887F91E045
:1035100009F490E08091560290FB80F98093560266
:103520000E94191980911B0280FF11C080915602E0
:103530008695869586951F928F9384E795E09F9355
:103540008F930E9485070F900F900F900F9080919E
:1035500056028695869586950C94851B843008F0D6
:1035600083E0909156029770282F220F220F220F8E
:10357000922B90935602987F21E009F420E09091DD
:10358000560220FB90F9909356020C94851B0E94E2
:10359000AE1A809156020C941919FC01DB011296A7
:1035A0008C918823F9F0EB5BFC45E730F105D8F40A
:1035B000EE59FF4F0C949B2D83E001C080E00E94E8
:1035C000C71A80E008950E94E019FBCF0E94A81955
:1035D000F8CF0E94541AF5CF0E94701AF2CF0E94C1
:1035E0006019EFCF81E00895279A2F9808952F98BA
:1035F00008958F929F92AF92BF92CF92DF92EF92F7
:10360000FF920F931F93CF93DF938C0180918600DD
:10361000909187006CE070E00E94652D6017710743
:1036200030F0C80169E070E00E94652D60C08091B3
:10363000860090918700E0908600F0908700E091EE
:103640008600F0918700C6E0D0E0BE010E94652DA3
:1036500020E030E0060F171F211D311D48015901E0
:1036600085E0880C991CAA1CBB1C8A95D1F7C70160
:10367000BE010E94652D6F01E12CF12CA70196017E
:10368000260F371F411D511DC501B4010E94792D20
:1036900069017A01E0918600F0918700CA01B901C1
:1036A0000E94492D9B01AC01DF010E94B72D9B01B7
:1036B000AC01C701B6010E94492DDC01CB012FE00E
:1036C000B695A795979587952A95D1F7009186008D
:1036D0001091870020E030E0081719072A073B0700
:1036E00028F46091860070918700CB01BC01CB016A
:1036F000DF91CF911F910F91FF90EF90DF90CF90CE
:10370000BF90AF909F908F900895CF93C82F843033
:1037100050F4811109C080918000877F80938000E0
:103720000E94F71A06C0C3E08091800088608093F1
:103730008000A0918600B09187002C2F30E00E947D
:10374000A82D23E030E040E050E00E94792DB42F16
:10375000A32F922F8827892F9A2FAB2FBB270E9448
:10376000F91A90938D0080938C00CF91089508955D
:10377000109222021092210210922302EFE6F0E052
:103780008081816080830895EFE6F0E080818E7F04
:1037900080830E942A190C94851B1F920F920FB6EA
:1037A0000F9211240F931F932F933F934F935F9387
:1037B0006F937F938F939F93AF93BF93CF93EF9329
:1037C000FF938091050191E0980F823019F090935A
:1037D000050155C081E0809305010E948219C82F20
:1037E00000912102109122020F5F1F4F0E94821947
:1037F00028E7829FB0011124C8010E94652D909393
:1038000022028093210228E7C29FB0011124660F93
:10381000672F661F770B71950E94652D6F778091DA
:103820002302823019F4603451F404C0813039F439
:103830006F3729F480916F008E7F80936F00E62FA1
:10384000F0E0ED50FA4FC49100918600109187008E
:103850000E942A19282FC09FC001C19F900D1124DA
:103860006DEF72E00E94652D269FC001279F900D8D
:1038700011240E94F91A90938D0080938C00FF917F
:10388000EF91CF91BF91AF919F918F917F916F9168
:103890005F914F913F912F911F910F910F900FBE0C
:1038A0000F901F9018950E94F41A8AE08093800070
:1038B00089E1809381008FEF9FEF90938700809341
:1038C00086000E9485190E947D1981110C94B81BF5
:1038D000089583E290E00E94CF2D823281F484E249
:1038E00090E00E94CF2D843051F485E290E00E9458
:1038F000CF2D91E0873209F090E0892F01C080E060
:1039000081700895CF93C82F811102C06FEF01C05D
:1039100062E283E290E00E94DD2DC11102C06FEFF0
:1039200001C064E084E290E00E94DD2DC11102C07C
:103930006FEF01C067E285E290E0CF910C94DD2D3E
:10394000089586E290E00E94CF2D682F70E080E01D
:1039500090E008950895CF93C62F0E94AA1C6C2F63
:1039600086E290E0CF910C94DD2D80E00E94821CD5
:1039700060E070E0CB010E94AB1C0E944B210E94D2
:103980002A2281E00C94821C0E94A01C0E94A11C8F
:103990000E94AA1C0E94691C811102C00C94B51CD3
:1039A0000895CF93FB01C281CC23E9F09C01225101
:1039B0003F452031310520F482510E943A220CC04B
:1039C0008031FFE59F0751F481E00E94370E43E00C
:1039D00062E081E00E940E08C0E018C081319F457E
:1039E000A9F482E0F2CF8031EFE59E0711F481E087
:1039F00004C081319F4549F482E00E94420E43E0B9
:103A000062E081E00E940E0801C0C1E08C2FCF91DE
:103A100008952FEFFC0120830895CF93DF93EC01ED
:103A20008881893031F08A3079F40E947D19898348
:103A30000BC00E942A192FEF829FC001112463E05E
:103A400070E00E94652D6983DF91CF910895FC019C
:103A50008081893019F08A3069F00895818123E0EE
:103A6000829FC00111246FEF70E00E94652D862FA8
:103A70000C94AE1A8181811102C00C9448190C94E7
:103A80003019EF92FF920F931F93CF93DF93EC01C6
:103A9000062F0196E8814E2F50E0FA013197E3316D
:103AA000F10508F09AC0E759FF4F0C949B2D19823D
:103AB00089E056C08981823039F0833061F08130ED
:103AC00029F50E94BB2402C00E94A11C9A838B830B
:103AD0007C836D8384C07E0110E0812F0E94FA16E2
:103AE000F701928383831F5FF2E0EF0EF11C153024
:103AF000A1F775C08981823049F46A817B818C810C
:103B00009D810E94A12D0E94AB1C69C0602FCE0137
:103B10000E94091D64C04B816A8189810E941D2118
:103B20009C838D835CC02C813D81322723273227E3
:103B30004B816A8189810E94362151C00E944B21AC
:103B40004EC00E94271D4BC00E940D1D48C00E9400
:103B50001E1945C00E94DD2124C00E94DF219983E7
:103B60008A833DC06B8170E089819A81AE014C5F90
:103B70005F4F9827892798270E94E22130C06B81E8
:103B800070E089819A81AE014C5F5F4F9827892749
:103B900098270E94072223C00E942A2220C00E9448
:103BA0000A2189831CC06B8170E089819A81AE01F2
:103BB0004C5F5F4F9827892798270E948A210FC062
:103BC0006B8170E089819A81AE014C5F5F4F9827CD
:103BD000892798270E94AE2102C08FEF8883602F2B
:103BE000CE01DF91CF911F910F91FF90EF900C9438
:103BF0008325CF93DF93EC01FB018281882309F4B5
:103C00003CC1C330FDE5DF0760F4CA3F9CE5D9073E
:103C100088F49E0122503C452431310508F02EC124
:103C200009C0C136EDE5DE0729F0C53AFDE5DF073D
:103C300009F024C10E9461139093410280934002D5
:103C4000C1318CE5D80709F4C6C008F042C0C930BC
:103C5000ECE5DE0709F49BC000F5C5308CE5D8071C
:103C600009F485C078F4C330ECE5DE0709F478C0C8
:103C700008F07AC0C230DC4509F0F5C080914002FE
:103C80008160EFC0C7309CE5D90709F478C008F01F
:103C90007AC0809140028061E4C0CD30FCE5DF074E
:103CA00009F487C058F4CB309CE5D90709F479C0F2
:103CB00008F07BC08091400288606FC0CF30FCE587
:103CC000DF0709F480C008F082C080914002877F3E
:103CD000C8C0CD3F9CE5D90709F471C000F5C531D6
:103CE000FCE5DF0709F485C068F4C3319CE5D9071A
:103CF00009F475C008F095C00E94C10D8091400282
:103D00008F77AFC0CB3FFCE5DF07A9F108F054C0C7
:103D1000CA3FDC4509F0A7C08091410240C0C130D4
:103D2000EDE5DE0709F489C058F4CF3F8CE5D807EC
:103D300009F45AC008F069C08091410282602FC026
:103D4000C136EDE5DE0709F47CC0C53AFDE5DF07C5
:103D500009F481C0C230DD4509F085C080E06EC045
:103D60008091400282607DC08091400216C08091A7
:103D70004002886076C08091410282604FC080918D
:103D8000400280626EC08091400280646AC00E94DE
:103D9000C10D80914002806864C0846062C081600F
:103DA0003DC0809140028E7F5CC0809140028D7F3B
:103DB00058C08091400216C08091410218C0809185
:103DC00041028D7F2BC0809140028F7E4AC080913E
:103DD00040028F7D46C0809140028F7B42C080911F
:103DE0004002877F8B7F3DC0809141028D7F8E7F17
:103DF00015C08091400282FB222720F991E0922792
:103E000090FB82F990FB83F92CC080914102982F9E
:103E1000909591708E7F892B90FB81F98093410260
:103E200022C00E94C10D8091400287FB222720F909
:103E300091E0922790FB87F914C081E00E94F7136C
:103E400012C08091400284FB222720F991E0922742
:103E500090FB84F906C080914002982F909590FBCA
:103E600080F98093400280914002909141020E942B
:103E700072130E94C10D80E001C081E0DF91CF91FB
:103E80000895CF93C82F1F928F9389E796E09F9351
:103E90008F930E94850781E001C0880FCA95EAF7D9
:103EA0000E94130E0F900F900F900F90CF910C94D3
:103EB000C10DEF92FF920F931F93CF93DF93482F83
:103EC00050E0FA013597EF33F10508F049C1E458A5
:103ED000FF4F0C949B2D8FE89BE00E94EC060E9404
:103EE000CF180E9492230E94A90985C00E945D13E9
:103EF0001F928F9383ED9AE09F938F930E94850783
:103F00000E94591383FB992790F91F929F9382FB7C
:103F1000992790F91F929F9381FB992790F91F92FF
:103F20009F93982F91701F929F931F928F938AE86F
:103F30009AE09F938F930E9485070E94611387FBED
:103F4000222720F91F922F9386FB222720F91F9208
:103F50002F9385FB222720F91F922F9384FB222782
:103F600020F91F922F9383FB222720F91F922F9372
:103F700082FB222720F91F922F9391FB222720F901
:103F80001F922F93292F21701F922F9381FB22279D
:103F900020F91F922F93282F21701F922F939F9308
:103FA0008F9385EA99E09F938F930E9485078DB741
:103FB0009EB788960FB6F8949EBF0FBE8DBF0E9425
:103FC0001519982F9695969596951F929F93982FD1
:103FD00091701F929F931F928F9382E799E09F9316
:103FE0008F930E9485078DB79EB708960FB6F894F9
:103FF0009EBF0FBE8DBFC1E0B8C08EE79BE00E94A0
:10400000EC060E94F513F7CF8DEB97E05BC0809133
:104010001B02817F8E7F80931B0282EA97E00E94C1
:10402000EC068AE79BE00E94EC0681E08093240284
:10403000E2CF8EE59BE00E94EC060E941C08DBCFDD
:1040400080911B02C82FC095C170C0FB80F980937E
:104050001B02CC2329F082E59BE00E94EC0685C080
:1040600085E49BE00E94EC0680911B02897F877F9C
:1040700080931B02C0CF90911B0291FBCC27C0F90B
:1040800081E0C827892FC0FB81F980931B02CC23D4
:1040900019F088E39BE029C08AE29BE013C090916D
:1040A0001B0292FBCC27C0F981E0C827892FC0FBF7
:1040B00082F980931B02CC2319F08BE19BE015C0A1
:1040C0008BE09BE00E94EC0696CF90911B0293FB45
:1040D000CC27C0F981E0C827892FC0FB83F98093E2
:1040E0001B02CC2351F08FEF9AE00E94EC068091E6
:1040F0001B02816080931B0238C082EF9AE0E2CFFE
:1041000089EE96E0DFCF0E94BB24162F072FF82EF2
:10411000E92ED0913F02C09112010E949223EF92AA
:10412000FF920F931F931F92DF931F92CF931F92C3
:104130008F938EE796E09F938F930E9485078DB7AC
:104140009EB70C960FB6F8949EBF0FBE8DBF53CF8F
:10415000895303C08D5101C080E00E94411F4BCFA5
:1041600080EF9AE00E94EC06C0E08C2FDF91CF91A7
:104170001F910F91FF90EF90089580E008950C94A7
:10418000BD20CF93C82F80912402882319F081305D
:1041900031F038C00E9451128232B1F504C00E9441
:1041A0005112823261F48C2F0E94BF20811104C011
:1041B0008C2F0E94591F24C081E090E021C08C2FD9
:1041C0000E94BD2081111BC0C43189F018F4CB308E
:1041D00029F010C0C93259F0C83361F482EA97E07F
:1041E0000E94EC0685E796E00E94EC0608C010925B
:1041F00024020CC083E796E00E94EC0607C081E031
:10420000817006C01092240280E002C080E0F8CFE6
:10421000CF91089584E0089550E0440F551F2CE19C
:10422000629F400D511D11249A016CE8869F200D5C
:10423000311D1124C901879608950F931F93CF93C1
:10424000DF930E940C218C010E94CF2DC82FD0E05B
:10425000DC2FCC27C80101960E94CF2D9E01282B70
:10426000C901DF91CF911F910F9108950F931F9373
:10427000CF93DF93122F032F0E940C21EC01602FAC
:104280000E94DD2D612FCE010196DF91CF911F910C
:104290000F910C94DD2DAF92BF92CF92DF92EF92EF
:1042A000FF920F931F93CF93DF93A12CE12CF12C5E
:1042B000B12C00E010E0C0E0D0E06701C00ED11EDC
:1042C000FE01EE0FFF1FEC0DFD1DE657FE4F259181
:1042D00034914C2F6B2D8A2D0E9436212196CE30A1
:1042E000D10571F7045E1F4FB39485E0B812E3CF98
:1042F0008CE8E80EF11CA39484E0A812D9CFDF91DA
:10430000CF911F910F91FF90EF90DF90CF90BF90D2
:10431000AF900895EF92FF920F931F93CF93DF9387
:10432000EA017A01E60EF71E8C01C8018796CE15C8
:10433000DF0569F0003322E0120720F40E94CF2D40
:10434000888301C0188221960F5F1F4FEECFDF9147
:10435000CF911F910F91FF90EF900895EF92FF92F0
:104360000F931F93CF93DF93EA017A01E60EF71EB6
:104370008C01C8018796CE15DF0559F0003322E085
:10438000120718F468810E94DD2D21960F5F1F4FE0
:10439000F0CFDF91CF911F910F91FF90EF90089593
:1043A000462F843038F4753028F46E3018F4672FB7
:1043B0000C941D2180E090E0089580E1089589EA41
:1043C00091E00895EF92FF920F931F93CF93DF93A5
:1043D000EA017A01E60EF71E8C01C801895A9D4F49
:1043E000CE15DF0569F0093A21E0120720F40E949A
:1043F000CF2D888301C0188221960F5F1F4FEDCF0C
:10440000DF91CF911F910F91FF90EF900895EF9260
:10441000FF920F931F93CF93DF93EA017A01E60E89
:10442000F71E8C01C801895A9D4FCE15DF0559F042
:10443000093A21E0120718F468810E94DD2D2196C7
:104440000F5F1F4FEFCFDF91CF911F910F91FF9023
:10445000EF900895CF93DF93C7E5D2E060E0CE01FF
:104460000E94DD2D2196C11584E0D807B9F7DF91B0
:10447000CF910895DF92EF92FF920F931F93CF9306
:10448000DF9300D000D0CDB7DEB7F82E8FE08F15C8
:10449000E8F18FEF93E00E94CF2D811137C007E53F
:1044A00012E0FF2069F0011584E0180779F1C801D6
:1044B0000E94CF2D811101C0FA940F5F1F4FF1CFE1
:1044C00019821A821B821C82DD24D39478018FEF1B
:1044D000E81AF80AC8010E94CF2D89831A8288231E
:1044E000A9F09FEF980F933058F48A83D9820E5F1A
:1044F0001F4FC7010E94CF2D8B83882339F078018D
:10450000CE0101960E947B098701E0CF0F900F90AA
:104510000F900F90DF91CF911F910F91FF90EF902F
:10452000DF900895CF93DF9386319C4541F5EB01F1
:104530000E945112982F8A8120910201309103012B
:10454000882379F09A7A81E009F480E0809325024B
:10455000911102C069E201C065E3C9010E945524BE
:104560000AC080912502811102C069E201C065E3A1
:10457000C9010E9457240E94931280E001C081E08B
:10458000DF91CF9108950F931F93CF93DF93C42FA3
:10459000D22FFC0182818823C9F0409328020E9417
:1045A000AF24909327028093260280E28C0F8830FC
:1045B00008F057C0C77081E001C0880FCA95EAF7BC
:1045C000DF91CF911F910F910C945E0B8091280287
:1045D000481330C080912602909127020E94C72480
:1045E000883C910538F510E21D0FCD17B9F080E237
:1045F0008C0F883040F4C77081E001C0880FCA95E5
:10460000EAF70E94650B183028F581E09D2F97701E
:1046100001C0880F9A95EAF70E945E0B802F0E94D6
:10462000550B1830F0F4D77081E001C0880FDA958F
:10463000EAF70AC080E28C0F883098F4C77081E0F6
:1046400001C0880FCA95EAF7DF91CF911F910F91B2
:104650000C94650B802FDF91CF911F910F910C94DB
:10466000550BDF91CF911F910F9108950F939C01EE
:10467000CB01233F4CE5340731F188F4283DFCE5BC
:104680003F07D9F0293D4CE5340779F1273D3C45FA
:10469000A9F506E221EE41EE67ED7CE52BC0253F52
:1046A000FCE53F07E1F0A8F0263F3C4539F507E27D
:1046B00025EE46EE66EF7CE51DC007E225EE45EEF1
:1046C00068ED7CE517C006E221EE40EE63EF7CE585
:1046D00011C007E225EE44EE64EF7CE50BC006E274
:1046E00021EE42EE65EF7CE505C008E221E045EEF3
:1046F00069ED7CE50E94C32280E008C0FC01828154
:10470000882319F01092280201C081E00F910895CA
:1047100090939D0180939C01089590932E02809325
:104720002D020895E0912D02F0912E02309721F094
:104730000190F081E02D099480E00895EF92FF92BE
:104740000F931F93CF93DF93E0912D02F0912E02F0
:104750003097B1F18C010280F381E02D09958091B1
:104760001B0282FF2DC080FF04C087EA9BE00E94ED
:10477000EC06E80118E081EAE82E8BE0F82E809143
:104780001B0280FF0BC088811F928F93FF92EF92D4
:104790000E9485070F900F900F900F901150219657
:1047A0001111EDCF80911B0280FF0AC08FE99BE0C1
:1047B000DF91CF911F910F91FF90EF900C94EC0639
:1047C000DF91CF911F910F91FF90EF90089520916D
:1047D0002B0230912C022817390771F090932C028C
:1047E00080932B02E0912D02F0912E02309721F060
:1047F0000680F781E02D09940895209129023091D7
:104800002A022817390771F090932A02809329020F
:10481000E0912D02F0912E02309721F00084F18575
:10482000E02D09940895FC01329697E080E09150C4
:1048300029F021912223D9F38F5FF9CF08956623C0
:1048400049F0FC01329608962191621729F0E81789
:10485000F907D1F780E0089581E008959C01FC01FB
:1048600032969FEF80E04191461789F09F3F19F4FF
:10487000411101C0982F8F5F8630A9F79F3F39F013
:10488000F901E90FF11D97FDFA95628308950895E6
:104890009C012A5F3F4FFC014281461301C01282F6
:1048A000019682179307B9F708950C942E240C945F
:1048B0004824029626E0FC0111922A95E9F7089512
:1048C00008950C94602483E080932F020C9461245B
:1048D000811102C081E001C082E080932F020C941C
:1048E00061240C94682481E080932F020C9461244D
:1048F0000C94732408950C947A240C947B240C94C7
:104900007A240C947A240C947A24CF930E948124E4
:104910000E9412180E947F24C0E08C2F0E94FA1679
:10492000892B29F4CF5FC530C1F780E001C081E059
:10493000CF910895089580915F02843011F00C9416
:10494000A40808950E94C10D0C94A60882E084BDBD
:1049500093E095BD9AEF97BD80936E0008952FB7B1
:10496000F8948091570290915802A0915902B09109
:104970005A022FBF08952FB7F89460915702709193
:1049800058028091590290915A022FBF08959C01BC
:104990004FB7F8948091570290915802A091590214
:1049A000B0915A024FBF821B930B089578941F92C7
:1049B0000F920FB60F9211248F939F93AF93BF93D3
:1049C0008091570290915802A0915902B0915A02D9
:1049D0000196A11DB11D8093570290935802A09398
:1049E0005902B0935A02BF91AF919F918F910F904E
:1049F0000FBE0F901F90189581E08093E00080E239
:104A00008093D8001092C9008FE19EE40197F1F7DE
:104A100000C0000087E090EBDC0180936802909377
:104A20006902A0936A02B0936B029CE088E10FB622
:104A3000F894A895809360000FBE90936000FFCF1C
:104A400080913E0208950895CF93DF9321E0209353
:104A5000E9002FEF3091E800215035FD06C035ED1B
:104A60003A95F1F700002111F5CF2091E80025FFDC
:104A700014C0EC0140E050E068E070E00E94612862
:104A80008091E8008E778093E80088E0FE01A6E33D
:104A9000B2E001900D928A95E1F7DF91CF910895F0
:104AA00080933202709334026093330280915F02EC
:104AB0008430F9F48093E9008FEF9091E800815001
:104AC00095FD06C095ED9A95F1F700008111F5CF9F
:104AD0008091E80085FF0DC040E050E063E070E0A9
:104AE00082E392E00E9461288091E8008E778093B3
:104AF000E8000895BC0184E00C945025BC0183E0DB
:104B00000C9450250895CF93603219F520915F02DF
:104B10002430F9F4C091E900CF703091EC00232FDC
:104B2000217030FD20E8C22B22E02093E900209183
:104B3000E80020FF0BC040E050E060E270E00E941F
:104B400061288091E8008E778093E800CF70C09351
:104B5000E900CF9108958DEC9BE00E94EC068091D6
:104B60005E02811109C00E943D2A0E949A2A80910A
:104B7000E20084608093E200089589EC9BE00E944B
:104B8000EC0610925E02089585EC9BE00E94EC0614
:104B90000C94782481EC9BE00E94EC0660915B020F
:104BA00081E0611101C080E00E9463240C94C3186D
:104BB0008DEB9BE00E94EC0690915F0281E09430C7
:104BC00009F080E060915B020E9468240E94C9188D
:104BD0000E9492230C94A909209131022F5F822F09
:104BE00062E30E94592D992319F020933102089510
:104BF0001092310280913502882371F180915F0219
:104C0000843041F58091E9008F702091EC00922F63
:104C1000917020FD90E8892B95E09093E9009091A8
:104C2000EB0090FF14C09091EE0097FF10C09091A0
:104C3000E80095FF03C01092F100F9CF9091E800D1
:104C400090FF05C09091E8009E779093E8008F70E8
:104C50008093E90010923502089542E061EC81E012
:104C60000E94B62942E261EC84E00E94B62942E249
:104C700061EC82E00E94B62942E260EC83E00E948F
:104C8000B62942E261EC85E00E94B62990915F026C
:104C900081E0943009F080E060915B020C94712413
:104CA00080916102833009F463C030F4813071F087
:104CB000823009F49CC008958A3009F488C08B3092
:104CC00009F46EC0893009F0AAC020C0809160024A
:104CD000813A09F0A4C08091E800877F8093E800C2
:104CE0008091640290916502892B21F468E086E34B
:104CF00092E003C060E080E090E070E00E94F7285E
:104D00008091E8008B778093E8000895809160029D
:104D1000813209F084C0809164029091650200970D
:104D200019F0029709F07BC08091E800877F80939B
:104D3000E8008091E80082FD05C080915F0281114A
:104D4000F8CF6DC02091F3008091F20090E0922B9B
:104D5000029731F48091F100813011F0863021F416
:104D60008091F10080933E028091E8008B7753C0E0
:104D700080916002813A09F052C080916402909162
:104D80006502892B09F04BC08091E800877F8093F2
:104D9000E8008091E80080FFFCCF8091120136C0CE
:104DA000809160028132D9F5809164029091650210
:104DB000892BA9F58091E800877F8093E8000E9405
:104DC000EB2980916202809312010C94C10D8091B5
:104DD0006002813221F58091E800877F8093E800AE
:104DE0000E94EB298091630280933F020895809195
:104DF0006002813AA1F48091E800877F8093E80007
:104E00008091E80080FFFCCF80913F028093F10009
:104E10008091E8008E778093E8000C94EB29089548
:104E20009FB7F894109235029FBF90915F02943023
:104E300009F057C09091E9009F703091EC00232F4A
:104E4000217030FD20E8922B25E02093E90020918D
:104E5000EB0020FF43C02091EE0027FF3FC02091D0
:104E60003002222321F02091E80025FF37C0109264
:104E7000300226E03091E80035FD15C030915F0228
:104E8000343061F53091EB0035FD28C0215021F41C
:104E900081E08093300222C0EFE9FFE03197F1F723
:104EA00000C00000E7CF8093F1008091E80085FD0D
:104EB0000AC08091E80080FFFCCF8091E8008E77E7
:104EC0008093E80006C08FB7F89421E02093350264
:104ED0008FBF9F709093E90080E008959F7090933A
:104EE000E9008FEF089584B7877F84BF0FB6F894E9
:104EF000A8958091600088618093600010926000A6
:104F00000FBE90E080E80FB6F89480936100909314
:104F100061000FBE0C9473240E943D2A0E949A2ABD
:104F2000E2EEF0E080818460808378940C942E2DF2
:104F300086E091E00C948D2380915F028530C9F466
:104F400089EB9BE00E94EC0680915F02853079F44A
:104F50000E949B2480915D028823B1F30E948524E6
:104F6000882391F30E944B280E94C10DEDCF0C9431
:104F7000A2240895CF93DF93CDB7DEB7A0970FB6E5
:104F8000F894DEBF0FBECDBF80915F02843011F573
:104F900083E08093E9008091E80082FF1BC080914C
:104FA000E80085FF0AC040E050E060E270E0CE011A
:104FB00001960E94AC2891E001C090E08091E80049
:104FC0008B778093E800992329F060E2CE01019667
:104FD0000E94411DA0960FB6F894DEBF0FBECDBF54
:104FE000DF91CF9108950C94F527292F3327233093
:104FF0003105C9F060F42130310581F022303105EE
:1050000009F041C08BE790E029E03CE040C021324C
:105010003105E1F02232310531F135C082E190E015
:1050200024E83CE034C099278130910549F028F00C
:10503000029749F5E1EDFBE005C0E5E0FCE002C0C8
:10504000EBEDFBE0849190E09F0121C0643071059D
:10505000D0F4660F771FFB01EC56FE4F20813181A3
:1050600089E090E014C06430710568F4FB01EE0F34
:10507000FF1FE457FE4F20813181FB01E857FE4FAF
:10508000808190E004C080E090E020E030E0FA0110
:1050900031832083089580E189BD82E189BD09B40F
:1050A00000FEFDCF8091D8008F7D8093D800809145
:1050B000E00082608093E0008091E00081FDFCCF01
:1050C0000895CF92DF92EF92FF920F931F93CF93A9
:1050D000DF93EC018B017A010E940A2A811133C00F
:1050E000E114F10439F0F70180819181081B190B5B
:1050F000C80FD91FC12CD12C0115110519F18091B0
:10510000E80085FD16C08091E8008E778093E80066
:10511000E114F10449F0F70180819181C80ED91E94
:10512000D182C08285E00FC00E940A2A882321F321
:105130000AC089918093F10001501109FFEFCF1A45
:10514000DF0ADACF80E0DF91CF911F910F91FF90BE
:10515000EF90DF90CF900895CF92DF92EF92FF9281
:105160000F931F93CF93DF93EC018B017A010E9481
:105170000A2A811133C0E114F10439F0F70180816A
:105180009181081B190BC80FD91FC12CD12C0115F7
:10519000110519F18091E80085FD16C08091E800A5
:1051A0008B778093E800E114F10449F0F7018081E6
:1051B0009181C80ED91ED182C08285E00FC00E94A5
:1051C0000A2A882321F30AC08091F10089930150B3
:1051D0001109FFEFCF1ADF0ADACF80E0DF91CF911C
:1051E0001F910F91FF90EF90DF90CF900895209145
:1051F0006602309167022617370748F0611571057E
:1052000039F42091E8002E772093E80001C0B9011D
:10521000FC0120E06115710579F180915F0288231E
:10522000F1F18530F1F18091E80083FD3CC080917F
:10523000E80082FD2EC08091E80080FFEBCF209136
:10524000F3008091F20090E0922B6115710551F00E
:105250008830910538F421912093F1006150710953
:105260000196F3CF21E0089709F020E08091E80053
:105270008E778093E800CECF2111CFCF0AC08091E6
:105280005F02882361F0853061F08091E80083FD42
:105290000AC08091E80082FFF2CF80E0089582E0AA
:1052A000089583E0089581E0089520916602309189
:1052B00067022617370748F06115710539F4209108
:1052C000E8002E772093E80001C0B901FC0120E03E
:1052D0006115710591F180915F02882309F440C046
:1052E000853009F43FC08091E80083FD3DC0809186
:1052F000E80082FD2FC08091E80080FFE9CF209177
:10530000F3008091F20090E0922B6115710559F045
:105310008830910540F424912093F100319661503A
:1053200071090196F2CF21E0089709F020E0809101
:10533000E8008E778093E800CBCF2111CCCF0AC054
:1053400080915F02882361F0853061F08091E800F0
:1053500083FD0AC08091E80082FFF2CF80E00895CB
:1053600082E0089583E0089581E00895982F9730B2
:1053700068F59093E900981739F07091EC0020914E
:10538000ED005091F00003C0242F762F50E021FD56
:1053900002C09F5FECCF3091EB003E7F3093EB007B
:1053A0003091ED003D7F3093ED003091EB003160A6
:1053B0003093EB007093EC002093ED005093F000DD
:1053C0002091EE0027FDE5CF80E008958F70809357
:1053D000E90081E008958091600287FF11C080910B
:1053E000E80082FD05C080915F028111F8CF11C0F5
:1053F0008091E8008B770BC080915F02882349F091
:105400008091E80080FFF8CF8091E8008E7780934C
:10541000E80008952091E4003091E50095E6409180
:10542000EC00842F817040FF23C08091E80080FD54
:105430001DC080915F02882399F0853099F080919A
:10544000EB0085FD11C04091E4005091E500241768
:10545000350729F3915011F09A01E1CF84E00895C6
:1054600082E0089583E0089581E0089580E0089542
:105470004091E80042FFDDCF08950E94AB2A0E94D0
:10548000B32AE0EEF0E0808181608083E8EDF0E017
:1054900080818F77808319BCA7EDB0E08C918E7FDF
:1054A0008C9380818F7E808310925E0208950F938B
:1054B0001F93CF93DF930E94AB2A0E94B32AC8EDBB
:1054C000D0E088818F77888388818068888388810D
:1054D0008F7D888319BC10925F0210925B0210923C
:1054E0005D0210925C0200EE10E0F80180818B7F7B
:1054F000808388818160888342E060E080E00E9450
:10550000B629E1EEF0E080818E7F8083E2EEF0E06C
:10551000808181608083808188608083F8018081C0
:105520008E7F8083888180618883DF91CF911F91F6
:105530000F910895E8EDF0E080818F7E8083E7EDA4
:10554000F0E080818160808384E082BF81E080938D
:105550005E020C94572AE8EDF0E080818E7F808314
:105560001092E20008951092DA001092E10008957E
:105570001F920F920FB60F9211242F933F934F93C8
:105580005F936F937F938F939F93AF93BF93EF93AB
:10559000FF938091E10082FF0BC08091E20082FFC7
:1055A00007C08091E1008B7F8093E1000E94EC2591
:1055B0008091DA0080FF1FC08091D80080FF1BC05F
:1055C0008091DA008E7F8093DA008091D90080FF8D
:1055D0000DC080E189BD82E189BD09B400FEFDCF27
:1055E00081E080935F020E94AB2505C019BC109238
:1055F0005F020E94BD258091E10080FF19C080916B
:10560000E20080FF15C08091E2008E7F8093E2006F
:105610008091E20080618093E2008091D8008062F6
:105620008093D80019BC85E080935F020E94CA2550
:105630008091E10084FF30C08091E20084FF2CC0A3
:1056400080E189BD82E189BD09B400FEFDCF809172
:10565000D8008F7D8093D8008091E1008F7E809369
:10566000E1008091E2008F7E8093E2008091E20071
:1056700081608093E20080915B02882311F084E0D6
:1056800007C08091E30087FD02C081E001C083E094
:1056900080935F020E94D8258091E10083FF29C09A
:1056A0008091E20083FF25C08091E100877F809395
:1056B000E10082E080935F0210925B028091E10042
:1056C0008E7F8093E1008091E2008E7F8093E200E4
:1056D0008091E20080618093E20042E060E080E03F
:1056E0000E94B6298091F00088608093F0000E94AB
:1056F000C425FF91EF91BF91AF919F918F917F91C1
:105700006F915F914F913F912F910F900FBE0F902E
:105710001F9018951F920F920FB60F9211242F937E
:105720003F934F935F936F937F938F939F93AF9329
:10573000BF93CF93DF93EF93FF93C091E900CF70B6
:105740008091EC00D82FD17080FDD0E81092E90054
:105750008091F000877F8093F00078940E94CE2B98
:105760001092E9008091F00088608093F000CD2BCA
:10577000CF70C093E900FF91EF91DF91CF91BF917E
:10578000AF919F918F917F916F915F914F913F91D9
:105790002F910F900FBE0F901F9018951F93CF93CE
:1057A000DF93CDB7DEB7AA970FB6F894DEBF0FBE72
:1057B000CDBFE0E6F2E08091F100819322E0E8368F
:1057C000F207C9F70E9450268091E80083FF2EC19E
:1057D0008091600290916102492F50E04A3051055A
:1057E00008F024C1FA01E554FF4F0C949B2D80383A
:1057F00021F0823809F01AC108C080915C029091B2
:105800005D02992389F082600FC0809164028F70DD
:10581000873008F00BC18093E9008091EB0085FB95
:10582000882780F91092E9009091E800977F909383
:10583000E8008093F1001092F100D1C0282F2D7F55
:1058400009F0F4C0882319F0823061F0EFC0809134
:105850006202813009F0EAC0933009F080E0809361
:105860005D022EC08091620281112AC08091640283
:105870008F702FEF280F263008F0D8C08093E900F2
:105880002091EB0020FF1CC0933021F48091EB00AD
:10589000806214C09091EB0090619093EB0021E046
:1058A00030E0A90102C0440F551F8A95E2F74093EA
:1058B000EA001092EA008091EB0088608093EB0090
:1058C0001092E9008091E800877F8093E8000E94B1
:1058D000EB29ACC08111AAC0109162021F778091A0
:1058E000E3008078812B8093E3008091E800877F3C
:1058F0008093E8000E94EB298091E80080FFFCCFB4
:105900008091E30080688093E300111102C082E07F
:1059100001C083E080935F0289C08058823008F024
:1059200085C080916202909163028C3D53E095079F
:1059300079F583E08A838AE289834FB7F894DE01A0
:10594000139620E03EE051E2E32FF0E05093570041
:10595000E49120FF03C0E295EF703F5FEF708E2F60
:1059600090E0EA3010F0C79601C0C0968D939D93E9
:105970002F5F243149F74FBF8091E800877F8093E4
:10598000E8006AE270E0CE0101960E94F72816C096
:105990006091640270916502AE014F5F5F4F0E949B
:1059A000F327BC01892B09F441C09091E800977F4F
:1059B0009093E80089819A810E9455298091E8009E
:1059C0008B778093E80032C0803881F58091E800C1
:1059D000877F8093E80080915B028093F100809143
:1059E000E8008E7772CF811121C080916202909180
:1059F000630299270297D4F48091E800877F80930F
:105A0000E8008091620280935B020E94EB29809102
:105A10005B02811106C08091E30087FD02C081E036
:105A200001C084E080935F020E942D268091E800EF
:105A300083FF0AC08091E800877F8093E80080910F
:105A4000EB0080628093EB00AA960FB6F894DEBF5D
:105A50000FBECDBFDF91CF911F910895CF9380915D
:105A60005F028823A1F0C091E900CF709091EC0013
:105A7000892F817090FD80E8C82B1092E9008091F9
:105A8000E80083FD0E94CE2BCF70C093E900CF9138
:105A90000895DB018F939F930E94B72DBF91AF9123
:105AA000A29F800D911DA39F900DB29F900D112478
:105AB0000895991B79E004C0991F961708F0961B6A
:105AC000881F7A95C9F780950895AA1BBB1B51E1E1
:105AD00007C0AA1FBB1FA617B70710F0A61BB70B5E
