:100000000C946D040C94A5040C94A5040C94A50404
:100010000C94A5040C94A5040C94A5040C94A504BC
:100020000C94A5040C94A5040C94772E0C94492FE1
:100030000C94B8280C94A5040C94A5040C94A50465
:100040000C94A5040C94A5040C94A5040C94A5048C
:100050000C9456210C9440290C94A5040C94A504EE
:100060000C94A5040C94A5040C94A5040C94A5046C
:100070000C94A5040C94A5040C94A5040C94A5045C
:100080000C94A5040C94A5040C94A5040C94A5044C
:100090000C94A5040C94A5040C94A5040C94A5043C
:1000A0000C94A5040C94A5040C94A5047D087D086B
:1000B000A908A90811092F09160A160A3A09A2095E
:1000C000B309B309652067206C206F20722075206A
:1000D00078206423672387239823A023AB23AE23B0
:1000E000B523BC2304240424C123C423C923D62359
:1000F000E323E623EA23F723B62FDD2FD530DD2FC8
:10010000D53029304C30D530A330B23029003A00F8
:100110003B003C003D003E003F00400041004200EB
:10012000430044004500460048004C0035001E00D6
:100130001F002000210022002300240025002600AB
:1001400027002D002E002A002A004A002B00000064
:1001500014001A000800150017001C0018000C00FD
:10016000120013002F00300031004B003900000056
:1001700004001600070009000A000B000D000E0025
:100180000F0033003400320028004E00E10064000C
:100190001D001B00060019000500110010003600AC
:1001A00037003800E500000052004D00E000E30099
:1001B000E20000002C0000002C0000002C000000D9
:1001C000E60001510000500051004F000100010005
:1001D0000100010001000100010001000100010017
:1001E0000100010001000100010001000100010007
:1001F00001000100010001000100010001000100F7
:1002000001000100010001000100C25C01000000CA
:10021000010001000100005C01000100010001007B
:1002200001000100010001000100C35C01000000A9
:1002300001000100010001000100010001000100B6
:1002400001000100010001000100010001000100A6
:100250000100010001000100010001000100010096
:100260000100010001000000010001000100010087
:10027000010000000100000001000000010000007A
:100280000100010000000100010001000100010067
:100290000100010001000100010001000100010056
:1002A0000100010001000100010001000100010046
:1002B0000100010001000100010001000100010036
:1002C0000100010001000100010001000100000027
:1002D0000100010001000100010001000100010016
:1002E0000100010001000100010001000100000007
:1002F00001000100010001000100010001000100F6
:1003000001000100010001000100010001000100E5
:1003100001000100010001000100010001000100D5
:1003200001000100010000000100010001000100C6
:1003300001000000010000000100000001000000B9
:1003400001000100000001000100010001000100A6
:100350000100010001000100010001000100010095
:100360000100010001000100010001000100010085
:100370000100010001000100010001000100010075
:100380000100010001000100010001000100000066
:100390000100010001000100010001000100010055
:1003A0000100010001000100010001000100000046
:1003B0000100010001000100010001000100010035
:1003C0000100010001000100010001000100010025
:1003D0000100010001000100010001000100010015
:1003E0000100010001000000010001000100010006
:1003F00001000000010000000100000001000000F9
:1004000001000100000001000100010000000000E7
:10041000000000002A2B280000000000000000005F
:100420000000000000000029000000002C1E342005
:10043000212224342627252E362D3738271E1F202B
:100440002122232425263333362E37381F04050670
:100450000708090A0B0C0D0E0F10111213141516B4
:100460001718191A1B1C1D2F3130232D35040506B2
:100470000708090A0B0C0D0E0F1011121314151694
:100480001718191A1B1C1D2F3130354C00000000A5
:10049000000000000000000000000000000000005C
:1004A000000000000000000000000000000000004C
:1004B0007E0F00D4FFFFFFC70000007800047F3FDD
:1004C0001F643214643214783C1E1E140A05222361
:1004D000252628292A2C2D2F3032333536383A3B21
:1004E0003D3E4042434547494A4C4E505153555773
:1004F000595A5C5E6062646668696B6D6F71737592
:1005000077797B7D7F81838587898A8C8E90929491
:1005100096989A9C9E9FA1A3A5A7A8AAACAEAFB19E
:10052000B3B4B6B8B9BBBCBEBFC1C2C3C5C6C7C9E8
:10053000CACBCCCDCED0D1D2D2D3D4D5D6D7D7D8A2
:10054000D9D9DADADBDBDBDCDCDCDCDCDDDDDDDDF4
:10055000DCDCDCDCDCDBDBDBDADAD9D9D8D7D7D6FC
:10056000D5D4D3D2D2D1D0CECDCCCBCAC9C7C6C5B3
:10057000C3C2C1BFBEBCBBB9B8B6B4B3B1AFAEACF9
:10058000AAA8A7A5A3A19F9E9C9A98969492908EA4
:100590008C8A89878583817F7D7B79777573716F7D
:1005A0006D6B6968666462605E5C5A595755535159
:1005B000504E4C4A4947454342403E3D3B3A38360F
:1005C000353332302F2D2C2A292826252322FFAA25
:1005D0007F55400000000000000000000000010105
:1005E0000203040506080A0C0F1114181C20242904
:1005F0002E33393F464C535B626A7179818A929AF5
:10060000A2AAB2B9C1C8CFD5DCE1E7EBF0F4F7FAA2
:10061000FCFDFEFFFEFDFCFAF7F4F0EBE7E1DCD5B4
:10062000CFC8C1B9B2AAA29A928A8179716A625B73
:10063000534C463F39332E2924201C1814110F0C1B
:100640000A08060504030201010000000000000082
:10065000000000000101010101010101010202028B
:10066000020202020202030303030303030304045E
:100670000404040404050505050506060606060728
:100680000707070708080808090909090A0A0A0BE1
:100690000B0B0C0C0C0D0D0D0E0E0E0F0F0F101082
:1006A0001111111212131314141515161617171809
:1006B0001819191A1A1B1B1C1D1D1E1E1F20202174
:1006C0002222232424252626272829292A2B2C2DBB
:1006D0002D2E2F30313232333435363738393A3BDC
:1006E0003C3D3E3F404142434445464748494A4CD1
:1006F0004D4E4F50515354555658595A5B5D5E5F9D
:10070000616264656668696B6C6D6F707273757732
:10071000787A7B7D7E8082838587888A8C8E8F9194
:10072000939596989A9C9EA0A2A3A5A7A9ABADAFBE
:10073000B1B3B5B7BABCBEC0C2C4C6C9CBCDCFD1A8
:10074000D4D6D8DBDDDFE2E4E7E9EBEEF0F3F5F851
:10075000FAFDFF14036800370035005F007300697D
:10076000006E006700610000002003530069006E06
:10077000006700610020004B006500790062006F97
:1007800000610072006400730000000403090409A2
:10079000025B00030100A0FA09040000010301014B
:1007A0000009211101000122400007058103080012
:1007B00001090401000203000000092111010001E8
:1007C0002222000705820320000107050303200001
:1007D00001090402000103000000092111010001C8
:1007E000227B0007058403200001120100020000A3
:1007F0000008D8049AEC0100010200010660FF091C
:1008000061A1010962150026FF009520750881028B
:100810000963150026FF00952075089102C00501A7
:100820000902A10185020901A10005091901290890
:10083000150025019508750181020501093009316E
:100840001581257F95027508810609381581257F58
:10085000950175088106050C0A38021581257F95DA
:100860000175088106C0C005010980A10185031931
:10087000012AB700150126B700950175108100C047
:10088000050C0901A101850419012AA00215012600
:10089000A002950175108100C005010906A101059E
:1008A0000719E029E71500250195087501810295D2
:1008B00001750881010507190029FF150026FF00B1
:1008C000950675088100050819012905950575012A
:1008D0009102950175039101C00011241FBECFEF55
:1008E000DAE0DEBFCDBF04B603FE18C0809112036C
:1008F00090911303A0911403B09115038730904B8E
:10090000A740B04B59F410921203109213031092A7
:10091000140310921503E0E0F8E3099511E0A0E05C
:10092000B1E0EEE3F4E602C005900D92AA3DB107F6
:10093000D9F723E0AAEDB1E001C01D92A231B207C0
:10094000E1F70E9442150C941D320C9400000E94A5
:10095000651D40E86FEF80E00E94BB1A8BE00E94AB
:10096000621D60E070E0CB010E9450100C945C109E
:1009700081E0089581E008950C94BA0408950C94E0
:10098000BE041F93CF93DF9300D000D01F92CDB74A
:10099000DEB749835A836B833091DD0189819A8167
:1009A000311114C0662359F0222349F00E94A50B8F
:1009B000182F682F89819A810E944E0B03C00E94D4
:1009C000790B182F69817A81812F04C00E94A50BB1
:1009D00069817A810F900F900F900F900F90DF91A7
:1009E000CF911F910C941F26FC01262F408151812D
:1009F0006281738184810C94C10481E00895CF9356
:100A0000DF93EC0160E00E94F404BE01DF91CF911E
:100A10000C94BF04E1E0F0E0DF0102C0AA0FBB1FAD
:100A20006A95E2F7BD01DF0102C0AA0FBB1F4A951C
:100A3000E2F7AD01462B01C0EE0F2A95EAF7942F9D
:100A40009823491302C08E2B0895E0958E230895B4
:100A5000242F462F682F809102020E940A050C94D1
:100A60000B0B0C94F3130C94EF1308950E94A60A39
:100A70000E9435052FEF84E39CE021508040904098
:100A8000E1F700C000000C9466290F931F93CF93E9
:100A9000DF938C0161E00E94F404EC01B8010E9434
:100AA0008522882309F452C0B801CE010E94BC04FB
:100AB000882309F44BC0B801CE010E945620882338
:100AC00009F444C0B801CE010E9483278823F1F1C4
:100AD000B801CE010E9411248823C1F1B801CE01D2
:100AE0000E94DF26882391F1B801CE010E94691E81
:100AF000882361F1F8018281882309F1CA358DE5E7
:100B0000D807C1F050F4C115FCE5DF0781F0CE3DF8
:100B1000DC45A9F40E94BF1019C0CB35EDE5DE0716
:100B200061F0CC35DD4559F40E940A1008C00E94DE
:100B300036050CC00E94131002C00E941610C80196
:100B4000DF91CF911F910F910C94B80480E0DF9159
:100B5000CF911F910F9108950E949A2880E00E94E2
:100B60000E210E94A0060C94E61C0E947A1F0E948F
:100B7000A3060E94B21D0C94A028DF92EF92FF9270
:100B80000F931F93CF93DF93E82FF0E0E45FFB4FC9
:100B9000D490282F26952695269530E0F901E45526
:100BA000FB4F0491877010E0082E02C01595079541
:100BB0000A94E2F701701127F901E456FB4FE49023
:100BC000F12C082E02C0F594E7940A94E2F791E024
:100BD000E922FF24F901E457FB4FC491D0E002C0A1
:100BE000D595C7958A95E2F7C170DD2701151105E6
:100BF00019F081EE0E940207E114F10419F086EE6B
:100C00000E9402078D2D0E942B08EF2819F086EE16
:100C10000E94AC07012B19F081EE0E94AC07CD2B8E
:100C200051F08CE2DF91CF911F910F91FF90EF90E7
:100C3000DF900C942B08DF91CF911F910F91FF90C3
:100C4000EF90DF900895EF92FF920F931F93CF9351
:100C5000DF93EC01162F0AE08881882309F455C040
:100C6000813009F043C08981813041F47E0182E006
:100C7000E80EF11C8A810E942B0809C0823049F4D9
:100C80007E01E2E0EE0EF11C8A810E940207E7017C
:100C90002FC0833041F47E01F2E0EF0EF11C8A8117
:100CA0000E94AC07F4CF843011F0219621C02A8134
:100CB000229680E090E030E0205331092A3031055F
:100CC00058F4089FA001099F500D1124C901840FF9
:100CD000951F21962881EFCF009751F0EFE9FFE0B3
:100CE0003197F1F700C000000197F6CF0E94BD05D3
:100CF0002196812F882309F4AFCFEFE9FFE03197E8
:100D0000F1F700C000008150F5CFDF91CF911F9126
:100D10000F91FF90EF90089560E00C9423060895E2
:100D20000C948F0681E008950C9492060895CF9359
:100D3000C82F0E9490068C2F0E949406CF91089590
:100D400080E00C9497060E94DF270C9497060E947F
:100D5000DF279091DC01891721F08093DC010C944E
:100D600097060895CF93DF93CDB7DEB72B970FB6D5
:100D7000F894DEBF0FBECDBF4F83588769877A874F
:100D80008B8761110E94560F9E012F5F3F4F86E0B7
:100D9000F90111928A95E9F785E0FE013796D901AC
:100DA00001900D928A95E1F789819A814C815D814C
:100DB000452B31F09F3F31F491E08F3F19F403C090
:100DC00091E001C090E090FF09C049815A816B8198
:100DD0007C818D819E810E94770E05C0C9010E9491
:100DE000FD048111F2CF2B960FB6F894DEBF0FBE33
:100DF000CDBFDF91CF910895FC01808191810E9448
:100E0000D20B0895CF93882309F4A4C0C82F823849
:100E1000C1F40E94DF2781FD9DC069E3809102013A
:100E2000909103010E9472280E94780F2FEF81EEAB
:100E300094E0215080409040E1F700C0000069E359
:100E400019C0833801F50E94DF2780FD83C063E568
:100E500080910201909103010E9472280E94780FF4
:100E60002FEF81EE94E0215080409040E1F700C0E8
:100E7000000063E580910201909103010E947428B3
:100E8000CF910C94780F8438C1F40E94DF2782FD43
:100E900061C067E480910201909103010E94722871
:100EA0000E94780F2FEF81EE94E021508040904017
:100EB000E1F700C0000067E4DDCF8CEF8C0F813AD2
:100EC000D0F46C2F80910201909103010E943C2884
:100ED000882349F06C2F80910201909103010E94B8
:100EE00074280E94780F6C2F809102019091030169
:100EF0000E947228C5CF80E28C0F883048F4C770FA
:100F000081E001C0880FCA95EAF70E94390FB8CF77
:100F1000EBE5EC0FE33040F4F0E0E45AFE4F808163
:100F200090E0CF910C940428E8E5EC0FE73150F401
:100F3000F0E0EE0FFF1FE25DFE4F80819181CF91C7
:100F40000C941A28C03F30F08C2F0E94C715CF9107
:100F50000C949916CF910895882309F464C08238BF
:100F600079F40E94DF2781FF5EC069E3809102016E
:100F7000909103010E9472280E94780F69E310C0CB
:100F80008338B1F40E94DF2780FF4DC063E5809174
:100F90000201909103010E9472280E94780F63E57C
:100FA00080910201909103010E9474280C94780FA3
:100FB000843879F40E94DF2782FF35C067E480918E
:100FC0000201909103010E9472280E94780F67E449
:100FD000E7CF9CEF980F913A10F4682FE1CF90E2A1
:100FE000980F983050F4877091E001C0990F8A955E
:100FF000EAF7892F0E943F0FD9CF9BE5980F9330D6
:1010000020F480E090E00C94042898E5980F973144
:1010100020F480E090E00C941A28803F20F00E9499
:1010200022160C94991608951F93CF93DF93182FCF
:10103000EB010E940207209741F08FE99FE00197A2
:10104000F1F700C000002197F6CF812FDF91CF91FB
:101050001F910C94AC07893319F060E070E002C076
:1010600060E570E00C941408882321F00E94390F89
:101070000C94780F0895882321F00E943F0F0C9460
:10108000780F0895CF92DF92EF92FF920F931F9304
:10109000CF93DF937C01162FC72FFC01D2810581EE
:1010A00002950F700E942F0F8823B9F0DD23A9F05D
:1010B0008C2F807F803421F080E2810F883068F0AF
:1010C0008091A00282FD09C082E00E94D80F0E9498
:1010D0002F0F91E0D82ED92601C0D12CCC2EC2944E
:1010E0008FE0C8228C2D90E08C30910508F09EC1D5
:1010F000FC01EA5AFF4F0C9471318C2F807FCF7026
:10110000882311F0C295C07FDD2399F0CC2309F428
:1011100079C180E2810F883010F0111104C08C2F4A
:101120000E94390F03C08C2F0E94490F0E94780F34
:1011300069C1812F0E94AC07CC2309F477C180E2FA
:10114000810F883038F1112329F18C2F0E944F0F25
:1011500024C08C2F807FCF70803211F0C295C07F69
:10116000112319F01130A1F13DC08091A00282FF3E
:1011700017C0DD2349F0CC2329F08C2F0E94390FB2
:101180000E94780F80E03FC180E00E94AC07CC2332
:1011900009F44CC18C2F0E943F0F0E94780F46C16A
:1011A000DD2371F0002341F0013031F40E94590F2A
:1011B0008C2B0E94610F3AC10E94590F8C2B1DC0CD
:1011C000002319F0013009F431C10E946E0F25C0CF
:1011D000DD2321F0063008F029C10EC0053008F0EB
:1011E00025C11BC0DD2361F0002331F0F7018581AB
:1011F00080FF08C18F7085838C2F0E94340816C130
:10120000002359F0193309F00EC1FFEF27EE83E0F8
:10121000F15020408040E1F704C18C2F0E943B0830
:1012200005C18C2F86958695837019F0813061F009
:10123000FDC0DD2321F0812F9C2F937002C080E040
:1012400090E00E940428FAC0DD2321F0812F9C2F1A
:10125000937002C080E090E00E941A28EFC0812FB6
:10126000DD2319F00E94C71502C00E9422160E94B9
:101270009916E4C08C2F837079F5D111DBC0412F12
:10128000429546954770440F440F212F2F70042E2E
:1012900001C0220F0A94EAF714FF08C08FE090E023
:1012A00001C0880F4A95EAF7809501C080E0C69595
:1012B000C695C370822BC23049F058F4C13019F082
:1012C0000E94FF0AB7C00E94FA0AB4C00E94040B31
:1012D000B1C00E94F80AAEC0DD2319F08C2F8170D6
:1012E00001C08695882309F4A5C0412F42954695F3
:1012F0004770440F440F212F2F70042E01C0220F7E
:101300000A94EAF714FF08C08FE090E001C0880F4C
:101310004A95EAF7809501C080E0C695C695C370EE
:10132000822BC23049F058F4C13019F00E94430BAF
:1013300081C00E943E0B7EC00E94480B7BC00E9471
:101340000B0B78C0CF70DD2339F08C2F0E941C0B63
:10135000812F0E9434086EC0812F0E943B088C2F81
:101360000E94270B67C0123F21F128F4103F41F083
:10137000113FC1F043C0133F19F1143F79F03EC053
:10138000DD2341F0053008F051C08C2F8F710E9491
:10139000330B4CC0063008F049C0F7CF8091A00253
:1013A00082FF18C0DD2339F08C2F8F710E941C0B37
:1013B0003DC0DD23C9F38C2F8F710E94270B36C0EF
:1013C000DD2329F08C2F8F710E94140B2FC00E94F7
:1013D000110B2CC0DD2349F0CF718C2F0E941C0B08
:1013E00063E08C2F0E94BD0F21C081E00E94D80FC6
:1013F0000230E0F082E00E94D80F18C0DD2331F007
:10140000002391F2812F0E94020710C0002399F25D
:10141000193349F49FEFE7EEF3E09150E040F040DC
:10142000E1F700C00000812F0E94AC0788EF8C0D0F
:10143000843020F40E94DF270E949706DD20C9F047
:101440000E942B0F80FD15C0F70112820E94250F0C
:101450000E941C0BC7010E945A0A0E94250FDF91AF
:10146000CF911F910F91FF90EF90DF90CF900C9450
:10147000270BDF91CF911F910F91FF90EF90DF909D
:10148000CF9008950F931F93CF93DF93EC01688162
:1014900079818A810E94DD0B8C010E944D0B0E9494
:1014A000EC0AB801CE010E944208DF91CF911F9152
:1014B0000F910895CF93DF93EC01988189812B815F
:1014C0003C81232B31F08F3F31F481E09F3F19F4B1
:1014D00003C081E001C080E080FD1DC0CE010E94FC
:1014E0004505811110C00E942F0F8823A1F08A8129
:1014F000882389F08091A00282FD0DC082E0DF91F7
:10150000CF910C94D80FCE010E94420ACE01DF91F8
:10151000CF910C94FF04DF91CF91089580E090E08B
:101520000E94042880E090E00E941A280E94560F32
:101530000E94780F0E94CA170C949916809102019C
:10154000909103010E9476280C948E0A0E94460F07
:101550000C949E0A92959F70963079F010F49250F8
:1015600001C09A50923068F4803F69F018F4883EC8
:1015700040F409C0843F29F406C0883E20F0813F32
:1015800011F080E0089581E00895FC01808191814F
:101590000E94D20B0E94AA0A0895CF93DF9300D035
:1015A00000D01F92CDB7DEB70F900F900F900F9025
:1015B0000F90DF91CF910895CF93DF9300D000D0AB
:1015C00000D0CDB7DEB726960FB6F894DEBF0FBEBB
:1015D000CDBFDF91CF910895089508950C94ED0A41
:1015E0000C94EE0A0E94F00A809303020C948E0A77
:1015F0000C94F20A90910302892B0C94F20A9091B8
:10160000030289230C94F20A9091030289270C9417
:10161000F20A0C94ED0A0E94090B809302020C94CA
:101620008E0A80E00C940B0B91E001C0990F8A9513
:10163000EAF7892F0C940B0B21E030E001C0220F58
:101640008A95EAF780910202822B0C940B0B21E021
:1016500030E001C0220F8A95EAF7209580910202BE
:1016600082230C940B0B21E030E001C0220F8A95FD
:10167000EAF78091020282270C940B0B90910202F0
:10168000892B0C940B0B9091020289230C940B0B69
:101690009091020289270C940B0B089520E1929FF0
:1016A000800D1124E82FE695E695E695877051E0C8
:1016B00001C0550F8A95EAF783E0E89FF0011124F5
:1016C000E252FE4F20E030E070E04081CB01022E7C
:1016D00002C0969587950A94E2F7817081958427D8
:1016E0008523842781932F5F3F4F2330310569F78E
:1016F000089520E1929F800D1124682F66956695CC
:101700006695982F977083E0689FB001112440E0A0
:1017100050E080E0FB01E40FF51FE252FE4F208114
:1017200030E0092E02C0369527950A94E2F7217021
:101730003327042E01C0220F0A94EAF7822B4F5F51
:101740005F4F4330510531F70895CF92DF92FF92FA
:101750000F931F93CF93DF936C010091020280914E
:101760000302082BC7E0D0E010E0C8010C2E02C035
:10177000959587950A94E2F780FD04C02197A8F714
:10178000F12C07C0FC2EB6018C2F0E94CA120197C3
:10179000A9F38F2DDF91CF911F910F91FF90DF90D3
:1017A000CF900895CF93DF93EC010E94A50BBE016B
:1017B0000E94CA12DF91CF9108951F93CF93DF93B8
:1017C000EB019091DD01992321F0CB010E94D20B16
:1017D00013C0882349F0CB010E94A50B182F682F56
:1017E000CE010E944E0B04C0CB010E94790B182F32
:1017F000BE01812F0E94CA12DF91CF911F910895DF
:101800001F93CF93DF93C091040216E080910502ED
:10181000C81799F0D0E01C9FF0011D9FF00D112416
:10182000EA5FFD4F4081518162817381848195819E
:101830000E94DC0A2196C770E9CFDF91CF911F91FA
:1018400008954091360250913702609138027091AC
:10185000390280913A0290913B020C94DC0AEF929B
:10186000FF920F931F93CF93DF9380913B0282955A
:101870008F7009F065C080913802882309F460C038
:1018800080910402F0900502109136020091370217
:101890006091390270913A0291E01F3F09F090E0A7
:1018A000C0910001D0910101292F96E0E92E8F15FA
:1018B00009F446C06115710521F00F3F21F030E0B9
:1018C00003C031E001C0322F90E030FD36C0E89E09
:1018D000F001E99EF00D1124DF01AA5FBD4F1196C2
:1018E0003C911197301329C03C91311326C01296B8
:1018F0003C911297311121C013964D915C91149730
:10190000461B570B4C175D07C0F480913B028F704C
:10191000806180933B02E55FFD4F80818F70806125
:10192000808386E392E00E945A0ADF91CF911F9153
:101930000F91FF90EF900C94000C01968770B7CF39
:10194000DF91CF911F910F91FF90EF9008959F929B
:10195000AF92BF92CF92DF92EF92FF920F931F93BD
:10196000CF93DF93CDB7DEB761970FB6F894DEBFA4
:101970000FBECDBF8C0185E0F801DE011D96019000
:101980000D928A95E1F7D8011296EC90909136026B
:10199000E09137022091390230913A022115310548
:1019A00031F0EF3F31F481E09F3F19F403C081E053
:1019B00001C080E0B82FB1709B2E80FD47C1D801D7
:1019C0004C9111965C9111971396AD90BC90149721
:1019D00086E3C82E82E0D82EF0903802B501621B53
:1019E000730B2091000130910101FF2009F4D9C04F
:1019F00080913B026217730708F095C0282F207F63
:101A000009F052C05E1313C0491311C0FE2CE1103F
:101A10000EC08F70806180933B020E94210CC60132
:101A20000E945A0A80913B02F80185834DC1AB2880
:101A300031F05F3F31F481E04F3F19F403C081E0A2
:101A400001C080E080FD03C081E08E2502C080E0FF
:101A500090E0F82FF170FF2E80FF1CC080910402EF
:101A60002091050236E0821709F40BC190E0389FFF
:101A7000F001399FF00D1124EA5FFD4F618156138B
:101A800006C06081461303C06281E61203C001965E
:101A90008770E9CFFE2CEE2009F416C180913B023D
:101AA000816080933B0254C05E1306C0491304C09A
:101AB000E11002C0F80199C0C8010E94C50A88233C
:101AC00061F1EE2051F120913B02822F82958F70BF
:101AD00090E0029774F080913602909137029887D7
:101AE0008F831986BB86AA862C87CE0107960E9413
:101AF0005A0A86E0F801A6E3B2E001900D928A95B9
:101B0000E1F70E942F0C0E94210C0AC05E1711F110
:101B1000C8010E94C50A81112CC0C8010E945A0A3E
:101B2000FF24F394D1C0282F207F81F77A2DB98A22
:101B3000A88A6E2D89890E94CD0A86E392E00E94D0
:101B40005A0A86E0D6011D928A95E9F70E94210C77
:101B5000F12CBAC04913DCCFE110DACFF80185834C
:101B6000C8010E945A0A86E0D6011D928A95E9F7BB
:101B7000ABC0EE2091F220913B02822F82958F70B4
:101B800090E002970CF4B5CF809136029091370225
:101B90009A8389831B82BD82AC822E83CE010196FB
:101BA000A6CF6217730708F044C0FE2CEE2009F49C
:101BB000B4CF5E1330C049132EC020913B0220FDEC
:101BC00021C0822F82958F70482F50E0411551051A
:101BD000C9F0F80125834F30510541F08F5F982FF0
:101BE0009295907F822F8F70892B8583C8010E94E8
:101BF0005A0A86E0F801A6E3B2E001900D928A95B8
:101C0000E1F73CC086E0F801A6E3B2E001900D9256
:101C10008A95E1F759C0C8010E94C50A811169CFB0
:101C200080913B02816080933B02C8010E945A0A66
:101C30004BC07A2DB98AA88A6E2D89890E94CD0A57
:101C400086E0D6011D928A95E9F718C0EE2009F4C6
:101C500064CFC8010E94C50AF82E882309F45DCF1D
:101C600086E0F801A6E3B2E001900D928A95E1F7D3
:101C700086E392E00E94FC060E942F0C0E94210C39
:101C800023C04D875E878D859E850E94D20B292FAC
:101C900022952F70223028F49F7039F0811105C0F1
:101CA0000BC0243028F49F7049F4805E883020F007
:101CB000C8010E945A0A9F2CF92C06C0D80115961B
:101CC0009C91907F91F7F8CF8F2D61960FB6F89485
:101CD000DEBF0FBECDBFDF91CF911F910F91FF905F
:101CE000EF90DF90CF90BF90AF909F9008951F939B
:101CF000CF93DF93CDB7DEB72C970FB6F894DEBF46
:101D00000FBECDBF4F83588769877A878B879C87A3
:101D1000CE0107960E94A70C8823D1F09F81888569
:101D20002A853B85232B31F08F3F31F481E09F3FA3
:101D300019F403C081E001C080E080FD47C04F81FD
:101D4000588569857A858B859C850E94DC0A3EC012
:101D500086E0FE013796DE01119601900D928A957C
:101D6000E1F7FF81E8856A857B856115710531F0B2
:101D7000EF3F31F481E0FF3F19F403C081E001C07F
:101D800080E080FD23C02091050230E0C90101966A
:101D9000877099274091040250E084179507F1F16C
:101DA000F983EA837D836C8396E0929FD001939FB1
:101DB000B00D1124AA5FBD4FFE01319601900D9226
:101DC0009A95E1F7809305020E94000C16E080913D
:101DD000040290910502891771F1189FC001112426
:101DE0008A5F9D4F0E94A70C882329F1E09104028D
:101DF0001E9FF0011124EA5FFD4F408151816281F5
:101E00007381848195810E94DC0A8091040290E0B4
:101E100001968770992780930402D9CF0E94A60A61
:101E20001092050210920402E6E3F2E086E0DF0180
:101E30001D928A95E9F72C960FB6F894DEBF0FBE77
:101E4000CDBFDF91CF911F91089580914402859578
:101E500085958595089580914402877008959091A5
:101E60004402977081E009F480E0089580914F0268
:101E7000089590914F02892B80934F020895809589
:101E800090914F02892380934F02089510924F0240
:101E9000089590914E02892B80934E02089580956B
:101EA00090914E02892380934E02089510924E0223
:101EB000089580914502089508950C945C0F0C9448
:101EC0005D0F9091A00292FD08C090914502981775
:101ED00021F0809345020C945F0F08958091450294
:101EE000882329F01092450280E00C945F0F08953A
:101EF000CF93DF93E0910201F091030180914F02B3
:101F00008083E0910201F0910301908180914E0263
:101F1000892B808380914502882381F0E091020122
:101F2000F09103019081892B80838091020190912F
:101F300003010E94302881110E946E0FC09102019E
:101F4000D091030148E050E06CE372E0CE010E94C2
:101F5000C831892B69F088E0FE01ACE3B2E0019062
:101F60000D928A95E1F7CE01DF91CF910C94EB278A
:101F7000DF91CF9108950C945C0F9091A00292FD97
:101F800010C098E0899F90011124262B20934402D1
:101F90000E941C0B809144028595859585950C9433
:101FA000BB0F0C941C0B1092440280E00C94BB0FEE
:101FB000209144028095822380934402982F977049
:101FC00099F430E0482F082E000C550B24173507E4
:101FD00059F09091A00292FD07C085958595859551
:101FE0000E94270B0C94D30F08959091A00292FBAE
:101FF000222720F9281769F080FB92F99093A0021C
:1020000080919F029091A0020E94431082E00C9464
:10201000D80F08958091A00282FB882780F991E073
:1020200089270C94F50F81E00C94F50F80E00C9457
:10203000F50F6FEF7FEF80E090E00C94073280E0C7
:1020400090E00E94E331893E9E4F11F40C941D22D2
:1020500080E0089582E090E00C94D53183E090E038
:102060000C94D531CF9384E090E00E94D531C82FF5
:1020700082E290E00E94D5312C2F30E0A901582B4C
:10208000CA01CF910895CF93C92F682F84E090E0C3
:102090000E94E9316C2F82E290E0CF910C94E931FB
:1020A000AB01BC018FE090E00C94FB31AB01BC01B3
:1020B00083E190E00C94FB3160E070E0CB010C9484
:1020C000561069EE7EEF80E090E00E94073260E0FB
:1020D00082E090E00E94E93160E083E090E00E94BD
:1020E000E9311092030260E084E090E00E94E9315F
:1020F00060E082E290E00E94E93160E085E090E0FB
:102100000E94E93160E086E090E00E94E9316FEFE3
:1021100087E090E00E94E93140E050E0BA0188E0B9
:1021200090E00E94FB3160E08DE090E00E94E93198
:1021300040E050E0BA0188E190E00E94FB3160E0AD
:1021400087E190E00E94E93140E050E0BA018CE183
:1021500090E00E94FB3160E070E080E290E00E943D
:10216000073240E050E0BA0188E190E00E94FB3184
:1021700080E00E9436220E9469220C94A7040C94ED
:102180006110682F8EE090E00C94E9310E942529BF
:102190006093600270936102809362029093630285
:1021A00060935C0270935D0280935E0290935F0285
:1021B000089585B7806885BF85B7806885BF089515
:1021C00081E008950C94E01008950C94E4100C94B0
:1021D000E4100C94E7100C94E4100C94EB100C94A5
:1021E000E4100E94D91086EA93E10E94D5270E944C
:1021F000EF100C94ED100E94E5100C94E4100E9476
:10220000C0130E9496060C94DC210E9410290E94A3
:1022100078220E949B140E94FF100E947A1F0E9445
:10222000771D0C94E9105F926F927F928F929F922C
:10223000AF92BF92CF92DF92EF92FF920F931F93D4
:10224000CF93DF93CDB7DEB72A970FB6F894DEBFF2
:102250000FBECDBF0E94B014C82E81110E94C610BF
:1022600030E5832E32E0932E00E010E0502E802FD8
:102270000E94DA135C01F401619071904F016826AD
:10228000792661147104B1F40F5F1F4F06301105F8
:1022900069F78FEF89838A831B820E9419298160E5
:1022A000782F9D838C8349815A816B818D810E9417
:1022B000B2063AC08091640281FD0E94E313D12CE2
:1022C000EE24E394F12CC3018E219F21892B29F167
:1022D0000E94E2108823A9F0DE825F82AE20BF2038
:1022E00081E0AB2809F480E088870E941929816089
:1022F000782F9A8789874E815F8168858A850E94B9
:10230000B206000F111FF801E05BFD4F8081918143
:10231000E826F926F182E08207C0D394EE0CFF1C78
:10232000F0E1DF12D0CFB0CF81E0C11001C080E07A
:102330002A960FB6F894DEBF0FBECDBFDF91CF91C6
:102340001F910F91FF90EF90DF90CF90BF90AF90D3
:102350009F908F907F906F905F9008950E941311CF
:102360000E94BB1D0E9440210E94B7160C94A70634
:10237000CF93DF930E94CF12EC01811521E59207E4
:1023800008F045C0811530E5930708F094C0883EF9
:10239000910528F5803E910508F0F8C0883A91052E
:1023A00070F4853A910508F07CC08130910509F4FC
:1023B00075C008F4E8C0049708F0E8C0E4C08F3B9B
:1023C000910508F0E0C0C85AD0E0CC0FDD1FC15A1B
:1023D000DE4F0990D881C02DCE019464D8C08115FC
:1023E00040E2940758F4811551E0950708F0CEC0FB
:1023F000803F910508F4C7C09065C9C0C11580E44D
:10240000D80708F4C0C0DF70CE01906AC0C0811543
:1024100025E59207A8F4811534E5930708F095C0E7
:10242000811543E5940708F07BC0811552E59507B7
:1024300008F061C0D82FCC27CE01816F906AA7C069
:10244000C11589E5D807A0F4C11528E5D20708F021
:1024500082C0C11536E5D30708F095C08C2F0E94C5
:1024600063138F7190E0D82FCC27CE0190628FC07C
:10247000C1154AE5D40708F474C0CE019056811501
:10248000904208F080C08D2F8F710E946313DD276A
:10249000D0628F71AE01582BCA0179C081E090E003
:1024A00076C0C55AD0E0C357DE4F8881C82FD0E030
:1024B000CE0190646CC074E0969587957A95E1F7AB
:1024C000282F23703C2F337081E090E002C0880FEA
:1024D000991F3A95E2F79C68AC01522B9A019C2F08
:1024E0009F709695969550E2959FE0011124C90141
:1024F0008C2B9D2B4CC08370992721E030E002C0CB
:10250000220F331F8A95E2F79C2F9695969580E2CD
:10251000989FE0011124C22BD32BCE019C6837C0B9
:102520008370992721E030E002C0220F331F8A9583
:10253000E2F79C2F9695969540E2949FE001112436
:10254000C22BD32BCE019A6822C0D82FCC27CE0124
:10255000846F906A1CC0DC2FCC27CE01806F906AFC
:1025600016C08C2F8F700E94631394E0D695C79588
:102570009A95E1F7CF70D0E0DC2FCC27D0699E018F
:10258000282BC90104C080E090E001C0CE01DF919A
:10259000CF9108950E941F260E94B8110895823895
:1025A000910569F1B0F48133910509F46DC048F4E7
:1025B0008932910509F463C08A32910509F469C032
:1025C00008958533910509F455C089339105B9F013
:1025D0000895833E910569F138F4803E9105B1F08C
:1025E000823E910509F10895863E9105A9F1873E45
:1025F0009105B9F1843E910509F064C023C0209192
:102600009F0220FD4FC021FD4DC0089580919F0283
:1026100080FD44C08091A00280FF44C080919F0251
:1026200084FD42C083EE4DC080919F0282FF38C07E
:10263000F5CF80919F0282FD33C08091A00280FD82
:1026400031C0ECCF8091A00281FF32C080919F0207
:1026500084FD2AC087EE35C080919F0283FF26C08B
:10266000F5CF80919F0283FD21C08091A00281FD62
:102670001FC0ECCF80919F0285FD1CC01DC08091C2
:102680009F0285FD19C016C080919F0286FD16C06D
:1026900017C080919F0286FD13C010C089E311C04E
:1026A00082EE0FC080EE0DC080E00BC086EE09C048
:1026B00084EE07C089E205C085E303C08AE201C059
:1026C00081E390E0089590919F0292FF0DC0282F22
:1026D0002871283019F4877F846006C0282F247160
:1026E000243011F48B7F886093FF0DC0282F287150
:1026F000283119F4877E846106C0282F2471243183
:1027000011F48B7E88612091A00220FF0DC0382F2C
:102710003871383019F4877F816006C0382F3171E5
:10272000313011F48E7F886021FF0DC0282F287171
:10273000283119F4877E816106C0282F217121314B
:1027400011F48E7E886194FD877E089580E008955F
:102750000C9419100E94B0148FE39CE90197F1F7D3
:1027600000C000000E94B01480E00E94DA1380FFD5
:1027700004C00E94A8130C94662908950C94AA130F
:102780000E941F10811102C00E94BF100E942A10D7
:10279000809364020E9432109093A00280939F0263
:1027A0000E94BE130E942E100E94F80A809102021D
:1027B0000C94090BE82FF0E0EE0FFF1FE355FD4FDF
:1027C000808191810895089580EA8A95F1F70895AE
:1027D00000C008950C94E41308950C94EC130C9429
:1027E000ED130C94EC130C94F113F894E82FE2958C
:1027F000EF70F0E031A1282F2F7081E090E001C050
:10280000880F2A95EAF7982F9095932391A392A188
:10281000892B82A3789408950F931F93CF93DF930E
:10282000C0EAD1E089918F3F11F00E94F51381E059
:10283000C63AD807B9F7C0E9D1E000EA11E08991BA
:102840008F3F11F00E94F5130C171D07C1F7DF91A0
:10285000CF911F910F910895BF92CF92DF92EF9287
:10286000FF920F931F93CF93DF938C01C62FD0E07D
:10287000CE0180569E4F6C01FC0190819F3F09F470
:1028800050C0B62EF894E92FE295EF70F0E081A1E8
:102890009F7021E030E001C0220F9A95EAF7822B69
:1028A00081A382A12095282322A378940E94E81373
:1028B000E0E9F1E040EA51E021E030E0E12CF12CE8
:1028C00061916F3F89F0A62FA295AF70B0E090960E
:1028D0008C9190E06F7002C0959587956A95E2F7AC
:1028E00080FD02C0C90102C080E090E0E82AF92A18
:1028F000220F331F4E175F0719F7F60180818F3FB4
:1029000011F00E94F51361E0E114F10409F460E0B4
:102910008B2D0E94EA13CC0FDD1FC00FD11FF9824F
:10292000E882DF91CF911F910F91FF90EF90DF90A0
:10293000CF90BF9008950E940C148CE0EDEAF2E075
:10294000DF01982F1D929A95E9F7E1EAF2E0DF01A5
:102950001D928A95E9F786E00E94FB140C943105DC
:10296000FF920F931F93CF93DF93CDB7DEB72C97D2
:102970000FB6F894DEBF0FBECDBF8E010F5F1F4FA5
:102980008CE0F80111928A95E9F7F12C6F2DC801BE
:102990000E942C14F394F6E0FF12F8CF4CE050E0C4
:1029A000B80181EA92E00E94C831FF24F3940097B5
:1029B00009F4F12C892B41F08CE0F801A1EAB2E096
:1029C00001900D928A95E1F72F2D46E06DEA72E0B5
:1029D00081EA92E00E94FC140E9433058F2D2C9610
:1029E0000FB6F894DEBF0FBECDBFDF91CF911F9120
:1029F0000F91FF9008950895FF920F931F93CF9327
:102A0000DF93F82E092F162FD72FC42F222349F03A
:102A100081E0809367020E94192990936602809357
:102A20006502809167028823D9F0809165029091B8
:102A300066020E943129059798F0EF2DF02FA12F03
:102A4000BD2F80E090E04C2F50E08417950734F4C0
:102A5000219131912D933D930196F7CF109267020A
:102A6000DF91CF911F910F91FF9008950E944F2BFE
:102A70000E9405110C945B2B0E945F2B0E94AE11EB
:102A80000C94792B0E94B7280E94362B0E94F110DB
:102A90000E9436150E943C150E94FB10FBCF8091CE
:102AA0006E0280FF06C06091090170E0660F771F1B
:102AB00026C081FF04C06091090184E005C082FF47
:102AC00007C06091090188E0689FB001112417C018
:102AD00090916D029923D1F060910801961788F7C3
:102AE0002091090188E0289F90011124929FA00164
:102AF000939F500D112470E0CA010E943B31603851
:102B0000710540F46115710519F406C068E070E0C4
:102B1000862F08958FE7089581E0089580916E02D1
:102B200080FF08C06091050170E075956795759507
:102B3000679521C081FF06C06091050170E0759521
:102B4000679519C082FF04C06091050170E010C054
:102B500090916C02992399F0609104019617A0F767
:102B600080910501899FC001112470E00E943B31D2
:102B70006038710540F46115710519F406C061E013
:102B800070E0862F08958FE7089581E00895803FD3
:102B900021F40E944F15819504C0813F29F40E94C1
:102BA0004F15809372020895823F21F40E944F15C1
:102BB000819504C0833F29F40E944F1580937102D0
:102BC0000895893F19F40E948E1505C08A3F31F49B
:102BD0000E948E1581958093730208958B3F21F496
:102BE0000E948E15819504C08C3F29F40E948E1599
:102BF0008093740208959CE0980F953078F421E05A
:102C000030E0A90102C0440F551F9A95E2F7CA01AE
:102C100090917002892B8093700208958D3F21F46A
:102C200080916E0281600BC08E3F21F480916E0214
:102C3000826005C08F3F29F480916E02846080938A
:102C40006E020895803F39F49091720297FF35C06B
:102C50001092720259C0813F29F4909172021916A4
:102C6000BCF32BC090917102823F29F497FF25C0DD
:102C70001092710249C0833F19F41916CCF31DC09C
:102C800090917302893F29F41916BCF410927302D3
:102C90003BC08A3F19F497FF10C0F8CF8B3F39F43F
:102CA0009091740297FF09C0109274022DC08C3F5E
:102CB00021F4909174021916BCF39CE0980F9530A2
:102CC00080F421E030E0A90102C0440F551F9A951D
:102CD000E2F7CA0180959091700289238093700277
:102CE00013C08D3F21F480916E028E7F0BC08E3F0A
:102CF00021F480916E028D7F05C08F3F29F4809171
:102D00006E028B7F80936E0280917102811106C0EA
:102D100080917202811102C010926D028091730243
:102D2000811106C080917402811102C010926C0260
:102D300008950E94192920917102211104C0209147
:102D40007202222321F090936B0280936A022091F9
:102D50007302211104C020917402222321F0909368
:102D60006902809368028FE692E00C94F627EF9256
:102D7000FF920F931F93CF93DF9300D000D000D02A
:102D8000CDB7DEB786E0EFE6F2E0DE011196019006
:102D90000D928A95E1F7E0907102F0907202009135
:102DA00073021091740210927102109272021092CA
:102DB000730210927402E11003C0FF2009F45DC099
:102DC00080916A0290916B020E943129AC0190912E
:102DD0006D02992339F020910A0130E0241735075C
:102DE00058F04BC020910B018AE0289F90011124DC
:102DF0002417350718F041C09F3F19F09F5F90934B
:102E00006D02EE2061F00E944F151E1414F09FEF2A
:102E100001C091E0989F902D112490937102FF20A2
:102E200061F00E944F151F1414F09FEF01C091E054
:102E3000989F902D11249093720230917102332348
:102E4000E1F0209172022223C1F045EB3403C0016E
:102E50001124992319F09093710203C081E08093AB
:102E6000710235EB2303C0011124992319F09093CB
:102E7000720203C081E080937202011103C011232A
:102E800009F45DC080916802909169020E94312925
:102E9000AC0190916C02992339F02091060130E049
:102EA0002417350758F04BC0209107018AE0289F6E
:102EB000900111242417350718F041C09F3F19F0E5
:102EC0009F5F90936C02002361F00E948E15101694
:102ED00014F09FEF01C091E0989F902D11249093E2
:102EE0007302112361F00E948E15111614F09FEFEA
:102EF00001C091E0989F902D11249093740230911D
:102F000073023323E1F0209174022223C1F045EBD8
:102F10003403C0011124992319F09093730203C064
:102F200081E08093730235EB2303C00111249923C0
:102F300019F09093740203C081E080937402809131
:102F4000710281110BC080917202811107C08091C2
:102F50007302811103C08091740281110E9499163D
:102F6000EB82FC820D831E8386E0FE013196AFE684
:102F7000B2E001900D928A95E1F726960FB6F8948B
:102F8000DEBF0FBECDBFDF91CF911F910F91FF909C
:102F9000EF900895EFE6F2E086E0DF011D928A955A
:102FA000E9F710926D0210926C0210926E02089571
:102FB000EF92FF920F931F93CF93DF938B01682FB4
:102FC00011110AC0442329F0E82FF0E0ED5AF94F1F
:102FD0006491762F862F75C0212F30E0E82FF0E026
:102FE000442321F0ED5AF94FE491F0E046E0049FCC
:102FF000C0011124CFEFD0E0BE010E9427314BEA7F
:103000004603C001479F900D1124800F911D800F32
:10301000911D982F990F890FAE01421B530B4E9FA4
:10302000D0014F9FB00D5E9FB00D11249B2F189FB4
:10303000A0011124452F55278E01041B150B0E9F4F
:10304000A0010F9F500D1E9F500D11247E01E81A04
:10305000F108E29E8001E39E100DF29E100D1124F6
:10306000212F3327C21BD30BCE9F9001CF9F300D52
:10307000DE9F300D112462307105A9F048F461150E
:10308000710569F061307105C9F48B2F752F0DC082
:103090006430710581F058F06630710579F47E2F47
:1030A0008B2F932F0DC0832F7B2F9E2F09C08E2F28
:1030B0007B2F952F05C08E2F732F02C07E2F852F5B
:1030C000692FDF91CF911F910F91FF90EF9008959D
:1030D00041E00E94D817089508950E946818089545
:1030E000CF93DF93762FE901682F842F0E946D180C
:1030F000798368838A83DF91CF9108958091B902A3
:10310000282F269530E02115310519F48170826051
:1031100005C02532310524F0817088648093B9029E
:10312000089588E090E00C94DD31CF92DF92EF9229
:10313000FF926B017C010E947E18B701A60188E016
:1031400090E0FF90EF90DF90CF900C94FB31609176
:10315000B9027091BA028091BB029091BC020C94AA
:103160009518E9EBF2E083E0808311828FEF828390
:103170008383148260817181828193810C9495187C
:103180008091B90280FF02C08695089580E008957D
:103190009091BD02933018F49F5F9093BD028823F5
:1031A00051F06091B9027091BA028091BB02909186
:1031B000BC020C949518089581E00C94C818909165
:1031C000BD02992319F091509093BD02882351F0CC
:1031D0006091B9027091BA028091BB029091BC02D9
:1031E0000C949518089581E00C94DF188091BD022D
:1031F00008958093BD02662351F06091B9027091E9
:10320000BA028091BB029091BC020C94951808956B
:1032100060E00C94F9188091BA0208958091BB0285
:1032200008958091BC02089570E00C94F2216091A1
:1032300010018091B90280FF0AC080910F0123E044
:10324000829FC001112482549D4F0C9414198091C7
:10325000110190911201891780F7E82FF0E09F018A
:10326000220F331FE20FF31FE254FD4F1182108231
:1032700012828F5FF0CF9091B90290FF16C09091AB
:10328000110120911201921770F4E92FF0E0DF0193
:10329000AA0FBB1FEA0FFB1FE254FD4F818360831F
:1032A00042839F5FF0CF0C9417190895CF93DF935B
:1032B00000D01F92CDB7DEB79091B90290FF0AC03F
:1032C0009E012F5F3F4F0E9470184B8169818A8158
:1032D0000E943B190F900F900F90DF91CF910895AE
:1032E000CF93DF93EC01EC81F0E0E253FB4F44918C
:1032F000E9EBF2E0628181810E9456198C818F5F37
:103300008C83DF91CF910895CF93DF93EC01E9EBAC
:10331000F2E0438162818C810E9456198C818F5F1B
:103320008C83DF91CF9108950F931F93CF93DF93F9
:1033300000D01F92CDB7DEB78C018091750281114C
:103340000AC09E012F5F3F4F4FEF6FEF0E94701832
:103350008A8180937502F8018481813051F028F0D0
:10336000823061F4409175020AC08091750240E09C
:1033700007C06091750240E080E003C040E080E05B
:1033800060E00E943B19F801848190E0019663E0BF
:1033900070E00E943B3184830F900F900F90DF917B
:1033A000CF911F910F910895AF92BF92CF92DF926C
:1033B000EF92FF920F931F93CF93DF9300D01F9252
:1033C000CDB7DEB7182FF62E042FE22E9091B9025A
:1033D00090FF6DC0E92FE695AE2FB0E0AA55BE4F25
:1033E0008C91809381029E7F923061F49E012F5FC9
:1033F0003F4F812F0E9470184B8169818A810E9402
:103400003B1943C0823019F40091BC023EC08630A3
:1034100019F41091BA0239C08930D9F38931A9F56C
:10342000E9518E2F8170D82EE695F0E0E253FA4FE5
:10343000A590B490C12CBB2460911301C61618F559
:103440002C2D30E0A29EC001A39E900DB29E900D47
:10345000112470E00E942731812FD11002C0860F05
:1034600001C0861B90911101290F311DA901440F44
:10347000551F240F351F22543D4F402F6F2D0E94A2
:103480007018C394D9CF0E9417191093BA02F09202
:10349000BB020093BC02EE2051F06091B902709122
:1034A000BA028091BB029091BC020E9495180F90C5
:1034B0000F900F90DF91CF911F910F91FF90EF90A0
:1034C000DF90CF90BF90AF900895E9EBF2E091814B
:1034D000282F4381628188E0890F0C94D41981E000
:1034E0000C94651AE9EBF2E09181282F4381628107
:1034F00088EF890F0C94D41981E00C94721AE9EBCF
:10350000F2E0628128E0620F08F46FEF282F438118
:1035100081810C94D41981E00C947F1AE9EBF2E0DC
:10352000628128E0621B08F460E0282F43818181DA
:103530000C94D41981E00C948E1AE9EBF2E04381EB
:1035400028E0420F08F44FEF282F628181810C940C
:10355000D41981E00C949D1AE9EBF2E0438128E054
:10356000421B08F440E0282F628181810C94D41919
:1035700081E00C94AC1A21E00C94D41920E00C9456
:10358000D419FF920F931F93CF93DF93EC01F12C8B
:103590000FEF10E060911301F616F0F48091110125
:1035A0002F2D30E0280F311DC901880F991F280FDA
:1035B000391F22543D4F70E0C8010E943B31962FC5
:1035C0008C814091BC026091BB02F99E800D112458
:1035D0000E947018F394DECF0E9417199A818C8193
:1035E00090FF02C08F5F01C081508C83DF91CF912B
:1035F0001F910F91FF900895AF92BF92CF92DF92EB
:10360000EF92FF920F931F93CF93DF93FC01828180
:1036100080FF02C00FEF01C001E010E046E1A42EE0
:1036200080911301181708F043C080911101C12E39
:10363000D12CE601C80FD11DCE01880F991FC80FEC
:10364000D91FC254DD4F198218821A8234E0E32E4A
:10365000F12CB12C809177028B0D87312CF06A2DE3
:103660000E941931892F05C087FF03C09091130173
:10367000890F082E000C990BC816D90691F4809179
:10368000BC028E9DA0018F9D500D1124559547952C
:10369000559547959E016091BB028091BA020E94A8
:1036A0007018B00EF1E0EF1AF108A1F61F5FB8CF65
:1036B0000E94171980917702013031F4811102C004
:1036C00080911301815007C090E001966091130131
:1036D00070E00E943B3180937702DF91CF911F9180
:1036E0000F91FF90EF90DF90CF90BF90AF90089533
:1036F000CF938091110190911201891770F4E82FF6
:10370000F0E09F01220F331FE20FF31FE254FD4F41
:103710001182108212828F5FF0CFC0E0609113019E
:10372000C617C0F5EC2FF0E070E0CF010E943B31EE
:1037300020911101820F20917602022E000C330B92
:1037400090E0E217F307CCF020910E01022E000C5E
:10375000330B2E173F078CF09C01220F331F820F73
:10376000931F9C0122543D4F4091BC026091BB02CB
:103770008091BA020E9470180BC0FC01EE0FFF1F6F
:103780008E0F9F1FFC01E254FD4F118210821282A6
:10379000CF5FC4CF0E94171920910D01809176024E
:1037A000820F8093760290910E01920F90930E01FA
:1037B00019165CF4082E000C990B4091130150E08F
:1037C00041505109841795071CF0219520930D0154
:1037D000CF9108958F929F92AF92BF92CF92DF9236
:1037E000EF92FF920F931F93CF93DF938C01FC0115
:1037F0004481C42FD0E09E01DE010E9486319B01EE
:10380000AC010E949C316B017C01E0E2F0E0EC1B1A
:10381000FD0BA5E5B0E09B01AC010E949C314B0182
:103820005C019F01DF010E947E319B01AC010E947F
:10383000A7319B01AC012C0D3D1D4E1D5F1DC50127
:10384000B4010E944F31C22FD22F2A3228F4F3E064
:103850002F9F900111240DC025E530E02C1B31096C
:10386000C901880F991F280F391F37FF02C02F5F2A
:103870003F4F35952795C22FC095F12C85E5E82E51
:10388000ED1A80911301F816C8F4F1FC02C08E2DD8
:1038900001C08D2F909111012F2D30E0290F311D86
:1038A000A901440F551F240F351F22543D4F4C2FA3
:1038B0006091BB020E947018F394E3CF0E94171925
:1038C000F8018481811102C091E003C0803219F4B3
:1038D0009FEF90930C0190910C01890FF801848364
:1038E000DF91CF911F910F91FF90EF90DF90CF90DC
:1038F000BF90AF909F908F9008950F931F93CF9399
:10390000DF93EC0100E010E080911301282F30E0FC
:103910000217130724F5909111019801290F311D09
:10392000A901440F551F240F351F22543D4F869582
:1039300090E04C81081719071CF4442331F002C0B1
:10394000411103C04091BC0201C040E06091BB0244
:103950008091BA020E9470180F5F1F4FD5CF0E944E
:1039600017198C8190E00196817099278C83DF91E3
:10397000CF911F910F910895E9EBF2E080818E7F46
:10398000808360817181828193810E949518109259
:1039900082022FEF80E792E0215080409040E1F7D3
:1039A00000C000000C941719E9EBF2E080818E7FD3
:1039B0008083109282022FEF80E792E021508040B6
:1039C0009040E1F700C000000C9417191092820299
:1039D00080917F0281110AC081E080937F028091F3
:1039E000B902817080937E020C94D41C089560917A
:1039F000B902669570E04BE050E084E191E00E94EE
:103A0000BB31892B19F481E0809382020E9419292D
:103A1000909379028093780208959091B90290FF73
:103A200035C09170811102C0926006C0853210F0DD
:103A3000986402C0880F982B9093B902662351F0C6
:103A40006091B9027091BA028091BB029091BC0260
:103A50000E9495186091B902669570E04BE050E0C5
:103A600084E191E00E94BB31892B19F0109282020F
:103A700002C00E94F71C81E080937B024091BC024F
:103A80006091BB028091BA020C94BE1A0895682F0F
:103A90009091B902969581E0890F853208F081E016
:103AA0000C940D1D81E00C94471D682F9091B90274
:103AB00096958FEF890F09F484E20C940D1D81E037
:103AC0000C94551D61E00C940D1DE9EBF2E0808132
:103AD0008160808386950C94621D8091B90280FD7F
:103AE0000C94BC1C0C94651D60E00C940D1D809121
:103AF000800281112EC00E941F10811104C00E94FB
:103B0000BF100E94B1180E9491186093B90270937F
:103B1000BA028093BB029093BC026E7F61F40E9454
:103B2000B1180E9491186093B9027093BA02809301
:103B3000BB029093BC020E947E1810928202809178
:103B4000B90280FF03C086950E94741D81E08093B6
:103B500080020895E9EBF2E08081816080838695A0
:103B60000C94741D10927F0280917E0281110E943C
:103B7000AA1D0C94F71C0F931F93CF93DF93809192
:103B80008202882309F485C080918102E091B90204
:103B9000E695E81BE0937A02823049F4F0E0E653C0
:103BA000FB4FE491CE2FD0E000E719E149C0863009
:103BB00049F4F0E0E953FB4FE491CE2FD0E004E864
:103BC00019E13EC0893051F4E695F0E0EC53FB4F2B
:103BD000E491CE2FD0E001EC1AE132C08F3051F4E5
:103BE000E695F0E0EF53FB4FE491CE2FD0E00CEFE1
:103BF0001AE126C0853149F4F0E0E254FB4FE4912C
:103C0000CE2FD0E008E71BE11BC0883181F0833262
:103C100039F4ECEBF4E0C591D49104E919E110C05A
:103C2000843251F4C4EFD1E00DE71CE109C0C8E2D1
:103C3000D0E00AEE1BE104C0C0EDD7E00CE618E1CD
:103C400080917B02882361F010927B020E941929E7
:103C5000909379028093780210927D0210927C02F8
:103C60000E941929E0917802F09179028E1B9F0B36
:103C70008F3F9F4770F4EC0FFD1FF0937902E093A4
:103C8000780288E792E0F801DF91CF911F910F91C0
:103C90000994DF91CF911F910F910895882311F01E
:103CA000FA0101C0FB010994CF93DF93C82FD62FEF
:103CB0000E94C0188C1740F00E94C0188D1720F485
:103CC000DF91CF910C94521D8C2FDF91CF910C94EA
:103CD000621D1F93CF93DF93FB0112811111C3C0AB
:103CE000EC010E94360F8272CC3CFCE5DF0709F440
:103CF0009AC0A8F5C63CECE5DE0709F476C0A8F446
:103D0000C33C9CE5D90709F45FC028F4C23CDC45FC
:103D100009F457C054C0C43C9CE5D90709F459C004
:103D2000C53CDC4509F45CC04AC0C93CFCE5DF0782
:103D300009F46AC050F4C73CECE5DE0709F45AC048
:103D4000C83CDC4509F45BC03AC0CA3C9CE5D907D5
:103D500009F45FC0CB3CDC4509F460C030C0C13D14
:103D6000FCE5DF0709F46FC088F4CE3C9CE5D90779
:103D700009F460C008F45CC0CF3CFCE5DF0709F43F
:103D80005CC0C03DDC4509F45BC019C0C43D9CE586
:103D9000D90709F460C050F4C23DFCE5DF0709F41F
:103DA00055C0C33DDC4509F454C009C0C53D9CE580
:103DB000D90709F455C0CD35DD4509F454C011E0EB
:103DC00052C00E946D1D4FC04FE55DE162E57DE18F
:103DD00004C042E55DE16FE57DE10E944E1E43C0F7
:103DE0004CE75AE16FE67AE1F8CF4FE65AE16CE72B
:103DF0007AE1F3CF4AE95AE16BE87AE1EECF4BE89A
:103E00005AE16AE97AE1E9CF48EB5AE169EA7AE1F5
:103E1000E4CF49EA5AE168EB7AE1DFCF43EF58E1BA
:103E20006CED78E1DACF4CED58E163EF78E1D5CF76
:103E300081E017C065E082E010C068E086E00DC058
:103E40006EE089E00AC064E18FE007C067E185E1C8
:103E500004C088E106C062E289E10E94541E03C0EA
:103E600083E20E94621D812FDF91CF911F910895FF
:103E700086E090E00C94D531682F86E090E00C94B9
:103E8000E931809100030C943C1F80910003847001
:103E90008961809300030C943C1F809100038695F8
:103EA0008695869508958091000381FD07C0826004
:103EB000809300030E943C1F0C944121089580913F
:103EC000000381FF07C08D7F809300030E943C1F89
:103ED0000C944D2108958091000381FD0C945F1F87
:103EE0000C94531F809100038695817008958091F2
:103EF0001F0108950E941F10811104C00E94BF106D
:103F00000E94451F0E94381F80930003282F26958A
:103F10002695269530E02430310524F0877088619D
:103F2000809300038091000380FF04C086958695EE
:103F3000869501C080E00C940E2120910003822F11
:103F4000869586958695482F50E04330510554F468
:103F50008F5F982F990F990F990F822F8770892B58
:103F600080930003809100038160809300030E948E
:103F70003C1F809100038695869586950C940E21B2
:103F800080910003982F969596959695A1F0915E55
:103F9000990F990F990F8770892B80930003887F61
:103FA00091E009F490E08091000390FB80F9809308
:103FB00000030E943C1F809100038695869586959C
:103FC0000C940E218091000380FD13C081608093CA
:103FD0000003813019F489E080930003809100038D
:103FE0000E943C1F809100038695869586950C94CF
:103FF0000E2108958091000380FF08C08E7F80937A
:1040000000030E943C1F80E00C940E2108958091D3
:10401000000380FD0C94FA1F0C94E21F90910003A2
:10402000892F8695869586958F5F8F7197708430DE
:1040300038F4880F880F880F892B8093000302C003
:104040009093000380910003887F91E009F490E051
:104050008091000390FB80F9809300030E943C1F35
:10406000809100038695869586950C940E21843068
:1040700008F083E0909100039770282F220F220F01
:10408000220F922B90930003987F21E009F420E007
:104090009091000320FB90F9909300030C940E2163
:1040A0000E943720809100030C943C1FFC01DB012F
:1040B00012968C918823F9F0EB5BFC45E730F10513
:1040C000D8F4EE59FF4F0C94713183E001C080E0C9
:1040D0000E94502080E008950E94C01FFBCF0E94E4
:1040E0009D1FF8CF0E940720F5CF0E940E20F2CF2F
:1040F0000E946B1FEFCF81E00895279A2F980895B3
:104100002F9808958F929F92AF92BF92CF92DF9295
:10411000EF92FF920F931F93CF93DF938C018091C7
:104120008600909187006CE070E00E942731601754
:10413000710730F0C80169E070E00E94273160C06B
:104140008091860090918700E0908600F090870033
:10415000E0918600F0918700C6E0D0E0BE010E94A9
:10416000273120E030E0060F171F211D311D4801C7
:10417000590185E0880C991CAA1CBB1C8A95D1F7B3
:10418000C701BE010E9427316F01E12CF12CA7016C
:104190009601260F371F411D511DC501B4010E9414
:1041A0004F3169017A01E0918600F0918700CA01E0
:1041B000B9010E9409319B01AC01DF010E949C31D1
:1041C0009B01AC01C701B6010E940931DC01CB01A2
:1041D0002FE0B695A795979587952A95D1F70091E9
:1041E00086001091870020E030E0081719072A07A1
:1041F0003B0728F46091860070918700CB01BC01D9
:10420000CB01DF91CF911F910F91FF90EF90DF9045
:10421000CF90BF90AF909F908F900895CF93C82F6D
:10422000843050F4811109C080918000877F809391
:1042300080000E94802006C0C3E0809180008860DA
:1042400080938000A0918600B09187002C2F30E0F1
:104250000E94863123E030E040E050E00E944F3180
:10426000B42FA32F922F8827892F9A2FAB2FBB27EC
:104270000E94822090938D0080938C00CF910895AE
:104280000895109284021092830210928502EFE644
:10429000F0E08081816080830895EFE6F0E0808126
:1042A0008E7F80830E944D1F0C940E211F920F92CF
:1042B0000FB60F9211240F931F932F933F934F9399
:1042C0005F936F937F938F939F93AF93BF93CF939E
:1042D000EF93FF938091200191E0980F823019F0C5
:1042E0009093200155C081E0809320010E94771FA8
:1042F000C82F00918302109184020F5F1F4F0E940C
:10430000771F28E7829FB0011124C8010E9427313E
:10431000909384028093830228E7C29FB001112406
:10432000660F672F661F770B71950E9427316F7795
:1043300080918502823019F4603451F404C08130D8
:1043400039F46F3729F480916F008E7F80936F006E
:10435000E62FF0E0ED52FA4FC491009186001091E3
:1043600087000E944D1F282FC09FC001C19F900D44
:1043700011246DEF72E00E942731269FC001279F14
:10438000900D11240E94822090938D0080938C00C8
:10439000FF91EF91CF91BF91AF919F918F917F91BD
:1043A0006F915F914F913F912F911F910F910F90BE
:1043B0000FBE0F901F9018950E947D208AE0809379
:1043C000800089E1809381008FEF9FEF90938700B9
:1043D000809386000E947A1F0E94721F81110C94A4
:1043E00041210895239A25B1277F35B138604FB711
:1043F000F894FC01CB01880F991F680F791F6E0F8D
:104400007F1FE617F70789F0819198E035B9000022
:1044100000C087FF25B9880F000000C000C000C0A1
:1044200025B900C09A9591F7ECCF4FBF8FE594E086
:104430000197F1F700C00000089583E290E00E9428
:10444000D531823281F484E290E00E94D53184300B
:1044500051F485E290E00E94D53191E0873209F075
:1044600090E0892F01C080E081700895CF93C82F1C
:10447000811102C06FEF01C062E283E290E00E940E
:10448000E931C11102C06FEF01C064E084E290E045
:104490000E94E931C11102C06FEF01C067E285E2FD
:1044A00090E0CF910C94E931089586E290E00E946B
:1044B000D531682F70E080E090E008950895CF93A3
:1044C000C62F0E945E226C2F86E290E0CF910C9462
:1044D000E93180E00E94362260E070E0CB010E946A
:1044E0005F220E949A250E94772681E00C94362252
:1044F0000E9454220E9455220E945E220E941D2288
:10450000811102C00C9469220895CF93FB01C281EE
:10451000CC23E9F09C0122513F452031310520F4A4
:1045200082510E9487260CC08031FFE59F0751F41D
:1045300081E00E941C0B43E062E081E00E942805BC
:10454000C0E018C081319F45A9F482E0F2CF8031EC
:10455000EFE59E0711F481E004C081319F4549F4E5
:1045600082E00E94270B43E062E081E00E94280580
:1045700001C0C1E08C2FCF9108952FEFFC01208363
:104580000895CF93DF93EC018881893031F08A3030
:1045900079F40E94721F89830BC00E944D1F2FEF78
:1045A000829FC001112463E070E00E94273169837B
:1045B000DF91CF910895FC018081893019F08A3014
:1045C00069F00895818123E0829FC00111246FEF7B
:1045D00070E00E942731862F0C9437208181811151
:1045E00002C00C945F1F0C94531FCF93DF93EC0118
:1045F0008881813889F028F48038A1F40E9411194B
:1046000010C0823861F0833869F40E940B198983E5
:104610000E940E198A8306C00E94C01802C00E9420
:10462000F6188983DF91CF910895CF93DF93EC0142
:1046300088818138B1F058F4803851F5D9810E94D1
:104640000E19C82F0E940B194D2F6C2F1DC08238D8
:10465000B1F08338E9F40E941119482F6A818981E9
:1046600013C089810E94741D8981811104C0DF916A
:10467000CF910C94D41CDF91CF910C94AA1D898109
:10468000DF91CF910C940819DF91CF910C94BE1A51
:10469000DF91CF910895DF92EF92FF920F931F93D6
:1046A000CF93DF93EC01D62E8C010F5F1F4FE88173
:1046B0008E2F90E0FC013197E331F10508F0A4C0A2
:1046C000E759FF4F0C947131198289E060C08981EC
:1046D000823039F0833061F0813029F50E9425293C
:1046E00002C00E9455229A838B837C836D838EC087
:1046F0007E0110E0812F0E94DA13F70192838383F9
:104700001F5FF2E0EF0EF11C1630A1F77FC0898128
:10471000823049F46A817B818C819D810E9477314E
:104720000E945F2273C06D2DCE010E94BD226EC01B
:104730004B816A8189810E946C259C838D8366C030
:104740002C813D813227232732274B816A81898141
:104750000E9485255BC00E949A2558C0C8010E940E
:10476000DB22C8010E94152351C0C8010E94C1224A
:10477000C8010E94F5224AC00E94411F0E94A7184A
:1047800045C00E942C2624C00E942E2699838A832D
:104790003DC06B8170E089819A81AE014C5F5F4FB3
:1047A0009827892798270E94312630C06B8170E0B6
:1047B00089819A81AE014C5F5F4F9827892798279E
:1047C0000E94552623C00E94772620C00E945925AA
:1047D00089831CC06B8170E089819A81AE014C5F36
:1047E0005F4F9827892798270E94D9250FC06B8192
:1047F00070E089819A81AE014C5F5F4F98278927CD
:1048000098270E94FD2502C08FEF88836D2DCE0171
:10481000DF91CF911F910F91FF90EF90DF900C945B
:104820000B2ACF93DF93EC01FB018281882309F4EB
:104830003CC1C330FDE5DF0760F4CA3F9CE5D90702
:1048400088F49E0122503C452431310508F02EC1E8
:1048500009C0C136EDE5DE0729F0C53AFDE5DF0701
:1048600009F024C10E9432109093A00280939F020D
:10487000C1318CE5D80709F4C6C008F042C0C93080
:10488000ECE5DE0709F49BC000F5C5308CE5D807E0
:1048900009F485C078F4C330ECE5DE0709F478C08C
:1048A00008F07AC0C230DC4509F0F5C080919F0263
:1048B0008160EFC0C7309CE5D90709F478C008F0E3
:1048C0007AC080919F028061E4C0CD30FCE5DF07B3
:1048D00009F487C058F4CB309CE5D90709F479C0B6
:1048E00008F07BC080919F0288606FC0CF30FCE5EC
:1048F000DF0709F480C008F082C080919F02877FA3
:10490000C8C0CD3F9CE5D90709F471C000F5C53199
:10491000FCE5DF0709F485C068F4C3319CE5D907DD
:1049200009F475C008F095C00E94A60A80919F0204
:104930008F77AFC0CB3FFCE5DF07A9F108F054C08B
:10494000CA3FDC4509F0A7C08091A00240C0C13039
:10495000EDE5DE0709F489C058F4CF3F8CE5D807B0
:1049600009F45AC008F069C08091A00282602FC08B
:10497000C136EDE5DE0709F47CC0C53AFDE5DF0789
:1049800009F481C0C230DD4509F085C080E06EC009
:1049900080919F0282607DC080919F0216C08091AD
:1049A0009F02886076C08091A00282604FC0809193
:1049B0009F0280626EC080919F0280646AC00E94E4
:1049C000A60A80919F02806864C0846062C0816092
:1049D0003DC080919F028E7F5CC080919F028D7F41
:1049E00058C080919F0216C08091A00218C080918B
:1049F000A0028D7F2BC080919F028F7E4AC0809144
:104A00009F028F7D46C080919F028F7B42C0809124
:104A10009F02877F8B7F3DC08091A0028D7F8E7F1C
:104A200015C080919F0282FB222720F991E09227F6
:104A300090FB82F990FB83F92CC08091A002982F03
:104A4000909591708E7F892B90FB81F98093A002C5
:104A500022C00E94A60A80919F0287FB222720F98C
:104A600091E0922790FB87F914C081E00E94C11069
:104A700012C080919F0284FB222720F991E09227A7
:104A800090FB84F906C080919F02982F909590FB2F
:104A900080F980939F0280919F029091A0020E94D2
:104AA00043100E94A60A80E001C081E0DF91CF910F
:104AB000089584E0089550E0440F551F20E2629F5E
:104AC000400D511D11249A0160EC869F200D311D6F
:104AD0001124C901879608950F931F93CF93DF93F5
:104AE0000E945B258C010E94D531C82FD0E0DC2FBD
:104AF000CC27C80101960E94D5319E01282BC901FF
:104B0000DF91CF911F910F9108950F931F93CF9332
:104B1000DF93122F032F0E945B25EC01602F0E9470
:104B2000E931612FCE010196DF91CF911F910F9155
:104B30000C94E931AF92BF92CF92DF92EF92FF9245
:104B40000F931F93CF93DF93A12CE12CF12CB12C69
:104B500000E010E0C0E0D0E06701C00ED11EF60119
:104B6000EC0FFD1FEE0FFF1FE45FFE4F2591349108
:104B70004C2F6B2D8A2D0E9485252196C031D105A1
:104B800071F7005F1F4FB39486E0B812E3CF80E661
:104B9000E80EF11CA39484E0A812D9CFDF91CF9145
:104BA0001F910F91FF90EF90DF90CF90BF90AF904B
:104BB0000895EF92FF920F931F93CF93DF93EA0133
:104BC0007A01E60EF71E8C01C8018796CE15DF0527
:104BD00069F0011523E0120720F40E94D531888383
:104BE00001C0188221960F5F1F4FEECFDF91CF914A
:104BF0001F910F91FF90EF900895EF92FF920F9306
:104C00001F93CF93DF93EA017A01E60EF71E8C0122
:104C1000C8018796CE15DF0559F0011523E012076C
:104C200018F468810E94E93121960F5F1F4FF0CF81
:104C3000DF91CF911F910F91FF90EF900895462F34
:104C4000843038F4763028F4603118F4672F0C94EF
:104C50006C2580E090E0089580E1089589ED90E072
:104C60000895EF92FF920F931F93CF93DF93EA0182
:104C70007A01E60EF71E8C01C801895D9C4FCE15A6
:104C8000DF0561F0093D110520F40E94D5318883CC
:104C900001C0188221960F5F1F4FEECFDF91CF9199
:104CA0001F910F91FF90EF900895EF92FF920F9355
:104CB0001F93CF93DF93EA017A01E60EF71E8C0172
:104CC000C801895D9C4FCE15DF0551F0093D1105E6
:104CD00018F468810E94E93121960F5F1F4FF0CFD1
:104CE000DF91CF911F910F91FF90EF900895CF9397
:104CF000DF93C7E2D3E060E0CE010E94E931219664
:104D0000C11584E0D807B9F7DF91CF910895DF92FC
:104D1000EF92FF920F931F93CF93DF9300D000D0B9
:104D2000CDB7DEB7F82E8FE08F15E8F18FEF93E067
:104D30000E94D531811137C007E213E0FF2069F0EE
:104D4000011584E0180779F1C8010E94D53181115D
:104D500001C0FA940F5F1F4FF1CF19821A821B8294
:104D60001C82DD24D39478018FEFE81AF80AC80179
:104D70000E94D53189831A828823A9F09FEF980F6A
:104D8000933058F48A83D9820E5F1F4FC7010E9467
:104D9000D5318B83882339F07801CE0101960E94AA
:104DA0008C068701E0CF0F900F900F900F90DF914E
:104DB000CF911F910F91FF90EF90DF900895CF93C7
:104DC000DF9386319C4541F5EB010E94360F982F09
:104DD0008A812091020130910301882379F09A7A27
:104DE00081E009F480E080938602911102C069E2BB
:104DF00001C065E3C9010E9472280AC08091860241
:104E0000811102C069E201C065E3C9010E947428F2
:104E10000E94780F80E001C081E0DF91CF9108957A
:104E20000F931F93CF93DF93C42FD22FFC01828166
:104E30008823C9F0409389020E941929909388021F
:104E40008093870280E28C0F883008F057C0C770CB
:104E500081E001C0880FCA95EAF7DF91CF911F91D9
:104E60000F910C94340880918902481330C08091CE
:104E70008702909188020E943129883C910538F57B
:104E800010E21D0FCD17B9F080E28C0F883040F48E
:104E9000C77081E001C0880FCA95EAF70E943B08FD
:104EA000183028F581E09D2F977001C0880F9A95E2
:104EB000EAF70E943408802F0E942B081830F0F483
:104EC000D77081E001C0880FDA95EAF70AC080E266
:104ED0008C0F883098F4C77081E001C0880FCA95A4
:104EE000EAF7DF91CF911F910F910C943B08802F2F
:104EF000DF91CF911F910F910C942B08DF91CF91EF
:104F00001F910F9108950F939C01CB01233F4CE516
:104F1000340731F188F4283DFCE53F07D9F0293DFD
:104F20004CE5340779F1273D3C45A9F506E221EE31
:104F300041EE67ED7CE52BC0253FFCE53F07E1F046
:104F4000A8F0263F3C4539F507E225EE46EE66EF30
:104F50007CE51DC007E225EE45EE68ED7CE517C057
:104F600006E221EE40EE63EF7CE511C007E225EE9C
:104F700044EE64EF7CE50BC006E221EE42EE65EF05
:104F80007CE505C008E221E045EE69ED7CE50E9484
:104F9000102780E008C0FC018281882319F010925C
:104FA000890201C081E00F9108959093DB01809305
:104FB000DA01089590938F0280938E020895E09114
:104FC0008E02F0918F02309721F00190F081E02D58
:104FD000099480E00895E0918E02F0918F0230975D
:104FE00021F00280F381E02D09940895E0918E0272
:104FF000F0918F02309739F022E0DC012C9304808D
:10500000F581E02D0994089520918C0230918D0254
:105010002817390771F090938D0280938C02E091EC
:105020008E02F0918F02309721F00680F781E02DFB
:105030000994089520918A0230918B02281739072C
:1050400071F090938B0280938A02E0918E02F0912E
:105050008F02309721F00084F185E02D09940895A6
:10506000FC01329697E080E0915029F021912223B3
:10507000D9F38F5FF9CF0895662349F0FC0132968A
:1050800008962191621729F0E817F907D1F780E017
:10509000089581E008959C01FC0132969FEF80E025
:1050A0004191461789F09F3F19F4411101C0982F93
:1050B0008F5F8630A9F79F3F39F0F901E90FF11DA5
:1050C00097FDFA956283089508959C012A5F3F4FEA
:1050D000FC014281461301C0128201968217930798
:1050E000B9F708950C944B280C946528029626E095
:1050F000FC0111922A95E9F7089508950C947D28F2
:1051000083E0809390020C947E28811102C081E09C
:1051100001C082E0809390020C947E280C94852834
:1051200081E0809390020C947E280C94902808953E
:105130000C9497280C9498280C9497280C949728F2
:105140000C949728CF930E949E280E94B0140E942E
:105150009C28C0E08C2F0E94DA13892B29F4CF5FA2
:10516000C630C1F780E001C081E0CF910895089575
:105170001F920F920FB60F9211248F939F93AF93AC
:10518000BF9380919102811113C08091010390918E
:105190000203A0910303B09104034196A11DB11D28
:1051A0008093010390930203A0930303B09304033D
:1051B000BF91AF919F918F910F900FBE0F901F9055
:1051C000189580910903843031F10E94AC0510924A
:1051D000910220E488E190E00FB6F894A8958093BE
:1051E00060000FBE2093600083B7817F846083BF1F
:1051F00083B7816083BF7894889583B78E7F83BFA0
:105200000FB6F894A8958091600088618093600043
:10521000109260000FBE08950E94A60A0C94B50576
:1052200082E084BD93E095BD9AEF97BD80936E00B8
:1052300008952FB7F8948091010390910203A091F3
:105240000303B09104032FBF08952FB7F894609122
:1052500001037091020380910303909104032FBF17
:1052600008959C014FB7F894809101039091020337
:10527000A0910303B09104034FBF821B930B0895C9
:1052800078941F920F920FB60F9211248F939F93D1
:10529000AF93BF938091010390910203A091030308
:1052A000B09104030196A11DB11D80930103909359
:1052B0000203A0930303B0930403BF91AF919F91A6
:1052C0008F910F900FBE0F901F90189581E08093E3
:1052D000E00080E28093D8001092C9008FE19EE444
:1052E0000197F1F700C0000087E090EBDC018093AC
:1052F000120390931303A0931403B09315039CE03F
:1053000088E10FB6F894A895809360000FBE909343
:105310006000FFCF80919D020895089524E02093BE
:10532000E9002FEF3091E800215035FD06C035ED42
:105330003A95F1F700002111F5CF2091E80025FF03
:105340000BC040E050E066E070E00E94202C8091AD
:10535000E8008E778093E8000895CF93DF9321E0F3
:105360002093E9002FEF3091E800215035FD06C071
:1053700035ED3A95F1F700002111F5CF2091E800C5
:1053800025FF14C0EC0140E050E068E070E00E94AE
:10539000202C8091E8008E778093E80088E0FE0161
:1053A000A5E9B2E001900D928A95E1F7DF91CF91E6
:1053B0000895809392027093940260939302809177
:1053C00009038430F9F48093E9008FEF9091E800AD
:1053D000815095FD06C095ED9A95F1F70000811179
:1053E000F5CF8091E80085FF0DC040E050E063E01C
:1053F00070E082E992E00E94202C8091E8008E7794
:105400008093E8000895BC0184E00C94D929BC0184
:1054100083E00C94D929CF93603219F520910903C8
:105420002430F9F4C091E900CF703091EC00232FC3
:10543000217030FD20E8C22B22E02093E90020916A
:10544000E80020FF0BC040E050E060E270E00E9406
:10545000202C8091E8008E778093E800CF70C09375
:10546000E900CF91089580910803811109C00E943D
:10547000FC2D0E94592E8091E20084608093E2000E
:1054800008951092080308950C94952860910503DF
:1054900081E0611101C080E00C94802890910903A3
:1054A00081E0943009F080E0609105030C94852838
:1054B00042E061EC81E00E94752D42E261EC84E003
:1054C0000E94752D42E261EC82E00E94752D42E25D
:1054D00060EC83E00E94752D9091090381E0943087
:1054E00009F080E0609105030C948E2880910B03F5
:1054F000833009F463C030F4813071F0823009F4F4
:105500009CC008958A3009F488C08B3009F46EC0BD
:10551000893009F0AAC020C080910A03813A09F0BD
:10552000A4C08091E800877F8093E80080910E03FB
:1055300090910F03892B21F468E085E992E003C084
:1055400060E080E090E070E00E94B62C8091E8007E
:105550008B778093E800089580910A03813209F0E7
:1055600084C080910E0390910F03009719F0029769
:1055700009F07BC08091E800877F8093E8008091EC
:10558000E80082FD05C0809109038111F8CF6DC04C
:105590002091F3008091F20090E0922B029731F479
:1055A0008091F100813011F0863021F48091F1007A
:1055B00080939D028091E8008B7753C080910A030D
:1055C000813A09F052C080910E0390910F03892B0C
:1055D00009F04BC08091E800877F8093E8008091BC
:1055E000E80080FFFCCF80912D0136C080910A0336
:1055F0008132D9F580910E0390910F03892BA9F583
:105600008091E800877F8093E8000E94AA2D809116
:105610000C0380932D010C94A60A80910A03813219
:1056200021F58091E800877F8093E8000E94AA2DF1
:1056300080910D0380939E02089580910A03813A20
:10564000A1F48091E800877F8093E8008091E800D2
:1056500080FFFCCF80919E028093F1008091E80052
:105660008E778093E8000C94AA2D089584B7877FE5
:1056700084BF0FB6F894A8958091600088618093EC
:105680006000109260000FBE90E080E80FB6F894C2
:1056900080936100909361000FBE0C9490280E944B
:1056A000FC2D0E94592EE2EEF0E080818460808320
:1056B00078940C94EE3081E291E00C94DA2780919A
:1056C00009038530A9F480910903853079F40E949B
:1056D000E128809107038823B1F30E94A228882340
:1056E00091F30E940A2C0E94A60AEDCF0C940C297B
:1056F0000895CF93DF93CDB7DEB7A0970FB6F89498
:10570000DEBF0FBECDBF80910903843011F583E069
:105710008093E9008091E80082FF1BC08091E8003F
:1057200085FF0AC040E050E060E270E0CE010196E3
:105730000E946B2C91E001C090E08091E8008B7793
:105740008093E800992329F060E2CE0101960E943F
:105750004B23A0960FB6F894DEBF0FBECDBFDF91EE
:10576000CF9108950C94B42B292F33272330310582
:10577000C9F060F42130310581F02230310509F0A3
:1057800041C08BE590E02FE837E040C02132310581
:10579000E1F02232310531F135C082E190E02AEEAC
:1057A00037E034C099278130910549F028F00297FD
:1057B00049F5E3E5F7E005C0EBE8F7E002C0E9E60C
:1057C000F7E0849190E09F0121C063307105D0F42F
:1057D000660F771FFB01EC52FE4F2081318189E07B
:1057E00090E014C06330710568F4FB01EE0FFF1FF9
:1057F000E253FE4F20813181FB01E553FE4F808152
:1058000090E004C080E090E020E030E0FA013183D5
:105810002083089580E189BD82E189BD09B400FE3D
:10582000FDCF8091D8008F7D8093D8008091E000DB
:1058300082608093E0008091E00081FDFCCF0895BC
:10584000CF92DF92EF92FF920F931F93CF93DF934C
:10585000EC018B017A010E94C92D811133C0E11442
:10586000F10439F0F70180819181081B190BC80FF1
:10587000D91FC12CD12C0115110519F18091E80017
:1058800085FD16C08091E8008E778093E800E114D2
:10589000F10449F0F70180819181C80ED91ED182AF
:1058A000C08285E00FC00E94C92D882321F30AC061
:1058B00089918093F10001501109FFEFCF1ADF0A9F
:1058C000DACF80E0DF91CF911F910F91FF90EF90A1
:1058D000DF90CF900895CF92DF92EF92FF920F93D7
:1058E0001F93CF93DF93EC018B017A010E94C92DA6
:1058F000811133C0E114F10439F0F7018081918105
:10590000081B190BC80FD91FC12CD12C011511056B
:1059100019F18091E80085FD16C08091E8008B7731
:105920008093E800E114F10449F0F701808191814E
:10593000C80ED91ED182C08285E00FC00E94C92D39
:10594000882321F30AC08091F10089930150110945
:10595000FFEFCF1ADF0ADACF80E0DF91CF911F91FE
:105960000F91FF90EF90DF90CF900895209110035A
:10597000309111032617370748F06115710539F486
:105980002091E8002E772093E80001C0B901FC01C6
:1059900020E06115710579F1809109038823F1F107
:1059A0008530F1F18091E80083FD3CC08091E800F2
:1059B00082FD2EC08091E80080FFEBCF2091F300A4
:1059C0008091F20090E0922B6115710551F08830C2
:1059D000910538F421912093F100615071090196ED
:1059E000F3CF21E0089709F020E08091E8008E775E
:1059F0008093E800CECF2111CFCF0AC08091090358
:105A0000882361F0853061F08091E80083FD0AC051
:105A10008091E80082FFF2CF80E0089582E008954F
:105A200083E0089581E008952091100330911103DF
:105A30002617370748F06115710539F42091E80001
:105A40002E772093E80001C0B901FC0120E0611528
:105A5000710591F180910903882309F440C08530D4
:105A600009F43FC08091E80083FD3DC08091E800CB
:105A700082FD2FC08091E80080FFE9CF2091F300E4
:105A80008091F20090E0922B6115710559F08830F9
:105A9000910540F424912093F100319661507109F1
:105AA0000196F2CF21E0089709F020E08091E8000C
:105AB0008E778093E800CBCF2111CCCF0AC08091A4
:105AC0000903882361F0853061F08091E80083FD4F
:105AD0000AC08091E80082FFF2CF80E0089582E062
