:100000000C948F030C94C7030C94C7030C94C70380
:100010000C94C7030C94C7030C94C7030C94C70338
:100020000C94C7030C94C7030C947F280C9451299B
:100030000C94C0220C94C7030C94C7030C94C70300
:100040000C94C7030C94C7030C94C7030C94C70308
:100050000C94C7030C9448230C94C7030C94C70357
:100060000C94C7030C94C7030C94C7030C94C703E8
:100070000C94C7030C94C7030C94C7030C94C703D8
:100080000C94C7030C94C7030C94C7030C94C703C8
:100090000C94C7030C94C7030C94C7030C94C703B8
:1000A0000C94C7030C94C7030C94C7038207820700
:1000B000AE07AE07160834081B091B093F08A7083E
:1000C000B808B808751D781D981DA91DB11DBC1D67
:1000D000BF1DC21DC51D0B1E0B1EC81DCB1DD01D77
:1000E000DD1DEA1DED1DF11DFE1DBE29E529DD2AE0
:1000F000E529DD2A312A542ADD2AAB2ABA2A290029
:100100001E001F00200021002200230024002500E3
:10011000260027002D002E0000004A004B002B0077
:1001200014001A000800150017001C0018000C002D
:10013000120013002F0030002A004D004E0039003D
:1001400004001600070009000A000B000D000E0055
:100150000F00330034002800310000000000E100EF
:100160001D001B00060019000500110010003600DC
:1001700037003800E5000151000052000000E000A7
:10018000E300E20000002C00000000000000E60098
:10019000E700E40000000000500051004F000100A3
:1001A0003A003B003C003D003E003F004000410063
:1001B00042004300440045000000C25CC35C0100F3
:1001C000010001000100005C0100010001000100CC
:1001D00001000100010001000100010001003900DF
:1001E0000100010001000100010001000100010007
:1001F00001000100010001000100000000000100F9
:1002000001000100010001000100010001000100E6
:1002100001000100010001000000010000000100D8
:1002200001000100000001000000000000000100CA
:1002300001000100000000000100010001000100B8
:1002400001000100010001000100010001000100A6
:100250000100010001000100000001000100010097
:100260000100010001000100010001000100010086
:100270000100010001000100010001000100010076
:100280000100010001000100010001000100010066
:100290000100010001000100010000000000010058
:1002A0000100010001000100010001000100010046
:1002B0000100010001000100000001000000010038
:1002C000010001000000010000000000000001002A
:1002D0000100010000000000010001000100000019
:1002E0000000000000002A2B280000000000000091
:1002F00000000000000000000029000000002C1E8B
:100300003420212224342627252E362D3738271E47
:100310001F202122232425263333362E37381F046D
:1003200005060708090A0B0C0D0E0F101112131405
:1003300015161718191A1B1C1D2F3130232D3504C3
:1003400005060708090A0B0C0D0E0F1011121314E5
:1003500015161718191A1B1C1D2F3130354C0000AB
:10036000000000000000000000000000000000008D
:10037000000000000000000000000000000000007D
:1003800000007E0F00D4FFFFFFC7000000780004CC
:10039000643214783C1E1E140A05222325262829BF
:1003A0002A2C2D2F3032333536383A3B3D3E4042F1
:1003B000434547494A4C4E5051535557595A5C5E34
:1003C0006062646668696B6D6F71737577797B7D48
:1003D0007F81838587898A8C8E90929496989A9C47
:1003E0009E9FA1A3A5A7A8AAACAEAFB1B3B4B6B85F
:1003F000B9BBBCBEBFC1C2C3C5C6C7C9CACBCCCDC1
:10040000CED0D1D2D2D3D4D5D6D7D7D8D9D9DADA9B
:10041000DBDBDBDCDCDCDCDCDDDDDDDDDCDCDCDC1B
:10042000DCDBDBDBDADAD9D9D8D7D7D6D5D4D3D24F
:10043000D2D1D0CECDCCCBCAC9C7C6C5C3C2C1BF2D
:10044000BEBCBBB9B8B6B4B3B1AFAEACAAA8A7A591
:10045000A3A19F9E9C9A98969492908E8C8A89874D
:100460008583817F7D7B79777573716F6D6B69682B
:10047000666462605E5C5A5957555351504E4C4AFF
:100480004947454342403E3D3B3A383635333230AA
:100490002F2D2C2A292826252322000101010101C4
:1004A000010101010202020202020202020303032D
:1004B00003030303030404040404040405050505FD
:1004C00005060606060607070707070808080809BD
:1004D0000909090A0A0A0B0B0B0C0C0C0D0D0D0E69
:1004E0000E0E0F0F0F1010111111121213131414FE
:1004F000151516161717181819191A1A1B1B1C1D73
:100500001D1E1E1F202021222223242425262627CB
:100510002829292A2B2C2D2D2E2F303132323334FD
:1005200035363738393A3B3C3D3E3F404142434403
:1005300045464748494A4C4D4E4F505153545556E5
:1005400058595A5B5D5E5F616264656668696B6C91
:100550006D6F7072737577787A7B7D7E808283850C
:1005600087888A8C8E8F91939596989A9C9EA0A24C
:10057000A3A5A7A9ABADAFB1B3B5B7BABCBEC0C256
:10058000C4C6C9CBCDCFD1D4D6D8DBDDDFE2E4E71A
:10059000E9EBEEF0F3F5F8FAFDFF0A0373006D00E6
:1005A0003600380000002803680069006E0065000E
:1005B0007900620075007300680020006B00650020
:1005C000790062006F006100720064007300000037
:1005D0000403090409025B00030100A0FA090400F6
:1005E000000103010100092111010001224000075F
:1005F000058103080001090401000203000000094D
:1006000021110100012222000705820320000107B9
:100610000503032000010904020001030000000992
:100620002111010001227B00070584032000011233
:1006300001000200000008D8049FEC010001020044
:10064000010660FF0961A1010962150026FF0095FE
:1006500020750881020963150026FF0095207508A2
:100660009102C005010902A10185020901A100054D
:100670000919012908150025019508750181020550
:1006800001093009311581257F9502750881060918
:10069000381581257F950175088106050C0A3802F9
:1006A0001581257F950175088106C0C00501098067
:1006B000A101850319012AB700150126B70095018C
:1006C00075108100C0050C0901A101850419012ADA
:1006D000A002150126A002950175108100C0050138
:1006E0000906A101050719E029E71500250195086C
:1006F000750181029501750881010507190029FF1F
:10070000150026FF009506750881000508190129C6
:1007100005950575019102950175039101C011249C
:100720001FBECFEFDAE0DEBFCDBF04B603FE18C0B8
:100730008091CA029091CB02A091CC02B091CD02DF
:100740008730904BA740B04B59F41092CA021092D8
:10075000CB021092CC021092CD02E0E0F8E30995B2
:1007600011E0A0E0B1E0E4E5F7E502C005900D92EC
:10077000A63BB107D9F722E0A6EBB1E001C01D927C
:10078000AA3CB207E1F70E9448140C94A82B0C94E1
:10079000000081E0089581E008950C94CB03089552
:1007A0000C94CF031F93CF93DF9300D000D01F9200
:1007B000CDB7DEB749835A836B833091B901898104
:1007C0009A81311114C0662359F0222349F00E9406
:1007D000AA0A182F682F89819A810E94530A03C0A0
:1007E0000E947E0A182F69817A81812F04C00E949D
:1007F000AA0A69817A810F900F900F900F900F9045
:10080000DF91CF911F910C942520FC01262F408170
:1008100051816281738184810C94D20381E00895B7
:10082000CF93DF93EC0160E00E940504BE01DF91ED
:10083000CF910C94D003E1E0F0E0DF0102C0AA0FF9
:10084000BB1F6A95E2F7BD01DF0102C0AA0FBB1F03
:100850004A95E2F7AD01462B01C0EE0F2A95EAF763
:10086000942F9823491302C08E2B0895E0958E2370
:100870000895242F462F682F8091D8010E941B04D1
:100880000C94100A0C94F9120C94F51208950E941D
:10089000AB090E9446042FEF84E39CE02150804086
:1008A0009040E1F700C000000C946E230F931F935B
:1008B000CF93DF938C0161E00E940504EC01B80145
:1008C0000E94CD1C882309F44BC0B801CE010E94C0
:1008D000CD03882309F444C0B801CE010E948B21C6
:1008E0008823F1F1B801CE010E94171E8823C1F1BF
:1008F000B801CE010E94E720882391F1B801CE0112
:100900000E948D1B882361F1F8018281882309F1FF
:10091000CA358DE5D807C1F050F4C115FCE5DF07F5
:1009200081F0CE3DDC45A9F40E94CB0F19C0CB3538
:10093000EDE5DE0761F0CC35DD4559F40E940F0F7F
:1009400008C00E9447040CC00E94180F02C00E94F9
:100950001B0FC801DF91CF911F910F910C94C90318
:1009600080E0DF91CF911F910F9108950E94A22204
:100970000E94A5050C94281A0E94A8050E94F41A4A
:100980000C94A822DF92EF92FF920F931F93CF93C4
:10099000DF93E82FF0E0E252FD4FD490282F269508
:1009A0002695269530E0F901E258FC4F04918770B6
:1009B00010E0082E02C0159507950A94E2F7017021
:1009C0001127F901E259FC4FE490F12C082E02C0E6
:1009D000F594E7940A94E2F791E0E922FF24F90103
:1009E000E25AFC4FC491D0E002C0D595C7958A95D4
:1009F000E2F7C170DD270115110519F081EE0E94A3
:100A00000706E114F10419F086EE0E9407068D2D09
:100A10000E943007EF2819F086EE0E94B106012BE4
:100A200019F081EE0E94B106CD2B51F08CE2DF91DE
:100A3000CF911F910F91FF90EF90DF900C943007B2
:100A4000DF91CF911F910F91FF90EF90DF9008956C
:100A5000EF92FF920F931F93CF93DF93EC01162F2A
:100A60000AE08881882309F455C0813009F043C029
:100A70008981813041F47E0182E0E80EF11C8A8197
:100A80000E94300709C0823049F47E01E2E0EE0E98
:100A9000F11C8A810E940706E7012FC0833041F4D0
:100AA0007E01F2E0EF0EF11C8A810E94B106F4CFC4
:100AB000843011F0219621C02A81229680E090E0B6
:100AC00030E0205331092A30310558F4089FA00145
:100AD000099F500D1124C901840F951F219628816B
:100AE000EFCF009751F0EFE9FFE03197F1F700C049
:100AF00000000197F6CF0E94C2042196812F88231F
:100B000009F4AFCFEFE9FFE03197F1F700C0000043
:100B10008150F5CFDF91CF911F910F91FF90EF9012
:100B2000089560E00C94280508950C94940581E0E4
:100B300008950C9497050895CF93C82F0E949505AA
:100B40008C2F0E949905CF91089580E00C949C050C
:100B50000E94E7210C949C050E94E7219091B80126
:100B6000891721F08093B8010C949C050895CF93C8
:100B7000DF93CDB7DEB72B970FB6F894DEBF0FBE6D
:100B8000CDBF4F83588769877A878B8761110E9411
:100B90005B0E9E012F5F3F4F86E0F90111928A950F
:100BA000E9F785E0FE013796D90101900D928A950B
:100BB000E1F789819A814C815D81452B31F09F3F1E
:100BC00031F491E08F3F19F403C091E001C090E04F
:100BD00090FF09C049815A816B817C818D819E8102
:100BE0000E947C0D05C0C9010E940E048111F2CF44
:100BF0002B960FB6F894DEBF0FBECDBFDF91CF911D
:100C00000895FC01808191810E94D70A0895CF93B5
:100C1000882309F4A4C0C82F8238C1F40E94E721B8
:100C200081FD9DC069E380910201909103010E94C2
:100C30007A220E947D0E2FEF81EE94E021508040B9
:100C40009040E1F700C0000069E319C0833801F566
:100C50000E94E72180FD83C063E5809102019091AD
:100C600003010E947A220E947D0E2FEF81EE94E014
:100C7000215080409040E1F700C0000063E5809182
:100C80000201909103010E947C22CF910C947D0E71
:100C90008438C1F40E94E72182FD61C067E480913D
:100CA0000201909103010E947A220E947D0E2FEF93
:100CB00081EE94E0215080409040E1F700C00000B8
:100CC00067E4DDCF8CEF8C0F813AD0F46C2F8091EC
:100CD0000201909103010E944422882349F06C2F65
:100CE00080910201909103010E947C220E947D0E5E
:100CF0006C2F80910201909103010E947A22C5CF4E
:100D000080E28C0F883048F4C77081E001C0880F02
:100D1000CA95EAF70E943E0EB8CFEBE5EC0FE33040
:100D200040F4F0E0E35BFE4F808190E0CF910C94C3
:100D30000C22E8E5EC0FE73150F4F0E0EE0FFF1F76
:100D4000E15EFE4F80819181CF910C942222C03FC1
:100D500030F08C2F0E94CD14CF910C949F15CF9121
:100D60000895882309F464C0823879F40E94E72149
:100D700081FF5EC069E380910201909103010E94AE
:100D80007A220E947D0E69E310C08338B1F40E947C
:100D9000E72180FF4DC063E580910201909103013E
:100DA0000E947A220E947D0E63E58091020190915B
:100DB00003010E947C220C947D0E843879F40E94F9
:100DC000E72182FF35C067E4809102019091030121
:100DD0000E947A220E947D0E67E4E7CF9CEF980F75
:100DE000913A10F4682FE1CF90E2980F983050F4C8
:100DF000877091E001C0990F8A95EAF7892F0E94C8
:100E0000440ED9CF9BE5980F933020F480E090E01A
:100E10000C940C2298E5980F973120F480E090E034
:100E20000C942222803F20F00E9428150C949F15DC
:100E300008951F93CF93DF93182FEB010E940706AD
:100E4000209741F08FE99FE00197F1F700C0000083
:100E50002197F6CF812FDF91CF911F910C94B1068E
:100E6000893319F060E070E002C060E570E00C9436
:100E70001907882321F00E943E0E0C947D0E0895E0
:100E8000882321F00E94440E0C947D0E0895CF9289
:100E9000DF92EF92FF920F931F93CF93DF937C012A
:100EA000162FC72FFC01D281058102950F700E9479
:100EB000340E8823B9F0DD23A9F08C2F807F803495
:100EC00021F080E2810F883068F080916F0282FD0E
:100ED00009C082E00E94DD0E0E94340E91E0D82EFF
:100EE000D92601C0D12CCC2EC2948FE0C8228C2DE3
:100EF00090E08C30910508F09EC1FC01EA5AFF4F4A
:100F00000C94392B8C2F807FCF70882311F0C295E1
:100F1000C07FDD2399F0CC2309F479C180E2810FF1
:100F2000883010F0111104C08C2F0E943E0E03C0B7
:100F30008C2F0E944E0E0E947D0E69C1812F0E944F
:100F4000B106CC2309F477C180E2810F883038F1F3
:100F5000112329F18C2F0E94540E24C08C2F807FE6
:100F6000CF70803211F0C295C07F112319F011307B
:100F7000A1F13DC080916F0282FF17C0DD2349F0CF
:100F8000CC2329F08C2F0E943E0E0E947D0E80E023
:100F90003FC180E00E94B106CC2309F44CC18C2FE4
:100FA0000E94440E0E947D0E46C1DD2371F0002395
:100FB00041F0013031F40E945E0E8C2B0E94660ECF
:100FC0003AC10E945E0E8C2B1DC0002319F0013027
:100FD00009F431C10E94730E25C0DD2321F00630D3
:100FE00008F029C10EC0053008F025C11BC0DD2363
:100FF00061F0002331F0F701858180FF08C18F7017
:1010000085838C2F0E94390716C1002359F01933AC
:1010100009F00EC1FFEF27EE83E0F1502040804041
:10102000E1F704C18C2F0E94400705C18C2F8695E3
:101030008695837019F0813061F0FDC0DD2321F0C9
:10104000812F9C2F937002C080E090E00E940C22C0
:10105000FAC0DD2321F0812F9C2F937002C080E025
:1010600090E00E942222EFC0812FDD2319F00E9420
:10107000CD1402C00E9428150E949F15E4C08C2F39
:10108000837079F5D111DBC0412F429546954770A9
:10109000440F440F212F2F70042E01C0220F0A94F9
:1010A000EAF714FF08C08FE090E001C0880F4A956E
:1010B000EAF7809501C080E0C695C695C370822B83
:1010C000C23049F058F4C13019F00E94040AB7C088
:1010D0000E94FF09B4C00E94090AB1C00E94FD0924
:1010E000AEC0DD2319F08C2F817001C08695882356
:1010F00009F4A5C0412F429546954770440F440F0F
:10110000212F2F70042E01C0220F0A94EAF714FF3A
:1011100008C08FE090E001C0880F4A95EAF78095FB
:1011200001C080E0C695C695C370822BC23049F0DD
:1011300058F4C13019F00E94480A81C00E94430A45
:101140007EC00E944D0A7BC00E94100A78C0CF70FA
:10115000DD2339F08C2F0E94210A812F0E9439074C
:101160006EC0812F0E9440078C2F0E942C0A67C0FE
:10117000123F21F128F4103F41F0113FC1F043C06C
:10118000133F19F1143F79F03EC0DD2341F00530E3
:1011900008F051C08C2F8F710E94380A4CC0063065
:1011A00008F049C0F7CF80916F0282FF18C0DD239D
:1011B00039F08C2F8F710E94210A3DC0DD23C9F3C5
:1011C0008C2F8F710E942C0A36C0DD2329F08C2FC2
:1011D0008F710E94190A2FC00E94160A2CC0DD23AD
:1011E00049F0CF718C2F0E94210A63E08C2F0E945E
:1011F000C20E21C081E00E94DD0E0230E0F082E0EC
:101200000E94DD0E18C0DD2331F0002391F2812F02
:101210000E94070610C0002399F2193349F49FEF8A
:10122000E7EEF3E09150E040F040E1F700C000004D
:10123000812F0E94B10688EF8C0D843020F40E942B
:10124000E7210E949C05DD20C9F00E94300E80FD40
:1012500015C0F70112820E942A0E0E94210AC701BE
:101260000E945F090E942A0EDF91CF911F910F917A
:10127000FF90EF90DF90CF900C942C0ADF91CF91EC
:101280001F910F91FF90EF90DF90CF9008950F93F3
:101290001F93CF93DF93EC01688179818A810E944B
:1012A000E20A8C010E94520A0E94F109B801CE01A3
:1012B0000E944707DF91CF911F910F910895CF931F
:1012C000DF93EC01988189812B813C81232B31F0C4
:1012D0008F3F31F481E09F3F19F403C081E001C0EA
:1012E00080E080FD1DC0CE010E945604811110C017
:1012F0000E94340E8823A1F08A81882389F080918E
:101300006F0282FD0DC082E0DF91CF910C94DD0E63
:10131000CE010E944709CE01DF91CF910C941004B9
:10132000DF91CF91089580E090E00E940C2280E050
:1013300090E00E9422220E945B0E0E947D0E0E947D
:10134000D0160C949F1580910201909103010E9488
:101350007E220C9493090E944B0E0C94A309929543
:101360009F70963079F010F4925001C09A509230EC
:1013700068F4803F69F018F4883E40F409C0843F67
:1013800029F406C0883E20F0813F11F080E00895E6
:1013900081E00895FC01808191810E94D70A0E941A
:1013A000AF090895CF93DF9300D000D01F92CDB73F
:1013B000DEB70F900F900F900F900F90DF91CF91AD
:1013C0000895CF93DF9300D000D000D0CDB7DEB723
:1013D00026960FB6F894DEBF0FBECDBFDF91CF913A
:1013E0000895089508950C94F2090C94F3090E944D
:1013F000F5098093D9010C9493090C94F709909105
:10140000D901892B0C94F7099091D90189230C9467
:10141000F7099091D90189270C94F7090C94F209E6
:101420000E940E0A8093D8010C94930980E00C94DA
:10143000100A91E001C0990F8A95EAF7892F0C9460
:10144000100A21E030E001C0220F8A95EAF780916E
:10145000D801822B0C94100A21E030E001C0220F49
:101460008A95EAF720958091D80182230C94100A7E
:1014700021E030E001C0220F8A95EAF78091D8017F
:1014800082270C94100A9091D801892B0C94100A91
:101490009091D80189230C94100A9091D801892742
:1014A0000C94100A089520E1929F800D1124E82FDA
:1014B000E695E695E695877051E001C0550F8A954F
:1014C000EAF783E0E89FF0011124E654FE4F20E0A4
:1014D00030E070E04081CB01022E02C096958795E6
:1014E0000A94E2F78170819584278523842781936C
:1014F0002F5F3F4F2330310569F7089520E1929F18
:10150000800D1124682F669566956695982F9770C3
:1015100083E0689FB001112440E050E080E0FB01CF
:10152000E40FF51FE654FE4F208130E0092E02C083
:10153000369527950A94E2F721703327042E01C0CF
:10154000220F0A94EAF7822B4F5F5F4F4330510519
:1015500031F70895CF92DF92FF920F931F93CF93AD
:10156000DF936C010091D8018091D901082BC7E06D
:10157000D0E010E0C8010C2E02C0959587950A9422
:10158000E2F780FD04C02197A8F7F12C07C0FC2EDC
:10159000B6018C2F0E94D0110197A9F38F2DDF91F6
:1015A000CF911F910F91FF90DF90CF900895CF932F
:1015B000DF93EC010E94AA0ABE010E94D011DF91C4
:1015C000CF9108951F93CF93DF93EB019091B901D1
:1015D000992321F0CB010E94D70A13C0882349F038
:1015E000CB010E94AA0A182F682FCE010E94530A2D
:1015F00004C0CB010E947E0A182FBE01812F0E94D9
:10160000D011DF91CF911F9108951F93CF93DF9356
:10161000C091DA0116E08091DB01C81799F0D0E0A3
:101620001C9FF0011D9FF00D1124E452FE4F4081DC
:10163000518162817381848195810E94E1092196A3
:10164000C770E9CFDF91CF911F91089540910C02AF
:1016500050910D0260910E0270910F028091100264
:10166000909111020C94E109EF92FF920F931F9356
:10167000CF93DF938091110282958F7009F065C03E
:1016800080910E02882309F460C08091DA01F09005
:10169000DB0110910C0200910D0260910F0270911C
:1016A000100291E01F3F09F090E0C0910001D0913D
:1016B0000101292F96E0E92E8F1509F446C0611526
:1016C000710521F00F3F21F030E003C031E001C08F
:1016D000322F90E030FD36C0E89EF001E99EF00D1B
:1016E0001124DF01A452BE4F11963C911197301383
:1016F00029C03C91311326C012963C9112973111AA
:1017000021C013964D915C911497461B570B4C17B3
:101710005D07C0F4809111028F7080618093110287
:10172000EF51FE4F80818F70806180838CE092E06A
:101730000E945F09DF91CF911F910F91FF90EF9071
:101740000C94050B01968770B7CFDF91CF911F9155
:101750000F91FF90EF9008959F92AF92BF92CF921A
:10176000DF92EF92FF920F931F93CF93DF93CDB74A
:10177000DEB761970FB6F894DEBF0FBECDBF8C0108
:1017800085E0F801DE011D9601900D928A95E1F742
:10179000D8011296EC9090910C02E0910D022091EC
:1017A0000F02309110022115310531F0EF3F31F475
:1017B00081E09F3F19F403C081E001C080E0B82FB1
:1017C000B1709B2E80FD47C1D8014C9111965C9160
:1017D00011971396AD90BC9014978CE0C82E82E0C0
:1017E000D82EF0900E02B501621B730B2091000100
:1017F00030910101FF2009F4D9C0809111026217D4
:10180000730708F095C0282F207F09F052C05E139F
:1018100013C0491311C0FE2CE1100EC08F708061FF
:10182000809311020E94260BC6010E945F098091DD
:101830001102F80185834DC1AB2831F05F3F31F4CF
:1018400081E04F3F19F403C081E001C080E080FDDA
:1018500003C081E08E2502C080E090E0F82FF17097
:10186000FF2E80FF1CC08091DA012091DB0136E061
:10187000821709F40BC190E0389FF001399FF00DF9
:101880001124E452FE4F6181561306C06081461355
:1018900003C06281E61203C001968770E9CFFE2C77
:1018A000EE2009F416C1809111028160809311022B
:1018B00054C05E1306C0491304C0E11002C0F80111
:1018C00099C0C8010E94CA09882361F1EE2051F134
:1018D00020911102822F82958F7090E0029774F010
:1018E00080910C0290910D0298878F831986BB8698
:1018F000AA862C87CE0107960E945F0986E0F80130
:10190000ACE0B2E001900D928A95E1F70E94340BB1
:101910000E94260B0AC05E1711F1C8010E94CA0975
:1019200081112CC0C8010E945F09FF24F394D1C02B
:10193000282F207F81F77A2DB98AA88A6E2D898970
:101940000E94D2098CE092E00E945F0986E0D601F5
:101950001D928A95E9F70E94260BF12CBAC0491313
:10196000DCCFE110DACFF8018583C8010E945F095E
:1019700086E0D6011D928A95E9F7ABC0EE2091F280
:1019800020911102822F82958F7090E002970CF4C3
:10199000B5CF80910C0290910D029A8389831B82AE
:1019A000BD82AC822E83CE010196A6CF621773074B
:1019B00008F044C0FE2CEE2009F4B4CF5E1330C012
:1019C00049132EC02091110220FD21C0822F829543
:1019D0008F70482F50E041155105C9F0F80125835B
:1019E0004F30510541F08F5F982F9295907F822F55
:1019F0008F70892B8583C8010E945F0986E0F801FA
:101A0000ACE0B2E001900D928A95E1F73CC086E02F
:101A1000F801ACE0B2E001900D928A95E1F759C06F
:101A2000C8010E94CA09811169CF809111028160A9
:101A300080931102C8010E945F094BC07A2DB98AB8
:101A4000A88A6E2D89890E94D20986E0D6011D924E
:101A50008A95E9F718C0EE2009F464CFC8010E9406
:101A6000CA09F82E882309F45DCF86E0F801ACE0BE
:101A7000B2E001900D928A95E1F78CE092E00E942D
:101A800001060E94340B0E94260B23C04D875E87FF
:101A90008D859E850E94D70A292F22952F7022308E
:101AA00028F49F7039F0811105C00BC0243028F450
:101AB0009F7049F4805E883020F0C8010E945F0961
:101AC0009F2CF92C06C0D80115969C91907F91F718
:101AD000F8CF8F2D61960FB6F894DEBF0FBECDBF45
:101AE000DF91CF911F910F91FF90EF90DF90CF90FA
:101AF000BF90AF909F9008951F93CF93DF93CDB782
:101B0000DEB72C970FB6F894DEBF0FBECDBF4F8364
:101B1000588769877A878B879C87CE0107960E94B2
:101B2000AC0B8823D1F09F8188852A853B85232BA8
:101B300031F08F3F31F481E09F3F19F403C081E021
:101B400001C080E080FD47C04F81588569857A8556
:101B50008B859C850E94E1093EC086E0FE01379698
:101B6000DE01119601900D928A95E1F7FF81E885DB
:101B70006A857B856115710531F0EF3F31F481E0B5
:101B8000FF3F19F403C081E001C080E080FD23C065
:101B90002091DB0130E0C9010196877099274091BF
:101BA000DA0150E084179507F1F1F983EA837D8328
:101BB0006C8396E0929FD001939FB00D1124A452A4
:101BC000BE4FFE01319601900D929A95E1F78093F8
:101BD000DB010E94050B16E08091DA019091DB0198
:101BE000891771F1189FC001112484529E4F0E94E1
:101BF000AC0B882329F1E091DA011E9FF00111243A
:101C0000E452FE4F408151816281738184819581CC
:101C10000E94E1098091DA0190E00196877099278E
:101C20008093DA01D9CF0E94AB091092DB011092A8
:101C3000DA01ECE0F2E086E0DF011D928A95E9F737
:101C40002C960FB6F894DEBF0FBECDBFDF91CF91BB
:101C50001F91089580911A0285958595859508951F
:101C600080911A028770089590911A02977081E00E
:101C700009F480E00895809125020895909125024D
:101C8000892B8093250208958095909125028923C0
:101C900080932502089510922502089590912402C0
:101CA000892B8093240208958095909124028923A2
:101CB00080932402089510922402089580911B02BB
:101CC000089508950C94610E0C94620E90916F0229
:101CD00092FD08C090911B02981721F080931B027F
:101CE0000C94640E089580911B02882329F01092B1
:101CF0001B0280E00C94640E0895CF93DF93E09173
:101D00000201F0910301809125028083E09102019C
:101D1000F0910301908180912402892B808380912E
:101D20001B02882381F0E0910201F0910301908170
:101D3000892B808380910201909103010E943822B7
:101D400081110E94730EC0910201D091030148E0FD
:101D500050E062E172E0CE010E94532B892B69F0C2
:101D600088E0FE01A2E1B2E001900D928A95E1F7D0
:101D7000CE01DF91CF910C94F321DF91CF910895A3
:101D80000C94610E90916F0292FD10C098E0899FB3
:101D900090011124262B20931A020E94210A80917F
:101DA0001A028595859585950C94C00E0C94210A90
:101DB00010921A0280E00C94C00E20911A028095B5
:101DC000822380931A02982F977099F430E0482F5D
:101DD000082E000C550B2417350759F090916F020F
:101DE00092FD07C08595859585950E942C0A0C94D7
:101DF000D80E089590916F0292FB222720F92817A0
:101E000069F080FB92F990936F0280916E0290913D
:101E10006F020E94480F82E00C94DD0E08958091BD
:101E20006F0282FB882780F991E089270C94FA0ED3
:101E300081E00C94FA0E80E00C94FA0E6FEF7FEFC5
:101E400080E090E00C94922B80E090E00E946E2B5A
:101E5000893E9E4F11F40C94651C80E0089582E049
:101E600090E00C94602B83E090E00C94602BCF9377
:101E700084E090E00E94602BC82F82E290E00E94F4
:101E8000602B2C2F30E0A901582BCA01CF91089567
:101E9000CF93C92F682F84E090E00E94742B6C2FA1
:101EA00082E290E0CF910C94742BAB01BC018FE0E7
:101EB00090E00C94862BAB01BC0183E190E00C9484
:101EC000862B60E070E0CB010C945B0F60E070E06B
:101ED000CB010E94550F0C94610F69EE7EEF80E0FC
:101EE00090E00E94922B60E082E090E00E94742BD0
:101EF00060E083E090E00E94742B1092D90160E0D2
:101F000084E090E00E94742B60E082E290E00E9406
:101F1000742B60E085E090E00E94742B60E086E026
:101F200090E00E94742B6FEF87E090E00E94742B8A
:101F300040E050E0BA0188E090E00E94862B60E02B
:101F40008DE090E00E94742B40E050E0BA0188E1FF
:101F500090E00E94862B60E087E190E00E94742B65
:101F600040E050E0BA018CE190E00E94862B60E0F6
:101F700070E080E290E00E94922B40E050E0BA01D5
:101F800088E190E00E94862B80E00E947E1C0E94E7
:101F9000B11C0C94660F0C946D0F682F8EE090E0CE
:101FA0000C94742B0E942D2360933402709335029D
:101FB000809336029093370260933002709331021F
:101FC0008093320290933302089585B7806885BF6D
:101FD00085B7806885BF089581E008950C94EC0F63
:101FE00008950C94F00F0C94F00F0C94F30F0C94D4
:101FF000F00F0C94F70F0C94F00F0E94E50F8CEA91
:1020000092E10E94DD210E94FB0F0C94F90F0E94C7
:10201000F10F0C94F00F0E94C6120C949B050E94C5
:1020200018230E94C01C0E94A1130E940B100E9442
:10203000B91A0C94F50F5F926F927F928F929F92D4
:10204000AF92BF92CF92DF92EF92FF920F931F93C6
:10205000CF93DF93CDB7DEB72A970FB6F894DEBFE4
:102060000FBECDBF0E94B613C82E81110E94D20FA1
:1020700036E2832E32E0932E00E010E0502E802FC7
:102080000E94E0125C01F401619071904F0168269A
:10209000792661147104B1F40F5F1F4F05301105EB
:1020A00069F78FEF89838A831B820E9421238160D5
:1020B000782F9D838C8349815A816B818D810E9409
:1020C000B7053AC08091380281FD0E94E912D12CF7
:1020D000EE24E394F12CC3018E219F21892B29F159
:1020E0000E94EE0F8823A9F0DE825F82AE20BF201F
:1020F00081E0AB2809F480E088870E942123816079
:10210000782F9A8789874E815F8168858A850E94AA
:10211000B705000F111FF801EA5DFD4F8081918125
:10212000E826F926F182E08207C0D394EE0CFF1C6A
:10213000F0E1DF12D0CFB0CF81E0C11001C080E06C
:102140002A960FB6F894DEBF0FBECDBFDF91CF91B8
:102150001F910F91FF90EF90DF90CF90BF90AF90C5
:102160009F908F907F906F905F9008950E941B10BA
:102170000E94FD1A0E94BD150C94AC05CF93DF930D
:102180000E94D511EC01811521E5920708F045C0A8
:10219000811530E5930708F094C0883E910528F535
:1021A000803E910508F0F8C0883A910570F4853AB0
:1021B000910508F07CC08130910509F475C008F4E0
:1021C000E8C0049708F0E8C0E4C08F3B910508F030
:1021D000E0C0C85AD0E0CC0FDD1FC05BDE4F0990D5
:1021E000D881C02DCE019464D8C0811540E29407F7
:1021F00058F4811551E0950708F0CEC0803F910555
:1022000008F4C7C09065C9C0C11580E4D80708F4B8
:10221000C0C0DF70CE01906AC0C0811525E592076D
:10222000A8F4811534E5930708F095C0811543E5BE
:10223000940708F07BC0811552E5950708F061C04E
:10224000D82FCC27CE01816F906AA7C0C11589E530
:10225000D807A0F4C11528E5D20708F082C0C1153F
:1022600036E5D30708F095C08C2F0E9469128F7154
:1022700090E0D82FCC27CE0190628FC0C1154AE5DF
:10228000D40708F474C0CE0190568115904208F02E
:1022900080C08D2F8F710E946912DD27D0628F71EF
:1022A000AE01582BCA0179C081E090E076C0C55AD2
:1022B000D0E0C258DE4F8881C82FD0E0CE019064B4
:1022C0006CC074E0969587957A95E1F7282F237076
:1022D0003C2F337081E090E002C0880F991F3A953F
:1022E000E2F79C68AC01522B9A019C2F9F70969547
:1022F000969550E2959FE0011124C9018C2B9D2BEE
:102300004CC08370992721E030E002C0220F331FB8
:102310008A95E2F79C2F9695969580E2989FE0012A
:102320001124C22BD32BCE019C6837C08370992710
:1023300021E030E002C0220F331F8A95E2F79C2F84
:102340009695969540E2949FE0011124C22BD32BE1
:10235000CE019A6822C0D82FCC27CE01846F906A14
:102360001CC0DC2FCC27CE01806F906A16C08C2F4A
:102370008F700E94691294E0D695C7959A95E1F7FF
:10238000CF70D0E0DC2FCC27D0699E01282BC9016B
:1023900004C080E090E001C0CE01DF91CF910895AC
:1023A0000E9425200E94BE1008958238910569F18F
:1023B000B0F48133910509F46DC048F48932910578
:1023C00009F463C08A32910509F469C00895853320
:1023D000910509F455C089339105B9F00895833EFC
:1023E000910569F138F4803E9105B1F0823E910586
:1023F00009F10895863E9105A9F1873E9105B9F14D
:10240000843E910509F064C023C020916E0220FD36
:102410004FC021FD4DC0089580916E0280FD44C0E3
:1024200080916F0280FF44C080916E0284FD42C0A3
:1024300083EE4DC080916E0282FF38C0F5CF80914F
:102440006E0282FD33C080916F0280FD31C0ECCFFF
:1024500080916F0281FF32C080916E0284FD2AC09C
:1024600087EE35C080916E0283FF26C0F5CF809144
:102470006E0283FD21C080916F0281FD1FC0ECCFF1
:1024800080916E0285FD1CC01DC080916E0285FD8D
:1024900019C016C080916E0286FD16C017C08091CB
:1024A0006E0286FD13C010C089E311C082EE0FC01A
:1024B00080EE0DC080E00BC086EE09C084EE07C040
:1024C00089E205C085E303C08AE201C081E390E0B0
:1024D000089590916E0292FF0DC0282F2871283028
:1024E00019F4877F846006C0282F2471243011F4EA
:1024F0008B7F886093FF0DC0282F2871283119F435
:10250000877E846106C0282F2471243111F48B7ECC
:10251000886120916F0220FF0DC0382F387138304C
:1025200019F4877F816006C0382F3171313011F482
:102530008E7F886021FF0DC0282F2871283119F463
:10254000877E816106C0282F2171213111F48E7E92
:10255000886194FD877E089580E008950C941E0F95
:102560000E94B6138FE39CE90197F1F700C00000C9
:102570000E94B61380E00E94E01280FF04C00E9417
:10258000AE120C946E2308950C94B0120E94240F86
:10259000811102C00E94CB0F0E942F0F809338023E
:1025A0000E94370F90936F0280936E020E94C412B4
:1025B0000E94330F0E94FD098091D8010C940E0AED
:1025C000E82FF0E0EE0FFF1FE658FD4F808191816C
:1025D0000895089580EA8A95F1F7089500C0089556
:1025E0000C94EA1208950C94F2120C94F3120C94C9
:1025F000F2120C94F712F894E82FE295EF70F0E0E5
:1026000031A1282F2F7081E090E001C0880F2A951A
:10261000EAF7982F9095932391A392A1892B82A3F7
:10262000789408950F931F93CF93DF93C1E9D1E07E
:1026300089918F3F11F00E94FB1281E0C639D807C3
:10264000B9F7C1E8D1E001E911E089918F3F11F0BC
:102650000E94FB120C171D07C1F7DF91CF911F914C
:102660000F910895BF92CF92DF92EF92FF920F9356
:102670001F93CF93DF938C01C62FD0E0CE018F56EE
:102680009E4F6C01FC0190819F3F09F450C0B62E13
:10269000F894E92FE295EF70F0E081A19F7021E0BE
:1026A00030E001C0220F9A95EAF7822B81A382A124
:1026B0002095282322A378940E94EE12E1E8F1E00D
:1026C00041E951E021E030E0E12CF12C61916F3FD4
:1026D00089F0A62FA295AF70B0E090968C9190E013
:1026E0006F7002C0959587956A95E2F780FD02C0EC
:1026F000C90102C080E090E0E82AF92A220F331FC6
:102700004E175F0719F7F60180818F3F11F00E9485
:10271000FB1261E0E114F10409F460E08B2D0E94EA
:10272000F012CC0FDD1FC00FD11FF982E882DF91BC
:10273000CF911F910F91FF90EF90DF90CF90BF90BE
:1027400008950E9412138AE0EAE7F2E0DF01982F71
:102750001D929A95E9F7E0E7F2E0DF011D928A9574
:10276000E9F785E00E9401140C944204FF920F9354
:102770001F93CF93DF93CDB7DEB72A970FB6F894A8
:10278000DEBF0FBECDBF8E010F5F1F4F8AE0F80185
:1027900011928A95E9F7F12C6F2DC8010E9432132E
:1027A000F394F5E0FF12F8CF4AE050E0B80180E77B
:1027B00092E00E94532BFF24F394009709F4F12C2C
:1027C000892B41F08AE0F801A0E7B2E001900D9278
:1027D0008A95E1F72F2D45E06AE772E080E792E005
:1027E0000E9402140E9444048F2D2A960FB6F8947A
:1027F000DEBF0FBECDBFDF91CF911F910F91FF9034
:1028000008950895FF920F931F93CF93DF93F82EAF
:10281000092F162FD72FC42F222349F081E0809350
:102820003B020E94212390933A02809339028091C7
:102830003B028823D9F08091390290913A020E949C
:102840003923059798F0EF2DF02FA12FBD2F80E0B1
:1028500090E04C2F50E08417950734F4219131918A
:102860002D933D930196F7CF10923B02DF91CF91CC
:102870001F910F91FF9008950E9457250E940F10FD
:102880000C9463250E9467250E94B6100C94812544
:102890000E94BF220E943E250E94FD0F0E943C1410
:1028A0000E9442140E940710FBCF8091420280FFD9
:1028B00006C06091090170E0660F771F26C081FF96
:1028C00004C06091090184E005C082FF07C06091E7
:1028D000090188E0689FB001112417C0909141025E
:1028E0009923D1F060910801961788F7209109018A
:1028F00088E0289F90011124929FA001939F500D82
:10290000112470E0CA010E94252B6038710540F443
:102910006115710519F406C068E070E0862F08950E
:102920008FE7089581E008958091420280FF08C0FA
:102930006091050170E0759567957595679521C063
:1029400081FF06C06091050170E07595679519C01B
:1029500082FF04C06091050170E010C090914002B8
:10296000992399F0609104019617A0F780910501D1
:10297000899FC001112470E00E94252B60387105E9
:1029800040F46115710519F406C061E070E0862F0E
:1029900008958FE7089581E00895803F21F40E9413
:1029A0005514819504C0813F29F40E9455148093E9
:1029B00046020895823F21F40E945514819504C077
:1029C000833F29F40E945514809345020895893F5E
:1029D00019F40E94941405C08A3F31F40E949414A3
:1029E00081958093470208958B3F21F40E949414AF
:1029F000819504C08C3F29F40E949414809348026E
:102A000008959CE0980F953078F421E030E0A9011A
:102A100002C0440F551F9A95E2F7CA0190914402F3
:102A2000892B8093440208958D3F21F480914202C6
:102A300081600BC08E3F21F480914202826005C00C
:102A40008F3F29F48091420284608093420208956E
:102A5000803F39F49091460297FF35C010924602AC
:102A600059C0813F29F4909146021916BCF32BC03E
:102A700090914502823F29F497FF25C010924502AC
:102A800049C0833F19F41916CCF31DC09091470239
:102A9000893F29F41916BCF4109247023BC08A3FC3
:102AA00019F497FF10C0F8CF8B3F39F4909148028A
:102AB00097FF09C0109248022DC08C3F21F49091DD
:102AC00048021916BCF39CE0980F953080F421E081
:102AD00030E0A90102C0440F551F9A95E2F7CA01E0
:102AE00080959091440289238093440213C08D3FC6
:102AF00021F4809142028E7F0BC08E3F21F48091A1
:102B000042028D7F05C08F3F29F4809142028B7F66
:102B10008093420280914502811106C08091460255
:102B2000811102C01092410280914702811106C0BA
:102B300080914802811102C01092400208950E94C3
:102B4000212320914502211104C020914602222315
:102B500021F090933F0280933E0220914702211181
:102B600004C020914802222321F090933D028093DB
:102B70003C0283E492E00C94FE21EF92FF920F93CB
:102B80001F93CF93DF9300D000D000D0CDB7DEB736
:102B900086E0E3E4F2E0DE01119601900D928A9561
:102BA000E1F7E0904502F090460200914702109153
:102BB000480210924502109246021092470210926B
:102BC0004802E11003C0FF2009F45DC080913E027D
:102BD00090913F020E943923AC01909141029923C8
:102BE00039F020910A0130E02417350758F04BC026
:102BF00020910B018AE0289F9001112424173507AA
:102C000018F041C09F3F19F09F5F90934102EE2062
:102C100061F00E9455141E1414F09FEF01C091E062
:102C2000989F902D112490934502FF2061F00E94FF
:102C300055141F1414F09FEF01C091E0989F902D40
:102C4000112490934602309145023323E1F0209104
:102C500046022223C1F045EB3403C001112499231D
:102C600019F09093450203C081E08093450235EB53
:102C70002303C0011124992319F09093460203C045
:102C800081E080934602011103C0112309F45DC065
:102C900080913C0290913D020E943923AC019091B9
:102CA0004002992339F02091060130E024173507BE
:102CB00058F04BC0209107018AE0289F9001112411
:102CC0002417350718F041C09F3F19F09F5F90937C
:102CD0004002002361F00E949414101614F09FEF3C
:102CE00001C091E0989F902D1124909347021123E9
:102CF00061F00E949414111614F09FEF01C091E04E
:102D0000989F902D112490934802309147023323CD
:102D1000E1F0209148022223C1F045EB3403C001C9
:102D20001124992319F09093470203C081E0809306
:102D3000470235EB2303C0011124992319F0909326
:102D4000480203C081E080934802809145028111CE
:102D50000BC080914602811107C08091470281110A
:102D600003C08091480281110E949F15EB82FC8272
:102D70000D831E8386E0FE013196A3E4B2E001904C
:102D80000D928A95E1F726960FB6F894DEBF0FBE36
:102D9000CDBFDF91CF911F910F91FF90EF900895DC
:102DA000E3E4F2E086E0DF011D928A95E9F71092F4
:102DB000410210924002109242020895EF92FF9257
:102DC0000F931F93CF93DF938B01682F11110AC0CC
:102DD000442329F0E82FF0E0E656FB4F6491762F6C
:102DE000862F75C0212F30E0E82FF0E0442321F03A
:102DF000E656FB4FE491F0E046E0049FC001112449
:102E0000CFEFD0E0BE010E94112B4BEA4603C00178
:102E1000479F900D1124800F911D800F911D982FB9
:102E2000990F890FAE01421B530B4E9FD0014F9F4C
:102E3000B00D5E9FB00D11249B2F189FA00111248F
:102E4000452F55278E01041B150B0E9FA0010F9FC8
:102E5000500D1E9F500D11247E01E81AF108E29ECC
:102E60008001E39E100DF29E100D1124212F3327B7
:102E7000C21BD30BCE9F9001CF9F300DDE9F300D34
:102E8000112462307105A9F048F46115710569F0EB
:102E900061307105C9F48B2F752F0DC06430710539
:102EA00081F058F06630710579F47E2F8B2F932FC7
:102EB0000DC0832F7B2F9E2F09C08E2F7B2F952F28
:102EC00005C08E2F732F02C07E2F852F692FDF91B3
:102ED000CF911F910F91FF90EF90089541E00E94D4
:102EE000DE16089508950E946E170895CF93DF931C
:102EF000762FE901682F842F0E94731779836883E6
:102F00008A83DF91CF91089580918402282F26959E
:102F100030E02115310519F48170826005C021313E
:102F2000310524F08170806280938402089588E0E6
:102F300090E00C94682BCF92DF92EF92FF926B019E
:102F40007C010E948417B701A60188E090E0FF9001
:102F5000EF90DF90CF900C94862B6091840270915B
:102F6000850280918602909187020C949B17E4E879
:102F7000F2E083E0808311828FEF82838383148267
:102F800060817181828193810C949B17809184026E
:102F900080FF02C08695089580E008959091880290
:102FA000933018F49F5F90938802882351F06091CA
:102FB00084027091850280918602909187020C9420
:102FC0009B17089581E00C94CE1790918802992365
:102FD00019F0915090938802882351F060918402F7
:102FE0007091850280918602909187020C949B17C4
:102FF000089581E00C94E5178091880208958093EC
:103000008802662351F0609184027091850280915C
:103010008602909187020C949B17089560E00C94AF
:10302000FF1780918502089580918602089580910E
:103030008702089570E00C943A1C60910D01809114
:10304000840280FF0AC080910C0123E0829FC001AE
:10305000112487579D4F0C941A1880910E0190915E
:103060000F01891780F7E82FF0E09F01220F331F2F
:10307000E20FF31FE757FD4F1182108212828F5F1C
:10308000F0CF9091840290FF16C090910E01209194
:103090000F01921770F4E92FF0E0DF01AA0FBB1FB8
:1030A000EA0FFB1FE757FD4F8183608342839F5FD9
:1030B000F0CF0C941D180895CF93DF9300D01F928A
:1030C000CDB7DEB79091840290FF0AC09E012F5FBA
:1030D0003F4F0E9476174B8169818A810E94411877
:1030E0000F900F900F90DF91CF910895CF93DF93C2
:1030F000EC01EC81F0E0E656FC4F4491E4E8F2E0AC
:10310000628181810E945C188C818F5F8C83DF914A
:10311000CF910895CF93DF93EC01E4E8F2E043818F
:1031200062818C810E945C188C818F5F8C83DF911F
:10313000CF910895EF92FF920F931F93CF93DF9358
:1031400000D01F92CDB7DEB7082FF62E142FE22E37
:103150008091840280FF35C0E82FE695F0E0EA56C2
:10316000FE4F9081909353028E7F823061F49E01D6
:103170002F5F3F4F802F0E9476174B8169818A8194
:103180000E9441180CC0923019F41091870207C0B8
:10319000963019F40091850202C09930D9F300935A
:1031A0008502F092860210938702EE2051F0609122
:1031B00084027091850280918602909187020E941C
:1031C0009B170F900F900F90DF91CF911F910F9150
:1031D000FF90EF900895E4E8F2E09181282F438179
:1031E000628188E0890F0C949A1881E00C94EB18A6
:1031F000E4E8F2E09181282F4381628188EF890F12
:103200000C949A1881E00C94F818E4E8F2E06281DA
:1032100028E0620F08F46FEF282F438181810C941E
:103220009A1881E00C940519E4E8F2E0628128E044
:10323000621B08F460E0282F438181810C949A1866
:1032400081E00C941419E4E8F2E0438128E0420F95
:1032500008F44FEF282F628181810C949A1881E045
:103260000C942319E4E8F2E0438128E0421B08F4BF
:1032700040E0282F628181810C949A1881E00C949F
:10328000321920E00C949A180F931F93CF93DF9379
:1032900000D01F92CDB7DEB78C0180914902811119
:1032A0000AC09E012F5F3F4F4FEF6FEF0E947617CE
:1032B0008A8180934902F8018481813051F028F09D
:1032C000823061F4409149020AC08091490240E095
:1032D00007C06091490240E080E003C040E080E028
:1032E00060E00E944118F801848190E0019663E05B
:1032F00070E00E94252B84830F900F900F90DF9138
:10330000CF911F910F910895FF920F931F93CF9329
:10331000DF93EC01F12C0FEF10E060911001F61635
:10332000F0F480910E012F2D30E0280F311DC901DE
:10333000880F991F280F391F27573D4F70E0C8018C
:103340000E94252B962F8C814091870260918602E6
:10335000F99E800D11240E947617F394DECF0E940F
:103360001D189A818C8190FF02C08F5F01C081502F
:103370008C83DF91CF911F910F91FF9008950F9350
:103380001F93CF93DF93EC0100E010E080911001D8
:10339000282F30E00217130724F590910E019801B1
:1033A000290F311DA901440F551F240F351F275721
:1033B0003D4F869590E04C81081719071CF4442373
:1033C00031F002C0411103C04091870201C040E0CA
:1033D00060918602809185020E9476170F5F1F4FD1
:1033E000D5CF0E941D188C8190E00196817099279D
:1033F0008C83DF91CF911F910F910895E4E8F2E063
:1034000080818E7F808360817181828193810E941F
:103410009B17109254022FEF80E792E021508040DA
:103420009040E1F700C000000C941D18E4E8F2E0C1
:1034300080818E7F8083109254022FEF80E792E08C
:10344000215080409040E1F700C000000C941D180E
:10345000109254028091510281110AC081E0809340
:103460005102809184028170809350020C94161A4C
:10347000089560918402669570E041E050E081E13A
:1034800091E00E94462B892B19F481E0809354022D
:103490000E94212390934B0280934A0208959091B9
:1034A000840290FF35C09170811102C0926006C005
:1034B000813110F0906202C0880F982B90938402A3
:1034C000662351F06091840270918502809186029A
:1034D000909187020E949B1760918402669570E02C
:1034E00041E050E081E191E00E94462B892B19F0E8
:1034F0001092540202C00E94391A81E080934D025A
:103500004091870260918602809185020C94411956
:103510000895682F90918402969581E0890F8131FA
:1035200008F081E00C944F1A81E00C94891A682FFE
:103530009091840296958FEF890F09F480E10C94A5
:103540004F1A81E00C94971A61E00C944F1AE4E84A
:10355000F2E080818160808386950C94A41A80912A
:10356000840280FD0C94FE190C94A71A60E00C9460
:103570004F1A8091520281112EC00E94240F811196
:1035800004C00E94CB0F0E94B7170E949717609348
:1035900084027093850280938602909387026E7FE7
:1035A00061F40E94B7170E9497176093840270938A
:1035B000850280938602909387020E94841710925E
:1035C00054028091840280FF03C086950E94B61A3F
:1035D00081E0809352020895E4E8F2E08081816006
:1035E000808386950C94B61A1092510280915002F5
:1035F00081110E94EC1A0C94391A0F931F93CF93E8
:10360000DF9380915402882309F467C080915302AC
:10361000E0918402E695E81BE0934C02823049F485
:10362000F0E0EA56FC4FE491CE2FD0E006E718E137
:103630002BC0863049F4F0E0ED56FC4FE491CE2FDC
:10364000D0E00AE818E120C0893051F4E695F0E0B6
:10365000E057FC4FE491CE2FD0E004E819E114C00C
:103660008F3039F4EEE8F3E0C591D49104E419E128
:103670000BC0803129F4C4EFD1E00FEB19E104C095
:10368000C0EDD7E002E717E180914D02882361F099
:1036900010924D020E94212390934B0280934A0284
:1036A00010924F0210924E020E942123E0914A0292
:1036B000F0914B028E1B9F0B8F3F9F4770F4CE0FF4
:1036C000DF1FD0934B02C0934A028AE492E0F801D4
:1036D000DF91CF911F910F910994DF91CF911F91AD
:1036E0000F910895882311F0FA0101C0FB0109949C
:1036F000CF93DF93C82FD62F0E94C6178C1740F0A8
:103700000E94C6178D1720F4DF91CF910C94941A64
:103710008C2FDF91CF910C94A41A1F93CF93DF933A
:10372000FB0112811111A1C0EC010E943B0E8272BB
:10373000CB3CFCE5DF0709F47EC060F5C63CECE558
:10374000DE0709F45FC0A8F4C33C9CE5D90709F47F
:1037500048C028F4C23CDC4509F440C03DC0C43C2C
:103760009CE5D90709F442C0C53CDC4509F445C0D5
:1037700033C0C83CFCE5DF0709F44EC008F447C07D
:10378000C93CECE5DE0709F44CC0CA3CDC4509F451
:103790004DC022C0C03D9CE5D90709F45EC088F445
:1037A000CD3CFCE5DF0709F450C008F449C0CE3C2D
:1037B000ECE5DE0709F44BC0CF3CDC4509F44AC018
:1037C0000BC0C53D8CE5D80709F44CC008F44DC0CA
:1037D000CD35DD4509F449C011E047C00E94AF1A5C
:1037E00044C041EA5AE164E97AE104C044E95AE19B
:1037F00061EA7AE10E94721B38C042E059E165EF4C
:1038000078E1F8CF45EF58E162E079E1F3CF40E2AB
:1038100059E161E179E1EECF41E159E160E279E11D
:10382000E9CF4EE359E16FE279E1E4CF4FE259E1AC
:103830006EE379E1DFCF49EF57E162EE77E1DACF6E
:1038400042EE57E169EF77E1D5CF81E00CC065E04A
:1038500082E005C068E086E002C06EE089E00E9478
:10386000781B03C08FE00E94A41A812FDF91CF91B3
:103870001F910895509A2BB12E7F3BB131604FB705
:10388000F894FC01CB01880F991F680F791F6E0F08
:103890007F1FE617F70789F0819198E03BB9000098
:1038A00000C087FF2BB9880F000000C000C000C017
:1038B0002BB900C09A9591F7ECCF4FBF8FE594E0FC
:1038C0000197F1F700C00000089583E290E00E94A4
:1038D000602B823281F484E290E00E94602B84307D
:1038E00051F485E290E00E94602B91E0873209F06C
:1038F00090E0892F01C080E081700895CF93C82F98
:10390000811102C06FEF01C062E283E290E00E9489
:10391000742BC11102C06FEF01C064E084E290E03B
:103920000E94742BC11102C06FEF01C067E285E2F3
:1039300090E0CF910C94742B089586E290E00E9461
:10394000602B682F70E080E090E008950895CF9399
:10395000C62F0E94A61C6C2F86E290E0CF910C949B
:10396000742B80E00E947E1C60E070E0CB010E941E
:10397000A71C0E94A01F0E947F2081E00C947E1C47
:103980000E949C1C0E949D1C0E94A61C0E94651CFB
:10399000811102C00C94B11C0895CF93FB01C28128
:1039A000CC23E9F09C0122513F452031310520F420
:1039B00082510E948F200CC08031FFE59F0751F497
:1039C00081E00E94210A43E062E081E00E94390424
:1039D000C0E018C081319F45A9F482E0F2CF803168
:1039E000EFE59E0711F481E004C081319F4549F461
:1039F00082E00E942C0A43E062E081E00E943904E8
:103A000001C0C1E08C2FCF9108952FEFFC012083DE
:103A10000895CF93DF93EC018881813889F028F4F1
:103A20008038A1F40E94171810C0823861F08338E2
:103A300069F40E94111889830E9414188A8306C0B1
:103A40000E94C61702C00E94FC178983DF91CF91A4
:103A50000895CF93DF93EC0188818138B1F058F459
:103A6000803851F5D9810E941418C82F0E9411186E
:103A70004D2F6C2F1DC08238B1F08338E9F40E94BD
:103A80001718482F6A81898113C089810E94B61A4C
:103A90008981811104C0DF91CF910C94161ADF91B6
:103AA000CF910C94EC1A8981DF91CF910C940E1870
:103AB000DF91CF910C944119DF91CF910895EF924E
:103AC000FF920F931F93CF93DF93EC01062F019684
:103AD000E8814E2F50E0FA013197E331F10508F00B
:103AE0009AC0EE59FF4F0C94392B198289E056C0C9
:103AF0008981823039F0833061F0813029F50E946C
:103B00002D2302C00E949D1C9A838B837C836D832E
:103B100084C07E0110E0812F0E94E012F7019283A1
:103B200083831F5FF2E0EF0EF11C1530A1F775C023
:103B30008981823049F46A817B818C819D810E94D8
:103B40003F2B0E94A71C69C0602FCE010E94051D5B
:103B500064C04B816A8189810E94721F9C838D831E
:103B60005CC02C813D813227232732274B816A811B
:103B700089810E948B1F51C00E94A01F4EC00E94CD
:103B8000291D4BC00E94091D48C00E94AD1745C0A9
:103B90000E94322024C00E94342099838A833DC031
:103BA0006B8170E089819A81AE014C5F5F4F9827ED
:103BB000892798270E94372030C06B8170E0898167
:103BC0009A81AE014C5F5F4F9827892798270E9402
:103BD0005C2023C00E947F2020C00E945F1F898339
:103BE0001CC06B8170E089819A81AE014C5F5F4F90
:103BF0009827892798270E94DF1F0FC06B8170E0EC
:103C000089819A81AE014C5F5F4F98278927982759
:103C10000E94032002C08FEF8883602FCE01DF91C6
:103C2000CF911F910F91FF90EF900C941324CF939D
:103C3000DF93EC01FB018281882309F43CC1C3308E
:103C4000FDE5DF0760F4CA3F9CE5D90788F49E01D3
:103C500022503C452431310508F02EC109C0C1363F
:103C6000EDE5DE0729F0C53AFDE5DF0709F024C1DF
:103C70000E94370F90936F0280936E02C1318CE5E2
:103C8000D80709F4C6C008F042C0C930ECE5DE0729
:103C900009F49BC000F5C5308CE5D80709F485C050
:103CA00078F4C330ECE5DE0709F478C008F07AC098
:103CB000C230DC4509F0F5C080916E028160EFC032
:103CC000C7309CE5D90709F478C008F07AC0809124
:103CD0006E028061E4C0CD30FCE5DF0709F487C0E7
:103CE00058F4CB309CE5D90709F479C008F07BC0C3
:103CF00080916E0288606FC0CF30FCE5DF0709F469
:103D000080C008F082C080916E02877FC8C0CD3F1E
:103D10009CE5D90709F471C000F5C531FCE5DF0762
:103D200009F485C068F4C3319CE5D90709F475C06E
:103D300008F095C00E94AB0980916E028F77AFC0EA
:103D4000CB3FFCE5DF07A9F108F054C0CA3FDC45D2
:103D500009F0A7C080916F0240C0C130EDE5DE07D9
:103D600009F489C058F4CF3F8CE5D80709F45AC04C
:103D700008F069C080916F0282602FC0C136EDE506
:103D8000DE0709F47CC0C53AFDE5DF0709F481C010
:103D9000C230DD4509F085C080E06EC080916E02C2
:103DA00082607DC080916E0216C080916E02886034
:103DB00076C080916F0282604FC080916E028062F7
:103DC0006EC080916E0280646AC00E94AB098091CF
:103DD0006E02806864C0846062C081603DC0809172
:103DE0006E028E7F5CC080916E028D7F58C0809184
:103DF0006E0216C080916F0218C080916F028D7F95
:103E00002BC080916E028F7E4AC080916E028F7DA2
:103E100046C080916E028F7B42C080916E02877F88
:103E20008B7F3DC080916F028D7F8E7F15C080910A
:103E30006E0282FB222720F991E0922790FB82F903
:103E400090FB83F92CC080916F02982F9095917010
:103E50008E7F892B90FB81F980936F0222C00E9494
:103E6000AB0980916E0287FB222720F991E092270F
:103E700090FB87F914C081E00E94CD0F12C08091A1
:103E80006E0284FB222720F991E0922790FB84F9AF
:103E900006C080916E02982F909590FB80F98093D8
:103EA0006E0280916E0290916F020E94480F0E94F4
:103EB000AB0980E001C081E0DF91CF91089584E0FB
:103EC000089550E0440F551F20E2629F400D511DA0
:103ED00011249A0160EA869F200D311D1124C90129
:103EE000879608950F931F93CF93DF930E94611FCE
:103EF0008C010E94602BC82FD0E0DC2FCC27C8019A
:103F000001960E94602B9E01282BC901DF91CF9161
:103F10001F910F9108950F931F93CF93DF93122F4B
:103F2000032F0E94611FEC01602F0E94742B612FF0
:103F3000CE010196DF91CF911F910F910C94742BBC
:103F4000AF92BF92CF92DF92EF92FF920F931F93A7
:103F5000CF93DF93A12CE12CF12CB12C00E010E0E9
:103F6000C0E0D0E06701C00ED11EF601EC0FFD1FCE
:103F7000EE0FFF1FE250FF4F259134914C2F6B2D18
:103F80008A2D0E948B1F2196C031D10571F7005FE9
:103F90001F4FB39485E0B812E3CF80E5E80EF11C23
:103FA000A39484E0A812D9CFDF91CF911F910F91F4
:103FB000FF90EF90DF90CF90BF90AF900895EF9279
:103FC000FF920F931F93CF93DF93EA017A01E60EDE
:103FD000F71E8C01C8018796CE15DF0569F0003801
:103FE00022E0120720F40E94602B888301C018820F
:103FF00021960F5F1F4FEECFDF91CF911F910F9151
:10400000FF90EF900895EF92FF920F931F93CF933D
:10401000DF93EA017A01E60EF71E8C01C80187964C
:10402000CE15DF0559F0003822E0120718F4688138
:104030000E94742B21960F5F1F4FF0CFDF91CF911D
:104040001F910F91FF90EF900895462F843038F420
:10405000753028F4603118F4672F0C94721F80E0DB
:1040600090E0089580E1089589E591E00895EF9248
:10407000FF920F931F93CF93DF93EA017A01E60E2D
:10408000F71E8C01C80189559D4FCE15DF0569F0DB
:10409000093521E0120720F40E94602B888301C0BB
:1040A000188221960F5F1F4FEDCFDF91CF911F91A7
:1040B0000F91FF90EF900895EF92FF920F931F934F
:1040C000CF93DF93EA017A01E60EF71E8C01C80157
:1040D00089559D4FCE15DF0559F0093521E01207AE
:1040E00018F468810E94742B21960F5F1F4FEFCF49
:1040F000DF91CF911F910F91FF90EF900895CF9393
:10410000DF93C7EAD2E060E0CE010E94742B2196D3
:10411000C11584E0D807B9F7DF91CF910895DF92F8
:10412000EF92FF920F931F93CF93DF9300D000D0B5
:10413000CDB7DEB7F82E8FE08F15E8F18FEF93E063
:104140000E94602B811137C007EA12E0FF2069F05E
:10415000011584E0180779F1C8010E94602B8111D4
:1041600001C0FA940F5F1F4FF1CF19821A821B8290
:104170001C82DD24D39478018FEFE81AF80AC80175
:104180000E94602B89831A828823A9F09FEF980FE1
:10419000933058F48A83D9820E5F1F4FC7010E9463
:1041A000602B8B83882339F07801CE0101960E9421
:1041B00091058701E0CF0F900F900F900F90DF9146
:1041C000CF911F910F91FF90EF90DF900895CF93C3
:1041D000DF9386319C4541F5EB010E943B0E982F01
:1041E0008A812091020130910301882379F09A7A23
:1041F00081E009F480E080935502911102C069E2E8
:1042000001C065E3C9010E947A220AC0809155026B
:10421000811102C069E201C065E3C9010E947C22EC
:104220000E947D0E80E001C081E0DF91CF91089572
:104230000F931F93CF93DF93C42FD22FFC01828162
:104240008823C9F0409358020E942123909357027B
:104250008093560280E28C0F883008F057C0C770F8
:1042600081E001C0880FCA95EAF7DF91CF911F91D5
:104270000F910C94390780915802481330C08091F7
:104280005602909157020E943923883C910538F5D7
:1042900010E21D0FCD17B9F080E28C0F883040F48A
:1042A000C77081E001C0880FCA95EAF70E944007F5
:1042B000183028F581E09D2F977001C0880F9A95DE
:1042C000EAF70E943907802F0E9430071830F0F477
:1042D000D77081E001C0880FDA95EAF70AC080E262
:1042E0008C0F883098F4C77081E001C0880FCA95A0
:1042F000EAF7DF91CF911F910F910C944007802F27
:10430000DF91CF911F910F910C943007DF91CF91E6
:104310001F910F9108950F939C01CB01233F4CE512
:10432000340731F188F4283DFCE53F07D9F0293DF9
:104330004CE5340779F1273D3C45A9F506E221EE2D
:1043400041EE67ED7CE52BC0253FFCE53F07E1F042
:10435000A8F0263F3C4539F507E225EE46EE66EF2C
:104360007CE51DC007E225EE45EE68ED7CE517C053
:1043700006E221EE40EE63EF7CE511C007E225EE98
:1043800044EE64EF7CE50BC006E221EE42EE65EF01
:104390007CE505C008E221E045EE69ED7CE50E9480
:1043A000182180E008C0FC018281882319F0109256
:1043B000580201C081E00F9108959093B701809356
:1043C000B601089590935E0280935D020895E09196
:1043D0005D02F0915E02309721F00190F081E02DB6
:1043E000099480E00895E0915D02F0915E023097BB
:1043F00021F00280F381E02D09940895E0915D029F
:10440000F0915E02309739F022E0DC012C930480B9
:10441000F581E02D0994089520915B0230915C02B2
:104420002817390771F090935C0280935B02E0914A
:104430005D02F0915E02309721F00680F781E02D59
:10444000099408952091590230915A02281739078A
:1044500071F090935A0280935902E0915D02F091BD
:104460005E02309721F00084F185E02D09940895D3
:10447000FC01329697E080E0915029F021912223AF
:10448000D9F38F5FF9CF0895662349F0FC01329686
:1044900008962191621729F0E817F907D1F780E013
:1044A000089581E008959C01FC0132969FEF80E021
:1044B0004191461789F09F3F19F4411101C0982F8F
:1044C0008F5F8630A9F79F3F39F0F901E90FF11DA1
:1044D00097FDFA956283089508959C012A5F3F4FE6
:1044E000FC014281461301C0128201968217930794
:1044F000B9F708950C9453220C946D22029626E08D
:10450000FC0111922A95E9F7089508950C948522EB
:1045100083E080935F020C948622811102C081E0C7
:1045200001C082E080935F020C9486220C948D225D
:1045300081E080935F020C9486220C949822089567
:104540000C949F220C94A0220C949F220C949F22E6
:104550000C949F22CF930E94A6220E94B6130E9421
:10456000A422C0E08C2F0E94E012892B29F4CF5F97
:10457000C530C1F780E001C081E0CF910895089572
:104580001F920F920FB60F9211248F939F93AF93A8
:10459000BF9380916002811113C08091B902909104
:1045A000BA02A091BB02B091BC024196A11DB11DFF
:1045B0008093B9029093BA02A093BB02B093BC025D
:1045C000BF91AF919F918F910F900FBE0F901F9051
:1045D00018958091C102843031F10E94B604109286
:1045E000600220E488E190E00FB6F894A8958093EB
:1045F00060000FBE2093600083B7817F846083BF1B
:1046000083B7816083BF7894889583B78E7F83BF9B
:104610000FB6F894A895809160008861809360003F
:10462000109260000FBE08950E94AB090C94BC0468
:1046300082E084BD93E095BD9AEF97BD80936E00B4
:1046400008952FB7F8948091B9029091BA02A09181
:10465000BB02B091BC022FBF08952FB7F8946091B0
:10466000B9027091BA028091BB029091BC022FBF37
:1046700008959C014FB7F8948091B9029091BA02C5
:10468000A091BB02B091BC024FBF821B930B089557
:1046900078941F920F920FB60F9211248F939F93CD
:1046A000AF93BF938091B9029091BA02A091BB02DF
:1046B000B091BC020196A11DB11D8093B9029093E7
:1046C000BA02A093BB02B093BC02BF91AF919F917D
:1046D0008F910F900FBE0F901F90189581E08093DF
:1046E000E00080E28093D8001092C9008FE19EE440
:1046F0000197F1F700C0000087E090EBDC018093A8
:10470000CA029093CB02A093CC02B093CD029CE05E
:1047100088E10FB6F894A895809360000FBE90933F
:104720006000FFCF80916C020895089524E02093EB
:10473000E9002FEF3091E800215035FD06C035ED3E
:104740003A95F1F700002111F5CF2091E80025FFFF
:104750000BC040E050E066E070E00E9428268091A7
:10476000E8008E778093E8000895CF93DF9321E0EF
:104770002093E9002FEF3091E800215035FD06C06D
:1047800035ED3A95F1F700002111F5CF2091E800C1
:1047900025FF14C0EC0140E050E068E070E00E94AA
:1047A00028268091E8008E778093E80088E0FE015B
:1047B000A4E6B2E001900D928A95E1F7DF91CF91E6
:1047C0000895809361027093630260936202809106
:1047D000C1028430F9F48093E9008FEF9091E800F2
:1047E000815095FD06C095ED9A95F1F70000811175
:1047F000F5CF8091E80085FF0DC040E050E063E018
:1048000070E081E692E00E9428268091E8008E7791
:104810008093E8000895BC0184E00C94E123BC017E
:1048200083E00C94E123CF93603219F52091C1020B
:104830002430F9F4C091E900CF703091EC00232FBF
:10484000217030FD20E8C22B22E02093E900209166
:10485000E80020FF0BC040E050E060E270E00E9402
:1048600028268091E8008E778093E800CF70C0936F
:10487000E900CF9108958091C002811109C00E9482
:1048800004280E9461288091E20084608093E20005
:1048900008951092C00208950C949D226091BD026B
:1048A00081E0611101C080E00C9488229091C102E6
:1048B00081E0943009F080E06091BD020C948D227B
:1048C00042E061EC81E00E947D2742E261EC84E0FD
:1048D0000E947D2742E261EC82E00E947D2742E255
:1048E00060EC83E00E947D279091C10281E09430CA
:1048F00009F080E06091BD020C9496228091C30281
:10490000833009F463C030F4813071F0823009F4EF
:104910009CC008958A3009F488C08B3009F46EC0B9
:10492000893009F0AAC020C08091C202813A09F002
:10493000A4C08091E800877F8093E8008091C60240
:104940009091C702892B21F468E084E692E003C0CD
:1049500060E080E090E070E00E94BE268091E80078
:104960008B778093E80008958091C202813209F02C
:1049700084C08091C6029091C702009719F00297F7
:1049800009F07BC08091E800877F8093E8008091E8
:10499000E80082FD05C08091C1028111F8CF6DC091
:1049A0002091F3008091F20090E0922B029731F475
:1049B0008091F100813011F0863021F48091F10076
:1049C00080936C028091E8008B7753C08091C20283
:1049D000813A09F052C08091C6029091C702892B9A
:1049E00009F04BC08091E800877F8093E8008091B8
:1049F000E80080FFFCCF80911E0136C08091C2028A
:104A00008132D9F58091C6029091C702892BA9F510
:104A10008091E800877F8093E8000E94B227809110
:104A2000C40280931E010C94AB098091C2028132B2
:104A300021F58091E800877F8093E8000E94B227EB
:104A40008091C50280936D0208958091C202813ADF
:104A5000A1F48091E800877F8093E8008091E800CE
:104A600080FFFCCF80916D028093F1008091E8007F
:104A70008E778093E8000C94B227089584B7877FDF
:104A800084BF0FB6F894A8958091600088618093E8
:104A90006000109260000FBE90E080E80FB6F894BE
:104AA00080936100909361000FBE0C9498220E9445
:104AB00004280E946128E2EEF0E080818460808317
:104AC00078940C94F62A82E191E00C94E221809192
:104AD000C1028530A9F48091C102853079F40E9429
:104AE000E9228091BF028823B1F30E94AA22882381
:104AF00091F30E9412260E94AB09EDCF0C9414236F
:104B00000895CF93DF93CDB7DEB7A0970FB6F89493
:104B1000DEBF0FBECDBF8091C102843011F583E0AE
:104B20008093E9008091E80082FF1BC08091E8003B
:104B300085FF0AC040E050E060E270E0CE010196DF
:104B40000E94732691E001C090E08091E8008B778D
:104B50008093E800992329F060E2CE0101960E943B
:104B60005F1DA0960FB6F894DEBF0FBECDBFDF91DC
:104B7000CF9108950C94BC25292F3327233031057C
:104B8000C9F060F42130310581F02230310509F09F
:104B900041C08BE590E024ED35E040C02132310585
:104BA000E1F02232310531F135C082E190E02FE2AF
:104BB00036E034C099278130910549F028F00297FA
:104BC00049F5EAE9F5E005C0E0EDF5E002C0E6EA06
:104BD000F5E0849190E09F0121C063307105D0F42D
:104BE000660F771FFB01E055FE4F2081318189E080
:104BF00090E014C06330710568F4FB01EE0FFF1FF5
:104C0000E655FE4F20813181FB01E955FE4F808141
:104C100090E004C080E090E020E030E0FA013183D1
:104C20002083089580E189BD82E189BD09B400FE39
:104C3000FDCF8091D8008F7D8093D8008091E000D7
:104C400082608093E0008091E00081FDFCCF0895B8
:104C5000CF92DF92EF92FF920F931F93CF93DF9348
:104C6000EC018B017A010E94D127811133C0E1143C
:104C7000F10439F0F70180819181081B190BC80FED
:104C8000D91FC12CD12C0115110519F18091E80013
:104C900085FD16C08091E8008E778093E800E114CE
:104CA000F10449F0F70180819181C80ED91ED182AB
:104CB000C08285E00FC00E94D127882321F30AC05B
:104CC00089918093F10001501109FFEFCF1ADF0A9B
:104CD000DACF80E0DF91CF911F910F91FF90EF909D
:104CE000DF90CF900895CF92DF92EF92FF920F93D3
:104CF0001F93CF93DF93EC018B017A010E94D127A0
:104D0000811133C0E114F10439F0F7018081918100
:104D1000081B190BC80FD91FC12CD12C0115110567
:104D200019F18091E80085FD16C08091E8008B772D
:104D30008093E800E114F10449F0F701808191814A
:104D4000C80ED91ED182C08285E00FC00E94D12733
:104D5000882321F30AC08091F10089930150110941
:104D6000FFEFCF1ADF0ADACF80E0DF91CF911F91FA
:104D70000F91FF90EF90DF90CF9008952091C8029F
:104D80003091C9022617370748F06115710539F4CB
:104D90002091E8002E772093E80001C0B901FC01C2
:104DA00020E06115710579F18091C1028823F1F14C
:104DB0008530F1F18091E80083FD3CC08091E800EE
:104DC00082FD2EC08091E80080FFEBCF2091F300A0
:104DD0008091F20090E0922B6115710551F08830BE
:104DE000910538F421912093F100615071090196E9
:104DF000F3CF21E0089709F020E08091E8008E775A
:104E00008093E800CECF2111CFCF0AC08091C1029C
:104E1000882361F0853061F08091E80083FD0AC04D
:104E20008091E80082FFF2CF80E0089582E008954B
:104E300083E0089581E008952091C8023091C9026D
:104E40002617370748F06115710539F42091E800FD
:104E50002E772093E80001C0B901FC0120E0611524
:104E6000710591F18091C102882309F440C0853019
:104E700009F43FC08091E80083FD3DC08091E800C7
:104E800082FD2FC08091E80080FFE9CF2091F300E0
:104E90008091F20090E0922B6115710559F08830F5
:104EA000910540F424912093F100319661507109ED
:104EB0000196F2CF21E0089709F020E08091E80008
:104EC0008E778093E800CBCF2111CCCF0AC08091A0
:104ED000C102882361F0853061F08091E80083FD94
:104EE0000AC08091E80082FFF2CF80E0089582E05E
:104EF000089583E0089581E00895982F973068F52C
:104F00009093E900981739F07091EC002091ED0032
:104F10005091F00003C0242F762F50E021FD02C0F5
:104F20009F5FECCF3091EB003E7F3093EB003091F0
:104F3000ED003D7F3093ED003091EB003160309318
:104F4000EB007093EC002093ED005093F000209163
:104F5000EE0027FDE5CF80E008958F708093E90093
:104F600081E008958091C20287FF11C08091E8001E
:104F700082FD05C08091C1028111F8CF11C08091DE
:104F8000E8008B770BC08091C102882349F08091A3
:104F9000E80080FFF8CF8091E8008E778093E800EA
:104FA00008952091E4003091E50095E64091EC00F1
:104FB000842F817040FF23C08091E80080FD1DC0D8
:104FC0008091C102882399F0853099F08091EB009F
:104FD00085FD11C04091E4005091E500241735078C
:104FE00029F3915011F09A01E1CF84E0089582E015
:104FF000089583E0089581E0089580E00895409148
:10500000E80042FFDDCF08950E9472280E947A28AE
:10501000E0EEF0E0808181608083E8EDF0E0808167
:105020008F77808319BCA7EDB0E08C918E7F8C9335
:1050300080818F7E80831092C00208950F931F930A
:10504000CF93DF930E9472280E947A28C8EDD0E0A7
:1050500088818F77888388818068888388818F7D25
:10506000888319BC1092C1021092BD021092BF0237
:105070001092BE0200EE10E0F80180818B7F8083E9
:1050800088818160888342E060E080E00E947D2723
:10509000E1EEF0E080818E7F8083E2EEF0E08081BF
:1050A00081608083808188608083F80180818E7F29
:1050B0008083888180618883DF91CF911F910F91D8
:1050C0000895E8EDF0E080818F7E8083E7EDF0E0E9
:1050D00080818160808384E082BF81E08093C00210
:1050E0000C941E28E8EDF0E080818E7F8083109282
:1050F000E20008951092DA001092E10008951F92E4
:105100000F920FB60F9211242F933F934F935F93FB
:105110006F937F938F939F93AF93BF93EF93FF937F
:105120008091E10082FF0BC08091E20082FF07C006
:105130008091E1008B7F8093E1000E94F52A8091AD
:10514000DA0080FF1FC08091D80080FF1BC08091D3
:10515000DA008E7F8093DA008091D90080FF0DC045
:1051600080E189BD82E189BD09B400FEFDCF81E007
:105170008093C1020E943B2405C019BC1092C10259
:105180000E9449248091E10080FF19C08091E200D3
:1051900080FF15C08091E2008E7F8093E2008091B5
:1051A000E20080618093E2008091D8008062809369
:1051B000D80019BC85E08093C1020E944E248091E2
:1051C000E10084FF30C08091E20084FF2CC080E1C8
:1051D00089BD82E189BD09B400FEFDCF8091D80070
:1051E0008F7D8093D8008091E1008F7E8093E100D5
:1051F0008091E2008F7E8093E2008091E2008160E6
:105200008093E2008091BD02882311F084E007C002
:105210008091E30087FD02C081E001C083E08093BC
:10522000C1020E9456248091E10083FF29C0809131
:10523000E20083FF25C08091E100877F8093E10039
:1052400082E08093C1021092BD028091E1008E7FC6
:105250008093E1008091E2008E7F8093E200809154
:10526000E20080618093E20042E060E080E00E9422
:105270007D278091F00088608093F0000E944C248C
:10528000FF91EF91BF91AF919F918F917F916F911E
:105290005F914F913F912F910F900FBE0F901F90F4
:1052A00018951F920F920FB60F9211242F933F93D0
:1052B0004F935F936F937F938F939F93AF93BF931E
:1052C000CF93DF93EF93FF93C091E900CF7080916C
:1052D000EC00D82FD17080FDD0E81092E9008091C9
:1052E000F000877F8093F00078940E9495291092B7
:1052F000E9008091F00088608093F000CD2BCF70A2
:10530000C093E900FF91EF91DF91CF91BF91AF91F1
:105310009F918F917F916F915F914F913F912F91CD
:105320000F900FBE0F901F9018951F93CF93DF9390
:10533000CDB7DEB7AA970FB6F894DEBF0FBECDBFCC
:10534000E2ECF2E08091F100819322E0EA3CF20786
:10535000C9F70E947E248091E80083FF2EC18091CE
:10536000C2029091C302492F50E04A30510508F023
:1053700024C1FA01EB58FF4F0C94392B803821F0EF
:10538000823809F01AC108C08091BE029091BF0214
:10539000992389F082600FC08091C6028F70873098
:1053A00008F00BC18093E9008091EB0085FB882712
:1053B00080F91092E9009091E800977F9093E800BF
:1053C0008093F1001092F100D1C0282F2D7F09F0B9
:1053D000F4C0882319F0823061F0EFC08091C402DC
:1053E000813009F0EAC0933009F080E08093BF0279
:1053F0002EC08091C40281112AC08091C6028F7094
:105400002FEF280F263008F0D8C08093E9002091B4
:10541000EB0020FF1CC0933021F48091EB008062F0
:1054200014C09091EB0090619093EB0021E030E08C
:10543000A90102C0440F551F8A95E2F74093EA0084
:105440001092EA008091EB0088608093EB0010924C
:10545000E9008091E800877F8093E8000E94B227EE
:10546000ACC08111AAC01091C4021F778091E300E3
:105470008078812B8093E3008091E800877F809380
:10548000E8000E94B2278091E80080FFFCCF809165
:10549000E30080688093E300111102C082E001C044
:1054A00083E08093C10289C08058823008F085C0B3
:1054B0008091C4029091C5028C3D53E0950779F527
:1054C00083E08A838AE289834FB7F894DE011396DA
:1054D00020E03EE051E2E32FF0E050935700E491EA
:1054E00020FF03C0E295EF703F5FEF708E2F90E0DA
:1054F000EA3010F0C79601C0C0968D939D932F5F40
:10550000243149F74FBF8091E800877F8093E800FE
:105510006AE270E0CE0101960E94BE2616C060913C
:10552000C6027091C702AE014F5F5F4F0E94BA255D
:10553000BC01892B09F441C09091E800977F9093BA
:10554000E80089819A810E941C278091E8008B776E
:105550008093E80032C0803881F58091E800877F31
:105560008093E8008091BD028093F1008091E80073
:105570008E7772CF811121C08091C4029091C502B3
:1055800099270297D4F48091E800877F8093E80000
:105590008091C4028093BD020E94B2278091BD0217
:1055A000811106C08091E30087FD02C081E001C047
:1055B00084E08093C1020E9460248091E80083FF10
:1055C0000AC08091E800877F8093E8008091EB001B
:1055D00080628093EB00AA960FB6F894DEBF0FBEF0
:1055E000CDBFDF91CF911F9108950895CF93809102
:1055F000C1028823A1F0C091E900CF709091EC0026
:10560000892F817090FD80E8C82B1092E90080916D
:10561000E80083FD0E949529CF70C093E900CF91E7
:105620000895AA1BBB1B51E107C0AA1FBB1FA617E9
:10563000B70710F0A61BB70B881F991F5A95A9F73B
:1056400080959095BC01CD01089597FB072E16F427
:10565000009407D077FD09D00E94112B07FC05D0DC
:105660003EF4909581959F4F0895709561957F4F79
:105670000895EE0FFF1F0590F491E02D099469271E
:10568000962769277827872778270895FC014150B6
:10569000504030F001900616D1F73197CF010895B0
:1056A000882799270895FB01DC0104C08D910190A2
:1056B000801921F441505040C8F7881B990B089578
:1056C000F999FECF92BD81BDF89A992780B50895CA
:1056D000A6E1B0E044E050E00C949A2BA8E1B0E0E1
:1056E00042E050E00C949A2B262FF999FECF92BD00
:1056F00081BDF89A019700B4021639F01FBA20BD97
:105700000FB6F894FA9AF99A0FBE08950396272FC8
:105710000E94752B0E94742B252F0E94752B242F1D
:105720000C94752B0196272F0E94752B0C94742BCB
:10573000DC01CB01FC01F999FECF06C0F2BDE1BD51
:10574000F89A319600B40D9241505040B8F7089540
:04575000F894FFCFFB
:10575400C8001C02280850011E0A14010010001081
:1057640010019223B52396230F240B24952301E2E1
:1057740000E900EA00B500B600B700CD008301CC13
:10578400008A0192019401210223022402250226A7
:105794000227022A02B300B4006F007000818283E2
:1057A400E200E900EA00B500B600B700CD008301CD
:1057B400CC008A01920194012102230224022502D1
:1057C400260227022A02B300B4006F00700081820F
:1057D40083C6F0F1F4F5F6F7676636353497969399
:1057E4009232313094910001020202020606060947
:1057F40009090909090F1040227BDE0641066306E8
:06580400E605FF051F068A
:00000001FF
