:100000000C9416040C944E040C944E040C944E0460
:100010000C944E040C944E040C944E040C944E0418
:100020000C944E040C944E040C94072F0C94D92F6E
:100030000C9448290C944E040C944E040C944E04D9
:100040000C944E040C944E040C944E040C944E04E8
:100050000C94E4210C94D0290C944E040C944E047E
:100060000C944E040C944E040C944E040C944E04C8
:100070000C944E040C944E040C944E040C944E04B8
:100080000C944E040C944E040C944E040C944E04A8
:100090000C944E040C944E040C944E040C944E0498
:1000A0000C944E040C944E040C944E042208220826
:1000B0004E084E08B608D408BB09BB09DF0847093B
:1000C00058095809F320F520FA20FD2000210321CA
:1000D0000621F223F523152426242E2439243C243A
:1000E00043244A24922492244F24522457246424E3
:1000F000712474247824852446306D3065316D3048
:100100006531B930DC3065313331423129001E00B0
:100110001F002000210022002300240025002600CB
:1001200027002D002E002A002A002B0014001A00A0
:100130000800150017001C0018000C001200130026
:100140002F00300031004C00390004001600070079
:1001500009000A000B000D000E000F0033003400F0
:10016000320028004A00E10064001D001B00060068
:100170001900050011001000360037003800E500B6
:1001800052004D00E000E300E20000002C000000FF
:100190002C002C000000E700E600500051004F004A
:1001A000015101003A003B003C003D003E003F0091
:1001B00040004100420043004400450001000100AE
:1001C0000100010001000100005C010001000100CC
:1001D0000100010001000100010001000100010017
:1001E0000100010001000100010001000100010007
:1001F000010001000100010001004B0001000100AD
:1002000001000100010001000100010001000100E6
:1002100001000100010001004E0001000100010089
:10022000000001000000AE0001000000010001001C
:1002300001000100010001000100010001000100B6
:1002400001000100010001000100010001000100A6
:100250000100010001000100010001000100010096
:100260000100010001000100010001000100010086
:100270000100010001000100010001000100010076
:100280000100010001000100010001000100010066
:100290000100010001000100010001000100010056
:1002A0000100010001000100010001000100010046
:1002B0000100010001000000010000000100010038
:1002C0000000010001000100010001000100010027
:1002D0000100010001000100010001000100010016
:1002E0000100010001000100010001000100010006
:1002F00001000100010001000100010001000100F6
:1003000001000100010001000100010001000100E5
:1003100001000100010001000100010001000100D5
:1003200001000100010001000100010001000100C5
:1003300001000100010001000100010001000100B5
:1003400001000100010001000100010000000100A6
:100350000000010001000000010001000100010097
:100360000100010000000000000000002A2B28000E
:100370000000000000000000000000000000002954
:10038000000000002C1E3420212224342627252E94
:10039000362D3738271E1F202122232425263333CC
:1003A000362E37381F0405060708090A0B0C0D0EF8
:1003B0000F101112131415161718191A1B1C1D2FC4
:1003C0003130232D350405060708090A0B0C0D0EE4
:1003D0000F101112131415161718191A1B1C1D2FA4
:1003E0003130354C0000000000000000000000002B
:1003F00000000000000000000000000000000000FD
:1004000000000000000000007E0F00D4FFFFFFC7C7
:10041000000000781E0F0500047F3F1F6432146443
:100420003214783C1E1E140A052223252628292A68
:100430002C2D2F3032333536383A3B3D3E40424347
:100440004547494A4C4E5051535557595A5C5E6086
:1004500062646668696B6D6F71737577797B7D7F98
:1004600081838587898A8C8E90929496989A9C9E97
:100470009FA1A3A5A7A8AAACAEAFB1B3B4B6B8B9B3
:10048000BBBCBEBFC1C2C3C5C6C7C9CACBCCCDCE1B
:10049000D0D1D2D2D3D4D5D6D7D7D8D9D9DADADBFE
:1004A000DBDBDCDCDCDCDCDDDDDDDDDCDCDCDCDC8A
:1004B000DBDBDBDADAD9D9D8D7D7D6D5D4D3D2D2C9
:1004C000D1D0CECDCCCBCAC9C7C6C5C3C2C1BFBEB1
:1004D000BCBBB9B8B6B4B3B1AFAEACAAA8A7A5A31C
:1004E000A19F9E9C9A98969492908E8C8A898785DB
:1004F00083817F7D7B79777573716F6D6B696866BA
:100500006462605E5C5A5957555351504E4C4A498B
:1005100047454342403E3D3B3A3836353332302F33
:100520002D2C2A292826252322FFAA7F55400000AA
:1005300000000000000000000001010203040506A5
:10054000080A0C0F1114181C2024292E33393F4699
:100550004C535B626A7179818A929AA2AAB2B9C13C
:10056000C8CFD5DCE1E7EBF0F4F7FAFCFDFEFFFEC7
:10057000FDFCFAF7F4F0EBE7E1DCD5CFC8C1B9B286
:10058000AAA29A928A8179716A625B534C463F397A
:10059000332E2924201C1814110F0C0A08060504F8
:1005A0000302010100000000000000000000000143
:1005B0000101010101010101020202020202020223
:1005C00002030303030303030304040404040404F5
:1005D00005050505050606060606070707070708B9
:1005E000080808090909090A0A0A0B0B0B0C0C0C6C
:1005F0000D0D0D0E0E0E0F0F0F1010111111121206
:1006000013131414151516161717181819191A1A82
:100610001B1B1C1D1D1E1E1F2020212222232424E3
:10062000252626272829292A2B2C2D2D2E2F30311F
:100630003232333435363738393A3B3C3D3E3F4031
:100640004142434445464748494A4C4D4E4F50511C
:100650005354555658595A5B5D5E5F6162646566D6
:1006600068696B6C6D6F7072737577787A7B7D7E5D
:100670008082838587888A8C8E8F91939596989AAD
:100680009C9EA0A2A3A5A7A9ABADAFB1B3B5B7BAC5
:10069000BCBEC0C2C4C6C9CBCDCFD1D4D6D8DBDD99
:1006A000DFE2E4E7E9EBEEF0F3F5F8FAFDFF18031B
:1006B000680036003500200068006F007400730089
:1006C00077006100700000001403480069006E00AC
:1006D0006500790020004C004C004300000004033A
:1006E000090409025B00030100A0FA0904000001EB
:1006F00003010100092111010001224000070581C9
:10070000030800010904010002030000000921118F
:1007100001000122220007058203200001070503D2
:100720000320000109040200010300000009211157
:10073000010001227B000705840320000112010053
:100740000200000008D804B7E80100010200010619
:1007500060FF0961A1010962150026FF009520755F
:100760000881020963150026FF0095207508910293
:10077000C005010902A10185020901A100050919AD
:100780000129081500250195087501810205010957
:100790003009311581257F950275088106093815C4
:1007A00081257F950175088106050C0A380215819F
:1007B000257F950175088106C0C005010980A1014A
:1007C000850319012AB700150126B7009501751098
:1007D0008100C0050C0901A101850419012AA002AC
:1007E000150126A002950175108100C005010906BA
:1007F000A101050719E029E71500250195087501F4
:1008000081029501750881010507190029FF15006E
:1008100026FF009506750881000508190129059530
:100820000575019102950175039101C011241FBE48
:10083000CFEFDAE0DEBFCDBF04B603FE18C0809173
:10084000540390915503A0915603B09157038730FC
:10085000904BA740B04B59F410925403109255039B
:100860001092560310925703E0E0F8E3099511E067
:10087000A0E0B1E0E4E5F6E602C005900D92A23EEC
:10088000B107D9F723E0A2EEB1E001C01D92A43573
:10089000B207E1F70E94EE140C9428330C94000088
:1008A00081E0089581E008950C94520408950C9419
:1008B00056041F93CF93DF9300D000D01F92CDB783
:1008C000DEB749835A836B833091E50189819A8130
:1008D000311114C0662359F0222349F00E944A0BBB
:1008E000182F682F89819A810E94F30A03C00E9401
:1008F0001E0B182F69817A81812F04C00E944A0B38
:1009000069817A810F900F900F900F900F90DF9177
:10091000CF911F910C94AD26FC01262F408151816F
:100920006281738184810C94590481E00895CF938E
:10093000DF93EC0160E00E948C04BE01DF91CF9157
:100940000C945704E1E0F0E0DF0102C0AA0FBB1FE6
:100950006A95E2F7BD01DF0102C0AA0FBB1F4A95ED
:10096000E2F7AD01462B01C0EE0F2A95EAF7942F6E
:100970009823491302C08E2B0895E0958E23089585
:10098000242F462F682F809104020E94A2040C9409
:10099000B00A0C949F130C949B1308950E944B0A69
:1009A0000E94CD042FEF84E39CE0215080409040D2
:1009B000E1F700C000000C94F6290F931F93CF932A
:1009C000DF938C0161E00E948C04EC01B8010E946D
:1009D0001323882309F452C0B801CE010E945404A5
:1009E000882309F44BC0B801CE010E94E42088237B
:1009F00009F444C0B801CE010E9413288823F1F104
:100A0000B801CE010E949F248823C1F1B801CE0114
:100A10000E946F27882391F1B801CE010E94F91E30
:100A2000882361F1F8018281882309F1CA358DE5B7
:100A3000D807C1F050F4C115FCE5DF0781F0CE3DC9
:100A4000DC45A9F40E946B1019C0CB35EDE5DE073B
:100A500061F0CC35DD4559F40E94AF0F08C00E940B
:100A6000CE040CC00E94B80F02C00E94BB0FC80188
:100A7000DF91CF911F910F910C94500480E0DF9192
:100A8000CF911F910F9108950E942A2980E00E9422
:100A90009C210E9445060C94661D0E9408200E941D
:100AA00048060E94321E0C943029DF92EF92FF928A
:100AB0000F931F93CF93DF93E82FF0E0EC59FC4F97
:100AC000D490282F26952695269530E0F901EC5FE5
:100AD000FB4F0491877010E0082E02C01595079512
:100AE0000A94E2F701701127F901EC50FC4FE490F1
:100AF000F12C082E02C0F594E7940A94E2F791E0F5
:100B0000E922FF24F901EC51FC4FC491D0E002C06E
:100B1000D595C7958A95E2F7C170DD2701151105B6
:100B200019F081EE0E94A706E114F10419F086EE97
:100B30000E94A7068D2D0E94D007EF2819F086EE9F
:100B40000E945107012B19F081EE0E945107CD2B15
:100B500051F08CE2DF91CF911F910F91FF90EF90B8
:100B6000DF900C94D007DF91CF911F910F91FF90F0
:100B7000EF90DF900895EF92FF920F931F93CF9322
:100B8000DF93EC01162F0AE08881882309F455C011
:100B9000813009F043C08981813041F47E0182E0D7
:100BA000E80EF11C8A810E94D00709C0823049F406
:100BB0007E01E2E0EE0EF11C8A810E94A706E701A9
:100BC0002FC0833041F47E01F2E0EF0EF11C8A81E8
:100BD0000E945107F4CF843011F0219621C02A8160
:100BE000229680E090E030E0205331092A30310530
:100BF00058F4089FA001099F500D1124C901840FCA
:100C0000951F21962881EFCF009751F0EFE9FFE083
:100C10003197F1F700C000000197F6CF0E9455050B
:100C20002196812F882309F4AFCFEFE9FFE03197B8
:100C3000F1F700C000008150F5CFDF91CF911F91F7
:100C40000F91FF90EF90089560E00C94BB0508951C
:100C50000C94270681E00895CF93C82F0E942A069E
:100C6000882329F0C1FF02C0769A01C07698CF91FF
:100C700008956E9A76980895CF93C82F0E942806FB
:100C80008C2F0E942C06CF91089580E00C943C0696
:100C90000E946F280C943C060E946F289091E401FA
:100CA000891721F08093E4010C943C060895CF93BA
:100CB000DF93CDB7DEB72B970FB6F894DEBF0FBE2C
:100CC000CDBF4F83588769877A878B8761110E94D0
:100CD000FB0E9E012F5F3F4F86E0F90111928A952E
:100CE000E9F785E0FE013796D90101900D928A95CA
:100CF000E1F789819A814C815D81452B31F09F3FDD
:100D000031F491E08F3F19F403C091E001C090E00D
:100D100090FF09C049815A816B817C818D819E81C0
:100D20000E941C0E05C0C9010E9495048111F2CFDA
:100D30002B960FB6F894DEBF0FBECDBFDF91CF91DB
:100D40000895FC01808191810E94770B0895CF93D3
:100D5000882309F4A4C0C82F8238C1F40E946F28E8
:100D600081FD9DC069E380910601909107010E9479
:100D700002290E941D0F2FEF81EE94E02150804048
:100D80009040E1F700C0000069E319C0833801F525
:100D90000E946F2880FD83C063E5809106019091D9
:100DA00007010E9402290E941D0F2FEF81EE94E09F
:100DB000215080409040E1F700C0000063E5809141
:100DC0000601909107010E940429CF910C941D0FF8
:100DD0008438C1F40E946F2882FD61C067E480916D
:100DE0000601909107010E9402290E941D0F2FEF1A
:100DF00081EE94E0215080409040E1F700C0000077
:100E000067E4DDCF8CEF8C0F813AD0F46C2F8091AA
:100E10000601909107010E94CC28882349F06C2F8D
:100E200080910601909107010E9404290E941D0FE4
:100E30006C2F80910601909107010E940229C5CF75
:100E400080E28C0F883048F4C77081E001C0880FC1
:100E5000CA95EAF70E94DE0EB8CFEBE5EC0FE3305F
:100E600040F4F0E0E05AFE4F808190E0CF910C9486
:100E70009428E8E5EC0FE73150F4F0E0EE0FFF1FA7
:100E8000EE5CFE4F80819181CF910C94AA28C03FE7
:100E900030F08C2F0E947315CF910C944516CF9192
:100EA0000895882309F464C0823879F40E946F2879
:100EB00081FF5EC069E380910601909107010E9465
:100EC00002290E941D0F69E310C08338B1F40E940B
:100ED0006F2880FF4DC063E5809106019091070166
:100EE0000E9402290E941D0F63E5809106019091E6
:100EF00007010E9404290C941D0F843879F40E9484
:100F00006F2882FF35C067E4809106019091070148
:100F10000E9402290E941D0F67E4E7CF9CEF980F03
:100F2000913A10F4682FE1CF90E2980F983050F486
:100F3000877091E001C0990F8A95EAF7892F0E9486
:100F4000E40ED9CF9BE5980F933020F480E090E039
:100F50000C94942898E5980F973120F480E090E065
:100F60000C94AA28803F20F00E94CE150C944516C0
:100F700008951F93CF93DF93182FEB010E94A706CC
:100F8000209741F08FE99FE00197F1F700C0000042
:100F90002197F6CF812FDF91CF911F910C945107AC
:100FA000893319F060E070E002C060E570E00C94F5
:100FB000B907882321F00E94DE0E0C941D0F0895BE
:100FC000882321F00E94E40E0C941D0F0895CF9207
:100FD000DF92EF92FF920F931F93CF93DF937C01E9
:100FE000162FC72FFC01D281058102950F700E9438
:100FF000D40E8823B9F0DD23A9F08C2F807F8034B4
:1010000021F080E2810F883068F08091F50282FD46
:1010100009C082E00E947D0F0E94D40E91E0D82E7C
:10102000D92601C0D12CCC2EC2948FE0C8228C2DA1
:1010300090E08C30910508F09EC1FC01EA5AFF4F08
:101040000C940D328C2F807FCF70882311F0C295C5
:10105000C07FDD2399F0CC2309F479C180E2810FB0
:10106000883010F0111104C08C2F0E94DE0E03C0D6
:101070008C2F0E94EE0E0E941D0F69C1812F0E94CD
:101080005107CC2309F477C180E2810F883038F111
:10109000112329F18C2F0E94F40E24C08C2F807F05
:1010A000CF70803211F0C295C07F112319F011303A
:1010B000A1F13DC08091F50282FF17C0DD2349F008
:1010C000CC2329F08C2F0E94DE0E0E941D0F80E0A1
:1010D0003FC180E00E945107CC2309F44CC18C2F02
:1010E0000E94E40E0E941D0F46C1DD2371F0002313
:1010F00041F0013031F40E94FE0E8C2B0E94060F4D
:101100003AC10E94FE0E8C2B1DC0002319F0013045
:1011100009F431C10E94130F25C0DD2321F00630F0
:1011200008F029C10EC0053008F025C11BC0DD2321
:1011300061F0002331F0F701858180FF08C18F70D5
:1011400085838C2F0E94D90716C1002359F01933CB
:1011500009F00EC1FFEF27EE83E0F1502040804000
:10116000E1F704C18C2F0E94E00705C18C2F869502
:101170008695837019F0813061F0FDC0DD2321F088
:10118000812F9C2F937002C080E090E00E949428F1
:10119000FAC0DD2321F0812F9C2F937002C080E0E4
:1011A00090E00E94AA28EFC0812FDD2319F00E9451
:1011B000731502C00E94CE150E944516E4C08C2F04
:1011C000837079F5D111DBC0412F42954695477068
:1011D000440F440F212F2F70042E01C0220F0A94B8
:1011E000EAF714FF08C08FE090E001C0880F4A952D
:1011F000EAF7809501C080E0C695C695C370822B42
:10120000C23049F058F4C13019F00E94A40AB7C0A6
:101210000E949F0AB4C00E94A90AB1C00E949D0A00
:10122000AEC0DD2319F08C2F817001C08695882314
:1012300009F4A5C0412F429546954770440F440FCD
:10124000212F2F70042E01C0220F0A94EAF714FFF9
:1012500008C08FE090E001C0880F4A95EAF78095BA
:1012600001C080E0C695C695C370822BC23049F09C
:1012700058F4C13019F00E94E80A81C00E94E30AC4
:101280007EC00E94ED0A7BC00E94B00A78C0CF7079
:10129000DD2339F08C2F0E94C10A812F0E94D907CB
:1012A0006EC0812F0E94E0078C2F0E94CC0A67C07D
:1012B000123F21F128F4103F41F0113FC1F043C02B
:1012C000133F19F1143F79F03EC0DD2341F00530A2
:1012D00008F051C08C2F8F710E94D80A4CC0063084
:1012E00008F049C0F7CF8091F50282FF18C0DD23D6
:1012F00039F08C2F8F710E94C10A3DC0DD23C9F3E4
:101300008C2F8F710E94CC0A36C0DD2329F08C2FE0
:101310008F710E94B90A2FC00E94B60A2CC0DD232B
:1013200049F0CF718C2F0E94C10A63E08C2F0E947C
:10133000620F21C081E00E947D0F0230E0F082E068
:101340000E947D0F18C0DD2331F0002391F2812F20
:101350000E94A70610C0002399F2193349F49FEFA9
:10136000E7EEF3E09150E040F040E1F700C000000C
:10137000812F0E94510788EF8C0D843020F40E9449
:101380006F280E943C06DD20C9F00E94D00E80FD2F
:1013900015C0F70112820E94CA0E0E94C10AC7013D
:1013A0000E94FF090E94CA0EDF91CF911F910F91F9
:1013B000FF90EF90DF90CF900C94CC0ADF91CF910B
:1013C0001F910F91FF90EF90DF90CF9008950F93B2
:1013D0001F93CF93DF93EC01688179818A810E940A
:1013E000820B8C010E94F20A0E94910AB801CE0180
:1013F0000E94E707DF91CF911F910F910895CF933E
:10140000DF93EC01988189812B813C81232B31F082
:101410008F3F31F481E09F3F19F403C081E001C0A8
:1014200080E080FD1DC0CE010E94DD04811110C04E
:101430000E94D40E8823A1F08A81882389F08091AC
:10144000F50282FD0DC082E0DF91CF910C947D0FFB
:10145000CE010E94E709CE01DF91CF910C94970451
:10146000DF91CF91089580E090E00E94942880E081
:1014700090E00E94AA280E94FB0E0E941D0F0E946D
:1014800076170C94451680910601909107010E94F1
:1014900006290C94330A0E94EB0E0C94430A929591
:1014A0009F70963079F010F4925001C09A509230AB
:1014B00068F4803F69F018F4883E40F409C0843F26
:1014C00029F406C0883E20F0813F11F080E00895A5
:1014D00081E00895FC01808191810E94770B0E9438
:1014E0004F0A0895CF93DF9300D000D01F92CDB75D
:1014F000DEB70F900F900F900F900F90DF91CF916C
:101500000895CF93DF9300D000D000D0CDB7DEB7E1
:1015100026960FB6F894DEBF0FBECDBFDF91CF91F8
:101520000895089508950C94920A0C94930A0E94C9
:10153000950A809305020C94330A0C94970A9091B3
:101540000502892B0C94970A9091050289230C942B
:10155000970A9091050289270C94970A0C94920A95
:101560000E94AE0A809304020C94330A80E00C942B
:10157000B00A91E001C0990F8A95EAF7892F0C947F
:10158000B00A21E030E001C0220F8A95EAF780918D
:101590000402822B0C94B00A21E030E001C0220F3B
:1015A0008A95EAF720958091040282230C94B00A70
:1015B00021E030E001C0220F8A95EAF78091040211
:1015C00082270C94B00A90910402892B0C94B00AE3
:1015D0009091040289230C94B00A90910402892707
:1015E0000C94B00A08952FE0929F800D1124E82FEB
:1015F000E695E695E695877051E001C0550F8A950E
:10160000EAF783E0E89FF0011124EA51FE4F20E061
:1016100030E070E04081CB01022E02C096958795A4
:101620000A94E2F78170819584278523842781932A
:101630002F5F3F4F2330310569F708952FE0929FC8
:10164000800D1124682F669566956695982F977082
:1016500083E0689FB001112440E050E080E0FB018E
:10166000E40FF51FEA51FE4F208130E0092E02C041
:10167000369527950A94E2F721703327042E01C08E
:10168000220F0A94EAF7822B4F5F5F4F43305105D8
:1016900031F70895CF92DF92FF920F931F93CF936C
:1016A000DF936C010091040280910502082BC7E0D2
:1016B000D0E010E0C8010C2E02C0959587950A94E1
:1016C000E2F780FD04C02197A8F7F12C07C0FC2E9B
:1016D000B6018C2F0E9476120197A9F38F2DDF910E
:1016E000CF911F910F91FF90DF90CF900895CF93EE
:1016F000DF93EC010E944A0BBE010E947612DF913B
:10170000CF9108951F93CF93DF93EB019091E50163
:10171000992321F0CB010E94770B13C0882349F055
:10172000CB010E944A0B182F682FCE010E94F30AAA
:1017300004C0CB010E941E0B182FBE01812F0E94F6
:101740007612DF91CF911F9108951F93CF93DF936E
:10175000C091060216E080910702C81799F0D0E008
:101760001C9FF0011D9FF00D1124E85FFD4F40818B
:10177000518162817381848195810E94810A2196C1
:10178000C770E9CFDF91CF911F9108954091380242
:101790005091390260913A0270913B0280913C0273
:1017A00090913D020C94810AEF92FF920F931F9348
:1017B000CF93DF9380913D0282958F7009F065C0D1
:1017C00080913A02882309F460C080910602F0906B
:1017D0000702109138020091390260913B0270912A
:1017E0003C0291E01F3F09F090E0C0910401D091CC
:1017F0000501292F96E0E92E8F1509F446C06115E1
:10180000710521F00F3F21F030E003C031E001C04D
:10181000322F90E030FD36C0E89EF001E99EF00DD9
:101820001124DF01A85FBD4F11963C911197301331
:1018300029C03C91311326C012963C911297311168
:1018400021C013964D915C911497461B570B4C1772
:101850005D07C0F480913D028F70806180933D02EE
:10186000E35FFD4F80818F708061808388E392E029
:101870000E94FF09DF91CF911F910F91FF90EF9090
:101880000C94A50B01968770B7CFDF91CF911F9174
:101890000F91FF90EF9008959F92AF92BF92CF92D9
:1018A000DF92EF92FF920F931F93CF93DF93CDB709
:1018B000DEB761970FB6F894DEBF0FBECDBF8C01C7
:1018C00085E0F801DE011D9601900D928A95E1F701
:1018D000D8011296EC9090913802E0913902209153
:1018E0003B0230913C022115310531F0EF3F31F4DC
:1018F00081E09F3F19F403C081E001C080E0B82F70
:10190000B1709B2E80FD47C1D8014C9111965C911E
:1019100011971396AD90BC90149788E3C82E82E07F
:10192000D82EF0903A02B501621B730B209104018E
:1019300030910501FF2009F4D9C080913D02621762
:10194000730708F095C0282F207F09F052C05E135E
:1019500013C0491311C0FE2CE1100EC08F708061BE
:1019600080933D020E94C60BC6010E94FF09809130
:101970003D02F80185834DC1AB2831F05F3F31F462
:1019800081E04F3F19F403C081E001C080E080FD99
:1019900003C081E08E2502C080E090E0F82FF17056
:1019A000FF2E80FF1CC0809106022091070236E0C6
:1019B000821709F40BC190E0389FF001399FF00DB8
:1019C0001124E85FFD4F6181561306C06081461304
:1019D00003C06281E61203C001968770E9CFFE2C36
:1019E000EE2009F416C180913D02816080933D0292
:1019F00054C05E1306C0491304C0E11002C0F801D0
:101A000099C0C8010E946A0A882361F1EE2051F151
:101A100020913D02822F82958F7090E0029774F0A2
:101A2000809138029091390298878F831986BB86FE
:101A3000AA862C87CE0107960E94FF0986E0F8014E
:101A4000A8E3B2E001900D928A95E1F70E94D40BD1
:101A50000E94C60B0AC05E1711F1C8010E946A0AF3
:101A600081112CC0C8010E94FF09FF24F394D1C04A
:101A7000282F207F81F77A2DB98AA88A6E2D89892F
:101A80000E94720A88E392E00E94FF0986E0D60174
:101A90001D928A95E9F70E94C60BF12CBAC0491332
:101AA000DCCFE110DACFF8018583C8010E94FF097D
:101AB00086E0D6011D928A95E9F7ABC0EE2091F23F
:101AC00020913D02822F82958F7090E002970CF456
:101AD000B5CF80913802909139029A8389831B8215
:101AE000BD82AC822E83CE010196A6CF621773070A
:101AF00008F044C0FE2CEE2009F4B4CF5E1330C0D1
:101B000049132EC020913D0220FD21C0822F8295D5
:101B10008F70482F50E041155105C9F0F801258319
:101B20004F30510541F08F5F982F9295907F822F13
:101B30008F70892B8583C8010E94FF0986E0F80118
:101B4000A8E3B2E001900D928A95E1F73CC086E0EF
:101B5000F801A8E3B2E001900D928A95E1F759C02F
:101B6000C8010E946A0A811169CF80913D0281609B
:101B700080933D02C8010E94FF094BC07A2DB98AAB
:101B8000A88A6E2D89890E94720A86E0D6011D926C
:101B90008A95E9F718C0EE2009F464CFC8010E94C5
:101BA0006A0AF82E882309F45DCF86E0F801A8E3DD
:101BB000B2E001900D928A95E1F788E392E00E94ED
:101BC000A1060E94D40B0E94C60B23C04D875E87DE
:101BD0008D859E850E94770B292F22952F702230AC
:101BE00028F49F7039F0811105C00BC0243028F40F
:101BF0009F7049F4805E883020F0C8010E94FF0980
:101C00009F2CF92C06C0D80115969C91907F91F7D6
:101C1000F8CF8F2D61960FB6F894DEBF0FBECDBF03
:101C2000DF91CF911F910F91FF90EF90DF90CF90B8
:101C3000BF90AF909F9008951F93CF93DF93CDB740
:101C4000DEB72C970FB6F894DEBF0FBECDBF4F8323
:101C5000588769877A878B879C87CE0107960E9471
:101C60004C0C8823D1F09F8188852A853B85232BC6
:101C700031F08F3F31F481E09F3F19F403C081E0E0
:101C800001C080E080FD47C04F81588569857A8515
:101C90008B859C850E94810A3EC086E0FE013796B6
:101CA000DE01119601900D928A95E1F7FF81E8859A
:101CB0006A857B856115710531F0EF3F31F481E074
:101CC000FF3F19F403C081E001C080E080FD23C024
:101CD0002091070230E0C901019687709927409151
:101CE000060250E084179507F1F1F983EA837D83BA
:101CF0006C8396E0929FD001939FB00D1124A85F52
:101D0000BD4FFE01319601900D929A95E1F78093B7
:101D100007020E94A50B16E080910602909107022F
:101D2000891771F1189FC0011124885F9D4F0E948F
:101D30004C0C882329F1E09106021E9FF00111242A
:101D4000E85FFD4F4081518162817381848195817B
:101D50000E94810A8091060290E00196877099277F
:101D600080930602D9CF0E944B0A1092070210926C
:101D70000602E8E3F2E086E0DF011D928A95E9F7CA
:101D80002C960FB6F894DEBF0FBECDBFDF91CF917A
:101D90001F910895809146028595859585950895B2
:101DA000809146028770089590914602977081E075
:101DB00009F480E0089580915102089590915102B4
:101DC000892B809351020895809590915102892327
:101DD00080935102089510925102089590915002FB
:101DE000892B809350020895809590915002892309
:101DF00080935002089510925002089580914702F6
:101E0000089508950C94010F0C94020F9091F5021F
:101E100092FD08C090914702981721F080934702E5
:101E20000C94040F089580914702882329F01092A2
:101E3000470280E00C94040F0895CF93DF93E09164
:101E40000601F0910701809151028083E091060123
:101E5000F0910701908180915002892B80838091BD
:101E60004702882381F0E0910601F09107019081FB
:101E7000892B808380910601909107010E94C028E0
:101E800081110E94130FC0910601D091070148E013
:101E900050E06EE372E0CE010E94B432892B69F00B
:101EA00088E0FE01AEE3B2E001900D928A95E1F781
:101EB000CE01DF91CF910C947B28DF91CF910895D3
:101EC0000C94010F9091F50292FD10C098E0899F4B
:101ED00090011124262B209346020E94C10A809172
:101EE00046028595859585950C94600F0C94C10AE2
:101EF0001092460280E00C94600F2091460280957B
:101F0000822380934602982F977099F430E0482FEF
:101F1000082E000C550B2417350759F09091F50247
:101F200092FD07C08595859585950E94CC0A0C94F5
:101F3000780F08959091F50292FB222720F9281737
:101F400069F080FB92F99093F5028091F4029091F0
:101F5000F5020E94E80F82E00C947D0F08958091B5
:101F6000F50282FB882780F991E089270C949A0F6B
:101F700081E00C949A0F80E00C949A0F6FEF7FEF42
:101F800080E090E00C94F33280E090E00E94CF3249
:101F9000893E9E4F11F40C94AB2280E0089582E0BC
:101FA00090E00C94C13283E090E00C94C132CF9366
:101FB00084E090E00E94C132C82F82E290E00E944B
:101FC000C1322C2F30E0A901582BCA01CF910895BE
:101FD000CF93C92F682F84E090E00E94D5326C2FF8
:101FE00082E290E0CF910C94D532AB01BC018FE03E
:101FF00090E00C94E732AB01BC0183E190E00C94DB
:10200000E73260E070E0CB010C94FB0F60E070E021
:10201000CB010E94F50F0C94011069EE7EEF80E079
:1020200090E00E94F33260E082E090E00E94D532BE
:1020300060E083E090E00E94D5321092050260E0FB
:1020400084E090E00E94D53260E082E290E00E945D
:10205000D53260E085E090E00E94D53260E086E015
:1020600090E00E94D5326FEF87E090E00E94D53279
:1020700040E050E0BA0188E090E00E94E73260E082
:102080008DE090E00E94D53240E050E0BA0188E156
:1020900090E00E94E73260E087E190E00E94D53254
:1020A00040E050E0BA018CE190E00E94E73260E04D
:1020B00070E080E290E00E94F33240E050E0BA012C
:1020C00088E190E00E94E73280E00E94C4220E94F2
:1020D000F7220C9406100C940D10682F8EE090E0FF
:1020E0000C94D5320E94B52960936002709361020E
:1020F000809362029093630260935C0270935D022E
:1021000080935E0290935F02089585B7806885BFD3
:1021100085B7806885BF089581E008950C948C1080
:1021200008950C9490100C9490100C9493100C94AF
:1021300090100C9497100C9490100E94851082E5DA
:1021400093E10E9465280E949B100C9499100E94B4
:1021500091100C9490100E946C130E9439060C94FC
:102160006A220E94A0290E9406230E9447140E940E
:10217000AB100E9408200E94F71D0C9495105F92EE
:102180006F927F928F929F92AF92BF92CF92DF9287
:10219000EF92FF920F931F93CF93DF93CDB7DEB7EC
:1021A0002A970FB6F894DEBF0FBECDBF0E945C1415
:1021B000C82E81110E94721032E5832E32E0932ED8
:1021C00000E010E0502E802F0E9486135C01F40185
:1021D000619071904F016826792661147104B1F401
:1021E0000F5F1F4F0530110569F78FEF89838A83D1
:1021F0001B820E94A9298160782F9D838C8349814D
:102200005A816B818D810E9457063AC08091640289
:1022100081FD0E948F13D12CEE24E394F12CC30195
:102220008E219F21892B29F10E948E108823A9F0ED
:10223000DE825F82AE20BF2081E0AB2809F480E01F
:1022400088870E94A9298160782F9A8789874E8183
:102250005F8168858A850E945706000F111FF8016B
:10226000EE5AFD4F80819181E826F926F182E082C5
:1022700007C0D394EE0CFF1CFFE0DF12D0CFB0CF2D
:1022800081E0C11001C080E02A960FB6F894DEBF4D
:102290000FBECDBFDF91CF911F910F91FF90EF90B7
:1022A000DF90CF90BF90AF909F908F907F906F9076
:1022B0005F9008950E94BF100E943B1E0E94CE2195
:1022C0000E9463160C944C06CF93DF930E947B12FE
:1022D000EC01811521E5920708F045C0811530E534
:1022E000930708F094C0883E910528F5803E91053B
:1022F00008F0F8C0883A910570F4853A910508F025
:102300007CC08130910509F475C008F4E8C00497D9
:1023100008F0E8C0E4C08F3B910508F0E0C0C85A5F
:10232000D0E0CC0FDD1FCD59DE4F0990D881C02DF4
:10233000CE019464D8C0811540E2940758F4811509
:1023400051E0950708F0CEC0803F910508F4C7C062
:102350009065C9C0C11580E4D80708F4C0C0DF701B
:10236000CE01906AC0C0811525E59207A8F48115B9
:1023700034E5930708F095C0811543E5940708F00C
:102380007BC0811552E5950708F061C0D82FCC2796
:10239000CE01816F906AA7C0C11589E5D807A0F466
:1023A000C11528E5D20708F082C0C11536E5D3076C
:1023B00008F095C08C2F0E940F138F7190E0D82FDA
:1023C000CC27CE0190628FC0C1154AE5D40708F42E
:1023D00074C0CE0190568115904208F080C08D2FB8
:1023E0008F710E940F13DD27D0628F71AE01582BC1
:1023F000CA0179C081E090E076C0C55AD0E0CF56DE
:10240000DE4F8881C82FD0E0CE0190646CC074E0AC
:10241000969587957A95E1F7282F23703C2F337096
:1024200081E090E002C0880F991F3A95E2F79C681E
:10243000AC01522B9A019C2F9F709695969550E275
:10244000959FE0011124C9018C2B9D2B4CC08370FA
:10245000992721E030E002C0220F331F8A95E2F76E
:102460009C2F9695969580E2989FE0011124C22BAF
:10247000D32BCE019C6837C08370992721E030E0D0
:1024800002C0220F331F8A95E2F79C2F96959695EE
:1024900040E2949FE0011124C22BD32BCE019A6815
:1024A00022C0D82FCC27CE01846F906A1CC0DC2FAD
:1024B000CC27CE01806F906A16C08C2F8F700E943F
:1024C0000F1394E0D695C7959A95E1F7CF70D0E0B9
:1024D000DC2FCC27D0699E01282BC90104C080E0E5
:1024E00090E001C0CE01DF91CF9108950E94AD260A
:1024F0000E94641108958238910569F1B0F4813326
:10250000910509F46DC048F48932910509F463C05E
:102510008A32910509F469C008958533910509F45B
:1025200055C089339105B9F00895833E910569F14D
:1025300038F4803E9105B1F0823E910509F108958D
:10254000863E9105A9F1873E9105B9F1843E91053A
:1025500009F064C023C02091F40220FD4FC021FD8A
:102560004DC008958091F40280FD44C08091F50231
:1025700080FF44C08091F40284FD42C083EE4DC0D0
:102580008091F40282FF38C0F5CF8091F40282FD81
:1025900033C08091F50280FD31C0ECCF8091F5020F
:1025A00081FF32C08091F40284FD2AC087EE35C0DD
:1025B0008091F40283FF26C0F5CF8091F40283FD61
:1025C00021C08091F50281FD1FC0ECCF8091F40203
:1025D00085FD1CC01DC08091F40285FD19C016C088
:1025E0008091F40286FD16C017C08091F40286FD2A
:1025F00013C010C089E311C082EE0FC080EE0DC081
:1026000080E00BC086EE09C084EE07C089E205C0F9
:1026100085E303C08AE201C081E390E008959091D0
:10262000F40292FF0DC0282F2871283019F4877FFB
:10263000846006C0282F2471243011F48B7F8860B9
:1026400093FF0DC0282F2871283119F4877E8461EB
:1026500006C0282F2471243111F48B7E88612091CB
:10266000F50220FF0DC0382F3871383019F4877FFC
:10267000816006C0382F3171313011F48E7F88604F
:1026800021FF0DC0282F2871283119F4877E816120
:1026900006C0282F2171213111F48E7E886194FDAE
:1026A000877E089580E008950C94BE0F0E945C140C
:1026B0008FE39CE90197F1F700C000000E945C14D1
:1026C00080E00E94861380FF04C00E9454130C9483
:1026D000F62908950C9456130E94C40F811102C06C
:1026E0000E946B100E94CF0F809364020E94D70F4C
:1026F0009093F5028093F4020E946A130E94D30F14
:102700000E949D0A809104020C94AE0AE82FF0E02A
:10271000EE0FFF1FE050FD4F8081918108950895D5
:1027200080EA8A95F1F7089500C008950C949013FB
:1027300008950C9498130C9499130C9498130C947A
:102740009D13F894E82FE295EF70F0E031A1282F67
:102750002F7081E090E001C0880F2A95EAF7982F4A
:102760009095932391A392A1892B82A378940895A5
:102770000F931F93CF93DF93C3EAD1E089918F3FEB
:1027800011F00E94A11381E0C83AD807B9F7C4E953
:10279000D1E003EA11E089918F3F11F00E94A1136B
:1027A0000C171D07C1F7DF91CF911F910F9108956D
:1027B000BF92CF92DF92EF92FF920F931F93CF932E
:1027C000DF938C01C62FD0E0CE018D559E4F6C015A
:1027D000FC0190819F3F09F450C0B62EF894E92F78
:1027E000E295EF70F0E081A19F7021E030E001C040
:1027F000220F9A95EAF7822B81A382A120952823A4
:1028000022A378940E949413E4E9F1E043EA51E0B2
:1028100021E030E0E12CF12C61916F3F89F0A62F8F
:10282000A295AF70B0E090968C9190E06F7002C06E
:10283000959587956A95E2F780FD02C0C90102C0AF
:1028400080E090E0E82AF92A220F331F4E175F0735
:1028500019F7F60180818F3F11F00E94A11361E00A
:10286000E114F10409F460E08B2D0E949613CC0F63
:10287000DD1FC00FD11FF982E882DF91CF911F9138
:102880000F91FF90EF90DF90CF90BF9008950E943E
:10289000B8138AE0E0E0F3E0DF01982F1D929A95EB
:1028A000E9F7E6EFF2E0DF011D928A95E9F785E0AE
:1028B0000E94A7140C94C904FF920F931F93CF9307
:1028C000DF93CDB7DEB72A970FB6F894DEBF0FBE01
:1028D000CDBF8E010F5F1F4F8AE0F80111928A95DC
:1028E000E9F7F12C6F2DC8010E94D813F394F5E09D
:1028F000FF12F8CF4AE050E0B80186EF92E00E9464
:10290000B432FF24F394009709F4F12C892B41F0A1
:102910008AE0F801A6EFB2E001900D928A95E1F706
:102920002F2D45E060E073E086EF92E00E94A8144E
:102930000E94CB048F2D2A960FB6F894DEBF0FBEEF
:10294000CDBFDF91CF911F910F91FF900895089512
:10295000FF920F931F93CF93DF93F82E092F162F1B
:10296000D72FC42F222349F081E0809367020E9471
:10297000A92990936602809365028091670288235B
:10298000D9F080916502909166020E94C129059755
:1029900098F0EF2DF02FA12FBD2F80E090E04C2F6D
:1029A00050E08417950734F4219131912D933D9394
:1029B0000196F7CF10926702DF91CF911F910F918F
:1029C000FF9008950E94DF2B0E94B1100C94EB2B16
:1029D0000E94EF2B0E945A110C94092C0E94472947
:1029E0000E94C62B0E949D100E94E2140E94E814CF
:1029F0000E94A710FBCF80916E0280FF06C06091FD
:102A00000D0170E0660F771F26C081FF04C0609142
:102A10000D0184E005C082FF07C060910D0188E0D0
:102A2000689FB001112417C090916D029923D1F0D5
:102A300060910C01961788F720910D0188E0289F7E
:102A400090011124929FA001939F500D112470E0DA
:102A5000CA010E94D7316038710540F461157105D3
:102A600019F406C068E070E0862F08958FE7089596
:102A700081E0089580916E0280FF08C06091090195
:102A800070E0759567957595679521C081FF06C0C3
:102A90006091090170E07595679519C082FF04C0C7
:102AA0006091090170E010C090916C02992399F037
:102AB000609108019617A0F780910901899FC001D4
:102AC000112470E00E94D7316038710540F461151F
:102AD000710519F406C061E070E0862F08958FE754
:102AE000089581E00895803F21F40E94FB148195B0
:102AF00004C0813F29F40E94FB1480937202089560
:102B0000823F21F40E94FB14819504C0833F29F485
:102B10000E94FB14809371020895893F19F40E946A
:102B20003A1505C08A3F31F40E943A158195809389
:102B3000730208958B3F21F40E943A15819504C0D9
:102B40008C3F29F40E943A158093740208959CE00A
:102B5000980F953078F421E030E0A90102C0440FCD
:102B6000551F9A95E2F7CA0190917002892B8093C4
:102B7000700208958D3F21F480916E0281600BC038
:102B80008E3F21F480916E02826005C08F3F29F450
:102B900080916E02846080936E020895803F39F4C4
:102BA0009091720297FF35C01092720259C0813F16
:102BB00029F4909172021916BCF32BC09091710206
:102BC000823F29F497FF25C01092710249C0833FCC
:102BD00019F41916CCF31DC090917302893F29F4A2
:102BE0001916BCF4109273023BC08A3F19F497FF88
:102BF00010C0F8CF8B3F39F49091740297FF09C051
:102C0000109274022DC08C3F21F490917402191619
:102C1000BCF39CE0980F953080F421E030E0A901EE
:102C200002C0440F551F9A95E2F7CA018095909112
:102C3000700289238093700213C08D3F21F480912C
:102C40006E028E7F0BC08E3F21F480916E028D7FCD
:102C500005C08F3F29F480916E028B7F80936E02B6
:102C600080917102811106C080917202811102C0AF
:102C700010926D0280917302811106C080917402DE
:102C8000811102C010926C0208950E94A92920911E
:102C90007102211104C020917202222321F090932D
:102CA0006B0280936A0220917302211104C020916B
:102CB0007402222321F090936902809368028FE6C8
:102CC00092E00C948628EF92FF920F931F93CF937C
:102CD000DF9300D000D000D0CDB7DEB786E0EFE6BE
:102CE000F2E0DE01119601900D928A95E1F7E090F5
:102CF0007102F090720200917302109174021092AE
:102D00007102109272021092730210927402E1101A
:102D100003C0FF2009F45DC080916A0290916B02AC
:102D20000E94C129AC0190916D02992339F0209144
:102D30000E0130E02417350758F04BC020910F01E9
:102D40008AE0289F900111242417350718F041C00C
:102D50009F3F19F09F5F90936D02EE2061F00E94FB
:102D6000FB141E1414F09FEF01C091E0989F902D6A
:102D7000112490937102FF2061F00E94FB141F1434
:102D800014F09FEF01C091E0989F902D1124909333
:102D90007202309171023323E1F0209172022223FA
:102DA000C1F045EB3403C0011124992319F090932D
:102DB000710203C081E08093710235EB2303C001EF
:102DC0001124992319F09093720203C081E080933B
:102DD0007202011103C0112309F45DC080916802E1
:102DE000909169020E94C129AC0190916C029923D3
:102DF00039F020910A0130E02417350758F04BC014
:102E000020910B018AE0289F900111242417350797
:102E100018F041C09F3F19F09F5F90936C02002310
:102E200061F00E943A15101614F09FEF01C091E076
:102E3000989F902D112490937302112361F00E94AA
:102E40003A15111614F09FEF01C091E0989F902D54
:102E5000112490937402309173023323E1F0209196
:102E600074022223C1F045EB3403C00111249923DD
:102E700019F09093730203C081E08093730235EBE5
:102E80002303C0011124992319F09093740203C005
:102E900081E0809374028091710281110BC0809156
:102EA0007202811107C080917302811103C0809169
:102EB000740281110E944516EB82FC820D831E83F1
:102EC00086E0FE013196AFE6B2E001900D928A9560
:102ED000E1F726960FB6F894DEBF0FBECDBFDF91A7
:102EE000CF911F910F91FF90EF900895EFE6F2E0E0
:102EF00086E0DF011D928A95E9F710926D0210922B
:102F00006C0210926E020895EF92FF920F931F933E
:102F1000CF93DF938B01682F11110AC0442329F04E
:102F2000E82FF0E0E255FA4F6491762F862F75C0B6
:102F3000212F30E0E82FF0E0442321F0E255FA4F52
:102F4000E491F0E046E0049FC0011124CFEFD0E00F
:102F5000BE010E94C3314BEA4603C001479F900D5A
:102F60001124800F911D800F911D982F990F890FAB
:102F7000AE01421B530B4E9FD0014F9FB00D5E9F81
:102F8000B00D11249B2F189FA0011124452F552708
:102F90008E01041B150B0E9FA0010F9F500D1E9F4D
:102FA000500D11247E01E81AF108E29E8001E39E93
:102FB000100DF29E100D1124212F3327C21BD30BAD
:102FC000CE9F9001CF9F300DDE9F300D11246230D7
:102FD0007105A9F048F46115710569F0613071055A
:102FE000C9F48B2F752F0DC06430710581F058F036
:102FF0006630710579F47E2F8B2F932F0DC0832FB0
:103000007B2F9E2F09C08E2F7B2F952F05C08E2FD3
:10301000732F02C07E2F852F692FDF91CF911F91D3
:103020000F91FF90EF90089541E00E94841708955A
:1030300008950E9414180895CF93DF93762FE90125
:10304000682F842F0E941918798368838A83DF91FF
:10305000CF91089580910A03282F269530E02115FD
:10306000310519F48170826005C02B32310524F0DE
:103070008170846580930A03089588E090E00C9441
:10308000C932CF92DF92EF92FF926B017C010E94D6
:103090002A18B701A60188E090E0FF90EF90DF903A
:1030A000CF900C94E73260910A0370910B038091EA
:1030B0000C0390910D030C944118EAE0F3E083E0D7
:1030C000808311828FEF8283838314826081718178
:1030D000828193810C94411880910A0380FF02C081
:1030E0008695089580E0089590910E03933018F42A
:1030F0009F5F90930E03882351F060910A037091B3
:103100000B0380910C0390910D030C9441180895CA
:1031100081E00C94741890910E03992319F091504A
:1031200090930E03882351F060910A0370910B0372
:1031300080910C0390910D030C944118089581E047
:103140000C948B1880910E03089580930E036623D0
:1031500051F060910A0370910B0380910C039091E0
:103160000D030C944118089560E00C94A51880910B
:103170000B03089580910C03089580910D03089529
:1031800070E00C9480226091140180910A0380FF0A
:103190000AC08091130123E0829FC0011124815F46
:1031A0009C4F0C94C01880911501909116018917BD
:1031B00080F7E82FF0E09F01220F331FE20FF31F8B
:1031C000E15FFC4F1182108212828F5FF0CF9091ED
:1031D0000A0390FF16C090911501209116019217D5
:1031E00070F4E92FF0E0DF01AA0FBB1FEA0FFB1F0D
:1031F000E15FFC4F8183608342839F5FF0CF0C943B
:10320000C3180895CF93DF9300D01F92CDB7DEB7D8
:1032100090910A0390FF0AC09E012F5F3F4F0E94CA
:103220001C184B8169818A810E94E7180F900F90CA
:103230000F90DF91CF910895CF93DF93EC01EC8154
:10324000F0E0E75DFB4F4491EAE0F3E062818181C9
:103250000E9402198C818F5F8C83DF91CF9108953A
:10326000CF93DF93EC01EAE0F3E0438162818C814C
:103270000E9402198C818F5F8C83DF91CF9108951A
:103280000F931F93CF93DF9300D01F92CDB7DEB77C
:103290008C018091750281110AC09E012F5F3F4F02
:1032A0004FEF6FEF0E941C188A8180937502F8011E
:1032B0008481813051F028F0823061F440917502B0
:1032C0000AC08091750240E007C06091750240E03D
:1032D00080E003C040E080E060E00E94E718F80171
:1032E000848190E0019663E070E00E94D73184838E
:1032F0000F900F900F90DF91CF911F910F91089534
:10330000AF92BF92CF92DF92EF92FF920F931F93F3
:10331000CF93DF9300D01F92CDB7DEB7182FF62ED4
:10332000042FE22E90910A0390FF6DC0E92FE695DD
:10333000AE2FB0E0A855BE4F8C918093D6029E7FF1
:10334000923061F49E012F5F3F4F812F0E941C1825
:103350004B8169818A810E94E71843C0823019F449
:1033600000910D033EC0863019F410910B0339C053
:103370008930D9F38931A9F5E9518E2F8170D82E82
:10338000E695F0E0E75DFA4FA590B490C12CBB2420
:1033900060911701C61618F52C2D30E0A29EC001D1
:1033A000A39E900DB29E900D112470E00E94C33137
:1033B000812FD11002C0860F01C0861B909115018C
:1033C000290F311DA901440F551F240F351F215FFF
:1033D0003C4F402F6F2D0E941C18C394D9CF0E94E0
:1033E000C31810930B03F0920C0300930D03EE200F
:1033F00051F060910A0370910B0380910C0390913E
:103400000D030E9441180F900F900F90DF91CF9104
:103410001F910F91FF90EF90DF90CF90BF90AF90F2
:103420000895EAE0F3E09181282F4381628188E0EA
:10343000890F0C94801981E00C94111AEAE0F3E0F2
:103440009181282F4381628188EF890F0C94801924
:1034500081E00C941E1AEAE0F3E0628128E0620F3A
:1034600008F46FEF282F438181810C94801981E04B
:103470000C942B1AEAE0F3E0628128E0621B08F466
:1034800060E0282F438181810C94801981E00C94A5
:103490003A1AEAE0F3E0438128E0420F08F44FEFE4
:1034A000282F628181810C94801981E00C94491A43
:1034B000EAE0F3E0438128E0421B08F440E0282FD3
:1034C000628181810C94801981E00C94581A20E06B
:1034D0000C948019FF920F931F93CF93DF93EC010D
:1034E000F12C0FEF10E060911701F616F0F48091C7
:1034F00015012F2D30E0280F311DC901880F991FAC
:10350000280F391F215F3C4F70E0C8010E94D7315E
:10351000962F8C8140910D0360910C03F99E800DD4
:1035200011240E941C18F394DECF0E94C3189A81C4
:103530008C8190FF02C08F5F01C081508C83DF912E
:10354000CF911F910F91FF900895AF92BF92CF92AC
:10355000DF92EF92FF920F931F93CF93DF93FC01C3
:10356000828180FF02C00FEF01C001E010E041E165
:10357000A42E80911701181708F043C080911501FF
:10358000C12ED12CE601C80FD11DCE01880F991F85
:10359000C80FD91FC15FDC4F198218821A8234E02C
:1035A000E32EF12CB12C809177028B0D82312CF01F
:1035B0006A2D0E94B531892F05C087FF03C0909105
:1035C0001701890F082E000C990BC816D90691F423
:1035D00080910D038E9DA0018F9D500D1124559556
:1035E0004795559547959E0160910C0380910B037B
:1035F0000E941C18B00EF1E0EF1AF108A1F61F5F4F
:10360000B8CF0E94C31880917702013031F4811144
:1036100002C080911701815007C090E0019660912F
:10362000170170E00E94D73180937702DF91CF912C
:103630001F910F91FF90EF90DF90CF90BF90AF90D0
:103640000895CF938091150190911601891770F418
:10365000E82FF0E09F01220F331FE20FF31FE15F1D
:10366000FC4F1182108212828F5FF0CFC0E0609118
:103670001701C617C0F5EC2FF0E070E0CF010E94F3
:10368000D73120911501820F20917602022E000C75
:10369000330B90E0E217F307CCF020911201022ED9
:1036A000000C330B2E173F078CF09C01220F331FA9
:1036B000820F931F9C01215F3C4F40910D0360914D
:1036C0000C0380910B030E941C180BC0FC01EE0F31
:1036D000FF1F8E0F9F1FFC01E15FFC4F11821082C4
:1036E0001282CF5FC4CF0E94C31820911101809134
:1036F0007602820F8093760290911201920F90933E
:10370000120119165CF4082E000C990B4091170158
:1037100050E041505109841795071CF021952093E2
:103720001101CF9108958F929F92AF92BF92CF9245
:10373000DF92EF92FF920F931F93CF93DF938C0151
:10374000FC014481C42FD0E09E01DE010E942232A0
:103750009B01AC010E9438326B017C01E0E2F0E099
:10376000EC1BFD0BA5E5B0E09B01AC010E943832DB
:103770004B015C019F01DF010E941A329B01AC01E9
:103780000E9443329B01AC012C0D3D1D4E1D5F1D5F
:10379000C501B4010E94EB31C22FD22F2A3228F486
:1037A000F3E02F9F900111240DC025E530E02C1B84
:1037B0003109C901880F991F280F391F37FF02C02F
:1037C0002F5F3F4F35952795C22FC095F12C85E58A
:1037D000E82EED1A80911701F816C8F4F1FC02C02A
:1037E0008E2D01C08D2F909115012F2D30E0290FC6
:1037F000311DA901440F551F240F351F215F3C4F78
:103800004C2F60910C030E941C18F394E3CF0E948C
:10381000C318F8018481811102C091E003C0803295
:1038200019F49FEF9093100190911001890FF80106
:103830008483DF91CF911F910F91FF90EF90DF90E4
:10384000CF90BF90AF909F908F9008950F931F934C
:10385000CF93DF93EC0100E010E080911701282F57
:1038600030E00217130724F5909115019801290FF4
:10387000311DA901440F551F240F351F215F3C4FF7
:10388000869590E04C81081719071CF4442331F009
:1038900002C0411103C040910D0301C040E060919E
:1038A0000C0380910B030E941C180F5F1F4FD5CF94
:1038B0000E94C3188C8190E00196817099278C83B7
:1038C000DF91CF911F910F9108957F928F929F92D8
:1038D000AF92BF92CF92DF92EF92FF920F931F931E
:1038E000CF93DF93FC018280748081E08483E9E2DE
:1038F000F4E09490E8EAF4E0E491A12CF5E0BF2E26
:10390000CC24CA94D12CE9190E2F10E08091170114
:10391000A81608F0A2C0EA2CF12C22E0281568F0C5
:10392000BE9CF001BF9CF00D1124E858FD4F809122
:103930000B03808380910C03818371100AC0BE9CAD
:10394000F001BF9CF00D1124E858FD4F1382128244
:103950006AC0BE9CE001BF9CD00D1124C858DD4F49
:103960008B818823F9F081508B832FEF829FC001D8
:1039700011246C8170E00E94C331FB01FF27E75DD9
:10398000FB4F8491E82FE9192FEFE29FC00111242A
:10399000B8010E94C33180910D03689FB0011124CA
:1039A0007A8341C00E94973220910D0326952158B9
:1039B00030E0A901440F551F322F2227240F351F55
:1039C000232F33278217930774F582E0881588F434
:1039D0000E949732B6010E94D73188830E949732A5
:1039E00020910C032695622F70E00E94D731280F9A
:1039F0002983BE9CF001BF9CF00D1124E858FD4FB7
:103A0000128280910D03843120F0893C18F088ECFB
:103A100001C084E1BE9CF001BF9CF00D1124E85868
:103A2000FD4F84838383809115019701280F311DF9
:103A3000C901880F991F280F391F215F3C4FBE9C79
:103A4000F001BF9CF00D1124E858FD4F42816181C7
:103A500080810E941C18A39459CFDF91CF911F91B0
:103A60000F91FF90EF90DF90CF90BF90AF909F901D
:103A70008F907F900C94C318EAE0F3E080818E7FF2
:103A8000808360817181828193810E9441181092AC
:103A9000D7022FEF80E792E0215080409040E1F77D
:103AA00000C000000C94C318EAE0F3E080818E7F30
:103AB00080831092D7022FEF80E792E02150804060
:103AC0009040E1F700C000000C94C3181092D70298
:103AD0008091D40281110AC081E08093D402809148
:103AE0000A0381708093D3020C94541D0895609151
:103AF0000A03669570E04BE050E088E191E00E9497
:103B0000A732892B19F481E08093D7020E94A9295A
:103B10009093CE028093CD02089590910A0390FF76
:103B200035C09170811102C0926006C08B3210F0D6
:103B3000946502C0880F982B90930A03662351F076
:103B400060910A0370910B0380910C0390910D0317
:103B50000E94411860910A03669570E04BE050E0C6
:103B600088E191E00E94A732892B19F01092D702C8
:103B700002C00E94771D81E08093D00240910D0326
:103B800060910C0380910B030C94671A0895682FC1
:103B900090910A03969581E0890F8B3208F081E0BD
:103BA0000C948D1D81E00C94C71D682F90910A0321
:103BB00096958FEF890F09F48AE20C948D1D81E0B0
:103BC0000C94D51D61E00C948D1DEAE0F3E080813A
:103BD0008160808386950C94E21D80910A0380FDAC
:103BE0000C943C1D0C94E51D60E00C948D1D80919F
:103BF000D50281112EC00E94C40F811104C00E9401
:103C00006B100E945D180E943D1860930A03709328
:103C10000B0380930C0390930D036E7F61F40E945D
:103C20005D180E943D1860930A0370930B03809304
:103C30000C0390930D030E942A181092D7028091D2
:103C40000A0380FF03C086950E94F41D81E08093E3
:103C5000D5020895EAE0F3E0808181608083869553
:103C60000C94F41D1092D4028091D30281110E9411
:103C70002A1E0C94771D0F931F93CF93DF9380918F
:103C8000D702882309F495C08091D602E0910A03F7
:103C9000E695E81BE093CF02823049F4F0E0EB5D5B
:103CA000FB4FE491CE2FD0E00CE119E159C08630F2
:103CB00049F4F0E0EE5DFB4FE491CE2FD0E000E35D
:103CC00019E14EC0893051F4E695F0E0E15EFB4F1A
:103CD000E491CE2FD0E00AE61AE142C08F3051F4D1
:103CE000E695F0E0E45EFB4FE491CE2FD0E005EAEC
:103CF0001AE136C0853149F4F0E0E75EFB4FE4910C
:103D0000CE2FD0E001E21BE12BC08831D9F0833205
:103D100039F4E7E1F4E0C591D49100E419E120C061
:103D20008432A9F08532C1F48E2F63E00E94A9315C
:103D3000E92FF0E0EC5EFB4FE491CE2FD0E005E6FA
:103D40001CE10EC0C8E2D0E003E91BE109C0C4EFEA
:103D5000D1E006E21CE104C0C0EDD7E008E118E1C3
:103D60008091D002882361F01092D0020E94A9298C
:103D70009093CE028093CD021092D2021092D10283
:103D80000E94A929E091CD02F091CE028E1B9F0BDB
:103D90008F3F9F4770F4EC0FFD1FF093CE02E0932E
:103DA000CD028DEC92E0F801DF91CF911F910F9140
:103DB0000994DF91CF911F910F910895882311F0FD
:103DC000FA0101C0FB010994CF93DF93C82FD62FCE
:103DD0000E946C188C1740F00E946C188D1720F40C
:103DE000DF91CF910C94D21D8C2FDF91CF910C9449
:103DF000E21D1F93CF93DF93FB0112811111C1C00C
:103E0000EC010E94DB0E8272CC3CFCE5DF0709F47A
:103E10009AC008F043C0C63CECE5DE0709F47FC059
:103E2000D8F4C33C9CE5D90709F46DC038F4C23C12
:103E3000DC4509F0A5C00E94ED1DA3C0C43C9CE573
:103E4000D90709F465C0C53CDC4509F099C048E2D2
:103E50005AE16BE17AE160C0C93CFCE5DF0709F497
:103E600068C070F4C73CECE5DE0709F45DC0C83CEF
:103E7000DC4509F085C047E35AE166E47AE14CC0CD
:103E8000CA3C9CE5D90709F459C0CB3CDC4509F094
:103E900077C04FE958E168E878E13EC0C13DFCE5F4
:103EA000DF0709F45DC098F4CE3C9CE5D90709F41E
:103EB00051C008F44DC0CF3CFCE5DF0709F44DC00C
:103EC000C03DDC4509F05CC06EE089E056C0C43DF1
:103ED0009CE5D90709F44AC058F4C23DFCE5DF0768
:103EE00009F441C0C33DDC4509F04AC088E142C045
:103EF000C53D9CE5D907E9F1CD35DD4509F040C068
:103F00006AE285E23AC04FED5DE162ED7DE104C019
:103F100042ED5DE16FED7DE10E94DE1E32C04BE1BE
:103F20005AE168E27AE1F8CF46E45AE167E37AE1E0
:103F3000F3CF44E65AE165E57AE1EECF45E55AE193
:103F400064E67AE1E9CF48E858E16FE978E1E4CF47
:103F500081E010C065E082E010C068E086E00DC03E
:103F600064E18FE00AC067E185E107C062E289E1B0
:103F700004C083E20E94E21D04C00E94E41E01C04E
:103F800011E0812FDF91CF911F91089586E090E09D
:103F90000C94C132682F86E090E00C94D532809169
:103FA00042030C94CA1F80914203847089618093FC
:103FB00042030C94CA1F809142038695869586958C
:103FC00008958091420381FD07C08260809342037F
:103FD0000E94CA1F0C94CF2108958091420381FF53
:103FE00007C08D7F809342030E94CA1F0C94DB217F
:103FF00008958091420381FD0C94ED1F0C94E11F04
:1040000080914203869581700895809123010895DF
:104010000E94C40F811104C00E946B100E94D31F24
:104020000E94C61F80934203282F26952695269529
:1040300030E02430310524F087708861809342039A
:104040008091420380FF04C086958695869501C0C5
:1040500080E00C949C2120914203822F86958695C6
:104060008695482F50E04330510554F48F5F982FC8
:10407000990F990F990F822F8770892B8093420394
:10408000809142038160809342030E94CA1F809105
:1040900042038695869586950C949C2180914203D7
:1040A000982F969596959695A1F0915E990F990FF8
:1040B000990F8770892B80934203887F91E009F4E0
:1040C00090E08091420390FB80F9809342030E942C
:1040D000CA1F809142038695869586950C949C21F3
:1040E0008091420380FD13C0816080934203813040
:1040F00019F489E080934203809142030E94CA1F11
:10410000809142038695869586950C949C2108950E
:104110008091420380FF08C08E7F809342030E94FB
:10412000CA1F80E00C949C2108958091420380FD79
:104130000C9488200C94702090914203892F8695CE
:10414000869586958F5F8F719770843038F4880FCD
:10415000880F880F892B8093420302C090934203FB
:1041600080914203887F91E009F490E080914203BE
:1041700090FB80F9809342030E94CA1F8091420302
:104180008695869586950C949C21843008F083E072
:10419000909142039770282F220F220F220F922B0B
:1041A00090934203987F21E009F420E0909142032C
:1041B00020FB90F9909342030C949C210E94C5200F
:1041C000809142030C94CA1FFC01DB0112968C9172
:1041D0008823F9F0EB5BFC45E730F105D8F4EE59A4
:1041E000FF4F0C940D3283E001C080E00E94DE207E
:1041F00080E008950E944E20FBCF0E942B20F8CF34
:104200000E949520F5CF0E949C20F2CF0E94F91FBA
:10421000EFCF81E00895279A2F9808952F98089559
:104220008F929F92AF92BF92CF92DF92EF92FF92C6
:104230000F931F93CF93DF938C0180918600909111
:1042400087006CE070E00E94C3316017710730F0A6
:10425000C80169E070E00E94C33160C080918600AF
:1042600090918700E0908600F0908700E0918600B2
:10427000F0918700C6E0D0E0BE010E94C33120E08B
:1042800030E0060F171F211D311D4801590185E03F
:10429000880C991CAA1CBB1C8A95D1F7C701BE01CA
:1042A0000E94C3316F01E12CF12CA7019601260F6A
:1042B000371F411D511DC501B4010E94EB31690139
:1042C0007A01E0918600F0918700CA01B9010E944D
:1042D00099319B01AC01DF010E9438329B01AC0196
:1042E000C701B6010E949931DC01CB012FE0B695E0
:1042F000A795979587952A95D1F7009186001091FB
:10430000870020E030E0081719072A073B0728F448
:104310006091860070918700CB01BC01CB01DF91D9
:10432000CF911F910F91FF90EF90DF90CF90BF90B2
:10433000AF909F908F900895CF93C82F843050F402
:10434000811109C080918000877F809380000E9446
:104350000E2106C0C3E080918000886080938000B9
:10436000A0918600B09187002C2F30E00E9422326D
:1043700023E030E040E050E00E94EB31B42FA32F67
:10438000922F8827892F9A2FAB2FBB270E941021AD
:1043900090938D0080938C00CF9108950895109292
:1043A000D9021092D8021092DA02EFE6F0E0808192
:1043B000816080830895EFE6F0E080818E7F8083C6
:1043C0000E94DB1F0C949C211F920F920FB60F923C
:1043D00011240F931F932F933F934F935F936F93EA
:1043E0007F938F939F93AF93BF93CF93EF93FF935D
:1043F0008091240191E0980F823019F0909324016C
:1044000055C081E0809324010E940520C82F0091AF
:10441000D8021091D9020F5F1F4F0E94052028E794
:10442000829FB0011124C8010E94C3319093D90228
:104430008093D80228E7C29FB0011124660F672F2E
:10444000661F770B71950E94C3316F778091DA02F6
:10445000823019F4603451F404C0813039F46F377C
:1044600029F480916F008E7F80936F00E62FF0E03B
:10447000E25DFA4FC49100918600109187000E947E
:10448000DB1F282FC09FC001C19F900D11246DEF2D
:1044900072E00E94C331269FC001279F900D112416
:1044A0000E94102190938D0080938C00FF91EF91DA
:1044B000CF91BF91AF919F918F917F916F915F91BC
:1044C0004F913F912F911F910F910F900FBE0F9021
:1044D0001F9018950E940B218AE08093800089E14B
:1044E000809381008FEF9FEF9093870080938600E9
:1044F0000E9408200E94002081110C94CF21089571
:10450000529A2BB12B7F3BB134604FB7F894FC012A
:10451000CB01880F991F680F791F6E0F7F1FE61759
:10452000F70789F0819198E03BB9000000C087FF50
:104530002BB9880F000000C000C000C02BB900C01C
:104540009A9591F7ECCF4FBF8FE594E00197F1F783
:1045500000C00000089583E290E00E94C1328232E0
:1045600081F484E290E00E94C132843051F485E20B
:1045700090E00E94C13291E0873209F090E0892FEB
:1045800001C080E081700895CF93C82F811102C0CF
:104590006FEF01C062E283E290E00E94D532C11168
:1045A00002C06FEF01C064E084E290E00E94D53267
:1045B000C11102C06FEF01C067E285E290E0CF91C8
:1045C0000C94D532089586E290E00E94C132682FA3
:1045D00070E080E090E008950895CF93C62F0E9488
:1045E000EC226C2F86E290E0CF910C94D53280E0E3
:1045F0000E94C42260E070E0CB010E94ED220E9484
:1046000028260E94072781E00C94C4220E94E222FF
:104610000E94E3220E94EC220E94AB22811102C080
:104620000C94F7220895CF93FB01C281CC23E9F0CB
:104630009C0122513F452031310520F482510E94D6
:1046400017270CC08031FFE59F0751F481E00E94DD
:10465000C10A43E062E081E00E94C004C0E018C0EB
:1046600081319F45A9F482E0F2CF8031EFE59E07CA
:1046700011F481E004C081319F4549F482E00E9439
:10468000CC0A43E062E081E00E94C00401C0C1E0C6
:104690008C2FCF9108952FEFFC0120830895CF93A5
:1046A000DF93EC018881893031F08A3079F40E94FF
:1046B000002089830BC00E94DB1F2FEF829FC00167
:1046C000112463E070E00E94C3316983DF91CF91D0
:1046D0000895FC018081893019F08A3069F00895CD
:1046E000818123E0829FC00111246FEF70E00E945E
:1046F000C331862F0C94C5208181811102C00C9496
:10470000ED1F0C94E11FCF93DF93EC01888181387A
:1047100089F028F48038A1F40E94BD1810C08238B6
:1047200061F0833869F40E94B71889830E94BA182F
:104730008A8306C00E946C1802C00E94A218898356
:10474000DF91CF910895CF93DF93EC018881813879
:10475000B1F058F4803851F5D9810E94BA18C82FA9
:104760000E94B7184D2F6C2F1DC08238B1F08338CE
:10477000E9F40E94BD18482F6A81898113C089819C
:104780000E94F41D8981811104C0DF91CF910C94A6
:10479000541DDF91CF910C942A1E8981DF91CF9116
:1047A0000C94B418DF91CF910C94671ADF91CF91DC
:1047B0000895DF92EF92FF920F931F93CF93DF93B1
:1047C000EC01D62E8C010F5F1F4FE8818E2F90E0F9
:1047D000FC013197E331F10508F0A4C0E759FF4F20
:1047E0000C940D32198289E060C08981823039F0E1
:1047F000833061F0813029F50E94B52902C00E9402
:10480000E3229A838B837C836D838EC07E0110E0CC
:10481000812F0E948613F701928383831F5FF2E04A
:10482000EF0EF11C1530A1F77FC08981823049F469
:104830006A817B818C819D810E9413320E94ED22CE
:1048400073C06D2DCE010E944B236EC04B816A81D7
:1048500089810E94FA259C838D8366C02C813D81CD
:104860003227232732274B816A8189810E941326B0
:104870005BC00E94282658C0C8010E946923C80155
:104880000E94A32351C0C8010E944F23C8010E9467
:1048900083234AC00E94CF1F0E94531845C00E9424
:1048A000BA2624C00E94BC2699838A833DC06B81AE
:1048B00070E089819A81AE014C5F5F4F982789270C
:1048C00098270E94BF2630C06B8170E089819A8151
:1048D000AE014C5F5F4F9827892798270E94E426F6
:1048E00023C00E94072720C00E94E72589831CC09F
:1048F0006B8170E089819A81AE014C5F5F4F982790
:10490000892798270E9467260FC06B8170E08981F4
:104910009A81AE014C5F5F4F9827892798270E94A4
:104920008B2602C08FEF88836D2DCE01DF91CF9152
:104930001F910F91FF90EF90DF900C949B2ACF93E3
:10494000DF93EC01FB018281882309F43CC1C33071
:10495000FDE5DF0760F4CA3F9CE5D90788F49E01B6
:1049600022503C452431310508F02EC109C0C13622
:10497000EDE5DE0729F0C53AFDE5DF0709F024C1C2
:104980000E94D70F9093F5028093F402C1318CE519
:10499000D80709F4C6C008F042C0C930ECE5DE070C
:1049A00009F49BC000F5C5308CE5D80709F485C033
:1049B00078F4C330ECE5DE0709F478C008F07AC07B
:1049C000C230DC4509F0F5C08091F4028160EFC08F
:1049D000C7309CE5D90709F478C008F07AC0809107
:1049E000F4028061E4C0CD30FCE5DF0709F487C044
:1049F00058F4CB309CE5D90709F479C008F07BC0A6
:104A00008091F40288606FC0CF30FCE5DF0709F4C5
:104A100080C008F082C08091F402877FC8C0CD3F7B
:104A20009CE5D90709F471C000F5C531FCE5DF0745
:104A300009F485C068F4C3319CE5D90709F475C051
:104A400008F095C00E944B0A8091F4028F77AFC0A6
:104A5000CB3FFCE5DF07A9F108F054C0CA3FDC45B5
:104A600009F0A7C08091F50240C0C130EDE5DE0736
:104A700009F489C058F4CF3F8CE5D80709F45AC02F
:104A800008F069C08091F50282602FC0C136EDE563
:104A9000DE0709F47CC0C53AFDE5DF0709F481C0F3
:104AA000C230DD4509F085C080E06EC08091F4021F
:104AB00082607DC08091F40216C08091F40288600B
:104AC00076C08091F50282604FC08091F4028062CE
:104AD0006EC08091F40280646AC00E944B0A80918B
:104AE000F402806864C0846062C081603DC08091CF
:104AF000F4028E7F5CC08091F4028D7F58C080915B
:104B0000F40216C08091F50218C08091F5028D7FE5
:104B10002BC08091F4028F7E4AC08091F4028F7D79
:104B200046C08091F4028F7B42C08091F402877F5F
:104B30008B7F3DC08091F5028D7F8E7F15C0809167
:104B4000F40282FB222720F991E0922790FB82F960
:104B500090FB83F92CC08091F502982F909591706D
:104B60008E7F892B90FB81F98093F50222C00E94F1
:104B70004B0A8091F40287FB222720F991E09227CB
:104B800090FB87F914C081E00E946D1012C08091E3
:104B9000F40284FB222720F991E0922790FB84F90C
:104BA00006C08091F402982F909590FB80F9809335
:104BB000F4028091F4029091F5020E94E80F0E94A5
:104BC0004B0A80E001C081E0DF91CF91089584E03D
:104BD000089550E0440F551F2EE1629F400D511D76
:104BE00011249A0166E9869F200D311D1124C90107
:104BF000879608950F931F93CF93DF930E94E92523
:104C00008C010E94C132C82FD0E0DC2FCC27C80114
:104C100001960E94C1329E01282BC901DF91CF91DC
:104C20001F910F9108950F931F93CF93DF93122F2E
:104C3000032F0E94E925EC01602F0E94D532612FDD
:104C4000CE010196DF91CF911F910F910C94D53237
:104C5000AF92BF92CF92DF92EF92FF920F931F938A
:104C6000CF93DF93A12CE12CF12CB12C00E010E0CC
:104C7000C0E0D0E06701C00ED11EFE01EE0FFF1FA5
:104C8000EC0DFD1DE45FFE4F259134914C2F6B2DF3
:104C90008A2D0E9413262196CF30D10571F7025E2E
:104CA0001F4FB39485E0B812E3CF86E9E80EF11CFC
:104CB000A39484E0A812D9CFDF91CF911F910F91D7
:104CC000FF90EF90DF90CF90BF90AF900895EF925C
:104CD000FF920F931F93CF93DF93EA017A01E60EC1
:104CE000F71E8C01C8018796CE15DF0569F00835DF
:104CF00022E0120720F40E94C132888301C018828A
:104D000021960F5F1F4FEECFDF91CF911F910F9133
:104D1000FF90EF900895EF92FF920F931F93CF9320
:104D2000DF93EA017A01E60EF71E8C01C80187962F
:104D3000CE15DF0559F0083522E0120718F4688116
:104D40000E94D53221960F5F1F4FF0CFDF91CF9198
:104D50001F910F91FF90EF900895462F843038F403
:104D6000753028F46F3018F4672F0C94FA2580E022
:104D700090E0089580E1089581E891E00895EF9230
:104D8000FF920F931F93CF93DF93EA017A01E60E10
:104D9000F71E8C01C80181589D4FCE15DF0569F0C3
:104DA000013821E0120720F40E94C132888301C03B
:104DB000188221960F5F1F4FEDCFDF91CF911F918A
:104DC0000F91FF90EF900895EF92FF920F931F9332
:104DD000CF93DF93EA017A01E60EF71E8C01C8013A
:104DE00081589D4FCE15DF0559F0013821E012079B
:104DF00018F468810E94D53221960F5F1F4FEFCFC4
:104E0000DF91CF911F910F91FF90EF900895CF9375
:104E1000DF93CFE7D2E060E0CE010E94D532219649
:104E2000C11584E0D807B9F7DF91CF910895DF92DB
:104E3000EF92FF920F931F93CF93DF9300D000D098
:104E4000CDB7DEB7F82E8FE08F15E8F18FEF93E046
:104E50000E94C132811137C00FE712E0FF2069F0D4
:104E6000011584E0180779F1C8010E94C13281114F
:104E700001C0FA940F5F1F4FF1CF19821A821B8273
:104E80001C82DD24D39478018FEFE81AF80AC80158
:104E90000E94C13289831A828823A9F09FEF980F5C
:104EA000933058F48A83D9820E5F1F4FC7010E9446
:104EB000C1328B83882339F07801CE0101960E949C
:104EC00024068701E0CF0F900F900F900F90DF9195
:104ED000CF911F910F91FF90EF90DF900895CF93A6
:104EE000DF9386319C4541F5EB010E94DB0E982F44
:104EF0008A812091060130910701882379F09A7AFE
:104F000081E009F480E08093DB02911102C069E244
:104F100001C065E3C9010E9402290AC08091DB0239
:104F2000811102C069E201C065E3C9010E94042940
:104F30000E941D0F80E001C081E0DF91CF910895B4
:104F40000F931F93CF93DF93C42FD22FFC01828145
:104F50008823C9F04093DE020E94A9299093DD02C4
:104F60008093DC0280E28C0F883008F057C0C77055
:104F700081E001C0880FCA95EAF7DF91CF911F91B8
:104F80000F910C94D9078091DE02481330C08091B4
:104F9000DC029091DD020E94C129883C910538F520
:104FA00010E21D0FCD17B9F080E28C0F883040F46D
:104FB000C77081E001C0880FCA95EAF70E94E00738
:104FC000183028F581E09D2F977001C0880F9A95C1
:104FD000EAF70E94D907802F0E94D0071830F0F41A
:104FE000D77081E001C0880FDA95EAF70AC080E245
:104FF0008C0F883098F4C77081E001C0880FCA9583
:10500000EAF7DF91CF911F910F910C94E007802F69
:10501000DF91CF911F910F910C94D007DF91CF9129
:105020001F910F9108950F939C01CB01233F4CE5F5
:10503000340731F188F4283DFCE53F07D9F0293DDC
:105040004CE5340779F1273D3C45A9F506E221EE10
:1050500041EE67ED7CE52BC0253FFCE53F07E1F025
:10506000A8F0263F3C4539F507E225EE46EE66EF0F
:105070007CE51DC007E225EE45EE68ED7CE517C036
:1050800006E221EE40EE63EF7CE511C007E225EE7B
:1050900044EE64EF7CE50BC006E221EE42EE65EFE4
:1050A0007CE505C008E221E045EE69ED7CE50E9463
:1050B000A02780E008C0FC018281882319F01092AB
:1050C000DE0201C081E00F9108959093E301809387
:1050D000E20108959093E4028093E3020895E09141
:1050E000E302F091E402309721F00190F081E02D8D
:1050F000099480E00895E091E302F091E402309792
:1051000021F00280F381E02D09940895E091E302FB
:10511000F091E402309739F022E0DC012C93048016
:10512000F581E02D099408952091E1023091E20289
:105130002817390771F09093E2028093E102E09121
:10514000E302F091E402309721F00680F781E02D30
:10515000099408952091DF023091E0022817390761
:1051600071F09093E0028093DF02E091E302F0910E
:10517000E402309721F00084F185E02D0994089530
:10518000FC01329697E080E0915029F02191222392
:10519000D9F38F5FF9CF0895662349F0FC01329669
:1051A00008962191621729F0E817F907D1F780E0F6
:1051B000089581E008959C01FC0132969FEF80E004
:1051C0004191461789F09F3F19F4411101C0982F72
:1051D0008F5F8630A9F79F3F39F0F901E90FF11D84
:1051E00097FDFA956283089508959C012A5F3F4FC9
:1051F000FC014281461301C0128201968217930777
:10520000B9F708950C94DB280C94F528029626E053
:10521000FC0111922A95E9F7089508950C940D293F
:1052200083E08093E5020C940E29811102C081E095
:1052300001C082E08093E5020C940E290C9415299C
:1052400081E08093E5020C940E290C9420290895A6
:105250000C9427290C9428290C9427290C9427298D
:105260000C942729CF930E942E290E945C140E943F
:105270002C29C0E08C2F0E948613892B29F4CF5F44
:10528000C530C1F780E001C081E0CF910895089555
:105290001F920F920FB60F9211248F939F93AF938B
:1052A000BF938091E602811113C0809143039091D6
:1052B0004403A0914503B09146034196A11DB11D41
:1052C0008093430390934403A0934503B093460314
:1052D000BF91AF919F918F910F900FBE0F901F9034
:1052E000189580914B03843031F10E94440510924F
:1052F000E60220E488E190E00FB6F894A895809348
:1053000060000FBE2093600083B7817F846083BFFD
:1053100083B7816083BF7894889583B78E7F83BF7E
:105320000FB6F894A8958091600088618093600022
:10533000109260000FBE08950E944B0A0C944D0518
:1053400082E084BD93E095BD9AEF97BD80936E0097
:1053500008952FB7F8948091430390914403A0914E
:105360004503B09146032FBF08952FB7F89460917D
:1053700043037091440380914503909146032FBFEE
:1053800008959C014FB7F894809143039091440392
:10539000A0914503B09146034FBF821B930B089524
:1053A00078941F920F920FB60F9211248F939F93B0
:1053B000AF93BF938091430390914403A091450321
:1053C000B09146030196A11DB11D809343039093B4
:1053D0004403A0934503B0934603BF91AF919F91BF
:1053E0008F910F900FBE0F901F90189581E08093C2
:1053F000E00080E28093D8001092C9008FE19EE423
:105400000197F1F700C0000087E090EBDC0180938A
:10541000540390935503A0935603B09357039CE015
:1054200088E10FB6F894A895809360000FBE909322
:105430006000FFCF8091F2020895089524E0209348
:10544000E9002FEF3091E800215035FD06C035ED21
:105450003A95F1F700002111F5CF2091E80025FFE2
:105460000BC040E050E066E070E00E94B02C8091FC
:10547000E8008E778093E8000895CF93DF9321E0D2
:105480002093E9002FEF3091E800215035FD06C050
:1054900035ED3A95F1F700002111F5CF2091E800A4
:1054A00025FF14C0EC0140E050E068E070E00E948D
:1054B000B02C8091E8008E778093E80088E0FE01B0
:1054C000AAEEB2E001900D928A95E1F7DF91CF91BB
:1054D00008958093E7027093E9026093E802809157
:1054E0004B038430F9F48093E9008FEF9091E8004A
:1054F000815095FD06C095ED9A95F1F70000811158
:10550000F5CF8091E80085FF0DC040E050E063E0FA
:1055100070E087EE92E00E94B02C8091E8008E77D8
:105520008093E8000895BC0184E00C94692ABC01D2
:1055300083E00C94692ACF93603219F520914B03D4
:105540002430F9F4C091E900CF703091EC00232FA2
:10555000217030FD20E8C22B22E02093E900209149
:10556000E80020FF0BC040E050E060E270E00E94E5
:10557000B02C8091E8008E778093E800CF70C093C4
:10558000E900CF91089580914A03811109C00E94DA
:105590008C2E0E94E92E8091E20084608093E200CC
:1055A000089510924A0308950C94252960914703A9
:1055B00081E0611101C080E00C94102990914B03AF
:1055C00081E0943009F080E0609147030C94152944
:1055D00042E061EC81E00E94052E42E261EC84E051
:1055E0000E94052E42E261EC82E00E94052E42E21A
:1055F00060EC83E00E94052E90914B0381E0943093
:1056000009F080E0609147030C941E2980914D03BE
:10561000833009F463C030F4813071F0823009F4D2
:105620009CC008958A3009F488C08B3009F46EC09C
:10563000893009F0AAC020C080914C03813A09F05A
:10564000A4C08091E800877F8093E8008091500398
:1056500090915103892B21F468E08AEE92E003C017
:1056600060E080E090E070E00E94462D8091E800CC
:105670008B778093E800089580914C03813209F084
:1056800084C08091500390915103009719F00297C4
:1056900009F07BC08091E800877F8093E8008091CB
:1056A000E80082FD05C080914B038111F8CF6DC0E9
:1056B0002091F3008091F20090E0922B029731F458
:1056C0008091F100813011F0863021F48091F10059
:1056D0008093F2028091E8008B7753C080914C0355
:1056E000813A09F052C08091500390915103892B67
:1056F00009F04BC08091E800877F8093E80080919B
:10570000E80080FFFCCF8091310136C080914C03CE
:105710008132D9F58091500390915103892BA9F5DD
:105720008091E800877F8093E8000E943A2E809164
:105730004E03809331010C944B0A80914C038132CB
:1057400021F58091E800877F8093E8000E943A2E3F
:1057500080914F038093F302089580914C03813A26
:10576000A1F48091E800877F8093E8008091E800B1
:1057700080FFFCCF8091F3028093F1008091E800DC
:105780008E778093E8000C943A2E089584B7877F33
:1057900084BF0FB6F894A8958091600088618093CB
:1057A0006000109260000FBE90E080E80FB6F894A1
:1057B00080936100909361000FBE0C9420290E9499
:1057C0008C2E0E94E92EE2EEF0E0808184608083DE
:1057D00078940C947E3185E291E00C946A28809153
:1057E0004B038530A9F480914B03853079F40E94F6
:1057F0007129809149038823B1F30E9432298823BB
:1058000091F30E949A2C0E944B0AEDCF0C949C2994
:105810000895CF93DF93CDB7DEB7A0970FB6F89476
:10582000DEBF0FBECDBF80914B03843011F583E006
:105830008093E9008091E80082FF1BC08091E8001E
:1058400085FF0AC040E050E060E270E0CE010196C2
:105850000E94FB2C91E001C090E08091E8008B77E2
:105860008093E800992329F060E2CE0101960E941E
:10587000D923A0960FB6F894DEBF0FBECDBFDF913F
:10588000CF9108950C94442C292F332723303105D0
:10589000C9F060F42130310581F02230310509F082
:1058A00041C08BE590E022EE36E040C02132310568
:1058B000E1F02232310531F135C082E190E02DE393
:1058C00037E034C099278130910549F028F00297DC
:1058D00049F5EEEAF6E005C0EEEDF6E002C0E8ECD0
:1058E000F6E0849190E09F0121C063307105D0F40F
:1058F000660F771FFB01E452FE4F2081318189E062
:1059000090E014C06330710568F4FB01EE0FFF1FD7
:10591000EA52FE4F20813181FB01ED52FE4F808122
:1059200090E004C080E090E020E030E0FA013183B4
:105930002083089580E189BD82E189BD09B400FE1C
:10594000FDCF8091D8008F7D8093D8008091E000BA
:1059500082608093E0008091E00081FDFCCF08959B
:10596000CF92DF92EF92FF920F931F93CF93DF932B
:10597000EC018B017A010E94592E811133C0E11490
:10598000F10439F0F70180819181081B190BC80FD0
:10599000D91FC12CD12C0115110519F18091E800F6
:1059A00085FD16C08091E8008E778093E800E114B1
:1059B000F10449F0F70180819181C80ED91ED1828E
:1059C000C08285E00FC00E94592E882321F30AC0AF
:1059D00089918093F10001501109FFEFCF1ADF0A7E
:1059E000DACF80E0DF91CF911F910F91FF90EF9080
:1059F000DF90CF900895CF92DF92EF92FF920F93B6
:105A00001F93CF93DF93EC018B017A010E94592EF3
:105A1000811133C0E114F10439F0F70180819181E3
:105A2000081B190BC80FD91FC12CD12C011511054A
:105A300019F18091E80085FD16C08091E8008B7710
:105A40008093E800E114F10449F0F701808191812D
:105A5000C80ED91ED182C08285E00FC00E94592E87
:105A6000882321F30AC08091F10089930150110924
:105A7000FFEFCF1ADF0ADACF80E0DF91CF911F91DD
:105A80000F91FF90EF90DF90CF90089520915203F7
:105A9000309153032617370748F06115710539F423
:105AA0002091E8002E772093E80001C0B901FC01A5
:105AB00020E06115710579F180914B038823F1F1A4
:105AC0008530F1F18091E80083FD3CC08091E800D1
:105AD00082FD2EC08091E80080FFEBCF2091F30083
