:100000000C9454040C948C040C948C040C948C0468
:100010000C948C040C948C040C948C040C948C0420
:100020000C948C040C948C040C94A01C0C94DC1B7D
:100030000C94181F0C948C040C948C040C948C0459
:100040000C948C040C948C040C948C040C948C04F0
:100050000C948C040C94D71E0C948C040C948C047B
:100060000C948C040C948C040C948C040C948C04D0
:100070000C948C040C948C040C948C040C948C04C0
:100080000C948C040C948C040C948C040C948C04B0
:100090000C948C040C948C040C948C040C948C04A0
:1000A0000C948C040C948C040C948C042B092B0958
:1000B0005E095E09D109EF09FB0AFB0AFA096E0A1B
:1000C0007F0A7F0A641067108F109C10A310C31062
:1000D000C61017114E11F411F4115D115F11621168
:1000E0008711A911AC11AF11D311EE19151ABE1B4E
:1000F000151ABE1B611A841ABE1B791B891B0000CE
:1001000000000000000000000000000000000000EF
:1001100000000000000000000000000000000000DF
:1001200000007E0F00D4FFFFFFC700000078000032
:100130000000000000002A2B280000000000000042
:1001400000000000000000000029000000002C1E3C
:100150003420212224342627252E362D3738271EF9
:100160001F202122232425263333362E37381F041F
:1001700005060708090A0B0C0D0E0F1011121314B7
:1001800015161718191A1B1C1D2F3130232D350475
:1001900005060708090A0B0C0D0E0F101112131497
:1001A00015161718191A1B1C1D2F3130354C000459
:1001B0007F3F1F643214643214783C1E1E140A05FB
:1001C00005010902A10185020901A1000509190122
:1001D00029081500250195087501810205010930DE
:1001E00009311581257F9502750881060938158129
:1001F000257F950175088106050C0A3802158125B1
:100200007F950175088106C0C005010980A101859F
:100210000319012AB700150126B700950175108151
:1002200000C0050C0901A101850419012AA00215CD
:100230000126A002950175108100C00660FF0961CA
:10024000A1010962150026FF0095207508810209A9
:1002500063150026FF00952075089102C00501096D
:1002600006A101050719E029E71500250195087584
:100270000181029501750881010507190029FF1503
:100280000026FF009506750881000508190129055B
:10029000950575019102950175039101C009025BF5
:1002A00000030100A0FA0904000001030101000994
:1002B0002111010001224000070581030800010906
:1002C00004010002030000000921110100012222A3
:1002D0000007058203200001070503032000010930
:1002E0000402000103000000092111010001227B2A
:1002F000000705840320000112010002000000082D
:10030000D804A2EC010001020001080368003800D3
:10031000380000002803680069006E00650079005D
:10032000620075007300680020006B0065007900B2
:1003300062006F006100720064007300000004033B
:1003400009042223252628292A2C2D2F3032333543
:1003500036383A3B3D3E4042434547494A4C4E5071
:1003600051535557595A5C5E6062646668696B6D9B
:100370006F71737577797B7D7F81838587898A8C9F
:100380008E90929496989A9C9E9FA1A3A5A7A8AAA6
:10039000ACAEAFB1B3B4B6B8B9BBBCBEBFC1C2C3DB
:1003A000C5C6C7C9CACBCCCDCED0D1D2D2D3D4D575
:1003B000D6D7D7D8D9D9DADADBDBDBDCDCDCDCDC9E
:1003C000DDDDDDDDDCDCDCDCDCDBDBDBDADAD9D976
:1003D000D8D7D7D6D5D4D3D2D2D1D0CECDCCCBCA04
:1003E000C9C7C6C5C3C2C1BFBEBCBBB9B8B6B4B32A
:1003F000B1AFAEACAAA8A7A5A3A19F9E9C9A9896C0
:100400009492908E8C8A89878583817F7D7B797792
:100410007573716F6D6B6968666462605E5C5A5972
:1004200057555351504E4C4A4947454342403E3D33
:100430003B3A3836353332302F2D2C2A29282625C1
:10044000232229003B003D003F0041000000440002
:10045000270047003A003C003E00400042004300B5
:1004600045004600480035001F00210023002500FC
:1004700027002E002A004A001E002000220024002F
:1004800026002D002A0049004B002B001A00150001
:100490001C000C001300300000004D001400080088
:1004A0001700180012002F0031004C004E003900D8
:1004B000160009000B000E0033003200000000009F
:1004C000040007000A000D000F003400280000009F
:1004D0000000E1001D000600050010003700E500E7
:1004E0000000520064001B001900110036003800A3
:1004F000010000000000E000E20000000000000039
:10050000E600E70000005100E300000000002C00BE
:1005100000000151E40050004F0001000100010003
:10052000C35CC55C0000CA5C0100BD5C0100010049
:10053000C25CC65CC85CC75CC95CBF5CBE5C0100D9
:1005400001000100010001000100010001000100A3
:100550000100010001000100010001000100010093
:10056000A90001000100005C010001000100010080
:100570000000AB00010001000100010001000100CA
:100580000100AE00AA00010001000100010001000D
:100590000100010000000000010001000100010055
:1005A0000100010001000000000001000100010045
:1005B0000100010001000100000001000100010034
:1005C0000100010001000100010000000000010025
:1005D0000100000000000000010001000000010017
:1005E0000100000000000100000001000100010006
:1005F00001000100010001000100010000000100F4
:1006000001000100010001000100010001000100E2
:1006100001000100010001000100010001000100D2
:1006200001000100010001000100010001000100C2
:1006300001000100010001000100010001000100B2
:1006400001000100010001000000010001000100A3
:100650000100010001000100010001000100010092
:100660000100010001000100010001000000000084
:100670000100010001000100010001000100000073
:100680000000010001000100010001000100010063
:100690000000010001000100010001000100010053
:1006A0000100000000000100010000000000000047
:1006B0000100010000000100010000000000010035
:1006C0000000010001000100010001000100010023
:1006D0000100010000000100010001000100010013
:1006E0000100010001000100010001000100010002
:1006F00001000100010001000100010001000100F2
:1007000001000100010001000100010001000100E1
:1007100001000100010001000100010001000100D1
:1007200000000100010001000100010001000100C2
:1007300001000100010001000100010001000100B1
:1007400001000100000000000100010001000100A3
:100750000100010001000000000001000100010093
:100760000100010001000100000001000100010082
:100770000100010001000100010000000000010073
:100780000100000000000000010001000000010065
:100790000100000000000100000001000100010054
:1007A0000100000101010101010101010202020237
:1007B000020202020203030303030303030404040B
:1007C00004040404050505050506060606060707D4
:1007D00007070708080808090909090A0A0A0B0B8C
:1007E0000B0C0C0C0D0D0D0E0E0E0F0F0F1010112B
:1007F00011111212131314141515161617171818B1
:1008000019191A1A1B1B1C1D1D1E1E1F2020212218
:1008100022232424252626272829292A2B2C2D2D5E
:100820002E2F30313232333435363738393A3B3C7B
:100830003D3E3F404142434445464748494A4C4D6E
:100840004E4F50515354555658595A5B5D5E5F6137
:100850006264656668696B6C6D6F707273757778CA
:100860007A7B7D7E8082838587888A8C8E8F919328
:100870009596989A9C9EA0A2A3A5A7A9ABADAFB14F
:10088000B3B5B7BABCBEC0C2C4C6C9CBCDCFD1D434
:10089000D6D8DBDDDFE2E4E7E9EBEEF0F3F5F8FADA
:1008A000FDFFFFAA7F55400011241FBECFEFDAE005
:1008B000DEBFCDBF04B603FE18C08091F102909157
:1008C000F202A091F302B091F4028730904BA7405E
:1008D000B04B59F41092F1021092F2021092F3020E
:1008E0001092F402E0E0F8E3099511E0A0E0B1E035
:1008F000E4E2F5E502C005900D92A639B107D9F7FB
:1009000022E0A6E9B1E001C01D92A13FB207E1F7E4
:100910000E949D0C0C94902A0C9400001F93CF937E
:10092000DF93CDB7DEB767970FB6F894DEBF0FBE83
:10093000CDBF4B8B5C8B6D8B7E8B8F8B611110923F
:10094000310286E09E01235F3F4FD901E82F1D92BF
:10095000EA95E9F795E0FE017396D90101900D92B1
:100960009A95E1F79C894E895F897B897D879E876F
:100970006F87598B488BF901DE01179601900D9214
:100980008A95E1F7CE0107960E949F1681113EC01D
:1009900086E0FE013796DE01119601900D928A9550
:1009A000E1F7FF81E8856A857B856115710531F086
:1009B000EF3F31F481E0FF3F19F403C081E001C053
:1009C00080E080FD23C02091F60130E0C90101964E
:1009D000877099274091270250E08417950779F195
:1009E000F983EA837D836C8396E0929FD001939F85
:1009F000B00D1124A950BE4FFE01319601900D9209
:100A00009A95E1F78093F6010E941C1616E08091FA
:100A100027029091F6018917F9F0189FC00111245F
:100A200089509E4F0E949F168823B1F08091270223
:100A300090E001968770992780932702E8CF0E9463
:100A40003E281092F60110922702E0EFF1E086E0D6
:100A5000DF011D928A95E9F767960FB6F894DEBF1D
:100A60000FBECDBFDF91CF911F91089582FB9927D3
:100A700090F981FD02C05D9A01C05D98911102C09C
:100A8000769A0895769808953F924F925F926F926A
:100A90007F928F929F92AF92BF92CF92DF92EF920E
:100AA000FF920F931F93CF93DF93CDB7DEB72997B4
:100AB0000FB6F894DEBF0FBECDBFFC0180819181DF
:100AC00023813481232B31F09F3F31F491E08F3F1C
:100AD00019F403C091E001C090E090FD16C77F01BA
:100AE00085E0DE01119601900D928A95E1F7F701FC
:100AF000228189819A81222349F00E947927182F27
:100B0000682F89819A810E94D42703C00E94A82758
:100B1000182F69817A81812F0E947D208C01F70135
:100B20008281882309F4F2C0980122513F45203187
:100B3000310508F097C58FEF93E00E947C29811161
:100B4000EEC0025137E8832E33E0932E002379F074
:100B50008114F4E09F0609F4E2C0C4010E947C29DC
:100B6000811101C001502FEF821A920AEFCF1E822D
:100B70001F8218861986442443942AE0322E840169
:100B80000F5F1F4FC4010E947C298E831F82882320
:100B900009F4C5C09FEF980F933060F48F834E82A5
:100BA00032E0830E911CC8010E947C298887811144
:100BB00002C0B5C048018E010A5F1F4FF8012081B5
:100BC0002223E9F2213009F04CC08181813049F4BF
:100BD0006801F2E0CF0ED11CF80182810E945E29EB
:100BE0000AC0823051F46801F2E0CF0ED11CF80146
:100BF00082810E94BA28860186C0833049F4680148
:100C0000F2E0CF0ED11CF80182810E945A28F3CF66
:100C1000843019F00F5F1F4F76C0F80122810E5FFC
:100C20001F4F80E090E030E0205331092A30310539
:100C300068F4389EA001399E500D1124C901840F1B
:100C4000951F0F5F1F4FF8012081EDCF009709F42A
:100C50005AC0EFE9FFE03197F1F700C000000197BB
:100C6000F5CFE22FF0E0E25DFE4F5490822F8695A3
:100C70008695869590E0FC01E25EFE4F64902770B9
:100C8000712C022E02C0759467940A94E2F7F1E089
:100C90006F227724FC01E25FFE4FA490B12C022E5C
:100CA00002C0B594A7940A94E2F731E0A322BB24D2
:100CB000FC01E250FF4FC490D12C02C0D594C794E0
:100CC0002A95E2F781E0C822DD246114710419F04D
:100CD00081EE0E94BA28A114B10419F086EE0E9498
:100CE000BA28852D0E945E29AB2819F086EE0E9455
:100CF0005A28672819F081EE0E945A28CD2819F049
:100D00008CE20E945E290F5F1F4F58CF0031FFE534
:100D10001F0769F581E00E9403280E94FB1880915B
:100D20002802877009F4F1C5F7018281882309F44C
:100D3000ECC58091B20182FDE8C582E029960FB62C
:100D4000F894DEBF0FBECDBFDF91CF911F910F9101
:100D5000FF90EF90DF90CF90BF90AF909F908F90DB
:100D60007F906F905F904F903F900C94E21501310F
:100D70002FE51207A9F482E0CECF0D3B3CE5130727
:100D800009F47FC408F4C0C40F3B2CE5120709F432
:100D9000AEC408F4D7C4003C9CE5190709F481C42B
:100DA000033FFCE51F0799F406E221EE40EE63EFF6
:100DB0007CE509C0073DECE51E0711F506E221EED2
:100DC00041EE67ED7CE5C7010E94A01FA8CF043F5C
:100DD0002CE5120708F05CC1083D3CE5130731F42F
:100DE00007E225EE45EE68ED7CE5EDCF093D9CE59B
:100DF000190701F708E221E045EE69ED7CE5E3CF54
:100E0000882309F47AC11092AB0203309DE51907DB
:100E100058F40A3FECE51E0780F4C80182509C4557
:100E2000449708F054C109C00136FDE51F0729F0B9
:100E3000053A2DE5120709F04AC10E940215909368
:100E4000B2018093B10101313CE5130709F4C6C03A
:100E500008F042C009309CE5190709F49BC000F571
:100E60000530FCE51F0709F485C078F403303CE544
:100E7000130709F478C008F07AC002301C4509F065
:100E8000F7C08091B1018160F1C00730ECE51E0729
:100E900009F478C008F07AC08091B1018061E6C0A1
:100EA0000D302CE5120709F487C058F40B308CE59F
:100EB000180709F479C008F07BC08091B1018860FF
:100EC0006FC00F30ECE51E0709F480C008F082C047
:100ED0008091B101877FCAC00D3F2CE5120709F44C
:100EE00071C000F505318CE5180709F485C068F478
:100EF0000331ECE51E0709F475C008F095C00E94A7
:100F00003E288091B1018F77B1C00B3F2CE51207CD
:100F1000A9F108F054C00A3F1C4509F0A9C080910E
:100F2000B20140C001309DE5190709F489C058F4A9
:100F30000F3FFCE51F0709F45AC008F069C0809113
:100F4000B20182602FC001363DE5130709F47EC06F
:100F5000053A8DE5180709F483C002301D4509F0F4
:100F600087C060E06EC08091B10182607FC08091D7
:100F7000B10116C08091B101886078C08091B20142
:100F800082604FC08091B101806270C08091B101D8
:100F900080646CC00E943E288091B101806866C068
:100FA000846064C081603DC08091B1018E7F5EC06D
:100FB0008091B1018D7F5AC08091B10116C080919E
:100FC000B20118C08091B2018D7F2BC08091B10118
:100FD0008F7E4CC08091B1018F7D48C08091B1015E
:100FE0008F7B44C08091B101877F8B7F3FC0809110
:100FF000B2018D7F8E7F15C08091B10182FB2227C7
:1010000020F991E0922790FB82F990FB83F92EC0A2
:101010008091B201982F909591708E7F892B90FBD3
:1010200081F98093B20124C00E943E288091B101D1
:1010300087FB222720F991E0922790FB87F916C0C1
:1010400061E08EE090E00E94902912C08091B10191
:1010500084FB222720F991E0922790FB84F906C0B7
:101060008091B101982F909590FB80F98093B10108
:101070006091B1011091B20184E090E00E9490294A
:10108000612F82E290E00E9490290E943E2847CE84
:10109000053FFCE51F0731F406E221EE42EE65EF65
:1010A0007CE591CE053F2CE5120730F407E225EEF2
:1010B00044EE64EF7CE587CE063F3CE5130709F07C
:1010C0009FCE07E225EE46EE66EF7CE57CCE06314C
:1010D0008CE5180721F5809132028A7A91E009F4B3
:1010E00090E090939801882311F065E301C069E2D4
:1010F00088EE91E00E944E1F0FC006312CE51207CA
:1011000009F040C080919801882309F438C365E351
:1011100088EE91E00E94411F0E94A61500CE0A357C
:101120003DE5130749F158F401159CE51907B1F0A5
:101130000E3D1C4509F042C00E941E15F0CD0B3536
:10114000FDE51F07D9F00C351D45C1F58091B201B1
:1011500082FB882780F991E0892711C00E943E28F0
:101160003FEF84E39CE0315080409040E1F700C0C5
:1011700000000E94B31ED3CD81E001C080E00E9438
:10118000FF151CC08091320282720C3CECE51E07F8
:1011900009F49DC308F025C3063C2CE5120709F4A9
:1011A00082C308F0FCC2033C9CE5190709F471C333
:1011B00008F0E7C2023C1C4509F447C3F7018281ED
:1011C00000811181882349F0C8010E947927D82E17
:1011D000682FC8010E94D42704C0C8010E94A82714
:1011E000D82EB8018D2D0E947D200E946813B82E44
:1011F000192F982EF7010281A580A2949FE0A922C1
:10120000809128028770B9F00023A9F0812F807F98
:10121000803421F080E28B0D883068F08091B2013B
:1012200082FD09C082E00E94E21580912802877049
:10123000DD24D3948111D12CC12EC2948FE0C82219
:101240008C2D90E08C30910508F0D5C1FC01EA5A54
:10125000FF4F0C942C2A812F807F1F70882311F060
:101260001295107F0023B9F0112309F4B2C180E276
:101270008B0D883010F0911006C080913202182B2F
:101280001093320205C080913102182B1093310265
:101290000E94A6159EC18B2D0E945A28112309F485
:1012A000AAC180E28B0D883080F1992071F11095F0
:1012B000809131021823109331022AC0812F807F40
:1012C0001F70803211F01295107F8B2D992021F024
:1012D000F1E09F16D9F149C08091B20182FF1BC095
:1012E000002369F0112339F080913202182B1093FA
:1012F00032020E94A61580E00E94BA287CC180E0DC
:101300000E945A28112309F476C1812F0E949F154B
:101310000E94A61570C1002381F080913302AA209B
:1013200051F021E0A21207C0182B181709F463C16D
:101330001093330260C1812B10C0AA2021F031E04C
:10134000A31609F458C10E94991527C0002341F043
:1013500085E08A1508F44FC1812F0E9450284BC1A7
:1013600094E09A1508F447C118C0002349F0AA2058
:1013700099F3F701858180FF2CC18F708583ECCFB5
:10138000AA2059F0893309F033C1FFEF27EE33E08B
:10139000F15020403040E1F729C1812F0E944928B7
:1013A0002AC1812F86958695837019F0813061F06E
:1013B00022C1002321F08B2D912F937002C080E079
:1013C00090E00E947E1F1FC1002321F08B2D912FE2
:1013D000937002C080E090E00E94681F14C18B2DC2
:1013E000002319F00E94032702C00E944A260E948F
:1013F000202609C1812F8370A9F5011100C14B2D51
:10140000429546954770440F440F8B2D8F7090E0A6
:101410009C01042E01C0220F0A94EAF7B4FE08C012
:101420008FE090E001C0880F4A95EAF7809501C0EF
:1014300080E0169516951370123069F088F490913B
:101440003402113019F0822B892302C0922B892B90
:101450000E941A28D4C0822B909134028927F8CF99
:10146000822BF6CF002319F0812F817001C0869561
:10147000882309F4C4C04B2D429546954770440F0C
:10148000440F8B2D8F7090E09C01042E01C0220F21
:101490000A94EAF7B4FE08C08FE090E001C0880F1C
:1014A0004A95EAF7809501C080E01695169513706D
:1014B000123059F078F490914F02113019F0822BCC
:1014C000892309C0922B892B06C0822B90914F0251
:1014D000892701C0822B0E94FF2791C01F70002323
:1014E00039F0812F0E940F288B2D0E94502887C031
:1014F0008B2D0E944928812F0E94032880C08B2DAC
:1015000092EF991679F1991538F0E0EF9E1659F09F
:10151000F1EF9F1611F159C023EF921651F134EFFC
:101520009316B9F052C0002379F084E08A1508F4CC
:1015300062C01F7181E090E001C0880F1A95EAF740
:1015400090914F0289271FC095E09A1508F453C067
:10155000F0CF8091B20182FF19C0002329F0812FC2
:101560008F7126C00023D9F3812F8F710E94032829
:1015700042C0002339F01F7181E001C0880F1A9525
:10158000EAF701C080E00E94FF2735C0002399F0F0
:101590001F71812F0E940F288091B20182FD07C028
:1015A000E8E01E9FC0011124836080932802812FF0
:1015B0000E940F2820C081E00E94E215F1E0FA1598
:1015C000D0F482E00E94E21516C0002321F0AA2088
:1015D00031F28B2D91CEAA2039F2893349F42FEFC5
:1015E00037EE83E0215030408040E1F700C000003A
:1015F0008B2D0E945A2888EF8C0D843020F40E9495
:10160000941F0E943605DD2009F47FC180912802D5
:1016100080FD7BC1F70112828595859585950E9495
:101620000F28C7010E944405809128028595859561
:10163000859529960FB6F894DEBF0FBECDBFDF911A
:10164000CF911F910F91FF90EF90DF90CF90BF90BF
:10165000AF909F908F907F906F905F904F903F9052
:101660000C9403280031EFE51E0711F481E006C059
:101670000131FFE51F0709F080CB82E00E940F28AF
:101680004CCB8091A802982F96959695969549F106
:10169000915E990F990F990F8770892B8093A802FB
:1016A00014C09091A802892F8695869586958F5FA4
:1016B0008F71843008F05FC0880F880F880F977093
:1016C000892B8093A8028091A802887F91E009F479
:1016D00090E08091A80290FB80F98093A8020E947C
:1016E00087218091A8028695869586950AC080916B
:1016F000A80280FF1CC08E7F8093A8020E948721D1
:1017000080E00E94D4200BCB0B3BECE51E0711F4CC
:1017100083E006C00C3BFCE51F0709F041CB80E0ED
:101720000E948C218091A8020E948721F8CA8160C2
:101730008093A802813019F489E08093A8028091F7
:10174000A802CDCF2091A802822F869586958695F6
:10175000482F50E04330510554F48F5F982F990F74
:10176000990F990F822F8770892B8093A8028091FF
:10177000A8028160B2CF97709093A802A4CF69E2CB
:10178000C7CC043C2CE5120709F488C0053C1C4575
:1017900009F014CD4DEB55E266EC75E29CC0093CB6
:1017A0009CE5190709F489C070F4073CFCE51F07A4
:1017B00009F47EC0083C1C4509F000CD41EB55E220
:1017C00065EA75E288C00A3C3CE5130709F47AC073
:1017D0000B3C1C4509F0F2CC41E154E262E274E2B8
:1017E0007AC0013DECE51E0709F480C098F40E3C78
:1017F0002CE5120709F474C008F470C00F3C8CE5A6
:10180000180709F470C0003D1C4509F0D7CC6EE004
:1018100089E074C0043DECE51E0709F46DC058F47E
:10182000023D2CE5120709F464C0033D1C4509F094
:10183000C5CC88E167C0053D8CE5180709F461C097
:101840000D351D4509F46BCAB9CC8091A30280FF08
:101850001BC08E7F8093A3026091A3027091A402AB
:101860008091A5029091A6020E94FF231092570238
:10187000EFEFF0E722E0E150F0402040E1F700C058
:1018800000000E94FD214BCA81608093A3028695CF
:1018900039C04DE056E266E176E21DC046E156E20F
:1018A0006DE076E218C046EC55E26DEB75E213C0D0
:1018B00045EA55E261EB75E20EC04DE855E269E993
:1018C00075E209C049E955E26DE875E204C042E2FB
:1018D00054E261E174E20E94E12121CA81E012C078
:1018E00065E082E00BC068E086E008C064E18FE05C
:1018F00005C067E185E102C062E289E10E94D02172
:101900000ECA83E20E940A260ACA29960FB6F894E4
:10191000DEBF0FBECDBFDF91CF911F910F91FF9022
:10192000EF90DF90CF90BF90AF909F908F907F907F
:101930006F905F904F903F900895CF93DF93CDB716
:10194000DEB7AA970FB6F894DEBF0FBECDBF84B73F
:10195000877F84BF0FB6F894A89580916000886156
:1019600080936000109260000FBE90E080E80FB698
:10197000F89480936100909361000FBE85B78068F2
:1019800085BF85B7806885BF87E492E19093970112
:10199000809396010E94201C0E943F1C8091E200CF
:1019A00084608093E2007894809145028823A1F0BE
:1019B0001091E9001F709091EC00892F817090FDCB
:1019C00080E8182B1092E9008091E80083FD0E94C6
:1019D00006191F701093E90082E084BD93E095BD65
:1019E0009AEF97BD80936E000E94BB20811102C0C8
:1019F0000E94AC200BE111E0A7E2EA2EA1E0FA2E52
:101A0000D8018D918D018F3F11F00E948C12E0164C
:101A1000F106B1F707E211E0F80181918F018F3FE4
:101A200011F00E948C12F1E000331F07A9F788E142
:101A3000E0EDF1E0DF01282F1D922A95E9F7E9E9B1
:101A4000F1E0DF011D928A95E9F7559A6E9A0E949E
:101A50001315811102C00E941E1582E090E00E94C1
:101A60007C298093B6010E9402159093B201809365
:101A7000B1010E94A312EFE3FCE93197F1F700C036
:101A800000000E94A3128091D00180FF08C06FEF78
:101A90007FEF80E090E00E94AE290E94B31E83E0B9
:101AA00090E00E947C290E941A28279A2F988AE0A9
:101AB0008093800089E1809381008FEF9FEF909366
:101AC0008700809386000E94A5210E94A521809115
:101AD000B301811133C00E941315811104C00E940B
:101AE0001E150E94332488E090E00E9484296093B0
:101AF000A3027093A4028093A5029093A6026E7F26
:101B000071F40E94332488E090E00E94842960935D
:101B1000A3027093A4028093A5029093A6020E9450
:101B2000EC23109257028091A30280FF04C060E072
:101B300086950E94CF2581E08093B30180E091E0FB
:101B40009093AF028093AE02E8E16E2E712CF0E428
:101B50005F2E99249394882483948E010F5F1F4FE6
:101B600080914502853009F07DC060E1E62E72E18A
:101B7000F72E80914502853009F05BC080914502C7
:101B8000843009F443C080E00E94D42080E00E94A9
:101B90003605109257028091B501811116C08092CE
:101BA000B5018091A302982F91709093B4018E7F1C
:101BB0008093A302FFEF20E732E0F1502040304055
:101BC000E1F700C000000E94FD211092B2020FB6A2
:101BD000F894A895609260000FBE5092600083B7A1
:101BE000817F846083BF83B7816083BF7894889549
:101BF00083B78E7F83BF0FB6F894A895809160005D
:101C0000886180936000109260000FBE8091440252
:101C1000882309F4AECF0E94A312E0EDF1E0819198
:101C20009191892B09F00AC441E0E83EF407B9F725
:101C3000A0CF0E943E280E94A5210E94941F0E94CE
:101C400036051092B5018091B401882349F0809146
:101C5000A30281608093A30260E086950E94CF2555
:101C60000E94E7210E94A312882359F08FB7F894AD
:101C70004091B3025091B4026091B5027091B602E6
:101C80008FBF50EDA52E51E0B52EA7EBB1E0F501C9
:101C9000E12CF12C7E2D219131918D919D91822706
:101CA0009327009779F160E0CC24C394D12CA6014E
:101CB00048235923452B09F169A37AA32C213D21FF
:101CC00081E0232B09F480E08BA30E940C1F81602C
:101CD000782F9DA38CA349A15AA16BA18DA10E942D
:101CE0008E04F701EE0FFF1FE954FE4F80819181B2
:101CF000C826D926D182C0821CC06F5FCC0CDD1CE7
:101D00006930A9F68FEFE81AF80A9CE0E916F104A9
:101D100009F68FEF8EA38FA318A60E940C1F816077
:101D2000782F9AA789A74EA15FA168A58AA50E94CE
:101D30008E0480915702882309F498C0809156023E
:101D4000E091A302E695E81BE0935202823059F439
:101D5000F0E0E454FE4FE491EE2EF12C85E7C82E1E
:101D60008EE1D82E5EC0863059F4F0E0E754FE4F85
:101D7000E491EE2EF12CB5E6CB2EBEE1DB2E51C068
:101D8000893061F4E695F0E0EA54FE4FE491EE2EDE
:101D9000F12CA1EBCA2EA3E2DA2E43C08F3061F4FE
:101DA000E695F0E0ED54FE4FE491EE2EF12CF4E4D4
:101DB000CF2EF3E2DF2E35C0853159F4F0E0E05547
:101DC000FE4FE491EE2EF12CE6EFCE2EE2E2DE2E77
:101DD00028C08831B1F0833249F4EEEAF1E0E590B1
:101DE000F49075E2C72E7EE1D72E1BC0843289F0B5
:101DF00050EDE52E57E0F52E69EDC62E6DE1D62E9D
:101E000010C038E2E32EF12C4DE6C42E42E2D42E6F
:101E100008C094EFE92EFF24F39423E3C22E22E2BC
:101E2000D22E80915302882361F0109253020E94B7
:101E30000C1F909351028093500210925502109201
:101E400054020E940C1FE0915002F09151028E1B2F
:101E50009F0B8F3F9F4750F4EE0EFF1EF0925102F2
:101E6000E092500280E592E0F601099586E0E1EC0F
:101E7000F2E0D80101900D928A95E1F7C090C3027B
:101E8000D090C402E090C502F090C6021092C30246
:101E90001092C4021092C5021092C602C11003C073
:101EA000DD2009F44FC08091BF029091C0020E94D2
:101EB000FD1E9C019091BB02992309F4DEC22531DD
:101EC000310508F43FC09F3F19F09F5F9093BB021C
:101ED000CC2061F00E94E3261C1414F491E001C0B0
:101EE0009FEF899F802D11248093C302DD2061F034
:101EF0000E94E3261D1414F491E001C09FEF899F16
:101F0000802D11248093C4023091C3023323D1F079
:101F10002091C4022223B1F045EB3403C001112407
:101F2000992319F09093C30202C09092C30235EB3B
:101F30002303C0011124992319F09093C40202C015
:101F40009092C402E11003C0FF2009F44FC08091B9
:101F5000BD029091BE020E94FD1E9C019091BA02AA
:101F6000992309F48FC22135310508F43FC09F3F02
:101F700019F09F5F9093BA02EE2061F00E94C12693
:101F80001E1414F491E001C09FEF899F802D11244D
:101F90008093C502FF2061F00E94C1261F1414F433
:101FA00091E001C09FEF899F802D11248093C6028C
:101FB0003091C5023323D1F02091C6022223B1F023
:101FC00045EB3403C0011124992319F09093C50205
:101FD00002C09092C50235EB2303C001112499235E
:101FE00019F09093C60202C09092C6028091C3027B
:101FF00081110BC08091C402811107C08091C5027C
:10200000811103C08091C60281110E942026CB82DB
:10201000DC82ED82FE8286E0F801A1ECB2E0019064
:102020000D928A95E1F70E94941F9091CF01891734
:1020300021F08093CF010E943605809145028430C3
:1020400009F08ECD83E08093E9008091E80082FF63
:1020500087CD8091E80085FF21C00E94771D811106
:102060001BC080E2C82ED12C780109C08091F100FC
:10207000D7018D937D01B1E0CB1AD10869F0809131
:10208000E80085FDF3CF8091E8008B778093E8002E
:102090000E94771D882399F391E001C090E0809120
:1020A000E8008B778093E800992309F459CDE98102
:1020B0008E2F90E0FC013197E331F10508F094C1D7
:1020C000EE59FF4F0C942C2A1A8289E0E5C08A81D0
:1020D000823009F4C9C1833089F0813009F084C1AC
:1020E0002FB7F8948091B3029091B402A091B502F9
:1020F000B091B6022FBFBB83AC8323C0F801CE01E1
:102100004996D5012C9111963C91B2E0AB0EB11CD1
:102110003283238332968E179F0799F767C18A818E
:10212000823009F061C16B817C818D819E810E942A
:10213000322A0E948A205AC14C816B818A810E9476
:1021400057209D8398C1CD80DE80DC24CD24DC2403
:102150008C81EB809A81E2E1EE9E70011124F8ED12
:102160009F9FE00CF11C1124E80EF11CE80EF11CFD
:102170006D2DC70187960E9490296C2DC701889606
:102180000E94902933C10E94232030C18A81893066
:1021900061F48B8123E0829FC00111246FEF70E016
:1021A0000E94E229862F0E948C218A818138B1F019
:1021B00050F4803809F01AC120E04B816091A502EB
:1021C0008091A40231C0823859F1833809F00EC1E0
:1021D00020E04091A6026C818B8126C060E08B815B
:1021E0000E94CF259B818091A302911111C08E7F07
:1021F0008093A302109257023FEF40E782E03150F4
:1022000040408040E1F700C000000E94FD21EEC088
:1022100081608093A30260E086950E94CF25E6C08E
:102220008B818093A702E2C00E94F224DFC08A81E2
:10223000893021F08A3089F41B82D8C08091A802AD
:10224000869586958695AFEF8A9FC001112463E03D
:1022500070E00E94E2296B83C9C0813899F030F4A4
:10226000803809F0C3C08091A60216C0823891F070
:10227000833809F0BBC08091A4028B838091A502B2
:102280008C83B4C08091A30280FF02C0869504C0F5
:1022900080E002C08091A7028B83A8C08091A80231
:1022A0000E9487216091A3027091A4028091A502EF
:1022B0009091A6020E94FF2399C080E14EC01A822D
:1022C00089E7EACFEA80FB80FE24EF24FE24CC805D
:1022D000D12C5801C70189579C4F9501201B310B08
:1022E0002C153D0508F082C0B9E7EB16F10428F47F
:1022F0000E947C29F501848303C0D50114961C92A9
:10230000BFEFEB1AFB0AEFEFAE1ABE0AE3CFEA808B
:10231000FB80FE24EF24FE24CC80D12C5801C70181
:1023200089579C4F9501201B310B2C153D0508F05A
:102330005DC0F9E7EF16F10428F4D50114966C910D
:102340000E949029BFEFEB1AFB0AEFEFAE1ABE0A0C
:10235000E6CF0E9413204AC084E08A8347C0EA8007
:10236000FB80FE24EF24FE24CC80D12C5801C70131
:1023700087969501201B310B2C153D05B8F5F0E62D
:10238000EF16F3E0FF0630F40E947C29D501149685
:102390008C9302C0F5011482FFEFEF1AFF0A2FEFB2
:1023A000A21AB20AE4CFEA80FB80FE24EF24FE24C6
:1023B000CC80D12C5801C70187969501201B310B89
:1023C0002C153D0598F430E6E31633E0F30628F4C7
:1023D000D50114966C910E949029BFEFEB1AFB0A6D
:1023E000EFEFAE1ABE0AE7CF8FEF898380914502E7
:1023F000843009F0B5CB8091E9008F702091EC001A
:10240000922F917020FD90E8F92EF82A82E08093B7
:10241000E9008091E80080FF0CC040E050E060E2FD
:1024200070E0C8010E94AA1D8091E8008E77809319
:10243000E8008F2D8F708093E90092CBE9BCF9BC46
:1024400009B400FEFDCF8091D8008F7D8093D80025
:102450008091E00082608093E0008091E00081FD47
:10246000FCCF0E943E2885CB86E290E00E947C292A
:102470001B821C821D828E83B9CF2B30310508F060
:1024800024CD60CD2B30310508F073CDAFCD80E089
:1024900008959091B10192FF0DC0282F2871283026
:1024A00019F4877F846006C0282F2471243011F42A
:1024B0008B7F886093FF0DC0282F2871283119F475
:1024C000877E846106C0282F2471243111F48B7E0D
:1024D00088612091B20120FF0DC0382F387138304B
:1024E00019F4877F816006C0382F3171313011F4C3
:1024F0008E7F886021FF0DC0282F2871283119F4A4
:10250000877E816106C0282F2171213111F48E7ED2
:10251000886194FD877E0895F894E82FE295EF7026
:10252000F0E031A1282F2F7081E090E001C0880FEA
:102530002A95EAF7982F9095932391A392A1892B3E
:1025400082A3789408958F929F92AF92BF92CF9278
:10255000DF92EF92FF920F931F93CF93DF93CDB74C
:10256000DEB768970FB6F894DEBF0FBECDBFAE01E1
:102570004F5F5F4F7A0188E1FA0111928A95E9F77E
:102580000BE111E06A01AA24A394B12CF801808127
:102590008F3F09F447C0F894E82FE295EF70F0E020
:1025A00021A18F70A50102C0440F551F8A95E2F743
:1025B000CA01922F982B91A392A18095892382A37F
:1025C000789400C0E7E2F1E021E030E0812C912C2A
:1025D00041914F3F89F0A42FA295AF70B0E0909643
:1025E0008C9190E04F7002C0959587954A95E2F7DF
:1025F00080FD02C0C90102C080E090E0882A992ACB
:10260000220F331F51E0E033F50711F7F801808105
:102610008F3F11F00E948C12F0EAFA95F1F7F60163
:10262000918280820F5F1F4FF2E0CF0ED11C41E0FC
:102630000732140709F0AACF48E150E0B70189E951
:1026400091E00E94832A11E0009709F410E0892BA1
:1026500089F088E1F701A9E9B1E001900D928A952E
:10266000E1F781E0809337020E940C1F90933602BD
:1026700080933502809137028823B1F08091350232
:10268000909136020E94FD1E059770F0E9E9F1E095
:10269000A0EDB1E0819191918D939D9351E0E13B4B
:1026A000F507C1F710923702812F68960FB6F8949C
:1026B000DEBF0FBECDBFDF91CF911F910F91FF9075
:1026C000EF90DF90CF90BF90AF909F908F90089544
:1026D000CF93DF938238910569F1B0F4813391058E
:1026E00009F46FC048F48932910509F465C08A3253
:1026F000910509F46BC08AC08533910509F457C070
:1027000089339105B9F082C0833E910571F138F4A7
:10271000803E9105B1F0823E910511F177C0863E71
:102720009105B9F1873E9105C9F1843E910509F003
:102730006DC024C02091B10120FD53C021FD51C0C6
:1027400065C08091B10180FD46C08091B20180FFDB
:1027500048C08091B10184FD50C183EE90E04FC12B
:102760008091B10182FF3AC0F4CF8091B10182FD26
:1027700035C08091B20180FD34C0EBCF8091B201B1
:1027800081FF35C08091B10184FD37C187EE90E0B3
:1027900036C18091B10183FF27C0F4CF8091B10190
:1027A00083FD22C08091B20181FD21C0EBCF8091D9
:1027B000B10185FD1FC021C08091B10185FD1DC003
:1027C00019C08091B10186FD1BC01DC08091B1016F
:1027D00086FD19C015C089E390E011C182EE90E03A
:1027E0000EC180EE90E00BC186EE90E008C184EE51
:1027F00090E005C189E290E002C185E390E0FFC06E
:102800008AE290E0FCC081E390E0F9C0811531E5F7
:10281000930708F069C0811540E59407F0F09C012A
:1028200074E0369527957A95E1F7922F9370482FAB
:10283000437021E030E002C0220F331F4A95E2F7D7
:102840003C68392B982F9F709695969540E2949FFF
:10285000C0011124822B932BD2C0883E910568F5CC
:10286000803E910508F0CBC0883A9105B8F4853ACE
:10287000910548F0855AE82FF0E0E05DFE4F808139
:1028800090E09064BCC08130910509F4B3C008F4B5
:10289000B4C08430910508F4B0C0B1C08F3B91053D
:1028A00008F0ABC0885AE82FF0E0EE0FFF1FED5C98
:1028B000FE4F808191819464A2C0811520E292072D
:1028C00058F4811531E0930708F099C0803F9105D5
:1028D00008F493C0906593C0811540E4940708F410
:1028E0008CC09F70906A8BC0811525E5920708F017
:1028F00042C0811534E5930728F0982F8827846F0C
:10290000906A7DC0811543E59407B0F09C01237067
:10291000332741E050E002C0440F551F2A95E2F7EB
:10292000282F2695269580E2289F90011124CA0120
:10293000822B932B9A6863C0811522E5920728F4B5
:10294000982F8827816F906A5AC09C012370332783
:1029500041E050E002C0440F551F2A95E2F7282FAE
:102960002695269580E2289F90011124CA01822B8A
:10297000932B9C6844C0EC01811539E59307A8F4BA
:102980008115984528F09C2F8827806F906A37C062
:10299000C11586E5D80788F58C2F0E9449128F71E2
:1029A00090E0982F882790622AC081152AE5920727
:1029B00090F48C2F8F700E94491294E0D695C795A1
:1029C0009A95E1F7CF70D0E0DC2FCC27D0699E013B
:1029D000282BC90114C090568115904270F48D2F98
:1029E0008F710E944912282F2F71CE019927906272
:1029F000922B05C081E090E002C080E090E0DF9182
:102A0000CF910895CF9384E090E00E947C29C82F55
:102A100082E290E00E947C292C2F30E0A901582B03
:102A2000CA01CF91089580E090E00E948A29893EF2
:102A30009E4F11F40C94BB2080E0089569EE7EEF68
:102A400080E090E00E94AE2960E082E090E00E9489
:102A5000902960E083E090E00E9490291092340277
:102A600060E084E090E00E94902960E082E290E0E3
:102A70000E94902960E085E090E00E94902960E04B
:102A800086E090E00E9490296FEF87E090E00E943E
:102A9000902940E050E0BA0188E090E00E94A2292D
:102AA00060E08DE090E00E94902940E050E0BA01A3
:102AB00088E190E00E94A22960E087E190E00E9416
:102AC000902940E050E0BA018CE190E00E94A229F8
:102AD00060E070E080E290E00E94AE2940E050E0CB
:102AE000BA0188E190E00E94A22980E00E948E2035
:102AF0000E94AC20E3EAF2E08081816080838695C9
:102B00000E940A2621E040E86FEF80E00E94F22454
:102B10008BE00E940A2640E050E0BA018FE090E08E
:102B20000E94A22940E050E0BA0183E190E00C94B9
:102B3000A229809133028111109233020895809569
:102B4000909132028923809332020895909132024B
:102B500080913102982B9093E80180913302882371
:102B600089F0892B8093E801EAEEF1E097E080E0BC
:102B7000915029F021912223D9F38F5FF9CF811150
:102B80000E94991548E050E069E272E088EE91E019
:102B90000E94832A892BA9F088E0E8EEF1E0A9E2FF
:102BA000B2E001900D928A95E1F7E091AE02F091CA
:102BB000AF02309731F00280F381E02D88EE91E092
:102BC00009940895209128028095822380932802F9
:102BD000982F977099F430E0482F082E000C550B71
:102BE0002417350759F09091B20192FD07C08595E1
:102BF000859585950E940328109228020895CF9309
:102C0000C091B201C2FB992790F9981799F080FB07
:102C1000C2F9C093B2016091B10184E090E00E94DA
:102C200090296C2F82E290E00E94902982E0CF915F
:102C30000C94E215CF910895809127029091F601AE
:102C4000891719F08F5F8770FBCF08950F931F933B
:102C5000CF93DF938091F50182958F7009F05DC06D
:102C60008091F201882309F458C0809127021091C5
:102C7000F6016091F0017091F101C091F301D091E2
:102C8000F40191E06F3F09F090E0292F06E08117F1
:102C900009F443C0209721F07F3F21F030E003C0CA
:102CA00031E001C0322F90E030FD34C0089FF001C8
:102CB000099FF00D1124DF01A950BE4F11963C91E0
:102CC0001197371327C03C91361324C012963C91BC
:102CD000129731111FC013964D915C9114974C1BA4
:102CE0005D0B483C5105B0F48091F5018F70806117
:102CF0008093F501E450FE4F80818F708061808366
:102D000080EF91E00E944405DF91CF911F910F91D8
:102D10000C941C1601968770BACFDF91CF911F914A
:102D20000F910895CF93DF93EC010E947927BE01A4
:102D30000E947D200E946813DF91CF9108959F9299
:102D4000AF92BF92CF92DF92EF92FF920F931F93B9
:102D5000CF93DF93CDB7DEB761970FB6F894DEBFA0
:102D60000FBECDBF8C0185E0F801DE011D960190FC
:102D70000D928A95E1F7F801E2809091F00160915F
:102D8000F1014091F3015091F4014115510531F0E9
:102D90006F3F31F481E09F3F19F403C081E001C02F
:102DA00080E0F82FF1709F2E80FD1AC1F80130816C
:102DB0002181C380D48080EFA82E81E0B82EF090CE
:102DC000F201F601E41BF50BFF2009F4C6C0809167
:102DD000F501E83CF10508F091C0482F407F09F06B
:102DE00050C0621311C093130FC0FE2CE1100CC031
:102DF0008F7080618093F501C5010E944405809128
:102E0000F501F801858329C1CD2831F02F3F31F438
:102E100081E03F3F19F403C081E001C080E080FD04
:102E200003C081E08E2502C080E090E0F82FF170B1
:102E3000FF2E80FF1CC0809127024091F60156E0D2
:102E4000841709F4E8C090E0589FF001599FF00DF5
:102E50001124E950FE4F6181261306C0608163137F
:102E600003C06281E61203C001968770E9CFFE2C91
:102E7000EE2009F4F2C08091F50181608093F501A4
:102E800049C0621306C0931304C0E11002C0F801E8
:102E900086C0C8010E941E28882351F1EE2041F10E
:102EA0002091F501822F82958F7090E0029774F047
:102EB0008091F0019091F10198878F831986DB86CC
:102EC000CA862C87CE0107960E94440586E0F80149
:102ED000A0EFB1E001900D928A95E1F70E942616CD
:102EE0000AC06217C9F0C8010E941E2881111EC0C5
:102EF000C8010E944405FF24F394AFC0482F407FCF
:102F000081F780EF91E00E94440586E0F50111927F
:102F10008A95E9F7F12CA1C09313E5CFE110E3CF37
:102F2000F8018583C8010E94440554C0EE2001F3D6
:102F30002091F501822F82958F7090E0029734F2F4
:102F40008091F0019091F1019A8389831B82DD8247
:102F5000CC822E83CE010196B7CFE83CF105D0F5A7
:102F6000FE2CEE2029F2621327C0931325C0209176
:102F7000F50120FD18C0822F82958F70482F50E0F8
:102F80004115510581F0F80125834F30510541F07D
:102F90008F5F982F9295907F822F8F70892B8583DA
:102FA000C8010E94440586E0F801A0EFB1E001905D
:102FB0000D928A95E1F751C0C8010E941E28811127
:102FC00085CF8091F50181608093F501C8010E9451
:102FD000440543C086E0F50111928A95E9F73DC0AA
:102FE000EE2009F485CFC8010E941E28F82E882300
:102FF00009F47ECF86E0F801A0EFB1E001900D92D8
:103000008A95E1F78091F0019091F1010E9492166A
:103010000E94261622C03D872E878D859E850E94A0
:103020009216292F22952F70223028F49F7039F0A4
:10303000811105C00BC0243028F49F7049F4805ED4
:10304000883020F0C8010E9444059F2CF92C05C04F
:10305000F8019581907F99F7F9CF8F2D61960FB682
:10306000F894DEBF0FBECDBFDF91CF911F910F91BE
:10307000FF90EF90DF90CF90BF90AF909F9008951A
:103080008091470287FF11C08091E80082FD05C052
:10309000809145028111F8CF11C08091E8008B77B3
:1030A0000BC080914502882349F08091E80080FFA1
:1030B000F8CF8091E8008E778093E8000895982FEC
:1030C000973068F59093E900981739F07091EC000B
:1030D0002091ED005091F00003C0242F762F50E096
:1030E00021FD02C09F5FECCF3091EB003E7F30931B
:1030F000EB003091ED003D7F3093ED003091EB001F
:1031000031603093EB007093EC002093ED0050930E
:10311000F0002091EE0027FDE5CF80E008958F704C
:103120008093E90081E0089520914D0230914E0294
:103130002617370748F06115710539F42091E8002A
:103140002E772093E80001C0B901FC0120E0611551
:10315000710579F1809145028823F1F18530F1F113
:103160008091E80083FD3CC08091E80082FD2EC084
:103170008091E80080FFEBCF2091F3008091F20076
:1031800090E0922B6115710551F08830910538F46B
:1031900021912093F100615071090196F3CF21E054
:1031A000089709F020E08091E8008E778093E8008E
:1031B000CECF2111CFCF0AC080914502882361F084
:1031C000853061F08091E80083FD0AC08091E800BD
:1031D00082FFF2CF80E0089582E0089583E00895B1
:1031E00081E008950895BC0184E00C94891EBC011F
:1031F00083E00C94891E80914F02982F9670963030
:1032000011F4886001C0877F0C94FF271F93CF9330
:10321000DF93CDB7DEB7AA970FB6F894DEBF0FBE27
:10322000CDBFE7E4F2E08FE492E02091F10021933A
:103230008E179F07D1F780914802833009F463C04D
:1032400030F4813071F0823009F49DC0B4C08A300E
:1032500009F489C08B3009F46EC0893009F0ABC025
:1032600020C080914702813A09F0A5C08091E80012
:10327000877F8093E80080914B0290914C02892BCC
:1032800021F468E08BE392E003C060E080E090E02E
:1032900070E00E9494188091E8008B778093E8009A
:1032A0008AC080914702813209F085C080914B022B
:1032B00090914C02009719F0029709F07CC0809120
:1032C000E800877F8093E8008091E80082FD05C0D8
:1032D000809145028111F8CF6EC02091F30080915A
:1032E000F20090E0922B029731F48091F10081304E
:1032F00011F0863021F48091F10080933A028091A0
:10330000E8008B7754C080914702813A09F053C09E
:1033100080914B0290914C02892B09F04CC0809116
:10332000E800877F8093E8008091E80080FFFCCF71
:1033300080910C0137C0809147028132E1F5809184
:103340004B0290914C02892BB1F58091E800877F68
:103350008093E8000E9440188091490280930C01FC
:103360000E943E2828C080914702813221F5809139
:10337000E800877F8093E8000E94401880914A020D
:103380008093390218C080914702813AA1F480915C
:10339000E800877F8093E8008091E80080FFFCCF01
:1033A000809139028093F1008091E8008E778093BC
:1033B000E8000E9440188091E80083FFDFC18091FF
:1033C000470290914802492F50E04A30510508F0D9
:1033D000D5C1FA01EB58FF4F0C942C2A803821F00C
:1033E000823809F0CBC108C0809143029091440219
:1033F000992389F082600FC080914B028F708730D3
:1034000008F0BCC18093E9008091EB0085FB882720
:1034100080F91092E9009091E800977F9093E8007E
:103420008093F1001092F10070C1282F2D7F09F0D8
:10343000A5C1882319F0823061F0A0C180914902B2
:10344000813009F09BC1933009F080E08093440201
:103450002EC08091490281112AC080914B028F7049
:103460002FEF280F263008F089C18093E9002091C2
:10347000EB0020FF1CC0933021F48091EB008062B0
:1034800014C09091EB0090619093EB0021E030E04C
:10349000A90102C0440F551F8A95E2F74093EA0044
:1034A0001092EA008091EB0088608093EB0010920C
:1034B000E9008091E800877F8093E8000E9440182F
:1034C0005DC181115BC1109149021F778091E300BA
:1034D0008078812B8093E3008091E800877F809340
:1034E000E8000E9440188091E80080FFFCCF8091A6
:1034F000E30080688093E300111102C082E001C004
:1035000083E0809345023AC18058823008F036C18A
:103510002091490230914A022C3D53E0350779F55C
:1035200083E08A838AE289834FB7F894DE01139699
:1035300020E03EE051E2E32FF0E050935700E491A9
:1035400020FF03C0E295EF703F5FEF708E2F90E099
:10355000EA3010F0C79601C0C0968D939D932F5FFF
:10356000243149F74FBF8091E800877F8093E800BE
:103570006AE270E0CE0101960E949418B4C0809176
:103580004B0290914C02432F552743305105A9F02F
:1035900068F44130510509F400C14230510509F089
:1035A000EDC08BE590E0EDE9F2E04BC04132510512
:1035B00029F14232510589F1E1C0C90199278130D1
:1035C0009105A1F058F0029709F0D8C0EAE0F3E0C5
:1035D000E4918E2F90E0EAE0F3E030C0EEE3F3E018
:1035E000E4918E2F90E0EEE3F3E028C0E4E1F3E015
:1035F000E4918E2F90E0E4E1F3E020C08330910568
:1036000008F0BCC0880F991FFC01E659FE4F0190DD
:10361000F081E02D89E090E014C08330910508F03E
:10362000ADC0FC01EE0FFF1FEC59FE4F0190F08181
:10363000E02DDC01AF59BE4F8C9190E0009709F46A
:103640009DC02091E800277F2093E80020914D0243
:1036500030914E022817390708F4C90140E000975D
:1036600089F120914502222309F43DC02530D9F18A
:103670002091E80023FD37C02091E80022FD2FC0F3
:103680002091E80020FFEBCF4091F3002091F20061
:1036900030E0342B009759F02830310540F4449144
:1036A0004093F100319601972F5F3F4FF3CF41E0F8
:1036B0002830310509F040E02091E8002E77209372
:1036C000E800CDCF4111CDCF0AC0809145028823BB
:1036D00051F0853041F08091E80083FD04C0809175
:1036E000E80082FFF2CF8091E8008B778093E800BA
:1036F00045C0803809F042C08091E800877F809300
:10370000E800809146028093F1008091E8008E7776
:10371000D3CE811133C08091490290914A029927FA
:10372000029764F58091E800877F8093E80010910C
:103730004902109346020E944018111106C0809160
:10374000E30087FD02C081E001C084E08093450270
:1037500042E061EC81E00E945F1842E261EC84E0AB
:103760000E945F1842E261EC82E00E945F1842E230
:1037700060EC83E00E945F18809145028091E80030
:1037800083FF10C08091E800877F8093E8008091DC
:10379000EB0080628093EB0005C082E190E0E8EFEF
:1037A000F2E04FCFAA960FB6F894DEBF0FBECDBFA2
:1037B000DF91CF911F9108951F920F920FB60F9234
:1037C00011242F933F934F935F936F937F938F9326
:1037D0009F93AF93BF93CF93DF93EF93FF93C091EA
:1037E000E900CF708091EC00D82FD17080FDD0E837
:1037F0001092E9008091F000877F8093F000789428
:103800000E9406191092E9008091F0008860809370
:10381000F000CD2BCF70C093E900FF91EF91DF91C5
:10382000CF91BF91AF919F918F917F916F915F9158
:103830004F913F912F910F900FBE0F901F901895B1
:10384000E8EDF0E080818E7F80831092E20010929C
:10385000DA001092E100A0EEB0E08C9181608C93D0
:1038600080818F77808319BCA7EDB0E08C918E7F2B
:103870008C9380818F7E8083109238020895CF923E
:10388000DF92EF92FF920F931F93CF93DF93C8EDD8
:10389000D0E088818F7E8883E7EDF0E080818160D1
:1038A000808384E082BF81E08093380288818E7FAC
:1038B000888302EE10E0F80110821092DA0081EEA7
:1038C000C82ED12CF601108288818F778883888159
:1038D0008068888388818F7D888319BC1092450217
:1038E00010924602109244021092430290EEE92E8A
:1038F000F12CF70180818B7F8083888181608883B0
:1039000042E060E080E00E945F18F60180818E7FD7
:103910008083F801808181608083808188608083DA
:10392000F70180818E7F8083888180618883DF9129
:10393000CF911F910F91FF90EF90DF90CF9008955E
:103940001F920F920FB60F9211242F933F934F9314
:103950005F936F937F938F939F93AF93BF93EF93F7
:10396000FF938091E10082FF09C08091E20082FF15
:1039700005C08091E1008B7F8093E1008091DA00A7
:1039800080FF2AC08091D80080FF26C08091DA0095
:103990008E7F8093DA008091D90080FF18C080E18B
:1039A00089BD82E189BD09B400FEFDCF81E080932D
:1039B00045028091380281110FC00E94201C0E9494
:1039C0003F1C8091E20084608093E20005C019BC36
:1039D00010924502109238028091E10080FF17C0DA
:1039E0008091E20080FF13C08091E2008E7F80937F
:1039F000E2008091E20080618093E2008091D80033
:103A000080628093D80019BC85E080934502809144
:103A1000E10084FF30C08091E20084FF2CC080E18F
:103A200089BD82E189BD09B400FEFDCF8091D80037
:103A30008F7D8093D8008091E1008F7E8093E1009C
:103A40008091E2008F7E8093E2008091E2008160AD
:103A50008093E20080914602882311F084E007C041
:103A60008091E30087FD02C081E001C083E0809384
:103A70004502809145028091E10083FF27C080913B
:103A8000E20083FF23C08091E100877F8093E10003
:103A900082E080934502109246028091E1008E7F81
:103AA0008093E1008091E2008E7F8093E20080911C
:103AB000E20080618093E20042E060E080E00E94EA
:103AC0005F188091F00088608093F000FF91EF9183
:103AD000BF91AF919F918F917F916F915F914F9126
:103AE0003F912F910F900FBE0F901F90189520912E
:103AF000E4003091E50095E64091EC00842F817060
:103B000040FF23C08091E80080FD1DC080914502E8
:103B1000882399F0853099F08091EB0085FD11C0E4
:103B20004091E4005091E5002417350729F39150A6
:103B300011F09A01E1CF84E0089582E0089583E0D6
:103B4000089581E0089580E008954091E80042FFE3
:103B5000DDCF0895EF92FF920F931F93CF93DF93E2
:103B60007C018B010E94771D811119C0E7010115AD
:103B70001105A1F08091E80085FD0AC08091E80060
:103B80008E778093E8000E94771D882381F307C019
:103B900089918093F10001501109E9CF80E0DF9114
:103BA000CF911F910F91FF90EF90089580913A026D
:103BB0000895089524E02093E9002FEF3091E80064
:103BC000215035FD06C035ED3A95F1F70000211181
:103BD000F5CF2091E80025FF0BC040E050E066E003
:103BE00070E00E94AA1D8091E8008E778093E80023
:103BF0000895CF93DF9321E02093E9002FEF3091D8
:103C0000E800215035FD06C035ED3A95F1F700008A
:103C10002111F5CF2091E80025FF14C0EC0140E010
:103C200050E068E070E00E94AA1D8091E8008E7765
:103C30008093E80088E0FE01ABE3B2E001900D92D2
:103C40008A95E1F7DF91CF9108950F931F93CF935A
:103C5000DF9300D01F92CDB7DEB78C0180915A025E
:103C600081110AC09E012F5F3F4F4FEF6FEF0E94FF
:103C700042248A8180935A02F8018481813051F074
:103C800028F0823061F440915A020AC080915A02B1
:103C900040E007C060915A0240E080E003C040E08D
:103CA00080E060E00E94DB23F801848190E00196CF
:103CB00063E070E00E94F62984830F900F900F90CC
:103CC000DF91CF911F910F910895CF93DF93EC0176
:103CD000E3EAF2E0438162818C810E94D8248C81E6
:103CE0008F5F8C83DF91CF910895CF93DF93EC01A9
:103CF000EC81F0E0EE5BFC4F4491E3EAF2E062819C
:103D000081810E94D8248C818F5F8C83DF91CF9139
:103D100008958093B7027093B9026093B8028091BE
:103D200045028430F9F48093E9008FEF9091E80028
:103D3000815095FD06C095ED9A95F1F7000081112F
:103D4000F5CF8091E80085FF0DC040E050E063E0D2
:103D500070E087EB92E00E94AA1D8091E8008E77C8
:103D60008093E800089581E08093E00080E28093F2
:103D7000D8001092C9008FE19EE40197F1F700C0CE
:103D8000000087E090EBDC018093F1029093F20257
:103D9000A093F302B093F4029CE088E10FB6F8948C
:103DA000A895809360000FBE90936000FFCF789439
:103DB0001F920F920FB60F9211248F939F93AF9380
:103DC000BF938091B3029091B402A091B502B091DB
:103DD000B6020196A11DB11D8093B3029093B40267
:103DE000A093B502B093B602BF91AF919F918F910E
:103DF0000F900FBE0F901F9018959C014FB7F8942D
:103E00008091B3029091B402A091B502B091B60234
:103E10004FBF821B930B08952FB7F8948091B30284
:103E20009091B402A091B502B091B6022FBF08954F
:103E30001F920F920FB60F9211248F939F93AF93FF
:103E4000BF938091B202811113C08091B30290910F
:103E5000B402A091B502B091B6024196A11DB11D68
:103E60008093B3029093B402A093B502B093B602CC
:103E7000BF91AF919F918F910F900FBE0F901F90A8
:103E800018959C012A5F3F4FFC014281461301C0F7
:103E90001282019682179307B9F708959C01FC01DD
:103EA00032969FEF80E04191461789F09F3F19F4C9
:103EB000411101C0982F8F5F8630A9F79F3F39F0DD
:103EC000F901E90FF11D97FDFA95628308950895B0
:103ED0002091B0023091B1022817390771F0909308
:103EE000B1028093B002E091AE02F091AF02309740
:103EF00021F00084F185E02D099408952091AC0211
:103F00003091AD022817390771F09093AD0280937C
:103F1000AC02E091AE02F091AF02309721F0068042
:103F2000F781E02D09940895E091AE02F091AF027F
:103F3000309721F00190F081E02D099480E0089500
:103F40000F931F93CF93DF93C42FD22FFC01828155
:103F50008823C9F04093AB020E940C1F9093AA02E1
:103F60008093A90280E28C0F883008F057C0C77098
:103F700081E001C0880FCA95EAF7DF91CF911F91C8
:103F80000F910C9450288091AB02481330C080915F
:103F9000A9029091AA020E94FD1E883C910538F565
:103FA00010E21D0FCD17B9F080E28C0F883040F47D
:103FB000C77081E001C0880FCA95EAF70E944928BE
:103FC000183028F581E09D2F977001C0880F9A95D1
:103FD000EAF70E945028802F0E945E291830F0F4E2
:103FE000D77081E001C0880FDA95EAF70AC080E255
:103FF0008C0F883098F4C77081E001C0880FCA9593
:10400000EAF7DF91CF911F910F910C944928802FEF
:10401000DF91CF911F910F910C945E29DF91CF9189
:104020001F910F910895CF93DF93C7E8D3E060E02D
:10403000CE010E9490292196C11584E0D807B9F7D6
:10404000DF91CF910895CF92DF92EF92FF920F937D
:104050001F93CF93DF93C0E0D0E08E0108521F4F33
:104060006E0182E1C80ED11CFE01EE5BFB4FE590B4
:10407000F4906F2DCE0187960E9490296E2DCE016F
:1040800088960E9490292296CC15DD0569F70C17B9
:104090001D0731F7E80100361340F9F6DF91CF91A3
:1040A0001F910F91FF90EF90DF90CF9008950F93A5
:1040B0001F93CF93DF93C42FD0E0CC0FDD1F22E1FD
:1040C000629FC00DD11D112438ED839FC00DD11DFD
:1040D0001124CE0187960E947C29082F10E0102F12
:1040E0000027CE0188960E947C299801282BC901BF
:1040F000DF91CF911F910F910895462F843038F4AE
:104100007C3028F4693018F4672F0C94572080E035
:1041100090E0089586E290E00C949029CF93C82F08
:10412000811102C06FEF01C062E283E290E00E9461
:104130009029C11102C06FEF01C064E084E290E0F9
:104140000E949029C11102C06FEF01C067E285E2B1
:1041500090E0CF910C94902980E00E948E2060E046
:1041600070E0CB010E948A200E9423200E9413202D
:1041700081E00C948E2083E290E00E947C298232C0
:1041800081F484E290E00E947C29843051F485E23D
:1041900090E00E947C2991E0873209F090E0892F1D
:1041A00001C080E0817008958F929F92AF92BF927C
:1041B000CF92DF92EF92FF920F931F93CF93DF93F3
:1041C000843048F4811108C090918000977F9093CB
:1041D00080002F9806C083E09091800098609093B3
:1041E0008000A0918600B0918700282F30E00E94C7
:1041F000412A23E030E040E050E00E940A2A0027F4
:10420000122F232F342F012F122F232F332780918A
:104210008600909187006CE070E00E94E2296017B0
:10422000710730F0C80169E070E00E94E2295EC0C9
:104230008091860090918700E0908600F090870042
:10424000E0918600F0918700C6E0D0E0BE010E94B8
:10425000E229060F171F211D311D4801590185E074
:10426000880C991CAA1CBB1C8A95D1F7C701BE01FA
:104270000E94E2296F01E12CF12CA7019601260F83
:10428000371F411D511DC501B4010E940A2A690151
:104290007A01E0918600F0918700CA01B9010E947D
:1042A000C4299B01AC01DF010E94572A9B01AC018C
:1042B000C701B6010E94C429DC01CB012FE0B695ED
:1042C000A795979587952A95D1F70091860010912B
:1042D000870020E030E0081719072A073B0728F479
:1042E0006091860070918700CB01BC0170938D00B6
:1042F00060938C00DF91CF911F910F91FF90EF9011
:10430000DF90CF90BF90AF909F908F900895682FCF
:1043100086E090E00C949029843008F083E090913E
:10432000A8029770282F220F220F220F922B909312
:10433000A802987F21E009F420E09091A80220FBD8
:1043400090F99093A8020C94D4200E941315811127
:104350000AC00E941E158091A80284708961809312
:10436000A8020E94872186E090E00E947C29809329
:10437000A802282F26952695269530E02430310571
:1043800024F0877088618093A8028091A80280FF42
:1043900004C086958695869501C080E00C94D42053
:1043A0009091A30290FF04C09695981740F003C027
:1043B000811105C090E0961710F40C9416260C9409
:1043C0000A26882311F0FA0101C0FB0109946091CB
:1043D000A302669570E04BE050E08DE091E00E9412
:1043E000762A892B19F481E0809357020E940C1FD2
:1043F000909351028093500208958091A30280FF10
:104400000AC0539A8BB1877F9BB198602FB7F894FD
:10441000EBE5F2E00BC0EBE5F2E0118210821282D4
:10442000339632E0E33AF307C1F7EBCF32E0E33AF9
:10443000F30789F0319148E09BB9000000C037FFD5
:104440008BB9330F000000C000C000C08BB900C0A2
:104450004A9591F7EBCF2FBF8FE594E00197F1F7E5
:1044600000C000000895EF92FF920F931F93CF9327
:10447000DF938C01CBE5D2E0E12CF12CF8018481B3
:10448000FCE0EF16F1041CF4882339F002C081111E
:1044900004C09E014091A60202C09E0140E06091CE
:1044A000A5028091A4020E9442248FEFE81AF80A24
:1044B000239698E1E916F10409F70E94FD21F8011D
:1044C000848190E00196817099278483DF91CF9158
:1044D0001F910F91FF90EF9008958F929F92AF924E
:1044E000BF92CF92DF92EF92FF920F931F93CF93E1
:1044F000DF93EC014C81042F10E09801D8010E9459
:10450000412A9B01AC010E94572A6B017C01E0E229
:10451000F0E0E01BF10BA5E5B0E09B01AC010E94CF
:10452000572A4B015C019F01DF010E94392A9B0140
:10453000AC010E94622A9B01AC012C0D3D1D4E1D59
:104540005F1DC501B4010E940A2A822FF22E99E252
:10455000921728F093E0299F900111240DC025E5C2
:1045600030E0281B3109C901880F991F280F391F16
:1045700037FF02C02F5F3F4F35952795122F1095BB
:104580009BE5C92E92E0D92E00E085E5E82EEF18D4
:1045900001FD02C08E2D01C08F2D9601412F60912B
:1045A000A5020E9442240F5F83E0C80ED11C08318F
:1045B00079F70E94FD218C81811102C091E003C036
:1045C000803219F49FEF90931A0190911A01890F8C
:1045D0008C83DF91CF911F910F91FF90EF90DF902F
:1045E000CF90BF90AF909F908F9008950F931F939F
:1045F000CF93DF93CBE5D2E0FE01118210821282CD
:10460000339682E0E33AF807C1F700E010E08091CA
:104610005902082E000C990B0817190794F0809185
:104620001901082E000C990B8017910754F09E0178
:104630004091A6026091A5028091A4020E944224AA
:1046400003C0198218821A820F5F1F4F2396083108
:104650001105E9F60E94FD218091180190915902FF
:10466000980F9093590220911901280F2093190156
:10467000121614F497311CF0819580931801DF9184
:10468000CF911F910F910895BF92CF92DF92EF9239
:10469000FF920F931F93CF93DF93FC01828180FFE2
:1046A00003C0DD24DA9402C0DD24D3940BE512E0CC
:1046B000C0E0D0E028E1B22EF8011182108212820F
:1046C00094E0E92EF12CC12C809158028C0D893197
:1046D0002CF06B2D0E94D429892F02C087FD885EA3
:1046E000082E000C990BC817D90791F48091A602E7
:1046F0008E9DA0018F9D500D112455954795559580
:10470000479598016091A5028091A4020E944224DD
:10471000CD0CF1E0EF1AF108B9F621960D5F1F4FAD
:10472000C831D10549F60E94FD218091580291E0DF
:10473000D91206C0811102C087E107C0815005C0AF
:1047400090E00196BE010E94F62980935802DF9105
:10475000CF911F910F91FF90EF90DF90CF90BF907E
:104760000895EF92FF921F93CF93DF93EC018BE5B7
:10477000E82E82E0F82E10E08C8197014091A6028D
:104780006091A502810F0E944224165F83E0E80E2B
:10479000F11C103F89F70E94FD219A818C8190FFC6
:1047A00002C08F5F01C081508C83DF91CF911F9138
:1047B000FF90EF9008959091A30290FF0CC0EBE55D
:1047C000F2E0818360834283339692E0E33AF90713
:1047D000C1F70C94FD2108958091A302282F2695FE
:1047E00030E02115310519F48170826005C0253251
:1047F000310524F0817088648093A3020895CF92DC
:10480000DF92EF92FF926B017C010E94EC23B701D3
:10481000A60188E090E0FF90EF90DF90CF900C949D
:10482000A2298091A702882319F081508093A702C2
:104830006091A3027091A4028091A5029091A602BA
:104840000C94FF238091A702833018F48F5F80932C
:10485000A7026091A3027091A4028091A502909199
:10486000A6020C94FF23E3EAF2E083E08083118246
:104870008FEF82838383148260817181828193812F
:104880000C94FF23AF92BF92CF92DF92EF92FF92F0
:104890000F931F93CF93DF93E82EF62EE901E42FB9
:1048A000F0E0611106C0EE55F84FE4914E2F2E2F27
:1048B00071C0062F10E0EE55F84F4491F42FC42E2E
:1048C000D12C26E0829FC00111242FEF30E0B901E6
:1048D0000E94E2295BEA5603C001579F900D112404
:1048E0008E0D911D8E0D911D582F550F580FD9010A
:1048F000A01BB10BAC9DC001AD9D900DBC9D900D5A
:104900001124E92FF59ED0011124AB2FBB2779018B
:10491000EA1AFB0AEC9CD001ED9CB00DFC9CB00D9A
:1049200011245901A51AB108A09E7001A19EF00C96
:10493000B09EF00C1124EF2CFF242E193F092C9D62
:1049400080012D9D100D3C9D100D1124212F6230F2
:10495000710591F048F461157105E1F06130710560
:10496000B9F4242F4B2F16C06430710569F040F064
:104970006630710579F00CC0242F492FE12F0AC051
:10498000492FEF2F2B2F06C0292FE42F412F02C0D4
:10499000292FEB2F49832883EA83DF91CF911F9141
:1049A0000F91FF90EF90DF90CF90BF90AF90089560
:1049B000CF93DF9300D01F92CDB7DEB79091A302C3
:1049C00090FF0AC09E012F5F3F4F0E9442244B81FF
:1049D00069818A810E94DB230F900F900F90DF91F5
:1049E000CF9108955F926F927F928F929F92AF9234
:1049F000BF92CF92DF92EF92FF920F931F93CF93CC
:104A0000DF9300D01F92CDB7DEB7182F762E042F7C
:104A1000622E9091A30290FF6DC0E92FE695AE2F14
:104A2000B0E0A059BE4F8C91809356029E7F923089
:104A300061F49E012F5F3F4F812F0E9442244B81E2
:104A400069818A810E94DB2343C0823019F400917E
:104A5000A6023EC0863019F41091A40239C08930F4
:104A6000D9F38931A9F5E9518E2F8170582EE69539
:104A7000F0E0EE55F74FA590B4908BE5C82E82E09C
:104A8000D82EE12CF12CBB2498E1892E912CAE9CE0
:104A9000C001AF9C900DBE9C900D1124B4010E94EA
:104AA000E229812F511002C0860F01C0861B96019A
:104AB000402F672D0E9442248FEFE81AF80A83E006
:104AC000C80ED11C88E1E816F10409F70E94FD2107
:104AD0001093A4027092A5020093A602662051F0E2
:104AE0006091A3027091A4028091A5029091A60208
:104AF0000E94FF230F900F900F90DF91CF911F9195
:104B00000F91FF90EF90DF90CF90BF90AF909F906C
:104B10008F907F906F905F900895E3EAF2E0438179
:104B200028E0421B08F440E021E0628181810C947E
:104B3000F224E3EAF2E0438128E0420F08F44FEF69
:104B400021E0628181810C94F224E3EAF2E0628147
:104B500028E0621B08F460E021E0438181810C942D
:104B6000F224E3EAF2E0628128E0620F08F46FEFDA
:104B700021E0438181810C94F224E3EAF2E0818117
:104B800021E04381628188500C94F224E3EAF2E050
:104B9000818121E043816281885F0C94F2249091AD
:104BA000A30290FF36C09170811102C0926006C0CE
:104BB000853210F0986402C0880F982B9093A3025E
:104BC000662351F06091A3027091A4028091A50226
:104BD0009091A6020E94FF236091A302669570E067
:104BE0004BE050E08DE091E00E94762A892B19F08D
:104BF0001092570202C00E94E72181E08093530285
:104C000020E04091A6026091A5028091A4020C943C
:104C1000F224089561E00C94CF258091A30286953B
:104C2000815009F484E261E00C94CF258091A302C5
:104C300086958F5F853208F081E061E00C94CF2586
:104C40000E940C1F2091C302211104C02091C402B4
:104C5000222321F09093C0028093BF022091C502CD
:104C6000211104C02091C602222321F09093BE029C
:104C70008093BD02E091AE02F091AF02309749F00F
:104C800082E08093C1020480F581E02D81EC92E006
:104C900009940895803F39F49091C40297FF35C07C
:104CA0001092C40259C0813F29F49091C402191690
:104CB000BCF32BC09091C302823F29F497FF25C01B
:104CC0001092C30249C0833F19F41916CCF31DC0DA
:104CD0009091C502893F29F41916BCF41092C502BF
:104CE0003BC08A3F19F497FF10C0F8CF8B3F39F4CF
:104CF0009091C60297FF09C01092C6022DC08C3F4A
:104D000021F49091C6021916BCF39CE0980F9530DF
:104D100080F421E030E0A90102C0440F551F9A95AC
:104D2000E2F7CA0180959091C20289238093C20262
:104D300013C08D3F21F48091BC028E7F0BC08E3F4B
:104D400021F48091BC028D7F05C08F3F29F48091B2
:104D5000BC028B7F8093BC028091C302811106C08C
:104D60008091C402811102C01092BB028091C502E1
:104D7000811106C08091C602811102C01092BA0250
:104D800008958091BC0280FD16C081FD16C082FD91
:104D900018C08091BA02882391F0883290F428E0FC
:104DA000829FC001112468E270E00E94F629862FDC
:104DB000672B29F007C082E0089584E0089581E020
:104DC000089588E008958091BC0280FD14C081FDA3
:104DD00014C082FD16C08091BB02882381F08E3101
:104DE00080F420E5829FC00111246EE170E00E94F2
:104DF000F629862F089584E1089588E2089588E0D1
:104E0000089580E50895803F21F40E94E32681956E
:104E100004C0813F29F40E94E3268093C4020895D0
:104E2000823F21F40E94E326819504C0833F29F448
:104E30000E94E3268093C3020895893F19F40E94DB
:104E4000C12605C08A3F31F40E94C1268195809316
:104E5000C50208958B3F21F40E94C126819504C0AC
:104E60008C3F29F40E94C1268093C60208959CE0DD
:104E7000980F953078F421E030E0A90102C0440F8A
:104E8000551F9A95E2F7CA019091C202892B80932F
:104E9000C20208958D3F21F48091BC0281600BC055
:104EA0008E3F21F48091BC02826005C08F3F29F4BF
:104EB0008091BC0284608093BC02089580E090E001
:104EC0000E947E1F80E090E00E94681F10923102D5
:104ED0000E94A615E1ECF2E086E0DF011D928A95C2
:104EE000E9F71092BB021092BA021092BC020C9425
:104EF0002026CF92DF92FF920F931F93CF93DF93E1
:104F00006C0100914F0280913402082BC7E0D0E081
:104F100010E0C8010C2E02C0959587950A94E2F71F
:104F200080FD04C02197A8F7F12C09C0FC2EB60122
:104F30008C2F0E947D200E946813019799F38F2D7A
:104F4000DF91CF911F910F91FF90DF90CF90089547
:104F500029E0929F800D1124682F669566956695CD
:104F6000982F977083E0689FB001112440E050E0D3
:104F700080E0FB01E40FF51FE953FD4F208130E095
:104F8000092E02C0369527950A94E2F7217033273F
:104F9000042E01C0220F0A94EAF7822B4F5F5F4F65
:104FA0004330510531F7089529E0929F800D112477
:104FB000E82FE695E695E695877051E001C0550F1C
:104FC0008A95EAF783E0E89FF0011124E953FD4F49
:104FD00020E030E070E04081CB01022E02C09695C7
:104FE00087950A94E2F78170819584278523842729
:104FF00081932F5F3F4F2330310569F708958093E8
:105000004F020C945E2721E030E001C0220F8A9508
:10501000EAF7209580914F0282230C94FF2721E02C
:1050200030E001C0220F8A95EAF780914F02822B6F
:105030000C94FF27809334020C945E27FC0180813E
:1050400091810E94921692959F70963079F010F49B
:10505000925001C09A50923068F4803F69F018F481
:10506000883E40F409C0843F29F406C0883E20F001
:10507000813F11F080E0089581E00895109232029E
:1050800086E0EAEEF1E0DF011D928A95E9F70C94E3
:105090005E27882321F00E949F150C94A615089581
:1050A000882339F090913202892B809332020C943C
:1050B000A6150895882309F45CC0823869F40E941B
:1050C000941F81FF56C069E388EE91E00E944E1F55
:1050D0000E94A61569E30EC0833891F40E94941FC4
:1050E00080FF47C063E588EE91E00E944E1F0E945A
:1050F000A61563E588EE91E00E94411F0C94A61569
:10510000843869F40E94941F82FF33C067E488EEFC
:1051100091E00E944E1F0E94A61567E4EBCF9CEF22
:10512000980F913A10F4682FE5CF90E2980F9830DD
:1051300050F4877091E001C0990F8A95EAF7892FA2
:105140000E949F15DBCF9BE5980F933020F480E001
:1051500090E00C947E1F98E5980F973120F480E042
:1051600090E00C94681F803F20F00E944A260C9427
:1051700020260895CF93882309F49EC0C82F823833
:10518000B1F40E94941F81FD97C069E388EE91E01D
:105190000E944E1F0E94A6152FEF81EE94E0215031
:1051A00080409040E1F700C0000069E317C08338F9
:1051B000E1F40E94941F80FD7FC063E588EE91E0DA
:1051C0000E944E1F0E94A6152FEF81EE94E0215001
:1051D00080409040E1F700C0000063E588EE91E078
:1051E0000E94411FCF910C94A6158438B1F40E94FF
:1051F000941F82FD61C067E488EE91E00E944E1F1B
:105200000E94A6152FEF81EE94E02150804090403F
:10521000E1F700C0000067E4E1CF8CEF8C0F813A2A
:1052200080F4EAEEF1E080EF91E02191C217E1F124
:105230008E179F07D1F76C2F88EE91E00E944E1FCA
:10524000D1CF80E28C0F883068F4C77081E090E0A5
:1052500001C0880FCA95EAF790913202892B80939A
:105260003202C0CFEBE5EC0FE33040F4F0E0E05D5C
:10527000FE4F808190E0CF910C947E1FE8E5EC0F0B
:10528000E73150F4F0E0EE0FFF1FED5CFE4F808140
:105290009181CF910C94681FC03F70F08C2F0E94B9
:1052A0000327CF910C9420266C2F88EE91E00E946A
:1052B000411F0E94A615BFCFCF9108951F93CF9392
:1052C000DF93182F893319F0C0E0D0E002C0C0E5A9
:1052D000D0E0812F0E94BA28209741F08FE99FE00B
:1052E0000197F1F700C000002197F6CF812FDF91E1
:1052F000CF911F910C945A28F999FECF92BD81BD90
:10530000F89A992780B50895A6E1B0E044E050E00E
:105310000C94B629A8E1B0E042E050E00C94B62924
:10532000262FF999FECF92BD81BDF89A019700B45E
:10533000021639F01FBA20BD0FB6F894FA9AF99AFE
:105340000FBE08950396272F0E9491290E9490294D
:10535000252F0E949129242F0C9491290196272F03
:105360000E9491290C949029DC01CB01FC01F99950
:10537000FECF06C0F2BDE1BDF89A319600B40D92A1
:1053800041505040B8F70895DB018F939F930E94DE
:10539000572ABF91AF91A29F800D911DA39F900DA1
:1053A000B29F900D1124089587FB082E062687FDD5
:1053B000819567FD61950E946A2A0EF4919507FC1C
:1053C00081950895AA1BBB1B51E107C0AA1FBB1FF3
:1053D000A617B70710F0A61BB70B881F991F5A9581
:1053E000A9F780959095BC01CD01089597FB072EF4
:1053F00016F4009407D077FD09D00E94E22907FC3B
:1054000005D03EF4909581959F4F089570956195D4
:105410007F4F0895A1E21A2EAA1BBB1BFD010DC0F0
:10542000AA1FBB1FEE1FFF1FA217B307E407F50754
:1054300020F0A21BB30BE40BF50B661F771F881F30
:10544000991F1A9469F760957095809590959B01C6
:10545000AC01BD01CF010895EE0FFF1F0590F4913F
:10546000E02D0994692796276927782787277827C9
:1054700008950E94412A332312F48A1B9B0B0C943B
:10548000522AA29FB001B39FC001A39F700D811D3E
:105490001124911DB29F700D811D1124911D08953D
:1054A0000E94412AB7FF0895821B930B08950E9422
:1054B000412AA59F900DB49F900DA49F800D911D32
:1054C00011240895B7FF0C94572A0E94572A821B73
:1054D000930B0895991B79E004C0991F961708F063
:1054E000961B881F7A95C9F780950895FC01415055
:1054F000504030F001900616D1F73197CF01089552
:10550000882799270895FB01DC0104C08D91019043
:10551000801921F441505040C8F7881B990B089519
:04552000F894FFCF2D
:10552400D61DF91DDA1DF718F318F2180101191A1E
:105534001B1C1D1E1F202122010201303132339019
:1055440091353697349694F0F1F4F5F6F767669250
:10555400818283E200E900EA00B500B600B700CD1D
:10556400008301CC008A01920194012102230224C8
:10557400022502260227022A02B300B4006F00703B
:105584000040227B5D023B02C001AF02C802E80278
:105594000001020202020606060909090909090FA7
:1055A4000F0F0F0F0F1515151819191919191919A6
:0655B4001919192324005F
:00000001FF
