:100000000C946B050C94A3050C94A3050C94A30508
:100010000C94A3050C94A3050C94A3050C94A305C0
:100020000C94A3050C94A3050C944C290C941E2A43
:100030000C94EA220C94A3050C94A3050C94A3053C
:100040000C94A3050C94A3050C94A3050C94A30590
:100050000C94F4190C9472230C94A3050C94A3052E
:100060000C94A3050C94A3050C94A3050C94A30570
:100070000C94A3050C94A3050C94A3050C94A30560
:100080000C94A3050C94A3050C94A3050C94A30550
:100090000C94A3050C94A3050C94A3050C94A30540
:1000A0000C94A3050C94A3050C94A305610A610AA2
:1000B0008D0A8D0AF50AEF0BEF0BEF0B130B7B0B81
:1000C0008C0B8C0B031905190A190D19101913192A
:1000D00016197E1B811BA11BB21BBA1BC51BC81B9B
:1000E000CB1BCE1B141C141CD11BD41BD91BE61B11
:1000F000F31BF61BFA1B071C8B2AB22AAA2BB22A67
:10010000AA2BFE2A212BAA2B782B872B29006700EC
:100110002A00015153005400550056005F00600052
:10012000610000005C005D005E00570059005A004D
:100130005B0000000000620063005800A900AE00F0
:10014000AB000100AA000100010001000100010054
:100150000100000001000100010001000100010098
:1001600001000000000001000100005CA900AE00D9
:10017000AB000100AA000100010001000100010024
:100180000100000001000100010001000100010068
:10019000010000000000010001000100A900AE0004
:1001A000AB000100AA0001000100010001000100F4
:1001B0000100000001000100010001000100010038
:1001C000010000000000010001000100444542550B
:1001D000473A2064697361626C65642E0A00444585
:1001E0004255473A20656E61626C65642E0A0000D4
:1001F000000000000000002A2B2800000000000082
:100200000000000000000000000029000000002C99
:100210001E3420212224342627252E362D37382738
:100220001E1F202122232425263333362E37381F44
:100230000405060708090A0B0C0D0E0F1011121306
:100240001415161718191A1B1C1D2F3130232D35A4
:100250000405060708090A0B0C0D0E0F10111213E6
:100260001415161718191A1B1C1D2F3130354C0088
:10027000000000000000000000000000000000007E
:10028000000000000000000000000000000000006E
:100290000000007E0F00D4FFFFFFC7000000780AB7
:1002A0000025303258006C65645F7461736B3A20CE
:1002B000004F6E6573686F743A2061637469766588
:1002C0003A2025640A000A0025303862003A2000EE
:1002D00025303258000A722F6320303132333435E2
:1002E00036370A006261636B6C69676874206272FA
:1002F00065617468696E672064697361626C650A20
:10030000006261636B6C6967687420627265617416
:1003100068696E6720656E61626C650A0062616380
:100320006B6C6967687420627265617468696E6776
:1003300020746F67676C653A2025750A00626163F7
:100340006B6C6967687420737465703A2025750A50
:10035000006261636B6C69676874206469736162D1
:100360006C650A006261636B6C6967687420656E16
:1003700061626C650A006261636B6C696768742016
:10038000746F67676C653A2025750A006261636B5C
:100390006C696768742064656372656173653A208F
:1003A00025750A006261636B6C6967687420696E09
:1003B0006372656173653A2025750A0000000000CC
:1003C0000000000000000001010203040506080A05
:1003D0000C0F1114181C2024292E33393F464C537E
:1003E0005B626A7179818A929AA2AAB2B9C1C8CFB6
:1003F000D5DCE1E7EBF0F4F7FAFCFDFEFFFEFDFCD7
:10040000FAF7F4F0EBE7E1DCD5CFC8C1B9B2AAA2A4
:100410009A928A8179716A625B534C463F39332ED6
:100420002924201C1814110F0C0A080605040302C5
:100430000101000000000000000000003F00433EFA
:1004400020004C25640A000A092D2053746174753C
:1004500073202D0A686F73745F6B6579626F6172C8
:10046000645F6C65647328293A20253032580A6B22
:100470006579626F6172645F70726F746F636F6CC5
:100480003A20253032580A6B6579626F6172645F79
:1004900069646C653A20253032580A74696D65725A
:1004A0005F72656164333228293A202530386C58F0
:1004B0000A000A092D2056657273696F6E202D0A95
:1004C0005649443A203078303444382868696E659B
:1004D000796275736829205049443A203078454242
:1004E00044382868313029205645523A2030783037
:1004F0003030310A4255494C443A2020284D617928
:100500002020382032303232290A4F5054494F4E81
:10051000533A204C5546412045585452414B455979
:1005200020434F4E534F4C4520434F4D4D414E4479
:1005300020343039360A4743433A20352E342E30A2
:10054000204156522D4C4942433A20322E302E3013
:10055000204156525F415243483A20617672350A33
:10056000000A092D20436F6E736F6C65202D0A45BC
:1005700053432F713A09717569740A000A092D20D5
:100580004D61676963202D0A443A094465627567C5
:10059000204D65737361676520546F67676C650AEA
:1005A000583A094D61747269782044656275672014
:1005B0004D6F646520546F67676C65202D2053680C
:1005C0006F77206B65797072657373657320696EE0
:1005D000206D617472697820677269640A4B3A0908
:1005E0004B6579626F61726420446562756720545F
:1005F0006F67676C65202D2053686F77206B657976
:100600007072657373207265706F72740A4D3A0967
:100610004465627567204D6F75736520546F676719
:100620006C650A563A0956657273696F6E0A533AD9
:10063000095374617475730A433A094163746976A6
:1006400061746520436F6E736F6C65204D6F6465D8
:100650000A46312D4631303A095377697463682070
:10066000746F204C6179657220302D392028463115
:1006700030203D204C30290A302D393A0953776912
:1006800074636820746F204C6179657220302D3955
:100690000A47524156453A09537769746368207492
:1006A0006F204C6179657220302028616C7465720E
:1006B0006E617465290A423A094A756D7020746F3B
:1006C00020426F6F746C6F616465720A4553433AE0
:1006D000094A756D7020746F20426F6F746C6F6182
:1006E0006465722028616C7465726E617465290A94
:1006F000453A095072696E7420454550524F4D205D
:1007000053657474696E67730A4253504143453AA6
:1007100009436C65617220454550524F4D0A006295
:1007200061636B6C696768745F636F6E6669672E7F
:100730007261773A20253032580A2E656E61626CFC
:10074000653A2025750A2E6C6576656C3A2025750C
:100750000A006B65796D61705F636F6E6669672E05
:100760007261773A20253032580A2E737761705FB4
:10077000636F6E74726F6C5F636170736C6F636BC9
:100780003A2025750A2E636170736C6F636B5F741A
:100790006F5F636F6E74726F6C3A2025750A2E73EB
:1007A0007761705F6C63746C5F6C6775693A202564
:1007B000750A2E737761705F7263746C5F72677510
:1007C000693A2025750A2E737761705F6C616C74CD
:1007D0005F6C6775693A2025750A2E737761705FC3
:1007E00072616C745F726775693A2025750A2E6EA6
:1007F0006F5F6775693A2025750A2E737761705FA0
:1008000067726176655F6573633A2025750A2E739A
:100810007761705F6261636B736C6173685F626163
:10082000636B73706163653A2025750A2E6E6B7277
:100830006F3A2025750A0064656275675F636F6EA5
:100840006669672E7261773A20253032580A2E6524
:100850006E61626C653A2025750A2E6D617472694D
:10086000783A2025750A2E6B6579626F6172643A59
:100870002025750A2E6D6F7573653A2025750A005F
:100880006565636F6E6669673A0A64656661756C73
:10089000745F6C617965723A2025750A003F000A21
:1008A0006D6F7573653A206F66660A000A6D6F7525
:1008B00073653A206F6E0A000A6B6579626F617228
:1008C000643A206F66660A000A6B6579626F61722E
:1008D000643A206F6E0A000A6D61747269783A207A
:1008E0006F66660A000A6D61747269783A206F6EED
:1008F0000A000A64656275673A206F66660A000A34
:1009000064656275673A206F6E0A000A0A4A756D5F
:1009100070696E6720746F20626F6F746C6F6164B2
:1009200065722E2E2E2000433E2000436C656172BE
:10093000696E6720454550524F4D0A000A00253028
:10094000325820006B6579626F6172645F72657006
:100950006F72743A20005B735D005B575D005B5300
:100960005D005B525D005B445D005B435D0008031E
:1009700068003100300000001403680069006E0058
:1009800065007900620075007300680000000403D0
:10099000090409027B00040100A0FA090400000117
:1009A0000301010009211101000122400007058116
:1009B00003080001090401000203000000092111DD
:1009C0000100012222000705820320000107050320
:1009D00003200001090402000103000000092111A5
:1009E00001000122320007058403200001090403ED
:1009F000000203000000092111010001222200076A
:100A000005850320000107050503200001120100F0
:100A10000200000008D804D8EB0100010200010622
:100A200031FF0974A1010975150026FF0095207595
:100A30000881020976150026FF00952075089102AD
:100A4000C00660FF0961A1010962150026FF00953B
:100A500020750881020963150026FF00952075089E
:100A60009102C005010980A101850319012AB7007F
:100A7000150126B700950175108100C0050C09010C
:100A8000A101850419012AA002150126A0029501E1
:100A900075108100C005010906A101050719E029AB
:100AA000E7150025019508750181029501750881FA
:100AB000010507190029FF150026FF009506750896
:100AC0008100050819012905950575019102950117
:100AD00075039101C00011241FBECFEFDAE0DEBF25
:100AE000CDBF04B603FE18C080914102909142022E
:100AF000A0914302B09144028730904BA740B04B85
:100B000059F4109241021092420210924302109244
:100B10004402E0E0F8E3099511E0A0E0B1E0EEE482
:100B2000F9E502C005900D92A439B107D9F722E08A
:100B3000A4E9B1E001C01D92A134B207E1F70E941F
:100B40002F170C94A52C0C940000FF93EF93E091C9
:100B50009401F0919501309709F00995EF91FF917B
:100B60000895FC018591803011F0EFDFFBCF0895EF
:100B7000FF27E0E230E247FF0CC0419597FF09C034
:100B8000EDE26095709580959095611D711D811DB8
:100B9000911D27FF02C0219530E350E2AA27660F7E
:100BA000771F881F991FAA1FA41710F0A41B639515
:100BB0005A95A9F7AA3008F0A95FA05DAF93F39505
:100BC000611571058105910541F7ED3211F4EF933F
:100BD000F395F21718F43F93F395FBCF8F91B5DFA0
:100BE000FA95E1F70895E991F9918591803021F026
:100BF000853219F0AADFF9CF089520E0E8945591E5
:100C00005532C1F3503311F4689455915A3348F476
:100C1000505390F3220F022E220F220F200D250F8A
:100C2000F4CF0EF4219589919991533619F35337E6
:100C300029F1533559F1BC0188279927E8945C368E
:100C400021F48991999168945591543639F446EF7D
:100C50007EF077FF0DC08FEF9FEF0AC055374AE057
:100C600039F0583540E121F0523642E009F008955C
:100C7000FF93EF937DDFEF91FF91B7CFFF93EF935A
:100C8000FC0181918030B9F360DFFBCFFF93EF93DC
:100C900068DFF1CFDF93CF93CDB7DEB72596A3DF23
:100CA000CF91DF910895879A0895CF93C82F0E941E
:100CB0005D08882329F0C0FD02C08F9A01C08F987B
:100CC00081E0CF91089581E0089581E008950C942A
:100CD000650608950C9469061F93CF93DF9300D0A7
:100CE00000D01F92CDB7DEB749835A836B83309112
:100CF000970189819A81311114C0662359F022230A
:100D000049F00E94780D182F682F89819A810E94DE
:100D1000230D03C00E944D0D182F69817A81812F08
:100D200004C00E94780D69817A810F900F900F9016
:100D30000F900F90DF91CF911F910C942020FC0118
:100D4000262F408151816281738184810C946C06CD
:100D500081E00895CF93DF93EC0160E00E949F064D
:100D6000BE01DF91CF910C946A06E1E0F0E0DF0173
:100D700002C0AA0FBB1F6A95E2F7BD01DF0102C0E6
:100D8000AA0FBB1F4A95E2F7AD01462B01C0EE0F3B
:100D90002A95EAF7942F9823491302C08E2B0895C1
:100DA000E0958E230895242F462F682F8091A1016E
:100DB0000E94B5060C94E00C0C9453060C94F215AA
:100DC00008950E947B0C0E94E0062FEF84E39CE0D4
:100DD000215080409040E1F700C000000C9498231F
:100DE0000F931F93CF93DF938C0161E00E949F06C6
:100DF000EC01B8010E94F81A882369F1B801CE010C
:100E00000E946706882339F1B801CE010E94F418C8
:100E1000882309F1B801CE010E9486218823D9F0E8
:100E2000B801CE010E94201C8823A9F0B801CE0190
:100E30000E94E220882379F0F80182818823E1F181
:100E4000CE3D8CE5D80781F160F4C115FCE5DF07E4
:100E500021F40E94E106C0E036C0C130DC4579F0E3
:100E60002BC0CB35EDE5DE0729F1CC35FDE5DF07FD
:100E7000F1F0CA35DD4501F50E94FA111DC08091DF
:100E8000FD01C82FC095C170C0FB80F98093FD01A2
:100E9000CC2329F08EED91E00E94B105DCCF8CECE3
:100EA00091E00E94B1050FC00E94AD12D4CF0E9404
:100EB000F11102C00E94FD11C801DF91CF911F9175
:100EC0000F910C9463068C2FDF91CF911F910F919E
:100ED00008950E94CD2280E00E94AC190C9469080C
:100EE0000E94AC170E946C080C94D322DF92EF9200
:100EF000FF920F931F93CF93DF93E82FF0E0E15120
:100F0000FE4FD490282F26952695269530E0F9019E
:100F1000E157FD4F0491877010E0082E02C015952F
:100F200007950A94E2F701701127F901E158FD4F86
:100F3000E490F12C082E02C0F594E7940A94E2F7AD
:100F400091E0E922FF24F901E159FD4FC491D0E07D
:100F500002C0D595C7958A95E2F7C170DD270115C6
:100F6000110519F081EE0E94F208E114F10419F064
:100F700086EE0E94F2088D2D0E940F0AEF2819F0CC
:100F800086EE0E949909012B19F081EE0E949909C1
:100F9000CD2B51F08CE2DF91CF911F910F91FF90FB
:100FA000EF90DF900C940F0ADF91CF911F910F917A
:100FB000FF90EF90DF900895EF92FF920F931F93B1
:100FC000CF93DF93EC01162F0AE08881882309F480
:100FD00055C0813009F043C08981813041F47E01E0
:100FE00082E0E80EF11C8A810E940F0A09C082305B
:100FF00049F47E01E2E0EE0EF11C8A810E94F208C3
:10100000E7012FC0833041F47E01F2E0EF0EF11CC6
:101010008A810E949909F4CF843011F0219621C071
:101020002A81229680E090E030E0205331092A3076
:10103000310558F4089FA001099F500D1124C901E2
:10104000840F951F21962881EFCF009751F0EFE98B
:10105000FFE03197F1F700C000000197F6CF0E9442
:1010600076072196812F882309F4AFCFEFE9FFE0BF
:101070003197F1F700C000008150F5CFDF91CF919B
:101080001F910F91FF90EF90089560E00C94DC07A2
:101090008295982F937344E0949F900111248C7C47
:1010A00086958695282B822F8575880F2A7A269516
:1010B000822B089508950C945A0881E008950895AC
:1010C000CF93C82F0E945B088C2F0E945506CF91AA
:1010D000089580E00C9460080E94E2210C9460085E
:1010E000CF930E94E221C82F80919601C81741F149
:1010F000C09396018091FD0182FF1EC080FF04C055
:1011000086EA92E00E94B1058091FD0180FF0CC04B
:101110001F92CF9381EA92E09F938F930E944A0699
:101120000F900F900F900F908091FD0180FF04C0F1
:101130008FE992E00E94B1058C2FCF910C9460084A
:10114000CF910895CF93DF93CDB7DEB72B970FB62E
:10115000F894DEBF0FBECDBF4F83588769877A876B
:101160008B8761110E9429119E012F5F3F4F86E0FE
:10117000F90111928A95E9F785E0FE013796D901C8
:1011800001900D928A95E1F789819A814C815D8168
:10119000452B31F09F3F31F491E08F3F19F403C0AC
:1011A00091E001C090E090FF09C049815A816B81B4
:1011B0007C818D819E810E944A1005C0C9010E94D8
:1011C000A8068111F2CF2B960FB6F894DEBF0FBEA2
:1011D000CDBFDF91CF910895FC01808191810E9464
:1011E000A50D0895CF93882309F4A1C0C82F823894
:1011F000C1F40E94E22181FD9AC069E3809102015D
:10120000909103010E94A5220E944B112FEF81EEC5
:1012100094E0215080409040E1F700C0000069E375
:1012200019C0833801F50E94E22180FD80C063E58A
:1012300080910201909103010E94A5220E944B110E
:101240002FEF81EE94E0215080409040E1F700C004
:10125000000063E580910201909103010E94A722A2
:10126000CF910C944B118438C1F40E94E22182FD8D
:101270005EC067E480910201909103010E94A52263
:101280000E944B112FEF81EE94E02150804090405E
:10129000E1F700C0000067E4DDCF8CEF8C0F813AEE
:1012A000F8F48C2F0E94131F811141C06C2F809184
:1012B0000201909103010E946F22882349F06C2F54
:1012C00080910201909103010E94A7220E944B117C
:1012D0006C2F80910201909103010E94A522C0CF42
:1012E00080E28C0F883048F4C77081E001C0880F1D
:1012F000CA95EAF70E940C11B3CFEBE5EC0FE3308F
:1013000040F4F0E0EF5BFE4F808190E0CF910C94D1
:101310003722C85AC73158F4EC2FF0E0EE0FFF1F08
:10132000ED5EFE4F80819181CF910C944D22CF9143
:101330000895882309F45BC0682F823879F40E94ED
:10134000E22181FF54C069E3809102019091030181
:101350000E94A5220E944B1169E310C08338B1F4AA
:101360000E94E22180FF43C063E5809102019091D9
:1013700003010E94A5220E944B1163E580910201A6
:10138000909103010E94A7220C944B11843879F4A8
:101390000E94E22182FF2BC067E4809102019091BC
:1013A00003010E94A5220E944B1167E4E7CF8CEF56
:1013B000860F813A18F380E2860F883048F4677010
:1013C00081E001C0880F6A95EAF70E941211DCCF14
:1013D0008BE5860F833020F480E090E00C94372278
:1013E000685A673120F480E090E00C944D22089513
:1013F0001F93CF93DF93182FEB010E94F2082097E1
:1014000041F08FE99FE00197F1F700C000002197BC
:10141000F6CF812FDF91CF911F910C9499098933D9
:1014200019F060E070E002C060E570E00C94F8092B
:10143000882321F00E940C110C944B1108958823ED
:1014400021F00E9412110C944B110895CF92DF925B
:10145000EF92FF920F931F93CF93DF937C01162F90
:10146000C72FFC01D281058102950F700E940211E5
:101470008823B9F0DD23A9F08C2F807F803421F000
:1014800080E2810F883068F08091220282FD09C0DD
:1014900082E00E94AB110E94021191E0D82ED92661
:1014A00001C0D12CCC2EC2948FE0C8228C2D90E0AC
:1014B0008C30910508F093C1FC01EA5AFF4F0C945F
:1014C0002F2C8C2F807FCF70882311F0C295C07F86
:1014D000DD2399F0CC2309F46EC180E2810F8830BE
:1014E00010F0111104C08C2F0E940C1103C08C2F1E
:1014F0000E941C110E944B115EC1812F0E9499090C
:10150000CC2309F46CC180E2810F883038F11123BB
:1015100029F18C2F0E94221124C08C2F807FCF7044
:10152000803211F0C295C07F112319F01130A1F162
:101530003DC08091220282FF17C0DD2349F0CC23F9
:1015400029F08C2F0E940C110E944B1180E034C1B5
:1015500080E00E949909CC2309F441C18C2F0E949C
:1015600012110E944B113BC1DD2371F0002341F0A9
:10157000013031F40E942C118C2B0E9434112FC1A8
:101580000E942C118C2B1DC0002319F0013009F48E
:1015900026C10E94411125C0DD2321F0063008F04C
:1015A0001EC10EC0053008F01AC11BC0DD2361F05A
:1015B000002331F0F701858180FFFDC08F708583A6
:1015C0008C2F0E94180A0BC1002359F0193309F01F
:1015D00003C1FFEF27EE83E0F15020408040E1F7A8
:1015E000F9C08C2F0E941F0AFAC08C2F8695869511
:1015F000837019F0813061F0F2C0DD2321F0812F7A
:101600009C2F937002C080E090E00E943722EFC0D0
:10161000DD2321F0812F9C2F937002C080E090E0A9
:101620000E944D22E4C08C2F837079F5D111DBC06C
:10163000412F429546954770440F440F212F2F703C
:10164000042E01C0220F0A94EAF714FF08C08FE0AD
:1016500090E001C0880F4A95EAF7809501C080E0CC
:10166000C695C695C370822BC23049F058F4C1307C
:1016700019F00E94D40CB7C00E94CF0CB4C00E94D5
:10168000D90CB1C00E94CD0CAEC0DD2319F08C2F57
:10169000817001C08695882309F4A5C0412F429529
:1016A00046954770440F440F212F2F70042E01C020
:1016B000220F0A94EAF714FF08C08FE090E001C0FF
:1016C000880F4A95EAF7809501C080E0C695C695D7
:1016D000C370822BC23049F058F4C13019F00E9417
:1016E000180D81C00E94130D7EC00E941D0D7BC08D
:1016F0000E94E00C78C0CF70DD2339F08C2F0E945F
:10170000F10C812F0E94180A6EC0812F0E941F0ABF
:101710008C2F0E94FC0C67C0123F21F128F4103F6F
:1017200041F0113FC1F043C0133F19F1143F79F06C
:101730003EC0DD2341F0053008F051C08C2F8F7181
:101740000E94080D4CC0063008F049C0F7CF8091C8
:10175000220282FF18C0DD2339F08C2F8F710E9486
:10176000F10C3DC0DD23C9F38C2F8F710E94FC0C5E
:1017700036C0DD2329F08C2F8F710E94E90C2FC019
:101780000E94E60C2CC0DD2349F0CF718C2F0E9403
:10179000F10C63E08C2F0E94901121C081E00E9427
:1017A000AB110230E0F082E00E94AB1118C0DD23E3
:1017B00031F0002391F2812F0E94F20810C0002323
:1017C00099F2193349F49FEFE7EEF3E09150E040CE
:1017D000F040E1F700C00000812F0E94990988EFD6
:1017E0008C0D843020F40E94E2210E946008DD20EC
:1017F000C9F00E94FE1080FD15C0F70112820E9400
:10180000F8100E94F10CC7010E94330C0E94F810DE
:10181000DF91CF911F910F91FF90EF90DF90CF90CC
:101820000C94FC0CDF91CF911F910F91FF90EF90E2
:10183000DF90CF9008950F931F93CF93DF93EC0128
:10184000688179818A810E94B00D8C010E94220DED
:101850000E94C10CB801CE010E94260ADF91CF91EF
:101860001F910F910895CF93DF93EC0198818981A7
:101870002B813C81232B31F08F3F31F481E09F3F5E
:1018800019F403C081E001C080E080FD1DC0CE01DD
:101890000E94F006811110C00E9402118823A1F05D
:1018A0008A81882389F08091220282FD0DC082E026
:1018B000DF91CF910C94AB11CE010E941B0CCE0195
:1018C000DF91CF910C94AA06DF91CF91089580E02B
:1018D00090E00E94372280E090E00E944D220E941A
:1018E00029110C944B1180910201909103010E94E7
:1018F000A9220C94670C0E9419110C94730C9295F8
:101900009F70963079F010F4925001C09A50923046
:1019100068F4803F69F018F4883E40F409C0843FC1
:1019200029F406C0883E20F0813F11F080E0089540
:1019300081E00895FC01808191810E94A50D0E94A3
:101940007F0C0895CF93DF9300D000D01F92CDB7C6
:10195000DEB70F900F900F900F900F90DF91CF9107
:101960000895CF93DF9300D000D000D0CDB7DEB77D
:1019700026960FB6F894DEBF0FBECDBFDF91CF9194
:101980000895089508950C94C20C0C94C30C0E9401
:10199000C50C8093A2010C94670C0C94C70C909119
:1019A000A201892B0C94C70C9091A20189230C945D
:1019B000C70C9091A20189270C94C70C0C94C20CFF
:1019C0000E94DE0C8093A1010C94670C80E00C94C3
:1019D000E00C91E001C0990F8A95EAF7892F0C94E9
:1019E000E00C21E030E001C0220F8A95EAF78091F7
:1019F000A101822B0C94E00C21E030E001C0220F09
:101A00008A95EAF720958091A10182230C94E00C3D
:101A100021E030E001C0220F8A95EAF78091A10110
:101A200082270C94E00C9091A101892B0C94E00C7E
:101A30009091A10189230C94E00C9091A101892738
:101A40000C94E00C0895990F990F890FE82FE695F3
:101A5000E695E695877051E001C0550F8A95EAF743
:101A600083E0E89FF0011124E856FE4F20E030E0CB
:101A700070E04081CB01022E02C0969587950A94B2
:101A8000E2F78170819584278523842781932F5FD6
:101A90003F4F2330310569F70895990F990F890F4A
:101AA000682F669566956695982F977083E0689F76
:101AB000B001112440E050E080E0FB01E40FF51F8D
:101AC000E856FE4F208130E0092E02C0369527955A
:101AD0000A94E2F721703327042E01C0220F0A94E2
:101AE000EAF7822B4F5F5F4F4330510531F708957E
:101AF000CF92DF92FF920F931F93CF93DF936C01EE
:101B00000091A1018091A201082BC7E0D0E010E074
:101B1000C8010C2E02C0959587950A94E2F780FDC6
:101B200004C02197A8F7F12C07C0FC2EB6018C2F1A
:101B30000E948D140197A9F38F2DDF91CF911F91F2
:101B40000F91FF90DF90CF900895CF93DF93EC013A
:101B50000E94780DBE010E948D14DF91CF910895EF
:101B60001F93CF93DF93EB0190919701992321F07D
:101B7000CB010E94A50D13C0882349F0CB010E9420
:101B8000780D182F682FCE010E94230D04C0CB01C1
:101B90000E944D0D182FBE01812F0E948D14DF91E0
:101BA000CF911F9108951F93CF93DF93C091A3010D
:101BB00016E08091A401C81799F0D0E01C9FF001B5
:101BC0001D9FF00D1124EB55FE4F40815181628124
:101BD0007381848195810E94B10C2196C770E9CFF1
:101BE000DF91CF911F9108954091D5015091D60179
:101BF0006091D7017091D8018091D9019091DA015B
:101C00000C94B10CEF92FF920F931F93CF93DF933D
:101C10008091DA0182958F7009F065C08091D701BB
:101C2000882309F460C08091A301F090A401109171
:101C3000D5010091D6016091D8017091D90191E050
:101C40001F3F09F090E0C0910001D0910101292FC0
:101C500096E0E92E8F1509F446C06115710521F053
:101C60000F3F21F030E003C031E001C0322F90E09F
:101C700030FD36C0E89EF001E99EF00D1124DF0131
:101C8000AB55BE4F11963C911197301329C03C9132
:101C9000311326C012963C911297311121C0139630
:101CA0004D915C911497461B570B4C175D07C0F480
:101CB0008091DA018F7080618093DA01E655FE4FE2
:101CC00080818F708061808385ED91E00E94330C6C
:101CD000DF91CF911F910F91FF90EF900C94D30D56
:101CE00001968770B7CFDF91CF911F910F91FF9031
:101CF000EF9008959F92AF92BF92CF92DF92EF92B2
:101D0000FF920F931F93CF93DF93CDB7DEB7619709
:101D10000FB6F894DEBF0FBECDBF8C0185E0F80191
:101D2000DE011D9601900D928A95E1F7D801129679
:101D3000EC909091D501E091D6012091D80130919D
:101D4000D9012115310531F0EF3F31F481E09F3F9A
:101D500019F403C081E001C080E0B82FB1709B2E60
:101D600080FD47C1D8014C9111965C911197139653
:101D7000AD90BC90149785EDC82E81E0D82EF090E0
:101D8000D701B501621B730B209100013091010155
:101D9000FF2009F4D9C08091DA016217730708F0B7
:101DA00095C0282F207F09F052C05E1313C049133D
:101DB00011C0FE2CE1100EC08F7080618093DA019B
:101DC0000E94F40DC6010E94330C8091DA01F801E3
:101DD00085834DC1AB2831F05F3F31F481E04F3F47
:101DE00019F403C081E001C080E080FD03C081E000
:101DF0008E2502C080E090E0F82FF170FF2E80FF6A
:101E00001CC08091A3012091A40136E0821709F43F
:101E10000BC190E0389FF001399FF00D1124EB5574
:101E2000FE4F6181561306C06081461303C0628174
:101E3000E61203C001968770E9CFFE2CEE2009F46C
:101E400016C18091DA0181608093DA0154C05E137B
:101E500006C0491304C0E11002C0F80199C0C801CE
:101E60000E949A0C882361F1EE2051F12091DA0151
:101E7000822F82958F7090E0029774F08091D50147
:101E80009091D60198878F831986BB86AA862C8766
:101E9000CE0107960E94330C86E0F801A5EDB1E073
:101EA00001900D928A95E1F70E94020E0E94F40DB6
:101EB0000AC05E1711F1C8010E949A0C81112CC052
:101EC000C8010E94330CFF24F394D1C0282F207F37
:101ED00081F77A2DB98AA88A6E2D89890E94A20C71
:101EE00085ED91E00E94330C86E0D6011D928A9523
:101EF000E9F70E94F40DF12CBAC04913DCCFE110D0
:101F0000DACFF8018583C8010E94330C86E0D60140
:101F10001D928A95E9F7ABC0EE2091F22091DA018B
:101F2000822F82958F7090E002970CF4B5CF80914C
:101F3000D5019091D6019A8389831B82BD82AC82A0
:101F40002E83CE010196A6CF6217730708F044C016
:101F5000FE2CEE2009F4B4CF5E1330C049132EC01E
:101F60002091DA0120FD21C0822F82958F70482FA9
:101F700050E041155105C9F0F80125834F30510556
:101F800041F08F5F982F9295907F822F8F70892BD1
:101F90008583C8010E94330C86E0F801A5EDB1E00D
:101FA00001900D928A95E1F73CC086E0F801A5ED1D
:101FB000B1E001900D928A95E1F759C0C8010E94E5
:101FC0009A0C811169CF8091DA0181608093DA01E6
:101FD000C8010E94330C4BC07A2DB98AA88A6E2D95
:101FE00089890E94A20C86E0D6011D928A95E9F7A4
:101FF00018C0EE2009F464CFC8010E949A0CF82E94
:10200000882309F45DCF86E0F801A5EDB1E00190E9
:102010000D928A95E1F785ED91E00E94EC080E940F
:10202000020E0E94F40D23C04D875E878D859E852C
:102030000E94A50D292F22952F70223028F49F7021
:1020400039F0811105C00BC0243028F49F7049F489
:10205000805E883020F0C8010E94330C9F2CF92C40
:1020600006C0D80115969C91907F91F7F8CF8F2DDF
:1020700061960FB6F894DEBF0FBECDBFDF91CF9152
:102080001F910F91FF90EF90DF90CF90BF90AF9096
:102090009F9008951F93CF93DF93CDB7DEB72C9712
:1020A0000FB6F894DEBF0FBECDBF4F835887698748
:1020B0007A878B879C87CE0107960E947A0E8823A9
:1020C000D1F09F8188852A853B85232B31F08F3F76
:1020D00031F481E09F3F19F403C081E001C080E04A
:1020E00080FD47C04F81588569857A858B859C85A1
:1020F0000E94B10C3EC086E0FE013796DE011196CB
:1021000001900D928A95E1F7FF81E8856A857B85CC
:102110006115710531F0EF3F31F481E0FF3F19F4B3
:1021200003C081E001C080E080FD23C02091A401B4
:1021300030E0C9010196877099274091A30150E0D2
:1021400084179507F1F1F983EA837D836C8396E028
:10215000929FD001939FB00D1124AB55BE4FFE014D
:10216000319601900D929A95E1F78093A4010E9417
:10217000D30D16E08091A3019091A401891771F10C
:10218000189FC00111248B559E4F0E947A0E882300
:1021900029F1E091A3011E9FF0011124EB55FE4FA0
:1021A0004081518162817381848195810E94B10C4B
:1021B0008091A30190E00196877099278093A301F5
:1021C000D9CF0E947B0C1092A4011092A301E5EDDF
:1021D000F1E086E0DF011D928A95E9F72C960FB6B3
:1021E000F894DEBF0FBECDBFDF91CF911F91089550
:1021F0008091E30185958595859508958091E3010A
:10220000877008959091E301977081E009F480E070
:1022100008958091EE0108959091EE01892B8093AD
:10222000EE01089580959091EE0189238093EE014F
:1022300008951092EE0108959091ED01892B8093FD
:10224000ED01089580959091ED0189238093ED0132
:1022500008951092ED0108958091E4010895089584
:102260000C942F110C9430119091220292FD08C011
:102270009091E401981721F08093E4010C943211BD
:1022800008958091E401882329F01092E40180E010
:102290000C9432110895CF93DF93E0910201F091F5
:1022A00003018091EE018083E0910201F09103012E
:1022B00090818091ED01892B80838091E4018823B6
:1022C00081F0E0910201F09103019081892B8083DC
:1022D00080910201909103010E94632281110E946A
:1022E0004111C0910201D091030148E050E06BED33
:1022F00071E0CE010E94562C892B69F088E0FE0126
:10230000ABEDB1E001900D928A95E1F7CE01DF913E
:10231000CF910C94EE21DF91CF9108950C942F1161
:102320009091220292FD10C098E0899F90011124A3
:10233000262B2093E3010E94F10C8091E301859507
:10234000859585950C948E110C94F10C1092E301F7
:1023500080E00C948E112091E3018095822380937C
:10236000E301982F977099F430E0482F082E000C65
:10237000550B2417350759F09091220292FD07C0A2
:102380008595859585950E94FC0C0C94A611089561
:10239000CF939091220292FB222720F92817F9F07F
:1023A000C82F892FC0FB82F98093220280912102DD
:1023B000909122020E942A1282E00E94AB11809129
:1023C000FD0180FF0CC01F92CF9381EB92E09F93A1
:1023D0008F930E944A060F900F900F900F90CF910D
:1023E00008958091220282FB882780F991E0892755
:1023F0000C94C81181E00C94C81180E00C94C811B1
:102400006FEF7FEF80E090E00C948F2C80E090E005
:102410000E946B2C893E9E4F11F40C94901A80E020
:10242000089582E090E00C94632C83E090E00C949B
:10243000632CCF9384E090E00E94632CC82F82E24B
:1024400090E00E94632C2C2F30E0A901582BCA0188
:10245000CF910895CF93C92F682F84E090E00E9418
:10246000712C6C2F82E290E0CF910C94712CAB0117
:10247000BC018FE090E00C94832CAB01BC0183E1A4
:1024800090E00C94832C60E070E0CB010C943D1242
:1024900060E070E0CB010E9437120C94431269EEA9
:1024A0007EEF80E090E00E948F2C60E082E090E080
:1024B0000E94712C60E083E090E00E94712C1092E9
:1024C000A20160E084E090E00E94712C60E082E272
:1024D00090E00E94712C60E085E090E00E94712CF9
:1024E00060E086E090E00E94712C6FEF87E090E062
:1024F0000E94712C40E050E0BA0188E090E00E9418
:10250000832C60E08DE090E00E94712C40E050E070
:10251000BA0188E190E00E94832C60E087E190E0BE
:102520000E94712C40E050E0BA018CE190E00E94E2
:10253000832C60E070E080E290E00E948F2C40E00D
:1025400050E0BA0188E190E00E94832C80E00E9474
:10255000A91A0E94DC1A0C9448120C944F12682F8E
:102560008EE090E00C94712C0E9457236093F90147
:102570007093FA018093FB019093FC016093F50145
:102580007093F6018093F7019093F801089585B751
:10259000806885BF85B7806885BF089581E008950C
:1025A0000C94CE1208950C94D2120C94D2120C9466
:1025B000D5120C94D2120C94D9120C94D2120E94FF
:1025C000C71284EA95E20E94D8210E94DD120C9481
:1025D000DB120E94D3120C94D2120E9481150E9429
:1025E0005F080C947A1A0E9442230E94EB1A0E9400
:1025F0008F160E94ED120E94AC170C94D7128F9286
:102600009F92AF92BF92CF92DF92EF92FF920F9381
:102610001F93CF93DF93CDB7DEB72A970FB6F89409
:10262000DEBF0FBECDBF0E94A416982E81110E945E
:10263000B4128FEEA82E81E0B82E00E010E0802EBC
:10264000802F0E949B15D82EF501C1905F01C826EE
:10265000B1F40F5F1F4F0630110589F78FEF8983A3
:102660008A831B820E944B238160782F9D838C83F9
:1026700049815A816B818D810E94A2082FC080916F
:10268000FD0181FD0E94A115E12CFF24F3948C2D06
:102690008F21F1F00E94D012882399F0EE828F8270
:1026A000DF2081E009F480E088870E944B2381606D
:1026B000782F9A8789874E815F8168858A850E94F5
:1026C000A208F801E151FE4F8081F826F08206C091
:1026D000E394FF0CF4E0EF12DACFBBCF81E091106E
:1026E00001C080E02A960FB6F894DEBF0FBECDBFC2
:1026F000DF91CF911F910F91FF90EF90DF90CF90DE
:10270000BF90AF909F908F9008950E94FF120E94FB
:10271000DE190C947008CF93DF930E949214EC01A1
:10272000811522E59207E8F5811531E5930708F058
:10273000B6C0883E910528F5803E910508F0E9C0B5
:10274000883A910570F4853A910508F07AC0813095
:10275000910509F473C008F4D9C0049708F0D9C0F2
:10276000D5C08F3B910508F0D1C0C85AD0E0CC0F3E
:10277000DD1FCC5BDE4F0990D881C02DCE01946463
:10278000C9C0811540E5940708F069C0811550E47F
:10279000950708F060C09A9581159F4108F4B9C06B
:1027A000B5C0811536E5930728F5811545E59407F1
:1027B00008F092C0811554E5950708F087C0AC0178
:1027C00043705527282F26952695C115D34508F027
:1027D0006CC081E090E002C0880F991F4A95E2F733
:1027E00040E2249F90011124EC01C22BD32BCE0197
:1027F0009C6890C081152AE5920780F4811539E51F
:10280000930708F072C0811548E5940708F47EC06C
:10281000D82FCC27CE01806F906A7CC0905681154E
:10282000904208F073C08D2F8F710E942615DD270E
:10283000D0628F71AE01582BCA016CC081E090E06C
:1028400069C0C55AD0E0CE58DE4F8881C82FD0E08D
:10285000CE0190645FC0DF70CE01906A5BC074E00F
:10286000969587957A95E1F7282F23703C2F337042
:1028700081E090E002C0880F991F3A95E2F79C68CA
:10288000AC01522B9A019C2F9F709695969550E221
:10289000959FE0011124C9018C2B9D2B3BC0D82FA3
:1028A000CC27CE01816F906A35C081E090E002C0F4
:1028B000880F991F4A95E2F750E2259F9001112455
:1028C000EC01C22BD32BCE019A6824C0D82FCC2781
:1028D000CE01846F906A1EC00E9426158F7190E011
:1028E000D82FCC27CE01906215C08F700E9426157C
:1028F00094E0D695C7959A95E1F7CF70D0E0DC2F9C
:10290000CC27D0699E01282BC90104C080E090E04B
:1029100001C0CE01DF91CF9108950E9420200E9436
:102920008B1308958238910569F1B0F481339105D4
:1029300009F46DC048F48932910509F463C08A3204
:10294000910509F469C008958533910509F455C0CE
:1029500089339105B9F00895833E910569F138F402
:10296000803E9105B1F0823E910509F10895863EC1
:102970009105A9F1873E9105B9F1843E910509F0D1
:1029800064C023C02091210220FD4FC021FD4DC015
:1029900008958091210280FD44C08091220280FF31
:1029A00044C08091210284FD42C083EE4DC08091DD
:1029B000210282FF38C0F5CF8091210282FD33C011
:1029C0008091220280FD31C0ECCF8091220281FFF4
:1029D00032C08091210284FD2AC087EE35C08091EB
:1029E000210283FF26C0F5CF8091210283FD21C003
:1029F0008091220281FD1FC0ECCF8091210285FDD4
:102A00001CC01DC08091210285FD19C016C0809197
:102A1000210286FD16C017C08091210286FD13C0D9
:102A200010C089E311C082EE0FC080EE0DC080E0BF
:102A30000BC086EE09C084EE07C089E205C085E3BD
:102A400003C08AE201C081E390E0089590912102E1
:102A500092FF0DC0282F2871283019F4877F8460D9
:102A600006C0282F2471243011F48B7F886093FFD7
:102A70000DC0282F2871283119F4877E846106C083
:102A8000282F2471243111F48B7E88612091220239
:102A900020FF0DC0382F3871383019F4877F8160DE
:102AA00006C0382F3171313011F48E7F886021FFDC
:102AB0000DC0282F2871283119F4877E816106C046
:102AC000282F2171213111F48E7E886194FD877E3B
:102AD00008950C9400120E94A4168FE39CE90197BC
:102AE000F1F700C000000E94A41680E00E949B1530
:102AF00080FF04C00E9469150C94982308950C94DB
:102B00006B150E940612811102C00E94AD120E9434
:102B100011128093FD010E9419129093220280935A
:102B200021020E947F150E9415120E94CD0C8091F7
:102B3000A1010C94DE0CE82FF0E0E75DFD4F8081F1
:102B40000895CF92DF92EF92FF920F931F93CF934E
:102B5000DF9385ED92E00E94B10589E2E82E82E0E4
:102B6000F82EC0E0D0E090EDC92E92E0D92E08EC0E
:102B700012E0DF93CF93DF92CF920E944A068DEC52
:102B800092E00E94B105F70181917F010E944808FF
:102B90001F928F931F930F930E944A0686EC92E038
:102BA0000E94B10521968DB79EB708960FB6F8948E
:102BB0009EBF0FBE8DBFC630D105D9F6DF91CF9134
:102BC0001F910F91FF90EF90DF90CF90089580EAD2
:102BD0008A95F1F7089500C008950C94E7150895BB
:102BE0000C94EF150C94F015F894E82FE295EF7023
:102BF000F0E031A1282F2F7081E090E001C0880F14
:102C00002A95EAF7982F9095932391A392A1892B67
:102C100082A3789408950F931F93CF93DF93C9E70E
:102C2000D1E089918F3F11F00E94F41581E0CF37F8
:102C3000D807B9F7C5E7D1E009E711E089918F3FDF
:102C400011F00E94F4150C171D07C1F7DF91CF9109
:102C50001F910F910895CF92DF92EF92FF920F9301
:102C60001F93CF93DF938C01C62FD0E0CE018758FE
:102C70009E4F7C01FC0190819F3F09F447C0D62EF6
:102C8000F894E92FE295EF70F0E081A19F7021E0C8
:102C900030E001C0220F9A95EAF7822B81A382A12E
:102CA0002095282322A378940E94EB15E5E7F1E014
:102CB00049E751E031E0C12C21912F3F89F0A22F4B
:102CC000A295AF70B0E090968C9190E02F7002C00A
:102CD000959587952A95E2F780FD02C0832F01C064
:102CE00080E0C82A330F4E175F0731F7F701808164
:102CF0008F3F11F00E94F41561E0C11001C060E047
:102D00008D2D0E94ED15C00FD11FC882DF91CF918C
:102D10001F910F91FF90EF90DF90CF9008950E9448
:102D20000B1686E0E9E2F2E0DF01982F1D929A95FA
:102D3000E9F7E3E2F2E0DF011D928A95E9F786E028
:102D40000E94EC160C94DC06FF920F931F93CF9316
:102D5000DF9300D000D000D0CDB7DEB78E010F5F7B
:102D60001F4F86E0F80111928A95E9F7F12C6F2D3B
:102D7000C8010E942B16F394F6E0FF12F8CF46E04C
:102D800050E0B80183E292E00E94562CFF24F394B5
:102D9000009709F4F12C892B41F086E0F801A3E2B9
:102DA000B2E001900D928A95E1F72F2D46E069E29D
:102DB00072E083E292E00E94ED160E94DE068F2D03
:102DC00026960FB6F894DEBF0FBECDBFDF91CF9130
:102DD0001F910F91FF9008950895FF920F931F93F5
:102DE000CF93DF938C01F62ED72FC42F222349F0E7
:102DF00081E0809300020E944B239093FF01809317
:102E0000FE01809100028823C1F08091FE01909123
:102E1000FF010E946323059780F0EF2DFD2FD8015D
:102E20004C2F50E0CD01801B910B841795071CF4AB
:102E30008D918193F7CF10920002DF91CF911F9176
:102E40000F91FF9008950E9420260E94F3120C9487
:102E50002C260E9430260E9485130C944E260E9438
:102E6000E9220E9407260E94DF120E9423170E9477
:102E700029170E94E912FBCF86E090E00C94632CA6
:102E8000682F86E090E00C94712C80912F020C94B6
:102E9000401780912F028470896180932F020C94D7
:102EA000401780912F02869586958695089580918A
:102EB0002F0281FD13C0826080932F020E94401771
:102EC0008091FD0180FF08C081E093E09F938F9384
:102ED0000E944A060F900F900C94DF19089580917C
:102EE0002F0281FF13C08D7F80932F020E94401715
:102EF0008091FD0180FF08C084EE92E09F938F9344
:102F00000E944A060F900F900C94EB190895CF93EE
:102F1000C0912F02C695C1708091FD0180FF0CC049
:102F20001F92CF938DE193E09F938F930E944A0667
:102F30000F900F900F900F90CC2319F0CF910C941D
:102F40006F17CF910C94571780912F02869581703F
:102F500008958091040108950E940612811104C011
:102F60000E94AD120E9449170E943C1780932F02C5
:102F7000282F26952695269530E02430310524F01B
:102F80008770886180932F0280912F0280FF04C098
:102F900086958695869501C080E00C94AC192091A9
:102FA0002F02822F869586958695482F50E04330D4
:102FB000510554F48F5F982F990F990F990F822F15
:102FC0008770892B80932F0280912F0281608093DC
:102FD0002F020E9440178091FD0180FF11C0809157
:102FE0002F028695869586951F928F9384EA93E0AB
:102FF0009F938F930E944A060F900F900F900F900F
:1030000080912F028695869586950C94AC198091B7
:103010002F02982F969596959695A1F0915E990F0F
:10302000990F990F8770892B80932F02887F91E0E9
:1030300009F490E080912F0290FB80F980932F0299
:103040000E9440178091FD0180FF11C080912F02E6
:103050008695869586951F928F938CE893E09F9333
:103060008F930E944A060F900F900F900F908091BF
:103070002F028695869586950C94AC1980912F0227
:1030800080FD1FC0816080932F02813019F489E098
:1030900080932F0280912F020E9440178091FD01A2
:1030A00080FF08C084E693E09F938F930E944A06B6
:1030B0000F900F9080912F028695869586950C949F
:1030C000AC19089580912F0280FF14C08E7F8093E9
:1030D0002F020E9440178091FD0180FF08C081E50A
:1030E00093E09F938F930E944A060F900F9080E089
:1030F0000C94AC190895CF93C0912F02C1708091A8
:10310000FD0180FF0CC01F92CF9386E793E09F9351
:103110008F930E944A060F900F900F900F90CC2330
:1031200019F0CF910C946218CF910C943E189091A5
:103130002F02892F8695869586958F5F8F71977060
:10314000843038F4880F880F880F892B80932F02E2
:1031500002C090932F0280912F02887F91E009F4A2
:1031600090E080912F0290FB80F980932F020E94C3
:1031700040178091FD0180FF11C080912F0286953C
:10318000869586951F928F938DE393E09F938F93FF
:103190000E944A060F900F900F900F9080912F027F
:1031A0008695869586950C94AC19843008F083E05A
:1031B00090912F029770282F220F220F220F922B0F
:1031C00090932F02987F21E009F420E090912F0244
:1031D00020FB90F990932F020C94AC190E94D51803
:1031E00080912F020C944017FC01DB0112968C9108
:1031F0008823F9F0EB5BFC45E730F105D8F4EE5994
:10320000FF4F0C942F2C83E001C080E00E94EE1849
:1032100080E008950E940718FBCF0E94CF17F8CFD7
:103220000E947B18F5CF0E949718F2CF0E94871753
:10323000EFCF81E00895279A2F9808952F98089549
:103240008F929F92AF92BF92CF92DF92EF92FF92B6
:103250000F931F93CF93DF938C0180918600909101
:1032600087006CE070E00E94F92B6017710730F066
:10327000C80169E070E00E94F92B60C0809186006F
:1032800090918700E0908600F0908700E0918600A2
:10329000F0918700C6E0D0E0BE010E94F92B20E04B
:1032A00030E0060F171F211D311D4801590185E02F
:1032B000880C991CAA1CBB1C8A95D1F7C701BE01BA
:1032C0000E94F92B6F01E12CF12CA7019601260F2A
:1032D000371F411D511DC501B4010E940D2C69010C
:1032E0007A01E0918600F0918700CA01B9010E943D
:1032F000DD2B9B01AC01DF010E944B2C9B01AC013B
:10330000C701B6010E94DD2BDC01CB012FE0B69591
:10331000A795979587952A95D1F7009186001091EA
:10332000870020E030E0081719072A073B0728F438
:103330006091860070918700CB01BC01CB01DF91C9
:10334000CF911F910F91FF90EF90DF90CF90BF90A2
:10335000AF909F908F900895CF93C82F843050F4F2
:10336000811109C080918000877F809380000E9436
:103370001E1906C0C3E080918000886080938000A1
:10338000A0918600B09187002C2F30E00E943C2C49
:1033900023E030E040E050E00E940D2CB42FA32F3A
:1033A000922F8827892F9A2FAB2FBB270E94201995
:1033B00090938D0080938C00CF9108950895109282
:1033C00002021092010210920302EFE6F0E0808107
:1033D000816080830895EFE6F0E080818E7F8083B6
:1033E0000E9451170C94AC191F920F920FB60F92B6
:1033F00011240F931F932F933F934F935F936F93DA
:103400007F938F939F93AF93BF93CF93EF93FF934C
:103410008091050191E0980F823019F09093050199
:1034200055C081E0809305010E94A917C82F009123
:103430000102109102020F5F1F4F0E94A91728E797
:10344000829FB0011124C8010E94F92B90930202BF
:103450008093010228E7C29FB0011124660F672FF5
:10346000661F770B71950E94F92B6F77809103028D
:10347000823019F4603451F404C0813039F46F376C
:1034800029F480916F008E7F80936F00E62FF0E02B
:10349000E454FC4FC49100918600109187000E9473
:1034A0005117282FC09FC001C19F900D11246DEFAF
:1034B00072E00E94F92B269FC001279F900D1124D6
:1034C0000E94201990938D0080938C00FF91EF91C2
:1034D000CF91BF91AF919F918F917F916F915F91AC
:1034E0004F913F912F911F910F910F900FBE0F9011
:1034F0001F9018950E941B198AE08093800089E133
:10350000809381008FEF9FEF9093870080938600D8
:103510000E94AC170E94A41781110C94DF19089522
:1035200083E290E00E94632C823281F484E290E096
:103530000E94632C843051F485E290E00E94632C59
:1035400091E0873209F090E0892F01C080E081701E
:103550000895CF93C82F811102C06FEF01C062E2BE
:1035600083E290E00E94712CC11102C06FEF01C094
:1035700064E084E290E00E94712CC11102C06FEF00
:1035800001C067E285E290E0CF910C94712C089520
:1035900086E290E00E94632C682F70E080E090E06B
:1035A00008950895CF93C62F0E94D11A6C2F86E2FA
:1035B00090E0CF910C94712C80E00E94A91A60E0F9
:1035C00070E0CB010E94D21A0E949D1F0E947A20B7
:1035D00081E00C94A91A0E94C71A0E94C81A0E947E
:1035E000D11A0E94901A811102C00C94DC1A08951D
:1035F000CF93FB01C281CC23E9F09C0122513F45CE
:103600002031310520F482510E948A200CC0803183
:10361000FFE59F0751F481E00E94F10C43E062E076
:1036200081E00E94D306C0E018C081319F45A9F413
:1036300082E0F2CF8031EFE59E0711F481E004C013
:1036400081319F4549F482E00E94FC0C43E062E036
:1036500081E00E94D30601C0C1E08C2FCF91089574
:103660002FEFFC0120830895CF93DF93EC01888135
:10367000893031F08A3079F40E94A41789830BC015
:103680000E9451172FEF829FC001112463E070E068
:103690000E94F92B6983DF91CF910895FC0180810D
:1036A000893019F08A3069F00895818123E0829F82
:1036B000C00111246FEF70E00E94F92B862F0C944B
:1036C000D5188181811102C00C946F170C94571783
:1036D000EF92FF920F931F93CF93DF93EC01062F8E
:1036E0000196E8814E2F50E0FA013197E331F10560
:1036F00008F09AC0E759FF4F0C942F2C198289E0EB
:1037000056C08981823039F0833061F0813029F5EB
:103710000E94572302C00E94C81A9A838B837C831D
:103720006D8384C07E0182E0E80EF11C10E0812FE1
:103730000E949B15F70181937F011F5F1630B9F737
:1037400075C08981823049F46A817B818C819D8139
:103750000E94352C0E94D21A69C0602FCE010E94AF
:10376000301B64C04B816A8189810E946F1F9C83DA
:103770008D835CC02C813D813227232732274B81EA
:103780006A8189810E94881F51C00E949D1F4EC07E
:103790000E944E1B4BC00E94341B48C00E9445171C
:1037A00045C00E942D2024C00E942F2099838A8327
:1037B0003DC06B8170E089819A81AE014C5F5F4FA3
:1037C0009827892798270E94322030C06B8170E0AB
:1037D00089819A81AE014C5F5F4F9827892798278E
:1037E0000E94572023C00E947A2020C00E945C1FA4
:1037F00089831CC06B8170E089819A81AE014C5F26
:103800005F4F9827892798270E94DC1F0FC06B8184
:1038100070E089819A81AE014C5F5F4F98278927BC
:1038200098270E94FF1F02C08FEF8883602FCE0170
:10383000DF91CF911F910F91FF90EF900C941F2477
:10384000CF93DF93EC01FB018281882309F43CC113
:10385000C330FDE5DF0760F4CA3F9CE5D90788F473
:103860009E0122503C452431310508F02EC109C08B
:10387000C136EDE5DE0729F0C53AFDE5DF0709F0C1
:1038800024C10E9419129093220280932102C13117
:103890008CE5D80709F4C6C008F042C0C930ECE591
:1038A000DE0709F49BC000F5C5308CE5D80709F4A4
:1038B00085C078F4C330ECE5DE0709F478C008F081
:1038C0007AC0C230DC4509F0F5C0809121028160E8
:1038D000EFC0C7309CE5D90709F478C008F07AC07A
:1038E000809121028061E4C0CD30FCE5DF0709F45E
:1038F00087C058F4CB309CE5D90709F479C008F0AB
:103900007BC08091210288606FC0CF30FCE5DF076B
:1039100009F480C008F082C080912102877FC8C06E
:10392000CD3F9CE5D90709F471C000F5C531FCE530
:10393000DF0709F485C068F4C3319CE5D90709F4B1
:1039400075C008F095C00E947B0C809121028F7792
:10395000AFC0CB3FFCE5DF07A9F108F054C0CA3F78
:10396000DC4509F0A7C08091220240C0C130EDE5DE
:10397000DE0709F489C058F4CF3F8CE5D80709F475
:103980005AC008F069C08091220282602FC0C136FF
:10399000EDE5DE0709F47CC0C53AFDE5DF0709F473
:1039A00081C0C230DD4509F085C080E06EC08091E5
:1039B000210282607DC08091210216C08091210287
:1039C000886076C08091220282604FC0809121027F
:1039D00080626EC08091210280646AC00E947B0C6C
:1039E00080912102806864C0846062C081603DC0B3
:1039F000809121028E7F5CC0809121028D7F58C012
:103A00008091210216C08091220218C0809122026A
:103A10008D7F2BC0809121028F7E4AC08091210230
:103A20008F7D46C0809121028F7B42C08091210210
:103A3000877F8B7F3DC0809122028D7F8E7F15C056
:103A40008091210282FB222720F991E0922790FBAE
:103A500082F990FB83F92CC080912202982F9095D7
:103A600091708E7F892B90FB81F98093220222C076
:103A70000E947B0C8091210287FB222720F991E094
:103A8000922790FB87F914C081E00E94AF1212C008
:103A90008091210284FB222720F991E0922790FB5C
:103AA00084F906C080912102982F909590FB80F9AF
:103AB0008093210280912102909122020E942A1279
:103AC0000E947B0C80E001C081E0DF91CF910895DE
:103AD000CF93C82F1F928F9382E494E09F938F938C
:103AE0000E944A0681E001C0880FCA95EAF70E9449
:103AF000CD0C0F900F900F900F90CF910C947B0CEA
:103B0000EF92FF920F931F93CF93DF938B3109F4C2
:103B100009C108F0AAC08B3009F4CDC008F094C0E8
:103B2000863009F4CBC020F4853009F4D9C06AC1CD
:103B3000873009F4DCC0883009F064C10E94151296
:103B40001F928F9380E898E09F938F930E944A067C
:103B50000E94111283FB992790F91F929F9382FB79
:103B6000992790F91F929F9381FB992790F91F92B3
:103B70009F93982F91701F929F931F928F9387E32B
:103B800098E09F938F930E944A060E94191287FB28
:103B9000222720F91F922F9386FB222720F91F92BC
:103BA0002F9385FB222720F91F922F9384FB222736
:103BB00020F91F922F9383FB222720F91F922F9326
:103BC00082FB222720F91F922F9391FB222720F9B5
:103BD0001F922F93292F21701F922F9381FB222751
:103BE00020F91F922F93282F21701F922F939F93BC
:103BF0008F9382E597E09F938F930E944A068DB73B
:103C00009EB788960FB6F8949EBF0FBE8DBF0E94D8
:103C10003C17982F9695969596951F929F93982F5F
:103C200091701F929F931F928F938FE197E09F93C4
:103C30008F930E944A068DB79EB708960FB6F894E8
:103C40009EBF0FBE8DBF35C0803109F495C020F4F2
:103C50008E3009F47BC0D6C0863109F4A8C0893102
:103C600009F0D0C082EB94E084C08A32E1F060F4C5
:103C7000873209F4C3C028F48E3108F4C3C08D51D3
:103C8000BEC0893269F1BEC0833448F48A3308F07B
:103C9000B3C0853309F4B2C0883369F0B3C083344C
:103CA00009F4ACC0AFC08BE299E00E94B1050E945C
:103CB000AD12C1E0ACC08CE795E05BC08091FD0126
:103CC000817F8E7F8093FD0181E695E00E94B105A2
:103CD00087E299E00E94B10581E080930402E9CF78
:103CE0008BE099E00E94B1050E94E106E2CF80914D
:103CF000FD01C82FC095C170C0FB80F98093FD0104
:103D0000CC2329F08FEF98E00E94B10580C082EFAC
:103D100098E00E94B1058091FD01897F877F8093A3
:103D2000FD01C7CF9091FD0191FBCC27C0F981E047
:103D3000C827892FC0FB81F98093FD01CC2319F09E
:103D400085EE98E029C087ED98E013C09091FD01C1
:103D500092FBCC27C0F981E0C827892FC0FB82F9EC
:103D60008093FD01CC2319F088EC98E015C088EB16
:103D700098E00E94B1059DCF9091FD0193FBCC2767
:103D8000C0F981E0C827892FC0FB83F98093FD012A
:103D9000CC2351F08CEA98E00E94B1058091FD019E
:103DA00081608093FD0133C08FE998E0E2CF0E94EB
:103DB0005723162F072FF82EE92ED0912002C091FD
:103DC00012010E94E221EF92FF920F931F931F9224
:103DD000DF931F92CF931F928F9387E494E09F937A
:103DE0008F930E944A068DB79EB70C960FB6F89433
:103DF0009EBF0FBE8DBF5DCF895301C080E00E9482
:103E0000681D57CF8DE998E00E94B105C0E08C2F66
:103E1000DF91CF911F910F91FF90EF90089580E077
:103E200008950C940F1FCF93C82F8091040288230C
:103E300019F0813031F038C00E9409118232B1F599
:103E400004C00E940911823261F48C2F0E94111F5C
:103E5000811104C08C2F0E94801D24C081E090E05D
:103E600021C08C2F0E940F1F81111BC0C43189F00B
:103E700018F4CB3029F010C0C93259F0C83361F4BE
:103E800081E695E00E94B1058EE394E00E94B105C1
:103E900008C0109204020CC08CE394E00E94B105AB
:103EA00007C081E0817006C01092040280E002C069
:103EB00080E0F8CFCF91089584E0089550E0440F5A
:103EC000551F28E0629F400D511D11249A0160E3A7
:103ED000869F200D311D1124C901879608950F93E7
:103EE0001F93CF93DF930E945E1F8C010E94632C6F
:103EF000C82FD0E0DC2FCC27C80101960E94632C8C
:103F00009E01282BC901DF91CF911F910F91089538
:103F10000F931F93CF93DF93122F032F0E945E1FE7
:103F2000EC01602F0E94712C612FCE010196DF9170
:103F3000CF911F910F910C94712CAF92BF92CF92A1
:103F4000DF92EF92FF920F931F93CF93DF93A12CF9
:103F5000E12CF12CB12C00E010E0C0E0D0E06701D2
:103F6000C00ED11EF601EC0FFD1FEE0FFF1FE45F28
:103F7000FE4F259134914C2F6B2D8A2D0E94881F66
:103F80002196C430D10571F70C5F1F4FB39486E0C2
:103F9000B812E3CF88E1E80EF11CA39484E0A812E4
:103FA000D9CFDF91CF911F910F91FF90EF90DF90CC
:103FB000CF90BF90AF900895EF92FF920F931F9311
:103FC000CF93DF93EA017A01E60EF71E8C01C80158
:103FD0008796CE15DF0561F0003C110520F40E94A4
:103FE000632C888301C0188221960F5F1F4FEFCF8B
:103FF000DF91CF911F910F91FF90EF900895EF9275
:10400000FF920F931F93CF93DF93EA017A01E60E9D
:10401000F71E8C01C8018796CE15DF0551F0003CD4
:10402000110518F468810E94712C21960F5F1F4FB3
:10403000F1CFDF91CF911F910F91FF90EF900895F5
:10404000462F843038F4763028F4643018F4672F23
:104050000C946F1F80E090E0089580E1089589E15D
:1040600093E00895EF92FF920F931F93CF93DF9306
:10407000EA017A01E60EF71E8C01C80189519F4FB3
:10408000CE15DF0569F0093123E0120720F40E9404
:10409000632C888301C0188221960F5F1F4FEDCFDC
:1040A000DF91CF911F910F91FF90EF900895EF92C4
:1040B000FF920F931F93CF93DF93EA017A01E60EED
:1040C000F71E8C01C80189519F4FCE15DF0559F0AD
:1040D000093123E0120718F468810E94712C21969F
:1040E0000F5F1F4FEFCFDF91CF911F910F91FF9087
:1040F000EF900895CF93DF93C7EED0E060E0CE015C
:104100000E94712C2196C11584E0D807B9F7DF9180
:10411000CF910895DF92EF92FF920F931F93CF9369
:10412000DF9300D000D0CDB7DEB7F82E8FE08F152B
:10413000E8F18FEF93E00E94632C811137C007EE06
:1041400010E0FF2069F0011584E0180779F1C8013B
:104150000E94632C811101C0FA940F5F1F4FF1CFB1
:1041600019821A821B821C82DD24D39478018FEF7E
:10417000E81AF80AC8010E94632C89831A828823EE
:10418000A9F09FEF980F933058F48A83D9820E5F7D
:104190001F4FC7010E94632C8B83882339F078015D
:1041A000CE0101960E9445088701E0CF0F900F9045
:1041B0000F900F90DF91CF911F910F91FF90EF9093
:1041C000DF900895CF93DF9386319C4541F5EB0155
:1041D0000E940911982F8A812091020130910301D8
:1041E000882379F09A7A81E009F480E080930502CF
:1041F000911102C069E201C065E3C9010E94A522D4
:104200000AC080910502811102C069E201C065E324
:10421000C9010E94A7220E944B1180E001C081E0E9
:10422000DF91CF9108950F931F93CF93DF93C42F06
:10423000D22FFC0182818823C9F0409308020E949A
:104240004B23909307028093060280E28C0F883004
:1042500008F057C0C77081E001C0880FCA95EAF71F
:10426000DF91CF911F910F910C94180A8091080251
:10427000481330C080910602909107020E94632388
:10428000883C910538F510E21D0FCD17B9F080E29A
:104290008C0F883040F4C77081E001C0880FCA9548
:1042A000EAF70E941F0A183028F581E09D2F9770C9
:1042B00001C0880F9A95EAF70E94180A802F0E9481
:1042C0000F0A1830F0F4D77081E001C0880FDA953A
:1042D000EAF70AC080E28C0F883098F4C77081E05A
:1042E00001C0880FCA95EAF7DF91CF911F910F9116
:1042F0000C941F0A802FDF91CF911F910F910C9486
:104300000F0ADF91CF911F910F9108950F939C0198
:10431000CB01233F4CE5340731F188F4283DFCE51F
:104320003F07D9F0293D4CE5340779F1273D3C455D
:10433000A9F506E221EE41EE67ED7CE52BC0253FB5
:10434000FCE53F07E1F0A8F0263F3C4539F507E2E0
:1043500025EE46EE66EF7CE51DC007E225EE45EE54
:1043600068ED7CE517C006E221EE40EE63EF7CE5E8
:1043700011C007E225EE44EE64EF7CE50BC006E2D7
:1043800021EE42EE65EF7CE505C008E221E045EE56
:1043900069ED7CE50E94132180E008C0FC01828168
:1043A000882319F01092080201C081E00F9108954E
:1043B0009093950180939401089590930E028093B9
:1043C0000D020895E0910D02F0910E02309721F058
:1043D0000190F081E02D099480E00895EF92FF9222
:1043E0000F931F93CF93DF93E0910D02F0910E0294
:1043F0003097B1F18C010280F381E02D0995809115
:10440000FD0182FF2DC080FF04C084E499E00E947A
:10441000B105E80118E08EE3E82E89E0F82E8091DE
:10442000FD0180FF0BC088811F928F93FF92EF9256
:104430000E944A060F900F900F900F9011502196F6
:104440001111EDCF8091FD0180FF0AC08CE399E04E
:10445000DF91CF911F910F91FF90EF900C94B105D8
:10446000DF91CF911F910F91FF90EF9008952091D0
:104470000B0230910C022817390771F090930C024F
:1044800080930B02E0910D02F0910E02309721F023
:104490000680F781E02D099408952091090230915A
:1044A0000A022817390771F090930A0280930902D3
:1044B000E0910D02F0910E02309721F00084F18519
:1044C000E02D09940895FC01329697E080E0915028
:1044D00029F021912223D9F38F5FF9CF0895662324
:1044E00049F0FC01329608962191621729F0E817ED
:1044F000F907D1F780E0089581E008959C01FC015F
:1045000032969FEF80E04191461789F09F3F19F462
:10451000411101C0982F8F5F8630A9F79F3F39F076
:10452000F901E90FF11D97FDFA9562830895089549
:104530009C012A5F3F4FFC014281461301C0128259
:10454000019682179307B9F708950C947E220C9474
:104550009822029626E0FC0111922A95E9F7089527
:1045600008950C94B02283E080930F020C94B12242
:10457000811102C081E001C082E080930F020C949F
:10458000B1220C94B82281E080930F020C94B122E6
:104590000C94C32208950C94CA220C94CB220C9440
:1045A000CA220C94CA220C94CA22CF930E94D12210
:1045B0000E94A4160E94CF22C0E08C2F0E949B155F
:1045C000811104C0CF5FC630C1F701C081E0CF9137
:1045D000089508951F920F920FB60F9211248F9392
:1045E0009F93AF93BF9380911002811113C080916C
:1045F000300290913102A0913202B0913302419683
:10460000A11DB11D8093300290933102A09332021C
:10461000B0933302BF91AF919F918F910F900FBED6
:104620000F901F90189580913802843031F10E94CC
:1046300069071092100220E488E190E00FB6F89428
:10464000A895809360000FBE2093600083B7817FA0
:10465000846083BF83B7816083BF7894889583B774
:104660008E7F83BF0FB6F894A89580916000886113
:1046700080936000109260000FBE08950E947B0C32
:104680000C94700782E084BD93E095BD9AEF97BDCE
:1046900080936E0008952FB7F89480913002909126
:1046A0003102A0913202B09133022FBF08952FB78B
:1046B000F8946091300270913102809132029091B1
:1046C00033022FBF08959C014FB7F89480913002B8
:1046D00090913102A0913202B09133024FBF821B00
:1046E000930B089578941F920F920FB60F92112496
:1046F0008F939F93AF93BF9380913002909131023B
:10470000A0913202B09133020196A11DB11D809398
:10471000300290933102A0933202B0933302BF91E2
:10472000AF919F918F910F900FBE0F901F90189592
:1047300081E08093E00080E28093D8001092C9006D
:104740008FE19EE40197F1F700C0000087E090EB55
:10475000DC018093410290934202A0934302B09304
:1047600044029CE088E10FB6F894A895809360001D
:104770000FBE90936000FFCF80911F0208950895AF
:10478000CF93DF9321E02093E9002FEF3091E800F1
:10479000215035FD06C035ED3A95F1F700002111A5
:1047A000F5CF2091E80025FF14C0EC0140E050E077
:1047B00068E070E00E94F5268091E8008E77809393
:1047C000E80088E0FE01A7E1B2E001900D928A9531
:1047D000E1F7DF91CF910895809313027093150252
:1047E00060931402809138028430F9F48093E900D8
:1047F0008FEF9091E800815095FD06C095ED9A9558
:10480000F1F700008111F5CF8091E80085FF0DC020
:1048100040E050E063E070E083E192E00E94F52622
:104820008091E8008E778093E8000895BC0184E0D1
:104830000C94EC23BC0183E00C94EC230895CF93FB
:10484000603219F5209138022430F9F4C091E90062
:10485000CF703091EC00232F217030FD20E8C22B67
:1048600022E02093E9002091E80020FF0BC040E007
:1048700050E060E270E00E94F5268091E8008E77BB
:104880008093E800CF70C093E900CF9108958AE645
:1048900099E00E94B10580913702811109C00E9400
:1048A000D1280E942E298091E20084608093E2004A
:1048B000089586E699E00E94B105109237020895A6
:1048C00082E699E00E94B1050C94C8228EE599E039
:1048D0000E94B1056091340281E0611101C080E065
:1048E0000C94B3228AE599E00E94B10590913802B8
:1048F00081E0943009F080E0609134020C94B82299
:10490000209112022F5F822F62E30E94ED2B9923E8
:1049100019F020931202089510921202809116024B
:10492000882371F180913802843041F58091E9004B
:104930008F702091EC00922F917020FD90E8892BD0
:1049400095E09093E9009091EB0090FF14C0909156
:10495000EE0097FF10C09091E80095FF03C0109201
:10496000F100F9CF9091E80090FF05C09091E80028
:104970009E779093E8008F708093E9001092160262
:10498000089542E061EC81E00E944A2842E261EC35
:1049900084E00E944A2842E261EC82E00E944A28B8
:1049A00042E260EC83E00E944A2842E261EC85E04A
:1049B0000E944A289091380281E0943009F080E00A
:1049C000609134020C94C12280913A02833009F440
:1049D00063C030F4813071F0823009F49CC00895D6
:1049E0008A3009F488C08B3009F46EC0893009F030
:1049F000AAC020C080913902813A09F0A4C08091F8
:104A0000E800877F8093E80080913D0290913E020C
:104A1000892B21F468E087E192E003C060E080E048
:104A200090E070E00E948B278091E8008B77809364
:104A3000E800089580913902813209F084C08091A4
:104A40003D0290913E02009719F0029709F07BC059
:104A50008091E800877F8093E8008091E80082FDE4
:104A600005C0809138028111F8CF6DC02091F3000C
:104A70008091F20090E0922B029731F48091F10046
:104A8000813011F0863021F48091F10080931F0273
:104A90008091E8008B7753C080913902813A09F008
:104AA00052C080913D0290913E02892B09F04BC08B
:104AB0008091E800877F8093E8008091E80080FF84
:104AC000FCCF8091120136C0809139028132D9F534
:104AD00080913D0290913E02892BA9F58091E800DA
:104AE000877F8093E8000E947F2880913B0280931B
:104AF00012010C947B0C80913902813221F5809156
:104B0000E800877F8093E8000E947F2880913C0224
:104B100080932002089580913902813AA1F4809116
:104B2000E800877F8093E8008091E80080FFFCCF59
:104B3000809120028093F1008091E8008E7780932D
:104B4000E8000C947F2808959FB7F89410921602FD
:104B50009FBF90913802943009F057C09091E900BE
:104B60009F703091EC00232F217030FD20E8922BB4
:104B700025E02093E9002091EB0020FF43C0209125
:104B8000EE0027FF3FC020911102222321F0209147
:104B9000E80025FF37C01092110226E03091E800AE
:104BA00035FD15C030913802343061F53091EB009D
:104BB00035FD28C0215021F481E08093110222C0EC
:104BC000EFE9FFE03197F1F700C00000E7CF8093F5
:104BD000F1008091E80085FD0AC08091E80080FF27
:104BE000FCCF8091E8008E778093E80006C08FB7F5
:104BF000F89421E0209316028FBF9F709093E900F4
:104C000080E008959F709093E9008FEF089584B736
:104C1000877F84BF0FB6F894A89580916000886163
:104C200080936000109260000FBE90E080E80FB6A5
:104C3000F89480936100909361000FBE0C94C3229E
:104C40000E94D1280E942E29E2EEF0E0808184604B
:104C5000808378940C94C22B86E091E00C94DD2143
:104C6000809138028530C9F486E599E00E94B1054B
:104C700080913802853079F40E94132380913602A6
:104C80008823B1F30E94D522882391F30E94DF2666
:104C90000E947B0CEDCF0C943E230895CF93DF93BD
:104CA000CDB7DEB7A0970FB6F894DEBF0FBECDBF6D
:104CB00080913802843011F583E08093E90080917F
:104CC000E80082FF1BC08091E80085FF0AC040E039
:104CD00050E060E270E0CE0101960E94402791E032
:104CE00001C090E08091E8008B778093E8009923E1
:104CF00029F060E2CE0101960E94681BA0960FB6D3
:104D0000F894DEBF0FBECDBFDF91CF9108950C9414
:104D10008926292F332723303105C9F060F421304B
:104D2000310581F02230310509F041C08BE790E078
:104D300022E939E040C021323105E1F0223231056B
:104D400031F135C082E190E02DE03AE034C099279E
:104D50008130910549F028F0029749F5EEE6F9E037
:104D600005C0EEE8F9E002C0E8E7F9E0849190E0E0
:104D70009F0121C064307105D0F4660F771FFB01DD
:104D8000E557FE4F2081318189E090E014C0643006
:104D9000710568F4FB01EE0FFF1FED57FE4F2081F8
:104DA0003181FB01E158FE4F808190E004C080E03A
:104DB00090E020E030E0FA0131832083089580E123
:104DC00089BD82E189BD09B400FEFDCF8091D80084
:104DD0008F7D8093D8008091E00082608093E00016
:104DE0008091E00081FDFCCF0895CF92DF92EF9299
:104DF000FF920F931F93CF93DF93EC018B017A0106
:104E00000E949E28811133C0E114F10439F0F701AA
:104E100080819181081B190BC80FD91FC12CD12C7F
:104E20000115110519F18091E80085FD16C08091EA
:104E3000E8008E778093E800E114F10449F0F7016F
:104E400080819181C80ED91ED182C08285E00FC0B9
:104E50000E949E28882321F30AC089918093F10043
:104E600001501109FFEFCF1ADF0ADACF80E0DF919E
:104E7000CF911F910F91FF90EF90DF90CF90089509
:104E8000CF92DF92EF92FF920F931F93CF93DF9316
:104E9000EC018B017A010E949E28811133C0E1143C
:104EA000F10439F0F70180819181081B190BC80FBB
:104EB000D91FC12CD12C0115110519F18091E800E1
:104EC00085FD16C08091E8008B778093E800E1149F
:104ED000F10449F0F70180819181C80ED91ED18279
:104EE000C08285E00FC00E949E28882321F30AC05B
:104EF0008091F100899301501109FFEFCF1ADF0A69
:104F0000DACF80E0DF91CF911F910F91FF90EF906A
:104F1000DF90CF90089520913F02309140022617F4
:104F2000370748F06115710539F42091E8002E77B4
:104F30002093E80001C0B901FC0120E06115710572
:104F400079F1809138028823F1F18530F1F1809177
:104F5000E80083FD3CC08091E80082FD2EC0809176
:104F6000E80080FFEBCF2091F3008091F20090E009
:104F7000922B6115710551F08830910538F421911B
:104F80002093F100615071090196F3CF21E0089759
:104F900009F020E08091E8008E778093E800CECF82
:104FA0002111CFCF0AC080913802882361F085306B
:104FB00061F08091E80083FD0AC08091E80082FFE3
:104FC000F2CF80E0089582E0089583E0089581E0C3
:104FD000089520913F02309140022617370748F08C
:104FE0006115710539F42091E8002E772093E800CF
:104FF00001C0B901FC0120E06115710591F18091BA
:105000003802882309F440C0853009F43FC08091FC
:10501000E80083FD3DC08091E80082FD2FC08091B3
:10502000E80080FFE9CF2091F3008091F20090E04A
:10503000922B6115710559F08830910540F4249147
:105040002093F1003196615071090196F2CF21E071
:10505000089709F020E08091E8008E778093E800BF
:10506000CBCF2111CCCF0AC080913802882361F0C8
:10507000853061F08091E80083FD0AC08091E800EE
:1050800082FFF2CF80E0089582E0089583E00895E2
:1050900081E00895982F973068F59093E90098176C
:1050A00039F07091EC002091ED005091F00003C0B8
:1050B000242F762F50E021FD02C09F5FECCF30916E
:1050C000EB003E7F3093EB003091ED003D7F30935D
:1050D000ED003091EB0031603093EB007093EC0009
:1050E0002093ED005093F0002091EE0027FDE5CFD6
:1050F00080E008958F708093E90081E008958091A9
:10510000390287FF11C08091E80082FD05C08091BF
:1051100038028111F8CF11C08091E8008B770BC065
:1051200080913802882349F08091E80080FFF8CF11
:105130008091E8008E778093E80008952091E40044
:105140003091E50095E64091EC00842F817040FF9E
:1051500023C08091E80080FD1DC080913802882323
:1051600099F0853099F08091EB0085FD11C0409158
:10517000E4005091E5002417350729F3915011F010
:105180009A01E1CF84E0089582E0089583E00895D4
:1051900081E0089580E008954091E80042FFDDCF6E
:1051A00008950E943F290E944729E0EEF0E08081A7
:1051B00081608083E8EDF0E080818F77808319BC87
:1051C000A7EDB0E08C918E7F8C9380818F7E808361
:1051D0001092370208950F931F93CF93DF930E948D
:1051E0003F290E944729C8EDD0E088818F778883C6
:1051F00088818068888388818F7D888319BC10921C
:10520000380210923402109236021092350200EEEB
:1052100010E0F80180818B7F8083888181608883A2
:1052200042E060E080E00E944A28E1EEF0E0808108
:105230008E7F8083E2EEF0E08081816080838081D8
:1052400088608083F80180818E7F8083888180617F
:105250008883DF91CF911F910F910895E8EDF0E0E1
:1052600080818F7E8083E7EDF0E0808181608083A4
:1052700084E082BF81E0809337020C94EB28E8ED54
:10528000F0E080818E7F80831092E200089510927A
:10529000DA001092E10008951F920F920FB60F925C
:1052A00011242F933F934F935F936F937F938F932B
:1052B0009F93AF93BF93EF93FF938091E10082FFA1
:1052C0000BC08091E20082FF07C08091E1008B7FDC
:1052D0008093E1000E9480248091DA0080FF1FC04B
:1052E0008091D80080FF1BC08091DA008E7F809370
:1052F000DA008091D90080FF0DC080E189BD82E194
:1053000089BD09B400FEFDCF81E0809338020E9480
:10531000472405C019BC109238020E94592480917C
:10532000E10080FF19C08091E20080FF15C08091EC
:10533000E2008E7F8093E2008091E20080618093A2
:10534000E2008091D80080628093D80019BC85E08B
:10535000809338020E9466248091E10084FF30C06F
:105360008091E20084FF2CC080E189BD82E189BD8B
:1053700009B400FEFDCF8091D8008F7D8093D800C6
:105380008091E1008F7E8093E1008091E2008F7E2A
:105390008093E2008091E20081608093E20080913E
:1053A0003402882311F084E007C08091E30087FD78
:1053B00002C081E001C083E0809338020E94722421
:1053C0008091E10083FF29C08091E20083FF25C026
:1053D0008091E100877F8093E10082E08093380232
:1053E000109234028091E1008E7F8093E1008091E1
:1053F000E2008E7F8093E2008091E20080618093E2
:10540000E20042E060E080E00E944A288091F000E3
:1054100088608093F0000E946024FF91EF91BF911B
:10542000AF919F918F917F916F915F914F913F913C
:105430002F910F900FBE0F901F9018951F920F92F3
:105440000FB60F9211242F933F934F935F936F9357
:105450007F938F939F93AF93BF93CF93DF93EF93FC
:10546000FF93C091E900CF708091EC00D82FD170EC
:1054700080FDD0E81092E9008091F000877F809352
:10548000F00078940E94622A1092E9008091F00066
:1054900088608093F000CD2BCF70C093E900FF911E
:1054A000EF91DF91CF91BF91AF919F918F917F91BC
:1054B0006F915F914F913F912F910F900FBE0F9081
:1054C0001F9018951F93CF93DF93CDB7DEB7AA97A0
:1054D0000FB6F894DEBF0FBECDBFE9E3F2E08091D6
:1054E000F100819322E0E134F207C9F70E94E4243D
:1054F0008091E80083FF2EC18091390290913A0299
:10550000492F50E04A30510508F024C1FA01E4580F
:10551000FF4F0C942F2C803821F0823809F01AC1EB
:1055200008C08091350290913602992389F08260FB
:105530000FC080913D028F70873008F00BC18093BF
:10554000E9008091EB0085FB882780F91092E90043
:105550009091E800977F9093E8008093F10010927B
:10556000F100D1C0282F2D7F09F0F4C0882319F055
:10557000823061F0EFC080913B02813009F0EAC0D7
:10558000933009F080E0809336022EC080913B0278
:1055900081112AC080913D028F702FEF280F263095
:1055A00008F0D8C08093E9002091EB0020FF1CC0D8
:1055B000933021F48091EB00806214C09091EB0055
:1055C00090619093EB0021E030E0A90102C0440F0C
:1055D000551F8A95E2F74093EA001092EA00809105
:1055E000EB0088608093EB001092E9008091E80066
:1055F000877F8093E8000E947F28ACC08111AAC0F9
:1056000010913B021F778091E3008078812B80937B
:10561000E3008091E800877F8093E8000E947F2864
:105620008091E80080FFFCCF8091E3008068809348
:10563000E300111102C082E001C083E080933802D0
:1056400089C08058823008F085C080913B029091DB
:105650003C028C3D53E0950779F583E08A838AE22A
:1056600089834FB7F894DE01139620E03EE051E2C3
:10567000E32FF0E050935700E49120FF03C0E29540
:10568000EF703F5FEF708E2F90E0EA3010F0C7961A
:1056900001C0C0968D939D932F5F243149F74FBF72
:1056A0008091E800877F8093E8006AE270E0CE0195
:1056B00001960E948B2716C060913D0270913E02B8
:1056C000AE014F5F5F4F0E948726BC01892B09F412
:1056D00041C09091E800977F9093E80089819A817A
:1056E0000E94E9278091E8008B778093E80032C020
:1056F000803881F58091E800877F8093E800809171
:1057000034028093F1008091E8008E7772CF81118E
:1057100021C080913B0290913C0299270297D4F4DA
:105720008091E800877F8093E80080913B0280931E
:1057300034020E947F2880913402811106C080913A
:10574000E30087FD02C081E001C084E0809338025D
:105750000E94C1248091E80083FF0AC08091E80084
:10576000877F8093E8008091EB0080628093EB005C
:10577000AA960FB6F894DEBF0FBECDBFDF91CF91D2
:105780001F910895CF93809138028823A1F0C09192
:10579000E900CF709091EC00892F817090FD80E836
:1057A000C82B1092E9008091E80083FD0E94622AD4
:1057B000CF70C093E900CF910895DB018F939F9341
:1057C0000E944B2CBF91AF91A29F800D911DA39F72
:1057D000900DB29F900D11240895991B79E004C09B
:1057E000991F961708F0961B881F7A95C9F7809520
:1057F0000895AA1BBB1B51E107C0AA1FBB1FA61718
:10580000B70710F0A61BB70B881F991F5A95A9F769
:1058100080959095BC01CD010895A1E21A2EAA1B96
:10582000BB1BFD010DC0AA1FBB1FEE1FFF1FA21750
:10583000B307E407F50720F0A21BB30BE40BF50B4D
:10584000661F771F881F991F1A9469F760957095D6
:10585000809590959B01AC01BD01CF010895EE0F9D
:10586000FF1F0590F491E02D099469279627692779
:105870007827872778270895A29FB001B39FC0019A
:10588000A39F700D811D1124911DB29F700D811D6C
:105890001124911D08950E943C2CA59F900DB49F4A
:1058A000900DA49F800D911D11240895FB01DC0132
:1058B00004C08D910190801921F441505040C8F7E7
:1058C000881B990B0895F999FECF92BD81BDF89A76
:1058D000992780B50895A8E1B0E042E050E00C942B
:1058E000972C262FF999FECF92BD81BDF89A01978A
:1058F00000B4021639F01FBA20BD0FB6F894FA9A18
:10590000F99A0FBE08950396272F0E94722C0E94C9
:10591000712C252F0E94722C242F0C94722C01962E
:10592000272F0E94722C0C94712CDC01CB01FC01FE
:10593000F999FECF06C0F2BDE1BDF89A319600B4E8
:0E5940000D9241505040B8F70895F894FFCFF3
:10594E00C800E5010601BC23C0231E241A24162418
:10595E00BF2301E200E900EA00B500B600B700CDB2
:10596E00008301CC008A01920194012102230224BA
:10597E00022502260227022A02B300B4006F00702D
:10598E0000818283E200E900EA00B500B600B700AC
:10599E00CD008301CC008A019201940121022302E1
:1059AE0024022502260227022A02B300B4006F0049
:1059BE007000818283F0673132306636353497401D
:1059CE00223222950A410A630A1F0AA409BD09DD83
:0459DE0009F60900BD
:00000001FF
