:100000000C9436040C946E040C946E040C946E04E0
:100010000C946E040C946E040C946E040C946E0498
:100020000C946E040C946E040C94882C0C945A2D31
:100030000C946E040C946E040C946E040C946E0478
:100040000C946E040C944D1D0C946E040C946E0470
:100050000C94AA1F0C9449270C946E040C946E0403
:100060000C946E040C946E040C946E040C946E0448
:100070000C946E040C946E040C946E040C946E0438
:100080000C946E040C946E040C946E040C946E0428
:100090000C946E040C946E040C946E040C946E0418
:1000A0000C946E040C946E040C946E043C083C0892
:1000B00068086808D008EE08D509D509F90861096B
:1000C00072097209B91EBB1EC01EC31EC61EC91E00
:1000D000CC1EB821BB21DB21EC21F421FF2102221F
:1000E0000922102258225822152218221D222A22C3
:1000F00037223A223E224B22C72DEE2DE62EEE2D40
:10010000E62E3A2E5D2EE62EB42EC32E29001E00BA
:100110001F002000210022002300240025002600CB
:1001200027002D002E002A004B002B0014001A007F
:100130000800150017001C0018000C001200130026
:100140002F0030002A004E0039000400160007007E
:1001500009000A000B000D000E000F0033003400F0
:10016000320031000000E10064001D001B000600A9
:100170001900050011001000360037003800E500B6
:1001800028005200E000E300E20000000000000050
:1001900000002C000000E6000151E4005000510076
:1001A0004F000100C25CC35CBF5CBD5CBE5C010073
:1001B0000100010001000100010001000100010037
:1001C0000100010001000100005C010001000100CC
:1001D0000100010001000100010001000100010017
:1001E0000100010001000100010001000100010007
:1001F00001000100010001000100000001000100F8
:1002000001000100010001000100010001000100E6
:1002100001000100010001000100010001000100D6
:1002200000000000000000000100000001000100CB
:1002300001000100010001000100010001000100B6
:1002400001000100010001000100010001000100A6
:100250000100010001000100010001000100010096
:100260000100010001000100010001000100010086
:100270000100010001000100010001000100010076
:100280000100010001000100010001000100010066
:100290000000010001000100010001000100010057
:1002A0000100010001000100010001000100010046
:1002B000010001000100000000000000000001003A
:1002C0000000010001000100010001000100010027
:1002D0000100010001000100010001000100010016
:1002E0000100010001000100010001000100010006
:1002F00001000100010001000100010001000100F6
:1003000001000100010001000100010001000100E5
:1003100001000100010001000100010001000100D5
:1003200001000100010000000100010001000100C6
:1003300001000100010001000100010001000100B5
:1003400001000100010001000100010000000000A7
:100350000000000001000000010001000100010098
:100360000100010000000000000000002A2B28000E
:100370000000000000000000000000000000002954
:10038000000000002C1E3420212224342627252E94
:10039000362D3738271E1F202122232425263333CC
:1003A000362E37381F0405060708090A0B0C0D0EF8
:1003B0000F101112131415161718191A1B1C1D2FC4
:1003C0003130232D350405060708090A0B0C0D0EE4
:1003D0000F101112131415161718191A1B1C1D2FA4
:1003E0003130354C0000000000000000000000002B
:1003F00000000000000000000000000000000000FD
:1004000000000000000000007E0F00D4FFFFFFC7C7
:10041000000000780004643214783C1E1E140A05A3
:100420002223252628292A2C2D2F30323335363801
:100430003A3B3D3E4042434547494A4C4E5051535A
:100440005557595A5C5E6062646668696B6D6F717E
:10045000737577797B7D7F81838587898A8C8E9080
:10046000929496989A9C9E9FA1A3A5A7A8AAACAE89
:10047000AFB1B3B4B6B8B9BBBCBEBFC1C2C3C5C6C9
:10048000C7C9CACBCCCDCED0D1D2D2D3D4D5D6D772
:10049000D7D8D9D9DADADBDBDBDCDCDCDCDCDDDDB0
:1004A000DDDDDCDCDCDCDCDBDBDBDADAD9D9D8D7A0
:1004B000D7D6D5D4D3D2D2D1D0CECDCCCBCAC9C742
:1004C000C6C5C3C2C1BFBEBCBBB9B8B6B4B3B1AF79
:1004D000AEACAAA8A7A5A3A19F9E9C9A9896949219
:1004E000908E8C8A89878583817F7D7B79777573F0
:1004F000716F6D6B6968666462605E5C5A595755CE
:100500005351504E4C4A4947454342403E3D3B3A89
:100510003836353332302F2D2C2A29282625232210
:10052000FFAA7F554000000000000000000000000E
:10053000010204060A0F17202C3A4A5D71879DB309
:10054000C7DAE9F5FCFFFCF5E9DAC7B39D87715D11
:100550004A3A2C20170F0A0604020100000000008E
:10056000000000000000000000000000000000008B
:1005700001010203040506080A0C0F1114181C20BF
:1005800024292E33393F464C535B626A7179818A44
:10059000929AA2AAB2B9C1C8CFD5DCE1E7EBF0F4D8
:1005A000F7FAFCFDFEFFFEFDFCFAF7F4F0EBE7E1E5
:1005B000DCD5CFC8C1B9B2AAA29A928A8179716AF0
:1005C000625B534C463F39332E2924201C181411EA
:1005D0000F0C0A08060504030201010000000000D8
:1005E0000000000000000101010101010101010200
:1005F00002020202020202020303030303030303D3
:10060000040404040404040505050505060606069D
:1006100006070707070708080808090909090A0A59
:100620000A0B0B0B0C0C0C0D0D0D0E0E0E0F0F0FFD
:100630001010111111121213131414151516161788
:1006400017181819191A1A1B1B1C1D1D1E1E1F20F6
:1006500020212222232424252626272829292A2B43
:100660002C2D2D2E2F303132323334353637383968
:100670003A3B3C3D3E3F4041424344454647484962
:100680004A4C4D4E4F50515354555658595A5B5D34
:100690005E5F616264656668696B6C6D6F707273D2
:1006A0007577787A7B7D7E8082838587888A8C8E39
:1006B0008F91939596989A9C9EA0A2A3A5A7A9AB6B
:1006C000ADAFB1B3B5B7BABCBEC0C2C4C6C9CBCD5D
:1006D000CFD1D4D6D8DBDDDFE2E4E7E9EBEEF0F30F
:1006E000F5F8FAFDFF0C03680036003600300073A1
:1006F0000000002803680069006E00650079006250
:100700000075007300680020006B006500790062CE
:10071000006F0061007200640073000000040309B0
:100720000409025B00030100A0FA090400000103B0
:100730000101000921110100012240000705810388
:100740000800010904010002030000000921110151
:100750000001222200070582032000010705030390
:100760002000010904020001030000000921110119
:100770000001227B00070584032000011201000212
:1007800000000008D8041BEB010001020001066014
:10079000FF0961A1010962150026FF009520750877
:1007A00081020963150026FF00952075089102C09B
:1007B00005010902A10185020901A100050919012C
:1007C00029081500250195087501810205010930E8
:1007D00009311581257F9502750881060938158133
:1007E000257F950175088106050C0A3802158125BB
:1007F0007F950175088106C0C005010980A10185AA
:100800000319012AB700150126B70095017510815B
:1008100000C0050C0901A101850419012AA00215D7
:100820000126A002950175108100C005010906A1ED
:1008300001050719E029E7150025019508750181D3
:10084000029501750881010507190029FF15002689
:10085000FF00950675088100050819012905950511
:1008600075019102950175039101C00011241FBE0D
:10087000CFEFDAE0DEBFCDBF04B603FE18C0809133
:10088000E5029091E602A091E702B091E80287307C
:10089000904BA740B04B59F41092E5021092E6023B
:1008A0001092E7021092E802E0E0F8E3099511E007
:1008B000A0E0B1E0EEEFFFE502C005900D92AC3C88
:1008C000B107D9F722E0ACECB1E001C01D92A53E22
:1008D000B207E1F70E9403150C94FD2F0C94000061
:1008E0000E94941B40E86FEF80E00E947C1A8BE02E
:1008F0000E94911B60E070E0CB010E940F100C94ED
:100900001B1081E0089581E008950C9483040895FC
:100910000C9487041F93CF93DF9300D000D01F92D5
:10092000CDB7DEB749835A836B833091CF0189817C
:100930009A81311114C0662359F0222349F00E9494
:10094000640B182F682F89819A810E940D0B03C0B8
:100950000E94380B182F69817A81812F04C00E9470
:10096000640B69817A810F900F900F900F900F9018
:10097000DF91CF911F910C947324FC01262F4081AD
:1009800051816281738184810C948A0481E008958D
:10099000CF93DF93EC0160E00E94BD04BE01DF91C4
:1009A000CF910C948804E1E0F0E0DF0102C0AA0FCF
:1009B000BB1F6A95E2F7BD01DF0102C0AA0FBB1F92
:1009C0004A95E2F7AD01462B01C0EE0F2A95EAF7F2
:1009D000942F9823491302C08E2B0895E0958E23FF
:1009E0000895242F462F682F8091EE010E94D30492
:1009F0000C94CA0A0C94B4130C94B01308950E947A
:100A0000650A0E94FE042FEF84E39CE021508040A1
:100A10009040E1F700C000000C946F270F931F93E4
:100A2000CF93DF938C0161E00E94BD04EC01B8011B
:100A30000E94D920882309F452C0B801CE010E9437
:100A40008504882309F44BC0B801CE010E94AA1E78
:100A5000882309F444C0B801CE010E94D925882317
:100A6000F1F1B801CE010E9465228823C1F1B801DD
:100A7000CE010E943525882391F1B801CE010E9454
:100A80007A1C882361F1F8018281882309F1CA3533
:100A90008DE5D807C1F050F4C115FCE5DF0781F002
:100AA000CE3DDC45A9F40E947E1019C0CB35EDE5A2
:100AB000DE0761F0CC35DD4559F40E94C90F08C04E
:100AC0000E94FF040CC00E94D20F02C00E94D50FEA
:100AD000C801DF91CF911F910F910C94810480E0A8
:100AE000DF91CF911F910F9108950C94F0260E94F1
:100AF000CE1D0E9462060E94E11B0C94F626DF9236
:100B0000EF92FF920F931F93CF93DF93E82FF0E0C4
:100B1000EC59FC4FD490282F26952695269530E049
:100B2000F901EC5FFB4F0491877010E0082E02C0C2
:100B3000159507950A94E2F701701127F901EC5019
:100B4000FC4FE490F12C082E02C0F594E7940A942F
:100B5000E2F791E0E922FF24F901EC51FC4FC49146
:100B6000D0E002C0D595C7958A95E2F7C170DD2720
:100B70000115110519F081EE0E94C106E114F1047E
:100B800019F086EE0E94C1068D2D0E94EA07EF281B
:100B900019F086EE0E946B07012B19F081EE0E947E
:100BA0006B07CD2B51F08CE2DF91CF911F910F910C
:100BB000FF90EF90DF900C94EA07DF91CF911F91A7
:100BC0000F91FF90EF90DF900895EF92FF920F93B7
:100BD0001F93CF93DF93EC01162F0AE088818823BF
:100BE00009F455C0813009F043C08981813041F456
:100BF0007E0182E0E80EF11C8A810E94EA0709C0AA
:100C0000823049F47E01E2E0EE0EF11C8A810E94FE
:100C1000C106E7012FC0833041F47E01F2E0EF0E00
:100C2000F11C8A810E946B07F4CF843011F0219669
:100C300021C02A81229680E090E030E020533109E3
:100C40002A30310558F4089FA001099F500D112446
:100C5000C901840F951F21962881EFCF009751F08D
:100C6000EFE9FFE03197F1F700C000000197F6CF00
:100C70000E947F052196812F882309F4AFCFEFE9E9
:100C8000FFE03197F1F700C000008150F5CFDF9110
:100C9000CF911F910F91FF90EF90089560E00C9419
:100CA000E50508950C94510681E008950C945406CE
:100CB0000895CF93C82F0E9452068C2F0E9456068B
:100CC000CF9108950E9435260C9459060E9435262E
:100CD0009091CE01891721F08093CE010C94590692
:100CE0000895CF93DF93CDB7DEB72B970FB6F89467
:100CF000DEBF0FBECDBF4F83588769877A878B874A
:100D000061110E94150F9E012F5F3F4F86E0F90190
:100D100011928A95E9F785E0FE013796D901019095
:100D20000D928A95E1F789819A814C815D81452BED
:100D300031F09F3F31F491E08F3F19F403C091E00F
:100D400001C090E090FF09C049815A816B817C818C
:100D50008D819E810E94360E05C0C9010E94C60485
:100D60008111F2CF2B960FB6F894DEBF0FBECDBF28
:100D7000DF91CF910895FC01808191810E94910BB8
:100D80000895CF93882309F4A4C0C82F8238C1F4F2
:100D90000E94352681FD9DC069E3809102019091FA
:100DA00003010E94C8260E94370F2FEF81EE94E0C6
:100DB000215080409040E1F700C0000069E319C075
:100DC000833801F50E94352680FD83C063E580915C
:100DD0000201909103010E94C8260E94370F2FEF55
:100DE00081EE94E0215080409040E1F700C0000087
:100DF00063E580910201909103010E94CA26CF9180
:100E00000C94370F8438C1F40E94352682FD61C0EE
:100E100067E480910201909103010E94C8260E941C
:100E2000370F2FEF81EE94E0215080409040E1F7A2
:100E300000C0000067E4DDCF8CEF8C0F813AD0F466
:100E40006C2F80910201909103010E9492268823C9
:100E500049F06C2F80910201909103010E94CA26F3
:100E60000E94370F6C2F80910201909103010E9424
:100E7000C826C5CF80E28C0F883048F4C77081E067
:100E800001C0880FCA95EAF70E94F80EB8CFEBE5CB
:100E9000EC0FE33040F4F0E0E75AFE4F808190E041
:100EA000CF910C945A26E8E5EC0FE73150F4F0E0CE
:100EB000EE0FFF1FE55DFE4F80819181CF910C9475
:100EC0007026C03F30F08C2F0E948815CF910C9473
:100ED0005A16CF910895882309F464C0823879F4B2
:100EE0000E94352681FF5EC069E3809102019091E6
:100EF00003010E94C8260E94370F69E310C083389F
:100F0000B1F40E94352680FF4DC063E58091020157
:100F1000909103010E94C8260E94370F63E58091DB
:100F20000201909103010E94CA260C94370F843865
:100F300079F40E94352682FF35C067E48091020172
:100F4000909103010E94C8260E94370F67E4E7CF03
:100F50009CEF980F913A10F4682FE1CF90E2980F30
:100F6000983050F4877091E001C0990F8A95EAF7A4
:100F7000892F0E94FE0ED9CF9BE5980F933020F465
:100F800080E090E00C945A2698E5980F973120F471
:100F900080E090E00C947026803F20F00E94E315E2
:100FA0000C945A1608951F93CF93DF93182FEB01DB
:100FB0000E94C106209741F08FE99FE00197F1F769
:100FC00000C000002197F6CF812FDF91CF911F91B4
:100FD0000C946B07893319F060E070E002C060E5A3
:100FE00070E00C94D307882321F00E94F80E0C9433
:100FF000370F0895882321F00E94FE0E0C94370FBE
:101000000895CF92DF92EF92FF920F931F93CF93A9
:10101000DF937C01162FC72FFC01D2810581029539
:101020000F700E94EE0E8823B9F0DD23A9F08C2FFB
:10103000807F803421F080E2810F883068F08091D9
:10104000890282FD09C082E00E94970F0E94EE0E85
:1010500091E0D82ED92601C0D12CCC2EC2948FE09D
:10106000C8228C2D90E08C30910508F09EC1FC01C7
:10107000EA5AFF4F0C94742F8C2F807FCF708823F7
:1010800011F0C295C07FDD2399F0CC2309F479C11A
:1010900080E2810F883010F0111104C08C2F0E9463
:1010A000F80E03C08C2F0E94080F0E94370F69C1F1
:1010B000812F0E946B07CC2309F477C180E2810F56
:1010C000883038F1112329F18C2F0E940E0F24C093
:1010D0008C2F807FCF70803211F0C295C07F11239A
:1010E00019F01130A1F13DC08091890282FF17C033
:1010F000DD2349F0CC2329F08C2F0E94F80E0E94AA
:10110000370F80E03FC180E00E946B07CC2309F4D9
:101110004CC18C2F0E94FE0E0E94370F46C1DD236A
:1011200071F0002341F0013031F40E94180F8C2B34
:101130000E94200F3AC10E94180F8C2B1DC0002363
:1011400019F0013009F431C10E942D0F25C0DD23B3
:1011500021F0063008F029C10EC0053008F025C185
:101160001BC0DD2361F0002331F0F701858180FF92
:1011700008C18F7085838C2F0E94F30716C100234E
:1011800059F0193309F00EC1FFEF27EE83E0F1505B
:1011900020408040E1F704C18C2F0E94FA0705C16E
:1011A0008C2F86958695837019F0813061F0FDC093
:1011B000DD2321F0812F9C2F937002C080E090E00E
:1011C0000E945A26FAC0DD2321F0812F9C2F9370B4
:1011D00002C080E090E00E947026EFC0812FDD23E6
:1011E00019F00E94881502C00E94E3150E945A1649
:1011F000E4C08C2F837079F5D111DBC0412F42956B
:1012000046954770440F440F212F2F70042E01C0C4
:10121000220F0A94EAF714FF08C08FE090E001C0A3
:10122000880F4A95EAF7809501C080E0C695C6957B
:10123000C370822BC23049F058F4C13019F00E94BB
:10124000BE0AB7C00E94B90AB4C00E94C30AB1C0A6
:101250000E94B70AAEC0DD2319F08C2F817001C047
:101260008695882309F4A5C0412F4295469547707D
:10127000440F440F212F2F70042E01C0220F0A9417
:10128000EAF714FF08C08FE090E001C0880F4A958C
:10129000EAF7809501C080E0C695C695C370822BA1
:1012A000C23049F058F4C13019F00E94020B81C0DD
:1012B0000E94FD0A7EC00E94070B7BC00E94CA0AE2
:1012C00078C0CF70DD2339F08C2F0E94DB0A812F8C
:1012D0000E94F3076EC0812F0E94FA078C2F0E9494
:1012E000E60A67C0123F21F128F4103F41F0113F98
:1012F000C1F043C0133F19F1143F79F03EC0DD2324
:1013000041F0053008F051C08C2F8F710E94F20A15
:101310004CC0063008F049C0F7CF8091890282FFA7
:1013200018C0DD2339F08C2F8F710E94DB0A3DC07D
:10133000DD23C9F38C2F8F710E94E60A36C0DD23AE
:1013400029F08C2F8F710E94D30A2FC00E94D00ADF
:101350002CC0DD2349F0CF718C2F0E94DB0A63E0A3
:101360008C2F0E947C0F21C081E00E94970F0230D9
:10137000E0F082E00E94970F18C0DD2331F00023D7
:1013800091F2812F0E94C10610C0002399F21933F7
:1013900049F49FEFE7EEF3E09150E040F040E1F7D1
:1013A00000C00000812F0E946B0788EF8C0D8430F5
:1013B00020F40E9435260E945906DD20C9F00E94C3
:1013C000EA0E80FD15C0F70112820E94E40E0E9411
:1013D000DB0AC7010E94190A0E94E40EDF91CF9137
:1013E0001F910F91FF90EF90DF90CF900C94E60A41
:1013F000DF91CF911F910F91FF90EF90DF90CF90F1
:1014000008950F931F93CF93DF93EC016881798147
:101410008A810E949C0B8C010E940C0B0E94AB0ADB
:10142000B801CE010E940108DF91CF911F910F9169
:101430000895CF93DF93EC01988189812B813C81C2
:10144000232B31F08F3F31F481E09F3F19F403C02B
:1014500081E001C080E080FD1DC0CE010E940E052C
:10146000811110C00E94EE0E8823A1F08A8188238A
:1014700089F08091890282FD0DC082E0DF91CF91D9
:101480000C94970FCE010E94010ACE01DF91CF91FB
:101490000C94C804DF91CF91089580E090E00E9401
:1014A0005A2680E090E00E9470260E94150F0E944C
:1014B000370F0E948B170C945A168091020190915D
:1014C00003010E94CC260C944D0A0E94050F0C9437
:1014D0005D0A92959F70963079F010F4925001C099
:1014E0009A50923068F4803F69F018F4883E40F4D6
:1014F00009C0843F29F406C0883E20F0813F11F0E6
:1015000080E0089581E00895FC01808191810E942E
:10151000910B0E94690A0895CF93DF9300D000D009
:101520001F92CDB7DEB70F900F900F900F900F90D6
:10153000DF91CF910895CF93DF9300D000D000D0FA
:10154000CDB7DEB726960FB6F894DEBF0FBECDBF7F
:10155000DF91CF910895089508950C94AC0A0C94EE
:10156000AD0A0E94AF0A8093EF010C944D0A0C94CF
:10157000B10A9091EF01892B0C94B10A9091EF017F
:1015800089230C94B10A9091EF0189270C94B10A38
:101590000C94AC0A0E94C80A8093EE010C944D0A88
:1015A00080E00C94CA0A91E001C0990F8A95EAF78D
:1015B000892F0C94CA0A21E030E001C0220F8A95DD
:1015C000EAF78091EE01822B0C94CA0A21E030E008
:1015D00001C0220F8A95EAF720958091EE018223BF
:1015E0000C94CA0A21E030E001C0220F8A95EAF784
:1015F0008091EE0182270C94CA0A9091EE01892B0A
:101600000C94CA0A9091EE0189230C94CA0A909115
:10161000EE0189270C94CA0A08952FE0929F800D4D
:101620001124E82FE695E695E695877051E001C014
:10163000550F8A95EAF783E0E89FF0011124E05303
:10164000FE4F20E030E070E04081CB01022E02C06E
:10165000969587950A94E2F7817081958427852372
:10166000842781932F5F3F4F2330310569F7089519
:101670002FE0929F800D1124682F669566956695E0
:10168000982F977083E0689FB001112440E050E0EC
:1016900080E0FB01E40FF51FE053FE4F208130E0B6
:1016A000092E02C0369527950A94E2F72170332758
:1016B000042E01C0220F0A94EAF7822B4F5F5F4F7E
:1016C0004330510531F70895CF92DF92FF920F9387
:1016D0001F93CF93DF936C010091EE018091EF0196
:1016E000082BC7E0D0E010E0C8010C2E02C0959591
:1016F00087950A94E2F780FD04C02197A8F7F12CA2
:1017000007C0FC2EB6018C2F0E948B120197A9F303
:101710008F2DDF91CF911F910F91FF90DF90CF9090
:101720000895CF93DF93EC010E94640BBE010E94E9
:101730008B12DF91CF9108951F93CF93DF93EB012D
:101740009091CF01992321F0CB010E94910B13C0FE
:10175000882349F0CB010E94640B182F682FCE011B
:101760000E940D0B04C0CB010E94380B182FBE0144
:10177000812F0E948B12DF91CF911F9108951F93AB
:10178000CF93DF93C091F00116E08091F101C8176B
:1017900099F0D0E01C9FF0011D9FF00D1124EE5038
:1017A000FE4F4081518162817381848195810E94C5
:1017B0009B0A2196C770E9CFDF91CF911F910895C1
:1017C00040912202509123026091240270912502DF
:1017D00080912602909127020C949B0AEF92FF922F
:1017E0000F931F93CF93DF938091270282958F7081
:1017F00009F065C080912402882309F460C08091BB
:10180000F001F090F1011091220200912302609109
:1018100025027091260291E01F3F09F090E0C091EF
:101820000001D0910101292F96E0E92E8F1509F4CE
:1018300046C06115710521F00F3F21F030E003C073
:1018400031E001C0322F90E030FD36C0E89EF0015B
:10185000E99EF00D1124DF01AE50BE4F11963C9170
:101860001197301329C03C91311326C012963C9138
:101870001297311121C013964D915C911497461B1C
:10188000570B4C175D07C0F4809127028F70806161
:1018900080932702E950FE4F80818F7080618083A2
:1018A00082E292E00E94190ADF91CF911F910F917D
:1018B000FF90EF900C94BF0B01968770B7CFDF912C
:1018C000CF911F910F91FF90EF9008959F92AF924B
:1018D000BF92CF92DF92EF92FF920F931F93CF931D
:1018E000DF93CDB7DEB761970FB6F894DEBF0FBEBA
:1018F000CDBF8C0185E0F801DE011D9601900D92AF
:101900008A95E1F7D8011296EC9090912202E0912D
:10191000230220912502309126022115310531F054
:10192000EF3F31F481E09F3F19F403C081E001C033
:1019300080E0B82FB1709B2E80FD47C1D8014C913B
:1019400011965C9111971396AD90BC90149782E21A
:10195000C82E82E0D82EF0902402B501621B730BD2
:101960002091000130910101FF2009F4D9C080913C
:1019700027026217730708F095C0282F207F09F00F
:1019800052C05E1313C0491311C0FE2CE1100EC0EB
:101990008F708061809327020E94E00BC6010E9435
:1019A000190A80912702F80185834DC1AB2831F0D7
:1019B0005F3F31F481E04F3F19F403C081E001C083
:1019C00080E080FD03C081E08E2502C080E090E0D1
:1019D000F82FF170FF2E80FF1CC08091F001209144
:1019E000F10136E0821709F40BC190E0389FF00155
:1019F000399FF00D1124EE50FE4F6181561306C041
:101A00006081461303C06281E61203C001968770AD
:101A1000E9CFFE2CEE2009F416C1809127028160E7
:101A20008093270254C05E1306C0491304C0E1101E
:101A300002C0F80199C0C8010E94840A882361F19C
:101A4000EE2051F120912702822F82958F7090E035
:101A5000029774F0809122029091230298878F83DD
:101A60001986BB86AA862C87CE0107960E94190A82
:101A700086E0F801A2E2B2E001900D928A95E1F7CA
:101A80000E94EE0B0E94E00B0AC05E1711F1C80124
:101A90000E94840A81112CC0C8010E94190AFF24E7
:101AA000F394D1C0282F207F81F77A2DB98AA88A94
:101AB0006E2D89890E948C0A82E292E00E94190AA6
:101AC00086E0D6011D928A95E9F70E94E00BF12C81
:101AD000BAC04913DCCFE110DACFF8018583C80121
:101AE0000E94190A86E0D6011D928A95E9F7ABC0DB
:101AF000EE2091F220912702822F82958F7090E044
:101B000002970CF4B5CF80912202909123029A8320
:101B100089831B82BD82AC822E83CE010196A6CF23
:101B20006217730708F044C0FE2CEE2009F4B4CF0E
:101B30005E1330C049132EC02091270220FD21C022
:101B4000822F82958F70482F50E041155105C9F0C2
:101B5000F80125834F30510541F08F5F982F929502
:101B6000907F822F8F70892B8583C8010E94190A6C
:101B700086E0F801A2E2B2E001900D928A95E1F7C9
:101B80003CC086E0F801A2E2B2E001900D928A9595
:101B9000E1F759C0C8010E94840A811169CF809180
:101BA0002702816080932702C8010E94190A4BC056
:101BB0007A2DB98AA88A6E2D89890E948C0A86E0BE
:101BC000D6011D928A95E9F718C0EE2009F464CF7A
:101BD000C8010E94840AF82E882309F45DCF86E0AC
:101BE000F801A2E2B2E001900D928A95E1F782E25B
:101BF00092E00E94BB060E94EE0B0E94E00B23C005
:101C00004D875E878D859E850E94910B292F229599
:101C10002F70223028F49F7039F0811105C00BC05D
:101C2000243028F49F7049F4805E883020F0C80189
:101C30000E94190A9F2CF92C06C0D80115969C9178
:101C4000907F91F7F8CF8F2D61960FB6F894DEBF95
:101C50000FBECDBFDF91CF911F910F91FF90EF90FD
:101C6000DF90CF90BF90AF909F9008951F93CF9338
:101C7000DF93CDB7DEB72C970FB6F894DEBF0FBE5B
:101C8000CDBF4F83588769877A878B879C87CE0122
:101C900007960E94660C8823D1F09F8188852A854B
:101CA0003B85232B31F08F3F31F481E09F3F19F4C6
:101CB00003C081E001C080E080FD47C04F815885AE
:101CC00069857A858B859C850E949B0A3EC086E04B
:101CD000FE013796DE01119601900D928A95E1F78B
:101CE000FF81E8856A857B856115710531F0EF3FDD
:101CF00031F481E0FF3F19F403C081E001C080E0CE
:101D000080FD23C02091F10130E0C9010196877068
:101D100099274091F00150E084179507F1F1F9837C
:101D2000EA837D836C8396E0929FD001939FB00DF0
:101D30001124AE50BE4FFE01319601900D929A953E
:101D4000E1F78093F1010E94BF0B16E08091F00152
:101D50009091F101891771F1189FC00111248E50E3
:101D60009E4F0E94660C882329F1E091F0011E9F8E
:101D7000F0011124EE50FE4F408151816281738148
:101D8000848195810E949B0A8091F00190E00196E8
:101D9000877099278093F001D9CF0E94650A10922D
:101DA000F1011092F001E2E2F2E086E0DF011D9223
:101DB0008A95E9F72C960FB6F894DEBF0FBECDBF1B
:101DC000DF91CF911F91089580913002859585957F
:101DD0008595089580913002877008959091300222
:101DE000977081E009F480E0089580913B020895A6
:101DF00090913B02892B80933B02089580959091AE
:101E00003B02892380933B02089510923B02089580
:101E100090913A02892B80933A020895809590918F
:101E20003A02892380933A02089510923A02089563
:101E300080913102089508950C941B0F0C941C0F8F
:101E40009091890292FD08C090913102981721F07B
:101E5000809331020C941E0F0895809131028823E3
:101E600029F01092310280E00C941E0F0895CF9358
:101E7000DF93E0910201F091030180913B028083A6
:101E8000E0910201F0910301908180913A02892B47
:101E9000808380913102882381F0E0910201F091EA
:101EA00003019081892B808380910201909103012D
:101EB0000E94862681110E942D0FC0910201D091AF
:101EC000030148E050E068E272E0CE010E94A82FD2
:101ED000892B69F088E0FE01A8E2B2E001900D9242
:101EE0008A95E1F7CE01DF91CF910C944126DF91E5
:101EF000CF9108950C941B0F9091890292FD10C010
:101F000098E0899F90011124262B209330020E9493
:101F1000DB0A809130028595859585950C947A0F22
:101F20000C94DB0A1092300280E00C947A0F20911E
:101F300030028095822380933002982F977099F415
:101F400030E0482F082E000C550B2417350759F0A8
:101F50009091890292FD07C08595859585950E948F
:101F6000E60A0C94920F08959091890292FB222721
:101F700020F9281769F080FB92F9909389028091EB
:101F80008802909189020E94021082E00C94970FBF
:101F900008958091890282FB882780F991E0892742
:101FA0000C94B40F81E00C94B40F80E00C94B40F47
:101FB0006FEF7FEF80E090E00C94E72F80E090E0FF
:101FC0000E94C32F893E9E4F11F40C94712080E033
:101FD000089582E090E00C94B52F83E090E00C949B
:101FE000B52FCF9384E090E00E94B52FC82F82E2F6
:101FF00090E00E94B52F2C2F30E0A901582BCA0188
:10200000CF910895CF93C92F682F84E090E00E946C
:10201000C92F6C2F82E290E0CF910C94C92FAB01B5
:10202000BC018FE090E00C94DB2FAB01BC0183E19D
:1020300090E00C94DB2F60E070E0CB010C94151065
:1020400069EE7EEF80E090E00E94E72F60E082E0A2
:1020500090E00E94C92F60E083E090E00E94C92FC9
:102060001092EF0160E084E090E00E94C92F60E0F0
:1020700082E290E00E94C92F60E085E090E00E943B
:10208000C92F60E086E090E00E94C92F6FEF87E0E3
:1020900090E00E94C92F40E050E0BA0188E090E053
:1020A0000E94DB2F60E08DE090E00E94C92F40E0AD
:1020B00050E0BA0188E190E00E94DB2F60E087E108
:1020C00090E00E94C92F40E050E0BA018CE190E01E
:1020D0000E94DB2F60E070E080E290E00E94E72F3A
:1020E00040E050E0BA0188E190E00E94DB2F80E000
:1020F0000E948A200E94BD200C9470040C94201031
:10210000682F8EE090E00C94C92F0E942E276093D8
:102110004A0270934B0280934C0290934D0260935D
:1021200046027093470280934802909349020895B3
:1021300085B7806885BF85B7806885BF089581E0D1
:1021400008950C949F1008950C94A3100C94A31060
:102150000C94A6100C94A3100C94AA100C94A31029
:102160000E94981087E693E10E942B260E94AE10F1
:102170000C94AC100E94A4100C94A3100E94811324
:102180000E9458060C9430200E9419270E94CC20EF
:102190000E945C140E94BE100E94CE1D0E94A61BCD
:1021A0000E942F1D0C94A8105F926F927F928F92C5
:1021B0009F92AF92BF92CF92DF92EF92FF920F93D6
:1021C0001F93CF93DF93CDB7DEB72A970FB6F8945E
:1021D000DEBF0FBECDBF0E947114C82E81110E94B8
:1021E00085103CE3832E32E0932E00E010E0502E69
:1021F000802F0E949B135C01F401619071904F014C
:102200006826792661147104B1F40F5F1F4F053001
:10221000110569F78FEF89838A831B820E94222729
:102220008160782F9D838C8349815A816B818D8158
:102230000E9471063AC080914E0281FD0E94A41353
:10224000D12CEE24E394F12CC3018E219F21892B04
:1022500029F10E94A1108823A9F0DE825F82AE20BE
:10226000BF2081E0AB2809F480E088870E94222704
:102270008160782F9A8789874E815F8168858A85FA
:102280000E947106000F111FF801E45CFD4F808170
:102290009181E826F926F182E08207C0D394EE0C02
:1022A000FF1CFFE0DF12D0CFB0CF81E0C11001C032
:1022B00080E02A960FB6F894DEBF0FBECDBFDF9147
:1022C000CF911F910F91FF90EF90DF90CF90BF9033
:1022D000AF909F908F907F906F905F9008950E9435
:1022E000D4100E94EA1B0E94941F0E9478160C943E
:1022F0006606CF93DF930E949012EC01811521E5D1
:10230000920708F045C0811530E5930708F094C0A6
:10231000883E910528F5803E910508F0F8C0883A7E
:10232000910570F4853A910508F07CC081309105E3
:1023300009F475C008F4E8C0049708F0E8C0E4C0E8
:102340008F3B910508F0E0C0C85AD0E0CC0FDD1FEC
:10235000C45ADE4F0990D881C02DCE019464D8C0F4
:10236000811540E2940758F4811551E0950708F073
:10237000CEC0803F910508F4C7C09065C9C0C115A3
:1023800080E4D80708F4C0C0DF70CE01906AC0C0F6
:10239000811525E59207A8F4811534E5930708F027
:1023A00095C0811543E5940708F07BC0811552E57F
:1023B000950708F061C0D82FCC27CE01816F906AB5
:1023C000A7C0C11589E5D807A0F4C11528E5D20733
:1023D00008F082C0C11536E5D30708F095C08C2FF0
:1023E0000E9424138F7190E0D82FCC27CE019062E9
:1023F0008FC0C1154AE5D40708F474C0CE019056C9
:102400008115904208F080C08D2F8F710E94241397
:10241000DD27D0628F71AE01582BCA0179C081E0EF
:1024200090E076C0C55AD0E0C657DE4F8881C82FED
:10243000D0E0CE0190646CC074E0969587957A9553
:10244000E1F7282F23703C2F337081E090E002C029
:10245000880F991F3A95E2F79C68AC01522B9A01BC
:102460009C2F9F709695969550E2959FE0011124C0
:10247000C9018C2B9D2B4CC08370992721E030E043
:1024800002C0220F331F8A95E2F79C2F96959695EE
:1024900080E2989FE0011124C22BD32BCE019C68CF
:1024A00037C08370992721E030E002C0220F331F2C
:1024B0008A95E2F79C2F9695969540E2949FE001CD
:1024C0001124C22BD32BCE019A6822C0D82FCC273F
:1024D000CE01846F906A1CC0DC2FCC27CE01806FA8
:1024E000906A16C08C2F8F700E94241394E0D695AA
:1024F000C7959A95E1F7CF70D0E0DC2FCC27D06953
:102500009E01282BC90104C080E090E001C0CE01EB
:10251000DF91CF9108950E9473240E94791108954C
:102520008238910569F1B0F48133910509F46DC0E9
:1025300048F48932910509F463C08A32910509F49F
:1025400069C008958533910509F455C08933910513
:10255000B9F00895833E910569F138F4803E910504
:10256000B1F0823E910509F10895863E9105A9F1E9
:10257000873E9105B9F1843E910509F064C023C0FE
:102580002091880220FD4FC021FD4DC0089580910B
:10259000880280FD44C08091890280FF44C0809100
:1025A000880284FD42C083EE4DC08091880282FF84
:1025B00038C0F5CF8091880282FD33C080918902B6
:1025C00080FD31C0ECCF8091890281FF32C08091C3
:1025D000880284FD2AC087EE35C08091880283FF7F
:1025E00026C0F5CF8091880283FD21C080918902A9
:1025F00081FD1FC0ECCF8091880285FD1CC01DC0ED
:102600008091880285FD19C016C08091880286FDE0
:1026100016C017C08091880286FD13C010C089E3E0
:1026200011C082EE0FC080EE0DC080E00BC086EEC0
:1026300009C084EE07C089E205C085E303C08AE2D1
:1026400001C081E390E008959091880292FF0DC04F
:10265000282F2871283019F4877F846006C0282F1E
:102660002471243011F48B7F886093FF0DC0282FD4
:102670002871283119F4877E846106C0282F2471BF
:10268000243111F48B7E88612091890220FF0DC0D6
:10269000382F3871383019F4877F816006C0382FA1
:1026A0003171313011F48E7F886021FF0DC0282FE9
:1026B0002871283119F4877E816106C0282F217185
:1026C000213111F48E7E886194FD877E089580E02B
:1026D00008950C94D80F0E9471148FE39CE9019720
:1026E000F1F700C000000E94711480E00E949B136B
:1026F00080FF04C00E9469130C946F2708950C9406
:102700006B130E94DE0F811102C00E947E100E9496
:10271000E90F80934E020E94F10F909389028093FB
:1027200088020E947F130E94ED0F0E94B70A8091D9
:10273000EE010C94C80AE82FF0E0EE0FFF1FEC56F4
:10274000FD4F808191810895089580EA8A95F1F77F
:10275000089500C008950C94A51308950C94AD132A
:102760000C94AE130C94AD130C94B213F894E82FA0
:10277000E295EF70F0E031A1282F2F7081E090E01A
:1027800001C0880F2A95EAF7982F9095932391A37B
:1027900092A1892B82A3789408950F931F93CF93CE
:1027A000DF93CCE9D1E089918F3F11F00E94B613FD
:1027B00081E0C13AD807B9F7CDE8D1E00CE911E0E2
:1027C00089918F3F11F00E94B6130C171D07C1F7B6
:1027D000DF91CF911F910F910895BF92CF92DF9219
:1027E000EF92FF920F931F93CF93DF938C01C62F2D
:1027F000D0E0CE0184569E4F6C01FC0190819F3F3A
:1028000009F450C0B62EF894E92FE295EF70F0E08D
:1028100081A19F7021E030E001C0220F9A95EAF774
:10282000822B81A382A12095282322A378940E9441
:10283000A913EDE8F1E04CE951E021E030E0E12CB2
:10284000F12C61916F3F89F0A62FA295AF70B0E097
:1028500090968C9190E06F7002C0959587956A95DF
:10286000E2F780FD02C0C90102C080E090E0E82AE2
:10287000F92A220F331F4E175F0719F7F6018081DF
:102880008F3F11F00E94B61361E0E114F10409F4E6
:1028900060E08B2D0E94AB13CC0FDD1FC00FD11F4A
:1028A000F982E882DF91CF911F910F91FF90EF9015
:1028B000DF90CF90BF9008950E94CD138AE0E4E9A5
:1028C000F2E0DF01982F1D929A95E9F7EAE8F2E02D
:1028D000DF011D928A95E9F785E00E94BC140C94F3
:1028E000FA04FF920F931F93CF93DF93CDB7DEB718
:1028F0002A970FB6F894DEBF0FBECDBF8E010F5FD3
:102900001F4F8AE0F80111928A95E9F7F12C6F2D9B
:10291000C8010E94ED13F394F5E0FF12F8CF4AE0EE
:1029200050E0B8018AE892E00E94A82FFF24F394B7
:10293000009709F4F12C892B41F08AE0F801AAE80C
:10294000B2E001900D928A95E1F72F2D45E064E900
:1029500072E08AE892E00E94BD140E94FC048F2D70
:102960002A960FB6F894DEBF0FBECDBFDF91CF9190
:102970001F910F91FF9008950895FF920F931F9359
:10298000CF93DF93F82E092F162FD72FC42F222392
:1029900049F081E0809351020E94222790935002D7
:1029A00080934F02809151028823D9F080914F0289
:1029B000909150020E943A27059798F0EF2DF02F42
:1029C000A12FBD2F80E090E04C2F50E08417950799
:1029D00034F4219131912D933D930196F7CF1092CC
:1029E0005102DF91CF911F910F91FF9008950E94A6
:1029F00060290E94C4100C946C290E9470290E94C6
:102A00006F110C948A290E940D270E9447290E9469
:102A1000B0100E94F7140E94FD140E94BA10FBCF60
:102A20008091580280FF06C06091090170E0660F36
:102A3000771F26C081FF04C06091090184E005C0B2
:102A400082FF07C06091090188E0689FB0011124EE
:102A500017C0909157029923D1F060910801961701
:102A600088F72091090188E0289F90011124929F06
:102A7000A001939F500D112470E0CA010E943E2FC7
:102A80006038710540F46115710519F406C068E0FD
:102A900070E0862F08958FE7089581E00895809172
:102AA000580280FF08C06091050170E07595679538
:102AB0007595679521C081FF06C06091050170E0A2
:102AC0007595679519C082FF04C06091050170E09B
:102AD00010C090915602992399F0609104019617C5
:102AE000A0F780910501899FC001112470E00E9428
:102AF0003E2F6038710540F46115710519F406C068
:102B000061E070E0862F08958FE7089581E00895D1
:102B1000803F21F40E941015819504C0813F29F463
:102B20000E94101580935C020895823F21F40E9458
:102B30001015819504C0833F29F40E9410158093DD
:102B40005B020895893F19F40E944F1505C08A3F22
:102B500031F40E944F15819580935D0208958B3F5B
:102B600021F40E944F15819504C08C3F29F40E94E6
:102B70004F1580935E0208959CE0980F953078F48D
:102B800021E030E0A90102C0440F551F9A95E2F7F9
:102B9000CA0190915A02892B80935A0208958D3F61
:102BA00021F48091580281600BC08E3F21F4809106
:102BB0005802826005C08F3F29F4809158028460DA
:102BC000809358020895803F39F490915C0297FFFA
:102BD00035C010925C0259C0813F29F490915C028B
:102BE0001916BCF32BC090915B02823F29F497FF2A
:102BF00025C010925B0249C0833F19F41916CCF32B
:102C00001DC090915D02893F29F41916BCF4109201
:102C10005D023BC08A3F19F497FF10C0F8CF8B3F8D
:102C200039F490915E0297FF09C010925E022DC0A8
:102C30008C3F21F490915E021916BCF39CE0980F32
:102C4000953080F421E030E0A90102C0440F551F07
:102C50009A95E2F7CA01809590915A028923809350
:102C60005A0213C08D3F21F4809158028E7F0BC011
:102C70008E3F21F4809158028D7F05C08F3F29F44B
:102C8000809158028B7F8093580280915B02811162
:102C900006C080915C02811102C01092570280919F
:102CA0005D02811106C080915E02811102C0109206
:102CB000560208950E94222720915B02211104C030
:102CC00020915C02222321F09093550280935402BC
:102CD00020915D02211104C020915E02222321F087
:102CE000909353028093520289E592E00C944C2613
:102CF000EF92FF920F931F93CF93DF9300D000D0FA
:102D000000D0CDB7DEB786E0E9E5F2E0DE0111964E
:102D100001900D928A95E1F7E0905B02F0905C02E1
:102D200000915D0210915E0210925B0210925C02B3
:102D300010925D0210925E02E11003C0FF2009F4C0
:102D40005DC080915402909155020E943A27AC01D7
:102D500090915702992339F020910A0130E024170D
:102D6000350758F04BC020910B018AE0289F900155
:102D700011242417350718F041C09F3F19F09F5FB9
:102D800090935702EE2061F00E9410151E1414F06B
:102D90009FEF01C091E0989F902D112490935B02CA
:102DA000FF2061F00E9410151F1414F09FEF01C066
:102DB00091E0989F902D112490935C0230915B02DA
:102DC0003323E1F020915C022223C1F045EB340370
:102DD000C0011124992319F090935B0203C081E094
:102DE00080935B0235EB2303C0011124992319F072
:102DF00090935C0203C081E080935C02011103C0E8
:102E0000112309F45DC080915202909153020E94F7
:102E10003A27AC0190915602992339F0209106018E
:102E200030E02417350758F04BC0209107018AE0A5
:102E3000289F900111242417350718F041C09F3FA7
:102E400019F09F5F90935602002361F00E944F1586
:102E5000101614F09FEF01C091E0989F902D11245F
:102E600090935D02112361F00E944F15111614F02A
:102E70009FEF01C091E0989F902D112490935E02E6
:102E800030915D023323E1F020915E022223C1F0F4
:102E900045EB3403C0011124992319F090935D028E
:102EA00003C081E080935D0235EB2303C001112450
:102EB000992319F090935E0203C081E080935E0233
:102EC00080915B0281110BC080915C02811107C06F
:102ED00080915D02811103C080915E0281110E9488
:102EE0005A16EB82FC820D831E8386E0FE0131962A
:102EF000A9E5B2E001900D928A95E1F726960FB60A
:102F0000F894DEBF0FBECDBFDF91CF911F910F911F
:102F1000FF90EF900895E9E5F2E086E0DF011D9271
:102F20008A95E9F7109257021092560210925802B1
:102F30000895EF92FF920F931F93CF93DF938B012E
:102F4000682F11110AC0442329F0E82FF0E0EB515B
:102F5000FA4F6491762F862F75C0212F30E0E82F2D
:102F6000F0E0442321F0EB51FA4FE491F0E046E029
:102F7000049FC0011124CFEFD0E0BE010E942A2F90
:102F80004BEA4603C001479F900D1124800F911D0D
:102F9000800F911D982F990F890FAE01421B530B83
:102FA0004E9FD0014F9FB00D5E9FB00D11249B2FFF
:102FB000189FA0011124452F55278E01041B150BC6
:102FC0000E9FA0010F9F500D1E9F500D11247E01DA
:102FD000E81AF108E29E8001E39E100DF29E100DAA
:102FE0001124212F3327C21BD30BCE9F9001CF9FDB
:102FF000300DDE9F300D112462307105A9F048F4C8
:103000006115710569F061307105C9F48B2F752F59
:103010000DC06430710581F058F06630710579F4A7
:103020007E2F8B2F932F0DC0832F7B2F9E2F09C0B8
:103030008E2F7B2F952F05C08E2F732F02C07E2FD2
:10304000852F692FDF91CF911F910F91FF90EF9006
:10305000089541E00E949917089508950E94291843
:103060000895CF93DF93762FE901682F842F0E9474
:103070002E18798368838A83DF91CF910895809198
:103080009E02282F269530E02115310519F4817014
:10309000826005C02B31310524F0817084638093F8
:1030A0009E02089588E090E00C94BD2FCF92DF92AD
:1030B000EF92FF926B017C010E943F18B701A601BD
:1030C00088E090E0FF90EF90DF90CF900C94DB2FA2
:1030D00060919E0270919F028091A0029091A10246
:1030E0000C945618EEE9F2E083E0808311828FEFB2
:1030F00082838383148260817181828193810C94A5
:10310000561880919E0280FF02C08695089580E047
:1031100008959091A202933018F49F5F9093A202B9
:10312000882351F060919E0270919F028091A002CD
:103130009091A1020C945618089581E00C9489187E
:103140009091A202992319F091509093A2028823A2
:1031500051F060919E0270919F028091A002909127
:10316000A1020C945618089581E00C94A018809147
:10317000A20208958093A202662351F060919E02FC
:1031800070919F028091A0029091A1020C94561818
:10319000089560E00C94BA1880919F020895809180
:1031A000A00208958091A102089570E00C94462039
:1031B00060910D0180919E0280FF0AC080910C01F8
:1031C00023E0829FC00111248D559D4F0C94D5188A
:1031D00080910E0190910F01891780F7E82FF0E0A0
:1031E0009F01220F331FE20FF31FED55FD4F118298
:1031F000108212828F5FF0CF90919E0290FF16C0D6
:1032000090910E0120910F01921770F4E92FF0E0D8
:10321000DF01AA0FBB1FEA0FFB1FED55FD4F818396
:10322000608342839F5FF0CF0C94D8180895CF93AA
:10323000DF9300D01F92CDB7DEB790919E0290FF32
:103240000AC09E012F5F3F4F0E9431184B81698158
:103250008A810E94FC180F900F900F90DF91CF9100
:103260000895CF93DF93EC01EC81F0E0E05EFB4F3B
:103270004491EEE9F2E0628181810E9417198C810C
:103280008F5F8C83DF91CF910895CF93DF93EC0113
:10329000EEE9F2E0438162818C810E9417198C81F2
:1032A0008F5F8C83DF91CF9108950F931F93CF93FE
:1032B000DF9300D01F92CDB7DEB78C0180915F0203
:1032C00081110AC09E012F5F3F4F4FEF6FEF0E94A9
:1032D00031188A8180935F02F8018481813051F036
:1032E00028F0823061F440915F020AC080915F0251
:1032F00040E007C060915F0240E080E003C040E032
:1033000080E060E00E94FC18F801848190E0019662
:1033100063E070E00E943E2F84830F900F900F9027
:10332000DF91CF911F910F910895AF92BF92CF92ED
:10333000DF92EF92FF920F931F93CF93DF9300D012
:103340001F92CDB7DEB7182FF62E042FE22E9091E4
:103350009E0290FF6DC0E92FE695AE2FB0E0AF550D
:10336000BE4F8C91809369029E7F923061F49E01E2
:103370002F5F3F4F812F0E9431184B8169818A81D5
:103380000E94FC1843C0823019F40091A1023EC093
:10339000863019F410919F0239C08930D9F38F30EB
:1033A000A9F5EF508E2F8170D82EE695F0E0E05E03
:1033B000FA4FA590B490C12CBB2460911001C616A1
:1033C00018F52C2D30E0A29EC001A39E900DB29E58
:1033D000900D112470E00E942A2F812FD11002C07D
:1033E000860F01C0861B90910E01290F311DA90186
:1033F000440F551F240F351F2D553D4F402F6F2D66
:103400000E943118C394D9CF0E94D81810939F02FC
:10341000F092A0020093A102EE2051F060919E0272
:1034200070919F028091A0029091A1020E94561873
:103430000F900F900F90DF91CF911F910F91FF9000
:10344000EF90DF90CF90BF90AF900895EEE9F2E05B
:103450009181282F4381628188E0890F0C9495190E
:1034600081E00C94261AEEE9F2E09181282F438145
:10347000628188EF890F0C94951981E00C94331ABE
:10348000EEE9F2E0628128E0620F08F46FEF282F86
:10349000438181810C94951981E00C94401AEEE9E6
:1034A000F2E0628128E0621B08F460E0282F43818B
:1034B00081810C94951981E00C944F1AEEE9F2E0A9
:1034C000438128E0420F08F44FEF282F6281818169
:1034D0000C94951981E00C945E1AEEE9F2E04381B8
:1034E00028E0421B08F440E0282F628181810C947F
:1034F000951981E00C946D1A21E00C94951920E047
:103500000C949519FF920F931F93CF93DF93EC01C7
:10351000F12C0FEF10E060911001F616F0F480919D
:103520000E012F2D30E0280F311DC901880F991F82
:10353000280F391F2D553D4F70E0C8010E943E2FC6
:10354000962F8C814091A1026091A002F99E800D7E
:1035500011240E943118F394DECF0E94D8189A816A
:103560008C8190FF02C08F5F01C081508C83DF91FE
:10357000CF911F910F91FF9008950F931F93CF93B9
:10358000DF93EC0100E010E080911001282F30E083
:103590000217130724F590910E019801290F311D90
:1035A000A901440F551F240F351F2D553D4F8695FA
:1035B00090E04C81081719071CF4442331F002C035
:1035C000411103C04091A10201C040E06091A002FE
:1035D00080919F020E9431180F5F1F4FD5CF0E942C
:1035E000D8188C8190E00196817099278C83DF91A7
:1035F000CF911F910F910895EEE9F2E080818E7FC7
:10360000808360817181828193810E94561810921B
:103610006A022FEF80E792E0215080409040E1F76E
:1036200000C000000C94D818EEE9F2E080818E7F93
:10363000808310926A022FEF80E792E02150804051
:103640009040E1F700C000000C94D81860919E02F1
:10365000669570E04BE050E081E191E00E949B2F85
:10366000892B19F481E080936A020E9422279093AB
:10367000610280936002089590919E0290FF35C090
:103680009170811102C0926006C08B3110F094637A
:1036900002C0880F982B90939E02662351F0609190
:1036A0009E0270919F028091A0029091A1020E94BF
:1036B000561860919E02669570E04BE050E081E103
:1036C00091E00E949B2F892B19F010926A0202C090
:1036D0000E94261B81E0809363024091A1026091C9
:1036E000A00280919F020C947F1A0895682F9091F8
:1036F0009E02969581E0890F8B3108F081E00C9451
:103700003C1B81E00C94761B682F90919E0296954D
:103710008FEF890F09F48AE10C943C1B81E00C9433
:10372000841B61E00C943C1BEEE9F2E08081816037
:10373000808386950C94911B80919E0280FD0C9451
:10374000FC1A0C94941B60E00C943C1B8091680262
:1037500081112EC00E94DE0F811104C00E947E10D4
:103760000E9472180E94521860939E0270939F02EA
:103770008093A0029093A1026E7F61F40E94721860
:103780000E94521860939E0270939F028093A00241
:103790009093A1020E943F1810926A0280919E02AB
:1037A00080FF03C086950E94A31B81E0809368027E
:1037B0000895EEE9F2E080818160808386950C9423
:1037C000A31B109267028091660281110E94D91B8F
:1037D0000C94261B0F931F93CF93DF9380916A0263
:1037E000882309F467C080916902E0919E02E69502
:1037F000E81BE0936202823049F4F0E0E45EFB4FA4
:10380000E491CE2FD0E001E319E12BC0863049F4DA
:10381000F0E0E75EFB4FE491CE2FD0E005E419E144
:1038200020C0893051F4E695F0E0EA5EFB4FE49168
:10383000CE2FD0E002E81AE114C0893139F4E4E176
:10384000F4E0C591D49105E519E10BC08A3129F462
:10385000C4EFD1E00DEB1AE104C0C0EDD7E00DE2FA
:1038600018E180916302882361F0109263020E9444
:103870002227909361028093600210926502109259
:1038800064020E942227E0916002F09161028E1B87
:103890009F0B8F3F9F4770F4CE0FDF1FD0936102C5
:1038A000C093600280E692E0F801DF91CF911F9112
:1038B0000F910994DF91CF911F910F910895882363
:1038C00011F0FA0101C0FB010994CF93DF93C82FD7
:1038D000D62F0E9481188C1740F00E9481188D17F6
:1038E00020F4DF91CF910C94811B8C2FDF91CF912D
:1038F0000C94911B1F93CF93DF93FB011281111145
:10390000A9C0EC010E94F50E8272CB3CFCE5DF07FA
:1039100009F483C060F5C63CECE5DE0709F464C039
:10392000A8F4C33C9CE5D90709F44DC028F4C23C77
:10393000DC4509F445C042C0C43C9CE5D90709F404
:1039400047C0C53CDC4509F44AC038C0C83CFCE56A
:10395000DF0709F453C008F44CC0C93CECE5DE07AE
:1039600009F451C0CA3CDC4509F452C027C0C03D2F
:103970009CE5D90709F463C088F4CD3CFCE5DF077A
:1039800009F455C008F44EC0CE3CECE5DE0709F45E
:1039900050C0CF3CDC4509F44FC010C0C43D8CE59D
:1039A000D80709F44FC008F455C0C53DECE5DE0763
:1039B00009F44DC0CD35DD4509F44CC011E04AC0D5
:1039C0000E949C1B47C04EE85BE161E87BE104C0BC
:1039D00041E85BE16EE87BE10E945F1C3BC04DE388
:1039E0005AE160E37AE1F8CF40E35AE16DE37AE12E
:1039F000F3CF4BE55AE16CE47AE1EECF4CE45AE1C7
:103A00006BE57AE1E9CF49E75AE16AE67AE1E4CF8A
:103A10004AE65AE169E77AE1DFCF44EB58E16DE924
:103A200078E1DACF4DE958E164EB78E1D5CF81E078
:103A30000FC065E082E008C068E086E005C06EE087
:103A400089E002C068E18FE00E94651C03C089E143
:103A50000E94911B812FDF91CF911F910895E1E882
:103A6000F0E08081886080838081816080838FB76F
:103A7000F89420ED33E030938900209388008FBFC5
:103A80000895EFE6F0E08081826080830895EFE69C
:103A9000F0E080818D7F808308951F920F920FB692
:103AA0000F9211242F933F934F935F936F937F93C4
:103AB0008F939F93AF93BF93EF93FF9380916B028C
:103AC00090916C02019690936C0280936B0281112D
:103AD00003C082E00E945906E0916C02E695E695EB
:103AE000F0E0EB5DFA4FE49180916B028E1303C01E
:103AF00080E00E945906FF91EF91BF91AF919F9195
:103B00008F917F916F915F914F913F912F910F9086
:103B10000FBE0F901F90189586E090E00C94B52F83
:103B2000682F86E090E00C94C92F8091D3020C940A
:103B3000901D8091D302847089618093D3020C948C
:103B4000901D8091D30286958695869508958091E3
:103B5000D30281FD07C082608093D3020E94901D32
:103B60000C94951F08958091D30281FF07C08D7F2B
:103B70008093D3020E94901D0C94A11F0895809100
:103B8000D30281FD0C94B31D0C94A71D8091D30228
:103B900086958170089580911C0108950E94DE0F22
:103BA000811104C00E947E100E94991D0E948C1DEC
:103BB0008093D302282F26952695269530E0243031
:103BC000310524F0877088618093D3028091D302FD
:103BD00080FF04C086958695869501C080E00C9490
:103BE000621F2091D302822F869586958695482F55
:103BF00050E04330510554F48F5F982F990F990F7F
:103C0000990F822F8770892B8093D3028091D302E2
:103C100081608093D3020E94901D8091D30286958B
:103C2000869586950C94621F8091D302982F969565
:103C300096959695A1F0915E990F990F990F8770BF
:103C4000892B8093D302887F91E009F490E08091E2
:103C5000D30290FB80F98093D3020E94901D809143
:103C6000D3028695869586950C94621F8091D30227
:103C700080FD13C081608093D302813019F489E004
:103C80008093D3028091D3020E94901D8091D30231
:103C90008695869586950C94621F08958091D3022F
:103CA00080FF08C08E7F8093D3020E94901D80E029
:103CB0000C94621F08958091D30280FD0C944E1ED7
:103CC0000C94361E9091D302892F86958695869501
:103CD0008F5F8F719770843038F4880F880F880F4A
:103CE000892B8093D30202C09093D3028091D30298
:103CF000887F91E009F490E08091D30290FB80F9F5
:103D00008093D3020E94901D8091D3028695869560
:103D100086950C94621F843008F083E09091D30262
:103D20009770282F220F220F220F922B9093D302ED
:103D3000987F21E009F420E09091D30220FB90F9D4
:103D40009093D3020C94621F0E948B1E8091D30229
:103D50000C94901DFC01DB0112968C918823F9F0E4
:103D6000EB5BFC45E730F105D8F4EE59FF4F0C94BE
:103D7000742F83E001C080E00E94A41E80E00895BB
:103D80000E94141EFBCF0E94F11DF8CF0E945B1E03
:103D9000F5CF0E94621EF2CF0E94BF1DEFCF81E0DF
:103DA0000895279A2F9808952F9808958F929F929B
:103DB000AF92BF92CF92DF92EF92FF920F931F9339
:103DC000CF93DF938C0180918600909187006CE007
:103DD00070E00E942A2F6017710730F0C80169E077
:103DE00070E00E942A2F60C0809186009091870029
:103DF000E0908600F0908700E0918600F0918700C7
:103E0000C6E0D0E0BE010E942A2F20E030E0060F7D
:103E1000171F211D311D4801590185E0880C991C8F
:103E2000AA1CBB1C8A95D1F7C701BE010E942A2F8C
:103E30006F01E12CF12CA7019601260F371F411DC0
:103E4000511DC501B4010E94522F69017A01E09110
:103E50008600F0918700CA01B9010E941A2F9B01C8
:103E6000AC01DF010E94902F9B01AC01C701B6019C
:103E70000E941A2FDC01CB012FE0B695A7959795EC
:103E800087952A95D1F7009186001091870020E050
:103E900030E0081719072A073B0728F460918600CD
:103EA00070918700CB01BC01CB01DF91CF911F91B5
:103EB0000F91FF90EF90DF90CF90BF90AF909F90C9
:103EC0008F900895CF93C82F843050F4811109C08A
:103ED00080918000877F809380000E94D41E06C05E
:103EE000C3E080918000886080938000A09186006C
:103EF000B09187002C2F30E00E94812F23E030E02A
:103F000040E050E00E94522FB42FA32F922F882719
:103F1000892F9A2FAB2FBB270E94D61E90938D001E
:103F200080938C00CF910895089510926E021092A4
:103F30006D0210926F02EFE6F0E080818160808375
:103F40000895EFE6F0E080818E7F80830E94A11DBE
:103F50000C94621F1F920F920FB60F9211240F93B1
:103F60001F932F933F934F935F936F937F938F9301
:103F70009F93AF93BF93CF93EF93FF9380911D01D6
:103F800091E0980F823019F090931D0155C081E0A7
:103F900080931D010E94CB1DC82F00916D021091CE
:103FA0006E020F5F1F4F0E94CB1D28E7829FB0015A
:103FB0001124C8010E942A2F90936E0280936D02F3
:103FC00028E7C29FB0011124660F672F661F770B89
:103FD00071950E942A2F6F7780916F02823019F4B9
:103FE000603451F404C0813039F46F3729F4809182
:103FF0006F008E7F80936F00E62FF0E0EB59FA4F51
:10400000C49100918600109187000E94A11D282F65
:10401000C09FC001C19F900D11246DEF72E00E94FE
:104020002A2F269FC001279F900D11240E94D61E83
:1040300090938D0080938C00FF91EF91CF91BF9171
:10404000AF919F918F917F916F915F914F913F9130
:104050002F911F910F910F900FBE0F901F901895E9
:104060000E94D11E8AE08093800089E180938100C4
:104070008FEF9FEF90938700809386000E94CE1D64
:104080000E94C61D81110C94951F0895209A25B198
:104090002E7F35B131604FB7F894FC01CB01880F0A
:1040A000991F680F791F6E0F7F1FE617F70789F0BA
:1040B000819198E035B9000000C087FF25B9880FCD
:1040C000000000C000C000C025B900C09A9591F75B
:1040D000ECCF4FBF8FE594E00197F1F700C00000EF
:1040E000089583E290E00E94B52F823281F484E249
:1040F00090E00E94B52F843051F485E290E00E9458
:10410000B52F91E0873209F090E0892F01C080E05F
:1041100081700895CF93C82F811102C06FEF01C045
:1041200062E283E290E00E94C92FC11102C06FEFEA
:1041300001C064E084E290E00E94C92FC11102C076
:104140006FEF01C067E285E290E0CF910C94C92F38
:10415000089586E290E00E94B52F682F70E080E01D
:1041600090E008950895CF93C62F0E94B2206C2F3F
:1041700086E290E0CF910C94C92F80E00E948A20C3
:1041800060E070E0CB010E94B3200E94EE230E9409
:10419000CD2481E00C948A200E94A8200E94A920AE
:1041A0000E94B2200E947120811102C00C94BD2097
:1041B0000895CF93FB01C281CC23E9F09C012251E9
:1041C0003F452031310520F482510E94DD240CC08E
:1041D0008031FFE59F0751F481E00E94DB0A43E054
:1041E00062E081E00E94F104C0E018C081319F4587
:1041F000A9F482E0F2CF8031EFE59E0711F481E06F
:1042000004C081319F4549F482E00E94E60A43E000
:1042100062E081E00E94F10401C0C1E08C2FCF91E7
:1042200008952FEFFC0120830895CF93DF93EC01D5
:104230008881893031F08A3079F40E94C61D8983E3
:104240000BC00E94A11D2FEF829FC001112463E0CB
:1042500070E00E942A2F6983DF91CF910895FC01BD
:104260008081893019F08A3069F00895818123E0D6
:10427000829FC00111246FEF70E00E942A2F862FC9
:104280000C948B1E8181811102C00C94B31D0C947F
:10429000A71DCF93DF93EC018881813889F028F442
:1042A0008038A1F40E94D21810C0823861F083389F
:1042B00069F40E94CC1889830E94CF188A8306C0B3
:1042C0000E94811802C00E94B7188983DF91CF91A4
:1042D0000895CF93DF93EC0188818138B1F058F4D1
:1042E000803851F5D9810E94CF18C82F0E94CC1870
:1042F0004D2F6C2F1DC08238B1F08338E9F40E9435
:10430000D218482F6A81898113C089810E94A31B1A
:104310008981811104C0DF91CF910C94141BDF912E
:10432000CF910C94D91B8981DF91CF910C94C9183E
:10433000DF91CF910C947F1ADF91CF910895DF9296
:10434000EF92FF920F931F93CF93DF93EC01D62E42
:104350008C010F5F1F4FE8818E2F90E0FC01319799
:10436000E331F10508F0A4C0E759FF4F0C94742F16
:10437000198289E060C08981823039F0833061F030
:10438000813029F50E942E2702C00E94A9209A831D
:104390008B837C836D838EC07E0110E0812F0E9411
:1043A0009B13F701928383831F5FF2E0EF0EF11CF2
:1043B0001530A1F77FC08981823049F46A817B8101
:1043C0008C819D810E947A2F0E94B32073C06D2D35
:1043D000CE010E9411216EC04B816A8189810E94A9
:1043E000C0239C838D8366C02C813D813227232787
:1043F00032274B816A8189810E94D9235BC00E9448
:10440000EE2358C0C8010E942F21C8010E946921D3
:1044100051C0C8010E941521C8010E9449214AC00B
:104420000E94951D0E94681845C00E94802424C0E7
:104430000E94822499838A833DC06B8170E08981C8
:104440009A81AE014C5F5F4F9827892798270E9479
:10445000852430C06B8170E089819A81AE014C5F08
:104460005F4F9827892798270E94AA2423C00E947B
:10447000CD2420C00E94AD2389831CC06B8170E0D5
:1044800089819A81AE014C5F5F4F982789279827D1
:104490000E942D240FC06B8170E089819A81AE014A
:1044A0004C5F5F4F9827892798270E94512402C0AC
:1044B0008FEF88836D2DCE01DF91CF911F910F91EA
:1044C000FF90EF90DF900C941428CF93DF93EC01D2
:1044D000FB018281882309F43CC1C330FDE5DF077D
:1044E00060F4CA3F9CE5D90788F49E0122503C4500
:1044F0002431310508F02EC109C0C136EDE5DE07D3
:1045000029F0C53AFDE5DF0709F024C10E94F10F4B
:104510009093890280938802C1318CE5D80709F411
:10452000C6C008F042C0C930ECE5DE0709F49BC004
:1045300000F5C5308CE5D80709F485C078F4C330A0
:10454000ECE5DE0709F478C008F07AC0C230DC453B
:1045500009F0F5C0809188028160EFC0C7309CE50A
:10456000D90709F478C008F07AC080918802806188
:10457000E4C0CD30FCE5DF0709F487C058F4CB3048
:104580009CE5D90709F479C008F07BC080918802C6
:1045900088606FC0CF30FCE5DF0709F480C008F009
:1045A00082C080918802877FC8C0CD3F9CE5D90733
:1045B00009F471C000F5C531FCE5DF0709F485C0D9
:1045C00068F4C3319CE5D90709F475C008F095C0BB
:1045D0000E94650A809188028F77AFC0CB3FFCE5CF
:1045E000DF07A9F108F054C0CA3FDC4509F0A7C0B5
:1045F0008091890240C0C130EDE5DE0709F489C031
:1046000058F4CF3F8CE5D80709F45AC008F069C0C8
:104610008091890282602FC0C136EDE5DE0709F482
:104620007CC0C53AFDE5DF0709F481C0C230DD4535
:1046300009F085C080E06EC08091880282607DC0F4
:104640008091880216C080918802886076C080912F
:10465000890282604FC08091880280626EC0809122
:10466000880280646AC00E94650A8091880280681E
:1046700064C0846062C081603DC0809188028E7F8A
:104680005CC0809188028D7F58C08091880216C0DE
:104690008091890218C0809189028D7F2BC0809102
:1046A00088028F7E4AC0809188028F7D46C08091AB
:1046B00088028F7B42C080918802877F8B7F3DC0BC
:1046C000809189028D7F8E7F15C08091880282FB48
:1046D000222720F991E0922790FB82F990FB83F941
:1046E0002CC080918902982F909591708E7F892B94
:1046F00090FB81F98093890222C00E94650A809113
:10470000880287FB222720F991E0922790FB87F906
:1047100014C081E00E94801012C08091880284FB46
:10472000222720F991E0922790FB84F906C080911E
:104730008802982F909590FB80F980938802809151
:104740008802909189020E9402100E94650A80E00E
:1047500001C081E0DF91CF91089584E0089550E099
:10476000440F551F2EE1629F400D511D11249A01E7
:1047700066E9869F200D311D1124C9018796089591
:104780000F931F93CF93DF930E94AF238C010E945E
:10479000B52FC82FD0E0DC2FCC27C80101960E948E
:1047A000B52F9E01282BC901DF91CF911F910F9149
:1047B00008950F931F93CF93DF93122F032F0E941F
:1047C000AF23EC01602F0E94C92F612FCE0101960B
:1047D000DF91CF911F910F910C94C92FAF92BF928F
:1047E000CF92DF92EF92FF920F931F93CF93DF93BD
:1047F000A12CE12CF12CB12C00E010E0C0E0D0E0C5
:104800006701C00ED11EFE01EE0FFF1FEC0DFD1D56
:10481000E45FFE4F259134914C2F6B2D8A2D0E9421
:10482000D9232196CF30D10571F7025E1F4FB39483
:1048300085E0B812E3CF86E9E80EF11CA39484E08A
:10484000A812D9CFDF91CF911F910F91FF90EF90D8
:10485000DF90CF90BF90AF900895EF92FF920F93AB
:104860001F93CF93DF93EA017A01E60EF71E8C01C6
:10487000C8018796CE15DF0569F0083522E01207DA
:1048800020F40E94B52F888301C0188221960F5F03
:104890001F4FEECFDF91CF911F910F91FF90EF90BF
:1048A0000895EF92FF920F931F93CF93DF93EA0146
:1048B0007A01E60EF71E8C01C8018796CE15DF053A
:1048C00059F0083522E0120718F468810E94C92FB8
:1048D00021960F5F1F4FF0CFDF91CF911F910F9166
:1048E000FF90EF900895462F843038F4753028F407
:1048F0006F3018F4672F0C94C02380E090E0089587
:1049000080E1089581E891E00895EF92FF920F937E
:104910001F93CF93DF93EA017A01E60EF71E8C0115
:10492000C80181589D4FCE15DF0569F0013821E09F
:10493000120720F40E94B52F888301C018822196A7
:104940000F5F1F4FEDCFDF91CF911F910F91FF9020
:10495000EF900895EF92FF920F931F93CF93DF9301
:10496000EA017A01E60EF71E8C01C80181589D4FBD
:10497000CE15DF0559F0013821E0120718F46881DF
:104980000E94C92F21960F5F1F4FEFCFDF91CF916C
:104990001F910F91FF90EF900895CF93DF93CFE792
:1049A000D2E060E0CE010E94C92F2196C11584E0BB
:1049B000D807B9F7DF91CF910895DF92EF92FF9278
:1049C0000F931F93CF93DF9300D000D0CDB7DEB706
:1049D000F82E8FE08F15E8F18FEF93E00E94B52F4E
:1049E000811137C00FE712E0FF2069F0011584E064
:1049F000180779F1C8010E94B52F811101C0FA94FE
:104A00000F5F1F4FF1CF19821A821B821C82DD2497
:104A1000D39478018FEFE81AF80AC8010E94B52FE5
:104A200089831A828823A9F09FEF980F933058F456
:104A30008A83D9820E5F1F4FC7010E94B52F8B83D7
:104A4000882339F07801CE0101960E944E06870135
:104A5000E0CF0F900F900F900F90DF91CF911F91AB
:104A60000F91FF90EF90DF900895CF93DF93863101
:104A70009C4541F5EB010E94F50E982F8A8120910B
:104A8000020130910301882379F09A7A81E009F4D8
:104A900080E080937002911102C069E201C065E379
:104AA000C9010E94C8260AC080917002811102C00B
:104AB00069E201C065E3C9010E94CA260E94370F5E
:104AC00080E001C081E0DF91CF9108950F931F93A3
:104AD000CF93DF93C42FD22FFC0182818823C9F0AA
:104AE000409373020E942227909372028093710276
:104AF00080E28C0F883008F057C0C77081E001C099
:104B0000880FCA95EAF7DF91CF911F910F910C940E
:104B1000F30780917302481330C080917102909125
:104B200072020E943A27883C910538F510E21D0F69
:104B3000CD17B9F080E28C0F883040F4C77081E067
:104B400001C0880FCA95EAF70E94FA07183028F5C5
:104B500081E09D2F977001C0880F9A95EAF70E9417
:104B6000F307802F0E94EA071830F0F4D77081E035
:104B700001C0880FDA95EAF70AC080E28C0F88300E
:104B800098F4C77081E001C0880FCA95EAF7DF91F9
:104B9000CF911F910F910C94FA07802FDF91CF9145
:104BA0001F910F910C94EA07DF91CF911F910F9104
:104BB00008950F939C01CB01233F4CE5340731F15D
:104BC00088F4283DFCE53F07D9F0293D4CE5340742
:104BD00079F1273D3C45A9F506E221EE41EE67ED6E
:104BE0007CE52BC0253FFCE53F07E1F0A8F0263F20
:104BF0003C4539F507E225EE46EE66EF7CE51DC043
:104C000007E225EE45EE68ED7CE517C006E221EEF1
:104C100040EE63EF7CE511C007E225EE44EE64EF61
:104C20007CE50BC006E221EE42EE65EF7CE505C0B7
:104C300008E221E045EE69ED7CE50E94662580E012
:104C400008C0FC018281882319F01092730201C010
:104C500081E00F9108959093CD018093CC01089548
:104C600090937902809378020895E0917802F09110
:104C70007902309721F00190F081E02D099480E0D5
:104C80000895E0917802F0917902309721F0028046
:104C9000F381E02D09940895E0917802F091790272
:104CA000309739F022E0DC012C930480F581E02D6F
:104CB00009940895209176023091770228173907D8
:104CC00071F09093770280937602E0917802F091F0
:104CD0007902309721F00680F781E02D099408953C
:104CE00020917402309175022817390771F0909362
:104CF000750280937402E0917802F0917902309706
:104D000021F00084F185E02D09940895FC0132968C
:104D100097E080E0915029F021912223D9F38F5F11
:104D2000F9CF0895662349F0FC0132960896219147
:104D3000621729F0E817F907D1F780E0089581E0BC
:104D400008959C01FC0132969FEF80E04191461747
:104D500089F09F3F19F4411101C0982F8F5F863071
:104D6000A9F79F3F39F0F901E90FF11D97FDFA9579
:104D70006283089508959C012A5F3F4FFC014281A0
:104D8000461301C01282019682179307B9F708955E
:104D90000C94A1260C94BB26029626E0FC011192ED
:104DA0002A95E9F7089508950C94D32683E080931B
:104DB0007A020C94D426811102C081E001C082E005
:104DC00080937A020C94D4260C94DB2681E08093A5
:104DD0007A020C94D4260C94E62608950C94ED26C1
:104DE0000C94EE260C94ED260C94ED260C94ED26F6
:104DF000CF930E94F4260E9471140E94F226C0E014
:104E00008C2F0E949B13892B29F4CF5FC530C1F7EB
:104E100080E001C081E0CF91089508958091DC0287
:104E2000843011F00C94750508950E94650A0C9465
:104E3000770582E084BD93E095BD9AEF97BD80939E
:104E40006E0008952FB7F8948091D4029091D50206
:104E5000A091D602B091D7022FBF08952FB7F89432
:104E60006091D4027091D5028091D6029091D702C0
:104E70002FBF08959C014FB7F8948091D402909170
:104E8000D502A091D602B091D7024FBF821B930BDF
:104E9000089578941F920F920FB60F9211248F935A
:104EA0009F93AF93BF938091D4029091D502A0912C
:104EB000D602B091D7020196A11DB11D8093D402F4
:104EC0009093D502A093D602B093D702BF91AF9131
:104ED0009F918F910F900FBE0F901F90189581E0BA
:104EE0008093E00080E28093D8001092C9008FE1A7
:104EF0009EE40197F1F700C0000087E090EBDC0131
:104F00008093E5029093E602A093E702B093E80253
:104F10009CE088E10FB6F894A895809360000FBEDE
:104F200090936000FFCF809186020895089524E059
:104F30002093E9002FEF3091E800215035FD06C0A5
:104F400035ED3A95F1F700002111F5CF2091E800F9
:104F500025FF0BC040E050E066E070E00E94312A7F
:104F60008091E8008E778093E8000895CF93DF93D7
:104F700021E02093E9002FEF3091E800215035FD2A
:104F800006C035ED3A95F1F700002111F5CF2091DB
:104F9000E80025FF14C0EC0140E050E068E070E05C
:104FA0000E94312A8091E8008E778093E80088E0A3
:104FB000FE01AEE7B2E001900D928A95E1F7DF9134
:104FC000CF91089580937B0270937D0260937C0261
:104FD0008091DC028430F9F48093E9008FEF9091A6
:104FE000E800815095FD06C095ED9A95F1F7000017
:104FF0008111F5CF8091E80085FF0DC040E050E0C1
:1050000063E070E08BE792E00E94312A8091E80033
:105010008E778093E8000895BC0184E00C94E22729
:10502000BC0183E00C94E227CF93603219F5209104
:10503000DC022430F9F4C091E900CF703091EC002B
:10504000232F217030FD20E8C22B22E02093E900BD
:105050002091E80020FF0BC040E050E060E270E0EB
:105060000E94312A8091E8008E778093E800CF700B
:10507000C093E900CF9108958091DB02811109C0AE
:105080000E940D2C0E946A2C8091E2008460809323
:10509000E20008951092DB0208950C94EB266091D3
:1050A000D80281E0611101C080E00E94D6260C94F4
:1050B000411D9091DC0281E0943009F080E0609124
:1050C000D8020E94DB260E94471D0E9435260C94C0
:1050D000590642E061EC81E00E94862B42E261ECDD
:1050E00084E00E94862B42E261EC82E00E94862BE3
:1050F00042E260EC83E00E94862B9091DC0281E02A
:10510000943009F080E06091D8020C94E4268091FC
:10511000DE02833009F463C030F4813071F08230F4
:1051200009F49CC008958A3009F488C08B3009F4D2
:105130006EC0893009F0AAC020C08091DD02813A9A
:1051400009F0A4C08091E800877F8093E8008091F7
:10515000E1029091E202892B21F468E08EE792E06F
:1051600003C060E080E090E070E00E94C72A809178
:10517000E8008B778093E80008958091DD0281320A
:1051800009F084C08091E1029091E202009719F049
:10519000029709F07BC08091E800877F8093E80048
:1051A0008091E80082FD05C08091DC028111F8CF7A
:1051B0006DC02091F3008091F20090E0922B029755
:1051C00031F48091F100813011F0863021F480912A
:1051D000F100809386028091E8008B7753C0809124
:1051E000DD02813A09F052C08091E1029091E20221
:1051F000892B09F04BC08091E800877F8093E800FD
:105200008091E80080FFFCCF80912A0136C0809118
:10521000DD028132D9F58091E1029091E202892B81
:10522000A9F58091E800877F8093E8000E94BB2B5E
:105230008091DF0280932A010C94650A8091DD023F
:10524000813221F58091E800877F8093E8000E94F9
:10525000BB2B8091E0028093870208958091DD024C
:10526000813AA1F48091E800877F8093E8008091E3
:10527000E80080FFFCCF809187028093F10080914D
:10528000E8008E778093E8000C94BB2B089584B7D8
:10529000877F84BF0FB6F894A895809160008861DD
:1052A00080936000109260000FBE90E080E80FB61F
:1052B000F89480936100909361000FBE0C94E626F1
:1052C0000E940D2C0E946A2CE2EEF0E08081846046
:1052D000808378940C94FF2E8EE191E00C9430261C
:1052E0008091DC028530A9F48091DC02853079F46C
:1052F0000E940E278091DA028823B1F30E94F826DB
:10530000882391F30E941B2A0E94650AEDCF0C941A
:1053100015270895CF93DF93CDB7DEB7A0970FB6CB
:10532000F894DEBF0FBECDBF8091DC02843011F552
:1053300083E08093E9008091E80082FF1BC08091A8
:10534000E80085FF0AC040E050E060E270E0CE0176
:1053500001960E947C2A91E001C090E08091E800D3
:105360008B778093E800992329F060E2CE010196C3
:105370000E949F21A0960FB6F894DEBF0FBECDBF4E
:10538000DF91CF9108950C94C529292F332723301D
:105390003105C9F060F42130310581F0223031054A
:1053A00009F041C08BE590E021E237E040C02132B6
:1053B0003105E1F02232310531F135C082E190E072
:1053C0002CE737E034C099278130910549F028F067
:1053D000029749F5E5EEF6E005C0EDE1F7E002C021
:1053E000E3EFF6E0849190E09F0121C06330710506
:1053F000D0F4660F771FFB01EB53FE4F2081318104
:1054000089E090E014C06330710568F4FB01EE0F91
:10541000FF1FE154FE4F20813181FB01E454FE4F18
:10542000808190E004C080E090E020E030E0FA016C
:1054300031832083089580E189BD82E189BD09B46B
:1054400000FEFDCF8091D8008F7D8093D8008091A1
:10545000E00082608093E0008091E00081FDFCCF5D
:105460000895CF92DF92EF92FF920F931F93CF9305
:10547000DF93EC018B017A010E94DA2B811133C09A
:10548000E114F10439F0F70180819181081B190BB7
:10549000C80FD91FC12CD12C0115110519F180910C
:1054A000E80085FD16C08091E8008E778093E800C3
:1054B000E114F10449F0F70180819181C80ED91EF1
:1054C000D182C08285E00FC00E94DA2B882321F3AD
:1054D0000AC089918093F10001501109FFEFCF1AA2
:1054E000DF0ADACF80E0DF91CF911F910F91FF901B
:1054F000EF90DF90CF900895CF92DF92EF92FF92DE
:105500000F931F93CF93DF93EC018B017A010E94DD
:10551000DA2B811133C0E114F10439F0F7018081F5
:105520009181081B190BC80FD91FC12CD12C011553
:10553000110519F18091E80085FD16C08091E80001
:105540008B778093E800E114F10449F0F701808142
:105550009181C80ED91ED182C08285E00FC00E9401
:10556000DA2B882321F30AC08091F100899301503E
:105570001109FFEFCF1ADF0ADACF80E0DF91CF9178
:105580001F910F91FF90EF90DF90CF9008952091A1
:10559000E3023091E4022617370748F061157105E0
:1055A00039F42091E8002E772093E80001C0B9017A
:1055B000FC0120E06115710579F18091DC028823FE
:1055C000F1F18530F1F18091E80083FD3CC08091DC
:1055D000E80082FD2EC08091E80080FFEBCF209193
:1055E000F3008091F20090E0922B6115710551F06B
:1055F0008830910538F421912093F10061507109B0
:105600000196F3CF21E0089709F020E08091E800AF
:105610008E778093E800CECF2111CFCF0AC0809142
:10562000DC02882361F0853061F08091E80083FD21
:105630000AC08091E80082FFF2CF80E0089582E006
:10564000089583E0089581E008952091E302309168
:10565000E4022617370748F06115710539F42091E7
:10566000E8002E772093E80001C0B901FC0120E09A
:105670006115710591F18091DC02882309F440C025
:10568000853009F43FC08091E80083FD3DC08091E2
:10569000E80082FD2FC08091E80080FFE9CF2091D3
:1056A000F3008091F20090E0922B6115710559F0A2
:1056B0008830910540F424912093F1003196615097
:1056C00071090196F2CF21E0089709F020E080915E
:1056D000E8008E778093E800CBCF2111CCCF0AC0B1
:1056E0008091DC02882361F0853061F08091E800D0
:1056F00083FD0AC08091E80082FFF2CF80E0089528
:1057000082E0089583E0089581E00895982F97300E
:1057100068F59093E900981739F07091EC002091AA
:10572000ED005091F00003C0242F762F50E021FDB2
:1057300002C09F5FECCF3091EB003E7F3093EB00D7
:105740003091ED003D7F3093ED003091EB00316002
:105750003093EB007093EC002093ED005093F00039
:105760002091EE0027FDE5CF80E008958F708093B3
:10577000E90081E008958091DD0287FF11C08091EA
:10578000E80082FD05C08091DC028111F8CF11C0D4
:105790008091E8008B770BC08091DC02882349F070
:1057A0008091E80080FFF8CF8091E8008E778093A9
:1057B000E80008952091E4003091E50095E64091DD
:1057C000EC00842F817040FF23C08091E80080FDB1
:1057D0001DC08091DC02882399F0853099F080917A
:1057E000EB0085FD11C04091E4005091E5002417C5
:1057F000350729F3915011F09A01E1CF84E0089523
:1058000082E0089583E0089581E0089580E008959E
:105810004091E80042FFDDCF08950E947B2C0E945A
:10582000832CE0EEF0E0808181608083E8EDF0E0A1
:1058300080818F77808319BCA7EDB0E08C918E7F3B
:105840008C9380818F7E80831092DB0208950F936A
:105850001F93CF93DF930E947B2C0E94832CC8ED73
:10586000D0E088818F778883888180688883888169
:105870008F7D888319BC1092DC021092D80210929E
:10588000DA021092D90200EE10E0F80180818B7FDD
:10589000808388818160888342E060E080E00E94AC
:1058A000862BE1EEF0E080818E7F8083E2EEF0E0F7
:1058B000808181608083808188608083F80180811D
:1058C0008E7F8083888180618883DF91CF911F9153
:1058D0000F910895E8EDF0E080818F7E8083E7ED01
:1058E000F0E080818160808384E082BF81E08093EA
:1058F000DB020C94272CE8EDF0E080818E7F808322
:105900001092E20008951092DA001092E1000895DA
:105910001F920F920FB60F9211242F933F934F9324
:105920005F936F937F938F939F93AF93BF93EF9307
:10593000FF938091E10082FF0BC08091E20082FF23
:1059400007C08091E1008B7F8093E1000E94FE2ED2
:105950008091DA0080FF1FC08091D80080FF1BC0BB
:105960008091DA008E7F8093DA008091D90080FFE9
:105970000DC080E189BD82E189BD09B400FEFDCF83
:1059800081E08093DC020E943C2805C019BC109283
:10599000DC020E944A288091E10080FF19C08091BA
:1059A000E20080FF15C08091E2008E7F8093E200CC
:1059B0008091E20080618093E2008091D800806253
:1059C0008093D80019BC85E08093DC020E944F28A8
:1059D0008091E10084FF30C08091E20084FF2CC000
:1059E00080E189BD82E189BD09B400FEFDCF8091CF
:1059F000D8008F7D8093D8008091E1008F7E8093C6
:105A0000E1008091E2008F7E8093E2008091E200CD
:105A100081608093E2008091D802882311F084E0B5
:105A200007C08091E30087FD02C081E001C083E0F0
:105A30008093DC020E9459288091E10083FF29C0F5
:105A40008091E20083FF25C08091E100877F8093F1
:105A5000E10082E08093DC021092D8028091E100A4
:105A60008E7F8093E1008091E2008E7F8093E20040
:105A70008091E20080618093E20042E060E080E09B
:105A80000E94862B8091F00088608093F0000E9435
:105A90004D28FF91EF91BF91AF919F918F917F9191
:105AA0006F915F914F913F912F910F900FBE0F908B
:105AB0001F9018951F920F920FB60F9211242F93DB
:105AC0003F934F935F936F937F938F939F93AF9386
:105AD000BF93CF93DF93EF93FF93C091E900CF7013
