:100000000C94D9020C9411030C9411030C94110359
:100010000C9411030C9411030C9411030C94110310
:100020000C9411030C9411030C94F02A0C94C22B21
:100030000C941C250C9411030C9411030C941103C3
:100040000C9411030C9411030C9411030C941103E0
:100050000C9411030C94A4250C9411030C9411031B
:100060000C9411030C9411030C9411030C941103C0
:100070000C9411030C9411030C9411030C941103B0
:100080000C9411030C9411030C9411030C941103A0
:100090000C9411030C9411030C9411030C94110390
:1000A0000C9411030C9411030C941103CC06CC0690
:1000B000F806F80660077E07650865088907F107F6
:1000C00002080208631F661F801F911F991FA41F4B
:1000D000A71FAA1FAD1FF31FF31FB01FB31FB81F29
:1000E000C51FD21FD51FD91FE61F2F2C562C4E2DF2
:1000F000562C4E2DA22CC52C4E2D1C2D2B2D1E000A
:100100001F00200021002200230024000151C25CB6
:10011000C35C0100010001000100010001000100B9
:1001200001000100010001000100010001000100C7
:1001300001000100010001000100010001000000B8
:100140000000000000002A2B280000000000000032
:1001500000000000000000000029000000002C1E2C
:100160003420212224342627252E362D3738271EE9
:100170001F202122232425263333362E37381F040F
:1001800005060708090A0B0C0D0E0F1011121314A7
:1001900015161718191A1B1C1D2F3130232D350465
:1001A00005060708090A0B0C0D0E0F101112131487
:1001B00015161718191A1B1C1D2F3130354C00004D
:1001C000000000000000000000000000000000002F
:1001D000000000000000000000000000000000001F
:1001E00000007E0F00D4FFFFFFC7000000781E0F45
:1001F0000500047F3F1F643214643214783C1E1ED5
:10020000140A052223252628292A2C2D2F303233A3
:100210003536383A3B3D3E4042434547494A4C4ECD
:100220005051535557595A5C5E6062646668696BF9
:100230006D6F71737577797B7D7F81838587898AFF
:100240008C8E90929496989A9C9E9FA1A3A5A7A805
:10025000AAACAEAFB1B3B4B6B8B9BBBCBEBFC1C235
:10026000C3C5C6C7C9CACBCCCDCED0D1D2D2D3D4C8
:10027000D5D6D7D7D8D9D9DADADBDBDBDCDCDCDCE6
:10028000DCDDDDDDDDDCDCDCDCDCDBDBDBDADAD9B4
:10029000D9D8D7D7D6D5D4D3D2D2D1D0CECDCCCB36
:1002A000CAC9C7C6C5C3C2C1BFBEBCBBB9B8B6B454
:1002B000B3B1AFAEACAAA8A7A5A3A19F9E9C9A98E4
:1002C000969492908E8C8A89878583817F7D7B79B5
:1002D000777573716F6D6B6968666462605E5C5A96
:1002E0005957555351504E4C4A4947454342403E59
:1002F0003D3B3A3836353332302F2D2C2A292826EB
:10030000252322FFAA7F55400001010101010101BF
:1003100001010202020202020202020303030303BA
:100320000303030404040404040405050505050689
:100330000606060607070707070808080809090947
:10034000090A0A0A0B0B0B0C0C0C0D0D0D0E0E0EF0
:100350000F0F0F1010111111121213131414151581
:1003600016161717181819191A1A1B1B1C1D1D1EF3
:100370001E1F202021222223242425262627282947
:10038000292A2B2C2D2D2E2F303132323334353675
:100390003738393A3B3C3D3E3F4041424344454675
:1003A0004748494A4C4D4E4F505153545556585951
:1003B0005A5B5D5E5F616264656668696B6C6D6FF8
:1003C0007072737577787A7B7D7E8082838587886B
:1003D0008A8C8E8F91939596989A9C9EA0A2A3A5A5
:1003E000A7A9ABADAFB1B3B5B7BABCBEC0C2C4C6A6
:1003F000C9CBCDCFD1D4D6D8DBDDDFE2E4E7E9EB62
:10040000EEF0F3F5F8FAFDFF08036800300038005D
:1004100000001403480069006E00650079002000A8
:100420004C004C00430000000403090409025B0077
:10043000030100A0FA0904000001030101000921E1
:100440001101000122400007058103080001090491
:100450000100020300000009211101000122220015
:10046000070582032000010705030320000109049A
:100470000200010300000009211101000122B60061
:10048000070584032000011201000200000008D8C3
:1004900004E9E80100010200010660FF0961A10111
:1004A0000962150026FF0095207508810209631571
:1004B0000026FF00952075089102C005010902A1E0
:1004C0000185020901A10005091901290815002566
:1004D0000195087501810205010930093115812551
:1004E0007F95027508810609381581257F9501756C
:1004F000088106050C0A38021581257F95017508CB
:100500008106C0C005010980A101850319012AB730
:1005100000150126B700950175108100C0050C0972
:1005200001A101850419012AA002150126A0029546
:100530000175108100C005010906A10185060507A6
:1005400019E029E7150025019508750181020507C5
:10055000190029EF1500250195F0750181020508A4
:100560001901290595057501910295017503910100
:10057000C005010906A101050719E029E7150025B5
:10058000019508750181029501750881010507191A
:100590000029FF150026FF00950675088100050853
:1005A00019012905950575019102950175039101C0
:1005B000C00011241FBECFEFDAE0DEBFCDBF04B60E
:1005C00003FE18C08091050390910603A0910703D4
:1005D000B09108038730904BA740B04B59F410926C
:1005E0000503109206031092070310920803E0E03F
:1005F000F8E3099511E0A0E0B1E0E6E0FEE502C015
:1006000005900D92A23DB107D9F723E0A2EDB1E02C
:1006100001C01D92A530B207E1F70E9446130C9469
:10062000012F0C94000081E0089581E008950C945E
:10063000150308950C9419031F93CF93DF9300D0F3
:1006400000D01F92CDB7DEB749835A836B833091B8
:10065000D50189819A81311114C0662359F0222372
:1006600049F00E94F209182F682F89819A810E940F
:100670009D0903C00E94C709182F69817A81812FC3
:1006800004C00E94F20969817A810F900F900F9047
:100690000F900F90DF91CF911F910C940022FC01DD
:1006A000262F408151816281738184810C941C03C7
:1006B00081E00895CF93DF93EC0160E00E944F0347
:1006C000BE01DF91CF910C941A03E1E0F0E0DF016D
:1006D00002C0AA0FBB1F6A95E2F7BD01DF0102C08D
:1006E000AA0FBB1F4A95E2F7AD01462B01C0EE0FE2
:1006F0002A95EAF7942F9823491302C08E2B089568
:10070000E0958E230895242F462F682F8091D901DC
:100710000E9465030C945A090C9429120C9425121A
:1007200008950E94F5080E9490032FEF84E39CE057
:10073000215080409040E1F700C000000C94CA2591
:100740000F931F93CF93DF938C0161E00E944F03BF
:10075000EC01B8010E94BE1E882309F44BC0B80109
:10076000CE010E941703882309F444C0B801CE01CA
:100770000E9466238823F1F1B801CE010E94FC1F7C
:100780008823C1F1B801CE010E94C222882391F1D1
:10079000B801CE010E945E1D882361F1F8018281BB
:1007A000882309F1CA358DE5D807C1F050F4C11589
:1007B000FCE5DF0781F0CE3DDC45A9F40E94130F74
:1007C00019C0CB35EDE5DE0761F0CC35DD4559F4D8
:1007D0000E94570E08C00E9491030CC00E94600E38
:1007E00002C00E94630EC801DF91CF911F910F914B
:1007F0000C94130380E0DF91CF911F910F91089526
:100800000E94FD240E94EF040C94CB1B0E94F20472
:100810000E94971C0C940325DF92EF92FF920F9396
:100820001F93CF93DF93E82FF0E0E25CFE4FD4906C
:10083000282F26952695269530E0F901E252FE4FA5
:100840000491877010E0082E02C0159507950A9450
:10085000E2F701701127F901E253FE4FE490F12C09
:10086000082E02C0F594E7940A94E2F791E0E92299
:10087000FF24F901E254FE4FC491D0E002C0D595A7
:10088000C7958A95E2F7C170DD270115110519F0AA
:1008900081EE0E945105E114F10419F086EE0E94E8
:1008A00051058D2D0E947A06EF2819F086EE0E94E0
:1008B000FB05012B19F081EE0E94FB05CD2B51F0B9
:1008C0008CE2DF91CF911F910F91FF90EF90DF901D
:1008D0000C947A06DF91CF911F910F91FF90EF90CA
:1008E000DF900895EF92FF920F931F93CF93DF93C2
:1008F000EC01162F0AE08881882309F455C0813065
:1009000009F043C08981813041F47E0182E0E80E24
:10091000F11C8A810E947A0609C0823049F47E0166
:10092000E2E0EE0EF11C8A810E945105E7012FC022
:10093000833041F47E01F2E0EF0EF11C8A810E94C7
:10094000FB05F4CF843011F0219621C02A81229634
:1009500080E090E030E0205331092A30310558F42E
:10096000089FA001099F500D1124C901840F951FF4
:1009700021962881EFCF009751F0EFE9FFE0319702
:10098000F1F700C000000197F6CF0E940C042196F9
:10099000812F882309F4AFCFEFE9FFE03197F1F71A
:1009A00000C000008150F5CFDF91CF911F910F91D2
:1009B000FF90EF90089560E00C94720408950C94F9
:1009C000DE0481E008950C94E1040895CF93C82FCC
:1009D0000E94DF048C2F0E94E304CF91089580E0F1
:1009E0000C94E6040E94C2230C94E6040E94C223E5
:1009F0009091D401891721F08093D4010C94E604DE
:100A00000895CF93DF93CDB7DEB72B970FB6F89449
:100A1000DEBF0FBECDBF4F83588769877A878B872C
:100A200061110E94A30D9E012F5F3F4F86E0F901E7
:100A300011928A95E9F785E0FE013796D901019078
:100A40000D928A95E1F789819A814C815D81452BD0
:100A500031F09F3F31F491E08F3F19F403C091E0F2
:100A600001C090E090FF09C049815A816B817C816F
:100A70008D819E810E94C40C05C0C9010E9458034B
:100A80008111F2CF2B960FB6F894DEBF0FBECDBF0B
:100A9000DF91CF910895FC01808191810E941F0A0E
:100AA0000895CF93882309F4A4C0C82F8238C1F4D5
:100AB0000E94C22381FD9DC069E38091060190914F
:100AC00007010E94B8240E94C50D2FEF81EE94E02B
:100AD000215080409040E1F700C0000069E319C058
:100AE000833801F50E94C22380FD83C063E58091B5
:100AF0000601909107010E94B8240E94C50D2FEFB6
:100B000081EE94E0215080409040E1F700C0000069
:100B100063E580910601909107010E94C324CF9163
:100B20000C94C50D8438C1F40E94C22382FD61C0BB
:100B300067E480910601909107010E94B8240E9409
:100B4000C50D2FEF81EE94E0215080409040E1F7F9
:100B500000C0000067E4DDCF8CEF8C0F813AD0F449
:100B60006C2F80910601909107010E943824882300
:100B700049F06C2F80910601909107010E94C324D7
:100B80000E94C50D6C2F80910601909107010E9473
:100B9000B824C5CF80E28C0F883048F4C77081E05C
:100BA00001C0880FCA95EAF70E94860DB8CFEBE521
:100BB000EC0FE33040F4F0E0E25AFE4F808190E029
:100BC000CF910C94F623E8E5EC0FE73150F4F0E018
:100BD000EE0FFF1FE05DFE4F80819181CF910C945D
:100BE0000C24C03F30F08C2F0E94CB13CF910C947B
:100BF0009D14CF910895882309F464C0823879F454
:100C00000E94C22381FF5EC069E38091060190913A
:100C100007010E94B8240E94C50D69E310C0833803
:100C2000B1F40E94C22380FF4DC063E580910601AC
:100C3000909107010E94B8240E94C50D63E5809140
:100C40000601909107010E94C3240C94C50D8438BD
:100C500079F40E94C22382FF35C067E480910601C7
:100C6000909107010E94B8240E94C50D67E4E7CF68
:100C70009CEF980F913A10F4682FE1CF90E2980F13
:100C8000983050F4877091E001C0990F8A95EAF787
:100C9000892F0E948C0DD9CF9BE5980F933020F4BB
:100CA00080E090E00C94F62398E5980F973120F4BB
:100CB00080E090E00C940C24803F20F00E942614E9
:100CC0000C949D1408951F93CF93DF93182FEB017D
:100CD0000E945105209741F08FE99FE00197F1F7BD
:100CE00000C000002197F6CF812FDF91CF911F9197
:100CF0000C94FB05893319F060E070E002C060E5F8
:100D000070E00C946306882321F00E94860D0C94F9
:100D1000C50D0895882321F00E948C0D0C94C50DFB
:100D20000895CF92DF92EF92FF920F931F93CF938C
:100D3000DF937C01162FC72FFC01D281058102951C
:100D40000F700E947C0D8823B9F0DD23A9F08C2F51
:100D5000807F803421F080E2810F883068F08091BC
:100D6000D50282FD09C082E00E94250E0E947C0D02
:100D700091E0D82ED92601C0D12CCC2EC2948FE080
:100D8000C8228C2D90E08C30910508F09EC1FC01AA
:100D9000EA5AFF4F0C94E62D8C2F807FCF7088236A
:100DA00011F0C295C07FDD2399F0CC2309F479C1FD
:100DB00080E2810F883010F0111104C08C2F0E9446
:100DC000860D03C08C2F0E94960D0E94C50D69C12F
:100DD000812F0E94FB05CC2309F477C180E2810FAB
:100DE000883038F1112329F18C2F0E949C0D24C0EA
:100DF0008C2F807FCF70803211F0C295C07F11237D
:100E000019F01130A1F13DC08091D50282FF17C0C9
:100E1000DD2349F0CC2329F08C2F0E94860D0E94FF
:100E2000C50D80E03FC180E00E94FB05CC2309F4A2
:100E30004CC18C2F0E948C0D0E94C50D46C1DD2334
:100E400071F0002341F0013031F40E94A60D8C2B8B
:100E50000E94AE0D3AC10E94A60D8C2B1DC000232E
:100E600019F0013009F431C10E94BB0D25C0DD230A
:100E700021F0063008F029C10EC0053008F025C168
:100E80001BC0DD2361F0002331F0F701858180FF75
:100E900008C18F7085838C2F0E94830616C10023A2
:100EA00059F0193309F00EC1FFEF27EE83E0F1503E
:100EB00020408040E1F704C18C2F0E948A0605C1C2
:100EC0008C2F86958695837019F0813061F0FDC076
:100ED000DD2321F0812F9C2F937002C080E090E0F1
:100EE0000E94F623FAC0DD2321F0812F9C2F9370FE
:100EF00002C080E090E00E940C24EFC0812FDD232F
:100F000019F00E94CB1302C00E9426140E949D1467
:100F1000E4C08C2F837079F5D111DBC0412F42954D
:100F200046954770440F440F212F2F70042E01C0A7
:100F3000220F0A94EAF714FF08C08FE090E001C086
:100F4000880F4A95EAF7809501C080E0C695C6955E
:100F5000C370822BC23049F058F4C13019F00E949E
:100F60004E09B7C00E944909B4C00E945309B1C0DC
:100F70000E944709AEC0DD2319F08C2F817001C09B
:100F80008695882309F4A5C0412F42954695477060
:100F9000440F440F212F2F70042E01C0220F0A94FA
:100FA000EAF714FF08C08FE090E001C0880F4A956F
:100FB000EAF7809501C080E0C695C695C370822B84
:100FC000C23049F058F4C13019F00E94920981C032
:100FD0000E948D097EC00E9497097BC00E945A0919
:100FE00078C0CF70DD2339F08C2F0E946B09812FE0
:100FF0000E9483066EC0812F0E948A068C2F0E9459
:10100000760967C0123F21F128F4103F41F0113FEB
:10101000C1F043C0133F19F1143F79F03EC0DD2306
:1010200041F0053008F051C08C2F8F710E94820969
:101030004CC0063008F049C0F7CF8091D50282FF3E
:1010400018C0DD2339F08C2F8F710E946B093DC0D1
:10105000DD23C9F38C2F8F710E94760936C0DD2302
:1010600029F08C2F8F710E9463092FC00E946009A4
:101070002CC0DD2349F0CF718C2F0E946B0963E0F7
:101080008C2F0E940A0E21C081E00E94250E0230A2
:10109000E0F082E00E94250E18C0DD2331F000232D
:1010A00091F2812F0E94510510C0002399F219334B
:1010B00049F49FEFE7EEF3E09150E040F040E1F7B4
:1010C00000C00000812F0E94FB0588EF8C0D84304A
:1010D00020F40E94C2230E94E604DD20C9F00E9491
:1010E000780D80FD15C0F70112820E94720D0E94DA
:1010F0006B09C7010E94A9080E94720DDF91CF9170
:101100001F910F91FF90EF90DF90CF900C94760994
:10111000DF91CF911F910F91FF90EF90DF90CF90D3
:1011200008950F931F93CF93DF93EC01688179812A
:101130008A810E942A0A8C010E949C090E943B0914
:10114000B801CE010E949106DF91CF911F910F91BE
:101150000895CF93DF93EC01988189812B813C81A5
:10116000232B31F08F3F31F481E09F3F19F403C00E
:1011700081E001C080E080FD1DC0CE010E94A0037F
:10118000811110C00E947C0D8823A1F08A818823E0
:1011900089F08091D50282FD0DC082E0DF91CF9170
:1011A0000C94250ECE010E949108CE01DF91CF91C3
:1011B0000C945A03DF91CF91089580E090E00E9453
:1011C000F62380E090E00E940C240E94A30D0E9470
:1011D000C50D0E94CE150C949D148091060190912E
:1011E00007010E94CE240C94DD080E94930D0C94FC
:1011F000ED0892959F70963079F010F4925001C0EE
:101200009A50923068F4803F69F018F4883E40F4B8
:1012100009C0843F29F406C0883E20F0813F11F0C8
:1012200080E0089581E00895FC01808191810E9411
:101230001F0A0E94F9080895CF93DF9300D000D0D1
:101240001F92CDB7DEB70F900F900F900F900F90B9
:10125000DF91CF910895CF93DF9300D000D000D0DD
:10126000CDB7DEB726960FB6F894DEBF0FBECDBF62
:10127000DF91CF910895089508950C943C090C9442
:101280003D090E943F098093DA010C94DD080C941B
:1012900041099091DA01892B0C9441099091DA016E
:1012A00089230C9441099091DA0189270C94410912
:1012B0000C943C090E9458098093D9010C94DD08D4
:1012C00080E00C945A0991E001C0990F8A95EAF7E1
:1012D000892F0C945A0921E030E001C0220F8A9531
:1012E000EAF78091D901822B0C945A0921E030E071
:1012F00001C0220F8A95EAF720958091D9018223B7
:101300000C945A0921E030E001C0220F8A95EAF7D7
:101310008091D90182270C945A099091D901892B87
:101320000C945A099091D90189230C945A099091EF
:10133000D90189270C945A090895990F990F890F9B
:10134000E82FE695E695E695877051E001C0550FC8
:101350008A95EAF783E0E89FF0011124EA52FE4FF4
:1013600020E030E070E04081CB01022E02C0969573
:1013700087950A94E2F781708195842785238427D5
:1013800081932F5F3F4F2330310569F70895990FFF
:10139000990F890F682F669566956695982F9770B7
:1013A00083E0689FB001112440E050E080E0FB0141
:1013B000E40FF51FEA52FE4F208130E0092E02C0F3
:1013C000369527950A94E2F721703327042E01C041
:1013D000220F0A94EAF7822B4F5F5F4F433051058B
:1013E00031F70895CF92DF92FF920F931F93CF931F
:1013F000DF936C010091D9018091DA01082BC7E0DD
:10140000D0E010E0C8010C2E02C0959587950A9493
:10141000E2F780FD04C02197A8F7F12C07C0FC2E4D
:10142000B6018C2F0E9403110197A9F38F2DDF9134
:10143000CF911F910F91FF90DF90CF900895CF93A0
:10144000DF93EC010E94F209BE010E940311DF91BB
:10145000CF9108951F93CF93DF93EB019091D50126
:10146000992321F0CB010E941F0A13C0882349F061
:10147000CB010E94F209182F682FCE010E949D090E
:1014800004C0CB010E94C709182FBE01812F0E9402
:101490000311DF91CF911F9108951F93CF93DF9395
:1014A000C091DB0116E08091DC01C81799F0D0E013
:1014B0001C9FF0011D9FF00D1124E352FE4F40814F
:1014C000518162817381848195810E942B092196CB
:1014D000C770E9CFDF91CF911F91089540910D0220
:1014E00050910E0260910F027091100280911102D2
:1014F000909112020C942B09EF92FF920F931F937D
:10150000CF93DF938091120282958F7009F065C0AE
:1015100080910F02882309F460C08091DB01F09074
:10152000DC0110910D0200910E0260911002709189
:10153000110291E01F3F09F090E0C0910401D091A9
:101540000501292F96E0E92E8F1509F446C0611593
:10155000710521F00F3F21F030E003C031E001C000
:10156000322F90E030FD36C0E89EF001E99EF00D8C
:101570001124DF01A352BE4F11963C9111973013F5
:1015800029C03C91311326C012963C91129731111B
:1015900021C013964D915C911497461B570B4C1725
:1015A0005D07C0F4809112028F70806180931202F7
:1015B000EE51FE4F80818F70806180838DE092E0DC
:1015C0000E94A908DF91CF911F910F91FF90EF909A
:1015D0000C944D0A01968770B7CFDF91CF911F9180
:1015E0000F91FF90EF9008959F92AF92BF92CF928C
:1015F000DF92EF92FF920F931F93CF93DF93CDB7BC
:10160000DEB761970FB6F894DEBF0FBECDBF8C0179
:1016100085E0F801DE011D9601900D928A95E1F7B3
:10162000D8011296EC9090910D02E0910E0220915B
:101630001002309111022115310531F0EF3F31F4E4
:1016400081E09F3F19F403C081E001C080E0B82F22
:10165000B1709B2E80FD47C1D8014C9111965C91D1
:1016600011971396AD90BC9014978DE0C82E82E030
:10167000D82EF0900F02B501621B730B209104016C
:1016800030910501FF2009F4D9C080911202621740
:10169000730708F095C0282F207F09F052C05E1311
:1016A00013C0491311C0FE2CE1100EC08F70806171
:1016B000809312020E946E0AC6010E94A9088091BE
:1016C0001202F80185834DC1AB2831F05F3F31F440
:1016D00081E04F3F19F403C081E001C080E080FD4C
:1016E00003C081E08E2502C080E090E0F82FF17009
:1016F000FF2E80FF1CC08091DB012091DC0136E0D1
:10170000821709F40BC190E0389FF001399FF00D6A
:101710001124E352FE4F6181561306C060814613C7
:1017200003C06281E61203C001968770E9CFFE2CE8
:10173000EE2009F416C1809112028160809312029A
:1017400054C05E1306C0491304C0E11002C0F80182
:1017500099C0C8010E941409882361F1EE2051F15B
:1017600020911202822F82958F7090E0029774F080
:1017700080910D0290910E0298878F831986BB8607
:10178000AA862C87CE0107960E94A90886E0F80158
:10179000ADE0B2E001900D928A95E1F70E947C0ADB
:1017A0000E946E0A0AC05E1711F1C8010E94140956
:1017B00081112CC0C8010E94A908FF24F394D1C054
:1017C000282F207F81F77A2DB98AA88A6E2D8989E2
:1017D0000E941C098DE092E00E94A90886E0D601D3
:1017E0001D928A95E9F70E946E0AF12CBAC049133E
:1017F000DCCFE110DACFF8018583C8010E94A90887
:1018000086E0D6011D928A95E9F7ABC0EE2091F2F1
:1018100020911202822F82958F7090E002970CF433
:10182000B5CF80910D0290910E029A8389831B821D
:10183000BD82AC822E83CE010196A6CF62177307BC
:1018400008F044C0FE2CEE2009F4B4CF5E1330C083
:1018500049132EC02091120220FD21C0822F8295B3
:101860008F70482F50E041155105C9F0F8012583CC
:101870004F30510541F08F5F982F9295907F822FC6
:101880008F70892B8583C8010E94A90886E0F80122
:10189000ADE0B2E001900D928A95E1F73CC086E0A0
:1018A000F801ADE0B2E001900D928A95E1F759C0E0
:1018B000C8010E941409811169CF809112028160D0
:1018C00080931202C8010E94A9084BC07A2DB98AE0
:1018D000A88A6E2D89890E941C0986E0D6011D9276
:1018E0008A95E9F718C0EE2009F464CFC8010E9478
:1018F0001409F82E882309F45DCF86E0F801ADE0E5
:10190000B2E001900D928A95E1F78DE092E00E949D
:101910004B050E947C0A0E946E0A23C04D875E8799
:101920008D859E850E941F0A292F22952F702230B7
:1019300028F49F7039F0811105C00BC0243028F4C1
:101940009F7049F4805E883020F0C8010E94A90889
:101950009F2CF92C06C0D80115969C91907F91F789
:10196000F8CF8F2D61960FB6F894DEBF0FBECDBFB6
:10197000DF91CF911F910F91FF90EF90DF90CF906B
:10198000BF90AF909F9008951F93CF93DF93CDB7F3
:10199000DEB72C970FB6F894DEBF0FBECDBF4F83D6
:1019A000588769877A878B879C87CE0107960E9424
:1019B000F40A8823D1F09F8188852A853B85232BD3
:1019C00031F08F3F31F481E09F3F19F403C081E093
:1019D00001C080E080FD47C04F81588569857A85C8
:1019E0008B859C850E942B093EC086E0FE013796C0
:1019F000DE01119601900D928A95E1F7FF81E8854D
:101A00006A857B856115710531F0EF3F31F481E026
:101A1000FF3F19F403C081E001C080E080FD23C0D6
:101A20002091DC0130E0C90101968770992740912F
:101A3000DB0150E084179507F1F1F983EA837D8398
:101A40006C8396E0929FD001939FB00D1124A35216
:101A5000BE4FFE01319601900D929A95E1F7809369
:101A6000DC010E944D0A16E08091DB019091DC01BF
:101A7000891771F1189FC001112483529E4F0E9453
:101A8000F40A882329F1E091DB011E9FF001112463
:101A9000E352FE4F4081518162817381848195813F
:101AA0000E942B098091DB0190E0019687709927B5
:101AB0008093DB01D9CF0E94F5081092DC011092CF
:101AC000DB01EDE0F2E086E0DF011D928A95E9F7A7
:101AD0002C960FB6F894DEBF0FBECDBFDF91CF912D
:101AE0001F91089580913302859585958595089578
:101AF000809133028770089590913302977081E04E
:101B000009F480E00895809156020895909156025C
:101B1000892B8093560208958095909156028923CF
:101B2000809356020895109256020895909155029E
:101B3000892B8093550208958095909155028923B1
:101B400080935502089510925502089580913402B1
:101B5000089508950C94A90D0C94AA0D9091D502A6
:101B600092FD08C090913402981721F080933402BE
:101B70000C94AC0D089580913402882329F01092C2
:101B8000340280E00C94AC0D0895CF93DF93E09184
:101B90000601F0910701809156028083E0910601D1
:101BA000F0910701908180915502892B808380916B
:101BB0003402882381F0E0910601F09107019081C1
:101BC000892B808380910601909107010E94222435
:101BD00081110E94BB0DC0910601D091070140E226
:101BE00050E063E172E0CE010E948D2E892B69F0F6
:101BF00080E2FE01A3E1B2E001900D928A95E1F747
:101C0000CE01DF91CF910C94CE23DF91CF91089537
:101C10000C94A90D9091D50292FD10C098E0899F77
:101C200090011124262B209333020E946B0980918E
:101C300033028595859585950C94080E0C946B0957
:101C40001092330280E00C94080E209133028095AC
:101C5000822380933302982F977099F430E0482FB5
:101C6000082E000C550B2417350759F09091D5021A
:101C700092FD07C08595859585950E9476090C94FF
:101C8000200E08959091D50292FB222720F9281763
:101C900069F080FB92F99093D5028091D4029091E3
:101CA000D5020E94900E82E00C94250E089580913A
:101CB000D50282FB882780F991E089270C94420E97
:101CC00081E00C94420E80E00C94420E6FEF7FEFA7
:101CD00080E090E00C94CC2E80E090E00E94A82E52
:101CE000893E9E4F11F40C94561E80E0089582E0C8
:101CF00090E00C949A2E83E090E00C949A2ECF936F
:101D000084E090E00E949A2EC82F82E290E00E9428
:101D10009A2E2C2F30E0A901582BCA01CF9108959B
:101D2000CF93C92F682F84E090E00E94AE2E6C2FD5
:101D300082E290E0CF910C94AE2EAB01BC018FE01B
:101D400090E00C94C02EAB01BC0183E190E00C94B8
:101D5000C02E60E070E0CB010C94A30E60E070E058
:101D6000CB010E949D0E0C94A90E69EE7EEF80E0DF
:101D700090E00E94CC2E60E082E090E00E94AE2EC7
:101D800060E083E090E00E94AE2E1092DA0160E005
:101D900084E090E00E94AE2E60E082E290E00E943B
:101DA000AE2E60E085E090E00E94AE2E60E086E01E
:101DB00090E00E94AE2E6FEF87E090E00E94AE2E82
:101DC00040E050E0BA0188E090E00E94C02E60E060
:101DD0008DE090E00E94AE2E40E050E0BA0188E134
:101DE00090E00E94C02E60E087E190E00E94AE2E5D
:101DF00040E050E0BA018CE190E00E94C02E60E02B
:101E000070E080E290E00E94CC2E40E050E0BA0109
:101E100088E190E00E94C02E80E00E946F1E0E9428
:101E2000A21E0C94AE0E0C94B50E682F8EE090E0BE
:101E30000C94AE2E0E94892560935D0270935E0221
:101E400080935F02909360026093590270935A02EC
:101E500080935B0290935C02089585B7806885BF8C
:101E600085B7806885BF089581E008950C94340F8C
:101E700008950C94380F0C94380F0C943B0F0C946D
:101E8000380F0C943F0F0C94380F0E942D0F8FEDDC
:101E900091E10E94B8230E94430F0C94410F0E94CD
:101EA000390F0C94380F0E94F9110C94E5040E942C
:101EB00074250E94B11E0E94BC120E94530F0E9402
:101EC0005C1C0C943D0F8F929F92AF92BF92CF9269
:101ED000DF92EF92FF920F931F93CF93DF93CDB7D3
:101EE000DEB72A970FB6F894DEBF0FBECDBF0E94B3
:101EF000CB12982E81110E941A0F87E5A82E82E03E
:101F0000B82E00E010E0802E802F0E941312D82EF1
:101F1000F501C1905F01C826B1F40F5F1F4F023079
:101F2000110589F78FEF89838A831B820E947D25A3
:101F30008160782F9D838C8349815A816B818D814B
:101F40000E9401052FC08091610281FD0E9419123B
:101F5000E12CFF24F3948C2D8F21F1F00E94360F99
:101F6000882399F0EE828F82DF2081E009F480E0FF
:101F700088870E947D258160782F9A8789874E8186
:101F80005F8168858A850E940105F801E95AFD4F45
:101F90008081F826F08206C0E394FF0CF4E0EF1293
:101FA000DACFBBCF81E0911001C080E02A960FB656
:101FB000F894DEBF0FBECDBFDF91CF911F910F917F
:101FC000FF90EF90DF90CF90BF90AF909F908F9059
:101FD00008950E94630F0E94A01C0E94BB140C94E1
:101FE000F604CF93DF930E940811EC01811521E5DF
:101FF000920708F045C0811530E5930708F094C0BA
:10200000883E910528F5803E910508F0F8C0883A91
:10201000910570F4853A910508F07CC081309105F6
:1020200009F475C008F4E8C0049708F0E8C0E4C0FB
:102030008F3B910508F0E0C0C85AD0E0CC0FDD1FFF
:10204000CF59DE4F0990D881C02DCE019464D8C0FD
:10205000811540E2940758F4811551E0950708F086
:10206000CEC0803F910508F4C7C09065C9C0C115B6
:1020700080E4D80708F4C0C0DF70CE01906AC0C009
:10208000811525E59207A8F4811534E5930708F03A
:1020900095C0811543E5940708F07BC0811552E592
:1020A000950708F061C0D82FCC27CE01816F906AC8
:1020B000A7C0C11589E5D807A0F4C11528E5D20746
:1020C00008F082C0C11536E5D30708F095C08C2F03
:1020D0000E949C118F7190E0D82FCC27CE01906286
:1020E0008FC0C1154AE5D40708F474C0CE019056DC
:1020F0008115904208F080C08D2F8F710E949C1135
:10210000DD27D0628F71AE01582BCA0179C081E002
:1021100090E076C0C55AD0E0C157DE4F8881C82F05
:10212000D0E0CE0190646CC074E0969587957A9566
:10213000E1F7282F23703C2F337081E090E002C03C
:10214000880F991F3A95E2F79C68AC01522B9A01CF
:102150009C2F9F709695969550E2959FE0011124D3
:10216000C9018C2B9D2B4CC08370992721E030E056
:1021700002C0220F331F8A95E2F79C2F9695969501
:1021800080E2989FE0011124C22BD32BCE019C68E2
:1021900037C08370992721E030E002C0220F331F3F
:1021A0008A95E2F79C2F9695969540E2949FE001E0
:1021B0001124C22BD32BCE019A6822C0D82FCC2752
:1021C000CE01846F906A1CC0DC2FCC27CE01806FBB
:1021D000906A16C08C2F8F700E949C1194E0D69547
:1021E000C7959A95E1F7CF70D0E0DC2FCC27D06966
:1021F0009E01282BC90104C080E090E001C0CE01FF
:10220000DF91CF9108950E9400220E94F10F08955E
:102210008238910569F1B0F48133910509F46DC0FC
:1022200048F48932910509F463C08A32910509F4B2
:1022300069C008958533910509F455C08933910526
:10224000B9F00895833E910569F138F4803E910517
:10225000B1F0823E910509F10895863E9105A9F1FC
:10226000873E9105B9F1843E910509F064C023C011
:102270002091D40220FD4FC021FD4DC008958091D2
:10228000D40280FD44C08091D50280FF44C080917B
:10229000D40284FD42C083EE4DC08091D40282FFFF
:1022A00038C0F5CF8091D40282FD33C08091D50231
:1022B00080FD31C0ECCF8091D50281FF32C080918A
:1022C000D40284FD2AC087EE35C08091D40283FFFA
:1022D00026C0F5CF8091D40283FD21C08091D50224
:1022E00081FD1FC0ECCF8091D40285FD1CC01DC0B4
:1022F0008091D40285FD19C016C08091D40286FD5C
:1023000016C017C08091D40286FD13C010C089E3A7
:1023100011C082EE0FC080EE0DC080E00BC086EED3
:1023200009C084EE07C089E205C085E303C08AE2E4
:1023300001C081E390E008959091D40292FF0DC016
:10234000282F2871283019F4877F846006C0282F31
:102350002471243011F48B7F886093FF0DC0282FE7
:102360002871283119F4877E846106C0282F2471D2
:10237000243111F48B7E88612091D50220FF0DC09D
:10238000382F3871383019F4877F816006C0382FB4
:102390003171313011F48E7F886021FF0DC0282FFC
:1023A0002871283119F4877E816106C0282F217198
:1023B000213111F48E7E886194FD877E089580E03E
:1023C00008950C94660E0E94CB128FE39CE901974E
:1023D000F1F700C000000E94CB1280E00E941312AF
:1023E00080FF04C00E94E1110C94CA2508950C944A
:1023F000E3110E946C0E811102C00E94130F0E9413
:10240000770E809361020E947F0E9093D502809395
:10241000D4020E94F7110E947B0E0E94470980910E
:10242000D9010C945809E82FF0E0E852FD4F808163
:102430000895089580EA8A95F1F7089500C00895F7
:102440000C941A1208950C9422120C9423120C94DA
:1024500022120C942712F894E82FE295EF70F0E026
:1024600031A1282F2F7081E090E001C0880F2A95BC
:10247000EAF7982F9095932391A392A1892B82A399
:1024800078940895CF93DF9384E30E942B1286E320
:102490000E942B12C2E9D1E089918F3F11F00E9476
:1024A0002B1281E0C639D807B9F7DF91CF91089593
:1024B000CF92DF92EF92FF920F931F93CF93DF9310
:1024C0008C01C62FD0E0CE018A569E4F7C01FC01C4
:1024D00090819F3F09F447C0D62EF894E92FE295EA
:1024E000EF70F0E081A19F7021E030E001C0220F89
:1024F0009A95EAF7822B81A382A12095282322A313
:1025000078940E941E12E2E9F1E046E951E031E0E0
:10251000C12C21912F3F89F0A22FA295AF70B0E07E
:1025200090968C9190E02F7002C0959587952A9592
:10253000E2F780FD02C0832F01C080E0C82A330F7C
:102540004E175F0731F7F70180818F3F11F00E942E
:102550002B1261E0C11001C060E08D2D0E9420129D
:10256000C00FD11FC882DF91CF911F910F91FF90B3
:10257000EF90DF90CF9008950E9442121092D902FE
:102580001092D8021092D7021092D60282E00E94D6
:1025900003130C948C031F93CF93DF9300D0CDB71C
:1025A000DEB71A82198260E0CE0101960E945812AD
:1025B00061E0CE0101960E94581242E050E0BE0157
:1025C0006F5F7F4F86ED92E00E948D2E11E00097A5
:1025D00009F410E0892B31F089819A819093D70218
:1025E0008093D602212F42E068ED72E086ED92E002
:1025F0000E9404130E948E03812F0F900F90DF9191
:10260000CF911F9108950895FF920F931F93CF9339
:10261000DF938C01F62ED72FC42F222349F081E0BF
:10262000809364020E947D259093630280936202EE
:10263000809164028823C1F08091620290916302CC
:102640000E949525059780F0EF2DFD2FD8014C2F86
:1026500050E0CD01801B910B841795071CF48D91E0
:102660008193F7CF10926402DF91CF911F910F9168
:10267000FF9008950E94C8270E94570F0C94D427FA
:102680000E94D8270E94E90F0C94F2270E941B2574
:102690000E94AF270E94450F0E943A130E944013E8
:1026A0000E944F0FFBCF80916B0280FF06C06091AC
:1026B0000D0170E0660F771F26C081FF04C0609196
:1026C0000D0184E005C082FF07C060910D0188E024
:1026D000689FB001112417C090916A029923D1F02C
:1026E00060910C01961788F720910D0188E0289FD2
:1026F00090011124929FA001939F500D112470E02E
:10270000CA010E94B02D6038710540F46115710551
:1027100019F406C068E070E0862F08958FE70895E9
:1027200081E0089580916B0280FF08C060910901EB
:1027300070E0759567957595679521C081FF06C016
:102740006091090170E07595679519C082FF04C01A
:102750006091090170E010C090916902992399F08D
:10276000609108019617A0F780910901899FC00127
:10277000112470E00E94B02D6038710540F461159D
:10278000710519F406C061E070E0862F08958FE7A7
:10279000089581E00895803F21F40E9453138195AC
:1027A00004C0813F29F40E94531380936F0208955F
:1027B000823F21F40E945313819504C0833F29F482
:1027C0000E94531380936E020895893F19F40E946A
:1027D000921305C08A3F31F40E9492138195809331
:1027E000700208958B3F21F40E949213819504C0DA
:1027F0008C3F29F40E9492138093710208959CE00B
:10280000980F953078F421E030E0A90102C0440F20
:10281000551F9A95E2F7CA0190916D02892B80931A
:102820006D0208958D3F21F480916B0281600BC091
:102830008E3F21F480916B02826005C08F3F29F4A6
:1028400080916B02846080936B020895803F39F41D
:1028500090916F0297FF35C010926F0259C0813F6F
:1028600029F490916F021916BCF32BC090916E025F
:10287000823F29F497FF25C010926E0249C0833F22
:1028800019F41916CCF31DC090917002893F29F4F8
:102890001916BCF4109270023BC08A3F19F497FFDE
:1028A00010C0F8CF8B3F39F49091710297FF09C0A7
:1028B000109271022DC08C3F21F490917102191673
:1028C000BCF39CE0980F953080F421E030E0A90142
:1028D00002C0440F551F9A95E2F7CA018095909166
:1028E0006D02892380936D0213C08D3F21F4809186
:1028F0006B028E7F0BC08E3F21F480916B028D7F27
:1029000005C08F3F29F480916B028B7F80936B020F
:1029100080916E02811106C080916F02811102C008
:1029200010926A0280917002811106C0809171023A
:10293000811102C01092690208950E947D252091A4
:102940006E02211104C020916F02222321F0909386
:1029500068028093670220917002211104C02091C7
:102960007102222321F090936602809365028CE627
:1029700092E00C94E823EF92FF920F931F93CF9372
:10298000DF9300D000D000D0CDB7DEB786E0ECE614
:10299000F2E0DE01119601900D928A95E1F7E09048
:1029A0006E02F0906F02009170021091710210920D
:1029B0006E0210926F021092700210927102E1107A
:1029C00003C0FF2009F45DC0809167029091680206
:1029D0000E949525AC0190916A02992339F02091CB
:1029E0000E0130E02417350758F04BC020910F013D
:1029F0008AE0289F900111242417350718F041C060
:102A00009F3F19F09F5F90936A02EE2061F00E9451
:102A100053131E1414F09FEF01C091E0989F902D66
:102A2000112490936E02FF2061F00E9453131F1433
:102A300014F09FEF01C091E0989F902D1124909386
:102A40006F0230916E023323E1F020916F02222356
:102A5000C1F045EB3403C0011124992319F0909380
:102A60006E0203C081E080936E0235EB2303C00148
:102A70001124992319F090936F0203C081E0809391
:102A80006F02011103C0112309F45DC0809165023A
:102A9000909166020E949525AC019091690299235C
:102AA00039F020910A0130E02417350758F04BC067
:102AB00020910B018AE0289F9001112424173507EB
:102AC00018F041C09F3F19F09F5F90936902002367
:102AD00061F00E949213101614F09FEF01C091E074
:102AE000989F902D112490937002112361F00E9401
:102AF0009213111614F09FEF01C091E0989F902D52
:102B0000112490937102309170023323E1F02091EF
:102B100071022223C1F045EB3403C0011124992333
:102B200019F09093700203C081E08093700235EB3E
:102B30002303C0011124992319F09093710203C05B
:102B400081E08093710280916E0281110BC08091AF
:102B50006F02811107C080917002811103C08091C2
:102B6000710281110E949D14EB82FC820D831E83F1
:102B700086E0FE013196ACE6B2E001900D928A95B6
:102B8000E1F726960FB6F894DEBF0FBECDBFDF91FA
:102B9000CF911F910F91FF90EF900895ECE6F2E036
:102BA00086E0DF011D928A95E9F710926A02109281
:102BB000690210926B020895EF92FF920F931F9398
:102BC000CF93DF938B01682F11110AC0442329F0A2
:102BD000E82FF0E0E85FFC4F6491762F862F75C0F8
:102BE000212F30E0E82FF0E0442321F0E85FFC4F94
:102BF000E491F0E046E0049FC0011124CFEFD0E063
:102C0000BE010E949C2D4BEA4603C001479F900DD8
:102C10001124800F911D800F911D982F990F890FFE
:102C2000AE01421B530B4E9FD0014F9FB00D5E9FD4
:102C3000B00D11249B2F189FA0011124452F55275B
:102C40008E01041B150B0E9FA0010F9F500D1E9FA0
:102C5000500D11247E01E81AF108E29E8001E39EE6
:102C6000100DF29E100D1124212F3327C21BD30B00
:102C7000CE9F9001CF9F300DDE9F300D112462302A
:102C80007105A9F048F46115710569F061307105AD
:102C9000C9F48B2F752F0DC06430710581F058F089
:102CA0006630710579F47E2F8B2F932F0DC0832F03
:102CB0007B2F9E2F09C08E2F7B2F952F05C08E2F27
:102CC000732F02C07E2F852F692FDF91CF911F9127
:102CD0000F91FF90EF90089541E00E94DC15089558
:102CE00008950E946C160895CF93DF93762FE90123
:102CF000682F842F0E947116798368838A83DF91FD
:102D0000CF9108954D3D08F04CED0C9474168091D0
:102D1000DA02282F269530E02115310519F481704B
:102D2000826005C02B32310524F081708465809368
:102D3000DA028091DD028D3D18F08CED8093DD028A
:102D4000089588E090E00C94A22ECF92DF92EF924B
:102D5000FF926B017C010E948716B701A60188E0F3
:102D600090E0FF90EF90DF90CF900C94C02E609198
:102D7000DA027091DB028091DC029091DD020C940A
:102D8000A516EAEDF2E083E0808311828FEF828363
:102D90008CED8383148260817181828193810C9494
:102DA000A5168091DA0280FF02C08695089580E022
:102DB00008959091DE02933018F49F5F9093DE02A5
:102DC000882351F06091DA027091DB028091DC027D
:102DD0009091DD020C94A516089581E00C94D9160B
:102DE0009091DE02992319F091509093DE0288238E
:102DF00051F06091DA027091DB028091DC029091D7
:102E0000DD020C94A516089581E00C94F0168091D3
:102E1000DE0208958093DE02662351F06091DA02AB
:102E20007091DB028091DC029091DD020C94A5167A
:102E3000089560E00C940A178091DB020895809158
:102E4000DC0208958091DD02089570E00C942B1E41
:102E5000609114018091DA0280FF0AC08091130111
:102E600023E0829FC001112481529D4F0C942517AD
:102E70008091150190911601891780F7E82FF0E0F5
:102E80009F01220F331FE20FF31FE152FD4F11820A
:102E9000108212828F5FF0CF9091DA0290FF16C0FD
:102EA0009091150120911601921770F4E92FF0E02E
:102EB000DF01AA0FBB1FEA0FFB1FE152FD4F818309
:102EC000608342839F5FF0CF0C9428170895CF93BF
:102ED000DF9300D01F92CDB7DEB79091DA0290FF5A
:102EE0000AC09E012F5F3F4F0E9482164B8169816D
:102EF0008A810E944C170F900F900F90DF91CF9115
:102F00000895CF93DF93EC01EC81F0E0ED5FFD4F8E
:102F10004491EAEDF2E0628181810E9467178C8121
:102F20008F5F8C83DF91CF910895CF93DF93EC0176
:102F3000EAEDF2E0438162818C810E9467178C8107
:102F40008F5F8C83DF91CF9108950F931F93CF9361
:102F5000DF9300D01F92CDB7DEB78C018091720253
:102F600081110AC09E012F5F3F4F4CED6FEF0E9411
:102F700082168A8180937202F8018481813051F037
:102F800028F0823061F4409172020AC0809172028E
:102F900040E007C06091720240E080E003C040E082
:102FA00080E060E00E944C17F801848190E0019677
:102FB00063E070E00E94B02D84830F900F900F901B
:102FC000DF91CF911F910F910895AF92BF92CF9251
:102FD000DF92EF92FF920F931F93CF93DF9300D076
:102FE0001F92CDB7DEB7182FF62E042FE22E909148
:102FF000DA0290FF6DC0E92FE695AE2FB0E0A8563B
:10300000BE4F8C918093A1029E7F923061F49E010D
:103010002F5F3F4F812F0E9482164B8169818A81E9
:103020000E944C1743C0823019F40091DD023EC06B
:10303000863019F41091DB0239C08930D9F3893117
:10304000A9F5E9518E2F8170D82EE695F0E0ED5F5D
:10305000FC4FA590B490C12CBB2460911701C616FB
:1030600018F52C2D30E0A29EC001A39E900DB29EBB
:10307000900D112470E00E949C2D812FD11002C070
:10308000860F01C0861B90911501290F311DA901E2
:10309000440F551F240F351F21523D4F402F6F2DD8
:1030A0000E948216C394D9CF0E9428171093DB0286
:1030B000F092DC020093DD02EE2051F06091DA0222
:1030C0007091DB028091DC029091DD020E94A516D6
:1030D0000F900F900F90DF91CF911F910F91FF9064
:1030E000EF90DF90CF90BF90AF900895EAEDF2E0BF
:1030F0009181282F4381628188E0890F0C94E51724
:1031000081E00C947618EAEDF2E09181282F43815A
:10311000628188EF890F0C94E51781E00C94831885
:10312000EAEDF2E0628128E0620F08F46FEF282FE9
:10313000438181810C94E51781E00C949018EAEDAD
:10314000F2E0628128E0621B08F460E0282F4381EE
:1031500081810C94E51781E00C949F18EAEDF2E070
:10316000438128E0420F08F44FEF282F62818181CC
:103170000C94E51781E00C94AE18EAEDF2E043817F
:1031800028E0421B08F440E0282F628181810C94E2
:10319000E51781E00C94BD1820E00C94E517FF9230
:1031A0000F931F93CF93DF93EC01F12C0FEF10E0FF
:1031B00060911701F616F0F4809115012F2D30E083
:1031C000280F311DC901880F991F280F391F21525F
:1031D0003D4F70E0C8010E94B02D962F8C81409128
:1031E000DD026091DC02F99E800D11240E9482169E
:1031F000F394DECF0E9428179A818C8190FF02C041
:103200008F5F01C081508C83DF91CF911F910F910F
:10321000FF900895AF92BF92CF92DF92EF92FF920C
:103220000F931F93CF93DF93FC01828180FF02C035
:103230000FEF01C001E010E047E0A42E80911701DC
:10324000181708F043C080911501C12ED12CE6015A
:10325000C80FD11DCE01880F991FC80FD91FC152A9
:10326000DD4F198218821A8234E0E32EF12CB12C42
:10327000809174028B0D88302CF06A2D0E948E2D67
:10328000892F05C087FF03C090911701890F082E71
:10329000000C990BC816D90691F48091DD028E9D21
:1032A000A0018F9D500D1124559547955595479533
:1032B0009E016091DC028091DB020E948216B00EBA
:1032C000F1E0EF1AF108A1F61F5FB8CF0E942817AE
:1032D00080917402013031F4811102C08091170194
:1032E000815007C090E001966091170170E00E9444
:1032F000B02D80937402DF91CF911F910F91FF90B9
:10330000EF90DF90CF90BF90AF900895CF938091D2
:10331000150190911601891770F4E82FF0E09F01D4
:10332000220F331FE20FF31FE152FD4F1182108273
:1033300012828F5FF0CFC0E060911701C617C0F511
:10334000EC2FF0E070E0CF010E94B02D209115012C
:10335000820F20917302022E000C330B90E0E217D3
:10336000F307CCF020911201022E000C330B2E1724
:103370003F078CF09C01220F331F820F931F9C018B
:1033800021523D4F4091DD026091DC028091DB02D1
:103390000E9482160BC0FC01EE0FFF1F8E0F9F1FB5
:1033A000FC01E152FD4F118210821282CF5FC4CF27
:1033B0000E9428172091110180917302820F80933F
:1033C000730290911201920F9093120119165CF4FE
:1033D000082E000C990B4091170150E04150510903
:1033E000841795071CF0219520931101CF91089522
:1033F0008F929F92AF92BF92CF92DF92EF92FF9205
:103400000F931F93CF93DF938C01FC014481C42F52
:10341000D0E09E01DE010E94FB2D9B01AC010E94C9
:10342000112E6B017C01E0E2F0E0EC1BFD0BA5E549
:10343000B0E09B01AC010E94112E4B015C019F0189
:10344000DF010E94F32D9B01AC010E941C2E9B0109
:10345000AC012C0D3D1D4E1D5F1DC501B4010E9428
:10346000C42DC22FD22F2A3228F4F3E02F9F9001CF
:1034700011240DC025E530E02C1B3109C901880F4E
:10348000991F280F391F37FF02C02F5F3F4F359517
:103490002795C22FC095F12C85E5E82EED1A809175
:1034A0001701F816C8F4F1FC02C08E2D01C08D2F53
:1034B000909115012F2D30E0290F311DA901440FE6
:1034C000551F240F351F21523D4F4C2F6091DC02B8
:1034D0000E948216F394E3CF0E942817F80184819A
:1034E000811102C091E003C0803219F49FEF9093E4
:1034F000100190911001890FF8018483DF91CF9121
:103500001F910F91FF90EF90DF90CF90BF90AF9001
:103510009F908F9008950F931F93CF93DF93EC01AB
:1035200000E010E080911701282F30E00217130708
:1035300024F5909115019801290F311DA901440F1F
:10354000551F240F351F21523D4F869590E04C8129
:10355000081719071CF4442331F002C0411103C0BD
:103560004091DD0201C040E06091DC028091DB020D
:103570000E9482160F5F1F4FD5CF0E9428178C81A3
:1035800090E00196817099278C83DF91CF911F91F4
:103590000F9108957F928F929F92AF92BF92CF9298
:1035A000DF92EF92FF920F931F93CF93DF93FC0173
:1035B0008280748081E08483E3E0F2E09490E2E82A
:1035C000F2E0E491A12CF5E0BF2ECC24CA94D12CDA
:1035D000E9190E2F10E080911701A81608F0A2C07B
:1035E000EA2CF12C22E0281568F0BE9CF001BF9C6B
:1035F000F00D1124EB58FD4F8091DB028083809108
:10360000DC02818371100AC0BE9CF001BF9CF00DEA
:103610001124EB58FD4F138212826AC0BE9CE00158
:10362000BF9CD00D1124CB58DD4F8B818823F9F03E
:1036300081508B832FEF829FC00111246C8170E039
:103640000E949C2DFB01FF27ED5FFD4F8491E82F29
:10365000E9192FEFE29FC0011124B8010E949C2DAF
:103660008091DD02689FB00111247A8341C00E94DD
:10367000702E2091DD022695215830E0A901440FDB
:10368000551F322F2227240F351F232F3327821750
:10369000930774F582E0881588F40E94702EB601B5
:1036A0000E94B02D88830E94702E2091DC02269506
:1036B000622F70E00E94B02D280F2983BE9CF0017C
:1036C000BF9CF00D1124EB58FD4F12828091DD025A
:1036D000843120F0893C18F088EC01C084E1BE9C64
:1036E000F001BF9CF00D1124EB58FD4F84838383C0
:1036F000809115019701280F311DC901880F991F6D
:10370000280F391F21523D4FBE9CF001BF9CF00D88
:103710001124EB58FD4F4281618180810E94821605
:10372000A39459CFDF91CF911F910F91FF90EF900C
:10373000DF90CF90BF90AF909F908F907F900C9430
:103740002817EAEDF2E080818E7F808360817181AD
:10375000828193810E94A5161092A2022FEF80E72A
:1037600092E0215080409040E1F700C000000C94AE
:103770002817EAEDF2E080818E7F80831092A2020A
:103780002FEF80E792E0215080409040E1F700C0A9
:1037900000000C9428171092A20280919F028111C0
:1037A0000AC081E080939F028091DA028170809349
:1037B0009E020C94B91B08956091DA02669570E040
:1037C0004BE050E088E191E00E94802E892B19F4B3
:1037D00081E08093A2020E947D25909399028093BC
:1037E000980208959091DA0290FF35C0917081118E
:1037F00002C0926006C08B3210F0946502C0880F40
:10380000982B9093DA02662351F06091DA0270915E
:10381000DB028091DC029091DD020E94A51660918E
:10382000DA02669570E04BE050E088E191E00E949A
:10383000802E892B19F01092A20202C00E94DC1B7C
:1038400081E080939B024091DD026091DC028091D7
:10385000DB020C94CC180895682F9091DA029695AB
:1038600081E0890F8B3208F081E00C94F21B81E03B
:103870000C942C1C682F9091DA0296958FEF890F8B
:1038800009F48AE20C94F21B81E00C943A1C61E08A
:103890000C94F21BEAEDF2E08081816080838695D2
:1038A0000C94471C8091DA0280FD0C94A11B0C94AF
:1038B0004A1C60E00C94F21B8091A00281112EC082
:1038C0000E946C0E811104C00E94130F0E94C11649
:1038D0000E94A1166093DA027093DB028093DC02EF
:1038E0009093DD026E7F61F40E94C1160E94A116C2
:1038F0006093DA027093DB028093DC029093DD0226
:103900000E9487161092A2028091DA0280FF03C003
:1039100086950E94591C81E08093A0020895EAEDEB
:10392000F2E080818160808386950C94591C10920E
:103930009F0280919E0281110E948F1C0C94DC1BBF
:103940000F931F93CF93DF938091A202882309F4F2
:1039500095C08091A102E091DA02E695E81BE09320
:103960009A02823049F4F0E0E150FE4FE491CE2F0C
:10397000D0E001E817E159C0863049F4F0E0E450A6
:10398000FE4FE491CE2FD0E005E917E14EC089301B
:1039900051F4E695F0E0E750FE4FE491CE2FD0E0F1
:1039A0000FEC18E142C08F3051F4E695F0E0EA5098
:1039B000FE4FE491CE2FD0E00AE019E136C0853108
:1039C00049F4F0E0ED50FE4FE491CE2FD0E006E850
:1039D00019E12BC08831D9F0833239F4E1EFF1E0FD
:1039E000C591D49105EA17E120C08432A9F085324F
:1039F000C1F48E2F63E00E94822DE92FF0E0E251A6
:103A0000FE4FE491CE2FD0E00AEC1AE10EC0C8E2DE
:103A1000D0E008EF19E109C0C4EFD1E00BE81AE1EA
:103A200004C0C0EDD7E000E716E180919B02882337
:103A300061F010929B020E947D25909399028093E1
:103A4000980210929D0210929C020E947D25E091A6
:103A50009802F09199028E1B9F0B8F3F9F4770F445
:103A6000EC0FFD1FF0939902E093980288E992E031
:103A7000F801DF91CF911F910F910994DF91CF91C0
:103A80001F910F910895882311F0FA0101C0FB01E5
:103A90000994CF93DF93C82FD62F0E94D1168C178D
:103AA00040F00E94D1168D1720F4DF91CF910C9435
:103AB000371C8C2FDF91CF910C94471C1F93CF9311
:103AC000DF93FB0112811111C1C0EC010E94830D33
:103AD0008272CC3CFCE5DF0709F49AC008F043C0D1
:103AE000C63CECE5DE0709F47FC0D8F4C33C9CE596
:103AF000D90709F46DC038F4C23CDC4509F0A5C013
:103B00000E94521CA3C0C43C9CE5D90709F465C0BF
:103B1000C53CDC4509F099C04DE858E160E878E122
:103B200060C0C93CFCE5DF0709F468C070F4C73C1D
:103B3000ECE5DE0709F45DC0C83CDC4509F085C052
:103B40004CE958E16BEA78E14CC0CA3C9CE5D907E6
:103B500009F459C0CB3CDC4509F077C044E057E19B
:103B60006DEE76E13EC0C13DFCE5DF0709F45DC0C6
:103B700098F4CE3C9CE5D90709F451C008F44DC037
:103B8000CF3CFCE5DF0709F44DC0C03DDC4509F042
:103B90005CC06EE089E056C0C43D9CE5D90709F4DD
:103BA0004AC058F4C23DFCE5DF0709F441C0C33DFB
:103BB000DC4509F04AC088E142C0C53D9CE5D90713
:103BC000E9F1CD35DD4509F040C06AE285E23AC051
:103BD00044E45CE167E37CE104C047E35CE164E466
:103BE0007CE10E94431D32C040E858E16DE878E175
:103BF000F8CF4BEA58E16CE978E1F3CF49EC58E1B2
:103C00006AEB78E1EECF4AEB58E169EC78E1E9CF75
:103C10004DEE56E164E077E1E4CF81E010C065E06D
:103C200082E010C068E086E00DC064E18FE00AC069
:103C300067E185E107C062E289E104C083E20E9496
:103C4000471C04C00E94491D01C011E0812FDF9173
:103C5000CF911F910895819A21B32D7F31B33260A6
:103C60004FB7F894FC01CB01880F991F680F791F9B
:103C70006E0F7F1FE617F70789F0819198E031BB3F
:103C8000000000C087FF21BB880F000000C000C0FB
:103C900000C021BB00C09A9591F7ECCF4FBF8FE5D4
:103CA00094E00197F1F700C00000089583E290E0EE
:103CB0000E949A2E823281F484E290E00E949A2E31
:103CC000843051F485E290E00E949A2E91E0873290
:103CD00009F090E0892F01C080E081700895CF93B2
:103CE000C82F811102C06FEF01C062E283E290E051
:103CF0000E94AE2EC11102C06FEF01C064E084E2E9
:103D000090E00E94AE2EC11102C06FEF01C067E2C9
:103D100085E290E0CF910C94AE2E089586E290E07B
:103D20000E949A2E682F70E080E090E00895089538
:103D3000CF93C62F0E94971E6C2F86E290E0CF9102
:103D40000C94AE2E80E00E946F1E60E070E0CB010C
:103D50000E94981E0E9485210E945A2281E00C94A4
:103D60006F1E0E948D1E0E948E1E0E94971E0E9432
:103D7000561E811102C00C94A21E0895CF93FB0120
:103D8000C281CC23E9F09C0122513F45203131050D
:103D900020F482510E946A220CC08031FFE59F0707
:103DA00051F481E00E946B0943E062E081E00E94EF
:103DB0008303C0E018C081319F45A9F482E0F2CFAF
:103DC0008031EFE59E0711F481E004C081319F4509
:103DD00049F482E00E94760943E062E081E00E94BB
:103DE000830301C0C1E08C2FCF9108952FEFFC0118
:103DF00020830895CF93DF93EC018881813889F087
:103E000028F48038A1F40E94221710C0823861F093
:103E1000833869F40E941C1789830E941F178A83C4
:103E200006C00E94D11602C00E9407178983DF9145
:103E3000CF910895CF93DF93EC0188818138B1F061
:103E400058F4803851F5D9810E941F17C82F0E945D
:103E50001C174D2F6C2F1DC08238B1F08338E9F448
:103E60000E942217482F6A81898113C089810E948C
:103E7000591C8981811104C0DF91CF910C94B91B29
:103E8000DF91CF910C948F1C8981DF91CF910C949D
:103E90001917DF91CF910C94CC18DF91CF91089531
:103EA0001F93CF93DF93EC01162F0196E8814E2FDD
:103EB00050E0FA013197E331F10508F094C0EE5972
:103EC000FF4F0C94E62D198289E050C08981823021
:103ED00081F0833029F08130F9F40E9489250BC0EC
:103EE00080E00E9413128A8381E00E9413128B8368
:103EF0007CC00E948E1E9A838B837C836D8375C0E9
:103F00008981823049F46A817B818C819D810E9404
:103F1000EC2D0E94981E69C0612FCE010E94F61EF2
:103F200064C04B816A8189810E9457219C838D8363
:103F30005CC02C813D813227232732274B816A8147
:103F400089810E94702151C00E9485214EC00E942B
:103F50001A1F4BC00E94FA1E48C00E94B71645C0E7
:103F60000E940D2224C00E940F2299838A833DC0A3
:103F70006B8170E089819A81AE014C5F5F4F982719
:103F8000892798270E94122230C06B8170E08981B6
:103F90009A81AE014C5F5F4F9827892798270E942E
:103FA000372223C00E945A2220C00E9444218983C4
:103FB0001CC06B8170E089819A81AE014C5F5F4FBC
:103FC0009827892798270E94BC210FC06B8170E039
:103FD00089819A81AE014C5F5F4F98278927982786
:103FE0000E94DF2102C08FEF8883612FCE01DF9115
:103FF000CF911F910C948426CF93DF93EC01FB01AA
:104000008281882309F43CC1C330FDE5DF0760F4F9
:10401000CA3F9CE5D90788F49E0122503C452431D3
:10402000310508F02EC109C0C136EDE5DE0729F0E3
:10403000C53AFDE5DF0709F024C10E947F0E909389
:10404000D5028093D402C1318CE5D80709F4C6C0EB
:1040500008F042C0C930ECE5DE0709F49BC000F56A
:10406000C5308CE5D80709F485C078F4C330ECE599
:10407000DE0709F478C008F07AC0C230DC4509F0E8
:10408000F5C08091D4028160EFC0C7309CE5D907AC
:1040900009F478C008F07AC08091D4028061E4C04D
:1040A000CD30FCE5DF0709F487C058F4CB309CE540
:1040B000D90709F479C008F07BC08091D4028860E8
:1040C0006FC0CF30FCE5DF0709F480C008F082C084
:1040D0008091D402877FC8C0CD3F9CE5D90709F401
:1040E00071C000F5C531FCE5DF0709F485C068F44F
:1040F000C3319CE5D90709F475C008F095C00E944A
:10410000F5088091D4028F77AFC0CB3FFCE5DF0785
:10411000A9F108F054C0CA3FDC4509F0A7C080915E
:10412000D50240C0C130EDE5DE0709F489C058F47E
:10413000CF3F8CE5D80709F45AC008F069C08091D8
:10414000D50282602FC0C136EDE5DE0709F47CC0E0
:10415000C53AFDE5DF0709F481C0C230DD4509F04D
:1041600085C080E06EC08091D40282607DC0809165
:10417000D40216C08091D402886076C08091D502A6
:1041800082604FC08091D40280626EC08091D40260
:1041900080646AC00E94F5088091D402806864C07F
:1041A000846062C081603DC08091D4028E7F5CC01B
:1041B0008091D4028D7F58C08091D40216C0809126
:1041C000D50218C08091D5028D7F2BC08091D4027A
:1041D0008F7E4AC08091D4028F7D46C08091D402E8
:1041E0008F7B42C08091D402877F8B7F3DC08091BE
:1041F000D5028D7F8E7F15C08091D40282FB22274D
:1042000020F991E0922790FB82F990FB83F92CC072
:104210008091D502982F909591708E7F892B90FB7D
:1042200081F98093D50222C00E94F5088091D402C2
:1042300087FB222720F991E0922790FB87F914C091
:1042400081E00E94150F12C08091D40284FB2227C6
:1042500020F991E0922790FB84F906C08091D40266
:10426000982F909590FB80F98093D4028091D4028E
:104270009091D5020E94900E0E94F50880E001C046
:1042800081E0DF91CF91089584E0089550E0440FDC
:10429000551F28E0629F400D511D11249A0160E1D5
:1042A000869F200D311D1124C901879608950F9313
:1042B0001F93CF93DF930E9446218C010E949A2E78
:1042C000C82FD0E0DC2FCC27C80101960E949A2E7F
:1042D0009E01282BC901DF91CF911F910F91089565
:1042E0000F931F93CF93DF93122F032F0E9446212A
:1042F000EC01602F0E94AE2E612FCE010196DF915E
:10430000CF911F910F910C94AE2ECF92DF92EF922E
:10431000FF920F931F93CF93DF93E12CF12CC12CCD
:104320008701D12CC0E0D0E0FE01E00FF11FEE0FBD
:10433000FF1FE250FF4F259134914C2F6D2D8C2D96
:104340000E9470212196C430D10571F70C5F1F4F78
:10435000D39482E0D812E6CFC39488E0E80EF11C33
:1043600084E0C812DDCFDF91CF911F910F91FF90B4
:10437000EF90DF90CF900895EF92FF920F931F93ED
:10438000CF93DF93EA017A01E60EF71E8C01C80194
:104390008796CE15DF0561F00034110520F40E94E8
:1043A0009A2E888301C0188221960F5F1F4FEFCF8E
:1043B000DF91CF911F910F91FF90EF900895EF92B1
:1043C000FF920F931F93CF93DF93EA017A01E60EDA
:1043D000F71E8C01C8018796CE15DF0551F0003419
:1043E000110518F468810E94AE2E21960F5F1F4FB1
:1043F000F1CFDF91CF911F910F91FF90EF90089532
:10440000462F843038F4723028F4643018F4672F63
:104410000C94572180E090E0089580E1089589E9A7
:1044200093E00895EF92FF920F931F93CF93DF9342
:10443000EA017A01E60EF71E8C01C80189599F4FE7
:10444000CE15DF0569F0093923E0120720F40E9438
:104450009A2E888301C0188221960F5F1F4FEDCFDF
:10446000DF91CF911F910F91FF90EF900895EF9200
:10447000FF920F931F93CF93DF93EA017A01E60E29
:10448000F71E8C01C80189599F4FCE15DF0559F0E1
:10449000093923E0120718F468810E94AE2E219694
:1044A0000F5F1F4FEFCFDF91CF911F910F91FF90C3
:1044B000EF900895CF93DF93C7E6D0E060E0CE01A0
:1044C0000E94AE2E2196C11584E0D807B9F7DF917E
:1044D000CF910895DF92EF92FF920F931F93CF93A6
:1044E000DF9300D000D0CDB7DEB7F82E8FE08F1568
:1044F000E8F18FEF93E00E949A2E811137C007E612
:1045000010E0FF2069F0011584E0180779F1C80177
:104510000E949A2E811101C0FA940F5F1F4FF1CFB4
:1045200019821A821B821C82DD24D39478018FEFBA
:10453000E81AF80AC8010E949A2E89831A828823F1
:10454000A9F09FEF980F933058F48A83D9820E5FB9
:104550001F4FC7010E949A2E8B83882339F0780160
:10456000CE0101960E94DB048701E0CF0F900F90EF
:104570000F900F90DF91CF911F910F91FF90EF90CF
:10458000DF900895CF93DF9386319C4541F5EB0191
:104590000E94830D982F8A81209106013091070196
:1045A000882379F09A7A81E009F480E08093A3026D
:1045B000911102C069E201C065E3C9010E94B824FB
:1045C0000AC08091A302811102C069E201C065E3C3
:1045D000C9010E94C3240E94C50D80E001C081E092
:1045E000DF91CF9108950F931F93CF93DF93C42F43
:1045F000D22FFC0182818823C9F04093A6020E9439
:104600007D259093A5028093A40280E28C0F8830D0
:1046100008F057C0C77081E001C0880FCA95EAF75B
:10462000DF91CF911F910F910C9483068091A60288
:10463000481330C08091A4029091A5020E94952554
:10464000883C910538F510E21D0FCD17B9F080E2D6
:104650008C0F883040F4C77081E001C0880FCA9584
:10466000EAF70E948A06183028F581E09D2F97709E
:1046700001C0880F9A95EAF70E948306802F0E9456
:104680007A061830F0F4D77081E001C0880FDA950F
:10469000EAF70AC080E28C0F883098F4C77081E096
:1046A00001C0880FCA95EAF7DF91CF911F910F9152
:1046B0000C948A06802FDF91CF911F910F910C945B
:1046C0007A06DF91CF911F910F9108950F939C016E
:1046D000CB01233F4CE5340731F188F4283DFCE55C
:1046E0003F07D9F0293D4CE5340779F1273D3C459A
:1046F000A9F506E221EE41EE67ED7CE52BC0253FF2
:10470000FCE53F07E1F0A8F0263F3C4539F507E21C
:1047100025EE46EE66EF7CE51DC007E225EE45EE90
:1047200068ED7CE517C006E221EE40EE63EF7CE524
:1047300011C007E225EE44EE64EF7CE50BC006E213
:1047400021EE42EE65EF7CE505C008E221E045EE92
:1047500069ED7CE50E94F32280E008C0FC018281C3
:10476000882319F01092A60201C081E00F910895EC
:104770009093D3018093D20108959093AC028093DB
:10478000AB020895E091AB02F091AC02309721F0BA
:104790000190F081E02D099480E00895E091AB0252
:1047A000F091AC02309799F020912F01222359F01B
:1047B0002091D40227FF07C0DC012C9111962C9385
:1047C000119726E02C930280F381E02D099408953F
:1047D000E091AB02F091AC02309739F022E0DC01BD
:1047E0002C930480F581E02D099408952091A9026D
:1047F0003091AA022817390771F09093AA0280938A
:10480000A902E091AB02F091AC02309721F0068052
:10481000F781E02D099408952091A7023091A80214
:104820002817390771F09093A8028093A702E091AE
:10483000AB02F091AC02309721F00084F185E02DBD
:1048400009940895FC01329680912F01882331F05C
:104850008091D40287FF02C09EE101C096E080E013
:10486000915028F021912223D9F38F5FF9CF089539
:10487000662351F120912F012223E9F02091D402E7
:1048800027FF19C0462F4695469546954E31E0F4D0
:10489000677021E030E002C0220F331F6A95E2F713
:1048A000FC01E40FF11D828190E02823392381E08F
:1048B000232B69F409C0FC013296089621916217F6
:1048C00029F0E817F907D1F780E0089581E008950D
:1048D0009C01FC0132969FEF80E04191461789F0E0
:1048E0009F3F19F4411101C0982F8F5F8630A9F7BF
:1048F0009F3F39F0F901E90FF11D97FDFA956283A9
:10490000089508959C012A5F3F4FFC0142814613A0
:1049100001C01282019682179307B9F70895262FD6
:104920002695269526952E3168F4FC01E20FF11D9F
:10493000677021E030E001C0220F6A95EAF78281BA
:10494000282B22830895262F2695269526952E31ED
:1049500070F4FC01E20FF11D677021E030E001C04E
:10496000220F6A95EAF720958281282322830895F1
:1049700020912F01222329F02091D40227FD0C94AD
:104980008F240C94682420912F01222329F0209158
:10499000D40227FD0C94A3240C94822420912F018F
:1049A000FC013296222331F08091D40287FF02C0AD
:1049B0008EE101C086E0DF011D928A95E9F7089536
:1049C00008950C94E02483E08093AD020C94E124DC
:1049D000811102C081E001C082E08093AD020C949D
:1049E000E1240C94E82481E08093AD020C94E1244E
:1049F0000C94F32408950C94FA240C94FB240C9446
:104A0000FA240C94FA240C94FA240E9401250E94A2
:104A1000CB120E94FF2480E00E941312811108C073
:104A200081E00E94131291E0811103C090E001C067
:104A300091E0892F089508951F920F920FB60F925B
:104A400011248F939F93AF93BF938091AE028111F6
:104A500013C08091F4029091F502A091F602B091FA
:104A6000F7024196A11DB11D8093F4029093F502C7
:104A7000A093F602B093F702BF91AF919F918F91EF
:104A80000F900FBE0F901F9018958091FC028430FC
:104A900031F10E9400041092AE0220E488E190E01F
:104AA0000FB6F894A895809360000FBE2093600025
:104AB00083B7817F846083BF83B7816083BF78942D
:104AC000889583B78E7F83BF0FB6F894A8958091A1
:104AD0006000886180936000109260000FBE0895AE
:104AE0000E94F5080C94060482E084BD93E095BD15
:104AF0009AEF97BD80936E0008952FB7F894809138
:104B0000F4029091F502A091F602B091F7022FBF46
:104B100008952FB7F8946091F4027091F502809196
:104B2000F6029091F7022FBF08959C014FB7F894B9
:104B30008091F4029091F502A091F602B091F702F3
:104B40004FBF821B930B089578941F920F920FB65C
:104B50000F9211248F939F93AF93BF938091F40290
:104B60009091F502A091F602B091F7020196A11D75
:104B7000B11D8093F4029093F502A093F602B093D6
:104B8000F702BF91AF919F918F910F900FBE0F9041
:104B90001F90189581E08093E00080E28093D80018
:104BA0001092C9008FE19EE40197F1F700C0000068
:104BB00087E090EBDC018093050390930603A093BC
:104BC0000703B09308039CE088E10FB6F894A8951A
:104BD000809360000FBE90936000FFCF8091D2025F
:104BE0000895089524E02093E9002FEF3091E80024
:104BF000215035FD06C035ED3A95F1F70000211141
:104C0000F5CF2091E80025FF0BC040E050E066E0C2
:104C100070E00E9499288091E8008E778093E800E8
:104C20000895CF93DF9320912F01222339F0209113
:104C3000D40227FF03C060E224E002C068E021E064
:104C40002093E9002FEF3091E800215035FD06C098
:104C500035ED3A95F1F700002111F5CF2091E800EC
:104C600025FF1DC0EC0180912F01811105C040E09E
:104C700050E068E070E003C070E040E050E0CE013A
:104C80000E9499288091E8008E778093E80080E266
:104C9000FE01A2EBB2E001900D928A95E1F7DF915F
:104CA000CF9108958093AF027093B1026093B002E8
:104CB0008091FC028430F9F48093E9008FEF9091A9
:104CC000E800815095FD06C095ED9A95F1F700003A
:104CD0008111F5CF8091E80085FF0DC040E050E0E4
:104CE00063E070E08FEA92E00E9499288091E800EA
:104CF0008E778093E8000895BC0184E00C945226DE
:104D0000BC0183E00C945226CF93603219F52091B8
:104D1000FC022430F9F4C091E900CF703091EC002E
:104D2000232F217030FD20E8C22B22E02093E900E0
:104D30002091E80020FF0BC040E050E060E270E00E
:104D40000E9499288091E8008E778093E800CF70C8
:104D5000C093E900CF9108958091FB02811109C0B1
:104D60000E94752A0E94D22A8091E200846080937A
:104D7000E20008951092FB0208950C94F8246091CB
:104D8000F80281E0611101C080E00C94E32490916D
:104D9000FC0281E0943009F080E06091F8020C940C
:104DA000E82442E061EC81E00E94EE2942E261ECFD
:104DB00084E00E94EE2942E261EC82E00E94EE294A
:104DC00042E260EC83E00E94EE299091FC0281E0D7
:104DD000943009F080E06091F8020C94F124809105
:104DE000FE02833009F463C030F4813071F0823008
:104DF00009F49CC008958A3009F488C08B3009F406
:104E00006EC0893009F0AAC020C08091FD02813AAD
:104E100009F0A4C08091E800877F8093E80080912A
:104E2000010390910203892B21F460E282EB92E06E
:104E300003C060E080E090E070E00E942F29809144
:104E4000E8008B778093E80008958091FD0281321D
:104E500009F084C08091010390910203009719F03A
:104E6000029709F07BC08091E800877F8093E8007B
:104E70008091E80082FD05C08091FC028111F8CF8D
:104E80006DC02091F3008091F20090E0922B029788
:104E900031F48091F100813011F0863021F480915D
:104EA000F1008093D2028091E8008B7753C080910B
:104EB000FD02813A09F052C08091010390910203F2
:104EC000892B09F04BC08091E800877F8093E80030
:104ED0008091E80080FFFCCF80912F0136C0809147
:104EE000FD028132D9F58091010390910203892B53
:104EF000A9F58091E800877F8093E8000E94232A2B
:104F00008091FF0280932F010C94F5088091FD029F
:104F1000813221F58091E800877F8093E8000E942C
:104F2000232A809100038093D30208958091FD028B
:104F3000813AA1F48091E800877F8093E800809116
:104F4000E80080FFFCCF8091D3028093F100809134
:104F5000E8008E778093E8000C94232A089584B7A4
:104F6000877F84BF0FB6F894A89580916000886110
:104F700080936000109260000FBE90E080E80FB652
:104F8000F89480936100909361000FBE0C94F32419
:104F90000E94752A0E94D22AE2EEF0E080818460AD
:104FA000808378940C94672D83E291E00C94BD2368
:104FB0008091FC028530A9F48091FC02853079F45F
:104FC0000E9445258091FA028823B1F30E940525AD
:104FD000882391F30E9483280E94F508EDCF0C945A
:104FE00070250895CF93DF93CDB7DEB7A0970FB6A6
:104FF000F894DEBF0FBECDBF8091FC02843011F566
:1050000083E08093E9008091E80082FF1BC08091DB
:10501000E80085FF0AC040E050E060E270E0CE01A9
:1050200001960E94E42891E001C090E08091E800A0
:105030008B778093E800992329F060E2CE010196F6
:105040000E94501FA0960FB6F894DEBF0FBECDBFD2
:10505000DF91CF9108950C942D28292F33272330E9
:105060003105C9F060F42130310581F0223031057D
:1050700009F041C08BE590E02CE234E040C02132E1
:105080003105E1F02232310531F135C082E190E0A5
:1050900027E834E034C099278130910549F028F0A1
:1050A000029749F5E8E0F4E005C0E8E2F4E002C068
:1050B000E2E1F4E0849190E09F0121C0633071054A
:1050C000D0F4660F771FFB01E453FE4F208131813E
:1050D00089E090E014C06330710568F4FB01EE0FC5
:1050E000FF1FEA53FE4F20813181FB01ED53FE4F3C
:1050F000808190E004C080E090E020E030E0FA01A0
:1051000031832083089580E189BD82E189BD09B49E
:1051100000FEFDCF8091D8008F7D8093D8008091D4
:10512000E00082608093E0008091E00081FDFCCF90
:105130000895CF92DF92EF92FF920F931F93CF9338
:10514000DF93EC018B017A010E94422A811133C066
:10515000E114F10439F0F70180819181081B190BEA
:10516000C80FD91FC12CD12C0115110519F180913F
:10517000E80085FD16C08091E8008E778093E800F6
:10518000E114F10449F0F70180819181C80ED91E24
:10519000D182C08285E00FC00E94422A882321F379
:1051A0000AC089918093F10001501109FFEFCF1AD5
:1051B000DF0ADACF80E0DF91CF911F910F91FF904E
:1051C000EF90DF90CF900895CF92DF92EF92FF9211
:1051D0000F931F93CF93DF93EC018B017A010E9411
:1051E000422A811133C0E114F10439F0F7018081C2
:1051F0009181081B190BC80FD91FC12CD12C011587
:10520000110519F18091E80085FD16C08091E80034
:105210008B778093E800E114F10449F0F701808175
:105220009181C80ED91ED182C08285E00FC00E9434
:10523000422A882321F30AC08091F100899301500A
:105240001109FFEFCF1ADF0ADACF80E0DF91CF91AB
:105250001F910F91FF90EF90DF90CF9008952091D4
:105260000303309104032617370748F061157105D1
:1052700039F42091E8002E772093E80001C0B901AD
:10528000FC0120E06115710579F18091FC02882311
:10529000F1F18530F1F18091E80083FD3CC080910F
:1052A000E80082FD2EC08091E80080FFEBCF2091C6
:1052B000F3008091F20090E0922B6115710551F09E
:1052C0008830910538F421912093F10061507109E3
:1052D0000196F3CF21E0089709F020E08091E800E3
:1052E0008E778093E800CECF2111CFCF0AC0809176
:1052F000FC02882361F0853061F08091E80083FD35
:105300000AC08091E80082FFF2CF80E0089582E039
:10531000089583E0089581E008952091030330917A
:1053200004032617370748F06115710539F42091F9
:10533000E8002E772093E80001C0B901FC0120E0CD
:105340006115710591F18091FC02882309F440C038
:10535000853009F43FC08091E80083FD3DC0809115
:10536000E80082FD2FC08091E80080FFE9CF209106
:10537000F3008091F20090E0922B6115710559F0D5
:105380008830910540F424912093F10031966150CA
:1053900071090196F2CF21E0089709F020E0809191
:1053A000E8008E778093E800CBCF2111CCCF0AC0E4
:1053B0008091FC02882361F0853061F08091E800E3
:1053C00083FD0AC08091E80082FFF2CF80E008955B
:1053D00082E0089583E0089581E00895982F973042
:1053E00068F59093E900981739F07091EC002091DE
:1053F000ED005091F00003C0242F762F50E021FDE6
:1054000002C09F5FECCF3091EB003E7F3093EB000A
:105410003091ED003D7F3093ED003091EB00316035
:105420003093EB007093EC002093ED005093F0006C
:105430002091EE0027FDE5CF80E008958F708093E6
:10544000E90081E008958091FD0287FF11C08091FD
:10545000E80082FD05C08091FC028111F8CF11C0E7
:105460008091E8008B770BC08091FC02882349F083
:105470008091E80080FFF8CF8091E8008E778093DC
:10548000E80008952091E4003091E50095E6409110
:10549000EC00842F817040FF23C08091E80080FDE4
:1054A0001DC08091FC02882399F0853099F080918D
:1054B000EB0085FD11C04091E4005091E5002417F8
:1054C000350729F3915011F09A01E1CF84E0089556
:1054D00082E0089583E0089581E0089580E00895D2
:1054E0004091E80042FFDDCF08950E94E32A0E9428
:1054F000EB2AE0EEF0E0808181608083E8EDF0E06F
:1055000080818F77808319BCA7EDB0E08C918E7F6E
:105510008C9380818F7E80831092FB0208950F937D
:105520001F93CF93DF930E94E32A0E94EB2AC8EDDA
:10553000D0E088818F77888388818068888388819C
:105540008F7D888319BC1092FC021092F802109291
:10555000FA021092F90200EE10E0F80180818B7FD0
:10556000808388818160888342E060E080E00E94DF
:10557000EE29E1EEF0E080818E7F8083E2EEF0E0C4
:10558000808181608083808188608083F801808150
:105590008E7F8083888180618883DF91CF911F9186
:1055A0000F910895E8EDF0E080818F7E8083E7ED34
:1055B000F0E080818160808384E082BF81E080931D
:1055C000FB020C948F2AE8EDF0E080818E7F8083CF
:1055D0001092E20008951092DA001092E10008950E
:1055E0001F920F920FB60F9211242F933F934F9358
:1055F0005F936F937F938F939F93AF93BF93EF933B
:10560000FF938091E10082FF0BC08091E20082FF56
:1056100007C08091E1008B7F8093E1000E94662D9E
:105620008091DA0080FF1FC08091D80080FF1BC0EE
:105630008091DA008E7F8093DA008091D90080FF1C
:105640000DC080E189BD82E189BD09B400FEFDCFB6
:1056500081E08093FC020E94AC2605C019BC109228
:10566000FC020E94BA268091E10080FF19C080915F
:10567000E20080FF15C08091E2008E7F8093E200FF
:105680008091E20080618093E2008091D800806286
:105690008093D80019BC85E08093FC020E94BF264D
:1056A0008091E10084FF30C08091E20084FF2CC033
:1056B00080E189BD82E189BD09B400FEFDCF809102
:1056C000D8008F7D8093D8008091E1008F7E8093F9
:1056D000E1008091E2008F7E8093E2008091E20001
:1056E00081608093E2008091F802882311F084E0C9
:1056F00007C08091E30087FD02C081E001C083E024
:105700008093FC020E94C7268091E10083FF29C09C
:105710008091E20083FF25C08091E100877F809324
:10572000E10082E08093FC021092F8028091E10097
:105730008E7F8093E1008091E2008E7F8093E20073
:105740008091E20080618093E20042E060E080E0CE
:105750000E94EE298091F00088608093F0000E9402
:10576000BD26FF91EF91BF91AF919F918F917F9156
:105770006F915F914F913F912F910F900FBE0F90BE
:105780001F9018951F920F920FB60F9211242F930E
:105790003F934F935F936F937F938F939F93AF93B9
:1057A000BF93CF93DF93EF93FF93C091E900CF7046
:1057B0008091EC00D82FD17080FDD0E81092E900E4
:1057C0008091F000877F8093F00078940E94062CEF
:1057D0001092E9008091F00088608093F000CD2B5A
:1057E000CF70C093E900FF91EF91DF91CF91BF910E
:1057F000AF919F918F917F916F915F914F913F9169
:105800002F910F900FBE0F901F9018951F93CF935D
:10581000DF93CDB7DEB7AA970FB6F894DEBF0FBE01
:10582000CDBFEDEFF2E08091F100819323E0E53010
:10583000F207C9F70E94EF268091E80083FF2EC18E
:105840008091FD029091FE02492F50E04A305105AF
:1058500008F024C1FA01EB58FF4F0C94E62D803874
:1058600021F0823809F01AC108C08091F9029091A4
:10587000FA02992389F082600FC0809101038F7032
:10588000873008F00BC18093E9008091EB0085FB25
:10589000882780F91092E9009091E800977F909313
:1058A000E8008093F1001092F100D1C0282F2D7FE5
:1058B00009F0F4C0882319F0823061F0EFC08091C4
:1058C000FF02813009F0EAC0933009F080E0809354
:1058D000FA022EC08091FF0281112AC0809101033B
:1058E0008F702FEF280F263008F0D8C08093E90082
:1058F0002091EB0020FF1CC0933021F48091EB003D
:10590000806214C09091EB0090619093EB0021E0D5
:1059100030E0A90102C0440F551F8A95E2F7409379
:10592000EA001092EA008091EB0088608093EB001F
:105930001092E9008091E800877F8093E8000E9440
:10594000232AACC08111AAC01091FF021F77809159
:10595000E3008078812B8093E3008091E800877FCB
:105960008093E8000E94232A8091E80080FFFCCF0A
:105970008091E30080688093E300111102C082E00F
:1059800001C083E08093FC0289C08058823008F017
:1059900085C08091FF02909100038C3D53E09507F4
:1059A00079F583E08A838AE289834FB7F894DE0130
:1059B000139620E03EE051E2E32FF0E050935700D1
:1059C000E49120FF03C0E295EF703F5FEF708E2FF0
:1059D00090E0EA3010F0C79601C0C0968D939D9379
:1059E0002F5F243149F74FBF8091E800877F809374
:1059F000E8006AE270E0CE0101960E942F2916C0ED
:105A00006091010370910203AE014F5F5F4F0E94EE
:105A10002B28BC01892B09F441C09091E800977FA5
:105A20009093E80089819A810E948D298091E800F5
:105A30008B778093E80032C0803881F58091E80050
:105A4000877F8093E8008091F8028093F100809135
:105A5000E8008E7772CF811121C08091FF02909172
:105A6000000399270297D4F48091E800877F809300
:105A7000E8008091FF028093F8020E94232A80911F
:105A8000F802811106C08091E30087FD02C081E029
:105A900001C084E08093FC020E94D1268091E8003E
:105AA00083FF0AC08091E800877F8093E80080919F
:105AB000EB0080628093EB00AA960FB6F894DEBFED
:105AC0000FBECDBFDF91CF911F9108950895CF9361
:105AD0008091FC028823A1F0C091E900CF709091E1
