:100000000C943D030C9475030C9475030C947503C8
:100010000C9475030C9475030C9475030C94750380
:100020000C9475030C9475030C9459220C942B2397
:100030000C94851C0C9475030C9475030C94750337
:100040000C9475030C9475030C9475030C94750350
:100050000C9475030C940D1D0C9475030C9475038E
:100060000C9475030C9475030C9475030C94750330
:100070000C9475030C9475030C9475030C94750320
:100080000C9475030C9475030C9475030C94750310
:100090000C9475030C9475030C9475030C94750300
:1000A0000C9475030C9475030C947503B106B1069A
:1000B000DD06DD06450763074A084A086E07D607CE
:1000C000E707E707C516C816E816F91601170C1753
:1000D000521752175217521752170F171217171796
:1000E000241731173417381745179823BF23B7241F
:1000F000BF23B7240B242E24B7248524942429005D
:100100001F0021002300250027002E0000005300BF
:1001100055001E0020002200240026002D0035007E
:100120002A00540048002B001A0015001C000C0087
:100130001300300000005F00610014000800170089
:10014000180012002F0031004B00600056003900EB
:10015000160009000B000E003300320000005C00A6
:100160005E00040007000A000D000F0034002800A4
:100170004E005D005700E1001D0006000500100064
:100180003700E100000059005B0064001B0019000B
:10019000110036003800010052005A000100E00052
:1001A000E20000002C000000E200E70000004F0029
:1001B0006300E30000000000000000000151500057
:1001C00051006200580035003B003D003F004100F7
:1001D000430045000000530055003A003C003E003B
:1001E00040004200440001000100540048000100AA
:1001F0000100005C0100010001000100000001009D
:1002000001000100010001000100010001000100E6
:100210004B0001000100010001000100010001008C
:1002200001000100000001000100010001000100C7
:1002300001000100010001004E0001000100010069
:1002400001000100010001000100010000000100A7
:100250000100010001000100010001000100010096
:10026000A90001000100010001000000AE00000033
:10027000E200E7000000AB00010001000000000008
:10028000000000000100AC00AA0001000100010014
:100290000100005C010001000100010000000100FC
:1002A0000100010001000100010001000100010046
:1002B00001000100010001000100005C01000100DB
:1002C0000100010000000100010001000100010027
:1002D0000100010001000100010001000100010016
:1002E0000100010001000100010001000000010007
:1002F00001000100010001000100010001000100F6
:1003000001000100010001000100010001000100E5
:1003100001000100000001000100010001000100D6
:1003200001000100010001000100010001000100C5
:1003300001000000010000000100010000000100B8
:1003400001000100000000000000000001000100A9
:1003500001000100010001000100005C010001003A
:100360000100010000000100010001000100010086
:100370000100010001000100010001000100010075
:100380000100005C0100010001000100000001000B
:100390000100010001000100010001000100010055
:1003A0000100010001000100010001000100010045
:1003B0000100010000000100010001000100010036
:1003C0000100010001000100010001000100010025
:1003D0000100010001000100010001000000010016
:1003E0000100010001000100010001000100010005
:1003F00001000100010001000100000001000000F7
:1004000001000100000001000100010000000000E7
:1004100000000000010001000100010001000000D7
:100420000000000000002A2B28000000000000004F
:1004300000000000000000000029000000002C1E49
:100440003420212224342627252E362D3738271E06
:100450001F202122232425263333362E37381F042C
:1004600005060708090A0B0C0D0E0F1011121314C4
:1004700015161718191A1B1C1D2F3130232D350482
:1004800005060708090A0B0C0D0E0F1011121314A4
:1004900015161718191A1B1C1D2F3130354C00006A
:1004A000000000000000000000000000000000004C
:1004B000000000000000000000000000000000003C
:1004C00000007E0F00D4FFFFFFC7000000780A0382
:1004D00069006200690073000000140348006900AD
:1004E0006E006500790020004C004C0043000000C5
:1004F0000403090409025B00030100A0FA090400D7
:10050000000103010100092111010001224000073F
:10051000058103080001090401000203000000092D
:10052000211101000122220007058203200001079A
:100530000503032000010904020001030000000973
:10054000211101000122B6000705840320000112D9
:1005500001000200000008D804A9EA00010102001D
:10056000010660FF0961A1010962150026FF0095DF
:1005700020750881020963150026FF009520750883
:100580009102C005010902A10185020901A100052E
:100590000919012908150025019508750181020531
:1005A00001093009311581257F95027508810609F9
:1005B000381581257F950175088106050C0A3802DA
:1005C0001581257F950175088106C0C00501098048
:1005D000A101850319012AB700150126B70095016D
:1005E00075108100C0050C0901A101850419012ABB
:1005F000A002150126A002950175108100C0050119
:100600000906A1018506050719E029E7150025015E
:100610009508750181020507190029EF15002501CC
:1006200095F07501810205081901290595057501E7
:100630009102950175039101C005010906A101050B
:100640000719E029E7150025019508750181029534
:1006500001750881010507190029FF150026FF0013
:10066000950675088100050819012905950575018C
:100670009102950175039101C00011241FBECFEFB7
:10068000DAE0DEBFCDBF04B603FE18C08091E00201
:100690009091E102A091E202B091E3028730904B89
:1006A000A740B04B59F41092E0021092E102109270
:1006B000E2021092E302E0E0F8E3099511E0A0E025
:1006C000B1E0E2EEFAE402C005900D92AE39B10756
:1006D000D9F722E0AEE9B1E001C01D92A03EB20719
:1006E000E1F70E9476130C946F250C94000081E0D2
:1006F000089581E008950C94790308950C947D0386
:100700001F93CF93DF9300D000D01F92CDB7DEB7F9
:1007100049835A836B833091A10189819A81311178
:1007200014C0662359F0222349F00E94D909182FDA
:10073000682F89819A810E94820903C00E94AD09B5
:10074000182F69817A81812F04C00E94D90969819B
:100750007A810F900F900F900F900F90DF91CF91B3
:100760001F910C946C19FC01262F408151816281EC
:10077000738184810C94800381E00895CF93DF938B
:10078000EC0160E00E94B303BE01DF91CF910C94B5
:100790007E03E1E0F0E0DF0102C0AA0FBB1F6A9513
:1007A000E2F7BD01DF0102C0AA0FBB1F4A95E2F7C5
:1007B000AD01462B01C0EE0F2A95EAF7942F98233E
:1007C000491302C08E2B0895E0958E230895242F9F
:1007D000462F682F8091C9010E94C9030C943F09DC
:1007E0000C9427120C94231208950E94DA080E9498
:1007F000F4032FEF84E39CE0215080409040E1F728
:1008000000C000000C94331D0F931F93CF93DF9310
:100810008C0161E00E94B303EC01B8010E947416E0
:10082000882309F444C0B801CE010E947B038823C9
:10083000F1F1B801CE010E94D01A8823C1F1B801AC
:10084000CE010E945E17882391F1B801CE010E946B
:100850002C1A882361F1F8018281882309F1CA35B5
:100860008DE5D807C1F050F4C115FCE5DF0781F034
:10087000CE3DDC45A9F40E94FA0E19C0CB35EDE55A
:10088000DE0761F0CC35DD4559F40E943E0E08C00C
:100890000E94F5030CC00E94470E02C00E944A0E3F
:1008A000C801DF91CF911F910F910C94770380E0E5
:1008B000DF91CF911F910F9108950E94671C0C94B6
:1008C0005C050E945F050C946D1CDF92EF92FF9215
:1008D0000F931F93CF93DF93E82FF0E0E25EFB4F7F
:1008E000D490282F26952695269530E0F901E254DC
:1008F000FB4F0491877010E0082E02C015950795F4
:100900000A94E2F701701127F901E255FB4FE490D8
:10091000F12C082E02C0F594E7940A94E2F791E0D6
:10092000E922FF24F901E256FB4FC491D0E002C056
:10093000D595C7958A95E2F7C170DD270115110598
:1009400019F081EE0E94BE05E114F10419F086EE63
:100950000E94BE058D2D0E945F06EF2819F086EEDD
:100960000E941406012B19F081EE0E941406CD2B73
:1009700051F08CE2DF91CF911F910F91FF90EF909A
:10098000DF900C945F06DF91CF911F910F91FF9044
:10099000EF90DF900895EF92FF920F931F93CF9304
:1009A000DF93EC01162F0AE08881882309F455C0F3
:1009B000813009F043C08981813041F47E0182E0B9
:1009C000E80EF11C8A810E945F0609C0823049F45A
:1009D0007E01E2E0EE0EF11C8A810E94BE05E70175
:1009E0002FC0833041F47E01F2E0EF0EF11C8A81CA
:1009F0000E941406F4CF843011F0219621C02A8180
:100A0000229680E090E030E0205331092A30310511
:100A100058F4089FA001099F500D1124C901840FAB
:100A2000951F21962881EFCF009751F0EFE9FFE065
:100A30003197F1F700C000000197F6CF0E946504DE
:100A40002196812F882309F4AFCFEFE9FFE031979A
:100A5000F1F700C000008150F5CFDF91CF911F91D9
:100A60000F91FF90EF90089560E00C94CB040895EF
:100A70000C94370581E00895CF93C82F0E943A0562
:100A8000882351F0C0FF02C02F9A01C02F98C1FFE8
:100A900002C05A9A01C05A98CF910895279A2F9868
:100AA000529A5A980895CF93C82F0E9438058C2FD8
:100AB0000E943C05CF91089580E00C9453050E945C
:100AC0002C1B0C9453050E942C1B9091A00189179C
:100AD00021F08093A0010C9453050895CF93DF93E8
:100AE000CDB7DEB72B970FB6F894DEBF0FBECDBFE4
:100AF0004F83588769877A878B8761110E948A0D97
:100B00009E012F5F3F4F86E0F90111928A95E9F728
:100B100085E0FE013796D90101900D928A95E1F7A3
:100B200089819A814C815D81452B31F09F3F31F461
:100B300091E08F3F19F403C091E001C090E090FF75
:100B400009C049815A816B817C818D819E810E947F
:100B5000AB0C05C0C9010E94BC038111F2CF2B96DA
:100B60000FB6F894DEBF0FBECDBFDF91CF910895D1
:100B7000FC01808191810E94060A0895CF93882309
:100B800009F450C0C82F8CEF8C0F813AD0F46C2F31
:100B900080910201909103010E94A21B882349F0D9
:100BA0006C2F80910201909103010E942D1C0E94E4
:100BB000AC0D6C2F80910201909103010E94221CC8
:100BC0000CC080E28C0F883058F4C77081E001C0FF
:100BD000880FCA95EAF70E946D0DCF910C94AC0D69
:100BE000EBE5EC0FE33040F4F0E0E95BFE4F808191
:100BF00090E0CF910C94601BE8E5EC0FE73150F4E6
:100C0000F0E0EE0FFF1FE75EFE4F80819181CF91F4
:100C10000C94761BC03F30F08C2F0E94FB13CF91B9
:100C20000C94CD14CF910895882389F19CEF980FEF
:100C3000913A40F4682F80910201909103010E9443
:100C40002D1C0DC090E2980F983058F4877091E0F9
:100C500001C0990F8A95EAF7892F0E94730D0C94B1
:100C6000AC0D9BE5980F933020F480E090E00C945D
:100C7000601B98E5980F973120F480E090E00C9489
:100C8000761B803F20F00E9456140C94CD140895DA
:100C90001F93CF93DF93182FEB010E94BE0520977F
:100CA00041F08FE99FE00197F1F700C00000219724
:100CB000F6CF812FDF91CF911F910C9414068933C9
:100CC00019F060E070E002C060E570E00C94480646
:100CD000882321F00E946D0D0C94AC0D089588239B
:100CE00021F00E94730D0C94AC0D0895CF92DF9209
:100CF000EF92FF920F931F93CF93DF937C01162FF8
:100D0000C72FFC01D281058102950F700E94630DEF
:100D10008823B9F0DD23A9F08C2F807F803421F067
:100D200080E2810F883068F08091A60282FD09C0C0
:100D300082E00E940C0E0E94630D91E0D82ED9260D
:100D400001C0D12CCC2EC2948FE0C8228C2D90E013
:100D50008C30910508F09EC1FC01EA5AFF4F0C94BB
:100D6000FF248C2F807FCF70882311F0C295C07F25
:100D7000DD2399F0CC2309F479C180E2810F88301A
:100D800010F0111104C08C2F0E946D0D03C08C2F28
:100D90000E947D0D0E94AC0D69C1812F0E94140636
:100DA000CC2309F477C180E2810F883038F1112318
:100DB00029F18C2F0E94830D24C08C2F807FCF704F
:100DC000803211F0C295C07F112319F01130A1F1CA
:100DD0003DC08091A60282FF17C0DD2349F0CC23DD
:100DE00029F08C2F0E946D0D0E94AC0D80E03FC158
:100DF00080E00E941406CC2309F44CC18C2F0E9481
:100E0000730D0E94AC0D46C1DD2371F0002341F04B
:100E1000013031F40E948D0D8C2B0E94950D3AC14A
:100E20000E948D0D8C2B1DC0002319F0013009F498
:100E300031C10E94A20D25C0DD2321F0063008F04B
:100E400029C10EC0053008F025C11BC0DD2361F0AB
:100E5000002331F0F701858180FF08C18F70858301
:100E60008C2F0E94680616C1002359F0193309F02F
:100E70000EC1FFEF27EE83E0F15020408040E1F704
:100E800004C18C2F0E946F0605C18C2F8695869514
:100E9000837019F0813061F0FDC0DD2321F0812FD6
:100EA0009C2F937002C080E090E00E94601BFAC00B
:100EB000DD2321F0812F9C2F937002C080E090E011
:100EC0000E94761BEFC0812FDD2319F00E94FB13D7
:100ED00002C00E9456140E94CD14E4C08C2F83706F
:100EE00079F5D111DBC0412F429546954770440FEB
:100EF000440F212F2F70042E01C0220F0A94EAF70D
:100F000014FF08C08FE090E001C0880F4A95EAF70F
:100F1000809501C080E0C695C695C370822BC23013
:100F200049F058F4C13019F00E943309B7C00E944B
:100F30002E09B4C00E943809B1C00E942C09AEC06D
:100F4000DD2319F08C2F817001C08695882309F468
:100F5000A5C0412F429546954770440F440F212F5D
:100F60002F70042E01C0220F0A94EAF714FF08C064
:100F70008FE090E001C0880F4A95EAF7809501C0A4
:100F800080E0C695C695C370822BC23049F058F4F4
:100F9000C13019F00E94770981C00E9472097EC099
:100FA0000E947C097BC00E943F0978C0CF70DD237E
:100FB00039F08C2F0E945009812F0E9468066EC064
:100FC000812F0E946F068C2F0E945B0967C0123F21
:100FD00021F128F4103F41F0113FC1F043C0133F0D
:100FE00019F1143F79F03EC0DD2341F0053008F0DF
:100FF00051C08C2F8F710E9467094CC0063008F0D9
:1010000049C0F7CF8091A60282FF18C0DD2339F0D6
:101010008C2F8F710E9450093DC0DD23C9F38C2FA6
:101020008F710E945B0936C0DD2329F08C2F8F71F0
:101030000E9448092FC00E9445092CC0DD2349F0B9
:10104000CF718C2F0E94500963E08C2F0E94F10D0C
:1010500021C081E00E940C0E0230E0F082E00E948C
:101060000C0E18C0DD2331F0002391F2812F0E9475
:10107000BE0510C0002399F2193349F49FEFE7EE43
:10108000F3E09150E040F040E1F700C00000812F14
:101090000E94140688EF8C0D843020F40E942C1BD3
:1010A0000E945305DD20C9F00E945F0D80FD15C030
:1010B000F70112820E94590D0E945009C7010E9437
:1010C0008E080E94590DDF91CF911F910F91FF90D3
:1010D000EF90DF90CF900C945B09DF91CF911F913F
:1010E0000F91FF90EF90DF90CF9008950F931F9393
:1010F000CF93DF93EC01688179818A810E94110A84
:101100008C010E9481090E942009B801CE010E9431
:101110007606DF91CF911F910F910895CF93DF93C2
:10112000EC01988189812B813C81232B31F08F3F09
:1011300031F481E09F3F19F403C081E001C080E0F9
:1011400080FD1DC0CE010E940404811110C00E94C8
:10115000630D8823A1F08A81882389F08091A602FB
:1011600082FD0DC082E0DF91CF910C940C0ECE0178
:101170000E947608CE01DF91CF910C94BE03DF91DF
:10118000CF91089580E090E00E94601B80E090E0A5
:101190000E94761B0E948A0D0E94AC0D0E94FE15D3
:1011A0000C94CD1480910201909103010E94381C8F
:1011B0000C94C2080E947A0D0C94D20892959F70EC
:1011C000963079F010F4925001C09A50923068F441
:1011D000803F69F018F4883E40F409C0843F29F448
:1011E00006C0883E20F0813F11F080E0089581E044
:1011F0000895FC01808191810E94060A0E94DE0808
:101200000895CF93DF9300D000D01F92CDB7DEB703
:101210000F900F900F900F900F90DF91CF91089546
:10122000CF93DF9300D000D000D0CDB7DEB72696A5
:101230000FB6F894DEBF0FBECDBFDF91CF910895FA
:10124000089508950C9421090C9422090E94240900
:101250008093CA010C94C2080C9426099091CA018B
:10126000892B0C9426099091CA0189230C94260994
:101270009091CA0189270C9426090C9421090E9497
:101280003D098093C9010C94C20880E00C943F0989
:1012900091E001C0990F8A95EAF7892F0C943F09D4
:1012A00021E030E001C0220F8A95EAF78091C90160
:1012B000822B0C943F0921E030E001C0220F8A9577
:1012C000EAF720958091C90182230C943F0921E01F
:1012D00030E001C0220F8A95EAF78091C901822788
:1012E0000C943F099091C901892B0C943F0990916E
:1012F000C90189230C943F099091C90189270C9455
:101300003F0908952AE0929F800D1124E82FE69569
:10131000E695E695877051E001C0550F8A95EAF78A
:1013200083E0E89FF0011124EE55FE4F20E030E00D
:1013300070E04081CB01022E02C0969587950A94F9
:10134000E2F78170819584278523842781932F5F1D
:101350003F4F2330310569F708952AE0929F800DB1
:101360001124682F669566956695982F977083E08F
:10137000689FB001112440E050E080E0FB01E40FE1
:10138000F51FEE55FE4F208130E0092E02C0369544
:1013900027950A94E2F721703327042E01C0220F0B
:1013A0000A94EAF7822B4F5F5F4F4330510531F7C4
:1013B0000895CF92DF92FF920F931F93CF93DF9305
:1013C0006C010091C9018091CA01082BC7E0D0E0EF
:1013D00010E0C8010C2E02C0959587950A94E2F79B
:1013E00080FD04C02197A8F7F12C07C0FC2EB601A0
:1013F0008C2F0E94FB100197A9F38F2DDF91CF91C5
:101400001F910F91FF90DF90CF900895CF93DF93BE
:10141000EC010E94D909BE010E94FB10DF91CF911F
:1014200008951F93CF93DF93EB019091A10199232E
:1014300021F0CB010E94060A13C0882349F0CB019A
:101440000E94D909182F682FCE010E94820904C07A
:10145000CB010E94AD09182FBE01812F0E94FB1005
:10146000DF91CF911F9108951F93CF93DF93C09188
:10147000CB0116E08091CC01C81799F0D0E01C9FF9
:10148000F0011D9FF00D1124E353FE4F4081518167
:1014900062817381848195810E9410092196C770B1
:1014A000E9CFDF91CF911F9108954091FD015091B7
:1014B000FE016091FF017091000280910102909104
:1014C00002020C941009EF92FF920F931F93CF9397
:1014D000DF938091020282958F7009F065C0809140
:1014E000FF01882309F460C08091CB01F090CC010A
:1014F0001091FD010091FE016091000270910102C6
:1015000091E01F3F09F090E0C0910001D0910101EE
:10151000292F96E0E92E8F1509F446C06115710553
:1015200021F00F3F21F030E003C031E001C0322F45
:1015300090E030FD36C0E89EF001E99EF00D1124E8
:10154000DF01A353BE4F11963C911197301329C070
:101550003C91311326C012963C911297311121C053
:1015600013964D915C911497461B570B4C175D07D2
:10157000C0F4809102028F70806180930202EE526B
:10158000FE4F80818F70806180838DEF91E00E949B
:101590008E08DF91CF911F910F91FF90EF900C94E7
:1015A000340A01968770B7CFDF91CF911F910F91C9
:1015B000FF90EF9008959F92AF92BF92CF92DF92EB
:1015C000EF92FF920F931F93CF93DF93CDB7DEB7C8
:1015D00061970FB6F894DEBF0FBECDBF8C0185E0DA
:1015E000F801DE011D9601900D928A95E1F7D80170
:1015F0001296EC909091FD01E091FE012091000285
:10160000309101022115310531F0EF3F31F481E0D5
:101610009F3F19F403C081E001C080E0B82FB17092
:101620009B2E80FD47C1D8014C9111965C9111977A
:101630001396AD90BC9014978DEFC82E81E0D82EF4
:10164000F090FF01B501621B730B209100013091F6
:101650000101FF2009F4D9C08091020262177307CB
:1016600008F095C0282F207F09F052C05E1313C0E8
:10167000491311C0FE2CE1100EC08F708061809361
:1016800002020E94550AC6010E948E088091020241
:10169000F80185834DC1AB2831F05F3F31F481E023
:1016A0004F3F19F403C081E001C080E080FD03C01A
:1016B00081E08E2502C080E090E0F82FF170FF2ECF
:1016C00080FF1CC08091CB012091CC0136E08217B5
:1016D00009F40BC190E0389FF001399FF00D1124FF
:1016E000E353FE4F6181561306C06081461303C069
:1016F0006281E61203C001968770E9CFFE2CEE20CE
:1017000009F416C18091020281608093020254C0E4
:101710005E1306C0491304C0E11002C0F80199C06D
:10172000C8010E94F908882361F1EE2051F120914F
:101730000202822F82958F7090E0029774F0809160
:10174000FD019091FE0198878F831986BB86AA863A
:101750002C87CE0107960E948E0886E0F801ADEF37
:10176000B1E001900D928A95E1F70E94630A0E9410
:10177000550A0AC05E1711F1C8010E94F9088111CB
:101780002CC0C8010E948E08FF24F394D1C0282FDA
:10179000207F81F77A2DB98AA88A6E2D89890E94C7
:1017A00001098DEF91E00E948E0886E0D6011D921E
:1017B0008A95E9F70E94550AF12CBAC04913DCCF8B
:1017C000E110DACFF8018583C8010E948E0886E017
:1017D000D6011D928A95E9F7ABC0EE2091F22091D7
:1017E0000202822F82958F7090E002970CF4B5CFA1
:1017F0008091FD019091FE019A8389831B82BD82B5
:10180000AC822E83CE010196A6CF6217730708F033
:1018100044C0FE2CEE2009F4B4CF5E1330C049134F
:101820002EC02091020220FD21C0822F82958F7050
:10183000482F50E041155105C9F0F80125834F307C
:10184000510541F08F5F982F9295907F822F8F7076
:10185000892B8583C8010E948E0886E0F801ADEFD0
:10186000B1E001900D928A95E1F73CC086E0F80165
:10187000ADEFB1E001900D928A95E1F759C0C80132
:101880000E94F908811169CF8091020281608093E2
:101890000202C8010E948E084BC07A2DB98AA88A1C
:1018A0006E2D89890E94010986E0D6011D928A95D4
:1018B000E9F718C0EE2009F464CFC8010E94F908C6
:1018C000F82E882309F45DCF86E0F801ADEFB1E092
:1018D00001900D928A95E1F78DEF91E00E94B80595
:1018E0000E94630A0E94550A23C04D875E878D853A
:1018F0009E850E94060A292F22952F70223028F4F7
:101900009F7039F0811105C00BC0243028F49F70FE
:1019100049F4805E883020F0C8010E948E089F2C18
:10192000F92C06C0D80115969C91907F91F7F8CFBD
:101930008F2D61960FB6F894DEBF0FBECDBFDF913D
:10194000CF911F910F91FF90EF90DF90CF90BF90BC
:10195000AF909F9008951F93CF93DF93CDB7DEB7DD
:101960002C970FB6F894DEBF0FBECDBF4F835887BC
:1019700069877A878B879C87CE0107960E94DB0A4E
:101980008823D1F09F8188852A853B85232B31F0E0
:101990008F3F31F481E09F3F19F403C081E001C023
:1019A00080E080FD47C04F81588569857A858B85A9
:1019B0009C850E9410093EC086E0FE013796DE013C
:1019C000119601900D928A95E1F7FF81E8856A856D
:1019D0007B856115710531F0EF3F31F481E0FF3F08
:1019E00019F403C081E001C080E080FD23C0209194
:1019F000CC0130E0C9010196877099274091CB0155
:101A000050E084179507F1F1F983EA837D836C83B5
:101A100096E0929FD001939FB00D1124A353BE4F27
:101A2000FE01319601900D929A95E1F78093CC01D9
:101A30000E94340A16E08091CB019091CC01891765
:101A400071F1189FC001112483539E4F0E94DB0A3D
:101A5000882329F1E091CB011E9FF0011124E3536B
:101A6000FE4F4081518162817381848195810E9402
:101A700010098091CB0190E001968770992780939F
:101A8000CB01D9CF0E94DA081092CC011092CB0181
:101A9000EDEFF1E086E0DF011D928A95E9F72C96E3
:101AA0000FB6F894DEBF0FBECDBFDF91CF911F916F
:101AB0000895809123028595859585950895809157
:101AC00023028770089590912302977081E009F4B2
:101AD00080E0089580914602089590914602892BF6
:101AE00080934602089580959091460289238093C1
:101AF0004602089510924602089590914502892B5E
:101B000080934502089580959091450289238093A2
:101B10004502089510924502089580912402089587
:101B200008950C94900D0C94910D9091A60292FD45
:101B300008C090912402981721F0809324020C94FD
:101B4000930D089580912402882329F01092240295
:101B500080E00C94930D0895CF93DF93E091020100
:101B6000F0910301809146028083E0910201F0919F
:101B70000301908180914502892B8083809124020A
:101B8000882381F0E0910201F09103019081892B7B
:101B9000808380910201909103010E948C1B81112E
:101BA0000E94A20DC0910201D091030140E250E0D9
:101BB00063E072E0CE010E942025892B69F080E26B
:101BC000FE01A3E0B2E001900D928A95E1F7CE010B
:101BD000DF91CF910C94381BDF91CF9108950C9435
:101BE000900D9091A60292FD10C098E0899F9001FF
:101BF0001124262B209323020E9450098091230256
:101C00008595859585950C94EF0D0C94500910924F
:101C1000230280E00C94EF0D209123028095822313
:101C200080932302982F977099F430E0482F082E64
:101C3000000C550B2417350759F09091A60292FD20
:101C400007C08595859585950E945B090C94070EC4
:101C500008959091A60292FB222720F9281769F097
:101C600080FB92F99093A6028091A5029091A60222
:101C70000E94770E82E00C940C0E08958091A602CB
:101C800082FB882780F991E089270C94290E81E056
:101C90000C94290E80E00C94290E6FEF7FEF80E00A
:101CA00090E00C94592580E090E00E943525893E13
:101CB0009E4F11F40C940C1680E0089582E090E0A1
:101CC0000C942D2583E090E00C942D25CF9384E097
:101CD00090E00E942D25C82F82E290E00E942D25E1
:101CE0002C2F30E0A901582BCA01CF910895CF9332
:101CF000C92F682F84E090E00E943B256C2F82E280
:101D000090E0CF910C943B25AB01BC018FE090E0BB
:101D10000C944D25AB01BC0183E190E00C944D2562
:101D200060E070E0CB010C948A0E60E070E0CB01C3
:101D30000E94840E0C94900E69EE7EEF80E090E09D
:101D40000E94592560E082E090E00E943B2560E01F
:101D500083E090E00E943B251092CA0160E084E09D
:101D600090E00E943B2560E082E290E00E943B25EB
:101D700060E085E090E00E943B2560E086E090E036
:101D80000E943B256FEF87E090E00E943B2540E0FA
:101D900050E0BA0188E090E00E944D2560E08DE0BF
:101DA00090E00E943B2540E050E0BA0188E190E0DD
:101DB0000E944D2560E087E190E00E943B2540E0D5
:101DC00050E0BA018CE190E00E944D2560E070E0A7
:101DD00080E290E00E94592540E050E0BA0188E19D
:101DE00090E00E944D2580E00E9425160E94581622
:101DF0000C94950E0C949C0E682F8EE090E00C9441
:101E00003B250E94F21C60935F02709360028093F6
:101E100061029093620260935B0270935C02809314
:101E20005D0290935E02089585B7806885BF85B78F
:101E3000806885BF089581E008950C941B0F089574
:101E40000C941F0F0C941F0F0C94220F0C941F0F57
:101E50000C94260F0C941F0F0E94140F87ED91E134
:101E60000E94221B0E942A0F0C94280F0E94200F10
:101E70000C941F0F0E94F4110C944E050E94DD1C5F
:101E80000E9467160E94CF120E943A0F0C94240FF2
:101E90005F926F927F928F929F92AF92BF92CF92FA
:101EA000DF92EF92FF920F931F93CF93DF93CDB703
:101EB000DEB72A970FB6F894DEBF0FBECDBF0E94E3
:101EC000E412C82E81110E94010F37E4832E32E004
:101ED000932E00E010E0502E802F0E940E125C0125
:101EE000F401619071904F016826792661147104A4
:101EF000B1F40F5F1F4F0A30110569F78FEF898327
:101F00008A831B820E94E61C8160782F9D838C83CC
:101F100049815A816B818D810E946E053AC0809102
:101F2000630281FD0E941712D12CEE24E394F12C60
:101F3000C3018E219F21892B29F10E941D0F882327
:101F4000A9F0DE825F82AE20BF2081E0AB2809F4D9
:101F500080E088870E94E61C8160782F9A878987B5
:101F60004E815F8168858A850E946E05000F111F72
:101F7000F801E95BFD4F80819181E826F926F18225
:101F8000E08207C0D394EE0CFF1CFAE0DF12D0CF42
:101F9000B0CF81E0C11001C080E02A960FB6F8945E
:101FA000DEBF0FBECDBFDF91CF911F910F91FF908C
:101FB000EF90DF90CF90BF90AF909F908F907F90E9
:101FC0006F905F9008950E94480F0E94EB140C944C
:101FD0006305CF93DF930E940011EC01811521E589
:101FE000920708F045C0811530E5930708F094C0CA
:101FF000883E910528F5803E910508F0F8C0883AA2
:10200000910570F4853A910508F07CC08130910506
:1020100009F475C008F4E8C0049708F0E8C0E4C00B
:102020008F3B910508F0E0C0C85AD0E0CC0FDD1F0F
:10203000C65BDE4F0990D881C02DCE019464D8C014
:10204000811540E2940758F4811551E0950708F096
:10205000CEC0803F910508F4C7C09065C9C0C115C6
:1020600080E4D80708F4C0C0DF70CE01906AC0C019
:10207000811525E59207A8F4811534E5930708F04A
:1020800095C0811543E5940708F07BC0811552E5A2
:10209000950708F061C0D82FCC27CE01816F906AD8
:1020A000A7C0C11589E5D807A0F4C11528E5D20756
:1020B00008F082C0C11536E5D30708F095C08C2F13
:1020C0000E9494118F7190E0D82FCC27CE0190629E
:1020D0008FC0C1154AE5D40708F474C0CE019056EC
:1020E0008115904208F080C08D2F8F710E9494114D
:1020F000DD27D0628F71AE01582BCA0179C081E013
:1021000090E076C0C55AD0E0C858DE4F8881C82F0D
:10211000D0E0CE0190646CC074E0969587957A9576
:10212000E1F7282F23703C2F337081E090E002C04C
:10213000880F991F3A95E2F79C68AC01522B9A01DF
:102140009C2F9F709695969550E2959FE0011124E3
:10215000C9018C2B9D2B4CC08370992721E030E066
:1021600002C0220F331F8A95E2F79C2F9695969511
:1021700080E2989FE0011124C22BD32BCE019C68F2
:1021800037C08370992721E030E002C0220F331F4F
:102190008A95E2F79C2F9695969540E2949FE001F0
:1021A0001124C22BD32BCE019A6822C0D82FCC2762
:1021B000CE01846F906A1CC0DC2FCC27CE01806FCB
:1021C000906A16C08C2F8F700E94941194E0D6955F
:1021D000C7959A95E1F7CF70D0E0DC2FCC27D06976
:1021E0009E01282BC90104C080E090E001C0CE010F
:1021F000DF91CF9108950E946C190E94E90F089514
:102200008238910569F1B0F48133910509F46DC00C
:1022100048F48932910509F463C08A32910509F4C2
:1022200069C008958533910509F455C08933910536
:10223000B9F00895833E910569F138F4803E910527
:10224000B1F0823E910509F10895863E9105A9F10C
:10225000873E9105B9F1843E910509F064C023C021
:102260002091A50220FD4FC021FD4DC00895809111
:10227000A50280FD44C08091A60280FF44C08091E9
:10228000A50284FD42C083EE4DC08091A50282FF6D
:1022900038C0F5CF8091A50282FD33C08091A6029F
:1022A00080FD31C0ECCF8091A60281FF32C08091C9
:1022B000A50284FD2AC087EE35C08091A50283FF68
:1022C00026C0F5CF8091A50283FD21C08091A60292
:1022D00081FD1FC0ECCF8091A50285FD1CC01DC0F3
:1022E0008091A50285FD19C016C08091A50286FDCA
:1022F00016C017C08091A50286FD13C010C089E3E7
:1023000011C082EE0FC080EE0DC080E00BC086EEE3
:1023100009C084EE07C089E205C085E303C08AE2F4
:1023200001C081E390E008959091A50292FF0DC055
:10233000282F2871283019F4877F846006C0282F41
:102340002471243011F48B7F886093FF0DC0282FF7
:102350002871283119F4877E846106C0282F2471E2
:10236000243111F48B7E88612091A60220FF0DC0DC
:10237000382F3871383019F4877F816006C0382FC4
:102380003171313011F48E7F886021FF0DC0282F0C
:102390002871283119F4877E816106C0282F2171A8
:1023A000213111F48E7E886194FD877E089580E04E
:1023B00008950C944D0E0E94E4122FEF86E791E0F1
:1023C000215080409040E1F700C000000E94E412DC
:1023D00080E00E940E1280FF04C00E94D9110C946C
:1023E000331D08950C94DB110E94530E811102C01D
:1023F0000E94FA0E0E945E0E809363020E94660E97
:102400009093A6028093A5020E94F2110E94620E90
:102410000E942C098091C9010C943D09E82FF0E03D
:10242000EE0FFF1FE554FD4F8081918108950895BF
:1024300080EA8A95F1F7089500C008950C94181267
:1024400008950C9420120C9421120C9420120C94D8
:102450002512F894E82FE295EF70F0E031A1282FD3
:102460002F7081E090E001C0880F2A95EAF7982F3D
:102470009095932391A392A1892B82A37894089598
:102480000F931F93CF93DF93C5E8D1E089918F3FDE
:1024900011F00E94291281E0CF38D807B9F7CBE7B5
:1024A000D1E005E811E089918F3F11F00E942912D7
:1024B0000C171D07C1F7DF91CF911F910F91089560
:1024C000BF92CF92DF92EF92FF920F931F93CF9321
:1024D000DF938C01C62FD0E0CE018B579E4F6C014D
:1024E000FC0190819F3F09F450C0B62EF894E92F6B
:1024F000E295EF70F0E081A19F7021E030E001C033
:10250000220F9A95EAF7822B81A382A12095282396
:1025100022A378940E941C12EBE7F1E045E851E019
:1025200021E030E0E12CF12C61916F3F89F0A62F82
:10253000A295AF70B0E090968C9190E06F7002C061
:10254000959587956A95E2F780FD02C0C90102C0A2
:1025500080E090E0E82AF92A220F331F4E175F0728
:1025600019F7F60180818F3F11F00E94291261E076
:10257000E114F10409F460E08B2D0E941E12CC0FCF
:10258000DD1FC00FD11FF982E882DF91CF911F912B
:102590000F91FF90EF90DF90CF90BF9008950E9431
:1025A000401284E1EBEBF2E0DF01982F1D929A9547
:1025B000E9F7E7EAF2E0DF011D928A95E9F78AE0A0
:1025C0000E942F130C94F003FF920F931F93CF934D
:1025D000DF93CDB7DEB764970FB6F894DEBF0FBEBA
:1025E000CDBF8E010F5F1F4F84E1F80111928A95D4
:1025F000E9F7F12C6F2DC8010E946012F394FAE004
:10260000FF12F8CF44E150E0B80187EA92E00E945F
:102610002025FF24F394009709F4F12C892B41F035
:1026200084E1F801A7EAB2E001900D928A95E1F702
:102630002F2D4AE06BEB72E087EA92E00E943013A4
:102640000E94F2038F2D64960FB6F894DEBF0FBE82
:10265000CDBFDF91CF911F910F91FF900895089505
:10266000FF920F931F93CF93DF93F82E092F162F0E
:10267000D72FC42F222349F081E0809366020E9465
:10268000E61C909365028093640280916602882321
:10269000D9F080916402909165020E94FE1C05971A
:1026A00098F0EF2DF02FA12FBD2F80E090E04C2F60
:1026B00050E08417950734F4219131912D933D9387
:1026C0000196F7CF10926602DF91CF911F910F9183
:1026D000FF9008950E94311F0E943E0F0C943D1FF1
:1026E0000E94411F0E94E30F0C945B1F0E94841CF8
:1026F0000E94181F0E942C0F0E946A130E947013E0
:102700000E94360FFBCF80916D0280FF06C0609162
:10271000090170E0660F771F26C081FF04C0609139
:10272000090184E005C082FF07C06091090188E0CB
:10273000689FB001112417C090916C029923D1F0C9
:1027400060910801961788F72091090188E0289F79
:1027500090011124929FA001939F500D112470E0CD
:10276000CA010E94EB246038710540F461157105BF
:1027700019F406C068E070E0862F08958FE7089589
:1027800081E0089580916D0280FF08C0609105018D
:1027900070E0759567957595679521C081FF06C0B6
:1027A0006091050170E07595679519C082FF04C0BE
:1027B0006091050170E010C090916B02992399F02F
:1027C000609104019617A0F780910501899FC001CF
:1027D000112470E00E94EB246038710540F461150B
:1027E000710519F406C061E070E0862F08958FE747
:1027F000089581E00895803F21F40E94831381951C
:1028000004C0813F29F40E948313809371020895CC
:10281000823F21F40E948313819504C0833F29F4F1
:102820000E948313809370020895893F19F40E94D7
:10283000C21305C08A3F31F40E94C2138195809370
:10284000720208958B3F21F40E94C213819504C047
:102850008C3F29F40E94C2138093730208959CE078
:10286000980F953078F421E030E0A90102C0440FC0
:10287000551F9A95E2F7CA0190916F02892B8093B8
:102880006F0208958D3F21F480916D0281600BC02D
:102890008E3F21F480916D02826005C08F3F29F444
:1028A00080916D02846080936D020895803F39F4B9
:1028B0009091710297FF35C01092710259C0813F0B
:1028C00029F4909171021916BCF32BC090917002FB
:1028D000823F29F497FF25C01092700249C0833FC0
:1028E00019F41916CCF31DC090917202893F29F496
:1028F0001916BCF4109272023BC08A3F19F497FF7C
:1029000010C0F8CF8B3F39F49091730297FF09C044
:10291000109273022DC08C3F21F49091730219160E
:10292000BCF39CE0980F953080F421E030E0A901E1
:1029300002C0440F551F9A95E2F7CA018095909105
:102940006F02892380936F0213C08D3F21F4809121
:102950006D028E7F0BC08E3F21F480916D028D7FC2
:1029600005C08F3F29F480916D028B7F80936D02AB
:1029700080917002811106C080917102811102C0A4
:1029800010926C0280917202811106C080917302D4
:10299000811102C010926B0208950E94E61C2091E2
:1029A0007002211104C020917102222321F0909322
:1029B0006A028093690220917202211104C0209161
:1029C0007302222321F090936802809367028EE6BF
:1029D00092E00C94521BEF92FF920F931F93CF93B0
:1029E000DF9300D000D000D0CDB7DEB786E0EEE6B2
:1029F000F2E0DE01119601900D928A95E1F7E090E8
:102A00007002F090710200917202109173021092A4
:102A10007002109271021092720210927302E11011
:102A200003C0FF2009F45DC08091690290916A02A1
:102A30000E94FE1CAC0190916C02992339F0209108
:102A40000A0130E02417350758F04BC020910B01E4
:102A50008AE0289F900111242417350718F041C0FF
:102A60009F3F19F09F5F90936C02EE2061F00E94EF
:102A700083131E1414F09FEF01C091E0989F902DD6
:102A8000112490937002FF2061F00E9483131F14A1
:102A900014F09FEF01C091E0989F902D1124909326
:102AA0007102309170023323E1F0209171022223F0
:102AB000C1F045EB3403C0011124992319F0909320
:102AC000700203C081E08093700235EB2303C001E4
:102AD0001124992319F09093710203C081E080932F
:102AE0007102011103C0112309F45DC080916702D6
:102AF000909168020E94FE1CAC0190916B02992398
:102B000039F02091060130E02417350758F04BC00A
:102B1000209107018AE0289F90011124241735078E
:102B200018F041C09F3F19F09F5F90936B02002304
:102B300061F00E94C213101614F09FEF01C091E0E3
:102B4000989F902D112490937202112361F00E949E
:102B5000C213111614F09FEF01C091E0989F902DC1
:102B6000112490937302309172023323E1F020918B
:102B700073022223C1F045EB3403C00111249923D1
:102B800019F09093720203C081E08093720235EBDA
:102B90002303C0011124992319F09093730203C0F9
:102BA00081E0809373028091700281110BC080914B
:102BB0007102811107C080917202811103C080915E
:102BC000730281110E94CD14EB82FC820D831E835F
:102BD00086E0FE013196AEE6B2E001900D928A9554
:102BE000E1F726960FB6F894DEBF0FBECDBFDF919A
:102BF000CF911F910F91FF90EF900895EEE6F2E0D4
:102C000086E0DF011D928A95E9F710926C0210921E
:102C10006B0210926D02089583E290E00E942D25D0
:102C2000823281F484E290E00E942D25843051F4B8
:102C300085E290E00E942D2591E0873209F090E036
:102C4000892F01C080E081700895CF93C82F811132
:102C500002C06FEF01C062E283E290E00E943B2578
:102C6000C11102C06FEF01C064E084E290E00E94F5
:102C70003B25C11102C06FEF01C067E285E290E021
:102C8000CF910C943B25089586E290E00E942D257B
:102C9000682F70E080E090E008950895CF93C62FEC
:102CA0000E944D166C2F86E290E0CF910C943B254C
:102CB00080E00E94251660E070E0CB010E944E1675
:102CC0000E94E7180E94C41981E00C9425160E9406
:102CD00043160E9444160E944D160E940C16811144
:102CE00002C00C9458160895CF93FB01C281CC23E7
:102CF000E9F09C0122513F452031310520F48251F9
:102D00000E94D4190CC08031FFE59F0751F481E087
:102D10000E94500943E062E081E00E94E703C0E0C6
:102D200018C081319F45A9F482E0F2CF8031EFE5F0
:102D30009E0711F481E004C081319F4549F482E08F
:102D40000E945B0943E062E081E00E94E70301C06A
:102D5000C1E08C2FCF9108952FEFFC0120830895BF
:102D6000EF92FF920F931F93CF93DF93EC01062F07
:102D7000E8818E2F90E0FC013197E331F10508F0F6
:102D800091C0EE59FF4F0C94FF24198289E04DC089
:102D90008981823039F0833061F0813029F50E94D9
:102DA000F21C02C00E9444169A838B837C836D833D
:102DB0007BC07E0110E0812F0E940E12F7019283EA
:102DC00083831F5FF2E0EF0EF11C1A30A1F76CC095
:102DD0008981823049F46A817B818C819D810E9446
:102DE00005250E944E1660C0602FCE010E94AC16D1
:102DF0005BC04B816A8189810E94B9189C838D8355
:102E000053C02C813D813227232732274B816A8191
:102E100089810E94D21848C00E94E71845C00E94CC
:102E2000791924C00E947B1999838A833DC06B81E4
:102E300070E089819A81AE014C5F5F4F98278927A6
:102E400098270E947E1930C06B8170E089819A8139
:102E5000AE014C5F5F4F9827892798270E94A219DF
:102E600023C00E94C41920C00E94A61889831CC0D8
:102E70006B8170E089819A81AE014C5F5F4F98272A
:102E8000892798270E9426190FC06B8170E08981DD
:102E90009A81AE014C5F5F4F9827892798270E943F
:102EA0004A1902C08FEF8883602FCE01DF91CF9146
:102EB0001F910F91FF90EF900C94ED1DCF93DF9336
:102EC000EC01FB018281882309F43CC1C330FDE59C
:102ED000DF0760F4CA3F9CE5D90788F49E012250C1
:102EE0003C452431310508F02EC109C0C136EDE55D
:102EF000DE0729F0C53AFDE5DF0709F024C10E948D
:102F0000660E9093A6028093A502C1318CE5D80786
:102F100009F4C6C008F042C0C930ECE5DE0709F488
:102F20009BC000F5C5308CE5D80709F485C078F45E
:102F3000C330ECE5DE0709F478C008F07AC0C2308F
:102F4000DC4509F0F5C08091A5028160EFC0C73073
:102F50009CE5D90709F478C008F07AC08091A502F1
:102F60008061E4C0CD30FCE5DF0709F487C058F488
:102F7000CB309CE5D90709F479C008F07BC080917B
:102F8000A50288606FC0CF30FCE5DF0709F480C080
:102F900008F082C08091A502877FC8C0CD3F9CE524
:102FA000D90709F471C000F5C531FCE5DF0709F464
:102FB00085C068F4C3319CE5D90709F475C008F0F1
:102FC00095C00E94DA088091A5028F77AFC0CB3FF1
:102FD000FCE5DF07A9F108F054C0CA3FDC4509F061
:102FE000A7C08091A60240C0C130EDE5DE0709F41C
:102FF00089C058F4CF3F8CE5D80709F45AC008F0CF
:1030000069C08091A60282602FC0C136EDE5DE075F
:1030100009F47CC0C53AFDE5DF0709F481C0C23080
:10302000DD4509F085C080E06EC08091A502826018
:103030007DC08091A50216C08091A502886076C0EF
:103040008091A60282604FC08091A50280626EC00E
:103050008091A50280646AC00E94DA088091A5026E
:10306000806864C0846062C081603DC08091A502B8
:103070008E7F5CC08091A5028D7F58C08091A50293
:1030800016C08091A60218C08091A6028D7F2BC029
:103090008091A5028F7E4AC08091A5028F7D46C097
:1030A0008091A5028F7B42C08091A502877F8B7F94
:1030B0003DC08091A6028D7F8E7F15C08091A502B4
:1030C00082FB222720F991E0922790FB82F990FB66
:1030D00083F92CC08091A602982F909591708E7FD5
:1030E000892B90FB81F98093A60222C00E94DA0806
:1030F0008091A50287FB222720F991E0922790FB7F
:1031000087F914C081E00E94FC0E12C08091A502D4
:1031100084FB222720F991E0922790FB84F906C0D6
:103120008091A502982F909590FB80F98093A5023D
:103130008091A5029091A6020E94770E0E94DA0863
:1031400080E001C081E0DF91CF91089584E008958F
:1031500050E0440F551F24E1629F400D511D112482
:103160009A0168EC869F200D311D1124C9018796B4
:1031700008950F931F93CF93DF930E94A8188C019B
:103180000E942D25C82FD0E0DC2FCC27C801019646
:103190000E942D259E01282BC901DF91CF911F91FF
:1031A0000F9108950F931F93CF93DF93122F032F47
:1031B0000E94A818EC01602F0E943B25612FCE01D0
:1031C0000196DF91CF911F910F910C943B25AF9207
:1031D000BF92CF92DF92EF92FF920F931F93CF9304
:1031E000DF93A12CE12CF12CB12C00E010E0C0E029
:1031F000D0E06701C00ED11EFE01EE0FFF1FEC0DE7
:10320000FD1DE250FF4F259134914C2F6B2D8A2DDF
:103210000E94D2182196CA30D10571F70C5E1F4F5B
:10322000B3948AE0B812E3CF88ECE80EF11CA394C3
:1032300084E0A812D9CFDF91CF911F910F91FF9019
:10324000EF90DF90CF90BF90AF900895EF92FF92F4
:103250000F931F93CF93DF93EA017A01E60EF71ED7
:103260008C01C8018796CE15DF0569F0003223E096
:10327000120720F40E942D25888301C01882219610
:103280000F5F1F4FEECFDF91CF911F910F91FF90F6
:10329000EF900895EF92FF920F931F93CF93DF93D8
:1032A000EA017A01E60EF71E8C01C8018796CE1559
:1032B000DF0559F0003223E0120718F468810E94FC
:1032C0003B2521960F5F1F4FF0CFDF91CF911F91CC
:1032D0000F91FF90EF900895462F843038F47A30A4
:1032E00028F46A3018F4672F0C94B91880E090E045
:1032F000089580E1089589EB90E00895EF92FF92A0
:103300000F931F93CF93DF93EA017A01E60EF71E26
:103310008C01C801895B9C4FCE15DF0561F0093B2C
:10332000110520F40E942D25888301C01882219662
:103330000F5F1F4FEECFDF91CF911F910F91FF9045
:10334000EF900895EF92FF920F931F93CF93DF9327
:10335000EA017A01E60EF71E8C01C801895B9C4FD9
:10336000CE15DF0551F0093B110518F468810E9464
:103370003B2521960F5F1F4FF0CFDF91CF911F911B
:103380000F91FF90EF900895CF93DF93C7E4D3E0C0
:1033900060E0CE010E943B252196C11584E0D8074C
:1033A000B9F7DF91CF910895DF92EF92FF920F93DB
:1033B0001F93CF93DF9300D000D0CDB7DEB7F82EA8
:1033C0008FE08F15E8F18FEF93E00E942D2581119A
:1033D00037C007E413E0FF2069F0011584E0180707
:1033E00079F1C8010E942D25811101C0FA940F5F67
:1033F0001F4FF1CF19821A821B821C82DD24D394C5
:1034000078018FEFE81AF80AC8010E942D258983F8
:103410001A828823A9F09FEF980F933058F48A837B
:10342000D9820E5F1F4FC7010E942D258B838823F1
:1034300039F07801CE0101960E9434058701E0CF72
:103440000F900F900F900F90DF91CF911F910F91E0
:10345000FF90EF90DF900895CF93DF9386319C45E6
:1034600041F5EB010E946A0D982F8A81209102019B
:1034700030910301882379F09A7A81E009F480E0A1
:1034800080937402911102C069E201C065E3C90131
:103490000E94221C0AC080917402811102C069E25C
:1034A00001C065E3C9010E942D1C0E94AC0D80E0A3
:1034B00001C081E0DF91CF9108950F931F93CF93C7
:1034C000DF93C42FD22FFC0182818823C9F040935F
:1034D00077020E94E61C909376028093750280E248
:1034E0008C0F883008F057C0C77081E001C0880F8A
:1034F000CA95EAF7DF91CF911F910F910C9468065E
:1035000080917702481330C08091750290917602C5
:103510000E94FE1C883C910538F510E21D0FCD1766
:10352000B9F080E28C0F883040F4C77081E001C0B0
:10353000880FCA95EAF70E946F06183028F581E0D7
:103540009D2F977001C0880F9A95EAF70E94680630
:10355000802F0E945F061830F0F4D77081E001C020
:10356000880FDA95EAF70AC080E28C0F883098F469
:10357000C77081E001C0880FCA95EAF7DF91CF914B
:103580001F910F910C946F06802FDF91CF911F91A7
:103590000F910C945F06DF91CF911F910F910895C9
:1035A0000F939C01CB01233F4CE5340731F188F4A4
:1035B000283DFCE53F07D9F0293D4CE5340779F17A
:1035C000273D3C45A9F506E221EE41EE67ED7CE59D
:1035D0002BC0253FFCE53F07E1F0A8F0263F3C4526
:1035E00039F507E225EE46EE66EF7CE51DC007E201
:1035F00025EE45EE68ED7CE517C006E221EE40EED3
:1036000063EF7CE511C007E225EE44EE64EF7CE554
:103610000BC006E221EE42EE65EF7CE505C008E254
:1036200021E045EE69ED7CE50E945D1A80E008C06E
:10363000FC018281882319F01092770201C081E099
:103640000F91089590939F0180939E010895909308
:103650007D0280937C020895E0917C02F0917D02CE
:10366000309721F00190F081E02D099480E00895D9
:10367000E0917C02F0917D02309799F02091180141
:10368000222359F02091A50227FF07C0DC012C91CD
:1036900011962C93119726E02C930280F381E02D54
:1036A00009940895E0917C02F0917D02309739F001
:1036B00022E0DC012C930480F581E02D099408952B
:1036C00020917A0230917B022817390771F090938C
:1036D0007B0280937A02E0917C02F0917D02309728
:1036E00021F00680F781E02D099408952091780259
:1036F000309179022817390771F0909379028093FD
:103700007802E0917C02F0917D02309721F00084F4
:10371000F185E02D09940895FC01329680911801FD
:10372000882331F08091A50287FF02C09EE101C08D
:1037300096E080E0915028F021912223D9F38F5F09
:10374000F9CF0895662351F1209118012223E9F061
:103750002091A50227FF19C0462F4695469546950C
:103760004E31E0F4677021E030E002C0220F331FD9
:103770006A95E2F7FC01E40FF11D828190E02823B5
:10378000392381E0232B69F409C0FC0132960896A5
:103790002191621729F0E817F907D1F780E0089521
:1037A00081E008959C01FC0132969FEF80E04191F9
:1037B000461789F09F3F19F4411101C0982F8F5F80
:1037C0008630A9F79F3F39F0F901E90FF11D97FD08
:1037D000FA956283089508959C012A5F3F4FFC018A
:1037E0004281461301C01282019682179307B9F7EE
:1037F0000895262F2695269526952E3168F4FC01EE
:10380000E20FF11D677021E030E001C0220F6A95E0
:10381000EAF78281282B22830895262F2695269564
:1038200026952E3170F4FC01E20FF11D677021E046
:1038300030E001C0220F6A95EAF7209582812823A3
:103840002283089520911801222329F02091A502B6
:1038500027FD0C94F91B0C94D21B209118012223F4
:1038600029F02091A50227FD0C940D1C0C94EC1B53
:1038700020911801FC013296222331F08091A5029B
:1038800087FF02C08EE101C086E0DF011D928A95AC
:10389000E9F7089508950C944A1C83E080937E0212
:1038A0000C944B1C811102C081E001C082E0809326
:1038B0007E020C944B1C0C94521C81E080937E027F
:1038C0000C944B1C0C945D1C08950C94641C0C947B
:1038D000651C0C94641C0C94641C0C94641CCF93A5
:1038E0000E946B1C0E94E4120E94691CC0E08C2F95
:1038F0000E940E12892B29F4CF5FCA30C1F780E0F5
:1039000001C081E0CF91089508951F920F920FB6E4
:103910000F9211248F939F93AF93BF9380917F0257
:10392000811113C08091CF029091D002A091D10259
:10393000B091D2024196A11DB11D8093CF02909308
:10394000D002A093D102B093D202BF91AF919F91C8
:103950008F910F900FBE0F901F9018958091D702F6
:10396000843031F10E945D0410927F0220E488E1EE
:1039700090E00FB6F894A895809360000FBE209356
:10398000600083B7817F846083BF83B7816083BF1A
:103990007894889583B78E7F83BF0FB6F894A895E7
:1039A00080916000886180936000109260000FBE7B
:1039B00008950E94DA080C94610482E084BD93E0CB
:1039C00095BD9AEF97BD80936E0008952FB7F89438
:1039D0008091CF029091D002A091D102B091D202F9
:1039E0002FBF08952FB7F8946091CF027091D00245
:1039F0008091D1029091D2022FBF08959C014FB7C0
:103A0000F8948091CF029091D002A091D102B09110
:103A1000D2024FBF821B930B089578941F920F928E
:103A20000FB60F9211248F939F93AF93BF93809102
:103A3000CF029091D002A091D102B091D202019612
:103A4000A11DB11D8093CF029093D002A093D1020B
:103A5000B093D202BF91AF919F918F910F900FBE03
:103A60000F901F90189581E08093E00080E2809392
:103A7000D8001092C9008FE19EE40197F1F700C0D1
:103A8000000087E090EBDC018093E0029093E1027C
:103A9000A093E202B093E3029CE088E10FB6F894B1
:103AA000A895809360000FBE90936000FFCF809137
:103AB000A3020895089524E02093E9002FEF3091A8
:103AC000E800215035FD06C035ED3A95F1F70000CC
:103AD0002111F5CF2091E80025FF0BC040E050E018
:103AE00066E070E00E9402208091E8008E7780936B
:103AF000E8000895CF93DF9320911801222339F035
:103B00002091A50227FF03C060E224E002C068E024
:103B100021E02093E9002FEF3091E800215035FD9E
:103B200006C035ED3A95F1F700002111F5CF20914F
:103B3000E80025FF1DC0EC0180911801811105C02E
:103B400040E050E068E070E003C070E040E050E02A
:103B5000CE010E9402208091E8008E778093E800D9
:103B600080E2FE01A3E8B2E001900D928A95E1F7B0
:103B7000DF91CF91089580938002709382026093C9
:103B800081028091D7028430F9F48093E9008FEFAD
:103B90009091E800815095FD06C095ED9A95F1F75A
:103BA00000008111F5CF8091E80085FF0DC040E055
:103BB00050E063E070E080E892E00E940220809193
:103BC000E8008E778093E8000895BC0184E00C94AF
:103BD000BB1DBC0183E00C94BB1DCF93603219F573
:103BE0002091D7022430F9F4C091E900CF703091D0
:103BF000EC00232F217030FD20E8C22B22E020931F
:103C0000E9002091E80020FF0BC040E050E060E2B6
:103C100070E00E9402208091E8008E778093E80097
:103C2000CF70C093E900CF9108958091D6028111A1
:103C300009C00E94DE210E943B228091E200846044
:103C40008093E20008951092D60208950C94621CAD
:103C50006091D30281E0611101C080E00C944D1CA1
:103C60009091D70281E0943009F080E06091D30216
:103C70000C94521C42E061EC81E00E94572142E228
:103C800061EC84E00E94572142E261EC82E00E94F4
:103C9000572142E260EC83E00E9457219091D702C5
:103CA00081E0943009F080E06091D3020C945B1CB9
:103CB0008091D902833009F463C030F4813071F00F
:103CC000823009F49CC008958A3009F488C08B3092
:103CD00009F46EC0893009F0AAC020C08091D802D2
:103CE000813A09F0A4C08091E800877F8093E800C2
:103CF0008091DC029091DD02892B21F460E283E85F
:103D000092E003C060E080E090E070E00E949820C4
:103D10008091E8008B778093E80008958091D80225
:103D2000813209F084C08091DC029091DD0200971D
:103D300019F0029709F07BC08091E800877F80939B
:103D4000E8008091E80082FD05C08091D7028111D2
:103D5000F8CF6DC02091F3008091F20090E0922B9B
:103D6000029731F48091F100813011F0863021F416
:103D70008091F1008093A3028091E8008B7753C07B
:103D80008091D802813A09F052C08091DC02909172
:103D9000DD02892B09F04BC08091E800877F80937A
:103DA000E8008091E80080FFFCCF8091180136C0C8
:103DB0008091D8028132D9F58091DC029091DD02A8
:103DC000892BA9F58091E800877F8093E8000E9405
:103DD0008C218091DA02809318010C94DA0880918A
:103DE000D802813221F58091E800877F8093E80036
:103DF0000E948C218091DB028093A402089580911F
:103E0000D802813AA1F48091E800877F8093E8008E
:103E10008091E80080FFFCCF8091A4028093F100A4
:103E20008091E8008E778093E8000C948C210895AF
:103E300084B7877F84BF0FB6F894A89580916000FF
:103E4000886180936000109260000FBE90E080E86F
:103E50000FB6F89480936100909361000FBE0C94AC
:103E60005D1C0E94DE210E943B22E2EEF0E0808198
:103E70008460808378940C94D0248CE091E00C943E
:103E8000271B8091D7028530A9F48091D702853015
:103E900079F40E94AE1C8091D5028823B1F30E9470
:103EA0006F1C882391F30E94EC1F0E94DA08EDCF6B
:103EB0000C94D91C0895CF93DF93CDB7DEB7A097AC
:103EC0000FB6F894DEBF0FBECDBF8091D70284300D
:103ED00011F583E08093E9008091E80082FF1BC028
:103EE0008091E80085FF0AC040E050E060E270E0A9
:103EF000CE0101960E944D2091E001C090E080919A
:103F0000E8008B778093E800992329F060E2CE01E6
:103F100001960E94B016A0960FB6F894DEBF0FBEB1
:103F2000CDBFDF91CF9108950C94961F292F332791
:103F300023303105C9F060F42130310581F02230A1
:103F4000310509F041C08BE590E024EF34E040C03A
:103F500021323105E1F02232310531F135C082E103
:103F600090E02FE435E034C099278130910549F085
:103F700028F0029749F5EEECF4E005C0E0EFF4E03C
:103F800002C0EAEDF4E0849190E09F0121C063302B
:103F90007105D0F4660F771FFB01E856FE4F2081B4
:103FA000318189E090E014C06330710568F4FB0151
:103FB000EE0FFF1FEE56FE4F20813181FB01E157CE
:103FC000FE4F808190E004C080E090E020E030E08F
:103FD000FA0131832083089580E189BD82E189BDA2
:103FE00009B400FEFDCF8091D8008F7D8093D8006A
:103FF0008091E00082608093E0008091E00081FD8C
:10400000FCCF0895CF92DF92EF92FF920F931F9310
:10401000CF93DF93EC018B017A010E94AB218111D8
:1040200033C0E114F10439F0F70180819181081B5C
:10403000190BC80FD91FC12CD12C0115110519F16D
:104040008091E80085FD16C08091E8008E7780930E
:10405000E800E114F10449F0F70180819181C80E74
:10406000D91ED182C08285E00FC00E94AB21882377
:1040700021F30AC089918093F10001501109FFEFEB
:10408000CF1ADF0ADACF80E0DF91CF911F910F9135
:10409000FF90EF90DF90CF900895CF92DF92EF9254
:1040A000FF920F931F93CF93DF93EC018B017A0163
:1040B0000E94AB21811133C0E114F10439F0F70102
:1040C00080819181081B190BC80FD91FC12CD12CDD
:1040D0000115110519F18091E80085FD16C0809148
:1040E000E8008B778093E800E114F10449F0F701D0
:1040F00080819181C80ED91ED182C08285E00FC017
:104100000E94AB21882321F30AC08091F10089939A
:1041100001501109FFEFCF1ADF0ADACF80E0DF91FB
:10412000CF911F910F91FF90EF90DF90CF90089566
:104130002091DE023091DF022617370748F0611523
:10414000710539F42091E8002E772093E80001C032
:10415000B901FC0120E06115710579F18091D70268
:104160008823F1F18530F1F18091E80083FD3CC0B6
:104170008091E80082FD2EC08091E80080FFEBCFA7
:104180002091F3008091F20090E0922B611571056F
:1041900051F08830910538F421912093F10061505D
:1041A00071090196F3CF21E0089709F020E0809192
:1041B000E8008E778093E800CECF2111CFCF0AC0E0
:1041C0008091D702882361F0853061F08091E8000A
:1041D00083FD0AC08091E80082FFF2CF80E008955D
:1041E00082E0089583E0089581E008952091DE0241
:1041F0003091DF022617370748F06115710539F451
:104200002091E8002E772093E80001C0B901FC015D
:1042100020E06115710591F18091D702882309F49E
:1042200040C0853009F43FC08091E80083FD3DC067
:104230008091E80082FD2FC08091E80080FFE9CFE7
:104240002091F3008091F20090E0922B61157105AE
:1042500059F08830910540F424912093F100319673
:10426000615071090196F2CF21E0089709F020E032
:104270008091E8008E778093E800CBCF2111CCCFDE
:104280000AC08091D702882361F0853061F0809167
:10429000E80083FD0AC08091E80082FFF2CF80E051
:1042A000089582E0089583E0089581E00895982FAD
:1042B000973068F59093E900981739F07091EC0009
:1042C0002091ED005091F00003C0242F762F50E094
:1042D00021FD02C09F5FECCF3091EB003E7F309319
:1042E000EB003091ED003D7F3093ED003091EB001D
:1042F00031603093EB007093EC002093ED0050930D
:10430000F0002091EE0027FDE5CF80E008958F704A
:104310008093E90081E008958091D80287FF11C061
:104320008091E80082FD05C08091D7028111F8CF0D
:1043300011C08091E8008B770BC08091D702882351
:1043400049F08091E80080FFF8CF8091E8008E77F7
:104350008093E80008952091E4003091E50095E60F
:104360004091EC00842F817040FF23C08091E800D1
:1043700080FD1DC08091D702882399F0853099F087
:104380008091EB0085FD11C04091E4005091E50063
:104390002417350729F3915011F09A01E1CF84E0F9
:1043A000089582E0089583E0089581E0089580E013
:1043B00008954091E80042FFDDCF08950E944C220D
:1043C0000E945422E0EEF0E0808181608083E8ED7D
:1043D000F0E080818F77808319BCA7EDB0E08C91ED
:1043E0008E7F8C9380818F7E80831092D602089579
:1043F0000F931F93CF93DF930E944C220E9454226D
:10440000C8EDD0E088818F77888388818068888331
:1044100088818F7D888319BC1092D7021092D302B5
:104420001092D5021092D40200EE10E0F8018081C3
:104430008B7F808388818160888342E060E080E0B8
:104440000E945721E1EEF0E080818E7F8083E2EED2
:10445000F0E0808181608083808188608083F801C2
:1044600080818E7F8083888180618883DF91CF9176
:104470001F910F910895E8EDF0E080818F7E808399
:10448000E7EDF0E080818160808384E082BF81E09D
:104490008093D6020C94F821E8EDF0E080818E7FC5
:1044A00080831092E20008951092DA001092E100E9
:1044B00008951F920F920FB60F9211242F933F93DE
:1044C0004F935F936F937F938F939F93AF93BF931C
:1044D000EF93FF938091E10082FF0BC08091E20097
:1044E00082FF07C08091E1008B7F8093E1000E94F2
:1044F000CF248091DA0080FF1FC08091D80080FF18
:104500001BC08091DA008E7F8093DA008091D90001
:1045100080FF0DC080E189BD82E189BD09B400FE44
:10452000FDCF81E08093D7020E94151E05C019BC03
:104530001092D7020E94231E8091E10080FF19C0D3
:104540008091E20080FF15C08091E2008E7F809311
:10455000E2008091E20080618093E2008091D800C7
:1045600080628093D80019BC85E08093D7020E94B6
:10457000281E8091E10084FF30C08091E20084FF1A
:104580002CC080E189BD82E189BD09B400FEFDCF68
:104590008091D8008F7D8093D8008091E1008F7E3C
:1045A0008093E1008091E2008F7E8093E200809111
:1045B000E20081608093E2008091D302882311F0B1
:1045C00084E007C08091E30087FD02C081E001C064
:1045D00083E08093D7020E94301E8091E10083FF28
:1045E00029C08091E20083FF25C08091E100877F90
:1045F0008093E10082E08093D7021092D3028091F1
:10460000E1008E7F8093E1008091E2008E7F8093B5
:10461000E2008091E20080618093E20042E060E08D
:1046200080E00E9457218091F00088608093F00024
:104630000E94261EFF91EF91BF91AF919F918F91A4
:104640007F916F915F914F913F912F910F900FBE8E
:104650000F901F9018951F920F920FB60F92112472
:104660002F933F934F935F936F937F938F939F937A
:10467000AF93BF93CF93DF93EF93FF93C091E90084
:10468000CF708091EC00D82FD17080FDD0E81092CF
:10469000E9008091F000877F8093F00078940E9479
:1046A0006F231092E9008091F00088608093F00001
:1046B000CD2BCF70C093E900FF91EF91DF91CF91A7
:1046C000BF91AF919F918F917F916F915F914F912A
:1046D0003F912F910F900FBE0F901F9018951F9331
:1046E000CF93DF93CDB7DEB7AA970FB6F894DEBFAE
:1046F0000FBECDBFE8EDF2E08091F100819322E0A2
:10470000E03EF207C9F70E94581E8091E80083FF3F
:104710002EC18091D8029091D902492F50E04A30A1
:10472000510508F024C1FA01EB58FF4F0C94FF2407
:10473000803821F0823809F01AC108C08091D40273
:104740009091D502992389F082600FC08091DC029C
:104750008F70873008F00BC18093E9008091EB00E7
:1047600085FB882780F91092E9009091E800977FF7
:104770009093E8008093F1001092F100D1C0282FAF
:104780002D7F09F0F4C0882319F0823061F0EFC06A
:104790008091DA02813009F0EAC0933009F080E0BC
:1047A0008093D5022EC08091DA0281112AC08091B7
:1047B000DC028F702FEF280F263008F0D8C08093CE
:1047C000E9002091EB0020FF1CC0933021F4809180
:1047D000EB00806214C09091EB0090619093EB002D
:1047E00021E030E0A90102C0440F551F8A95E2F78D
:1047F0004093EA001092EA008091EB008860809379
:10480000EB001092E9008091E800877F8093E80038
:104810000E948C21ACC08111AAC01091DA021F77CE
:104820008091E3008078812B8093E3008091E80001
:10483000877F8093E8000E948C218091E80080FFB0
:10484000FCCF8091E30080688093E300111102C0E7
:1048500082E001C083E08093D70289C08058823013
:1048600008F085C08091DA029091DB028C3D53E024
:10487000950779F583E08A838AE289834FB7F894B4
:10488000DE01139620E03EE051E2E32FF0E050938A
:104890005700E49120FF03C0E295EF703F5FEF7097
:1048A0008E2F90E0EA3010F0C79601C0C0968D932D
:1048B0009D932F5F243149F74FBF8091E800877F98
:1048C0008093E8006AE270E0CE0101960E94982091
:1048D00016C06091DC027091DD02AE014F5F5F4F48
:1048E0000E94941FBC01892B09F441C09091E800FB
:1048F000977F9093E80089819A810E94F6208091A9
:10490000E8008B778093E80032C0803881F5809191
:10491000E800877F8093E8008091D3028093F100C4
:104920008091E8008E7772CF811121C08091DA02E8
:104930009091DB0299270297D4F48091E800877F59
:104940008093E8008091DA028093D3020E948C2148
:104950008091D302811106C08091E30087FD02C0DF
:1049600081E001C084E08093D7020E943A1E8091CA
:10497000E80083FF0AC08091E800877F8093E80009
:104980008091EB0080628093EB00AA960FB6F894BA
:10499000DEBF0FBECDBFDF91CF911F910895089567
:1049A000CF938091D7028823A1F0C091E900CF7006
:1049B0009091EC00892F817090FD80E8C82B1092B7
:1049C000E9008091E80083FD0E946F23CF70C093BF
:1049D000E900CF91089597FB072E16F4009407D0B5
:1049E00077FD09D00E940C2507FC05D03EF4909578
:1049F00081959F4F0895709561957F4F0895EE0FB3
:104A0000FF1F0590F491E02D0994692796276927E7
:104A10007827872778270895AA1BBB1B51E107C079
:104A2000AA1FBB1FA617B70710F0A61BB70B881F3E
:104A3000991F5A95A9F780959095BC01CD010895CD
:104A4000FB01DC0104C08D910190801921F44150DB
:104A50005040C8F7881B990B0895F999FECF92BD75
:104A600081BDF89A992780B50895A8E1B0E042E0A9
:104A700050E00C946125262FF999FECF92BD81BD9F
:104A8000F89A019700B4021639F01FBA20BD0FB68C
:104A9000F894FA9AF99A0FBE08950396272F0E9468
:104AA0003C250E943B25252F0E943C25242F0C9459
:104AB0003C250196272F0E943C250C943B25DC01C8
:104AC000CB01FC01F999FECF06C0F2BDE1BDF89A19
:104AD000319600B40D9241505040B8F70895F894C3
:024AE000FFCF06
:104AE200C8002502280850011E0A1401571D7A1D0C
:104AF2005B1DE91DE51D5A1D01E200E900EA00B552
:104B020000B600B700CD008301CC008A0192019467
:104B1200012102230224022502260227022A02B3CD
:104B220000B4006F007000818283E200E900EA00B5
:104B3200B500B600B700CD008301CC008A01920116
:104B420094012102230224022502260227022A02BC
:104B5200B300B4006F007000818283F0F1F4F5F6C7
:104B6200F7363596943031323367663497959340F1
:0E4B720022B639066105830506051F053F05BD
:00000001FF
