:100000000C9409040C9441040C9441040C94410494
:100010000C9441040C9441040C9441040C9441044C
:100020000C9441040C9441040C941A2E0C94EC2E64
:100030000C945B280C9441040C9441040C944104EE
:100040000C9441040C9441040C9441040C9441041C
:100050000C94F7200C94E3280C9441040C94410474
:100060000C9441040C9441040C9441040C944104FC
:100070000C9441040C9441040C9441040C944104EC
:100080000C9441040C9441040C9441040C944104DC
:100090000C9441040C9441040C9441040C944104CC
:1000A0000C9441040C9441040C9441041C081C0859
:1000B00048084808B008CE08B509B509D90841096B
:1000C00052095209062008200D2010201320162066
:1000D0001920052308232823392341234C234F23A8
:1000E00056235D23A523A523622365236A23772353
:1000F000842387238B239823592F802F7830802FB8
:100100007830CC2FEF2F783046305530165C1E00FB
:100110001F002000210022002400250026002700C7
:100120002D002E0035002A004C002B0014001A0070
:100130000800150017001C0018000C001200130026
:100140002F00300031004B0039000400160007007A
:1001500009000A000B000D000E000F0033003400F0
:10016000280000004E00E1001D001B0006001900E1
:100170000500050011001000360037003800E500CA
:1001800052000000E0000000E20023002C000151BA
:100190002C0000000000E600E700500051004F0076
:1001A000000035003A003B003C003D003E004000AE
:1001B00041004200430044004500010001004900A5
:1001C0000100C25CC35C0100005C01000100010091
:1001D0000100010001000100010001004A000100CE
:1001E000C15CBF5CBE5CBD5C0100010001000100A0
:1001F000010001000100010000004D0001000100AC
:1002000001000100010001000100010001000100E6
:1002100001000100010001000000010000000100D8
:100220003F0001000100010000000000010001008A
:1002300001000100010000000100010001000100B7
:1002400001000100010001000100010001000100A6
:100250000100010001000100010001000100010096
:100260000100010001000100010001000100010086
:100270000100010001000100010001000100010076
:100280000100010001000100010001000100000067
:100290000100010001000100010001000100010056
:1002A0000100010001000100010001000100000047
:1002B0000100000001000100010001000100000038
:1002C0000000010001000100010001000000010028
:1002D0000100010001000100010001000100010016
:1002E0000100010001000100010001000100010006
:1002F00001000100010001000100010001000100F6
:1003000001000100010001000100010001000100E5
:1003100001000100010001000100010001000100D5
:1003200001000100000001000100010001000100C6
:1003300001000100010001000100010001000100B5
:1003400001000100000001000000010001000100A7
:100350000100010000000000010001000100010097
:100360000100000000000000000000002A2B28000F
:100370000000000000000000000000000000002954
:10038000000000002C1E3420212224342627252E94
:10039000362D3738271E1F202122232425263333CC
:1003A000362E37381F0405060708090A0B0C0D0EF8
:1003B0000F101112131415161718191A1B1C1D2FC4
:1003C0003130232D350405060708090A0B0C0D0EE4
:1003D0000F101112131415161718191A1B1C1D2FA4
:1003E0003130354C0000000000000000000000002B
:1003F00000000000000000000000000000000000FD
:1004000000000000000000007E0F00D4FFFFFFC7C7
:100410000000007800047F3F1F64321464321478B7
:100420003C1E1E140A052223252628292A2C2D2F9E
:100430003032333536383A3B3D3E404243454749FA
:100440004A4C4E5051535557595A5C5E606264662F
:1004500068696B6D6F71737577797B7D7F8183853B
:1004600087898A8C8E90929496989A9C9E9FA1A33D
:10047000A5A7A8AAACAEAFB1B3B4B6B8B9BBBCBE61
:10048000BFC1C2C3C5C6C7C9CACBCCCDCED0D1D2DD
:10049000D2D3D4D5D6D7D7D8D9D9DADADBDBDBDCDF
:1004A000DCDCDCDCDDDDDDDDDCDCDCDCDCDBDBDB8B
:1004B000DADAD9D9D8D7D7D6D5D4D3D2D2D1D0CEEB
:1004C000CDCCCBCAC9C7C6C5C3C2C1BFBEBCBBB9F0
:1004D000B8B6B4B3B1AFAEACAAA8A7A5A3A19F9E6E
:1004E0009C9A98969492908E8C8A89878583817F36
:1004F0007D7B79777573716F6D6B69686664626017
:100500005E5C5A5957555351504E4C4A49474543E2
:1005100042403E3D3B3A3836353332302F2D2C2A7F
:10052000292826252322FFAA7F554000000000002D
:1005300000000000000001010203040506080A0C87
:100540000F1114181C2024292E33393F464C535BBD
:10055000626A7179818A929AA2AAB2B9C1C8CFD5CA
:10056000DCE1E7EBF0F4F7FAFCFDFEFFFEFDFCFA40
:10057000F7F4F0EBE7E1DCD5CFC8C1B9B2AAA29A93
:10058000928A8179716A625B534C463F39332E29D6
:1005900024201C1814110F0C0A080605040302017C
:1005A0000100000000000000000000000101010146
:1005B000010101010102020202020202020203031E
:1005C00003030303030304040404040404050505EE
:1005D00005050606060606070707070708080808B0
:1005E000090909090A0A0A0B0B0B0C0C0C0D0D0D5D
:1005F0000E0E0E0F0F0F10101111111212131314F3
:1006000014151516161717181819191A1A1B1B1C6A
:100610001D1D1E1E1F2020212222232424252626C4
:10062000272829292A2B2C2D2D2E2F3031323233F9
:100630003435363738393A3B3C3D3E3F4041424302
:100640004445464748494A4C4D4E4F5051535455E6
:100650005658595A5B5D5E5F616264656668696B96
:100660006C6D6F7072737577787A7B7D7E80828314
:100670008587888A8C8E8F91939596989A9C9EA058
:10068000A2A3A5A7A9ABADAFB1B3B5B7BABCBEC065
:10069000C2C4C6C9CBCDCFD1D4D6D8DBDDDFE2E42E
:1006A000E7E9EBEEF0F3F5F8FAFDFF0E0350006812
:1006B000007900730069005800000006034C005ADE
:1006C0000000000403090409025B00030100A0FA12
:1006D00009040000010301010009211101000122A8
:1006E000400007058103080001090401000203001E
:1006F00000000921110100012222000705820320C8
:1007000000010705030320000109040200010300A2
:100710000000092111010001227B0007058403204C
:1007200000011201000200000008D80481EC010061
:10073000010200010660FF0961A10109621500269E
:10074000FF009520750881020963150026FF0095BA
:100750002075089102C005010902A1018502090165
:10076000A100050919012908150025019508750141
:1007700081020501093009311581257F950275082F
:10078000810609381581257F950175088106050CBC
:100790000A38021581257F950175088106C0C005BC
:1007A000010980A101850319012AB700150126B7A7
:1007B00000950175108100C0050C0901A101850497
:1007C00019012AA002150126A002950175108100C9
:1007D000C005010906A101050719E029E715002553
:1007E00001950875018102950175088101050719B8
:1007F0000029FF150026FF009506750881000508F1
:10080000190129059505750191029501750391015D
:10081000C00011241FBECFEFDAE0DEBFCDBF04B6AB
:1008200003FE18C08091100390911103A091120350
:10083000B09113038730904BA740B04B59F41092FE
:100840001003109211031092120310921303E0E0B0
:10085000F8E3099511E0A0E0B1E0E4E8F3E602C0B6
:1008600005900D92A83DB107D9F723E0A8EDB1E0BE
:1008700001C01D92A031B207E1F70E94E6140C946A
:10088000C0310C940000539A559A0C949713CF934F
:10089000C82F0E943306882351F0C1FF02C05B9A23
:1008A00001C05B98C2FF02C05D9A01C05D98CF9104
:1008B000089581E0089581E008950C945B04089503
:1008C0000C945F041F93CF93DF9300D000D01F924E
:1008D000CDB7DEB749835A836B833091DB018981C1
:1008E0009A81311114C0662359F0222349F00E94E5
:1008F000440B182F682F89819A810E94ED0A03C04A
:100900000E94180B182F69817A81812F04C00E94E0
:10091000440B69817A810F900F900F900F900F9088
:10092000DF91CF911F910C94C025FC01262F4081AF
:1009300051816281738184810C94620481E0089505
:10094000CF93DF93EC0160E00E949504BE01DF913C
:10095000CF910C946004E1E0F0E0DF0102C0AA0F47
:10096000BB1F6A95E2F7BD01DF0102C0AA0FBB1FE2
:100970004A95E2F7AD01462B01C0EE0F2A95EAF742
:10098000942F9823491302C08E2B0895E0958E234F
:100990000895242F462F682F8091FA010E94AB04FE
:1009A0000C94AA0A0C9443040C94951308950E9485
:1009B000450A0E94D6042FEF84E39CE0215080403A
:1009C0009040E1F700C000000C9409290F931F9399
:1009D000CF93DF938C0161E00E949504EC01B80194
:1009E0000E942622882309F452C0B801CE010E9439
:1009F0005D04882309F44BC0B801CE010E94F71FA3
:100A0000882309F444C0B801CE010E942627882318
:100A1000F1F1B801CE010E94B2238823C1F1B801DF
:100A2000CE010E948226882391F1B801CE010E9456
:100A30000A1E882361F1F8018281882309F1CA35F1
:100A40008DE5D807C1F050F4C115FCE5DF0781F052
:100A5000CE3DDC45A9F40E94651019C0CB35EDE50B
:100A6000DE0761F0CC35DD4559F40E94A90F08C0BE
:100A70000E94D7040CC00E94B20F02C00E94B50FA2
:100A8000C801DF91CF911F910F910C94590480E020
:100A9000DF91CF911F910F9108950E943D2880E032
:100AA0000E94AF200E943F060C94871C0E941B1FCF
:100AB0000E9442060E94531D0C944328DF92EF923D
:100AC000FF920F931F93CF93DF93E82FF0E0EC5941
:100AD000FC4FD490282F26952695269530E0F901D5
:100AE000EC5FFB4F0491877010E0082E02C0159553
:100AF00007950A94E2F701701127F901EC50FC4FB9
:100B0000E490F12C082E02C0F594E7940A94E2F7E1
:100B100091E0E922FF24F901EC51FC4FC491D0E0AF
:100B200002C0D595C7958A95E2F7C170DD270115FA
:100B3000110519F081EE0E94A106E114F10419F0EB
:100B400086EE0E94A1068D2D0E94CA07EF2819F09B
:100B500086EE0E944B07012B19F081EE0E944B0795
:100B6000CD2B51F08CE2DF91CF911F910F91FF902F
:100B7000EF90DF900C94CA07DF91CF911F910F91F6
:100B8000FF90EF90DF900895EF92FF920F931F93E5
:100B9000CF93DF93EC01162F0AE08881882309F4B4
:100BA00055C0813009F043C08981813041F47E0114
:100BB00082E0E80EF11C8A810E94CA0709C08230D7
:100BC00049F47E01E2E0EE0EF11C8A810E94A1064A
:100BD000E7012FC0833041F47E01F2E0EF0EF11CFB
:100BE0008A810E944B07F4CF843011F0219621C0F6
:100BF0002A81229680E090E030E0205331092A30AB
:100C0000310558F4089FA001099F500D1124C90116
:100C1000840F951F21962881EFCF009751F0EFE9BF
:100C2000FFE03197F1F700C000000197F6CF0E9476
:100C30005E052196812F882309F4AFCFEFE9FFE00D
:100C40003197F1F700C000008150F5CFDF91CF91CF
:100C50001F910F91FF90EF90089560E00C94C405F0
:100C600008950C94300681E008950895CF93C82F1D
:100C70000E9431068C2F0E944704CF91089580E096
:100C80000C9436060E9482270C9436060E94822716
:100C90009091DA01891721F08093DA010C943606DD
:100CA0000895CF93DF93CDB7DEB72B970FB6F894A7
:100CB000DEBF0FBECDBF4F83588769877A878B878A
:100CC00061110E94F50E9E012F5F3F4F86E0F901F2
:100CD00011928A95E9F785E0FE013796D9010190D6
:100CE0000D928A95E1F789819A814C815D81452B2E
:100CF00031F09F3F31F491E08F3F19F403C091E050
:100D000001C090E090FF09C049815A816B817C81CC
:100D10008D819E810E94160E05C0C9010E949E040D
:100D20008111F2CF2B960FB6F894DEBF0FBECDBF68
:100D3000DF91CF910895FC01808191810E94710B18
:100D40000895CF93882309F4A4C0C82F8238C1F432
:100D50000E94822781FD9DC069E3809102019091EC
:100D600003010E9415280E94170F2FEF81EE94E0D7
:100D7000215080409040E1F700C0000069E319C0B5
:100D8000833801F50E94822780FD83C063E580914E
:100D90000201909103010E9415280E94170F2FEF66
:100DA00081EE94E0215080409040E1F700C00000C7
:100DB00063E580910201909103010E941728CF9171
:100DC0000C94170F8438C1F40E94822782FD61C001
:100DD00067E480910201909103010E9415280E940E
:100DE000170F2FEF81EE94E0215080409040E1F703
:100DF00000C0000067E4DDCF8CEF8C0F813AD0F4A7
:100E00006C2F80910201909103010E94DF278823BB
:100E100049F06C2F80910201909103010E941728E4
:100E20000E94170F6C2F80910201909103010E9484
:100E30001528C5CF80E28C0F883048F4C77081E058
:100E400001C0880FCA95EAF70E94D80EB8CFEBE52B
:100E5000EC0FE33040F4F0E0E45AFE4F808190E084
:100E6000CF910C94A727E8E5EC0FE73150F4F0E0C0
:100E7000EE0FFF1FE25DFE4F80819181CF910C94B8
:100E8000BD27C03F30F08C2F0E946B15CF910C9482
:100E90003D16CF910895882309F464C0823879F40F
:100EA0000E94822781FF5EC069E3809102019091D8
:100EB00003010E9415280E94170F69E310C08338B0
:100EC000B1F40E94822780FF4DC063E5809102014A
:100ED000909103010E9415280E94170F63E58091ED
:100EE0000201909103010E9417280C94170F843877
:100EF00079F40E94822782FF35C067E48091020165
:100F0000909103010E9415280E94170F67E4E7CF14
:100F10009CEF980F913A10F4682FE1CF90E2980F70
:100F2000983050F4877091E001C0990F8A95EAF7E4
:100F3000892F0E94DE0ED9CF9BE5980F933020F4C5
:100F400080E090E00C94A72798E5980F973120F463
:100F500080E090E00C94BD27803F20F00E94C615F1
:100F60000C943D1608951F93CF93DF93182FEB0138
:100F70000E94A106209741F08FE99FE00197F1F7C9
:100F800000C000002197F6CF812FDF91CF911F91F4
:100F90000C944B07893319F060E070E002C060E503
:100FA00070E00C94B307882321F00E94D80E0C94B3
:100FB000170F0895882321F00E94DE0E0C94170F5E
:100FC0000895CF92DF92EF92FF920F931F93CF93EA
:100FD000DF937C01162FC72FFC01D281058102957A
:100FE0000F700E94CE0E8823B9F0DD23A9F08C2F5C
:100FF000807F803421F080E2810F883068F080911A
:10100000960282FD09C082E00E94770F0E94CE0EF8
:1010100091E0D82ED92601C0D12CCC2EC2948FE0DD
:10102000C8228C2D90E08C30910508F09EC1FC0107
:10103000EA5AFF4F0C9414318C2F807FCF70882395
:1010400011F0C295C07FDD2399F0CC2309F479C15A
:1010500080E2810F883010F0111104C08C2F0E94A3
:10106000D80E03C08C2F0E94E80E0E94170F69C192
:10107000812F0E944B07CC2309F477C180E2810FB6
:10108000883038F1112329F18C2F0E94EE0E24C0F4
:101090008C2F807FCF70803211F0C295C07F1123DA
:1010A00019F01130A1F13DC08091960282FF17C066
:1010B000DD2349F0CC2329F08C2F0E94D80E0E940A
:1010C000170F80E03FC180E00E944B07CC2309F45A
:1010D0004CC18C2F0E94DE0E0E94170F46C1DD23EB
:1010E00071F0002341F0013031F40E94F80E8C2B96
:1010F0000E94000F3AC10E94F80E8C2B1DC00023E5
:1011000019F0013009F431C10E940D0F25C0DD2313
:1011100021F0063008F029C10EC0053008F025C1C5
:101120001BC0DD2361F0002331F0F701858180FFD2
:1011300008C18F7085838C2F0E94D30716C10023AE
:1011400059F0193309F00EC1FFEF27EE83E0F1509B
:1011500020408040E1F704C18C2F0E94DA0705C1CE
:101160008C2F86958695837019F0813061F0FDC0D3
:10117000DD2321F0812F9C2F937002C080E090E04E
:101180000E94A727FAC0DD2321F0812F9C2F9370A6
:1011900002C080E090E00E94BD27EFC0812FDD23D8
:1011A00019F00E946B1502C00E94C6150E943D16E0
:1011B000E4C08C2F837079F5D111DBC0412F4295AB
:1011C00046954770440F440F212F2F70042E01C005
:1011D000220F0A94EAF714FF08C08FE090E001C0E4
:1011E000880F4A95EAF7809501C080E0C695C695BC
:1011F000C370822BC23049F058F4C13019F00E94FC
:101200009E0AB7C00E94990AB4C00E94A30AB1C046
:101210000E94970AAEC0DD2319F08C2F817001C0A7
:101220008695882309F4A5C0412F429546954770BD
:10123000440F440F212F2F70042E01C0220F0A9457
:10124000EAF714FF08C08FE090E001C0880F4A95CC
:10125000EAF7809501C080E0C695C695C370822BE1
:10126000C23049F058F4C13019F00E94E20A81C03E
:101270000E94DD0A7EC00E94E70A7BC00E94AA0A83
:1012800078C0CF70DD2339F08C2F0E94BB0A812FEC
:101290000E94D3076EC0812F0E94DA078C2F0E9414
:1012A000C60A67C0123F21F128F4103F41F0113FF8
:1012B000C1F043C0133F19F1143F79F03EC0DD2364
:1012C00041F0053008F051C08C2F8F710E94D20A76
:1012D0004CC0063008F049C0F7CF8091960282FFDB
:1012E00018C0DD2339F08C2F8F710E94BB0A3DC0DE
:1012F000DD23C9F38C2F8F710E94C60A36C0DD230F
:1013000029F08C2F8F710E94B30A2FC00E94B00A5F
:101310002CC0DD2349F0CF718C2F0E94BB0A63E003
:101320008C2F0E945C0F21C081E00E94770F023059
:10133000E0F082E00E94770F18C0DD2331F0002337
:1013400091F2812F0E94A10610C0002399F2193357
:1013500049F49FEFE7EEF3E09150E040F040E1F711
:1013600000C00000812F0E944B0788EF8C0D843055
:1013700020F40E9482270E943606DD20C9F00E94D8
:10138000CA0E80FD15C0F70112820E94C40E0E9491
:10139000BB0AC7010E94F9090E94C40EDF91CF91D8
:1013A0001F910F91FF90EF90DF90CF900C94C60AA1
:1013B000DF91CF911F910F91FF90EF90DF90CF9031
:1013C00008950F931F93CF93DF93EC016881798188
:1013D0008A810E947C0B8C010E94EC0A0E948B0A7D
:1013E000B801CE010E94E107DF91CF911F910F91CB
:1013F0000895CF93DF93EC01988189812B813C8103
:10140000232B31F08F3F31F481E09F3F19F403C06B
:1014100081E001C080E080FD1DC0CE010E94E60495
:10142000811110C00E94CE0E8823A1F08A818823EA
:1014300089F08091960282FD0DC082E0DF91CF910C
:101440000C94770FCE010E94E109CE01DF91CF917C
:101450000C94A004DF91CF91089580E090E00E9469
:10146000A72780E090E00E94BD270E94F50E0E9411
:10147000170F0E946E170C943D16809102019091F7
:1014800003010E9419280C942D0A0E94E50E0C9469
:101490003D0A92959F70963079F010F4925001C0F9
:1014A0009A50923068F4803F69F018F4883E40F416
:1014B00009C0843F29F406C0883E20F0813F11F026
:1014C00080E0089581E00895FC01808191810E946F
:1014D000710B0E94490A0895CF93DF9300D000D08A
:1014E0001F92CDB7DEB70F900F900F900F900F9017
:1014F000DF91CF910895CF93DF9300D000D000D03B
:10150000CDB7DEB726960FB6F894DEBF0FBECDBFBF
:10151000DF91CF910895089508950C948C0A0C944E
:101520008D0A0E948F0A8093FB010C942D0A0C9463
:10153000910A9091FB01892B0C94910A9091FB01E7
:1015400089230C94910A9091FB0189270C94910AAC
:101550000C948C0A0E94A80A8093FA010C942D0A1C
:1015600080E00C94AA0A91E001C0990F8A95EAF7ED
:10157000892F0C94AA0A21E030E001C0220F8A953D
:10158000EAF78091FA01822B0C94AA0A21E030E05C
:1015900001C0220F8A95EAF720958091FA018223F3
:1015A0000C94AA0A21E030E001C0220F8A95EAF7E4
:1015B0008091FA0182270C94AA0A9091FA01892B52
:1015C0000C94AA0A9091FA0189230C94AA0A90918A
:1015D000FA0189270C94AA0A08952FE0929F800DA2
:1015E0001124E82FE695E695E695877051E001C055
:1015F000550F8A95EAF783E0E89FF0011124E45241
:10160000FE4F20E030E070E04081CB01022E02C0AE
:10161000969587950A94E2F78170819584278523B2
:10162000842781932F5F3F4F2330310569F7089559
:101630002FE0929F800D1124682F66956695669520
:10164000982F977083E0689FB001112440E050E02C
:1016500080E0FB01E40FF51FE452FE4F208130E0F3
:10166000092E02C0369527950A94E2F72170332798
:10167000042E01C0220F0A94EAF7822B4F5F5F4FBE
:101680004330510531F70895CF92DF92FF920F93C7
:101690001F93CF93DF936C010091FA018091FB01BE
:1016A000082BC7E0D0E010E0C8010C2E02C09595D1
:1016B00087950A94E2F780FD04C02197A8F7F12CE2
:1016C00007C0FC2EB6018C2F0E9470120197A9F35F
:1016D0008F2DDF91CF911F910F91FF90DF90CF90D1
:1016E0000895CF93DF93EC010E94440BBE010E944A
:1016F0007012DF91CF9108951F93CF93DF93EB0189
:101700009091DB01992321F0CB010E94710B13C052
:10171000882349F0CB010E94440B182F682FCE017B
:101720000E94ED0A04C0CB010E94180B182FBE01C5
:10173000812F0E947012DF91CF911F9108951F9306
:10174000CF93DF93C091FC0116E08091FD01C81793
:1017500099F0D0E01C9FF0011D9FF00D1124E25084
:10176000FE4F4081518162817381848195810E9405
:101770007B0A2196C770E9CFDF91CF911F91089521
:1017800040912E0250912F026091300270913102EF
:1017900080913202909133020C947B0AEF92FF9277
:1017A0000F931F93CF93DF938091330282958F70B5
:1017B00009F065C080913002882309F460C08091EF
:1017C000FC01F090FD0110912E0200912F0260911A
:1017D00031027091320291E01F3F09F090E0C09118
:1017E0000001D0910101292F96E0E92E8F1509F40F
:1017F00046C06115710521F00F3F21F030E003C0B4
:1018000031E001C0322F90E030FD36C0E89EF0019B
:10181000E99EF00D1124DF01A250BE4F11963C91BC
:101820001197301329C03C91311326C012963C9178
:101830001297311121C013964D915C911497461B5C
:10184000570B4C175D07C0F4809133028F70806195
:1018500080933302ED5FFD4F80818F7080618083C4
:101860008EE292E00E94F909DF91CF911F910F91D2
:10187000FF90EF900C949F0B01968770B7CFDF918C
:10188000CF911F910F91FF90EF9008959F92AF928B
:10189000BF92CF92DF92EF92FF920F931F93CF935D
:1018A000DF93CDB7DEB761970FB6F894DEBF0FBEFA
:1018B000CDBF8C0185E0F801DE011D9601900D92EF
:1018C0008A95E1F7D8011296EC9090912E02E09162
:1018D0002F0220913102309132022115310531F071
:1018E000EF3F31F481E09F3F19F403C081E001C074
:1018F00080E0B82FB1709B2E80FD47C1D8014C917C
:1019000011965C9111971396AD90BC9014978EE24E
:10191000C82E82E0D82EF0903002B501621B730B06
:101920002091000130910101FF2009F4D9C080917C
:1019300033026217730708F095C0282F207F09F043
:1019400052C05E1313C0491311C0FE2CE1100EC02B
:101950008F708061809333020E94C00BC6010E9489
:10196000F90980913302F80185834DC1AB2831F02C
:101970005F3F31F481E04F3F19F403C081E001C0C3
:1019800080E080FD03C081E08E2502C080E090E011
:10199000F82FF170FF2E80FF1CC08091FC01209178
:1019A000FD0136E0821709F40BC190E0389FF00189
:1019B000399FF00D1124E250FE4F6181561306C08D
:1019C0006081461303C06281E61203C001968770EE
:1019D000E9CFFE2CEE2009F416C18091330281601C
:1019E0008093330254C05E1306C0491304C0E11053
:1019F00002C0F80199C0C8010E94640A882361F1FD
:101A0000EE2051F120913302822F82958F7090E069
:101A1000029774F080912E0290912F0298878F8305
:101A20001986BB86AA862C87CE0107960E94F909E3
:101A300086E0F801AEE2B2E001900D928A95E1F7FE
:101A40000E94CE0B0E94C00B0AC05E1711F1C801A4
:101A50000E94640A81112CC0C8010E94F909FF2468
:101A6000F394D1C0282F207F81F77A2DB98AA88AD4
:101A70006E2D89890E946C0A8EE292E00E94F9091B
:101A800086E0D6011D928A95E9F70E94C00BF12CE1
:101A9000BAC04913DCCFE110DACFF8018583C80161
:101AA0000E94F90986E0D6011D928A95E9F7ABC03C
:101AB000EE2091F220913302822F82958F7090E078
:101AC00002970CF4B5CF80912E0290912F029A8349
:101AD00089831B82BD82AC822E83CE010196A6CF64
:101AE0006217730708F044C0FE2CEE2009F4B4CF4F
:101AF0005E1330C049132EC02091330220FD21C057
:101B0000822F82958F70482F50E041155105C9F002
:101B1000F80125834F30510541F08F5F982F929542
:101B2000907F822F8F70892B8583C8010E94F909CD
:101B300086E0F801AEE2B2E001900D928A95E1F7FD
:101B40003CC086E0F801AEE2B2E001900D928A95C9
:101B5000E1F759C0C8010E94640A811169CF8091E0
:101B60003302816080933302C8010E94F9094BC09F
:101B70007A2DB98AA88A6E2D89890E946C0A86E01E
:101B8000D6011D928A95E9F718C0EE2009F464CFBA
:101B9000C8010E94640AF82E882309F45DCF86E00C
:101BA000F801AEE2B2E001900D928A95E1F78EE283
:101BB00092E00E949B060E94CE0B0E94C00B23C0A5
:101BC0004D875E878D859E850E94710B292F2295FA
:101BD0002F70223028F49F7039F0811105C00BC09E
:101BE000243028F49F7049F4805E883020F0C801CA
:101BF0000E94F9099F2CF92C06C0D80115969C91DA
:101C0000907F91F7F8CF8F2D61960FB6F894DEBFD5
:101C10000FBECDBFDF91CF911F910F91FF90EF903D
:101C2000DF90CF90BF90AF909F9008951F93CF9378
:101C3000DF93CDB7DEB72C970FB6F894DEBF0FBE9B
:101C4000CDBF4F83588769877A878B879C87CE0162
:101C500007960E94460C8823D1F09F8188852A85AB
:101C60003B85232B31F08F3F31F481E09F3F19F406
:101C700003C081E001C080E080FD47C04F815885EE
:101C800069857A858B859C850E947B0A3EC086E0AB
:101C9000FE013796DE01119601900D928A95E1F7CB
:101CA000FF81E8856A857B856115710531F0EF3F1D
:101CB00031F481E0FF3F19F403C081E001C080E00E
:101CC00080FD23C02091FD0130E0C901019687709D
:101CD00099274091FC0150E084179507F1F1F983B1
:101CE000EA837D836C8396E0929FD001939FB00D31
:101CF0001124A250BE4FFE01319601900D929A958B
:101D0000E1F78093FD010E949F0B16E08091FC019A
:101D10009091FD01891771F1189FC0011124825023
:101D20009E4F0E94460C882329F1E091FC011E9FE2
:101D3000F0011124E250FE4F408151816281738194
:101D4000848195810E947B0A8091FC0190E001963C
:101D5000877099278093FC01D9CF0E94450A109281
:101D6000FD011092FC01EEE2F2E086E0DF011D923F
:101D70008A95E9F72C960FB6F894DEBF0FBECDBF5B
:101D8000DF91CF911F91089580913C0285958595B3
:101D90008595089580913C028770089590913C024A
:101DA000977081E009F480E00895809147020895DA
:101DB00090914702892B80934702089580959091D6
:101DC000470289238093470208951092470208959D
:101DD00090914602892B80934602089580959091B8
:101DE0004602892380934602089510924602089580
:101DF00080913D02089508950C94FB0E0C94FC0E06
:101E00009091960292FD08C090913D02981721F0A2
:101E100080933D020C94FE0E089580913D0288232C
:101E200029F010923D0280E00C94FE0E0895CF93AD
:101E3000DF93E0910201F0910301809147028083DA
:101E4000E0910201F0910301908180914602892B7B
:101E5000808380913D02882381F0E0910201F0911E
:101E600003019081892B808380910201909103016D
:101E70000E94D32781110E940D0FC0910201D091C1
:101E8000030148E050E064E372E0CE010E946B3150
:101E9000892B69F088E0FE01A4E3B2E001900D9285
:101EA0008A95E1F7CE01DF91CF910C948E27DF91D7
:101EB000CF9108950C94FB0E9091960292FD10C064
:101EC00098E0899F90011124262B20933C020E94C8
:101ED000BB0A80913C028595859585950C945A0F97
:101EE0000C94BB0A10923C0280E00C945A0F209193
:101EF0003C028095822380933C02982F977099F43E
:101F000030E0482F082E000C550B2417350759F0E8
:101F10009091960292FD07C08595859585950E94C2
:101F2000C60A0C94720F08959091960292FB222794
:101F300020F9281769F080FB92F99093960280911E
:101F40009502909196020E94E20F82E00C94770F26
:101F500008958091960282FB882780F991E0892775
:101F60000C94940F81E00C94940F80E00C94940FE7
:101F70006FEF7FEF80E090E00C94AA3180E090E07A
:101F80000E948631893E9E4F11F40C94BE2180E060
:101F9000089582E090E00C94783183E090E00C9416
:101FA0007831CF9384E090E00E947831C82F82E2AC
:101FB00090E00E9478312C2F30E0A901582BCA0103
:101FC000CF910895CF93C92F682F84E090E00E94AD
:101FD0008C316C2F82E290E0CF910C948C31AB016C
:101FE000BC018FE090E00C949E31AB01BC0183E119
:101FF00090E00C949E3160E070E0CB010C94F50F02
:1020000060E070E0CB010E94EF0F0C94FB0F69EED3
:102010007EEF80E090E00E94AA3160E082E090E0F4
:102020000E948C3160E083E090E00E948C3110923D
:10203000FB0160E084E090E00E948C3160E082E28D
:1020400090E00E948C3160E085E090E00E948C314D
:1020500060E086E090E00E948C316FEF87E090E0D6
:102060000E948C3140E050E0BA0188E090E00E948C
:102070009E3160E08DE090E00E948C3140E050E0C5
:10208000BA0188E190E00E949E3160E087E190E033
:102090000E948C3140E050E0BA018CE190E00E9457
:1020A0009E3160E070E080E290E00E94AA3140E062
:1020B00050E0BA0188E190E00E949E3180E00E94E9
:1020C000D7210E940A220C9400100C940710682F4C
:1020D0008EE090E00C948C310E94C82860935602E8
:1020E0007093570280935802909359026093520262
:1020F000709353028093540290935502089585B7CC
:10210000806885BF85B7806885BF089581E00895A0
:102110000C94861008950C948A100C948A100C94D8
:102120008D100C948A100C9491100C948A100E94BB
:102130007F108CE493E10E9478270E9495100C9404
:1021400093100E948B100C948A100E9466130E94B8
:1021500035060C947D210E94B3280E9419220E940A
:102160003F140E94A5100E941B1F0E94181D0C9472
:102170008F105F926F927F928F929F92AF92BF92D9
:10218000CF92DF92EF92FF920F931F93CF93DF9343
:10219000CDB7DEB72A970FB6F894DEBF0FBECDBF1E
:1021A0000E945414C82E81110E946C1038E4832EB2
:1021B00032E0932E00E010E0502E802F0E9480131A
:1021C0005C01F401619071904F01682679266114D9
:1021D0007104B1F40F5F1F4F0530110569F78FEFE0
:1021E00089838A831B820E94BC288160782F9D830B
:1021F0008C8349815A816B818D810E9451063AC03E
:1022000080915A0281FD0E948913D12CEE24E3941F
:10221000F12CC3018E219F21892B29F10E94881066
:102220008823A9F0DE825F82AE20BF2081E0AB2848
:1022300009F480E088870E94BC288160782F9A8703
:1022400089874E815F8168858A850E945106000FCB
:10225000111FF801E85BFD4F80819181E826F92686
:10226000F182E08207C0D394EE0CFF1CFFE0DF1286
:10227000D0CFB0CF81E0C11001C080E02A960FB668
:10228000F894DEBF0FBECDBFDF91CF911F910F91AC
:10229000FF90EF90DF90CF90BF90AF909F908F9086
:1022A0007F906F905F9008950E94B9100E945C1D0E
:1022B0000E94E1200E945B160C944606CF93DF93A8
:1022C0000E947512EC01811521E5920708F045C0C6
:1022D000811530E5930708F094C0883E910528F5F4
:1022E000803E910508F0F8C0883A910570F4853A6F
:1022F000910508F07CC08130910509F475C008F49F
:10230000E8C0049708F0E8C0E4C08F3B910508F0EE
:10231000E0C0C85AD0E0CC0FDD1FC15ADE4F099093
:10232000D881C02DCE019464D8C0811540E29407B5
:1023300058F4811551E0950708F0CEC0803F910513
:1023400008F4C7C09065C9C0C11580E4D80708F477
:10235000C0C0DF70CE01906AC0C0811525E592072C
:10236000A8F4811534E5930708F095C0811543E57D
:10237000940708F07BC0811552E5950708F061C00D
:10238000D82FCC27CE01816F906AA7C0C11589E5EF
:10239000D807A0F4C11528E5D20708F082C0C115FE
:1023A00036E5D30708F095C08C2F0E9409138F7172
:1023B00090E0D82FCC27CE0190628FC0C1154AE59E
:1023C000D40708F474C0CE0190568115904208F0ED
:1023D00080C08D2F8F710E940913DD27D0628F710D
:1023E000AE01582BCA0179C081E090E076C0C55A91
:1023F000D0E0C357DE4F8881C82FD0E0CE01906473
:102400006CC074E0969587957A95E1F7282F237034
:102410003C2F337081E090E002C0880F991F3A95FD
:10242000E2F79C68AC01522B9A019C2F9F70969505
:10243000969550E2959FE0011124C9018C2B9D2BAC
:102440004CC08370992721E030E002C0220F331F77
:102450008A95E2F79C2F9695969580E2989FE001E9
:102460001124C22BD32BCE019C6837C083709927CF
:1024700021E030E002C0220F331F8A95E2F79C2F43
:102480009695969540E2949FE0011124C22BD32BA0
:10249000CE019A6822C0D82FCC27CE01846F906AD3
:1024A0001CC0DC2FCC27CE01806F906A16C08C2F09
:1024B0008F700E94091394E0D695C7959A95E1F71D
:1024C000CF70D0E0DC2FCC27D0699E01282BC9012A
:1024D00004C080E090E001C0CE01DF91CF9108956B
:1024E0000E94C0250E945E1108958238910569F10D
:1024F000B0F48133910509F46DC048F48932910537
:1025000009F463C08A32910509F469C008958533DE
:10251000910509F455C089339105B9F00895833EBA
:10252000910569F138F4803E9105B1F0823E910544
:1025300009F10895863E9105A9F1873E9105B9F10B
:10254000843E910509F064C023C02091950220FDCE
:102550004FC021FD4DC008958091950280FD44C07B
:102560008091960280FF44C08091950284FD42C014
:1025700083EE4DC08091950282FF38C0F5CF8091E7
:10258000950282FD33C08091960280FD31C0ECCF70
:102590008091960281FF32C08091950284FD2AC00D
:1025A00087EE35C08091950283FF26C0F5CF8091DC
:1025B000950283FD21C08091960281FD1FC0ECCF62
:1025C0008091950285FD1CC01DC08091950285FDFE
:1025D00019C016C08091950286FD16C017C0809163
:1025E000950286FD13C010C089E311C082EE0FC0B2
:1025F00080EE0DC080E00BC086EE09C084EE07C0FF
:1026000089E205C085E303C08AE201C081E390E06E
:1026100008959091950292FF0DC0282F28712830BF
:1026200019F4877F846006C0282F2471243011F4A8
:102630008B7F886093FF0DC0282F2871283119F4F3
:10264000877E846106C0282F2471243111F48B7E8B
:1026500088612091960220FF0DC0382F38713830E4
:1026600019F4877F816006C0382F3171313011F441
:102670008E7F886021FF0DC0282F2871283119F422
:10268000877E816106C0282F2171213111F48E7E51
:10269000886194FD877E089580E008950C94B80FBA
:1026A0000E9454148FE39CE90197F1F700C00000E9
:1026B0000E94541480E00E94801380FF04C00E9496
:1026C0004E130C94092908950C9450130E94BE0FC8
:1026D000811102C00E9465100E94C90F80935A02A6
:1026E0000E94D10F90939602809395020E946413EA
:1026F0000E94CD0F0E94970A8091FA010C94A80ABB
:10270000E82FF0E0EE0FFF1FEF55FD4F8081918124
:102710000895089580EA8A95F1F7089500C0089514
:102720000C948A1308950C9492130C9493130C94A4
:102730009213F894E82FE295EF70F0E031A1282F82
:102740002F7081E090E001C0880F2A95EAF7982F5A
:102750009095932391A392A1892B82A378940895B5
:102760000F931F93CF93DF93CFE9D1E089918F3FF0
:1027700011F00E94991381E0C43AD807B9F7C0E973
:10278000D1E00FE911E089918F3F11F00E94991378
:102790000C171D07C1F7DF91CF911F910F9108957D
:1027A000BF92CF92DF92EF92FF920F931F93CF933E
:1027B000DF938C01C62FD0E0CE0181569E4F6C0175
:1027C000FC0190819F3F09F450C0B62EF894E92F88
:1027D000E295EF70F0E081A19F7021E030E001C050
:1027E000220F9A95EAF7822B81A382A120952823B4
:1027F00022A378940E948E13E0E9F1E04FE951E0C2
:1028000021E030E0E12CF12C61916F3F89F0A62F9F
:10281000A295AF70B0E090968C9190E06F7002C07E
:10282000959587956A95E2F780FD02C0C90102C0BF
:1028300080E090E0E82AF92A220F331F4E175F0745
:1028400019F7F60180818F3F11F00E94991361E022
:10285000E114F10409F460E08B2D0E949013CC0F79
:10286000DD1FC00FD11FF982E882DF91CF911F9148
:102870000F91FF90EF90DF90CF90BF9008950E944E
:10288000B0138AE0E1EAF2E0DF01982F1D929A95F9
:10289000E9F7E7E9F2E0DF011D928A95E9F785E0C3
:1028A0000E949F140C94D204FF920F931F93CF9316
:1028B000DF93CDB7DEB72A970FB6F894DEBF0FBE11
:1028C000CDBF8E010F5F1F4F8AE0F80111928A95EC
:1028D000E9F7F12C6F2DC8010E94D013F394F5E0B5
:1028E000FF12F8CF4AE050E0B80187E992E00E9479
:1028F0006B31FF24F394009709F4F12C892B41F0FC
:102900008AE0F801A7E9B2E001900D928A95E1F71B
:102910002F2D45E061EA72E087E992E00E94A01461
:102920000E94D4048F2D2A960FB6F894DEBF0FBEF6
:10293000CDBFDF91CF911F910F91FF900895089522
:10294000FF920F931F93CF93DF93F82E092F162F2B
:10295000D72FC42F222349F081E080935D020E948B
:10296000BC2890935C0280935B0280915D02882377
:10297000D9F080915B0290915C020E94D428059767
:1029800098F0EF2DF02FA12FBD2F80E090E04C2F7D
:1029900050E08417950734F4219131912D933D93A4
:1029A0000196F7CF10925D02DF91CF911F910F91A9
:1029B000FF9008950E94F22A0E94AB100C94FE2A08
:1029C0000E94022B0E9454110C941C2B0E945A2826
:1029D0000E94D92A0E9497100E94DA140E94E014E3
:1029E0000E94A110FBCF8091640280FF06C060911D
:1029F000090170E0660F771F26C081FF04C0609157
:102A0000090184E005C082FF07C06091090188E0E8
:102A1000689FB001112417C0909163029923D1F0EF
:102A200060910801961788F72091090188E0289F96
:102A300090011124929FA001939F500D112470E0EA
:102A4000CA010E94DE306038710540F461157105DD
:102A500019F406C068E070E0862F08958FE70895A6
:102A600081E008958091640280FF08C060910501B3
:102A700070E0759567957595679521C081FF06C0D3
:102A80006091050170E07595679519C082FF04C0DB
:102A90006091050170E010C090916202992399F055
:102AA000609104019617A0F780910501899FC001EC
:102AB000112470E00E94DE306038710540F4611529
:102AC000710519F406C061E070E0862F08958FE764
:102AD000089581E00895803F21F40E94F3148195C8
:102AE00004C0813F29F40E94F31480936802089582
:102AF000823F21F40E94F314819504C0833F29F49E
:102B00000E94F314809367020895893F19F40E948C
:102B1000321505C08A3F31F40E94321581958093A9
:102B2000690208958B3F21F40E943215819504C0FB
:102B30008C3F29F40E94321580936A0208959CE02C
:102B4000980F953078F421E030E0A90102C0440FDD
:102B5000551F9A95E2F7CA0190916602892B8093DE
:102B6000660208958D3F21F48091640281600BC05C
:102B70008E3F21F480916402826005C08F3F29F46A
:102B8000809164028460809364020895803F39F4E8
:102B90009091680297FF35C01092680259C0813F3A
:102BA00029F4909168021916BCF32BC0909167022A
:102BB000823F29F497FF25C01092670249C0833FE6
:102BC00019F41916CCF31DC090916902893F29F4BC
:102BD0001916BCF4109269023BC08A3F19F497FFA2
:102BE00010C0F8CF8B3F39F490916A0297FF09C06B
:102BF00010926A022DC08C3F21F490916A0219163E
:102C0000BCF39CE0980F953080F421E030E0A901FE
:102C100002C0440F551F9A95E2F7CA018095909122
:102C2000660289238093660213C08D3F21F4809150
:102C300064028E7F0BC08E3F21F4809164028D7FF1
:102C400005C08F3F29F4809164028B7F80936402DA
:102C500080916702811106C080916802811102C0D3
:102C60001092630280916902811106C080916A020C
:102C7000811102C01092620208950E94BC28209126
:102C80006702211104C020916802222321F0909351
:102C900061028093600220916902211104C0209199
:102CA0006A02222321F090935F0280935E0285E600
:102CB00092E00C949927EF92FF920F931F93CF937A
:102CC000DF9300D000D000D0CDB7DEB786E0E5E6D8
:102CD000F2E0DE01119601900D928A95E1F7E09005
:102CE0006702F09068020091690210916A021092E6
:102CF0006702109268021092690210926A02E11053
:102D000003C0FF2009F45DC08091600290916102D0
:102D10000E94D428AC0190916302992339F020914C
:102D20000A0130E02417350758F04BC020910B0101
:102D30008AE0289F900111242417350718F041C01C
:102D40009F3F19F09F5F90936302EE2061F00E9415
:102D5000F3141E1414F09FEF01C091E0989F902D82
:102D6000112490936702FF2061F00E94F3141F1456
:102D700014F09FEF01C091E0989F902D1124909343
:102D80006802309167023323E1F020916802222328
:102D9000C1F045EB3403C0011124992319F090933D
:102DA000670203C081E08093670235EB2303C00113
:102DB0001124992319F09093680203C081E0809355
:102DC0006802011103C0112309F45DC080915E0205
:102DD00090915F020E94D428AC01909162029923E5
:102DE00039F02091060130E02417350758F04BC028
:102DF000209107018AE0289F9001112424173507AC
:102E000018F041C09F3F19F09F5F9093620200232A
:102E100061F00E943215101614F09FEF01C091E08E
:102E2000989F902D112490936902112361F00E94C4
:102E30003215111614F09FEF01C091E0989F902D6C
:102E4000112490936A02309169023323E1F02091BA
:102E50006A022223C1F045EB3403C00111249923F7
:102E600019F09093690203C081E08093690235EB09
:102E70002303C0011124992319F090936A0203C01F
:102E800081E080936A028091670281110BC080917A
:102E90006802811107C080916902811103C080918D
:102EA0006A0281110E943D16EB82FC820D831E8313
:102EB00086E0FE013196A5E6B2E001900D928A957A
:102EC000E1F726960FB6F894DEBF0FBECDBFDF91B7
:102ED000CF911F910F91FF90EF900895E5E6F2E0FA
:102EE00086E0DF011D928A95E9F710926302109245
:102EF0006202109264020895EF92FF920F931F9363
:102F0000CF93DF938B01682F11110AC0442329F05E
:102F1000E82FF0E0E555FA4F6491762F862F75C0C3
:102F2000212F30E0E82FF0E0442321F0E555FA4F5F
:102F3000E491F0E046E0049FC0011124CFEFD0E01F
:102F4000BE010E94CA304BEA4603C001479F900D64
:102F50001124800F911D800F911D982F990F890FBB
:102F6000AE01421B530B4E9FD0014F9FB00D5E9F91
:102F7000B00D11249B2F189FA0011124452F552718
:102F80008E01041B150B0E9FA0010F9F500D1E9F5D
:102F9000500D11247E01E81AF108E29E8001E39EA3
:102FA000100DF29E100D1124212F3327C21BD30BBD
:102FB000CE9F9001CF9F300DDE9F300D11246230E7
:102FC0007105A9F048F46115710569F0613071056A
:102FD000C9F48B2F752F0DC06430710581F058F046
:102FE0006630710579F47E2F8B2F932F0DC0832FC0
:102FF0007B2F9E2F09C08E2F7B2F952F05C08E2FE4
:10300000732F02C07E2F852F692FDF91CF911F91E3
:103010000F91FF90EF90089541E00E947C17089572
:1030200008950E940C180895CF93DF93762FE9013D
:10303000682F842F0E941118798368838A83DF9117
:10304000CF9108958091AB02282F269530E021156D
:10305000310519F48170826005C02532310524F0F4
:10306000817088648093AB02089588E090E00C94AE
:103070008031CF92DF92EF92FF926B017C010E9430
:103080002218B701A60188E090E0FF90EF90DF9052
:10309000CF900C949E316091AB027091AC02809104
:1030A000AD029091AE020C943918EBEAF2E083E0A5
:1030B000808311828FEF8283838314826081718188
:1030C000828193810C9439188091AB0280FF02C0F9
:1030D0008695089580E008959091AF02933018F49A
:1030E0009F5F9093AF02882351F06091AB02709183
:1030F000AC028091AD029091AE020C943918089503
:1031000081E00C946C189091AF02992319F09150C2
:103110009093AF02882351F06091AB027091AC02A2
:103120008091AD029091AE020C943918089581E01F
:103130000C9483188091AF0208958093AF026623A8
:1031400051F06091AB027091AC028091AD02909110
:10315000AE020C943918089560E00C949D1880918B
:10316000AC0208958091AD0208958091AE02089559
:1031700070E00C949321609110018091AB0280FF6C
:103180000AC080910F0123E0829FC0011124805565
:103190009D4F0C94B81880911101909112018917DC
:1031A00080F7E82FF0E09F01220F331FE20FF31F9B
:1031B000E055FD4F1182108212828F5FF0CF909107
:1031C000AB0290FF16C0909111012091120192174D
:1031D00070F4E92FF0E0DF01AA0FBB1FEA0FFB1F1D
:1031E000E055FD4F8183608342839F5FF0CF0C9455
:1031F000BB180895CF93DF9300D01F92CDB7DEB7F1
:103200009091AB0290FF0AC09E012F5F3F4F0E943A
:1032100014184B8169818A810E94DF180F900F90EA
:103220000F90DF91CF910895CF93DF93EC01EC8164
:10323000F0E0EA5DFB4F4491EBEAF2E062818181CC
:103240000E94FA188C818F5F8C83DF91CF91089553
:10325000CF93DF93EC01EBEAF2E0438162818C8152
:103260000E94FA188C818F5F8C83DF91CF91089533
:103270000F931F93CF93DF9300D01F92CDB7DEB78C
:103280008C0180916B0281110AC09E012F5F3F4F1C
:103290004FEF6FEF0E9414188A8180936B02F80140
:1032A0008481813051F028F0823061F440916B02CA
:1032B0000AC080916B0240E007C060916B0240E061
:1032C00080E003C040E080E060E00E94DF18F80189
:1032D000848190E0019663E070E00E94DE30848398
:1032E0000F900F900F90DF91CF911F910F91089544
:1032F000AF92BF92CF92DF92EF92FF920F931F9304
:10330000CF93DF9300D01F92CDB7DEB7182FF62EE4
:10331000042FE22E9091AB0290FF6DC0E92FE6954D
:10332000AE2FB0E0AC55BE4F8C91809377029E7F5C
:10333000923061F49E012F5F3F4F812F0E9414183D
:103340004B8169818A810E94DF1843C0823019F461
:103350000091AE023EC0863019F41091AC0239C023
:103360008930D9F38931A9F5E9518E2F8170D82E92
:10337000E695F0E0EA5DFA4FA590B490C12CBB242D
:1033800060911301C61618F52C2D30E0A29EC001E5
:10339000A39E900DB29E900D112470E00E94CA3041
:1033A000812FD11002C0860F01C0861B90911101A0
:1033B000290F311DA901440F551F240F351F20551A
:1033C0003D4F402F6F2D0E941418C394D9CF0E94F7
:1033D000BB181093AC02F092AD020093AE02EE2047
:1033E00051F06091AB027091AC028091AD0290916E
:1033F000AE020E9439180F900F900F90DF91CF917D
:103400001F910F91FF90EF90DF90CF90BF90AF9002
:103410000895EBEAF2E09181282F4381628188E0F0
:10342000890F0C94781981E00C94091AEBEAF2E008
:103430009181282F4381628188EF890F0C9478193C
:1034400081E00C94161AEBEAF2E0628128E0620F48
:1034500008F46FEF282F438181810C94781981E063
:103460000C94231AEBEAF2E0628128E0621B08F474
:1034700060E0282F438181810C94781981E00C94BD
:10348000321AEBEAF2E0438128E0420F08F44FEFF2
:10349000282F628181810C94781981E00C94411A63
:1034A000EBEAF2E0438128E0421B08F440E0282FD9
:1034B000628181810C94781981E00C94501A20E08B
:1034C0000C947819FF920F931F93CF93DF93EC0125
:1034D000F12C0FEF10E060911301F616F0F48091DB
:1034E00011012F2D30E0280F311DC901880F991FC0
:1034F000280F391F20553D4F70E0C8010E94DE3073
:10350000962F8C814091AE026091AD02F99E800DA4
:1035100011240E941418F394DECF0E94BB189A81E4
:103520008C8190FF02C08F5F01C081508C83DF913E
:10353000CF911F910F91FF900895AF92BF92CF92BC
:10354000DF92EF92FF920F931F93CF93DF93FC01D3
:10355000828180FF02C00FEF01C001E010E04AE16C
:10356000A42E80911301181708F043C08091110117
:10357000C12ED12CE601C80FD11DCE01880F991F95
:10358000C80FD91FC055DD4F198218821A8234E046
:10359000E32EF12CB12C80916D028B0D8B312CF030
:1035A0006A2D0E94BC30892F05C087FF03C090910F
:1035B0001301890F082E000C990BC816D90691F437
:1035C0008091AE028E9DA0018F9D500D11245595C6
:1035D0004795559547959E016091AD028091AC024B
:1035E0000E941418B00EF1E0EF1AF108A1F61F5F67
:1035F000B8CF0E94BB1880916D02013031F4811167
:1036000002C080911301815007C090E00196609143
:10361000130170E00E94DE3080936D02DF91CF9144
:103620001F910F91FF90EF90DF90CF90BF90AF90E0
:103630000895CF938091110190911201891770F430
:10364000E82FF0E09F01220F331FE20FF31FE05538
:10365000FD4F1182108212828F5FF0CFC0E0609127
:103660001301C617C0F5EC2FF0E070E0CF010E9407
:10367000DE3020911101820F20916C02022E000C8D
:10368000330B90E0E217F307CCF020910E01022EED
:10369000000C330B2E173F078CF09C01220F331FB9
:1036A000820F931F9C0120553D4F4091AE026091C7
:1036B000AD028091AC020E9414180BC0FC01EE0F09
:1036C000FF1F8E0F9F1FFC01E055FD4F11821082DE
:1036D0001282CF5FC4CF0E94BB1820910D01809150
:1036E0006C02820F80936C0290910E01920F909366
:1036F0000E0119165CF4082E000C990B4091130171
:1037000050E041505109841795071CF021952093F2
:103710000D01CF9108958F929F92AF92BF92CF9259
:10372000DF92EF92FF920F931F93CF93DF938C0161
:10373000FC014481C42FD0E09E01DE010E942931AA
:103740009B01AC010E943F316B017C01E0E2F0E0A3
:10375000EC1BFD0BA5E5B0E09B01AC010E943F31E5
:103760004B015C019F01DF010E9421319B01AC01F3
:103770000E944A319B01AC012C0D3D1D4E1D5F1D69
:10378000C501B4010E94F230C22FD22F2A3228F490
:10379000F3E02F9F900111240DC025E530E02C1B94
:1037A0003109C901880F991F280F391F37FF02C03F
:1037B0002F5F3F4F35952795C22FC095F12C85E59A
:1037C000E82EED1A80911301F816C8F4F1FC02C03E
:1037D0008E2D01C08D2F909111012F2D30E0290FDA
:1037E000311DA901440F551F240F351F20553D4F92
:1037F0004C2F6091AD020E941418F394E3CF0E9405
:10380000BB18F8018481811102C091E003C08032AD
:1038100019F49FEF90930C0190910C01890FF8011E
:103820008483DF91CF911F910F91FF90EF90DF90F4
:10383000CF90BF90AF909F908F9008950F931F935C
:10384000CF93DF93EC0100E010E080911301282F6B
:1038500030E00217130724F5909111019801290F08
:10386000311DA901440F551F240F351F20553D4F11
:10387000869590E04C81081719071CF4442331F019
:1038800002C0411103C04091AE0201C040E060910E
:10389000AD028091AC020E9414180F5F1F4FD5CF6C
:1038A0000E94BB188C8190E00196817099278C83CF
:1038B000DF91CF911F910F910895EBEAF2E08081A3
:1038C0008E7F808360817181828193810E9439180B
:1038D000109278022FEF80E792E0215080409040D4
:1038E000E1F700C000000C94BB18EBEAF2E0808125
:1038F0008E7F8083109278022FEF80E792E0215034
:1039000080409040E1F700C000000C94BB1810927A
:1039100078028091750281110AC081E0809375025E
:103920008091AB028170809374020C94751C089591
:103930006091AB02669570E04BE050E084E191E06D
:103940000E945E31892B19F481E0809378020E94F5
:10395000BC2890936F0280936E0208959091AB0201
:1039600090FF35C09170811102C0926006C085320F
:1039700010F0986402C0880F982B9093AB026623D6
:1039800051F06091AB027091AC028091AD029091C8
:10399000AE020E9439186091AB02669570E04BE070
:1039A00050E084E191E00E945E31892B19F0109281
:1039B000780202C00E94981C81E0809371024091BD
:1039C000AE026091AD028091AC020C945F1A089532
:1039D000682F9091AB02969581E0890F853208F0AF
:1039E00081E00C94AE1C81E00C94E81C682F90914F
:1039F000AB0296958FEF890F09F484E20C94AE1C0C
:103A000081E00C94F61C61E00C94AE1CEBEAF2E051
:103A100080818160808386950C94031D8091AB0228
:103A200080FD0C945D1C0C94061D60E00C94AE1C93
:103A30008091760281112EC00E94BE0F811104C0B8
:103A40000E9465100E9455180E9435186093AB02C1
:103A50007093AC028093AD029093AE026E7F61F4DE
:103A60000E9455180E9435186093AB027093AC0207
:103A70008093AD029093AE020E94221810927802B9
:103A80008091AB0280FF03C086950E94151D81E0E6
:103A9000809376020895EBEAF2E080818160808372
:103AA00086950C94151D10927502809174028111F7
:103AB0000E944B1D0C94981C0F931F93CF93DF9380
:103AC00080917802882309F485C080917702E09183
:103AD000AB02E695E81BE0937002823049F4F0E017
:103AE000EE5DFB4FE491CE2FD0E004E119E149C037
:103AF000863049F4F0E0E15EFB4FE491CE2FD0E058
:103B000008E219E13EC0893051F4E695F0E0E45E48
:103B1000FB4FE491CE2FD0E002E61AE132C08F30A5
:103B200051F4E695F0E0E75EFB4FE491CE2FD0E054
:103B30000DE91AE126C0853149F4F0E0EA5EFB4F59
:103B4000E491CE2FD0E009E11BE11BC0883181F068
:103B5000833239F4E4E1F4E0C591D49108E319E14A
:103B600010C0843251F4C4EFD1E00EE11CE109C071
:103B7000C8E2D0E00BE81BE104C0C0EDD7E000E1F3
:103B800018E180917102882361F0109271020E9405
:103B9000BC2890936F0280936E0210927302109271
:103BA00072020E94BC28E0916E02F0916F028E1B9F
:103BB0009F0B8F3F9F4770F4EC0FFD1FF0936F0238
:103BC000E0936E028EE692E0F801DF91CF911F91B3
:103BD0000F910994DF91CF911F910F910895882340
:103BE00011F0FA0101C0FB010994CF93DF93C82FB4
:103BF000D62F0E9464188C1740F00E9464188D170D
:103C000020F4DF91CF910C94F31C8C2FDF91CF9196
:103C10000C94031D1F93CF93DF93FB0112811111AD
:103C2000C3C0EC010E94D50E8272CC3CFCE5DF07DC
:103C300009F49AC0A8F5C63CECE5DE0709F476C0A5
:103C4000A8F4C33C9CE5D90709F45FC028F4C23C42
:103C5000DC4509F457C054C0C43C9CE5D90709F4BD
:103C600059C0C53CDC4509F45CC04AC0C93CFCE510
:103C7000DF0709F46AC050F4C73CECE5DE0709F43D
:103C80005AC0C83CDC4509F45BC03AC0CA3C9CE55C
:103C9000D90709F45FC0CB3CDC4509F460C030C0F3
:103CA000C13DFCE5DF0709F46FC088F4CE3C9CE51C
:103CB000D90709F460C008F45CC0CF3CFCE5DF071D
:103CC00009F45CC0C03DDC4509F45BC019C0C43DCB
:103CD0009CE5D90709F460C050F4C23DFCE5DF075C
:103CE00009F455C0C33DDC4509F454C009C0C53DC5
:103CF0009CE5D90709F455C0CD35DD4509F454C01C
:103D000011E052C00E940E1D4FC040E05DE163EF24
:103D10007CE104C043EF5CE160E07DE10E94EF1DC7
:103D200043C040E25AE163E17AE1F8CF43E15AE16E
:103D300060E27AE1F3CF4EE35AE16FE27AE1EECF4F
:103D40004FE25AE16EE37AE1E9CF4CE55AE16DE4E6
:103D50007AE1E4CF4DE45AE16CE57AE1DFCF47E95F
:103D600058E160E878E1DACF40E858E167E978E1C6
:103D7000D5CF81E017C065E082E010C068E086E042
:103D80000DC06EE089E00AC064E18FE007C067E122
:103D900085E104C088E106C062E289E10E94F51D68
:103DA00003C083E20E94031D812FDF91CF911F91F9
:103DB000089586E090E00C947831682F86E090E0DA
:103DC0000C948C318091FE020C94DD1E8091FE02D9
:103DD000847089618093FE020C94DD1E8091FE0246
:103DE00086958695869508958091FE0281FD07C08F
:103DF00082608093FE020E94DD1E0C94E2200895F2
:103E00008091FE0281FF07C08D7F8093FE020E9499
:103E1000DD1E0C94EE2008958091FE0281FD0C942D
:103E2000001F0C94F41E8091FE0286958170089507
:103E300080911F0108950E94BE0F811104C00E944D
:103E400065100E94E61E0E94D91E8093FE02282F54
:103E500026952695269530E02430310524F087708C
:103E600088618093FE028091FE0280FF04C08695E7
:103E70008695869501C080E00C94AF202091FE02CB
:103E8000822F869586958695482F50E043305105C0
:103E900054F48F5F982F990F990F990F822F877085
:103EA000892B8093FE028091FE0281608093FE0246
:103EB0000E94DD1E8091FE028695869586950C9463
:103EC000AF208091FE02982F969596959695A1F039
:103ED000915E990F990F990F8770892B8093FE023D
:103EE000887F91E009F490E08091FE0290FB80F9D8
:103EF0008093FE020E94DD1E8091FE0286958695CB
:103F000086950C94AF208091FE0280FD13C08160E5
:103F10008093FE02813019F489E08093FE02809143
:103F2000FE020E94DD1E8091FE0286958695869592
:103F30000C94AF2008958091FE0280FF08C08E7F10
:103F40008093FE020E94DD1E80E00C94AF20089555
:103F50008091FE0280FD0C949B1F0C94831F909116
:103F6000FE02892F8695869586958F5F8F71977053
:103F7000843038F4880F880F880F892B8093FE02D5
:103F800002C09093FE028091FE02887F91E009F4C6
:103F900090E08091FE0290FB80F98093FE020E94E7
:103FA000DD1E8091FE028695869586950C94AF2045
:103FB000843008F083E09091FE029770282F220F42
:103FC000220F220F922B9093FE02987F21E009F49A
:103FD00020E09091FE0220FB90F99093FE020C9459
:103FE000AF200E94D81F8091FE020C94DD1EFC01C0
:103FF000DB0112968C918823F9F0EB5BFC45E730EE
:10400000F105D8F4EE59FF4F0C94143183E001C050
:1040100080E00E94F11F80E008950E94611FFBCFA5
:104020000E943E1FF8CF0E94A81FF5CF0E94AF1F2D
:10403000F2CF0E940C1FEFCF81E00895279A2F98AE
:1040400008952F9808958F929F92AF92BF92CF922A
:10405000DF92EF92FF920F931F93CF93DF938C0128
:1040600080918600909187006CE070E00E94CA30D9
:104070006017710730F0C80169E070E00E94CA3033
:1040800060C08091860090918700E0908600F0905B
:104090008700E0918600F0918700C6E0D0E0BE0185
:1040A0000E94CA3020E030E0060F171F211D311D8D
:1040B0004801590185E0880C991CAA1CBB1C8A95F3
:1040C000D1F7C701BE010E94CA306F01E12CF12C6B
:1040D000A7019601260F371F411D511DC501B401CF
:1040E0000E94F23069017A01E0918600F091870028
:1040F000CA01B9010E94AC309B01AC01DF010E94F2
:104100003F319B01AC01C701B6010E94AC30DC011C
:10411000CB012FE0B695A795979587952A95D1F76E
:10412000009186001091870020E030E00817190701
:104130002A073B0728F46091860070918700CB0125
:10414000BC01CB01DF91CF911F910F91FF90EF90B8
:10415000DF90CF90BF90AF909F908F900895CF93B6
:10416000C82F843050F4811109C080918000877F6E
:10417000809380000E94212006C0C3E080918000CF
:10418000886080938000A0918600B09187002C2FDA
:1041900030E00E94293123E030E040E050E00E940E
:1041A000F230B42FA32F922F8827892F9A2FAB2F6D
:1041B000BB270E94232090938D0080938C00CF9189
:1041C0000895089510927A021092790210927B025B
:1041D000EFE6F0E08081816080830895EFE6F0E013
:1041E00080818E7F80830E94EE1E0C94AF201F92F0
:1041F0000F920FB60F9211240F931F932F933F939B
:104200004F935F936F937F938F939F93AF93BF93DE
:10421000CF93EF93FF938091200191E0980F82302C
:1042200019F09093200155C081E0809320010E94F5
:10423000181FC82F0091790210917A020F5F1F4F4B
:104240000E94181F28E7829FB0011124C8010E9414
:10425000CA3090937A028093790228E7C29FB00116
:104260001124660F672F661F770B71950E94CA3065
:104270006F7780917B02823019F4603451F404C06E
:10428000813039F46F3729F480916F008E7F8093ED
:104290006F00E62FF0E0E55DFA4FC49100918600D3
:1042A000109187000E94EE1E282FC09FC001C19F61
:1042B000900D11246DEF72E00E94CA30269FC0015C
:1042C000279F900D11240E94232090938D008093AE
:1042D0008C00FF91EF91CF91BF91AF919F918F9102
:1042E0007F916F915F914F913F912F911F910F910E
:1042F0000F900FBE0F901F9018950E941E208AE00D
:104300008093800089E1809381008FEF9FEF9093ED
:104310008700809386000E941B1F0E94131F81113B
:104320000C94E22008956E9A2EB12F7B3EB130643A
:104330004FB7F894FC01CB01880F991F680F791FC4
:104340006E0F7F1FE617F70789F0819198E03EB95D
:10435000000000C087FF2EB9880F000000C000C019
:1043600000C02EB900C09A9591F7ECCF4FBF8FE5F2
:1043700094E00197F1F700C00000089583E290E017
:104380000E947831823281F484E290E00E94783198
:10439000843051F485E290E00E94783191E08732D8
:1043A00009F090E0892F01C080E081700895CF93DB
:1043B000C82F811102C06FEF01C062E283E290E07A
:1043C0000E948C31C11102C06FEF01C064E084E231
:1043D00090E00E948C31C11102C06FEF01C067E212
:1043E00085E290E0CF910C948C31089586E290E0C4
:1043F0000E947831682F70E080E090E00895089581
:10440000CF93C62F0E94FF216C2F86E290E0CF91C0
:104410000C948C3180E00E94D72160E070E0CB01E9
:104420000E9400220E943B250E941A2681E00C94E3
:10443000D7210E94F5210E94F6210E94FF210E94AF
:10444000BE21811102C00C940A220895CF93FB0172
:10445000C281CC23E9F09C0122513F452031310536
:1044600020F482510E942A260CC08031FFE59F076C
:1044700051F481E00E94BB0A43E062E081E00E94C7
:10448000C904C0E018C081319F45A9F482E0F2CF91
:104490008031EFE59E0711F481E004C081319F4532
:1044A00049F482E00E94C60A43E062E081E00E9493
:1044B000C90401C0C1E08C2FCF9108952FEFFC01FA
:1044C00020830895CF93DF93EC018881893031F008
:1044D0008A3079F40E94131F89830BC00E94EE1E5C
:1044E0002FEF829FC001112463E070E00E94CA3068
:1044F0006983DF91CF910895FC018081893019F0A3
:104500008A3069F00895818123E0829FC0011124DF
:104510006FEF70E00E94CA30862F0C94D81F818103
:10452000811102C00C94001F0C94F41ECF93DF93F2
:10453000EC018881813889F028F48038A1F40E9448
:10454000B51810C0823861F0833869F40E94AF1842
:1045500089830E94B2188A8306C00E94641802C030
:104560000E949A188983DF91CF910895CF93DF93AA
:10457000EC0188818138B1F058F4803851F5D98147
:104580000E94B218C82F0E94AF184D2F6C2F1DC06B
:104590008238B1F08338E9F40E94B518482F6A8157
:1045A000898113C089810E94151D8981811104C0F0
:1045B000DF91CF910C94751CDF91CF910C944B1D22
:1045C0008981DF91CF910C94AC18DF91CF910C943D
:1045D0005F1ADF91CF910895DF92EF92FF920F93D0
:1045E0001F93CF93DF93EC01D62E8C010F5F1F4FEB
:1045F000E8818E2F90E0FC013197E331F10508F05E
:10460000A4C0E759FF4F0C941431198289E060C0AF
:104610008981823039F0833061F0813029F50E9440
:10462000C82802C00E94F6219A838B837C836D8305
:104630008EC07E0110E0812F0E948013F7019283CB
:1046400083831F5FF2E0EF0EF11C1530A1F77FC0EE
:104650008981823049F46A817B818C819D810E94AD
:104660001A310E94002273C06D2DCE010E945E227D
:104670006EC04B816A8189810E940D259C838D8348
:1046800066C02C813D813227232732274B816A81E6
:1046900089810E9426255BC00E943B2558C0C80125
:1046A0000E947C22C8010E94B62251C0C8010E940B
:1046B0006222C8010E9496224AC00E94E21E0E9405
:1046C0004B1845C00E94CD2524C00E94CF25998358
:1046D0008A833DC06B8170E089819A81AE014C5F15
:1046E0005F4F9827892798270E94D22530C06B8179
:1046F00070E089819A81AE014C5F5F4F98278927CE
:1047000098270E94F72523C00E941A2620C00E94E5
:10471000FA2489831CC06B8170E089819A81AE0183
:104720004C5F5F4F9827892798270E947A250FC0F2
:104730006B8170E089819A81AE014C5F5F4F982751
:10474000892798270E949E2502C08FEF88836D2DB0
:10475000CE01DF91CF911F910F91FF90EF90DF90ED
:104760000C94AE29CF93DF93EC01FB018281882367
:1047700009F43CC1C330FDE5DF0760F4CA3F9CE5A6
:10478000D90788F49E0122503C452431310508F0B8
:104790002EC109C0C136EDE5DE0729F0C53AFDE5B9
:1047A000DF0709F024C10E94D10F909396028093F5
:1047B0009502C1318CE5D80709F4C6C008F042C0A3
:1047C000C930ECE5DE0709F49BC000F5C5308CE587
:1047D000D80709F485C078F4C330ECE5DE0709F4A6
:1047E00078C008F07AC0C230DC4509F0F5C080918D
:1047F00095028160EFC0C7309CE5D90709F478C005
:1048000008F07AC0809195028061E4C0CD30FCE56B
:10481000DF0709F487C058F4CB309CE5D90709F4C9
:1048200079C008F07BC08091950288606FC0CF305E
:10483000FCE5DF0709F480C008F082C08091950292
:10484000877FC8C0CD3F9CE5D90709F471C000F54A
:10485000C531FCE5DF0709F485C068F4C3319CE588
:10486000D90709F475C008F095C00E94450A8091E7
:1048700095028F77AFC0CB3FFCE5DF07A9F108F0C9
:1048800054C0CA3FDC4509F0A7C08091960240C0E1
:10489000C130EDE5DE0709F489C058F4CF3F8CE55F
:1048A000D80709F45AC008F069C080919602826066
:1048B0002FC0C136EDE5DE0709F47CC0C53AFDE541
:1048C000DF0709F481C0C230DD4509F085C080E012
:1048D0006EC08091950282607DC08091950216C065
:1048E00080919502886076C08091960282604FC068
:1048F0008091950280626EC08091950280646AC04A
:104900000E94450A80919502806864C0846062C0FC
:1049100081603DC0809195028E7F5CC08091950240
:104920008D7F58C08091950216C08091960218C064
:10493000809196028D7F2BC0809195028F7E4AC018
:10494000809195028F7D46C0809195028F7B42C0F9
:1049500080919502877F8B7F3DC0809196028D7FED
:104960008E7F15C08091950282FB222720F991E06D
:10497000922790FB82F990FB83F92CC080919602DC
:10498000982F909591708E7F892B90FB81F9809361
:10499000960222C00E94450A8091950287FB222739
:1049A00020F991E0922790FB87F914C081E00E94E2
:1049B000671012C08091950284FB222720F991E0B4
:1049C000922790FB84F906C080919502982F9095CC
:1049D00090FB80F9809395028091950290919602C8
:1049E0000E94E20F0E94450A80E001C081E0DF9151
:1049F000CF91089584E0089550E0440F551F2EE1B3
:104A0000629F400D511D11249A0166E9869F200D79
:104A1000311D1124C901879608950F931F93CF93D9
:104A2000DF930E94FC248C010E947831C82FD0E0D3
:104A3000DC2FCC27C80101960E9478319E01282BDB
:104A4000C901DF91CF911F910F9108950F931F938B
:104A5000CF93DF93122F032F0E94FC24EC01602FD1
:104A60000E948C31612FCE010196DF91CF911F9171
:104A70000F910C948C31AF92BF92CF92DF92EF9254
:104A8000FF920F931F93CF93DF93A12CE12CF12C76
:104A9000B12C00E010E0C0E0D0E06701C00ED11EF4
:104AA000FE01EE0FFF1FEC0DFD1DE45FFE4F259193
:104AB00034914C2F6B2D8A2D0E9426252196CF30C4
:104AC000D10571F7025E1F4FB39485E0B812E3CFB2
:104AD00086E9E80EF11CA39484E0A812D9CFDF91F7
:104AE000CF911F910F91FF90EF90DF90CF90BF90EB
:104AF000AF900895EF92FF920F931F93CF93DF93A0
:104B0000EA017A01E60EF71E8C01C8018796CE15E0
:104B1000DF0569F0083522E0120720F40E947831A1
:104B2000888301C0188221960F5F1F4FEECFDF915F
:104B3000CF911F910F91FF90EF900895EF92FF9208
:104B40000F931F93CF93DF93EA017A01E60EF71ECE
:104B50008C01C8018796CE15DF0559F0083522E093
:104B6000120718F468810E948C3121960F5F1F4F45
:104B7000F0CFDF91CF911F910F91FF90EF900895AB
:104B8000462F843038F4753028F46F3018F4672FCE
:104B90000C940D2580E090E0089580E1089581E86F
:104BA00091E00895EF92FF920F931F93CF93DF93BD
:104BB000EA017A01E60EF71E8C01C80181589D4F6B
:104BC000CE15DF0569F0013821E0120720F40E94BC
:104BD0007831888301C0188221960F5F1F4FEDCF77
:104BE000DF91CF911F910F91FF90EF900895EF9279
:104BF000FF920F931F93CF93DF93EA017A01E60EA2
:104C0000F71E8C01C80181589D4FCE15DF0559F064
:104C1000013821E0120718F468810E948C31219636
:104C20000F5F1F4FEFCFDF91CF911F910F91FF903B
:104C3000EF900895CF93DF93CFE7D2E060E0CE010D
:104C40000E948C312196C11584E0D807B9F7DF9115
:104C5000CF910895DF92EF92FF920F931F93CF931E
:104C6000DF9300D000D0CDB7DEB7F82E8FE08F15E0
:104C7000E8F18FEF93E00E947831811137C00FE7A0
:104C800012E0FF2069F0011584E0180779F1C801EE
:104C90000E947831811101C0FA940F5F1F4FF1CF4C
:104CA00019821A821B821C82DD24D39478018FEF33
:104CB000E81AF80AC8010E94783189831A82882389
:104CC000A9F09FEF980F933058F48A83D9820E5F32
:104CD0001F4FC7010E9478318B83882339F07801F8
:104CE000CE0101960E942D068701E0CF0F900F9014
:104CF0000F900F90DF91CF911F910F91FF90EF9048
:104D0000DF900895CF93DF9386319C4541F5EB0109
:104D10000E94D50E982F8A812091020130910301C3
:104D2000882379F09A7A81E009F480E080937C020C
:104D3000911102C069E201C065E3C9010E94152812
:104D40000AC080917C02811102C069E201C065E362
:104D5000C9010E9417280E94170F80E001C081E05E
:104D6000DF91CF9108950F931F93CF93DF93C42FBB
:104D7000D22FFC0182818823C9F040937F020E94D8
:104D8000BC2890937E0280937D0280E28C0F883055
:104D900008F057C0C77081E001C0880FCA95EAF7D4
:104DA000DF91CF911F910F910C94D30780917F02D7
:104DB000481330C080917D0290917E020E94D428D9
:104DC000883C910538F510E21D0FCD17B9F080E24F
:104DD0008C0F883040F4C77081E001C0880FCA95FD
:104DE000EAF70E94DA07183028F581E09D2F9770C6
:104DF00001C0880F9A95EAF70E94D307802F0E947E
:104E0000CA071830F0F4D77081E001C0880FDA9536
:104E1000EAF70AC080E28C0F883098F4C77081E00E
:104E200001C0880FCA95EAF7DF91CF911F910F91CA
:104E30000C94DA07802FDF91CF911F910F910C9482
:104E4000CA07DF91CF911F910F9108950F939C0195
:104E5000CB01233F4CE5340731F188F4283DFCE5D4
:104E60003F07D9F0293D4CE5340779F1273D3C4512
:104E7000A9F506E221EE41EE67ED7CE52BC0253F6A
:104E8000FCE53F07E1F0A8F0263F3C4539F507E295
:104E900025EE46EE66EF7CE51DC007E225EE45EE09
:104EA00068ED7CE517C006E221EE40EE63EF7CE59D
:104EB00011C007E225EE44EE64EF7CE50BC006E28C
:104EC00021EE42EE65EF7CE505C008E221E045EE0B
:104ED00069ED7CE50E94B32680E008C0FC01828178
:104EE000882319F010927F0201C081E00F9108958C
:104EF0009093D9018093D80108959093850280936F
:104F000084020895E0918402F0918502309721F0A7
:104F10000190F081E02D099480E00895E0918402F1
:104F2000F0918502309721F00280F381E02D099401
:104F30000895E0918402F0918502309739F022E0E3
:104F4000DC012C930480F581E02D099408952091D3
:104F50008202309183022817390771F090938302FF
:104F600080938202E0918402F0918502309721F0D3
:104F70000680F781E02D09940895209180023091F8
:104F800081022817390771F0909381028093800283
:104F9000E0918402F0918502309721F00084F18540
:104FA000E02D09940895FC01329697E080E091503D
:104FB00029F021912223D9F38F5FF9CF0895662339
:104FC00049F0FC01329608962191621729F0E81702
:104FD000F907D1F780E0089581E008959C01FC0174
:104FE00032969FEF80E04191461789F09F3F19F478
:104FF000411101C0982F8F5F8630A9F79F3F39F08C
:10500000F901E90FF11D97FDFA956283089508955E
:105010009C012A5F3F4FFC014281461301C012826E
:10502000019682179307B9F708950C94EE270C9414
:105030000828029626E0FC0111922A95E9F70895C6
:1050400008950C94202883E0809386020C942128F4
:10505000811102C081E001C082E0809386020C943D
:1050600021280C94282881E0809386020C94212822
:105070000C94332808950C943A280C943B280C94F3
:105080003A280C943A280C943A28CF930E9441284D
:105090000E9454140E943F28C0E08C2F0E9480136D
:1050A000892B29F4CF5FC530C1F780E001C081E0D2
:1050B000CF91089508951F920F920FB60F92112469
:1050C0008F939F93AF93BF9380918702811113C0F9
:1050D0008091FF0290910003A0910103B09102031F
:1050E0004196A11DB11D8093FF0290930003A093F0
:1050F0000103B0930203BF91AF919F918F910F90E5
:105100000FBE0F901F90189580910703843031F1E6
:105110000E944D051092870220E488E190E00FB6CE
:10512000F894A895809360000FBE2093600083B729
:10513000817F846083BF83B7816083BF78948895C3
:1051400083B78E7F83BF0FB6F894A89580916000D7
:10515000886180936000109260000FBE08950E94E5
:10516000450A0C94560582E084BD93E095BD9AEF04
:1051700097BD80936E0008952FB7F8948091FF0239
:1051800090910003A0910103B09102032FBF0895F5
:105190002FB7F8946091FF02709100038091010392
:1051A000909102032FBF08959C014FB7F89480910E
:1051B000FF0290910003A0910103B09102034FBF41
:1051C000821B930B089578941F920F920FB60F9243
:1051D00011248F939F93AF93BF938091FF0290917F
:1051E0000003A0910103B09102030196A11DB11D1E
:1051F0008093FF0290930003A0930103B0930203F6
:10520000BF91AF919F918F910F900FBE0F901F9004
:10521000189581E08093E00080E28093D80010929E
:10522000C9008FE19EE40197F1F700C0000087E01C
:1052300090EBDC018093100390931103A093120371
:10524000B09313039CE088E10FB6F894A89580937F
:1052500060000FBE90936000FFCF8091930208958D
:10526000089524E02093E9002FEF3091E8002150C9
:1052700035FD06C035ED3A95F1F700002111F5CF67
:105280002091E80025FF0BC040E050E066E070E0B0
:105290000E94C32B8091E8008E778093E8000895E8
:1052A000CF93DF9321E02093E9002FEF3091E800C6
:1052B000215035FD06C035ED3A95F1F7000021117A
:1052C000F5CF2091E80025FF14C0EC0140E050E04C
:1052D00068E070E00E94C32B8091E8008E77809395
:1052E000E80088E0FE01ABE8B2E001900D928A95FB
:1052F000E1F7DF91CF9108958093880270938A023D
:1053000060938902809107038430F9F48093E90067
:105310008FEF9091E800815095FD06C095ED9A952C
:10532000F1F700008111F5CF8091E80085FF0DC0F5
:1053300040E050E063E070E088E892E00E94C32B18
:105340008091E8008E778093E8000895BC0184E0A6
:105350000C947C29BC0183E00C947C29CF936032AF
:1053600019F5209107032430F9F4C091E900CF70BA
:105370003091EC00232F217030FD20E8C22B22E079
:105380002093E9002091E80020FF0BC040E050E0AE
:1053900060E270E00E94C32B8091E8008E778093DA
:1053A000E800CF70C093E900CF9108958091060383
:1053B000811109C00E949F2D0E94FC2D8091E20066
:1053C00084608093E20008951092060308950C947F
:1053D00038286091030381E0611101C080E00C94E2
:1053E00023289091070381E0943009F080E06091D8
:1053F00003030C94282842E061EC81E00E94182D00
:1054000042E261EC84E00E94182D42E261EC82E00D
:105410000E94182D42E260EC83E00E94182D9091CA
:10542000070381E0943009F080E0609103030C945D
:10543000312880910903833009F463C030F481304E
:1054400071F0823009F49CC008958A3009F488C054
:105450008B3009F46EC0893009F0AAC020C0809159
:105460000803813A09F0A4C08091E800877F809307
:10547000E80080910C0390910D03892B21F468E0E2
:105480008BE892E003C060E080E090E070E00E9472
:10549000592C8091E8008B778093E80008958091E3
:1054A0000803813209F084C080910C0390910D03B0
:1054B000009719F0029709F07BC08091E800877F80
:1054C0008093E8008091E80082FD05C08091070389
:1054D0008111F8CF6DC02091F3008091F20090E02F
:1054E000922B029731F48091F100813011F08630D7
:1054F00021F48091F100809393028091E8008B77F2
:1055000053C080910803813A09F052C080910C0386
:1055100090910D03892B09F04BC08091E800877FA3
:105520008093E8008091E80080FFFCCF80912D01FE
:1055300036C0809108038132D9F580910C03909197
:105540000D03892BA9F58091E800877F8093E800FF
:105550000E944D2D80910A0380932D010C94450AE1
:1055600080910803813221F58091E800877F809344
:10557000E8000E944D2D80910B03809394020895C2
:1055800080910803813AA1F48091E800877F80939D
:10559000E8008091E80080FFFCCF80919402809326
:1055A000F1008091E8008E778093E8000C944D2DF7
:1055B000089584B7877F84BF0FB6F894A89580912B
:1055C0006000886180936000109260000FBE90E0E0
:1055D00080E80FB6F89480936100909361000FBE4D
:1055E0000C9433280E949F2D0E94FC2DE2EEF0E0E7
:1055F00080818460808378940C94913081E291E082
:105600000C947D27809107038530A9F480910703CE
:10561000853079F40E948428809105038823B1F3B2
:105620000E944528882391F30E94AD2B0E94450AD1
:10563000EDCF0C94AF280895CF93DF93CDB7DEB7AD
:10564000A0970FB6F894DEBF0FBECDBF80910703C1
:10565000843011F583E08093E9008091E80082FFB7
:105660001BC08091E80085FF0AC040E050E060E286
:1056700070E0CE0101960E940E2C91E001C090E0F6
:105680008091E8008B778093E800992329F060E20D
:10569000CE0101960E94EC22A0960FB6F894DEBFD0
:1056A0000FBECDBFDF91CF9108950C94572B292FBA
:1056B000332723303105C9F060F42130310581F002
:1056C0002230310509F041C08BE590E027EC36E04F
:1056D00040C021323105E1F02232310531F135C0CF
:1056E00082E190E022E237E034C0992781309105D1
:1056F00049F028F0029749F5EBEAF6E005C0E3EC43
:10570000F6E002C0EBEBF6E0849190E09F0121C04F
:1057100063307105D0F4660F771FFB01EE52FE4F28
:105720002081318189E090E014C06330710568F414
:10573000FB01EE0FFF1FE453FE4F20813181FB017F
:10574000E753FE4F808190E004C080E090E020E0CD
:1057500030E0FA0131832083089580E189BD82E140
:1057600089BD09B400FEFDCF8091D8008F7D809364
:10577000D8008091E00082608093E0008091E0009A
:1057800081FDFCCF0895CF92DF92EF92FF920F93AD
:105790001F93CF93DF93EC018B017A010E946C2D54
:1057A000811133C0E114F10439F0F7018081918156
:1057B000081B190BC80FD91FC12CD12C01151105BD
:1057C00019F18091E80085FD16C08091E8008E7780
:1057D0008093E800E114F10449F0F70180819181A0
:1057E000C80ED91ED182C08285E00FC00E946C2DE8
:1057F000882321F30AC089918093F1000150110997
:10580000FFEFCF1ADF0ADACF80E0DF91CF911F914F
:105810000F91FF90EF90DF90CF900895CF92DF929D
:10582000EF92FF920F931F93CF93DF93EC018B01C5
:105830007A010E946C2D811133C0E114F10439F01A
:10584000F70180819181081B190BC80FD91FC12C4A
:10585000D12C0115110519F18091E80085FD16C0C4
:105860008091E8008B778093E800E114F10449F01F
:10587000F70180819181C80ED91ED182C08285E056
:105880000FC00E946C2D882321F30AC08091F10083
:10589000899301501109FFEFCF1ADF0ADACF80E0B8
:1058A000DF91CF911F910F91FF90EF90DF90CF90FC
:1058B000089520910E0330910F032617370748F003
:1058C0006115710539F42091E8002E772093E800E6
:1058D00001C0B901FC0120E06115710579F18091E9
:1058E00007038823F1F18530F1F18091E80083FD11
:1058F0003CC08091E80082FD2EC08091E80080FFCE
:10590000EBCF2091F3008091F20090E0922B611593
:10591000710551F08830910538F421912093F10000
:10592000615071090196F3CF21E0089709F020E05A
:105930008091E8008E778093E800CECF2111CFCF01
:105940000AC080910703882361F0853061F080915F
:10595000E80083FD0AC08091E80082FFF2CF80E07A
:10596000089582E0089583E0089581E008952091EC
:105970000E0330910F032617370748F061157105A4
:1059800039F42091E8002E772093E80001C0B90196
:10599000FC0120E06115710591F1809107038823D6
:1059A00009F440C0853009F43FC08091E80083FDD0
:1059B0003DC08091E80082FD2FC08091E80080FF0B
:1059C000E9CF2091F3008091F20090E0922B6115D5
:1059D000710559F08830910540F424912093F1002D
:1059E0003196615071090196F2CF21E0089709F0D4
:1059F00020E08091E8008E778093E800CBCF2111E2
:105A0000CCCF0AC080910703882361F0853061F014
:105A10008091E80083FD0AC08091E80082FFF2CF08
:105A200080E0089582E0089583E0089581E008957C
:105A3000982F973068F59093E900981739F0709196
:105A4000EC002091ED005091F00003C0242F762F40
:105A500050E021FD02C09F5FECCF3091EB003E7F14
:105A60003093EB003091ED003D7F3093ED003091AD
:105A7000EB0031603093EB007093EC002093ED006D
:105A80005093F0002091EE0027FDE5CF80E00895CF
:105A90008F708093E90081E008958091080387FF6B
:105AA00011C08091E80082FD05C08091070381113B
:105AB000F8CF11C08091E8008B770BC0809107036D
:105AC000882349F08091E80080FFF8CF8091E800BA
:105AD0008E778093E80008952091E4003091E500EE
