:100000000C94400A0C947A0A0C947A0A0C947A0A9A
:100010000C947A0A0C947A0A0C947A0A0C947A0A50
:100020000C947A0A0C947A0A0C948B3A0C94613BE7
:100030000C9417340C947A0A0C947A0A0C947A0A69
:100040000C947A0A0C947A0A0C947A0A0C947A0A20
:100050000C94022A0C949F340C947A0A0C947A0A19
:100060000C947A0A0C947A0A0C947A0A0C947A0A00
:100070000C947A0A0C947A0A0C947A0A0C947A0AF0
:100080000C947A0A0C947A0A0C947A0A0C947A0AE0
:100090000C947A0A0C947A0ABE11BE11EA11EA1184
:1000A00052124C134C134C137012D812E912E9126D
:1000B0001129132918291B291E2921292429132C28
:1000C000162C372C482C502C5B2C5E2C652C6C2C61
:1000D000B42CB42C712C742C792C862C932C962C4B
:1000E0009A2CA72CD62EC42EDD2E332E8A2F8A2FA3
:1000F000C12E8A2F8A2F0A2F8A2F1E2F6A2F8A2F0E
:100100008A2F8A2F8A2F3E2F8A2F8A2F3B2F8A2FC2
:10011000F62E8A2F8A2F842F842F842F842F842FCA
:10012000842F842F842F842F862F8A2FD62EB92EAA
:100130008A2F8A2F8A2F8A2F8A2F8A2F8A2F8A2FF7
:100140008A2F8A2F862F8A2F8A2FC12E8A2F822FBD
:10015000822F822F822F822F822F822F822F822F17
:10016000862FD23BF93BF13CF93BF13C453C683CE6
:10017000F13CBF3CCE3C29003A003B003C003D0036
:100180003E003F0040004100420043004400450063
:100190002A004C0049004B004E0035001E001F0095
:1001A0002000210022002300240025002600270033
:1001B0002D002E00350053005400550048002B0040
:1001C00014001A000800150017001C0018000C008D
:1001D000120013002F00300031005F00600061004A
:1001E0005600390004001600070009000A000B0041
:1001F0000D000E000F0033003400320028005C00B8
:100200005D005E005700E10064001D001B00060059
:100210001900050011001000360037003800E10019
:10022000520059005A005B000100E000E300E200C8
:10023000000000002C00000000000000E20001515E
:10024000E700500051004F006200630058000100B9
:100250000100010001000100010001000100010096
:1002600001000100010001000100460047004A00B2
:100270004D0001000100010001000100010001002A
:100280000100010001000100010001000100C65C45
:10029000C55C010001000100010001000100005CDB
:1002A0000100010001000100010001000100010046
:1002B0000100C85CC75C01000100010001000100F1
:1002C0000100010001000100010001000100010026
:1002D000010001000100CA5CC95C010001000100CD
:1002E0000100010001000100010001000100010006
:1002F0000100010001000100A900C25CC35C010013
:10030000010001000100010000000000AE0000003B
:1003100000000000010001000100AC00AA00AB00D9
:1003200001000100010001000100010001000100C5
:1003300001000100010001000100010001000100B5
:1003400001000100010001000100010001000100A5
:100350000100010001000100010001000100010095
:100360000100010001000100010001000100010085
:100370000100010001000100010001000100010075
:100380000100010001000100010001000100010065
:100390000100010001000100010001000100010055
:1003A0000100010001000100010001000100010045
:1003B000C95C010001000100010001000100010011
:1003C0000100010001000100010001000100010025
:1003D0000100010001000100010001000100010015
:1003E000000000000100000000000000010001000A
:1003F00001000100010001000100010001000100F5
:1004000001000100010001000100010001000100E4
:1004100001000100010001000100010001000100D4
:1004200001000100010001000100010001000100C4
:1004300001000100010001000100010001000100B4
:1004400001000100010001000100010001000100A4
:100450000100010001000100010001000100010094
:100460000100010001000100010001000100010084
:100470000100010001000100010001000100010074
:100480000100010001000100C95C01000100010040
:100490000100010001000100010001000100010054
:1004A0000100010001000100010001000100010044
:1004B0000100010001000100000000000100000037
:1004C0000000000001000100010001000100010026
:1004D00001000100010044454255473A2064697318
:1004E00061626C65642E0A0044454255473A2065B6
:1004F0006E61626C65642E0A00000000000000005E
:10050000002A2B280000000000000000000000006E
:100510000000000029000000002C1E3420212224AD
:10052000342627252E362D3738271E1F202122233B
:100530002425263333362E37381F040506070809CD
:100540000A0B0C0D0E0F1011121314151617181993
:100550001A1B1C1D2F3130232D35040506070809F1
:100560000A0B0C0D0E0F1011121314151617181973
:100570001A1B1C1D2F3130354C00000000000000FC
:10058000000000000000000000000000000000006B
:10059000000000000000000000000000007E0F00CE
:1005A000D4FFFFFFC7000000780A00253032580052
:1005B0006C65645F7461736B3A20004F6E6573689D
:1005C0006F743A206163746976653A2025640A0085
:1005D0000A00253033326C62003A20002530325850
:1005E000000A722F632030313233343536373839D0
:1005F0004142434445463031323334353637383959
:100600004142434445460A007267626C69676874F8
:100610002074696D65722064697361626C652E0A6D
:10062000007267626C696768742074696D65722016
:10063000656E61626C65642E0A007267626C696740
:10064000687420736574207370656564205B4E4F19
:10065000454550524F4D5D3A2025750A007267623C
:100660006C696768742073657420737065656420B5
:100670005B454550524F4D5D3A2025750A00726723
:10068000626C696768742073657420687376205B98
:100690004E4F454550524F4D5D3A2025752C2575DE
:1006A0002C25750A007267626C696768742073652F
:1006B0007420687376205B454550524F4D5D3A205B
:1006C00025752C25752C25750A007267626C696783
:1006D0006874207261696E626F7720736574206838
:1006E00073763A2025642C25642C25642C25750A04
:1006F000007267626C696768742064697361626C18
:1007000065205B4E4F454550524F4D5D3A20726714
:10071000626C696768745F636F6E6669672E656E89
:1007200061626C65203D2025750A007267626C6904
:100730006768742064697361626C65205B4545502D
:10074000524F4D5D3A207267626C696768745F63EF
:100750006F6E6669672E656E61626C65203D20254F
:10076000750A007267626C6967687420656E616201
:100770006C65205B4E4F454550524F4D5D3A20729F
:1007800067626C696768745F636F6E6669672E6520
:100790006E61626C65203D2025750A007267626C8F
:1007A0006967687420656E61626C65205B454550C1
:1007B000524F4D5D3A207267626C696768745F637F
:1007C0006F6E6669672E656E61626C65203D2025DF
:1007D000750A007267626C6967687420746F676776
:1007E0006C65205B454550524F4D5D3A2072676203
:1007F0006C696768745F636F6E6669672E656E61AA
:10080000626C65203D2025750A007267626C69671D
:100810006874206D6F6465205B4E4F454550524FA4
:100820004D5D3A2025750A007267626C69676874CD
:10083000206D6F6465205B454550524F4D5D3A20F9
:1008400025750A007267626C696768745F696E6912
:1008500074207267626C696768745F636F6E666943
:10086000672E6D6F6465203D20302E2057726974AD
:10087000652064656661756C742076616C7565735E
:1008800020746F20454550524F4D2E0A007267620A
:100890006C696768745F696E6974206565636F6E03
:1008A000666967206973206E6F7420656E61626C83
:1008B00065642E0A007267626C696768745F696EAE
:1008C0006974207374617274210A007267626C69C2
:1008D0006768745F696E69742063616C6C65642E0F
:1008E0000A007267626C696768745F636F6E66693D
:1008F000672E7370656564203D2025640A00726769
:10090000626C696768745F636F6E6669672E766193
:100910006C203D2025640A007267626C6967687408
:100920005F636F6E6669672E736174203D20256476
:100930000A007267626C696768745F636F6E6669EC
:10094000672E687565203D2025640A007267686C13
:10095000696768745F636F6E6669672E6D6F646543
:10096000203D2025640A007267626C696768745FC5
:10097000636F6E6669672E656E61626C65203D20EF
:1009800025640A007267626C696768745F636F6EE2
:1009900066696720454550524F4D3A0A0000047F72
:1009A0003F1F643214643214783C1E1E140A052260
:1009B00023252628292A2C2D2F3032333536383A54
:1009C0003B3D3E4042434547494A4C4E50515355AA
:1009D00057595A5C5E6062646668696B6D6F7173CB
:1009E0007577797B7D7F81838587898A8C8E9092CC
:1009F0009496989A9C9E9FA1A3A5A7A8AAACAEAFD7
:100A0000B1B3B4B6B8B9BBBCBEBFC1C2C3C5C6C71B
:100A1000C9CACBCCCDCED0D1D2D2D3D4D5D6D7D7CC
:100A2000D8D9D9DADADBDBDBDCDCDCDCDCDDDDDD14
:100A3000DDDCDCDCDCDCDBDBDBDADAD9D9D8D7D710
:100A4000D6D5D4D3D2D2D1D0CECDCCCBCAC9C7C6BD
:100A5000C5C3C2C1BFBEBCBBB9B8B6B4B3B1AFAEFB
:100A6000ACAAA8A7A5A3A19F9E9C9A9896949290A1
:100A70008E8C8A89878583817F7D7B797775737179
:100A80006F6D6B6968666462605E5C5A5957555356
:100A900051504E4C4A4947454342403E3D3B3A380F
:100AA00036353332302F2D2C2A292826252322FFB4
:100AB000AA7F55406261636B6C69676874206272DB
:100AC00065617468696E672064697361626C650A48
:100AD000006261636B6C696768742062726561743F
:100AE00068696E6720656E61626C650A00626163A9
:100AF0006B6C6967687420627265617468696E679F
:100B000020746F67676C653A2025750A006261631F
:100B10006B6C6967687420737465703A2025750A78
:100B2000006261636B6C69676874206469736162F9
:100B30006C650A006261636B6C6967687420656E3E
:100B400061626C650A006261636B6C69676874203E
:100B5000746F67676C653A2025750A006261636B84
:100B60006C696768742064656372656173653A20B7
:100B700025750A006261636B6C6967687420696E31
:100B80006372656173653A2025750A0000000000F4
:100B90000000000000000001010203040506080A2D
:100BA0000C0F1114181C2024292E33393F464C53A6
:100BB0005B626A7179818A929AA2AAB2B9C1C8CFDE
:100BC000D5DCE1E7EBF0F4F7FAFCFDFEFFFEFDFCFF
:100BD000FAF7F4F0EBE7E1DCD5CFC8C1B9B2AAA2CD
:100BE0009A928A8179716A625B534C463F39332EFF
:100BF0002924201C1814110F0C0A080605040302EE
:100C000001010000000000000000000000010101DF
:100C100001010101010102020202020202020203B9
:100C20000303030303030304040404040404050589
:100C3000050505060606060607070707070808084C
:100C400008090909090A0A0A0B0B0B0C0C0C0D0DFB
:100C50000D0E0E0E0F0F0F10101111111212131393
:100C60001414151516161717181819191A1A1B1B0C
:100C70001C1D1D1E1E1F2020212222232424252668
:100C800026272829292A2B2C2D2D2E2F30313232A0
:100C9000333435363738393A3B3C3D3E3F404142AC
:100CA000434445464748494A4C4D4E4F5051535492
:100CB000555658595A5B5D5E5F6162646566686946
:100CC0006B6C6D6F7072737577787A7B7D7E8082C6
:100CD000838587888A8C8E8F91939596989A9C9E0F
:100CE000A0A2A3A5A7A9ABADAFB1B3B5B7BABCBE1F
:100CF000C0C2C4C6C9CBCDCFD1D4D6D8DBDDDFE2EC
:100D0000E4E7E9EBEEF0F3F5F8FAFDFF3F00433ED0
:100D100020004C25640A000A092D20537461747563
:100D200073202D0A686F73745F6B6579626F6172EF
:100D3000645F6C65647328293A20253032580A6B49
:100D40006579626F6172645F70726F746F636F6CEC
:100D50003A20253032580A6B6579626F6172645FA0
:100D600069646C653A20253032580A6B65796D618B
:100D7000705F636F6E6669672E6E6B726F3A2025C7
:100D80003032580A74696D65725F7265616433321E
:100D900028293A202530386C580A000A092D205697
:100DA000657273696F6E202D0A5649443A20307877
:100DB000303444382868696E657962757368206BD1
:100DC0006579626F6172647329205049443A20301A
:100DD0007845434538286862637029205645523A61
:100DE000203078303030310A4255494C443A202086
:100DF000284D61792020382032303232290A4F5074
:100E000054494F4E533A204C554641204558545270
:100E1000414B455920434F4E534F4C4520434F4D76
:100E20004D414E44204E4B524F20383139320A4703
:100E300043433A20352E342E30204156522D4C4912
:100E400042433A20322E302E30204156525F4152DA
:100E500043483A2061767235310A000A092D204351
:100E60006F6E736F6C65202D0A4553432F713A09DD
:100E7000717569740A000A092D204D616769632044
:100E80002D0A443A094465627567204D65737361A4
:100E9000676520546F67676C650A583A094D61743D
:100EA000726978204465627567204D6F64652054CF
:100EB0006F67676C65202D2053686F77206B6579AD
:100EC0007072657373657320696E206D61747269E9
:100ED0007820677269640A4B3A094B6579626F61E1
:100EE000726420446562756720546F67676C652083
:100EF0002D2053686F77206B65797072657373204E
:100F00007265706F72740A4D3A09446562756720A4
:100F10004D6F75736520546F67676C650A563A09A3
:100F200056657273696F6E0A533A0953746174752A
:100F3000730A433A09416374697661746520436FAB
:100F40006E736F6C65204D6F64650A46312D4631B6
:100F5000303A0953776974636820746F204C617963
:100F6000657220302D392028463130203D204C300C
:100F7000290A302D393A0953776974636820746FF0
:100F8000204C6179657220302D390A47524156450F
:100F90003A0953776974636820746F204C617965EE
:100FA0007220302028616C7465726E617465290A44
:100FB000423A094A756D7020746F20426F6F746CED
:100FC0006F616465720A4553433A094A756D702032
:100FD000746F20426F6F746C6F616465722028615A
:100FE0006C7465726E617465290A453A09507269BC
:100FF0006E7420454550524F4D2053657474696E90
:1010000067730A4253504143453A09436C65617224
:1010100020454550524F4D0A4E3A094E4B524F20F3
:10102000546F67676C650A006261636B6C6967681F
:10103000745F636F6E6669672E7261773A20253040
:1010400032580A2E656E61626C653A2025750A2E4B
:101050006C6576656C3A2025750A006B65796D6163
:10106000705F636F6E6669672E7261773A20253014
:1010700032580A2E737761705F636F6E74726F6C93
:101080005F636170736C6F636B3A2025750A2E6322
:101090006170736C6F636B5F746F5F636F6E74729C
:1010A0006F6C3A2025750A2E737761705F6C6374DC
:1010B0006C5F6C6775693A2025750A2E73776170CD
:1010C0005F7263746C5F726775693A2025750A2ECA
:1010D000737761705F6C616C745F6C6775693A20DF
:1010E00025750A2E737761705F72616C745F726729
:1010F00075693A2025750A2E6E6F5F6775693A200B
:1011000025750A2E737761705F67726176655F651A
:1011100073633A2025750A2E737761705F6261638D
:101120006B736C6173685F6261636B73706163653D
:101130003A2025750A2E6E6B726F3A2025750A00CB
:1011400064656275675F636F6E6669672E7261774B
:101150003A20253032580A2E656E61626C653A205D
:1011600025750A2E6D61747269783A2025750A2EEC
:101170006B6579626F6172643A2025750A2E6D6F16
:101180007573653A2025750A006565636F6E66693B
:10119000673A0A64656661756C745F6C6179657243
:1011A0003A2025750A003F004E4B524F3A206F6699
:1011B000660A004E4B524F3A206F6E0A000A6D6F5E
:1011C0007573653A206F66660A000A6D6F75736500
:1011D0003A206F6E0A000A6B6579626F6172643A39
:1011E000206F66660A000A6B6579626F6172643A05
:1011F000206F6E0A000A6D61747269783A206F661A
:10120000660A000A6D61747269783A206F6E0A008E
:101210000A64656275673A206F66660A000A64654B
:101220006275673A206F6E0A000A0A4A756D706926
:101230006E6720746F20626F6F746C6F616465728B
:101240002E2E2E2000433E2000436C656172696E95
:101250006720454550524F4D0A000A00253032584C
:1012600020006B6579626F6172645F7265706F7286
:10127000743A200064656C5F6B65795F6269743AEB
:101280002063616E27742064656C3A2025303258E3
:101290000A006164645F6B65795F6269743A206318
:1012A000616E2774206164643A20253032580A0048
:1012B0005B735D005B575D005B535D005B525D00DF
:1012C0005B445D005B435D000A03680062006300ED
:1012D000700000002803680069006E006500790056
:1012E000620075007300680020006B0065007900E3
:1012F00062006F006100720064007300000004036C
:10130000090409027B00040100A0FA09040000019D
:10131000030101000921110100012240000705819C
:101320000308000109040100020300000009211163
:1013300001000122220007058203200001070503A6
:10134000032000010904020001030000000921112B
:10135000010001226D000705840320000109040338
:1013600000020300000009211101000122220007F0
:101370000585032000010705050320000112010077
:101380000200000008D804E8EC0100010200010698
:1013900031FF0974A1010975150026FF009520751C
:1013A0000881020976150026FF0095207508910234
:1013B000C00660FF0961A1010962150026FF0095C2
:1013C00020750881020963150026FF009520750825
:1013D0009102C005010980A101850319012AB70006
:1013E000150126B700950175108100C0050C090193
:1013F000A101850419012AA002150126A002950168
:1014000075108100C005010906A1018506050719AF
:10141000E029E715002501950875018102050719E6
:101420000029EF1500250195F075018102050819C5
:10143000012905950575019102950175039101C07A
:1014400005010906A101050719E029E71500250195
:10145000950875018102950175088101050719003C
:1014600029FF150026FF009506750881000508195B
:10147000012905950575019102950175039101C03A
:1014800011241FBECFEFD0E2DEBFCDBF04B603FEF6
:1014900018C08091A2039091A303A091A403B091DE
:1014A000A5038730904BA740B04B59F41092A2038C
:1014B0001092A3031092A4031092A503E0E0F0EFB2
:1014C000099511E0A0E0B1E0EAE7FCE700E00BBF1E
:1014D00002C007900D92AA3DB107D9F723E0AAED0B
:1014E000B1E001C01D92A23AB207E1F70E94091EC5
:1014F0000C943B3E0C940000FF93EF93E091DA01D3
:10150000F091DB01309709F00995EF91FF91089573
:10151000FC018591803011F0EFDFFBCF0895FF27AC
:10152000E0E230E247FF0CC0419597FF09C0EDE2D1
:101530006095709580959095611D711D811D911D1F
:1015400027FF02C0219530E350E2AA27660F771FDC
:10155000881F991FAA1FA41710F0A41B63955A9502
:10156000A9F7AA3008F0A95FA05DAF93F3956115C4
:1015700071058105910541F7ED3211F4EF93F39573
:10158000F21718F43F93F395FBCF8F91B5DFFA95DF
:10159000E1F70895E991F9918591803021F0853244
:1015A00019F0AADFF9CF089520E0E894559155325B
:1015B000C1F3503311F4689455915A3348F45053A1
:1015C00090F3220F022E220F220F200D250FF4CFB1
:1015D0000EF4219589919991533619F3533729F1D6
:1015E000533559F1BC0188279927E8945C3621F4DA
:1015F0008991999168945591543639F446EF7EF06B
:1016000077FF0DC08FEF9FEF0AC055374AE039F0E2
:10161000583540E121F0523642E009F00895FF9339
:10162000EF937DDFEF91FF91B7CFFF93EF93FC0135
:1016300081918030B9F360DFFBCFFF93EF9368DFD8
:10164000F1CFDF93CF93CDB7DEB72596A3DFCF9150
:10165000DF910895E82FF0E0E85CFE4F8081E82FED
:10166000E295EF70F0E031A1282F2F7081E090E03B
:1016700001C0880F2A95EAF7932F982B91A392A186
:101680008095892382A30895E82FF0E0E85CFE4F5F
:101690008081E82FE295EF70F0E031A1282F2F70C4
:1016A00081E090E001C0880F2A95EAF7982F909585
:1016B000932391A392A1892B82A308954F925F92C5
:1016C0006F927F928F929F92AF92BF92CF92DF9252
:1016D000EF92FF921F93CF93DF93162FEC0124E03C
:1016E000629FC00DD11D1124C880D980EA80FB8083
:1016F000188219821A821B82862F0E942A0B0E944E
:10170000891DE6E2F1E020E030E0812C912C5401CB
:1017100083944191A42FA295AF70B0E090968C91E4
:10172000488059806A807B8090E04F70DC0102C065
:10173000B595A7954A95E2F7A0FD0BC0D501C40168
:10174000022E04C0880F991FAA1FBB1F0A94D2F74C
:1017500003C080E090E0DC0184299529A629B729FF
:1017600088839983AA83BB832F5F3F4F2231310542
:1017700081F6812F0E94440B81E0488159816A8162
:101780007B814C155D056E057F0509F480E0DF91D6
:10179000CF911F91FF90EF90DF90CF90BF90AF90CF
:1017A0009F908F907F906F905F904F900895E82F5B
:1017B000F0E0EA5DFE4F8081E82FE295EF70F0E007
:1017C00031A1282F2F7081E090E001C0880F2A9569
:1017D000EAF7932F982B91A392A18095892382A356
:1017E0000895E82FF0E0EA5DFE4F8081E82FE29552
:1017F000EF70F0E031A1282F2F7081E090E001C060
:10180000880F2A95EAF7982F9095932391A392A198
:10181000892B82A308956F927F928F929F92AF92AD
:10182000BF92CF92DF92EF92FF920F931F93CF93CD
:10183000DF93182FD92FC62F862F0E94D70B0E9417
:10184000891D41E050E060E070E00C2E04C0440FC0
:10185000551F661F771F0A94D2F728E3622E21E0F6
:10186000722EE12FFD2F9F01285E3F4FD0E08F01A8
:1018700080809180A280B380D3018D913D01E82EBC
:10188000E2949FE0E922F12CD7019096EC90F12CA4
:101890008F70D70102C0B595A7958A95E2F7A0FD94
:1018A0000AC075016401C42AD52AE62AF72AC08233
:1018B000D182E282F3823496D801CD90DD90ED9012
:1018C000FC908C149D04AE04BF0409F0D1E0E21733
:1018D000F30769F68C2F0E94F10B8D2FDF91CF91CA
:1018E0001F910F91FF90EF90DF90CF90BF90AF903E
:1018F0009F908F907F906F900895CF93DF93A8E390
:10190000B1E04EE351E061E070E08D91E82FE295A7
:10191000EF70F0E021A18F70EB0102C0CC0FDD1F52
:101920008A95E2F7CE019C2F9095922391A392A1E4
:10193000892B82A34A175B0741F7DF91CF91089566
:10194000CF93DF93A6E2B1E048E351E061E070E0BD
:101950008D91E82FE295EF70F0E021A18F70EB01FF
:1019600002C0CC0FDD1F8A95E2F7CE019C2F909527
:10197000922391A392A1892B82A34A175B0741F777
:10198000DF91CF9108950E947D0C0C94A00C0C94D3
:10199000C30C8F929F92AF92BF92CF92DF92EF9241
:1019A000FF920F931F93CF93DF93F82E092FC82F29
:1019B000D92F8CEDA82E81E0B82E4501CF2CD92E41
:1019C00010E0F60181919191A191B1916F01F40123
:1019D00081939193A193B1934F01612F8F2D902FFC
:1019E0000E945E0B1F5F163061F710E0612F8F2D94
:1019F000902F0E940B0C1F5F1231C1F724EF31E0D2
:101A000080E0F501C190D190E190F1905F014991A2
:101A1000599169917991C416D506E606F70609F041
:101A200081E02A153B0569F7DF91CF911F910F9156
:101A3000FF90EF90DF90CF90BF90AF909F908F90EE
:101A400008950E94A92440E86FEF80E00E940022E0
:101A50008BE00E94A62460E070E0CB010E94961902
:101A60000C94A219CF93C82F2FE333E081FF06C057
:101A700048E760E080E00E94BF1E05C040E060E0F3
:101A800080E00E94CD1E22E433E0C0FF06C048E79C
:101A900060E080E00E94BF1E05C040E060E080E0A2
:101AA0000E94CD1E25E433E0C2FF06C048E760E097
:101AB00080E00E94BF1E05C040E060E080E00E9420
:101AC000CD1ECF910C94092068E183E00E94AB1EEB
:101AD00087E00E94320D2FEF85EA9EE02150804082
:101AE0009040E1F700C0000080E00C94320D81E0EE
:101AF000089581E008950C94790D08950C947D0D5E
:101B00001F93CF93DF9300D000D01F92CDB7DEB7E5
:101B100049835A836B833091F50189819A81311110
:101B200014C0662359F0222349F00E94D714182FBD
:101B3000682F89819A810E94801403C00E94AB148F
:101B4000182F69817A81812F04C00E94D71469817E
:101B50007A810F900F900F900F900F90DF91CF919F
:101B60001F910C94AB30FC01262F40815181628182
:101B7000738184810C94800D81E00895CF93DF936D
:101B8000EC0160E00E94B30DBE01DF91CF910C9497
:101B90007E0DE1E0F0E0DF0102C0AA0FBB1F6A95F5
:101BA000E2F7BD01DF0102C0AA0FBB1F4A95E2F7B1
:101BB000AD01462B01C0EE0F2A95EAF7942F98232A
:101BC000491302C08E2B0895E0958E230895242F8B
:101BD000462F682F809120020E94C90D0C943D145D
:101BE0000C94941D0C94901D08950E94D8130E948B
:101BF000F40D2FEF84E39CE0215080409040E1F70A
:101C000000C000000C94C5340F931F93CF93DF9353
:101C10008C0161E00E94B30DEC01B8010E94352BEC
:101C2000882399F1B801CE010E947B0D882369F1C8
:101C3000B801CE010E940229882339F1B801CE01F2
:101C40000E941132882309F1B801CE010E94C02CF4
:101C50008823D9F0B801CE010E946D318823A9F004
:101C6000B801CE010E947B26882379F0F801828199
:101C70008823E1F1CE3D8CE5D80781F160F4C115F0
:101C8000FCE5DF0721F40E94F50DC0E036C0C1304D
:101C9000DC4579F02BC0CB35EDE5DE0729F1CC35FD
:101CA000FDE5DF07F1F0CA35DD4501F50E94591960
:101CB0001DC08091BE02C82FC095C170C0FB80F9C5
:101CC0008093BE02CC2329F088EE94E00E94880A1B
:101CD000DCCF86ED94E00E94880A0FC00E94051AAE
:101CE000D4CF0E94501902C00E945C19C801DF9134
:101CF000CF911F910F910C94770D8C2FDF91CF9185
:101D00001F910F9108950E94F73380E00E94BA2935
:101D10000E94C60F0C94BC250E94BA270E94C90FCE
:101D20000E9447250C94FD33DF92EF92FF920F93B0
:101D30001F93CF93DF93E82FF0E0E750FB4FD49051
:101D4000282F26952695269530E0F901E756FA4F7B
:101D50000491877010E0082E02C0159507950A942B
:101D6000E2F701701127F901E757FA4FE490F12CDF
:101D7000082E02C0F594E7940A94E2F791E0E92274
:101D8000FF24F901E758FA4FC491D0E002C0D5957D
:101D9000C7958A95E2F7C170DD270115110519F085
:101DA00081EE0E944F10E114F10419F086EE0E94BA
:101DB0004F108D2D0E946C11EF2819F086EE0E94B5
:101DC000F610012B19F081EE0E94F610CD2B51F088
:101DD0008CE2DF91CF911F910F91FF90EF90DF90F8
:101DE0000C946C11DF91CF911F910F91FF90EF90A8
:101DF000DF900895EF92FF920F931F93CF93DF939D
:101E0000EC01162F0AE08881882309F455C081303F
:101E100009F043C08981813041F47E0182E0E80EFF
:101E2000F11C8A810E946C1109C0823049F47E0144
:101E3000E2E0EE0EF11C8A810E944F10E7012FC0F4
:101E4000833041F47E01F2E0EF0EF11C8A810E94A2
:101E5000F610F4CF843011F0219621C02A81229609
:101E600080E090E030E0205331092A30310558F409
:101E7000089FA001099F500D1124C901840F951FCF
:101E800021962881EFCF009751F0EFE9FFE03197DD
:101E9000F1F700C000000197F6CF0E94940E219642
:101EA000812F882309F4AFCFEFE9FFE03197F1F7F5
:101EB00000C000008150F5CFDF91CF911F910F91AD
:101EC000FF90EF90089560E00C94FA0E8295982FA1
:101ED000937344E0949F900111248C7C86958695A1
:101EE000282B822F8575880F2A7A2695822B0895B4
:101EF000CF93DF93D92F0E94660FC82F8D2F0E949A
:101F0000660F2C2F30E0322F2227A901482BCA015F
:101F1000DF91CF910895CF92DF92EF92FF920F93CE
:101F20001F93CF93DF936B017C01CB010E94780F4D
:101F3000EC01C7010E94780FAC01CE01A0E0B0E037
:101F4000DC019927882760E070E08C019D01042B5B
:101F5000152B262B372BC901B801DF91CF911F918B
:101F60000F91FF90EF90DF90CF9008950C94320D79
:101F700081E008950C94B80F0895CF93C82F0E9464
:101F8000B60F8C2F0E94BA0FCF91089580E00C9469
:101F9000BD0F0E946D320C94BD0FCF930E946D3225
:101FA000C82F8091F401C81741F1C093F4018091CA
:101FB000BE0282FF1EC080FF04C080EB95E00E943D
:101FC000880A8091BE0280FF0CC01F92CF938BEADB
:101FD00095E09F938F930E94210B0F900F900F908D
:101FE0000F908091BE0280FF04C089EA95E00E94B4
:101FF000880A8C2FCF910C94BD0FCF910895CF9369
:10200000DF93CDB7DEB72B970FB6F894DEBF0FBEC8
:10201000CDBF4F83588769877A878B8761110E946C
:1020200088189E012F5F3F4F86E0F90111928A9533
:10203000E9F785E0FE013796D90101900D928A9566
:10204000E1F789819A814C815D81452B31F09F3F79
:1020500031F491E08F3F19F403C091E001C090E0AA
:1020600090FF09C049815A816B817C818D819E815D
:102070000E94A91705C0C9010E94BC0D8111F2CFB1
:102080002B960FB6F894DEBF0FBECDBFDF91CF9178
:102090000895FC01808191810E9404150895CF93D9
:1020A000882309F4A1C0C82F8238C1F40E946D3280
:1020B00081FD9AC069E380910201909103010E9421
:1020C000B2330E94AA182FEF81EE94E02150804095
:1020D0009040E1F700C0000069E319C0833801F5C2
:1020E0000E946D3280FD80C063E580910201909175
:1020F00003010E94B2330E94AA182FEF81EE94E0F0
:10210000215080409040E1F700C0000063E58091DD
:102110000201909103010E94BD33CF910C94AA1843
:102120008438C1F40E946D3282FD5EC067E4809104
:102130000201909103010E94B2330E94AA182FEF6E
:1021400081EE94E0215080409040E1F700C0000013
:1021500067E4DDCF8CEF8C0F813AF8F48C2F0E946E
:102160009C2F811141C06C2F80910201909103013D
:102170000E941033882349F06C2F809102019091C6
:1021800003010E94BD330E94AA186C2F80910201A6
:10219000909103010E94B233C0CF80E28C0F88304F
:1021A00048F4C77081E001C0880FCA95EAF70E9421
:1021B0006B18B3CFEBE5EC0FE33040F4F0E0E459FB
:1021C000FE4F808190E0CF910C94CE32C85AC73137
:1021D00058F4EC2FF0E0EE0FFF1FE25CFE4F808121
:1021E0009181CF910C94E432CF910895882309F422
:1021F0005BC0682F823879F40E946D3281FF54C031
:1022000069E380910201909103010E94B2330E9420
:10221000AA1869E310C08338B1F40E946D3280FFC0
:1022200043C063E580910201909103010E94B233A3
:102230000E94AA1863E580910201909103010E9417
:10224000BD330C94AA18843879F40E946D3282FF51
:102250002BC067E480910201909103010E94B23388
:102260000E94AA1867E4E7CF8CEF860F813A18F333
:1022700080E2860F883048F4677081E001C0880FE3
:102280006A95EAF70E947118DCCF8BE5860F8330E0
:1022900020F480E090E00C94CE32685A673120F44C
:1022A00080E090E00C94E43208951F93CF93DF9385
:1022B000182FEB010E944F10209741F08FE99FE00B
:1022C0000197F1F700C000002197F6CF812FDF9131
:1022D000CF911F910C94F610893319F060E070E0F3
:1022E00002C060E570E00C945511882321F00E9433
:1022F0006B180C94AA180895882321F00E94711875
:102300000C94AA180895CF92DF92EF92FF920F9348
:102310001F93CF93DF937C01162FC72FFC01D2812F
:10232000058102950F700E9461188823B9F0DD23A2
:10233000A9F08C2F807F803421F080E2810F8830DB
:1023400068F08091090382FD09C082E00E940A19A9
:102350000E94611891E0D82ED92601C0D12CCC2E34
:10236000C2948FE0C8228C2D90E08C30910508F04B
:1023700093C1FC01E45BFF4F0C94983D8C2F807F50
:10238000CF70882311F0C295C07FDD2399F0CC2354
:1023900009F46EC180E2810F883010F0111104C081
:1023A0008C2F0E946B1803C08C2F0E947B180E94F8
:1023B000AA185EC1812F0E94F610CC2309F46CC1CB
:1023C00080E2810F883038F1112329F18C2F0E948F
:1023D000811824C08C2F807FCF70803211F0C2957D
:1023E000C07F112319F01130A1F13DC08091090384
:1023F00082FF17C0DD2349F0CC2329F08C2F0E94E7
:102400006B180E94AA1880E034C180E00E94F61088
:10241000CC2309F441C18C2F0E9471180E94AA1884
:102420003BC1DD2371F0002341F0013031F40E9403
:102430008B188C2B0E9493182FC10E948B188C2B09
:102440001DC0002319F0013009F426C10E94A01814
:1024500025C0DD2321F0063008F01EC10EC0053076
:1024600008F01AC11BC0DD2361F0002331F0F70131
:10247000858180FFFDC08F7085838C2F0E94751130
:102480000BC1002359F0193309F003C1FFEF27EE08
:1024900083E0F15020408040E1F7F9C08C2F0E948A
:1024A0007C11FAC08C2F86958695837019F0813047
:1024B00061F0F2C0DD2321F0812F9C2F937002C0C8
:1024C00080E090E00E94CE32EFC0DD2321F0812F2A
:1024D0009C2F937002C080E090E00E94E432E4C040
:1024E0008C2F837079F5D111DBC0412F4295469531
:1024F0004770440F440F212F2F70042E01C0220F6C
:102500000A94EAF714FF08C08FE090E001C0880F3A
:102510004A95EAF7809501C080E0C695C695C370DC
:10252000822BC23049F058F4C13019F00E943114A6
:10253000B7C00E942C14B4C00E943614B1C00E94CF
:102540002A14AEC0DD2319F08C2F817001C086954E
:10255000882309F4A5C0412F429546954770440F42
:10256000440F212F2F70042E01C0220F0A94EAF786
:1025700014FF08C08FE090E001C0880F4A95EAF789
:10258000809501C080E0C695C695C370822BC2308D
:1025900049F058F4C13019F00E94751481C00E94AE
:1025A00070147EC00E947A147BC00E943D1478C0D3
:1025B000CF70DD2339F08C2F0E944E14812F0E94A2
:1025C00075116EC0812F0E947C118C2F0E945914AE
:1025D00067C0123F21F128F4103F41F0113FC1F0D4
:1025E00043C0133F19F1143F79F03EC0DD2341F0A1
:1025F000053008F051C08C2F8F710E9465144CC0BB
:10260000063008F049C0F7CF8091090382FF18C057
:10261000DD2339F08C2F8F710E944E143DC0DD23D5
:10262000C9F38C2F8F710E94591436C0DD2329F015
:102630008C2F8F710E9446142FC00E9443142CC00F
:10264000DD2349F0CF718C2F0E944E1463E08C2F54
:102650000E94EF1821C081E00E940A190230E0F0C8
:1026600082E00E940A1918C0DD2331F0002391F2A4
:10267000812F0E944F1010C0002399F2193349F4A2
:102680009FEFE7EEF3E09150E040F040E1F700C04B
:102690000000812F0E94F61088EF8C0D843020F40A
:1026A0000E946D320E94BD0FDD20C9F00E945D18AE
:1026B00080FD15C0F70112820E9457180E944E1427
:1026C000C7010E9490130E945718DF91CF911F916C
:1026D0000F91FF90EF90DF90CF900C945914DF9101
:1026E000CF911F910F91FF90EF90DF90CF900895C1
:1026F0000F931F93CF93DF93EC01688179818A81D7
:102700000E940F158C010E947F140E941E14B801B4
:10271000CE010E948311DF91CF911F910F910895F7
:10272000CF93DF93EC01988189812B813C81232B0E
:1027300031F08F3F31F481E09F3F19F403C081E015
:1027400001C080E080FD1DC0CE010E94040E8111F9
:1027500010C00E9461188823A1F08A81882389F023
:102760008091090382FD0DC082E0DF91CF910C942E
:102770000A19CE010E947813CE01DF91CF910C94FB
:10278000BE0DDF91CF91089580E090E00E94CE329F
:1027900080E090E00E94E4320E9488180C94AA180D
:1027A00080910201909103010E94C8330C94C413DC
:1027B0000E9478180C94D01392959F70963079F0FF
:1027C00010F4925001C09A50923068F4803F69F042
:1027D00018F4883E40F409C0843F29F406C0883EBE
:1027E00020F0813F11F080E0089581E00895FC0120
:1027F000808191810E9404150E94DC130895CF937B
:10280000DF9300D000D01F92CDB7DEB70F900F90AE
:102810000F900F900F90DF91CF910895CF93DF939A
:1028200000D000D000D0CDB7DEB726960FB6F89412
:10283000DEBF0FBECDBFDF91CF91089508950895FB
:102840000C941F140C9420140E94221480932102D3
:102850000C94C4130C94241490912102892B0C9491
:1028600024149091210289230C9424149091210224
:1028700089270C9424140C941F140E943B148093F9
:1028800020020C94C41380E00C943D1491E001C02C
:10289000990F8A95EAF7892F0C943D1421E030E0D6
:1028A00001C0220F8A95EAF780912002822B0C94B6
:1028B0003D1421E030E001C0220F8A95EAF720950F
:1028C0008091200282230C943D1421E030E001C06D
:1028D000220F8A95EAF78091200282270C943D14FA
:1028E00090912002892B0C943D1490912002892311
:1028F0000C943D149091200289270C943D14089566
:1029000022E1929F800D1124E82FE695E695E69549
:10291000877051E001C0550F8A95EAF783E0E89F80
:10292000F0011124EA50FE4F20E030E070E04081D9
:10293000CB01022E02C0969587950A94E2F781702A
:10294000819584278523842781932F5F3F4F2330F0
:10295000310569F7089522E1929F800D1124682FB7
:10296000669566956695982F977083E0689FB0018D
:10297000112440E050E080E0FB01E40FF51FEA5035
:10298000FE4F208130E0092E02C0369527950A942B
:10299000E2F721703327042E01C0220F0A94EAF7D0
:1029A000822B4F5F5F4F4330510531F70895CF922F
:1029B000DF92FF920F931F93CF93DF936C010091EF
:1029C000200280912102082BC7E0D0E010E0C8016E
:1029D0000C2E02C0959587950A94E2F780FD04C0FD
:1029E0002197A8F7F12C07C0FC2EB6018C2F0E946E
:1029F000241C0197A9F38F2DDF91CF911F910F9187
:102A0000FF90DF90CF900895CF93DF93EC010E9469
:102A1000D714BE010E94241CDF91CF9108951F930B
:102A2000CF93DF93EB019091F501992321F0CB0136
:102A30000E94041513C0882349F0CB010E94D714CB
:102A4000182F682FCE010E94801404C0CB010E9471
:102A5000AB14182FBE01812F0E94241CDF91CF914F
:102A60001F9108951F93CF93DF93C091220216E028
:102A700080912302C81799F0D0E01C9FF0011D9FA0
:102A8000F00D1124EC5DFD4F408151816281738115
:102A9000848195810E940E142196C770E9CFDF9141
:102AA000CF911F9108954091540250915502609129
:102AB00056027091570280915802909159020C94DD
:102AC0000E14EF92FF920F931F93CF93DF93809199
:102AD000590282958F7009F065C080915602882353
:102AE00009F460C080912202F090230210915402F8
:102AF00000915502609157027091580291E01F3F7A
:102B000009F090E0C0910001D0910101292F96E0D9
:102B1000E92E8F1509F446C06115710521F00F3FAC
:102B200021F030E003C031E001C0322F90E030FDF1
:102B300036C0E89EF001E99EF00D1124DF01AC5D86
:102B4000BD4F11963C911197301329C03C91311320
:102B500026C012963C911297311121C013964D91C7
:102B60005C911497461B570B4C175D07C0F480917E
:102B700059028F70806180935902E75DFD4F80811B
:102B80008F708061808384E592E00E949013DF91D2
:102B9000CF911F910F91FF90EF900C9432150196F9
:102BA0008770B7CFDF91CF911F910F91FF90EF907A
:102BB00008959F92AF92BF92CF92DF92EF92FF92D1
:102BC0000F931F93CF93DF93CDB7DEB761970FB607
:102BD000F894DEBF0FBECDBF8C0185E0F801DE01A9
:102BE0001D9601900D928A95E1F7D8011296EC900E
:102BF00090915402E0915502209157023091580271
:102C00002115310531F0EF3F31F481E09F3F19F498
:102C100003C081E001C080E0B82FB1709B2E80FD21
:102C200047C1D8014C9111965C9111971396AD90C4
:102C3000BC90149784E5C82E82E0D82EF0905602FE
:102C4000B501621B730B2091000130910101FF203F
:102C500009F4D9C0809159026217730708F095C032
:102C6000282F207F09F052C05E1313C0491311C0F2
:102C7000FE2CE1100EC08F708061809359020E947B
:102C80005315C6010E94901380915902F801858363
:102C90004DC1AB2831F05F3F31F481E04F3F19F473
:102CA00003C081E001C080E080FD03C081E08E258B
:102CB00002C080E090E0F82FF170FF2E80FF1CC072
:102CC000809122022091230236E0821709F40BC181
:102CD00090E0389FF001399FF00D1124EC5DFD4F1D
:102CE0006181561306C06081461303C06281E612FB
:102CF00003C001968770E9CFFE2CEE2009F416C1BF
:102D00008091590281608093590254C05E1306C0BD
:102D1000491304C0E11002C0F80199C0C8010E9423
:102D2000F713882361F1EE2051F120915902822F8F
:102D300082958F7090E0029774F080915402909188
:102D4000550298878F831986BB86AA862C87CE0169
:102D500007960E94901386E0F801A4E5B2E0019086
:102D60000D928A95E1F70E9461150E9453150AC0E1
:102D70005E1711F1C8010E94F71381112CC0C80120
:102D80000E949013FF24F394D1C0282F207F81F755
:102D90007A2DB98AA88A6E2D89890E94FF1384E54D
:102DA00092E00E94901386E0D6011D928A95E9F781
:102DB0000E945315F12CBAC04913DCCFE110DACFD1
:102DC000F8018583C8010E94901386E0D6011D9208
:102DD0008A95E9F7ABC0EE2091F220915902822F3B
:102DE00082958F7090E002970CF4B5CF80915402D9
:102DF000909155029A8389831B82BD82AC822E8377
:102E0000CE010196A6CF6217730708F044C0FE2CCE
:102E1000EE2009F4B4CF5E1330C049132EC02091C8
:102E2000590220FD21C0822F82958F70482F50E0DB
:102E300041155105C9F0F80125834F30510541F086
:102E40008F5F982F9295907F822F8F70892B85832B
:102E5000C8010E94901386E0F801A4E5B2E0019059
:102E60000D928A95E1F73CC086E0F801A4E5B2E056
:102E700001900D928A95E1F759C0C8010E94F7139D
:102E8000811169CF80915902816080935902C801F4
:102E90000E9490134BC07A2DB98AA88A6E2D898919
:102EA0000E94FF1386E0D6011D928A95E9F718C0AB
:102EB000EE2009F464CFC8010E94F713F82E88238E
:102EC00009F45DCF86E0F801A4E5B2E001900D922F
:102ED0008A95E1F784E592E00E9449100E9461150D
:102EE0000E94531523C04D875E878D859E850E9465
:102EF0000415292F22952F70223028F49F7039F065
:102F0000811105C00BC0243028F49F7049F4805E05
:102F1000883020F0C8010E9490139F2CF92C06C025
:102F2000D80115969C91907F91F7F8CF8F2D6196DF
:102F30000FB6F894DEBF0FBECDBFDF91CF911F91CA
:102F40000F91FF90EF90DF90CF90BF90AF909F9048
:102F500008951F93CF93DF93CDB7DEB72C970FB6AD
:102F6000F894DEBF0FBECDBF4F83588769877A873D
:102F70008B879C87CE0107960E94D9158823D1F0B4
:102F80009F8188852A853B85232B31F08F3F31F443
:102F900081E09F3F19F403C081E001C080E080FD23
:102FA00047C04F81588569857A858B859C850E94AD
:102FB0000E143EC086E0FE013796DE0111960190A8
:102FC0000D928A95E1F7FF81E8856A857B85611519
:102FD000710531F0EF3F31F481E0FF3F19F403C098
:102FE00081E001C080E080FD23C02091230230E019
:102FF000C9010196877099274091220250E08417F9
:103000009507F1F1F983EA837D836C8396E0929FC3
:10301000D001939FB00D1124AC5DBD4FFE013196E0
:1030200001900D929A95E1F7809323020E94321548
:1030300016E08091220290912302891771F1189F66
:10304000C00111248C5D9D4F0E94D915882329F160
:10305000E09122021E9FF0011124EC5DFD4F4081A2
:10306000518162817381848195810E940E148091C7
:10307000220290E001968770992780932202D9CF8F
:103080000E94D8131092230210922202E4E5F2E08B
:1030900086E0DF011D928A95E9F72C960FB6F89429
:1030A000DEBF0FBECDBFDF91CF911F9108958091FC
:1030B0007A02859585958595089580917A02877025
:1030C000089590917A02977081E009F480E0089564
:1030D00080919D02089590919D02892B80939D027D
:1030E0000895809590919D02892380939D02089573
:1030F00010929D02089590919C02892B80939C02CE
:103100000895809590919C02892380939C02089554
:1031100010929C02089580917B02089508950C946A
:103120008E180C948F189091090392FD08C090910D
:103130007B02981721F080937B020C9491180895DC
:1031400080917B02882329F010927B0280E00C940E
:1031500091180895CF93DF93E0910201F09103015C
:1031600080919D028083E0910201F09103019081A2
:1031700080919C02892B808380917B02882381F03F
:10318000E0910201F09103019081892B808380916D
:103190000201909103010E94FA3281110E94A0184D
:1031A000C0910201D091030140E250E06AE572E073
:1031B000CE010E94E63D892B69F080E2FE01AAE57E
:1031C000B2E001900D928A95E1F7CE01DF91CF91A7
:1031D0000C947932DF91CF9108950C948E189091D0
:1031E000090392FD10C098E0899F90011124262BBD
:1031F00020937A020E944E1480917A0285958595DB
:1032000085950C94ED180C944E1410927A0280E07F
:103210000C94ED1820917A028095822380937A0293
:10322000982F977099F430E0482F082E000C550B1A
:103230002417350759F09091090392FD07C0859531
:10324000859585950E9459140C9405190895CF937E
:103250009091090392FB222720F92817F9F0C82F33
:10326000892FC0FB82F98093090380910803909114
:1032700009030E94891982E00E940A198091BE0206
:1032800080FF0CC01F92CF938BEB95E09F938F93A1
:103290000E94210B0F900F900F900F90CF910895E7
:1032A0008091090382FB882780F991E089270C949B
:1032B000271981E00C94271980E00C9427196FEFEF
:1032C0007FEF80E090E00C94253E80E090E00E944B
:1032D000013E893E9E4F11F40C94CD2A80E0089562
:1032E00082E090E00C94F33D83E090E00C94F33D99
:1032F000CF9384E090E00E94F33DC82F82E290E0FB
:103300000E94F33D2C2F30E0A901582BCA01CF9128
:103310000895CF93C92F682F84E090E00E94073E64
:103320006C2F82E290E0CF910C94073EAB01BC0180
:103330008FE090E00C94193EAB01BC0183E190E07A
:103340000C94193E60E070E0CB010C949C1969EE7E
:103350007EEF80E090E00E94253E60E082E090E019
:103360000E94073E60E083E090E00E94073E1092DA
:10337000210260E084E090E00E94073E60E082E28B
:1033800090E00E94073E60E085E090E00E94073EEA
:1033900060E086E090E00E94073E6FEF87E090E0FB
:1033A0000E94073E40E050E0BA0188E090E00E94B1
:1033B000193E60E08DE090E00E94073E40E050E062
:1033C000BA0188E190E00E94193E60E087E190E058
:1033D0000E94073E40E050E0BA018CE190E00E947C
:1033E000193E60E070E080E290E00E94253E40E0FF
:1033F00050E0BA0188E190E00E94193E80E00E940E
:10340000E62A0E94192B0C94210D0C94A719682F01
:103410008EE090E00C94073E0E9484346093BA02E0
:103420007093BB028093BC029093BD026093B6027E
:103430007093B7028093B8029093B902089585B74C
:10344000806885BF85B7806885BF089581E008954D
:103450000C94261A08950C942A1A0C94640D0C945A
:103460002A1A0C942F1A0C942A1A0E941F1A84EEFE
:1034700096E30E9463320E94331A0C94311A0E9420
:103480002B1A0C942A1A0E94181D0E94BC0F0C942F
:103490008C2A0E946F340E94282B0E94961D0E9445
:1034A000431A0E94BA270E94C7240C942D1A2F9207
:1034B0003F924F925F926F927F928F929F92AF92C4
:1034C000BF92CF92DF92EF92FF920F931F93CF9311
:1034D000DF93CDB7DEB72D970FB6F894DEBF0FBEE2
:1034E000CDBF0E94AD1D282E81110E940C1A8EE9BD
:1034F00092E09D878C8700E010E0302E802F0E94A4
:10350000321D2B013C01EC85FD8581919191A191AA
:10351000B191FD87EC875301420188269926AA269E
:10352000BB2681149104A104B104B1F40F5F1F4FB5
:103530000630110511F78FEF89838A831B820E9461
:1035400078348160782F9D838C8349815A816B8187
:103550008D810E94FF0F51C08091BE0281FD0E94AB
:103560003E1D1B86C12CD12C7601C394D501C4010C
:103570008C219D21AE21BF21892B8A2B8B2B91F190
:103580000E94281A8823D1F0FB85FE833F824C20BD
:103590005D206E207F2081E045284628472809F4D9
:1035A00080E088870E9478348160782F9A878987A5
:1035B0004E815F8168858A850E94FF0F000F111F71
:1035C000000F111FF801E256FD4F80819181A28109
:1035D000B381C826D926EA26FB26C082D182E282A0
:1035E000F3820BC08B858F5F8B87CC0CDD1CEE1CB0
:1035F000FF1C823109F0BACF99CF81E0211001C0C0
:1036000080E02D960FB6F894DEBF0FBECDBFDF91E0
:10361000CF911F910F91FF90EF90DF90CF90BF90CF
:10362000AF909F908F907F906F905F904F903F9062
:103630002F9008950E94571A0E94CD250E94EC29D0
:103640000C94CD0FCF93DF930E94291CEC018115C0
:1036500022E59207E8F5811531E5930708F0B6C039
:10366000883E910528F5803E910508F0E9C0883A2A
:10367000910570F4853A910508F07AC08130910582
:1036800009F473C008F4D9C0049708F0D9C0D5C0B4
:103690008F3B910508F0D1C0C85AD0E0CC0FDD1F98
:1036A000C159DE4F0990D881C02DCE019464C9C0A4
:1036B000811540E5940708F069C0811550E495072D
:1036C00008F060C09A9581159F4108F4B9C0B5C053
:1036D000811536E5930728F5811545E5940708F02F
:1036E00092C0811554E5950708F087C0AC0143707E
:1036F0005527282F26952695C115D34508F06CC06F
:1037000081E090E002C0880F991F4A95E2F740E2FD
:10371000249F90011124EC01C22BD32BCE019C6875
:1037200090C081152AE5920780F4811539E5930749
:1037300008F072C0811548E5940708F47EC0D82FC0
:10374000CC27CE01806F906A7CC090568115904244
:1037500008F073C08D2F8F710E94BD1CDD27D062D1
:103760008F71AE01582BCA016CC081E090E069C036
:10377000C55AD0E0C356DE4F8881C82FD0E0CE01B5
:1037800090645FC0DF70CE01906A5BC074E0969574
:1037900087957A95E1F7282F23703C2F337081E0CD
:1037A00090E002C0880F991F3A95E2F79C68AC013F
:1037B000522B9A019C2F9F709695969550E2959F5B
:1037C000E0011124C9018C2B9D2B3BC0D82FCC27A5
:1037D000CE01816F906A35C081E090E002C0880F11
:1037E000991F4A95E2F750E2259F90011124EC01C0
:1037F000C22BD32BCE019A6824C0D82FCC27CE0160
:10380000846F906A1EC00E94BD1C8F7190E0D82FFB
:10381000CC27CE01906215C08F700E94BD1C94E031
:10382000D695C7959A95E1F7CF70D0E0DC2FCC27DD
:10383000D0699E01282BC90104C080E090E001C03E
:10384000CE01DF91CF9108950E94AB300E94221BE0
:1038500008958238910569F1B0F48133910509F436
:103860006DC048F48932910509F463C08A3291052C
:1038700009F469C008958533910509F455C0893369
:103880009105B9F00895833E910569F138F4803EC1
:103890009105B1F0823E910509F10895863E9105AA
:1038A000A9F1873E9105B9F1843E910509F064C004
:1038B00023C02091080320FD4FC021FD4DC0089575
:1038C0008091080380FD44C08091090380FF44C0BB
:1038D0008091080384FD42C083EE4DC080910803AF
:1038E00082FF38C0F5CF8091080382FD33C08091FC
:1038F000090380FD31C0ECCF8091090381FF32C004
:103900008091080384FD2AC087EE35C080910803AA
:1039100083FF26C0F5CF8091080383FD21C08091ED
:10392000090381FD1FC0ECCF8091080385FD1CC0F9
:103930001DC08091080385FD19C016C08091080341
:1039400086FD16C017C08091080386FD13C010C005
:1039500089E311C082EE0FC080EE0DC080E00BC085
:1039600086EE09C084EE07C089E205C085E303C086
:103970008AE201C081E390E008959091080392FFEC
:103980000DC0282F2871283019F4877F846006C065
:10399000282F2471243011F48B7F886093FF0DC091
:1039A000282F2871283119F4877E846106C0282FBA
:1039B0002471243111F48B7E88612091090320FF4A
:1039C0000DC0382F3871383019F4877F816006C0F8
:1039D000382F3171313011F48E7F886021FF0DC096
:1039E000282F2871283119F4877E816106C0282F7D
:1039F0002171213111F48E7E886194FD877E0895B6
:103A00000C945F190E94AD1D8FE39CE90197F1F7BB
:103A100000C000000E94AD1D80E00E94321D60FFCA
:103A200004C00E94001D0C94C53408950C94021D1E
:103A30000E946519811102C00E94051A0E94701926
:103A40008093BE020E947819909309038093080323
:103A50000E94161D0E9474190E942A14809120024F
:103A60000C943B1424E0829FC0011124FC01EE5D04
:103A7000FC4F60817181828193810895CF92DF92A2
:103A8000EF92FF920F931F93CF93DF9381EE95E018
:103A90000E94880A82E2E82E83E0F82EC0E0D0E09F
:103AA0009CEDC92E95E0D92E02ED15E0DF93CF9362
:103AB000DF92CF920E94210B89ED95E00E94880A47
:103AC000F70161917191819191917F010E948B0F1A
:103AD0009F938F937F936F931F930F930E94210B5C
:103AE00080ED95E00E94880A21968DB79EB70A96D0
:103AF0000FB6F8949EBF0FBE8DBFC630D105B1F68C
:103B0000DF91CF911F910F91FF90EF90DF90CF90B9
:103B1000089580EA8A95F1F7089508950C948D1D13
:103B20000C948E1D0C948D1D0C94921D0E94C70C3C
:103B3000EAE0F3E0A2E2B3E0119211921192119245
:103B40001D921D921D921D9283E0E232F807A1F7AB
:103B500086E00E94C01D0C94F00DCF938AE093E0A4
:103B60000E94C90CC82F282F46E062E273E08AE069
:103B700093E00E94C11D0E94F20D8C2FCF910895F9
:103B80000895FF920F931F93CF93DF93F82ED92FB1
:103B90008B01C42F222349F081E08093C1020E944F
:103BA00078349093C0028093BF028091C102882331
:103BB000F1F08091BF029091C0020E94903405976D
:103BC000B0F0EF2DFD2FD80180E090E04C2F50E0B9
:103BD0008417950754F401911191219131910D931E
:103BE0001D932D933D930196F3CF1092C102DF9167
:103BF000CF911F910F91FF9008950E9460370E940E
:103C0000491A0C946C370E9470370E941A1B0C944E
:103C10008E370E9416340E9447370E94351A0E9440
:103C2000FD1D0E94031E0E943F1AFBCFEF92FF92E0
:103C30000F931F93CF93DF938B01682F11110AC04D
:103C4000442329F0E82FF0E0E45FF34F6491762FEE
:103C5000862F75C0212F30E0E82FF0E0442321F0BB
:103C6000E45FF34FE491F0E046E0049FC0011124CB
:103C7000CFEFD0E0BE010E944E3D4BEA4603C001AB
:103C8000479F900D1124800F911D800F911D982F3B
:103C9000990F890FAE01421B530B4E9FD0014F9FCE
:103CA000B00D5E9FB00D11249B2F189FA001112411
:103CB000452F55278E01041B150B0E9FA0010F9F4A
:103CC000500D1E9F500D11247E01E81AF108E29E4E
:103CD0008001E39E100DF29E100D1124212F332739
:103CE000C21BD30BCE9F9001CF9F300DDE9F300DB6
:103CF000112462307105A9F048F46115710569F06D
:103D000061307105C9F48B2F752F0DC064307105BA
:103D100081F058F06630710579F47E2F8B2F932F48
:103D20000DC0832F7B2F9E2F09C08E2F7B2F952FA9
:103D300005C08E2F732F02C07E2F852F692FDF9134
:103D4000CF911F910F91FF90EF90089541E00E9455
:103D5000161E089508958B3170F4262F30E0280F39
:103D6000311D2C3131053CF480930901860F80937D
:103D70000A0160930B0108950E94A61E0895CF9337
:103D8000DF93762FE901682F842F0E94BC1E798370
:103D900068838A83DF91CF910895493C08F048EC0D
:103DA0000C94BF1E80913A03282F269530E02115F0
:103DB000310519F48170826005C02532310524F087
:103DC0008170886480933A0380913D03893C18F0A8
:103DD00088EC80933D03089588E090E00C94FB3DCF
:103DE000CF92DF92EF92FF926B017C010E94D21E74
:103DF000B701A60188E090E0FF90EF90DF90CF90B0
:103E00000C94193E60913A0370913B0380913C03FE
:103E100090913D030C94F01EEAE3F3E083E080838D
:103E200011828FEF828388EC838314826081718199
:103E3000828193810C94F01E8091BE0280FF08C0A5
:103E400084E899E09F938F930E94210B0F900F902D
:103E50008091BE0280FF0FC080913A0381701F9253
:103E60008F9387E699E09F938F930E94210B0F9089
:103E70000F900F900F908091BE0280FF0FC0809135
:103E80003A0386951F928F938CE499E09F938F93CA
:103E90000E94210B0F900F900F900F908091BE0207
:103EA00080FF0EC080913B031F928F9382E399E0C5
:103EB0009F938F930E94210B0F900F900F900F9064
:103EC0008091BE0280FF0EC080913C031F928F93B1
:103ED00088E199E09F938F930E94210B0F900F90A0
:103EE0000F900F908091BE0280FF0EC080913D0325
:103EF0001F928F938EEF98E09F938F930E94210BD8
:103F00000F900F900F900F908091BE0280FF0EC017
:103F100080913E031F928F9382EE98E09F938F9340
:103F20000E94210B0F900F900F900F900895809199
:103F30003A0380FF02C08695089580E0089590912D
:103F40003E03933018F49F5F90933E03882351F013
:103F500060913A0370913B0380913C0390913D0343
:103F60000C94F01E089581E00C949F1F90913E03E5
:103F7000992319F0915090933E03882351F060915A
:103F80003A0370913B0380913C0390913D030C9464
:103F9000F01E089581E00C94B61F80913E030895B1
:103FA00080933E036623A9F060913A0370913B032E
:103FB00080913C0390913D030E94F01E8091BE02CF
:103FC00080FF17C080913E031F928F938DE596E08E
:103FD00008C09091BE0290FF0CC01F928F938AE39D
:103FE00096E09F938F930E94210B0F900F900F905C
:103FF0000F90089560E00C94D01F80913B030895CA
:1040000080913C03089580913D03089570E00C94E5
:10401000A22A6091080180913A0380FF0AC0809132
:10402000070123E0829FC0011124815C9C4F0C9406
:1040300006208091090190910A01891780F7E82FE5
:10404000F0E09F01220F331FE20FF31FE15CFC4FF2
:104050001182108212828F5FF0CF90913A0390FF0D
:1040600016C09091090120910A01921770F4E92F6E
:10407000F0E0DF01AA0FBB1FEA0FFB1FE15CFC4F62
:104080008183608342839F5FF0CF0C940920089561
:10409000CF93DF9300D01F92CDB7DEB790913A0354
:1040A00090FF0AC09E012F5F3F4F0E94CD1E4B81A3
:1040B00069818A810E942D200F900F900F90DF91CF
:1040C000CF910895CF93DF93EC01EC81F0E0E155BF
:1040D000F64F4491EAE3F3E0628181810E94482037
:1040E0008C818F5F8C83DF91CF910895CF93DF9385
:1040F000EC01EAE3F3E0438162818C810E94482075
:104100008C818F5F8C83DF91CF9108950F931F93E4
:10411000CF93DF9300D01F92CDB7DEB78C01809193
:10412000C20281110AC09E012F5F3F4F48EC6FEF22
:104130000E94CD1E8A818093C202F8018481813061
:1041400051F028F0823061F44091C2020AC080919F
:10415000C20240E007C06091C20240E080E003C0BC
:1041600040E080E060E00E942D20F801848190E032
:10417000019663E070E00E94623D84830F900F908F
:104180000F90DF91CF911F910F9108954F925F9201
:104190006F927F928F929F92AF92BF92CF92DF9257
:1041A000EF92FF920F931F93CF93DF9300D01F9254
:1041B000CDB7DEB7F82EB62EE42E622E90913A03DC
:1041C00090FFB4C0E92FE695AE2FB0E0A056BE4FE9
:1041D0008C918093CE029E7F923061F49E012F5F7E
:1041E0003F4F8F2D0E94CD1E4B8169818A810E9495
:1041F0002D2062C0823019F4E0903D035DC086300E
:1042000019F4F0903B0358C08930D9F3893109F093
:1042100053C0E9518E2F8170782E81E0A72CA826FB
:10422000E695F0E0E155F54FC590D490412CDD24A2
:104230009AEC892E96E0992E60910B014616D0F5E6
:10424000042D10E00C9DC0010D9D900D1C9D900D46
:10425000112470E00E944E3D5F2C711002C0560E7A
:1042600001C0561A8091BE0280FF11C0DF92CF922A
:104270001F92AF921F925F921F924F929F928F92C6
:104280000E94210B0FB6F894DEBF0FBECDBF809108
:104290000901080F111D9801220F331F020F131F70
:1042A0009801215C3C4F4E2D6B2D852D0E94CD1E1B
:1042B0004394C2CF0E940920F0923B03B0923C038A
:1042C000E0923D036620E9F060913A0370913B0370
:1042D00080913C0390913D030E94F01E8091BE02AC
:1042E00080FF24C080913D031F928F9380913C03F7
:1042F0001F928F9380913B031F928F9385EA96E0E4
:104300000CC08091BE0280FF11C01F92EF921F92DD
:10431000BF921F92FF928EE796E09F938F930E9429
:10432000210B0FB6F894DEBF0FBECDBF0F900F90DC
:104330000F90DF91CF911F910F91FF90EF90DF9041
:10434000CF90BF90AF909F908F907F906F905F9035
:104350004F900895EAE3F3E09181282F4381628131
:1043600088E0890F0C94C62081E00C94AA21EAE32E
:10437000F3E09181282F4381628188EF890F0C94AB
:10438000C62081E00C94B721EAE3F3E0628128E0E3
:10439000620F08F46FEF282F438181810C94C620AF
:1043A00081E00C94C421EAE3F3E0628128E0621B1F
:1043B00008F460E0282F438181810C94C62081E0BD
:1043C0000C94D321EAE3F3E0438128E0420F08F4A0
:1043D0004FEF282F628181810C94C62081E00C94DC
:1043E000E221EAE3F3E0438128E0421B08F440E0E5
:1043F000282F628181810C94C62081E00C94F121E8
:1044000021E00C94C62020E00C94C620FF920F936C
:104410001F93CF93DF93EC01F12C0FEF10E060912D
:104420000B01F616F0F4809109012F2D30E0280FD2
:10443000311DC901880F991F280F391F215C3C4F7E
:1044400070E0C8010E94623D962F8C8140913D032F
:1044500060913C03F99E800D11240E94CD1EF394BF
:10446000DECF0E9409209A818C8190FF02C08F5F6D
:1044700001C081508C83DF91CF911F910F91FF90EC
:104480000895AF92BF92CF92DF92EF92FF920F9377
:104490001F93CF93DF93FC01828180FF02C00FEF57
:1044A00001C001E010E04BE1A42E80910B01181730
:1044B00008F043C080910901C12ED12CE601C80F3C
:1044C000D11DCE01880F991FC80FD91FC15CDC4FC9
:1044D000198218821A8234E0E32EF12CB12C8091DB
:1044E000C4028B0D8C312CF06A2D0E94403D892F27
:1044F00005C087FF03C090910B01890F082E000CA7
:10450000990BC816D90691F480913D038E9DA001A8
:104510008F9D500D112455954795559547959E01B2
:1045200060913C0380913B030E94CD1EB00EF1E0F0
:10453000EF1AF108A1F61F5FB8CF0E940920809101
:10454000C402013031F4811102C080910B0181500D
:1045500007C090E0019660910B0170E00E94623DFF
:104560008093C402DF91CF911F910F91FF90EF9044
:10457000DF90CF90BF90AF900895CF9380910901C5
:1045800090910A01891770F4E82FF0E09F01220F43
:10459000331FE20FF31FE15CFC4F11821082128285
:1045A0008F5FF0CFC0E060910B01C617C0F5EC2F14
:1045B000F0E070E0CF010E94623D20910901820F7E
:1045C0002091C302022E000C330B90E0E217F30798
:1045D000CCF020910601022E000C330B2E173F0762
:1045E0008CF09C01220F331F820F931F9C01215CD2
:1045F0003C4F40913D0360913C0380913B030E94FE
:10460000CD1E0BC0FC01EE0FFF1F8E0F9F1FFC0184
:10461000E15CFC4F118210821282CF5FC4CF0E94F6
:104620000920209105018091C302820F8093C3026B
:1046300090910601920F9093060119165CF4082ED2
:10464000000C990B40910B0150E041505109841727
:1046500095071CF0219520930501CF9108958F9225
:104660009F92AF92BF92CF92DF92EF92FF920F9301
:104670001F93CF93DF938C01FC014481C42FD0E0C2
:104680009E01DE010E94B03D9B01AC010E94C63D2F
:104690006B017C01E0E2F0E0EC1BFD0BA5E5B0E076
:1046A0009B01AC010E94C63D4B015C019F01DF01F3
:1046B0000E94A83D9B01AC010E94D13D9B01AC0131
:1046C0002C0D3D1D4E1D5F1DC501B4010E94763DA0
:1046D000C22FD22F2A3228F4F3E02F9F9001112409
:1046E0000DC025E530E02C1B3109C901880F991F49
:1046F000280F391F37FF02C02F5F3F4F3595279591
:10470000C22FC095F12C85E5E82EED1A80910B01A2
:10471000F816C8F4F1FC02C08E2D01C08D2F9091C7
:1047200009012F2D30E0290F311DA901440F551F1C
:10473000240F351F215C3C4F4C2F60913C030E949D
:10474000CD1EF394E3CF0E940920F80184818111EA
:1047500002C091E003C0803219F49FEF90930401EE
:1047600090910401890FF8018483DF91CF911F910B
:104770000F91FF90EF90DF90CF90BF90AF909F9000
:104780008F9008950F931F93CF93DF93EC0100E078
:1047900010E080910B01282F30E00217130724F559
:1047A000909109019801290F311DA901440F551F4E
:1047B000240F351F215C3C4F869590E04C810817F3
:1047C00019071CF4442331F002C0411103C0409189
:1047D0003D0301C040E060913C0380913B030E9497
:1047E000CD1E0F5F1F4FD5CF0E9409208C8190E016
:1047F0000196817099278C83DF91CF911F910F9142
:10480000089560913A03669570E04BE050E08CE0CB
:1048100091E00E94D93D892B19F481E08093CF0269
:104820000E9478349093C6028093C5028091BE02A4
:1048300080FF08C081E296E09F938F930E94210B36
:104840000F900F9008951092CF028091BE0280FFCA
:1048500008C088E096E09F938F930E94210B0F90F1
:104860000F90089590913A0390FF54C09170811178
:1048700002C0926006C0853210F0986402C0880FB2
:10488000982B90933A036623B1F060913A037091AC
:104890003B0380913C0390913D030E94F01E809168
:1048A000BE0280FF1BC080913A0386951F928F93B2
:1048B00088E298E00BC08091BE0280FF0FC080911B
:1048C0003A0386951F928F938AE098E09F938F9387
:1048D0000E94210B0F900F900F900F9060913A0360
:1048E000669570E04BE050E08CE091E00E94D93D8D
:1048F000892B19F00E94232402C00E94012481E028
:104900008093C80240913D0360913C0380913B033A
:104910000C9403220895682F90913A03969581E0B4
:10492000890F853208F081E00C94322481E00C94E8
:104930008B24682F90913A0396958FEF890F09F495
:1049400084E20C94322481E00C94992461E00C946C
:10495000322480913A03816080933A038091BE02B1
:1049600080FF0DC01F9281E08F938CE997E09F93A9
:104970008F930E94210B0F900F900F900F908091BA
:104980003A0386950C94A62460E00C94322480911E
:10499000CD02811160C08091BE0280FF08C08BEC07
:1049A00098E09F938F930E94210B0F900F9080911E
:1049B000BE0280FF08C085EB98E09F938F930E9412
:1049C000210B0F900F900E946519811110C08091EA
:1049D000BE0280FF08C08DE898E09F938F930E94ED
:1049E000210B0F900F900E94051A0E940C1F0E942D
:1049F000EC1E60933A0370933B0380933C039093C7
:104A00003D036E7FC1F48091BE0280FF08C084E444
:104A100098E09F938F930E94210B0F900F900E941C
:104A20000C1F0E94EC1E60933A0370933B0380932B
:104A30003C0390933D030E94D21E0E941C1F1092C3
:104A4000CF0280913A0380FF03C086950E94C42460
:104A500081E08093CD02089580913A038160809334
:104A60003A038091BE0280FF0DC01F9281E08F93B8
:104A700083E697E09F938F930E94210B0F900F90F6
:104A80000F900F9080913A0386950C94C424109255
:104A9000CC028091CB0281110E942C250C94012420
:104AA00080913A038E7F80933A0360913A0370912C
:104AB0003B0380913C0390913D030E94F01E809146
:104AC000BE0280FF0FC080913A0381701F928F93C6
:104AD0008BE297E09F938F930E94210B0F900F9092
:104AE0000F900F900E9423242FEF80E792E0215037
:104AF00080409040E1F700C000000C9409208091B4
:104B0000BE0280FF10C080913A03809581701F9291
:104B10008F9383ED97E09F938F930E94210B0F90CB
:104B20000F900F900F9080913A0380FD0C945025C8
:104B30000C94A92480913A038E7F80933A0380914C
:104B4000BE0280FF0CC01F921F9281EF96E09F93E0
:104B50008F930E94210B0F900F900F900F900E9447
:104B600023242FEF80E792E0215080409040E1F72E
:104B700000C000000C9409200E9423248091CC02E4
:104B800081110AC081E08093CC0280913A03817048
:104B90008093CB020C949A2508950F931F93CF9383
:104BA000DF938091CF02882309F485C08091CE02E3
:104BB000E0913A03E695E81BE093C702823049F49E
:104BC000F0E0E555F64FE491CE2FD0E002E610E29A
:104BD00049C0863049F4F0E0E855F64FE491CE2F15
:104BE000D0E006E710E23EC0893051F4E695F0E0EF
:104BF000EB55F64FE491CE2FD0E006E012E232C042
:104C00008F3051F4E695F0E0EE55F64FE491CE2F5B
:104C1000D0E001E412E226C0853149F4F0E0E1562B
:104C2000F64FE491CE2FD0E00DEB12E21BC088319D
:104C300081F0833239F4EDE9F9E0C591D49106E8C9
:104C400010E210C0843251F4C4EFD1E002EC13E260
:104C500009C0C8E2D0E00FE213E204C0C0EDD7E023
:104C60000AEA1EE18091C802882361F01092C8020E
:104C70000E9478349093C6028093C5021092CA02B3
:104C80001092C9020E947834E091C502F091C602E8
:104C90008E1B9F0B8F3F9F4770F4EC0FFD1FF0930F
:104CA000C602E093C50285EC92E0F801DF91CF9156
:104CB0001F910F910994DF91CF911F910F9108954A
:104CC000882311F0FA0101C0FB010994CF93DF930F
:104CD000C82FD62F0E94971F8C1740F00E94971F55
:104CE0008D1720F4DF91CF910C9496248C2FDF91B7
:104CF000CF910C94A6241F93CF93DF93FB011281D5
:104D00001111C3C0EC010E9468188272CC3CFCE512
:104D1000DF0709F49AC0A8F5C63CECE5DE0709F404
:104D200076C0A8F4C33C9CE5D90709F45FC028F419
:104D3000C23CDC4509F457C054C0C43C9CE5D907CB
:104D400009F459C0C53CDC4509F45CC04AC0C93C03
:104D5000FCE5DF0709F46AC050F4C73CECE5DE0768
:104D600009F45AC0C83CDC4509F45BC03AC0CA3CEF
:104D70009CE5D90709F45FC0CB3CDC4509F460C071
:104D800030C0C13DFCE5DF0709F46FC088F4CE3CBC
:104D90009CE5D90709F460C008F45CC0CF3CFCE591
:104DA000DF0709F45CC0C03DDC4509F45BC019C0F5
:104DB000C43D9CE5D90709F460C050F4C23DFCE550
:104DC000DF0709F455C0C33DDC4509F454C009C0F0
:104DD000C53D9CE5D90709F455C0CD35DD4509F43D
:104DE00054C011E052C00E947F254FC043EA54E2F4
:104DF00066E974E204C046E954E263EA74E20E94A0
:104E0000602643C041EC51E264EB71E2F8CF44EB21
:104E100051E261EC71E2F3CF4FED51E260ED71E2EE
:104E2000EECF40ED51E26FED71E2E9CF4DEF51E28F
:104E30006EEE71E2E4CF4EEE51E26DEF71E2DFCF44
:104E40004AEC5FE163EB7FE1DACF43EB5FE16AECD1
:104E50007FE1D5CF81E017C065E082E010C068E057
:104E600086E00DC06EE089E00AC064E18FE007C013
:104E700067E185E104C088E106C062E289E10E9441
:104E8000662603C083E20E94A624812FDF91CF9182
:104E90001F91089586E090E00C94F33D682F86E022
:104EA00090E00C94073E809190030C944E278091E3
:104EB000900384708961809390030C944E278091B5
:104EC000900386958695869508958091900381FD3F
:104ED00013C08260809390030E944E278091BE028F
:104EE00080FF08C081ED9AE09F938F930E94210B71
:104EF0000F900F900C94ED2908958091900381FFFD
:104F000013C08D7F809390030E944E278091BE0234
:104F100080FF08C084EB9AE09F938F930E94210B3F
:104F20000F900F900C94F9290895CF93C09190039E
:104F3000C695C1708091BE0280FF0CC01F92CF93B6
:104F40008DEE9AE09F938F930E94210B0F900F900C
:104F50000F900F90CC2319F0CF910C947D27CF9117
:104F60000C946527809190038695817008958091B7
:104F7000170108950E946519811104C00E94051A45
:104F80000E9457270E944A2780939003282F269536
:104F90002695269530E02430310524F0877088610D
:104FA000809390038091900380FF04C0869586953E
:104FB000869501C080E00C94BA2920919003822F3D
:104FC000869586958695482F50E04330510554F4D8
:104FD0008F5F982F990F990F990F822F8770892BC8
:104FE00080939003809190038160809390030E944E
:104FF0004E278091BE0280FF11C08091900386955C
:10500000869586951F928F9384E79BE09F938F935D
:105010000E94210B0F900F900F900F9080919003A2
:105020008695869586950C94BA2980919003982F41
:10503000969596959695A1F0915E990F990F990F77
:105040008770892B80939003887F91E009F490E02A
:105050008091900390FB80F9809390030E944E27EB
:105060008091BE0280FF11C0809190038695869545
:1050700086951F928F938CE59BE09F938F930E9460
:10508000210B0F900F900F900F90809190038695B9
:10509000869586950C94BA298091900380FD1FC057
:1050A000816080939003813019F489E080939003AC
:1050B000809190030E944E278091BE0280FF08C01D
:1050C00084E39BE09F938F930E94210B0F900F909E
:1050D000809190038695869586950C94BA290895BB
:1050E0008091900380FF14C08E7F809390030E9474
:1050F0004E278091BE0280FF08C081E29BE09F9313
:105100008F930E94210B0F900F9080E00C94BA298E
:105110000895CF93C0919003C1708091BE0280FF2B
:105120000CC01F92CF9386E49BE09F938F930E94C5
:10513000210B0F900F900F900F90CC2319F0CF916F
:105140000C947028CF910C944C2890919003892F47
:105150008695869586958F5F8F719770843038F429
:10516000880F880F880F892B8093900302C090933B
:10517000900380919003887F91E009F490E0809102
:10518000900390FB80F9809390030E944E278091BA
:10519000BE0280FF11C0809190038695869586950A
:1051A0001F928F938DE09BE09F938F930E94210B22
:1051B0000F900F900F900F90809190038695869599
:1051C00086950C94BA29843008F083E0909190037E
:1051D0009770282F220F220F220F922B909390036B
:1051E000987F21E009F420E09091900320FB90F952
:1051F000909390030C94BA290E94E3288091900325
:105200000C944E27FC01DB0112968C918823F9F057
:10521000EB5BFC45E730F105D8F4E85AFF4F0C94FE
:10522000983D83E001C080E00E94FC2880E0089562
:105230000E941528FBCF0E94DD27F8CF0E94892805
:10524000F5CF0E94A528F2CF0E949527EFCF81E0ED
:105250000895279A2F9808952F9808958F929F92D6
:10526000AF92BF92CF92DF92EF92FF920F931F9374
:10527000CF93DF938C0180918600909187006CE042
:1052800070E00E944E3D6017710730F0C80169E080
:1052900070E00E944E3D60C0809186009091870032
:1052A000E0908600F0908700E0918600F091870002
:1052B000C6E0D0E0BE010E944E3D20E030E0060F87
:1052C000171F211D311D4801590185E0880C991CCB
:1052D000AA1CBB1C8A95D1F7C701BE010E944E3D96
:1052E0006F01E12CF12CA7019601260F371F411DFC
:1052F000511DC501B4010E94763D69017A01E0911A
:105300008600F0918700CA01B9010E94243D9B01EB
:10531000AC01DF010E94C63D9B01AC01C701B60193
:105320000E94243DDC01CB012FE0B695A79597950F
:1053300087952A95D1F7009186001091870020E08B
:1053400030E0081719072A073B0728F46091860008
:1053500070918700CB01BC01CB01DF91CF911F91F0
:105360000F91FF90EF90DF90CF90BF90AF909F9004
:105370008F900895CF93C82F843050F4811109C0C5
:1053800080918000877F809380000E942C2906C036
:10539000C3E080918000886080938000A0918600A7
:1053A000B09187002C2F30E00E94B03D23E030E028
:1053B00040E050E00E94763DB42FA32F922F882723
:1053C000892F9A2FAB2FBB270E942E2990938D00F7
:1053D00080938C00CF91089508951092D10210927D
:1053E000D0021092D202EFE6F0E0808181608083EB
:1053F0000895EFE6F0E080818E7F80830E945F2732
:105400000C94BA291F920F920FB60F9211240BB66B
:105410000F920F931F932F933F934F935F936F932D
:105420007F938F939F93AF93BF93CF93EF93FF930C
:105430008091180191E0980F823019F09093180133
:1054400055C081E0809318010E94B727C82F0091B2
:10545000D0021091D1020F5F1F4F0E94B72728E79B
:10546000829FB0011124C8010E944E3D9093D10249
:105470008093D00228E7C29FB0011124660F672FE6
:10548000661F770B71950E944E3D6F778091D20217
:10549000823019F4603451F404C0813039F46F372C
:1054A00029F480916F008E7F80936F00E62FF0E0EB
:1054B000E457F44FC49100918600109187000E9438
:1054C0005F27282FC09FC001C19F900D11246DEF51
:1054D00072E00E944E3D269FC001279F900D11242F
:1054E0000E942E2990938D0080938C00FF91EF9164
:1054F000CF91BF91AF919F918F917F916F915F916C
:105500004F913F912F911F910F910F900BBE0F90D4
:105510000FBE0F901F9018950E9429298AE0809352
:10552000800089E1809381008FEF9FEF9093870047
:10553000809386000E94BA270E94B22781110C94A2
:10554000ED290895209A25B12E7F35B131604FB7EE
:10555000F894FC01CB01880F991F680F791F6E0F1B
:105560007F1FE617F70789F0819198E035B90000B1
:1055700000C087FF25B9880F000000C000C000C030
:1055800025B900C09A9591F7ECCF4FBF8FE594E015
:105590000197F1F700C00000089583E290E00E94B7
:1055A000F33D823281F484E290E00E94F33D843046
:1055B00051F485E290E00E94F33D91E0873209F0DA
:1055C00090E0892F01C080E081700895CF93C82FAB
:1055D000811102C06FEF01C062E283E290E00E949D
:1055E000073EC11102C06FEF01C064E084E290E0A9
:1055F0000E94073EC11102C06FEF01C067E285E261
:1056000090E0CF910C94073E089586E290E00E94CE
:10561000F33D682F70E080E090E008950895CF9307
:10562000C62F0E940E2B6C2F86E290E0CF910C9437
:10563000073E80E00E94E62A60E070E0CB010E9415
:105640000F2B0E9426300E94053181E00C94E62A3F
:105650000E94042B0E94052B0E940E2B0E94CD2A33
:10566000811102C00C94192B0895CF93FB01C281C4
:10567000CC23E9F09C0122513F452031310520F433
:1056800082510E9415310CC08031FFE59F0751F413
:1056900081E00E944E1443E062E081E00E94E70D49
:1056A000C0E018C081319F45A9F482E0F2CF80317B
:1056B000EFE59E0711F481E004C081319F4549F474
:1056C00082E00E94591443E062E081E00E94E70D0D
:1056D00001C0C1E08C2FCF9108952FEFFC012083F2
:1056E0000895CF93DF93EC018881893031F08A30BF
:1056F00079F40E94B22789830BC00E945F272FEFA5
:10570000829FC001112463E070E00E944E3D6983D6
:10571000DF91CF910895FC018081893019F08A30A2
:1057200069F00895818123E0829FC00111246FEF09
:1057300070E00E944E3D862F0C94E32881818111F8
:1057400002C00C947D270C946527CF93DF93EC0166
:105750008881813889F028F48038A1F40E940320E0
:1057600010C0823861F0833869F40E94FD1F89837C
:105770000E9400208A8306C00E94971F02C00E94D8
:10578000CD1F8983DF91CF910895CF93DF93EC01F3
:1057900088818138B1F058F4803851F5D9810E9460
:1057A0000020C82F0E94FD1F4D2F6C2F1DC0823876
:1057B000B1F08338E9F40E940320482F6A8189817F
:1057C00013C089810E94C4248981811104C0DF91A2
:1057D000CF910C949A25DF91CF910C942C2589813F
:1057E000DF91CF910C94FA1FDF91CF910C9403229B
:1057F000DF91CF910895EF92FF920F931F93CF9374
:10580000DF93EC01E62E8C010F5F1F4FE8818E2F96
:1058100090E0FC013197E331F10508F0A5C0E15AB1
:10582000FF4F0C94983D198289E061C089818230D4
:1058300039F0833061F0813031F50E94843402C048
:105840000E94052B9A838B837C836D838FC08E018E
:10585000F12C8F2D0E94321DF801828373836483A3
:10586000F3940D5F1F4FF6E0FF12F3CF7FC08981E5
:10587000823049F46A817B818C819D810E94A13DA7
:105880000E940F2B73C06E2DCE010E946D2B6EC037
:105890004B816A8189810E94F82F9C838D8366C029
:1058A0002C813D813227232732274B816A818981D0
:1058B0000E9411305BC00E94263058C0C8010E946F
:1058C0008B2BC8010E94C52B51C0C8010E94712BAF
:1058D000C8010E94A52B4AC00E9453270E94021FA4
:1058E00045C00E94B83024C00E94BA3099838A8390
:1058F0003DC06B8170E089819A81AE014C5F5F4F42
:105900009827892798270E94BD3030C06B8170E0AE
:1059100089819A81AE014C5F5F4F9827892798272C
:105920000E94E23023C00E94053120C00E94E52F72
:1059300089831CC06B8170E089819A81AE014C5FC4
:105940005F4F9827892798270E9465300FC06B8189
:1059500070E089819A81AE014C5F5F4F982789275B
:1059600098270E94893002C08FEF88836E2DCE0168
:10597000DF91CF911F910F91FF90EF900C946135C3
:10598000CF93DF93EC01FB018281882309F43CC1B2
:10599000C330FDE5DF0760F4CA3F9CE5D90788F412
:1059A0009E0122503C452431310508F02EC109C02A
:1059B000C136EDE5DE0729F0C53AFDE5DF0709F060
:1059C00024C10E9478199093090380930803C13180
:1059D0008CE5D80709F4C6C008F042C0C930ECE530
:1059E000DE0709F49BC000F5C5308CE5D80709F443
:1059F00085C078F4C330ECE5DE0709F478C008F020
:105A00007AC0C230DC4509F0F5C08091080381609E
:105A1000EFC0C7309CE5D90709F478C008F07AC018
:105A2000809108038061E4C0CD30FCE5DF0709F414
:105A300087C058F4CB309CE5D90709F479C008F049
:105A40007BC08091080388606FC0CF30FCE5DF0722
:105A500009F480C008F082C080910803877FC8C025
:105A6000CD3F9CE5D90709F471C000F5C531FCE5CF
:105A7000DF0709F485C068F4C3319CE5D90709F450
:105A800075C008F095C00E94D813809108038F77E5
:105A9000AFC0CB3FFCE5DF07A9F108F054C0CA3F17
:105AA000DC4509F0A7C08091090340C0C130EDE595
:105AB000DE0709F489C058F4CF3F8CE5D80709F414
:105AC0005AC008F069C08091090382602FC0C136B6
:105AD000EDE5DE0709F47CC0C53AFDE5DF0709F412
